{
	"contracts/DAY4/P1.sol": {
		"TicketingSystem": {
			"abi": [
				{
					"inputs": [
						{
							"internalType": "uint256",
							"name": "_queueSize",
							"type": "uint256"
						}
					],
					"stateMutability": "nonpayable",
					"type": "constructor"
				},
				{
					"anonymous": false,
					"inputs": [
						{
							"indexed": false,
							"internalType": "uint256",
							"name": "ticketNumber",
							"type": "uint256"
						},
						{
							"indexed": false,
							"internalType": "string",
							"name": "customerName",
							"type": "string"
						}
					],
					"name": "TicketIssued",
					"type": "event"
				},
				{
					"inputs": [
						{
							"internalType": "uint256",
							"name": "",
							"type": "uint256"
						}
					],
					"name": "customers",
					"outputs": [
						{
							"internalType": "uint256",
							"name": "ticketNumber",
							"type": "uint256"
						},
						{
							"internalType": "string",
							"name": "name",
							"type": "string"
						}
					],
					"stateMutability": "view",
					"type": "function"
				},
				{
					"inputs": [
						{
							"internalType": "uint256",
							"name": "ticketNumber",
							"type": "uint256"
						}
					],
					"name": "getCustomer",
					"outputs": [
						{
							"internalType": "uint256",
							"name": "",
							"type": "uint256"
						},
						{
							"internalType": "string",
							"name": "",
							"type": "string"
						}
					],
					"stateMutability": "view",
					"type": "function"
				},
				{
					"inputs": [
						{
							"internalType": "string",
							"name": "customerName",
							"type": "string"
						}
					],
					"name": "issueTicket",
					"outputs": [],
					"stateMutability": "nonpayable",
					"type": "function"
				},
				{
					"inputs": [],
					"name": "queueSize",
					"outputs": [
						{
							"internalType": "uint256",
							"name": "",
							"type": "uint256"
						}
					],
					"stateMutability": "view",
					"type": "function"
				},
				{
					"inputs": [],
					"name": "ticketCount",
					"outputs": [
						{
							"internalType": "uint256",
							"name": "",
							"type": "uint256"
						}
					],
					"stateMutability": "view",
					"type": "function"
				}
			],
			"devdoc": {
				"kind": "dev",
				"methods": {},
				"version": 1
			},
			"evm": {
				"assembly": "    /* \"contracts/DAY4/P1.sol\":60:1232  contract TicketingSystem {... */\n  mstore(0x40, 0x80)\n    /* \"contracts/DAY4/P1.sol\":377:544  constructor(uint _queueSize) {... */\n  callvalue\n  dup1\n  iszero\n  tag_1\n  jumpi\n  0x00\n  dup1\n  revert\ntag_1:\n  pop\n  mload(0x40)\n  sub(codesize, bytecodeSize)\n  dup1\n  bytecodeSize\n  dup4\n  codecopy\n  dup2\n  dup2\n  add\n  0x40\n  mstore\n  dup2\n  add\n  swap1\n  tag_2\n  swap2\n  swap1\n  tag_3\n  jump\t// in\ntag_2:\n    /* \"contracts/DAY4/P1.sol\":438:439  0 */\n  0x00\n    /* \"contracts/DAY4/P1.sol\":425:435  _queueSize */\n  dup2\n    /* \"contracts/DAY4/P1.sol\":425:439  _queueSize > 0 */\n  gt\n    /* \"contracts/DAY4/P1.sol\":417:477  require(_queueSize > 0, \"Queue size must be greater than 0\") */\n  tag_6\n  jumpi\n  mload(0x40)\n  0x08c379a000000000000000000000000000000000000000000000000000000000\n  dup2\n  mstore\n  0x04\n  add\n  tag_7\n  swap1\n  tag_8\n  jump\t// in\ntag_7:\n  mload(0x40)\n  dup1\n  swap2\n  sub\n  swap1\n  revert\ntag_6:\n    /* \"contracts/DAY4/P1.sol\":500:510  _queueSize */\n  dup1\n    /* \"contracts/DAY4/P1.sol\":488:497  queueSize */\n  0x01\n    /* \"contracts/DAY4/P1.sol\":488:510  queueSize = _queueSize */\n  dup2\n  swap1\n  sstore\n  pop\n    /* \"contracts/DAY4/P1.sol\":535:536  0 */\n  0x00\n    /* \"contracts/DAY4/P1.sol\":521:532  ticketCount */\n  dup1\n    /* \"contracts/DAY4/P1.sol\":521:536  ticketCount = 0 */\n  dup2\n  swap1\n  sstore\n  pop\n    /* \"contracts/DAY4/P1.sol\":377:544  constructor(uint _queueSize) {... */\n  pop\n    /* \"contracts/DAY4/P1.sol\":60:1232  contract TicketingSystem {... */\n  jump(tag_9)\n    /* \"#utility.yul\":88:205   */\ntag_11:\n    /* \"#utility.yul\":197:198   */\n  0x00\n    /* \"#utility.yul\":194:195   */\n  dup1\n    /* \"#utility.yul\":187:199   */\n  revert\n    /* \"#utility.yul\":334:411   */\ntag_13:\n    /* \"#utility.yul\":371:378   */\n  0x00\n    /* \"#utility.yul\":400:405   */\n  dup2\n    /* \"#utility.yul\":389:405   */\n  swap1\n  pop\n    /* \"#utility.yul\":334:411   */\n  swap2\n  swap1\n  pop\n  jump\t// out\n    /* \"#utility.yul\":417:539   */\ntag_14:\n    /* \"#utility.yul\":490:514   */\n  tag_25\n    /* \"#utility.yul\":508:513   */\n  dup2\n    /* \"#utility.yul\":490:514   */\n  tag_13\n  jump\t// in\ntag_25:\n    /* \"#utility.yul\":483:488   */\n  dup2\n    /* \"#utility.yul\":480:515   */\n  eq\n    /* \"#utility.yul\":470:533   */\n  tag_26\n  jumpi\n    /* \"#utility.yul\":529:530   */\n  0x00\n    /* \"#utility.yul\":526:527   */\n  dup1\n    /* \"#utility.yul\":519:531   */\n  revert\n    /* \"#utility.yul\":470:533   */\ntag_26:\n    /* \"#utility.yul\":417:539   */\n  pop\n  jump\t// out\n    /* \"#utility.yul\":545:688   */\ntag_15:\n    /* \"#utility.yul\":602:607   */\n  0x00\n    /* \"#utility.yul\":633:639   */\n  dup2\n    /* \"#utility.yul\":627:640   */\n  mload\n    /* \"#utility.yul\":618:640   */\n  swap1\n  pop\n    /* \"#utility.yul\":649:682   */\n  tag_28\n    /* \"#utility.yul\":676:681   */\n  dup2\n    /* \"#utility.yul\":649:682   */\n  tag_14\n  jump\t// in\ntag_28:\n    /* \"#utility.yul\":545:688   */\n  swap3\n  swap2\n  pop\n  pop\n  jump\t// out\n    /* \"#utility.yul\":694:1045   */\ntag_3:\n    /* \"#utility.yul\":764:770   */\n  0x00\n    /* \"#utility.yul\":813:815   */\n  0x20\n    /* \"#utility.yul\":801:810   */\n  dup3\n    /* \"#utility.yul\":792:799   */\n  dup5\n    /* \"#utility.yul\":788:811   */\n  sub\n    /* \"#utility.yul\":784:816   */\n  slt\n    /* \"#utility.yul\":781:900   */\n  iszero\n  tag_30\n  jumpi\n    /* \"#utility.yul\":819:898   */\n  tag_31\n  tag_11\n  jump\t// in\ntag_31:\n    /* \"#utility.yul\":781:900   */\ntag_30:\n    /* \"#utility.yul\":939:940   */\n  0x00\n    /* \"#utility.yul\":964:1028   */\n  tag_32\n    /* \"#utility.yul\":1020:1027   */\n  dup5\n    /* \"#utility.yul\":1011:1017   */\n  dup3\n    /* \"#utility.yul\":1000:1009   */\n  dup6\n    /* \"#utility.yul\":996:1018   */\n  add\n    /* \"#utility.yul\":964:1028   */\n  tag_15\n  jump\t// in\ntag_32:\n    /* \"#utility.yul\":954:1028   */\n  swap2\n  pop\n    /* \"#utility.yul\":910:1038   */\n  pop\n    /* \"#utility.yul\":694:1045   */\n  swap3\n  swap2\n  pop\n  pop\n  jump\t// out\n    /* \"#utility.yul\":1051:1220   */\ntag_16:\n    /* \"#utility.yul\":1135:1146   */\n  0x00\n    /* \"#utility.yul\":1169:1175   */\n  dup3\n    /* \"#utility.yul\":1164:1167   */\n  dup3\n    /* \"#utility.yul\":1157:1176   */\n  mstore\n    /* \"#utility.yul\":1209:1213   */\n  0x20\n    /* \"#utility.yul\":1204:1207   */\n  dup3\n    /* \"#utility.yul\":1200:1214   */\n  add\n    /* \"#utility.yul\":1185:1214   */\n  swap1\n  pop\n    /* \"#utility.yul\":1051:1220   */\n  swap3\n  swap2\n  pop\n  pop\n  jump\t// out\n    /* \"#utility.yul\":1226:1446   */\ntag_17:\n    /* \"#utility.yul\":1366:1400   */\n  0x51756575652073697a65206d7573742062652067726561746572207468616e20\n    /* \"#utility.yul\":1362:1363   */\n  0x00\n    /* \"#utility.yul\":1354:1360   */\n  dup3\n    /* \"#utility.yul\":1350:1364   */\n  add\n    /* \"#utility.yul\":1343:1401   */\n  mstore\n    /* \"#utility.yul\":1435:1438   */\n  0x3000000000000000000000000000000000000000000000000000000000000000\n    /* \"#utility.yul\":1430:1432   */\n  0x20\n    /* \"#utility.yul\":1422:1428   */\n  dup3\n    /* \"#utility.yul\":1418:1433   */\n  add\n    /* \"#utility.yul\":1411:1439   */\n  mstore\n    /* \"#utility.yul\":1226:1446   */\n  pop\n  jump\t// out\n    /* \"#utility.yul\":1452:1818   */\ntag_18:\n    /* \"#utility.yul\":1594:1597   */\n  0x00\n    /* \"#utility.yul\":1615:1682   */\n  tag_36\n    /* \"#utility.yul\":1679:1681   */\n  0x21\n    /* \"#utility.yul\":1674:1677   */\n  dup4\n    /* \"#utility.yul\":1615:1682   */\n  tag_16\n  jump\t// in\ntag_36:\n    /* \"#utility.yul\":1608:1682   */\n  swap2\n  pop\n    /* \"#utility.yul\":1691:1784   */\n  tag_37\n    /* \"#utility.yul\":1780:1783   */\n  dup3\n    /* \"#utility.yul\":1691:1784   */\n  tag_17\n  jump\t// in\ntag_37:\n    /* \"#utility.yul\":1809:1811   */\n  0x40\n    /* \"#utility.yul\":1804:1807   */\n  dup3\n    /* \"#utility.yul\":1800:1812   */\n  add\n    /* \"#utility.yul\":1793:1812   */\n  swap1\n  pop\n    /* \"#utility.yul\":1452:1818   */\n  swap2\n  swap1\n  pop\n  jump\t// out\n    /* \"#utility.yul\":1824:2243   */\ntag_8:\n    /* \"#utility.yul\":1990:1994   */\n  0x00\n    /* \"#utility.yul\":2028:2030   */\n  0x20\n    /* \"#utility.yul\":2017:2026   */\n  dup3\n    /* \"#utility.yul\":2013:2031   */\n  add\n    /* \"#utility.yul\":2005:2031   */\n  swap1\n  pop\n    /* \"#utility.yul\":2077:2086   */\n  dup2\n    /* \"#utility.yul\":2071:2075   */\n  dup2\n    /* \"#utility.yul\":2067:2087   */\n  sub\n    /* \"#utility.yul\":2063:2064   */\n  0x00\n    /* \"#utility.yul\":2052:2061   */\n  dup4\n    /* \"#utility.yul\":2048:2065   */\n  add\n    /* \"#utility.yul\":2041:2088   */\n  mstore\n    /* \"#utility.yul\":2105:2236   */\n  tag_39\n    /* \"#utility.yul\":2231:2235   */\n  dup2\n    /* \"#utility.yul\":2105:2236   */\n  tag_18\n  jump\t// in\ntag_39:\n    /* \"#utility.yul\":2097:2236   */\n  swap1\n  pop\n    /* \"#utility.yul\":1824:2243   */\n  swap2\n  swap1\n  pop\n  jump\t// out\n    /* \"contracts/DAY4/P1.sol\":60:1232  contract TicketingSystem {... */\ntag_9:\n  dataSize(sub_0)\n  dup1\n  dataOffset(sub_0)\n  0x00\n  codecopy\n  0x00\n  return\nstop\n\nsub_0: assembly {\n        /* \"contracts/DAY4/P1.sol\":60:1232  contract TicketingSystem {... */\n      mstore(0x40, 0x80)\n      callvalue\n      dup1\n      iszero\n      tag_1\n      jumpi\n      0x00\n      dup1\n      revert\n    tag_1:\n      pop\n      jumpi(tag_2, lt(calldatasize, 0x04))\n      shr(0xe0, calldataload(0x00))\n      dup1\n      0xa6a77d98\n      eq\n      tag_3\n      jumpi\n      dup1\n      0xbae6c2ad\n      eq\n      tag_4\n      jumpi\n      dup1\n      0xc0abda2a\n      eq\n      tag_5\n      jumpi\n      dup1\n      0xcfbd900f\n      eq\n      tag_6\n      jumpi\n      dup1\n      0xeb876f27\n      eq\n      tag_7\n      jumpi\n    tag_2:\n      0x00\n      dup1\n      revert\n        /* \"contracts/DAY4/P1.sol\":561:915  function issueTicket(string memory customerName) public {... */\n    tag_3:\n      tag_8\n      0x04\n      dup1\n      calldatasize\n      sub\n      dup2\n      add\n      swap1\n      tag_9\n      swap2\n      swap1\n      tag_10\n      jump\t// in\n    tag_9:\n      tag_11\n      jump\t// in\n    tag_8:\n      stop\n        /* \"contracts/DAY4/P1.sol\":123:144  uint public queueSize */\n    tag_4:\n      tag_12\n      tag_13\n      jump\t// in\n    tag_12:\n      mload(0x40)\n      tag_14\n      swap2\n      swap1\n      tag_15\n      jump\t// in\n    tag_14:\n      mload(0x40)\n      dup1\n      swap2\n      sub\n      swap1\n      return\n        /* \"contracts/DAY4/P1.sol\":248:290  mapping(uint => Customer) public customers */\n    tag_5:\n      tag_16\n      0x04\n      dup1\n      calldatasize\n      sub\n      dup2\n      add\n      swap1\n      tag_17\n      swap2\n      swap1\n      tag_18\n      jump\t// in\n    tag_17:\n      tag_19\n      jump\t// in\n    tag_16:\n      mload(0x40)\n      tag_20\n      swap3\n      swap2\n      swap1\n      tag_21\n      jump\t// in\n    tag_20:\n      mload(0x40)\n      dup1\n      swap2\n      sub\n      swap1\n      return\n        /* \"contracts/DAY4/P1.sol\":92:115  uint public ticketCount */\n    tag_6:\n      tag_22\n      tag_23\n      jump\t// in\n    tag_22:\n      mload(0x40)\n      tag_24\n      swap2\n      swap1\n      tag_15\n      jump\t// in\n    tag_24:\n      mload(0x40)\n      dup1\n      swap2\n      sub\n      swap1\n      return\n        /* \"contracts/DAY4/P1.sol\":932:1229  function getCustomer(uint ticketNumber) public view returns (uint, string memory) {... */\n    tag_7:\n      tag_25\n      0x04\n      dup1\n      calldatasize\n      sub\n      dup2\n      add\n      swap1\n      tag_26\n      swap2\n      swap1\n      tag_18\n      jump\t// in\n    tag_26:\n      tag_27\n      jump\t// in\n    tag_25:\n      mload(0x40)\n      tag_28\n      swap3\n      swap2\n      swap1\n      tag_21\n      jump\t// in\n    tag_28:\n      mload(0x40)\n      dup1\n      swap2\n      sub\n      swap1\n      return\n        /* \"contracts/DAY4/P1.sol\":561:915  function issueTicket(string memory customerName) public {... */\n    tag_11:\n        /* \"contracts/DAY4/P1.sol\":650:659  queueSize */\n      sload(0x01)\n        /* \"contracts/DAY4/P1.sol\":636:647  ticketCount */\n      sload(0x00)\n        /* \"contracts/DAY4/P1.sol\":636:659  ticketCount < queueSize */\n      lt\n        /* \"contracts/DAY4/P1.sol\":628:709  require(ticketCount < queueSize, \"Queue is full. No more tickets can be issued.\") */\n      tag_30\n      jumpi\n      mload(0x40)\n      0x08c379a000000000000000000000000000000000000000000000000000000000\n      dup2\n      mstore\n      0x04\n      add\n      tag_31\n      swap1\n      tag_32\n      jump\t// in\n    tag_31:\n      mload(0x40)\n      dup1\n      swap2\n      sub\n      swap1\n      revert\n    tag_30:\n        /* \"contracts/DAY4/P1.sol\":730:741  ticketCount */\n      0x00\n      dup1\n        /* \"contracts/DAY4/P1.sol\":730:743  ticketCount++ */\n      dup2\n      sload\n      dup1\n      swap3\n      swap2\n      swap1\n      tag_33\n      swap1\n      tag_34\n      jump\t// in\n    tag_33:\n      swap2\n      swap1\n      pop\n      sstore\n      pop\n        /* \"contracts/DAY4/P1.sol\":799:834  Customer(ticketCount, customerName) */\n      mload(0x40)\n      dup1\n      0x40\n      add\n      0x40\n      mstore\n      dup1\n        /* \"contracts/DAY4/P1.sol\":808:819  ticketCount */\n      sload(0x00)\n        /* \"contracts/DAY4/P1.sol\":799:834  Customer(ticketCount, customerName) */\n      dup2\n      mstore\n      0x20\n      add\n        /* \"contracts/DAY4/P1.sol\":821:833  customerName */\n      dup3\n        /* \"contracts/DAY4/P1.sol\":799:834  Customer(ticketCount, customerName) */\n      dup2\n      mstore\n      pop\n        /* \"contracts/DAY4/P1.sol\":774:783  customers */\n      0x02\n        /* \"contracts/DAY4/P1.sol\":774:796  customers[ticketCount] */\n      0x00\n        /* \"contracts/DAY4/P1.sol\":784:795  ticketCount */\n      dup1\n      sload\n        /* \"contracts/DAY4/P1.sol\":774:796  customers[ticketCount] */\n      dup2\n      mstore\n      0x20\n      add\n      swap1\n      dup2\n      mstore\n      0x20\n      add\n      0x00\n      keccak256\n        /* \"contracts/DAY4/P1.sol\":774:834  customers[ticketCount] = Customer(ticketCount, customerName) */\n      0x00\n      dup3\n      add\n      mload\n      dup2\n      0x00\n      add\n      sstore\n      0x20\n      dup3\n      add\n      mload\n      dup2\n      0x01\n      add\n      swap1\n      dup2\n      tag_35\n      swap2\n      swap1\n      tag_36\n      jump\t// in\n    tag_35:\n      pop\n      swap1\n      pop\n      pop\n        /* \"contracts/DAY4/P1.sol\":868:907  TicketIssued(ticketCount, customerName) */\n      0x1ba30fd76c09b4b9fed660bee1d769cfc3252b9192ab5e79b7f499563ace780a\n        /* \"contracts/DAY4/P1.sol\":881:892  ticketCount */\n      sload(0x00)\n        /* \"contracts/DAY4/P1.sol\":894:906  customerName */\n      dup3\n        /* \"contracts/DAY4/P1.sol\":868:907  TicketIssued(ticketCount, customerName) */\n      mload(0x40)\n      tag_37\n      swap3\n      swap2\n      swap1\n      tag_21\n      jump\t// in\n    tag_37:\n      mload(0x40)\n      dup1\n      swap2\n      sub\n      swap1\n      log1\n        /* \"contracts/DAY4/P1.sol\":561:915  function issueTicket(string memory customerName) public {... */\n      pop\n      jump\t// out\n        /* \"contracts/DAY4/P1.sol\":123:144  uint public queueSize */\n    tag_13:\n      sload(0x01)\n      dup2\n      jump\t// out\n        /* \"contracts/DAY4/P1.sol\":248:290  mapping(uint => Customer) public customers */\n    tag_19:\n      mstore(0x20, 0x02)\n      dup1\n      0x00\n      mstore\n      keccak256(0x00, 0x40)\n      0x00\n      swap2\n      pop\n      swap1\n      pop\n      dup1\n      0x00\n      add\n      sload\n      swap1\n      dup1\n      0x01\n      add\n      dup1\n      sload\n      tag_38\n      swap1\n      tag_39\n      jump\t// in\n    tag_38:\n      dup1\n      0x1f\n      add\n      0x20\n      dup1\n      swap2\n      div\n      mul\n      0x20\n      add\n      mload(0x40)\n      swap1\n      dup2\n      add\n      0x40\n      mstore\n      dup1\n      swap3\n      swap2\n      swap1\n      dup2\n      dup2\n      mstore\n      0x20\n      add\n      dup3\n      dup1\n      sload\n      tag_40\n      swap1\n      tag_39\n      jump\t// in\n    tag_40:\n      dup1\n      iszero\n      tag_41\n      jumpi\n      dup1\n      0x1f\n      lt\n      tag_42\n      jumpi\n      0x0100\n      dup1\n      dup4\n      sload\n      div\n      mul\n      dup4\n      mstore\n      swap2\n      0x20\n      add\n      swap2\n      jump(tag_41)\n    tag_42:\n      dup3\n      add\n      swap2\n      swap1\n      0x00\n      mstore\n      keccak256(0x00, 0x20)\n      swap1\n    tag_43:\n      dup2\n      sload\n      dup2\n      mstore\n      swap1\n      0x01\n      add\n      swap1\n      0x20\n      add\n      dup1\n      dup4\n      gt\n      tag_43\n      jumpi\n      dup3\n      swap1\n      sub\n      0x1f\n      and\n      dup3\n      add\n      swap2\n    tag_41:\n      pop\n      pop\n      pop\n      pop\n      pop\n      swap1\n      pop\n      dup3\n      jump\t// out\n        /* \"contracts/DAY4/P1.sol\":92:115  uint public ticketCount */\n    tag_23:\n      sload(0x00)\n      dup2\n      jump\t// out\n        /* \"contracts/DAY4/P1.sol\":932:1229  function getCustomer(uint ticketNumber) public view returns (uint, string memory) {... */\n    tag_27:\n        /* \"contracts/DAY4/P1.sol\":993:997  uint */\n      0x00\n        /* \"contracts/DAY4/P1.sol\":999:1012  string memory */\n      0x60\n        /* \"contracts/DAY4/P1.sol\":1049:1060  ticketCount */\n      sload(0x00)\n        /* \"contracts/DAY4/P1.sol\":1033:1045  ticketNumber */\n      dup4\n        /* \"contracts/DAY4/P1.sol\":1033:1060  ticketNumber <= ticketCount */\n      gt\n      iszero\n        /* \"contracts/DAY4/P1.sol\":1025:1094  require(ticketNumber <= ticketCount, \"Ticket number does not exist.\") */\n      tag_45\n      jumpi\n      mload(0x40)\n      0x08c379a000000000000000000000000000000000000000000000000000000000\n      dup2\n      mstore\n      0x04\n      add\n      tag_46\n      swap1\n      tag_47\n      jump\t// in\n    tag_46:\n      mload(0x40)\n      dup1\n      swap2\n      sub\n      swap1\n      revert\n    tag_45:\n        /* \"contracts/DAY4/P1.sol\":1115:1139  Customer memory customer */\n      0x00\n        /* \"contracts/DAY4/P1.sol\":1142:1151  customers */\n      0x02\n        /* \"contracts/DAY4/P1.sol\":1142:1165  customers[ticketNumber] */\n      0x00\n        /* \"contracts/DAY4/P1.sol\":1152:1164  ticketNumber */\n      dup6\n        /* \"contracts/DAY4/P1.sol\":1142:1165  customers[ticketNumber] */\n      dup2\n      mstore\n      0x20\n      add\n      swap1\n      dup2\n      mstore\n      0x20\n      add\n      0x00\n      keccak256\n        /* \"contracts/DAY4/P1.sol\":1115:1165  Customer memory customer = customers[ticketNumber] */\n      mload(0x40)\n      dup1\n      0x40\n      add\n      0x40\n      mstore\n      swap1\n      dup2\n      0x00\n      dup3\n      add\n      sload\n      dup2\n      mstore\n      0x20\n      add\n      0x01\n      dup3\n      add\n      dup1\n      sload\n      tag_48\n      swap1\n      tag_39\n      jump\t// in\n    tag_48:\n      dup1\n      0x1f\n      add\n      0x20\n      dup1\n      swap2\n      div\n      mul\n      0x20\n      add\n      mload(0x40)\n      swap1\n      dup2\n      add\n      0x40\n      mstore\n      dup1\n      swap3\n      swap2\n      swap1\n      dup2\n      dup2\n      mstore\n      0x20\n      add\n      dup3\n      dup1\n      sload\n      tag_49\n      swap1\n      tag_39\n      jump\t// in\n    tag_49:\n      dup1\n      iszero\n      tag_50\n      jumpi\n      dup1\n      0x1f\n      lt\n      tag_51\n      jumpi\n      0x0100\n      dup1\n      dup4\n      sload\n      div\n      mul\n      dup4\n      mstore\n      swap2\n      0x20\n      add\n      swap2\n      jump(tag_50)\n    tag_51:\n      dup3\n      add\n      swap2\n      swap1\n      0x00\n      mstore\n      keccak256(0x00, 0x20)\n      swap1\n    tag_52:\n      dup2\n      sload\n      dup2\n      mstore\n      swap1\n      0x01\n      add\n      swap1\n      0x20\n      add\n      dup1\n      dup4\n      gt\n      tag_52\n      jumpi\n      dup3\n      swap1\n      sub\n      0x1f\n      and\n      dup3\n      add\n      swap2\n    tag_50:\n      pop\n      pop\n      pop\n      pop\n      pop\n      dup2\n      mstore\n      pop\n      pop\n      swap1\n      pop\n        /* \"contracts/DAY4/P1.sol\":1184:1192  customer */\n      dup1\n        /* \"contracts/DAY4/P1.sol\":1184:1205  customer.ticketNumber */\n      0x00\n      add\n      mload\n        /* \"contracts/DAY4/P1.sol\":1207:1215  customer */\n      dup2\n        /* \"contracts/DAY4/P1.sol\":1207:1220  customer.name */\n      0x20\n      add\n      mload\n        /* \"contracts/DAY4/P1.sol\":1176:1221  return (customer.ticketNumber, customer.name) */\n      swap3\n      pop\n      swap3\n      pop\n      pop\n        /* \"contracts/DAY4/P1.sol\":932:1229  function getCustomer(uint ticketNumber) public view returns (uint, string memory) {... */\n      swap2\n      pop\n      swap2\n      jump\t// out\n        /* \"#utility.yul\":7:82   */\n    tag_53:\n        /* \"#utility.yul\":40:46   */\n      0x00\n        /* \"#utility.yul\":73:75   */\n      0x40\n        /* \"#utility.yul\":67:76   */\n      mload\n        /* \"#utility.yul\":57:76   */\n      swap1\n      pop\n        /* \"#utility.yul\":7:82   */\n      swap1\n      jump\t// out\n        /* \"#utility.yul\":88:205   */\n    tag_54:\n        /* \"#utility.yul\":197:198   */\n      0x00\n        /* \"#utility.yul\":194:195   */\n      dup1\n        /* \"#utility.yul\":187:199   */\n      revert\n        /* \"#utility.yul\":211:328   */\n    tag_55:\n        /* \"#utility.yul\":320:321   */\n      0x00\n        /* \"#utility.yul\":317:318   */\n      dup1\n        /* \"#utility.yul\":310:322   */\n      revert\n        /* \"#utility.yul\":334:451   */\n    tag_56:\n        /* \"#utility.yul\":443:444   */\n      0x00\n        /* \"#utility.yul\":440:441   */\n      dup1\n        /* \"#utility.yul\":433:445   */\n      revert\n        /* \"#utility.yul\":457:574   */\n    tag_57:\n        /* \"#utility.yul\":566:567   */\n      0x00\n        /* \"#utility.yul\":563:564   */\n      dup1\n        /* \"#utility.yul\":556:568   */\n      revert\n        /* \"#utility.yul\":580:682   */\n    tag_58:\n        /* \"#utility.yul\":621:627   */\n      0x00\n        /* \"#utility.yul\":672:674   */\n      0x1f\n        /* \"#utility.yul\":668:675   */\n      not\n        /* \"#utility.yul\":663:665   */\n      0x1f\n        /* \"#utility.yul\":656:661   */\n      dup4\n        /* \"#utility.yul\":652:666   */\n      add\n        /* \"#utility.yul\":648:676   */\n      and\n        /* \"#utility.yul\":638:676   */\n      swap1\n      pop\n        /* \"#utility.yul\":580:682   */\n      swap2\n      swap1\n      pop\n      jump\t// out\n        /* \"#utility.yul\":688:868   */\n    tag_59:\n        /* \"#utility.yul\":736:813   */\n      0x4e487b7100000000000000000000000000000000000000000000000000000000\n        /* \"#utility.yul\":733:734   */\n      0x00\n        /* \"#utility.yul\":726:814   */\n      mstore\n        /* \"#utility.yul\":833:837   */\n      0x41\n        /* \"#utility.yul\":830:831   */\n      0x04\n        /* \"#utility.yul\":823:838   */\n      mstore\n        /* \"#utility.yul\":857:861   */\n      0x24\n        /* \"#utility.yul\":854:855   */\n      0x00\n        /* \"#utility.yul\":847:862   */\n      revert\n        /* \"#utility.yul\":874:1155   */\n    tag_60:\n        /* \"#utility.yul\":957:984   */\n      tag_104\n        /* \"#utility.yul\":979:983   */\n      dup3\n        /* \"#utility.yul\":957:984   */\n      tag_58\n      jump\t// in\n    tag_104:\n        /* \"#utility.yul\":949:955   */\n      dup2\n        /* \"#utility.yul\":945:985   */\n      add\n        /* \"#utility.yul\":1087:1093   */\n      dup2\n        /* \"#utility.yul\":1075:1085   */\n      dup2\n        /* \"#utility.yul\":1072:1094   */\n      lt\n        /* \"#utility.yul\":1051:1069   */\n      0xffffffffffffffff\n        /* \"#utility.yul\":1039:1049   */\n      dup3\n        /* \"#utility.yul\":1036:1070   */\n      gt\n        /* \"#utility.yul\":1033:1095   */\n      or\n        /* \"#utility.yul\":1030:1118   */\n      iszero\n      tag_105\n      jumpi\n        /* \"#utility.yul\":1098:1116   */\n      tag_106\n      tag_59\n      jump\t// in\n    tag_106:\n        /* \"#utility.yul\":1030:1118   */\n    tag_105:\n        /* \"#utility.yul\":1138:1148   */\n      dup1\n        /* \"#utility.yul\":1134:1136   */\n      0x40\n        /* \"#utility.yul\":1127:1149   */\n      mstore\n        /* \"#utility.yul\":917:1155   */\n      pop\n        /* \"#utility.yul\":874:1155   */\n      pop\n      pop\n      jump\t// out\n        /* \"#utility.yul\":1161:1290   */\n    tag_61:\n        /* \"#utility.yul\":1195:1201   */\n      0x00\n        /* \"#utility.yul\":1222:1242   */\n      tag_108\n      tag_53\n      jump\t// in\n    tag_108:\n        /* \"#utility.yul\":1212:1242   */\n      swap1\n      pop\n        /* \"#utility.yul\":1251:1284   */\n      tag_109\n        /* \"#utility.yul\":1279:1283   */\n      dup3\n        /* \"#utility.yul\":1271:1277   */\n      dup3\n        /* \"#utility.yul\":1251:1284   */\n      tag_60\n      jump\t// in\n    tag_109:\n        /* \"#utility.yul\":1161:1290   */\n      swap2\n      swap1\n      pop\n      jump\t// out\n        /* \"#utility.yul\":1296:1604   */\n    tag_62:\n        /* \"#utility.yul\":1358:1362   */\n      0x00\n        /* \"#utility.yul\":1448:1466   */\n      0xffffffffffffffff\n        /* \"#utility.yul\":1440:1446   */\n      dup3\n        /* \"#utility.yul\":1437:1467   */\n      gt\n        /* \"#utility.yul\":1434:1490   */\n      iszero\n      tag_111\n      jumpi\n        /* \"#utility.yul\":1470:1488   */\n      tag_112\n      tag_59\n      jump\t// in\n    tag_112:\n        /* \"#utility.yul\":1434:1490   */\n    tag_111:\n        /* \"#utility.yul\":1508:1537   */\n      tag_113\n        /* \"#utility.yul\":1530:1536   */\n      dup3\n        /* \"#utility.yul\":1508:1537   */\n      tag_58\n      jump\t// in\n    tag_113:\n        /* \"#utility.yul\":1500:1537   */\n      swap1\n      pop\n        /* \"#utility.yul\":1592:1596   */\n      0x20\n        /* \"#utility.yul\":1586:1590   */\n      dup2\n        /* \"#utility.yul\":1582:1597   */\n      add\n        /* \"#utility.yul\":1574:1597   */\n      swap1\n      pop\n        /* \"#utility.yul\":1296:1604   */\n      swap2\n      swap1\n      pop\n      jump\t// out\n        /* \"#utility.yul\":1610:1758   */\n    tag_63:\n        /* \"#utility.yul\":1708:1714   */\n      dup3\n        /* \"#utility.yul\":1703:1706   */\n      dup2\n        /* \"#utility.yul\":1698:1701   */\n      dup4\n        /* \"#utility.yul\":1685:1715   */\n      calldatacopy\n        /* \"#utility.yul\":1749:1750   */\n      0x00\n        /* \"#utility.yul\":1740:1746   */\n      dup4\n        /* \"#utility.yul\":1735:1738   */\n      dup4\n        /* \"#utility.yul\":1731:1747   */\n      add\n        /* \"#utility.yul\":1724:1751   */\n      mstore\n        /* \"#utility.yul\":1610:1758   */\n      pop\n      pop\n      pop\n      jump\t// out\n        /* \"#utility.yul\":1764:2189   */\n    tag_64:\n        /* \"#utility.yul\":1842:1847   */\n      0x00\n        /* \"#utility.yul\":1867:1933   */\n      tag_116\n        /* \"#utility.yul\":1883:1932   */\n      tag_117\n        /* \"#utility.yul\":1925:1931   */\n      dup5\n        /* \"#utility.yul\":1883:1932   */\n      tag_62\n      jump\t// in\n    tag_117:\n        /* \"#utility.yul\":1867:1933   */\n      tag_61\n      jump\t// in\n    tag_116:\n        /* \"#utility.yul\":1858:1933   */\n      swap1\n      pop\n        /* \"#utility.yul\":1956:1962   */\n      dup3\n        /* \"#utility.yul\":1949:1954   */\n      dup2\n        /* \"#utility.yul\":1942:1963   */\n      mstore\n        /* \"#utility.yul\":1994:1998   */\n      0x20\n        /* \"#utility.yul\":1987:1992   */\n      dup2\n        /* \"#utility.yul\":1983:1999   */\n      add\n        /* \"#utility.yul\":2032:2035   */\n      dup5\n        /* \"#utility.yul\":2023:2029   */\n      dup5\n        /* \"#utility.yul\":2018:2021   */\n      dup5\n        /* \"#utility.yul\":2014:2030   */\n      add\n        /* \"#utility.yul\":2011:2036   */\n      gt\n        /* \"#utility.yul\":2008:2120   */\n      iszero\n      tag_118\n      jumpi\n        /* \"#utility.yul\":2039:2118   */\n      tag_119\n      tag_57\n      jump\t// in\n    tag_119:\n        /* \"#utility.yul\":2008:2120   */\n    tag_118:\n        /* \"#utility.yul\":2129:2183   */\n      tag_120\n        /* \"#utility.yul\":2176:2182   */\n      dup5\n        /* \"#utility.yul\":2171:2174   */\n      dup3\n        /* \"#utility.yul\":2166:2169   */\n      dup6\n        /* \"#utility.yul\":2129:2183   */\n      tag_63\n      jump\t// in\n    tag_120:\n        /* \"#utility.yul\":1848:2189   */\n      pop\n        /* \"#utility.yul\":1764:2189   */\n      swap4\n      swap3\n      pop\n      pop\n      pop\n      jump\t// out\n        /* \"#utility.yul\":2209:2549   */\n    tag_65:\n        /* \"#utility.yul\":2265:2270   */\n      0x00\n        /* \"#utility.yul\":2314:2317   */\n      dup3\n        /* \"#utility.yul\":2307:2311   */\n      0x1f\n        /* \"#utility.yul\":2299:2305   */\n      dup4\n        /* \"#utility.yul\":2295:2312   */\n      add\n        /* \"#utility.yul\":2291:2318   */\n      slt\n        /* \"#utility.yul\":2281:2403   */\n      tag_122\n      jumpi\n        /* \"#utility.yul\":2322:2401   */\n      tag_123\n      tag_56\n      jump\t// in\n    tag_123:\n        /* \"#utility.yul\":2281:2403   */\n    tag_122:\n        /* \"#utility.yul\":2439:2445   */\n      dup2\n        /* \"#utility.yul\":2426:2446   */\n      calldataload\n        /* \"#utility.yul\":2464:2543   */\n      tag_124\n        /* \"#utility.yul\":2539:2542   */\n      dup5\n        /* \"#utility.yul\":2531:2537   */\n      dup3\n        /* \"#utility.yul\":2524:2528   */\n      0x20\n        /* \"#utility.yul\":2516:2522   */\n      dup7\n        /* \"#utility.yul\":2512:2529   */\n      add\n        /* \"#utility.yul\":2464:2543   */\n      tag_64\n      jump\t// in\n    tag_124:\n        /* \"#utility.yul\":2455:2543   */\n      swap2\n      pop\n        /* \"#utility.yul\":2271:2549   */\n      pop\n        /* \"#utility.yul\":2209:2549   */\n      swap3\n      swap2\n      pop\n      pop\n      jump\t// out\n        /* \"#utility.yul\":2555:3064   */\n    tag_10:\n        /* \"#utility.yul\":2624:2630   */\n      0x00\n        /* \"#utility.yul\":2673:2675   */\n      0x20\n        /* \"#utility.yul\":2661:2670   */\n      dup3\n        /* \"#utility.yul\":2652:2659   */\n      dup5\n        /* \"#utility.yul\":2648:2671   */\n      sub\n        /* \"#utility.yul\":2644:2676   */\n      slt\n        /* \"#utility.yul\":2641:2760   */\n      iszero\n      tag_126\n      jumpi\n        /* \"#utility.yul\":2679:2758   */\n      tag_127\n      tag_54\n      jump\t// in\n    tag_127:\n        /* \"#utility.yul\":2641:2760   */\n    tag_126:\n        /* \"#utility.yul\":2827:2828   */\n      0x00\n        /* \"#utility.yul\":2816:2825   */\n      dup3\n        /* \"#utility.yul\":2812:2829   */\n      add\n        /* \"#utility.yul\":2799:2830   */\n      calldataload\n        /* \"#utility.yul\":2857:2875   */\n      0xffffffffffffffff\n        /* \"#utility.yul\":2849:2855   */\n      dup2\n        /* \"#utility.yul\":2846:2876   */\n      gt\n        /* \"#utility.yul\":2843:2960   */\n      iszero\n      tag_128\n      jumpi\n        /* \"#utility.yul\":2879:2958   */\n      tag_129\n      tag_55\n      jump\t// in\n    tag_129:\n        /* \"#utility.yul\":2843:2960   */\n    tag_128:\n        /* \"#utility.yul\":2984:3047   */\n      tag_130\n        /* \"#utility.yul\":3039:3046   */\n      dup5\n        /* \"#utility.yul\":3030:3036   */\n      dup3\n        /* \"#utility.yul\":3019:3028   */\n      dup6\n        /* \"#utility.yul\":3015:3037   */\n      add\n        /* \"#utility.yul\":2984:3047   */\n      tag_65\n      jump\t// in\n    tag_130:\n        /* \"#utility.yul\":2974:3047   */\n      swap2\n      pop\n        /* \"#utility.yul\":2770:3057   */\n      pop\n        /* \"#utility.yul\":2555:3064   */\n      swap3\n      swap2\n      pop\n      pop\n      jump\t// out\n        /* \"#utility.yul\":3070:3147   */\n    tag_66:\n        /* \"#utility.yul\":3107:3114   */\n      0x00\n        /* \"#utility.yul\":3136:3141   */\n      dup2\n        /* \"#utility.yul\":3125:3141   */\n      swap1\n      pop\n        /* \"#utility.yul\":3070:3147   */\n      swap2\n      swap1\n      pop\n      jump\t// out\n        /* \"#utility.yul\":3153:3271   */\n    tag_67:\n        /* \"#utility.yul\":3240:3264   */\n      tag_133\n        /* \"#utility.yul\":3258:3263   */\n      dup2\n        /* \"#utility.yul\":3240:3264   */\n      tag_66\n      jump\t// in\n    tag_133:\n        /* \"#utility.yul\":3235:3238   */\n      dup3\n        /* \"#utility.yul\":3228:3265   */\n      mstore\n        /* \"#utility.yul\":3153:3271   */\n      pop\n      pop\n      jump\t// out\n        /* \"#utility.yul\":3277:3499   */\n    tag_15:\n        /* \"#utility.yul\":3370:3374   */\n      0x00\n        /* \"#utility.yul\":3408:3410   */\n      0x20\n        /* \"#utility.yul\":3397:3406   */\n      dup3\n        /* \"#utility.yul\":3393:3411   */\n      add\n        /* \"#utility.yul\":3385:3411   */\n      swap1\n      pop\n        /* \"#utility.yul\":3421:3492   */\n      tag_135\n        /* \"#utility.yul\":3489:3490   */\n      0x00\n        /* \"#utility.yul\":3478:3487   */\n      dup4\n        /* \"#utility.yul\":3474:3491   */\n      add\n        /* \"#utility.yul\":3465:3471   */\n      dup5\n        /* \"#utility.yul\":3421:3492   */\n      tag_67\n      jump\t// in\n    tag_135:\n        /* \"#utility.yul\":3277:3499   */\n      swap3\n      swap2\n      pop\n      pop\n      jump\t// out\n        /* \"#utility.yul\":3505:3627   */\n    tag_68:\n        /* \"#utility.yul\":3578:3602   */\n      tag_137\n        /* \"#utility.yul\":3596:3601   */\n      dup2\n        /* \"#utility.yul\":3578:3602   */\n      tag_66\n      jump\t// in\n    tag_137:\n        /* \"#utility.yul\":3571:3576   */\n      dup2\n        /* \"#utility.yul\":3568:3603   */\n      eq\n        /* \"#utility.yul\":3558:3621   */\n      tag_138\n      jumpi\n        /* \"#utility.yul\":3617:3618   */\n      0x00\n        /* \"#utility.yul\":3614:3615   */\n      dup1\n        /* \"#utility.yul\":3607:3619   */\n      revert\n        /* \"#utility.yul\":3558:3621   */\n    tag_138:\n        /* \"#utility.yul\":3505:3627   */\n      pop\n      jump\t// out\n        /* \"#utility.yul\":3633:3772   */\n    tag_69:\n        /* \"#utility.yul\":3679:3684   */\n      0x00\n        /* \"#utility.yul\":3717:3723   */\n      dup2\n        /* \"#utility.yul\":3704:3724   */\n      calldataload\n        /* \"#utility.yul\":3695:3724   */\n      swap1\n      pop\n        /* \"#utility.yul\":3733:3766   */\n      tag_140\n        /* \"#utility.yul\":3760:3765   */\n      dup2\n        /* \"#utility.yul\":3733:3766   */\n      tag_68\n      jump\t// in\n    tag_140:\n        /* \"#utility.yul\":3633:3772   */\n      swap3\n      swap2\n      pop\n      pop\n      jump\t// out\n        /* \"#utility.yul\":3778:4107   */\n    tag_18:\n        /* \"#utility.yul\":3837:3843   */\n      0x00\n        /* \"#utility.yul\":3886:3888   */\n      0x20\n        /* \"#utility.yul\":3874:3883   */\n      dup3\n        /* \"#utility.yul\":3865:3872   */\n      dup5\n        /* \"#utility.yul\":3861:3884   */\n      sub\n        /* \"#utility.yul\":3857:3889   */\n      slt\n        /* \"#utility.yul\":3854:3973   */\n      iszero\n      tag_142\n      jumpi\n        /* \"#utility.yul\":3892:3971   */\n      tag_143\n      tag_54\n      jump\t// in\n    tag_143:\n        /* \"#utility.yul\":3854:3973   */\n    tag_142:\n        /* \"#utility.yul\":4012:4013   */\n      0x00\n        /* \"#utility.yul\":4037:4090   */\n      tag_144\n        /* \"#utility.yul\":4082:4089   */\n      dup5\n        /* \"#utility.yul\":4073:4079   */\n      dup3\n        /* \"#utility.yul\":4062:4071   */\n      dup6\n        /* \"#utility.yul\":4058:4080   */\n      add\n        /* \"#utility.yul\":4037:4090   */\n      tag_69\n      jump\t// in\n    tag_144:\n        /* \"#utility.yul\":4027:4090   */\n      swap2\n      pop\n        /* \"#utility.yul\":3983:4100   */\n      pop\n        /* \"#utility.yul\":3778:4107   */\n      swap3\n      swap2\n      pop\n      pop\n      jump\t// out\n        /* \"#utility.yul\":4113:4212   */\n    tag_70:\n        /* \"#utility.yul\":4165:4171   */\n      0x00\n        /* \"#utility.yul\":4199:4204   */\n      dup2\n        /* \"#utility.yul\":4193:4205   */\n      mload\n        /* \"#utility.yul\":4183:4205   */\n      swap1\n      pop\n        /* \"#utility.yul\":4113:4212   */\n      swap2\n      swap1\n      pop\n      jump\t// out\n        /* \"#utility.yul\":4218:4387   */\n    tag_71:\n        /* \"#utility.yul\":4302:4313   */\n      0x00\n        /* \"#utility.yul\":4336:4342   */\n      dup3\n        /* \"#utility.yul\":4331:4334   */\n      dup3\n        /* \"#utility.yul\":4324:4343   */\n      mstore\n        /* \"#utility.yul\":4376:4380   */\n      0x20\n        /* \"#utility.yul\":4371:4374   */\n      dup3\n        /* \"#utility.yul\":4367:4381   */\n      add\n        /* \"#utility.yul\":4352:4381   */\n      swap1\n      pop\n        /* \"#utility.yul\":4218:4387   */\n      swap3\n      swap2\n      pop\n      pop\n      jump\t// out\n        /* \"#utility.yul\":4393:4532   */\n    tag_72:\n        /* \"#utility.yul\":4482:4488   */\n      dup3\n        /* \"#utility.yul\":4477:4480   */\n      dup2\n        /* \"#utility.yul\":4472:4475   */\n      dup4\n        /* \"#utility.yul\":4466:4489   */\n      mcopy\n        /* \"#utility.yul\":4523:4524   */\n      0x00\n        /* \"#utility.yul\":4514:4520   */\n      dup4\n        /* \"#utility.yul\":4509:4512   */\n      dup4\n        /* \"#utility.yul\":4505:4521   */\n      add\n        /* \"#utility.yul\":4498:4525   */\n      mstore\n        /* \"#utility.yul\":4393:4532   */\n      pop\n      pop\n      pop\n      jump\t// out\n        /* \"#utility.yul\":4538:4915   */\n    tag_73:\n        /* \"#utility.yul\":4626:4629   */\n      0x00\n        /* \"#utility.yul\":4654:4693   */\n      tag_149\n        /* \"#utility.yul\":4687:4692   */\n      dup3\n        /* \"#utility.yul\":4654:4693   */\n      tag_70\n      jump\t// in\n    tag_149:\n        /* \"#utility.yul\":4709:4780   */\n      tag_150\n        /* \"#utility.yul\":4773:4779   */\n      dup2\n        /* \"#utility.yul\":4768:4771   */\n      dup6\n        /* \"#utility.yul\":4709:4780   */\n      tag_71\n      jump\t// in\n    tag_150:\n        /* \"#utility.yul\":4702:4780   */\n      swap4\n      pop\n        /* \"#utility.yul\":4789:4854   */\n      tag_151\n        /* \"#utility.yul\":4847:4853   */\n      dup2\n        /* \"#utility.yul\":4842:4845   */\n      dup6\n        /* \"#utility.yul\":4835:4839   */\n      0x20\n        /* \"#utility.yul\":4828:4833   */\n      dup7\n        /* \"#utility.yul\":4824:4840   */\n      add\n        /* \"#utility.yul\":4789:4854   */\n      tag_72\n      jump\t// in\n    tag_151:\n        /* \"#utility.yul\":4879:4908   */\n      tag_152\n        /* \"#utility.yul\":4901:4907   */\n      dup2\n        /* \"#utility.yul\":4879:4908   */\n      tag_58\n      jump\t// in\n    tag_152:\n        /* \"#utility.yul\":4874:4877   */\n      dup5\n        /* \"#utility.yul\":4870:4909   */\n      add\n        /* \"#utility.yul\":4863:4909   */\n      swap2\n      pop\n        /* \"#utility.yul\":4630:4915   */\n      pop\n        /* \"#utility.yul\":4538:4915   */\n      swap3\n      swap2\n      pop\n      pop\n      jump\t// out\n        /* \"#utility.yul\":4921:5344   */\n    tag_21:\n        /* \"#utility.yul\":5062:5066   */\n      0x00\n        /* \"#utility.yul\":5100:5102   */\n      0x40\n        /* \"#utility.yul\":5089:5098   */\n      dup3\n        /* \"#utility.yul\":5085:5103   */\n      add\n        /* \"#utility.yul\":5077:5103   */\n      swap1\n      pop\n        /* \"#utility.yul\":5113:5184   */\n      tag_154\n        /* \"#utility.yul\":5181:5182   */\n      0x00\n        /* \"#utility.yul\":5170:5179   */\n      dup4\n        /* \"#utility.yul\":5166:5183   */\n      add\n        /* \"#utility.yul\":5157:5163   */\n      dup6\n        /* \"#utility.yul\":5113:5184   */\n      tag_67\n      jump\t// in\n    tag_154:\n        /* \"#utility.yul\":5231:5240   */\n      dup2\n        /* \"#utility.yul\":5225:5229   */\n      dup2\n        /* \"#utility.yul\":5221:5241   */\n      sub\n        /* \"#utility.yul\":5216:5218   */\n      0x20\n        /* \"#utility.yul\":5205:5214   */\n      dup4\n        /* \"#utility.yul\":5201:5219   */\n      add\n        /* \"#utility.yul\":5194:5242   */\n      mstore\n        /* \"#utility.yul\":5259:5337   */\n      tag_155\n        /* \"#utility.yul\":5332:5336   */\n      dup2\n        /* \"#utility.yul\":5323:5329   */\n      dup5\n        /* \"#utility.yul\":5259:5337   */\n      tag_73\n      jump\t// in\n    tag_155:\n        /* \"#utility.yul\":5251:5337   */\n      swap1\n      pop\n        /* \"#utility.yul\":4921:5344   */\n      swap4\n      swap3\n      pop\n      pop\n      pop\n      jump\t// out\n        /* \"#utility.yul\":5350:5582   */\n    tag_74:\n        /* \"#utility.yul\":5490:5524   */\n      0x51756575652069732066756c6c2e204e6f206d6f7265207469636b6574732063\n        /* \"#utility.yul\":5486:5487   */\n      0x00\n        /* \"#utility.yul\":5478:5484   */\n      dup3\n        /* \"#utility.yul\":5474:5488   */\n      add\n        /* \"#utility.yul\":5467:5525   */\n      mstore\n        /* \"#utility.yul\":5559:5574   */\n      0x616e206265206973737565642e00000000000000000000000000000000000000\n        /* \"#utility.yul\":5554:5556   */\n      0x20\n        /* \"#utility.yul\":5546:5552   */\n      dup3\n        /* \"#utility.yul\":5542:5557   */\n      add\n        /* \"#utility.yul\":5535:5575   */\n      mstore\n        /* \"#utility.yul\":5350:5582   */\n      pop\n      jump\t// out\n        /* \"#utility.yul\":5588:5954   */\n    tag_75:\n        /* \"#utility.yul\":5730:5733   */\n      0x00\n        /* \"#utility.yul\":5751:5818   */\n      tag_158\n        /* \"#utility.yul\":5815:5817   */\n      0x2d\n        /* \"#utility.yul\":5810:5813   */\n      dup4\n        /* \"#utility.yul\":5751:5818   */\n      tag_71\n      jump\t// in\n    tag_158:\n        /* \"#utility.yul\":5744:5818   */\n      swap2\n      pop\n        /* \"#utility.yul\":5827:5920   */\n      tag_159\n        /* \"#utility.yul\":5916:5919   */\n      dup3\n        /* \"#utility.yul\":5827:5920   */\n      tag_74\n      jump\t// in\n    tag_159:\n        /* \"#utility.yul\":5945:5947   */\n      0x40\n        /* \"#utility.yul\":5940:5943   */\n      dup3\n        /* \"#utility.yul\":5936:5948   */\n      add\n        /* \"#utility.yul\":5929:5948   */\n      swap1\n      pop\n        /* \"#utility.yul\":5588:5954   */\n      swap2\n      swap1\n      pop\n      jump\t// out\n        /* \"#utility.yul\":5960:6379   */\n    tag_32:\n        /* \"#utility.yul\":6126:6130   */\n      0x00\n        /* \"#utility.yul\":6164:6166   */\n      0x20\n        /* \"#utility.yul\":6153:6162   */\n      dup3\n        /* \"#utility.yul\":6149:6167   */\n      add\n        /* \"#utility.yul\":6141:6167   */\n      swap1\n      pop\n        /* \"#utility.yul\":6213:6222   */\n      dup2\n        /* \"#utility.yul\":6207:6211   */\n      dup2\n        /* \"#utility.yul\":6203:6223   */\n      sub\n        /* \"#utility.yul\":6199:6200   */\n      0x00\n        /* \"#utility.yul\":6188:6197   */\n      dup4\n        /* \"#utility.yul\":6184:6201   */\n      add\n        /* \"#utility.yul\":6177:6224   */\n      mstore\n        /* \"#utility.yul\":6241:6372   */\n      tag_161\n        /* \"#utility.yul\":6367:6371   */\n      dup2\n        /* \"#utility.yul\":6241:6372   */\n      tag_75\n      jump\t// in\n    tag_161:\n        /* \"#utility.yul\":6233:6372   */\n      swap1\n      pop\n        /* \"#utility.yul\":5960:6379   */\n      swap2\n      swap1\n      pop\n      jump\t// out\n        /* \"#utility.yul\":6385:6565   */\n    tag_76:\n        /* \"#utility.yul\":6433:6510   */\n      0x4e487b7100000000000000000000000000000000000000000000000000000000\n        /* \"#utility.yul\":6430:6431   */\n      0x00\n        /* \"#utility.yul\":6423:6511   */\n      mstore\n        /* \"#utility.yul\":6530:6534   */\n      0x11\n        /* \"#utility.yul\":6527:6528   */\n      0x04\n        /* \"#utility.yul\":6520:6535   */\n      mstore\n        /* \"#utility.yul\":6554:6558   */\n      0x24\n        /* \"#utility.yul\":6551:6552   */\n      0x00\n        /* \"#utility.yul\":6544:6559   */\n      revert\n        /* \"#utility.yul\":6571:6804   */\n    tag_34:\n        /* \"#utility.yul\":6610:6613   */\n      0x00\n        /* \"#utility.yul\":6633:6657   */\n      tag_164\n        /* \"#utility.yul\":6651:6656   */\n      dup3\n        /* \"#utility.yul\":6633:6657   */\n      tag_66\n      jump\t// in\n    tag_164:\n        /* \"#utility.yul\":6624:6657   */\n      swap2\n      pop\n        /* \"#utility.yul\":6679:6745   */\n      0xffffffffffffffffffffffffffffffffffffffffffffffffffffffffffffffff\n        /* \"#utility.yul\":6672:6677   */\n      dup3\n        /* \"#utility.yul\":6669:6746   */\n      sub\n        /* \"#utility.yul\":6666:6769   */\n      tag_165\n      jumpi\n        /* \"#utility.yul\":6749:6767   */\n      tag_166\n      tag_76\n      jump\t// in\n    tag_166:\n        /* \"#utility.yul\":6666:6769   */\n    tag_165:\n        /* \"#utility.yul\":6796:6797   */\n      0x01\n        /* \"#utility.yul\":6789:6794   */\n      dup3\n        /* \"#utility.yul\":6785:6798   */\n      add\n        /* \"#utility.yul\":6778:6798   */\n      swap1\n      pop\n        /* \"#utility.yul\":6571:6804   */\n      swap2\n      swap1\n      pop\n      jump\t// out\n        /* \"#utility.yul\":6810:6990   */\n    tag_77:\n        /* \"#utility.yul\":6858:6935   */\n      0x4e487b7100000000000000000000000000000000000000000000000000000000\n        /* \"#utility.yul\":6855:6856   */\n      0x00\n        /* \"#utility.yul\":6848:6936   */\n      mstore\n        /* \"#utility.yul\":6955:6959   */\n      0x22\n        /* \"#utility.yul\":6952:6953   */\n      0x04\n        /* \"#utility.yul\":6945:6960   */\n      mstore\n        /* \"#utility.yul\":6979:6983   */\n      0x24\n        /* \"#utility.yul\":6976:6977   */\n      0x00\n        /* \"#utility.yul\":6969:6984   */\n      revert\n        /* \"#utility.yul\":6996:7316   */\n    tag_39:\n        /* \"#utility.yul\":7040:7046   */\n      0x00\n        /* \"#utility.yul\":7077:7078   */\n      0x02\n        /* \"#utility.yul\":7071:7075   */\n      dup3\n        /* \"#utility.yul\":7067:7079   */\n      div\n        /* \"#utility.yul\":7057:7079   */\n      swap1\n      pop\n        /* \"#utility.yul\":7124:7125   */\n      0x01\n        /* \"#utility.yul\":7118:7122   */\n      dup3\n        /* \"#utility.yul\":7114:7126   */\n      and\n        /* \"#utility.yul\":7145:7163   */\n      dup1\n        /* \"#utility.yul\":7135:7216   */\n      tag_169\n      jumpi\n        /* \"#utility.yul\":7201:7205   */\n      0x7f\n        /* \"#utility.yul\":7193:7199   */\n      dup3\n        /* \"#utility.yul\":7189:7206   */\n      and\n        /* \"#utility.yul\":7179:7206   */\n      swap2\n      pop\n        /* \"#utility.yul\":7135:7216   */\n    tag_169:\n        /* \"#utility.yul\":7263:7265   */\n      0x20\n        /* \"#utility.yul\":7255:7261   */\n      dup3\n        /* \"#utility.yul\":7252:7266   */\n      lt\n        /* \"#utility.yul\":7232:7250   */\n      dup2\n        /* \"#utility.yul\":7229:7267   */\n      sub\n        /* \"#utility.yul\":7226:7310   */\n      tag_170\n      jumpi\n        /* \"#utility.yul\":7282:7300   */\n      tag_171\n      tag_77\n      jump\t// in\n    tag_171:\n        /* \"#utility.yul\":7226:7310   */\n    tag_170:\n        /* \"#utility.yul\":7047:7316   */\n      pop\n        /* \"#utility.yul\":6996:7316   */\n      swap2\n      swap1\n      pop\n      jump\t// out\n        /* \"#utility.yul\":7322:7463   */\n    tag_78:\n        /* \"#utility.yul\":7371:7375   */\n      0x00\n        /* \"#utility.yul\":7394:7397   */\n      dup2\n        /* \"#utility.yul\":7386:7397   */\n      swap1\n      pop\n        /* \"#utility.yul\":7417:7420   */\n      dup2\n        /* \"#utility.yul\":7414:7415   */\n      0x00\n        /* \"#utility.yul\":7407:7421   */\n      mstore\n        /* \"#utility.yul\":7451:7455   */\n      0x20\n        /* \"#utility.yul\":7448:7449   */\n      0x00\n        /* \"#utility.yul\":7438:7456   */\n      keccak256\n        /* \"#utility.yul\":7430:7456   */\n      swap1\n      pop\n        /* \"#utility.yul\":7322:7463   */\n      swap2\n      swap1\n      pop\n      jump\t// out\n        /* \"#utility.yul\":7469:7562   */\n    tag_79:\n        /* \"#utility.yul\":7506:7512   */\n      0x00\n        /* \"#utility.yul\":7553:7555   */\n      0x20\n        /* \"#utility.yul\":7548:7550   */\n      0x1f\n        /* \"#utility.yul\":7541:7546   */\n      dup4\n        /* \"#utility.yul\":7537:7551   */\n      add\n        /* \"#utility.yul\":7533:7556   */\n      div\n        /* \"#utility.yul\":7523:7556   */\n      swap1\n      pop\n        /* \"#utility.yul\":7469:7562   */\n      swap2\n      swap1\n      pop\n      jump\t// out\n        /* \"#utility.yul\":7568:7675   */\n    tag_80:\n        /* \"#utility.yul\":7612:7620   */\n      0x00\n        /* \"#utility.yul\":7662:7667   */\n      dup3\n        /* \"#utility.yul\":7656:7660   */\n      dup3\n        /* \"#utility.yul\":7652:7668   */\n      shl\n        /* \"#utility.yul\":7631:7668   */\n      swap1\n      pop\n        /* \"#utility.yul\":7568:7675   */\n      swap3\n      swap2\n      pop\n      pop\n      jump\t// out\n        /* \"#utility.yul\":7681:8074   */\n    tag_81:\n        /* \"#utility.yul\":7750:7756   */\n      0x00\n        /* \"#utility.yul\":7800:7801   */\n      0x08\n        /* \"#utility.yul\":7788:7798   */\n      dup4\n        /* \"#utility.yul\":7784:7802   */\n      mul\n        /* \"#utility.yul\":7823:7920   */\n      tag_176\n        /* \"#utility.yul\":7853:7919   */\n      0xffffffffffffffffffffffffffffffffffffffffffffffffffffffffffffffff\n        /* \"#utility.yul\":7842:7851   */\n      dup3\n        /* \"#utility.yul\":7823:7920   */\n      tag_80\n      jump\t// in\n    tag_176:\n        /* \"#utility.yul\":7941:7980   */\n      tag_177\n        /* \"#utility.yul\":7971:7979   */\n      dup7\n        /* \"#utility.yul\":7960:7969   */\n      dup4\n        /* \"#utility.yul\":7941:7980   */\n      tag_80\n      jump\t// in\n    tag_177:\n        /* \"#utility.yul\":7929:7980   */\n      swap6\n      pop\n        /* \"#utility.yul\":8013:8017   */\n      dup1\n        /* \"#utility.yul\":8009:8018   */\n      not\n        /* \"#utility.yul\":8002:8007   */\n      dup5\n        /* \"#utility.yul\":7998:8019   */\n      and\n        /* \"#utility.yul\":7989:8019   */\n      swap4\n      pop\n        /* \"#utility.yul\":8062:8066   */\n      dup1\n        /* \"#utility.yul\":8052:8060   */\n      dup7\n        /* \"#utility.yul\":8048:8067   */\n      and\n        /* \"#utility.yul\":8041:8046   */\n      dup5\n        /* \"#utility.yul\":8038:8068   */\n      or\n        /* \"#utility.yul\":8028:8068   */\n      swap3\n      pop\n        /* \"#utility.yul\":7757:8074   */\n      pop\n      pop\n        /* \"#utility.yul\":7681:8074   */\n      swap4\n      swap3\n      pop\n      pop\n      pop\n      jump\t// out\n        /* \"#utility.yul\":8080:8140   */\n    tag_82:\n        /* \"#utility.yul\":8108:8111   */\n      0x00\n        /* \"#utility.yul\":8129:8134   */\n      dup2\n        /* \"#utility.yul\":8122:8134   */\n      swap1\n      pop\n        /* \"#utility.yul\":8080:8140   */\n      swap2\n      swap1\n      pop\n      jump\t// out\n        /* \"#utility.yul\":8146:8288   */\n    tag_83:\n        /* \"#utility.yul\":8196:8205   */\n      0x00\n        /* \"#utility.yul\":8229:8282   */\n      tag_180\n        /* \"#utility.yul\":8247:8281   */\n      tag_181\n        /* \"#utility.yul\":8256:8280   */\n      tag_182\n        /* \"#utility.yul\":8274:8279   */\n      dup5\n        /* \"#utility.yul\":8256:8280   */\n      tag_66\n      jump\t// in\n    tag_182:\n        /* \"#utility.yul\":8247:8281   */\n      tag_82\n      jump\t// in\n    tag_181:\n        /* \"#utility.yul\":8229:8282   */\n      tag_66\n      jump\t// in\n    tag_180:\n        /* \"#utility.yul\":8216:8282   */\n      swap1\n      pop\n        /* \"#utility.yul\":8146:8288   */\n      swap2\n      swap1\n      pop\n      jump\t// out\n        /* \"#utility.yul\":8294:8369   */\n    tag_84:\n        /* \"#utility.yul\":8337:8340   */\n      0x00\n        /* \"#utility.yul\":8358:8363   */\n      dup2\n        /* \"#utility.yul\":8351:8363   */\n      swap1\n      pop\n        /* \"#utility.yul\":8294:8369   */\n      swap2\n      swap1\n      pop\n      jump\t// out\n        /* \"#utility.yul\":8375:8644   */\n    tag_85:\n        /* \"#utility.yul\":8485:8524   */\n      tag_185\n        /* \"#utility.yul\":8516:8523   */\n      dup4\n        /* \"#utility.yul\":8485:8524   */\n      tag_83\n      jump\t// in\n    tag_185:\n        /* \"#utility.yul\":8546:8637   */\n      tag_186\n        /* \"#utility.yul\":8595:8636   */\n      tag_187\n        /* \"#utility.yul\":8619:8635   */\n      dup3\n        /* \"#utility.yul\":8595:8636   */\n      tag_84\n      jump\t// in\n    tag_187:\n        /* \"#utility.yul\":8587:8593   */\n      dup5\n        /* \"#utility.yul\":8580:8584   */\n      dup5\n        /* \"#utility.yul\":8574:8585   */\n      sload\n        /* \"#utility.yul\":8546:8637   */\n      tag_81\n      jump\t// in\n    tag_186:\n        /* \"#utility.yul\":8540:8544   */\n      dup3\n        /* \"#utility.yul\":8533:8638   */\n      sstore\n        /* \"#utility.yul\":8451:8644   */\n      pop\n        /* \"#utility.yul\":8375:8644   */\n      pop\n      pop\n      pop\n      jump\t// out\n        /* \"#utility.yul\":8650:8723   */\n    tag_86:\n        /* \"#utility.yul\":8695:8698   */\n      0x00\n        /* \"#utility.yul\":8650:8723   */\n      swap1\n      jump\t// out\n        /* \"#utility.yul\":8729:8918   */\n    tag_87:\n        /* \"#utility.yul\":8806:8838   */\n      tag_190\n      tag_86\n      jump\t// in\n    tag_190:\n        /* \"#utility.yul\":8847:8912   */\n      tag_191\n        /* \"#utility.yul\":8905:8911   */\n      dup2\n        /* \"#utility.yul\":8897:8903   */\n      dup5\n        /* \"#utility.yul\":8891:8895   */\n      dup5\n        /* \"#utility.yul\":8847:8912   */\n      tag_85\n      jump\t// in\n    tag_191:\n        /* \"#utility.yul\":8782:8918   */\n      pop\n        /* \"#utility.yul\":8729:8918   */\n      pop\n      pop\n      jump\t// out\n        /* \"#utility.yul\":8924:9110   */\n    tag_88:\n        /* \"#utility.yul\":8984:9104   */\n    tag_193:\n        /* \"#utility.yul\":9001:9004   */\n      dup2\n        /* \"#utility.yul\":8994:8999   */\n      dup2\n        /* \"#utility.yul\":8991:9005   */\n      lt\n        /* \"#utility.yul\":8984:9104   */\n      iszero\n      tag_195\n      jumpi\n        /* \"#utility.yul\":9055:9094   */\n      tag_196\n        /* \"#utility.yul\":9092:9093   */\n      0x00\n        /* \"#utility.yul\":9085:9090   */\n      dup3\n        /* \"#utility.yul\":9055:9094   */\n      tag_87\n      jump\t// in\n    tag_196:\n        /* \"#utility.yul\":9028:9029   */\n      0x01\n        /* \"#utility.yul\":9021:9026   */\n      dup2\n        /* \"#utility.yul\":9017:9030   */\n      add\n        /* \"#utility.yul\":9008:9030   */\n      swap1\n      pop\n        /* \"#utility.yul\":8984:9104   */\n      jump(tag_193)\n    tag_195:\n        /* \"#utility.yul\":8924:9110   */\n      pop\n      pop\n      jump\t// out\n        /* \"#utility.yul\":9116:9659   */\n    tag_89:\n        /* \"#utility.yul\":9217:9219   */\n      0x1f\n        /* \"#utility.yul\":9212:9215   */\n      dup3\n        /* \"#utility.yul\":9209:9220   */\n      gt\n        /* \"#utility.yul\":9206:9652   */\n      iszero\n      tag_198\n      jumpi\n        /* \"#utility.yul\":9251:9289   */\n      tag_199\n        /* \"#utility.yul\":9283:9288   */\n      dup2\n        /* \"#utility.yul\":9251:9289   */\n      tag_78\n      jump\t// in\n    tag_199:\n        /* \"#utility.yul\":9335:9364   */\n      tag_200\n        /* \"#utility.yul\":9353:9363   */\n      dup5\n        /* \"#utility.yul\":9335:9364   */\n      tag_79\n      jump\t// in\n    tag_200:\n        /* \"#utility.yul\":9325:9333   */\n      dup2\n        /* \"#utility.yul\":9321:9365   */\n      add\n        /* \"#utility.yul\":9518:9520   */\n      0x20\n        /* \"#utility.yul\":9506:9516   */\n      dup6\n        /* \"#utility.yul\":9503:9521   */\n      lt\n        /* \"#utility.yul\":9500:9549   */\n      iszero\n      tag_201\n      jumpi\n        /* \"#utility.yul\":9539:9547   */\n      dup2\n        /* \"#utility.yul\":9524:9547   */\n      swap1\n      pop\n        /* \"#utility.yul\":9500:9549   */\n    tag_201:\n        /* \"#utility.yul\":9562:9642   */\n      tag_202\n        /* \"#utility.yul\":9618:9640   */\n      tag_203\n        /* \"#utility.yul\":9636:9639   */\n      dup6\n        /* \"#utility.yul\":9618:9640   */\n      tag_79\n      jump\t// in\n    tag_203:\n        /* \"#utility.yul\":9608:9616   */\n      dup4\n        /* \"#utility.yul\":9604:9641   */\n      add\n        /* \"#utility.yul\":9591:9602   */\n      dup3\n        /* \"#utility.yul\":9562:9642   */\n      tag_88\n      jump\t// in\n    tag_202:\n        /* \"#utility.yul\":9221:9652   */\n      pop\n      pop\n        /* \"#utility.yul\":9206:9652   */\n    tag_198:\n        /* \"#utility.yul\":9116:9659   */\n      pop\n      pop\n      pop\n      jump\t// out\n        /* \"#utility.yul\":9665:9782   */\n    tag_90:\n        /* \"#utility.yul\":9719:9727   */\n      0x00\n        /* \"#utility.yul\":9769:9774   */\n      dup3\n        /* \"#utility.yul\":9763:9767   */\n      dup3\n        /* \"#utility.yul\":9759:9775   */\n      shr\n        /* \"#utility.yul\":9738:9775   */\n      swap1\n      pop\n        /* \"#utility.yul\":9665:9782   */\n      swap3\n      swap2\n      pop\n      pop\n      jump\t// out\n        /* \"#utility.yul\":9788:9957   */\n    tag_91:\n        /* \"#utility.yul\":9832:9838   */\n      0x00\n        /* \"#utility.yul\":9865:9916   */\n      tag_206\n        /* \"#utility.yul\":9913:9914   */\n      0x00\n        /* \"#utility.yul\":9909:9915   */\n      not\n        /* \"#utility.yul\":9901:9906   */\n      dup5\n        /* \"#utility.yul\":9898:9899   */\n      0x08\n        /* \"#utility.yul\":9894:9907   */\n      mul\n        /* \"#utility.yul\":9865:9916   */\n      tag_90\n      jump\t// in\n    tag_206:\n        /* \"#utility.yul\":9861:9917   */\n      not\n        /* \"#utility.yul\":9946:9950   */\n      dup1\n        /* \"#utility.yul\":9940:9944   */\n      dup4\n        /* \"#utility.yul\":9936:9951   */\n      and\n        /* \"#utility.yul\":9926:9951   */\n      swap2\n      pop\n        /* \"#utility.yul\":9839:9957   */\n      pop\n        /* \"#utility.yul\":9788:9957   */\n      swap3\n      swap2\n      pop\n      pop\n      jump\t// out\n        /* \"#utility.yul\":9962:10257   */\n    tag_92:\n        /* \"#utility.yul\":10038:10042   */\n      0x00\n        /* \"#utility.yul\":10184:10213   */\n      tag_208\n        /* \"#utility.yul\":10209:10212   */\n      dup4\n        /* \"#utility.yul\":10203:10207   */\n      dup4\n        /* \"#utility.yul\":10184:10213   */\n      tag_91\n      jump\t// in\n    tag_208:\n        /* \"#utility.yul\":10176:10213   */\n      swap2\n      pop\n        /* \"#utility.yul\":10246:10249   */\n      dup3\n        /* \"#utility.yul\":10243:10244   */\n      0x02\n        /* \"#utility.yul\":10239:10250   */\n      mul\n        /* \"#utility.yul\":10233:10237   */\n      dup3\n        /* \"#utility.yul\":10230:10251   */\n      or\n        /* \"#utility.yul\":10222:10251   */\n      swap1\n      pop\n        /* \"#utility.yul\":9962:10257   */\n      swap3\n      swap2\n      pop\n      pop\n      jump\t// out\n        /* \"#utility.yul\":10262:11657   */\n    tag_36:\n        /* \"#utility.yul\":10379:10416   */\n      tag_210\n        /* \"#utility.yul\":10412:10415   */\n      dup3\n        /* \"#utility.yul\":10379:10416   */\n      tag_70\n      jump\t// in\n    tag_210:\n        /* \"#utility.yul\":10481:10499   */\n      0xffffffffffffffff\n        /* \"#utility.yul\":10473:10479   */\n      dup2\n        /* \"#utility.yul\":10470:10500   */\n      gt\n        /* \"#utility.yul\":10467:10523   */\n      iszero\n      tag_211\n      jumpi\n        /* \"#utility.yul\":10503:10521   */\n      tag_212\n      tag_59\n      jump\t// in\n    tag_212:\n        /* \"#utility.yul\":10467:10523   */\n    tag_211:\n        /* \"#utility.yul\":10547:10585   */\n      tag_213\n        /* \"#utility.yul\":10579:10583   */\n      dup3\n        /* \"#utility.yul\":10573:10584   */\n      sload\n        /* \"#utility.yul\":10547:10585   */\n      tag_39\n      jump\t// in\n    tag_213:\n        /* \"#utility.yul\":10632:10699   */\n      tag_214\n        /* \"#utility.yul\":10692:10698   */\n      dup3\n        /* \"#utility.yul\":10684:10690   */\n      dup3\n        /* \"#utility.yul\":10678:10682   */\n      dup6\n        /* \"#utility.yul\":10632:10699   */\n      tag_89\n      jump\t// in\n    tag_214:\n        /* \"#utility.yul\":10726:10727   */\n      0x00\n        /* \"#utility.yul\":10750:10754   */\n      0x20\n        /* \"#utility.yul\":10737:10754   */\n      swap1\n      pop\n        /* \"#utility.yul\":10782:10784   */\n      0x1f\n        /* \"#utility.yul\":10774:10780   */\n      dup4\n        /* \"#utility.yul\":10771:10785   */\n      gt\n        /* \"#utility.yul\":10799:10800   */\n      0x01\n        /* \"#utility.yul\":10794:11412   */\n      dup2\n      eq\n      tag_216\n      jumpi\n        /* \"#utility.yul\":11456:11457   */\n      0x00\n        /* \"#utility.yul\":11473:11479   */\n      dup5\n        /* \"#utility.yul\":11470:11547   */\n      iszero\n      tag_217\n      jumpi\n        /* \"#utility.yul\":11522:11531   */\n      dup3\n        /* \"#utility.yul\":11517:11520   */\n      dup8\n        /* \"#utility.yul\":11513:11532   */\n      add\n        /* \"#utility.yul\":11507:11533   */\n      mload\n        /* \"#utility.yul\":11498:11533   */\n      swap1\n      pop\n        /* \"#utility.yul\":11470:11547   */\n    tag_217:\n        /* \"#utility.yul\":11573:11640   */\n      tag_218\n        /* \"#utility.yul\":11633:11639   */\n      dup6\n        /* \"#utility.yul\":11626:11631   */\n      dup3\n        /* \"#utility.yul\":11573:11640   */\n      tag_92\n      jump\t// in\n    tag_218:\n        /* \"#utility.yul\":11567:11571   */\n      dup7\n        /* \"#utility.yul\":11560:11641   */\n      sstore\n        /* \"#utility.yul\":11429:11651   */\n      pop\n        /* \"#utility.yul\":10764:11651   */\n      jump(tag_215)\n        /* \"#utility.yul\":10794:11412   */\n    tag_216:\n        /* \"#utility.yul\":10846:10850   */\n      0x1f\n        /* \"#utility.yul\":10842:10851   */\n      not\n        /* \"#utility.yul\":10834:10840   */\n      dup5\n        /* \"#utility.yul\":10830:10852   */\n      and\n        /* \"#utility.yul\":10880:10917   */\n      tag_219\n        /* \"#utility.yul\":10912:10916   */\n      dup7\n        /* \"#utility.yul\":10880:10917   */\n      tag_78\n      jump\t// in\n    tag_219:\n        /* \"#utility.yul\":10939:10940   */\n      0x00\n        /* \"#utility.yul\":10953:11161   */\n    tag_220:\n        /* \"#utility.yul\":10967:10974   */\n      dup3\n        /* \"#utility.yul\":10964:10965   */\n      dup2\n        /* \"#utility.yul\":10961:10975   */\n      lt\n        /* \"#utility.yul\":10953:11161   */\n      iszero\n      tag_222\n      jumpi\n        /* \"#utility.yul\":11046:11055   */\n      dup5\n        /* \"#utility.yul\":11041:11044   */\n      dup10\n        /* \"#utility.yul\":11037:11056   */\n      add\n        /* \"#utility.yul\":11031:11057   */\n      mload\n        /* \"#utility.yul\":11023:11029   */\n      dup3\n        /* \"#utility.yul\":11016:11058   */\n      sstore\n        /* \"#utility.yul\":11097:11098   */\n      0x01\n        /* \"#utility.yul\":11089:11095   */\n      dup3\n        /* \"#utility.yul\":11085:11099   */\n      add\n        /* \"#utility.yul\":11075:11099   */\n      swap2\n      pop\n        /* \"#utility.yul\":11144:11146   */\n      0x20\n        /* \"#utility.yul\":11133:11142   */\n      dup6\n        /* \"#utility.yul\":11129:11147   */\n      add\n        /* \"#utility.yul\":11116:11147   */\n      swap5\n      pop\n        /* \"#utility.yul\":10990:10994   */\n      0x20\n        /* \"#utility.yul\":10987:10988   */\n      dup2\n        /* \"#utility.yul\":10983:10995   */\n      add\n        /* \"#utility.yul\":10978:10995   */\n      swap1\n      pop\n        /* \"#utility.yul\":10953:11161   */\n      jump(tag_220)\n    tag_222:\n        /* \"#utility.yul\":11189:11195   */\n      dup7\n        /* \"#utility.yul\":11180:11187   */\n      dup4\n        /* \"#utility.yul\":11177:11196   */\n      lt\n        /* \"#utility.yul\":11174:11353   */\n      iszero\n      tag_223\n      jumpi\n        /* \"#utility.yul\":11247:11256   */\n      dup5\n        /* \"#utility.yul\":11242:11245   */\n      dup10\n        /* \"#utility.yul\":11238:11257   */\n      add\n        /* \"#utility.yul\":11232:11258   */\n      mload\n        /* \"#utility.yul\":11290:11338   */\n      tag_224\n        /* \"#utility.yul\":11332:11336   */\n      0x1f\n        /* \"#utility.yul\":11324:11330   */\n      dup10\n        /* \"#utility.yul\":11320:11337   */\n      and\n        /* \"#utility.yul\":11309:11318   */\n      dup3\n        /* \"#utility.yul\":11290:11338   */\n      tag_91\n      jump\t// in\n    tag_224:\n        /* \"#utility.yul\":11282:11288   */\n      dup4\n        /* \"#utility.yul\":11275:11339   */\n      sstore\n        /* \"#utility.yul\":11197:11353   */\n      pop\n        /* \"#utility.yul\":11174:11353   */\n    tag_223:\n        /* \"#utility.yul\":11399:11400   */\n      0x01\n        /* \"#utility.yul\":11395:11396   */\n      0x02\n        /* \"#utility.yul\":11387:11393   */\n      dup9\n        /* \"#utility.yul\":11383:11397   */\n      mul\n        /* \"#utility.yul\":11379:11401   */\n      add\n        /* \"#utility.yul\":11373:11377   */\n      dup9\n        /* \"#utility.yul\":11366:11402   */\n      sstore\n        /* \"#utility.yul\":10801:11412   */\n      pop\n      pop\n      pop\n        /* \"#utility.yul\":10764:11651   */\n    tag_215:\n      pop\n        /* \"#utility.yul\":10354:11657   */\n      pop\n      pop\n      pop\n        /* \"#utility.yul\":10262:11657   */\n      pop\n      pop\n      jump\t// out\n        /* \"#utility.yul\":11663:11842   */\n    tag_93:\n        /* \"#utility.yul\":11803:11834   */\n      0x5469636b6574206e756d62657220646f6573206e6f742065786973742e000000\n        /* \"#utility.yul\":11799:11800   */\n      0x00\n        /* \"#utility.yul\":11791:11797   */\n      dup3\n        /* \"#utility.yul\":11787:11801   */\n      add\n        /* \"#utility.yul\":11780:11835   */\n      mstore\n        /* \"#utility.yul\":11663:11842   */\n      pop\n      jump\t// out\n        /* \"#utility.yul\":11848:12214   */\n    tag_94:\n        /* \"#utility.yul\":11990:11993   */\n      0x00\n        /* \"#utility.yul\":12011:12078   */\n      tag_227\n        /* \"#utility.yul\":12075:12077   */\n      0x1d\n        /* \"#utility.yul\":12070:12073   */\n      dup4\n        /* \"#utility.yul\":12011:12078   */\n      tag_71\n      jump\t// in\n    tag_227:\n        /* \"#utility.yul\":12004:12078   */\n      swap2\n      pop\n        /* \"#utility.yul\":12087:12180   */\n      tag_228\n        /* \"#utility.yul\":12176:12179   */\n      dup3\n        /* \"#utility.yul\":12087:12180   */\n      tag_93\n      jump\t// in\n    tag_228:\n        /* \"#utility.yul\":12205:12207   */\n      0x20\n        /* \"#utility.yul\":12200:12203   */\n      dup3\n        /* \"#utility.yul\":12196:12208   */\n      add\n        /* \"#utility.yul\":12189:12208   */\n      swap1\n      pop\n        /* \"#utility.yul\":11848:12214   */\n      swap2\n      swap1\n      pop\n      jump\t// out\n        /* \"#utility.yul\":12220:12639   */\n    tag_47:\n        /* \"#utility.yul\":12386:12390   */\n      0x00\n        /* \"#utility.yul\":12424:12426   */\n      0x20\n        /* \"#utility.yul\":12413:12422   */\n      dup3\n        /* \"#utility.yul\":12409:12427   */\n      add\n        /* \"#utility.yul\":12401:12427   */\n      swap1\n      pop\n        /* \"#utility.yul\":12473:12482   */\n      dup2\n        /* \"#utility.yul\":12467:12471   */\n      dup2\n        /* \"#utility.yul\":12463:12483   */\n      sub\n        /* \"#utility.yul\":12459:12460   */\n      0x00\n        /* \"#utility.yul\":12448:12457   */\n      dup4\n        /* \"#utility.yul\":12444:12461   */\n      add\n        /* \"#utility.yul\":12437:12484   */\n      mstore\n        /* \"#utility.yul\":12501:12632   */\n      tag_230\n        /* \"#utility.yul\":12627:12631   */\n      dup2\n        /* \"#utility.yul\":12501:12632   */\n      tag_94\n      jump\t// in\n    tag_230:\n        /* \"#utility.yul\":12493:12632   */\n      swap1\n      pop\n        /* \"#utility.yul\":12220:12639   */\n      swap2\n      swap1\n      pop\n      jump\t// out\n\n    auxdata: 0xa26469706673582212200eb4122faf4e8397d97af75f76ae70a86e55444d3d0fe7cd751f1ca5699f39be64736f6c634300081a0033\n}\n",
				"bytecode": {
					"linkReferences": {},
					"object": "608060405234801561000f575f80fd5b50604051610c5b380380610c5b833981810160405281019061003191906100bd565b5f8111610073576040517f08c379a000000000000000000000000000000000000000000000000000000000815260040161006a90610168565b60405180910390fd5b806001819055505f808190555050610186565b5f80fd5b5f819050919050565b61009c8161008a565b81146100a6575f80fd5b50565b5f815190506100b781610093565b92915050565b5f602082840312156100d2576100d1610086565b5b5f6100df848285016100a9565b91505092915050565b5f82825260208201905092915050565b7f51756575652073697a65206d7573742062652067726561746572207468616e205f8201527f3000000000000000000000000000000000000000000000000000000000000000602082015250565b5f6101526021836100e8565b915061015d826100f8565b604082019050919050565b5f6020820190508181035f83015261017f81610146565b9050919050565b610ac8806101935f395ff3fe608060405234801561000f575f80fd5b5060043610610055575f3560e01c8063a6a77d9814610059578063bae6c2ad14610075578063c0abda2a14610093578063cfbd900f146100c4578063eb876f27146100e2575b5f80fd5b610073600480360381019061006e9190610504565b610113565b005b61007d6101f4565b60405161008a9190610563565b60405180910390f35b6100ad60048036038101906100a891906105a6565b6101fa565b6040516100bb929190610631565b60405180910390f35b6100cc6102a0565b6040516100d99190610563565b60405180910390f35b6100fc60048036038101906100f791906105a6565b6102a5565b60405161010a929190610631565b60405180910390f35b6001545f5410610158576040517f08c379a000000000000000000000000000000000000000000000000000000000815260040161014f906106cf565b60405180910390fd5b5f808154809291906101699061071a565b919050555060405180604001604052805f5481526020018281525060025f805481526020019081526020015f205f820151815f015560208201518160010190816101b3919061095b565b509050507f1ba30fd76c09b4b9fed660bee1d769cfc3252b9192ab5e79b7f499563ace780a5f54826040516101e9929190610631565b60405180910390a150565b60015481565b6002602052805f5260405f205f91509050805f01549080600101805461021f9061078e565b80601f016020809104026020016040519081016040528092919081815260200182805461024b9061078e565b80156102965780601f1061026d57610100808354040283529160200191610296565b820191905f5260205f20905b81548152906001019060200180831161027957829003601f168201915b5050505050905082565b5f5481565b5f60605f548311156102ec576040517f08c379a00000000000000000000000000000000000000000000000000000000081526004016102e390610a74565b60405180910390fd5b5f60025f8581526020019081526020015f206040518060400160405290815f82015481526020016001820180546103229061078e565b80601f016020809104026020016040519081016040528092919081815260200182805461034e9061078e565b80156103995780601f1061037057610100808354040283529160200191610399565b820191905f5260205f20905b81548152906001019060200180831161037c57829003601f168201915b5050505050815250509050805f015181602001519250925050915091565b5f604051905090565b5f80fd5b5f80fd5b5f80fd5b5f80fd5b5f601f19601f8301169050919050565b7f4e487b71000000000000000000000000000000000000000000000000000000005f52604160045260245ffd5b610416826103d0565b810181811067ffffffffffffffff82111715610435576104346103e0565b5b80604052505050565b5f6104476103b7565b9050610453828261040d565b919050565b5f67ffffffffffffffff821115610472576104716103e0565b5b61047b826103d0565b9050602081019050919050565b828183375f83830152505050565b5f6104a86104a384610458565b61043e565b9050828152602081018484840111156104c4576104c36103cc565b5b6104cf848285610488565b509392505050565b5f82601f8301126104eb576104ea6103c8565b5b81356104fb848260208601610496565b91505092915050565b5f60208284031215610519576105186103c0565b5b5f82013567ffffffffffffffff811115610536576105356103c4565b5b610542848285016104d7565b91505092915050565b5f819050919050565b61055d8161054b565b82525050565b5f6020820190506105765f830184610554565b92915050565b6105858161054b565b811461058f575f80fd5b50565b5f813590506105a08161057c565b92915050565b5f602082840312156105bb576105ba6103c0565b5b5f6105c884828501610592565b91505092915050565b5f81519050919050565b5f82825260208201905092915050565b8281835e5f83830152505050565b5f610603826105d1565b61060d81856105db565b935061061d8185602086016105eb565b610626816103d0565b840191505092915050565b5f6040820190506106445f830185610554565b818103602083015261065681846105f9565b90509392505050565b7f51756575652069732066756c6c2e204e6f206d6f7265207469636b65747320635f8201527f616e206265206973737565642e00000000000000000000000000000000000000602082015250565b5f6106b9602d836105db565b91506106c48261065f565b604082019050919050565b5f6020820190508181035f8301526106e6816106ad565b9050919050565b7f4e487b71000000000000000000000000000000000000000000000000000000005f52601160045260245ffd5b5f6107248261054b565b91507fffffffffffffffffffffffffffffffffffffffffffffffffffffffffffffffff8203610756576107556106ed565b5b600182019050919050565b7f4e487b71000000000000000000000000000000000000000000000000000000005f52602260045260245ffd5b5f60028204905060018216806107a557607f821691505b6020821081036107b8576107b7610761565b5b50919050565b5f819050815f5260205f209050919050565b5f6020601f8301049050919050565b5f82821b905092915050565b5f6008830261081a7fffffffffffffffffffffffffffffffffffffffffffffffffffffffffffffffff826107df565b61082486836107df565b95508019841693508086168417925050509392505050565b5f819050919050565b5f61085f61085a6108558461054b565b61083c565b61054b565b9050919050565b5f819050919050565b61087883610845565b61088c61088482610866565b8484546107eb565b825550505050565b5f90565b6108a0610894565b6108ab81848461086f565b505050565b5b818110156108ce576108c35f82610898565b6001810190506108b1565b5050565b601f821115610913576108e4816107be565b6108ed846107d0565b810160208510156108fc578190505b610910610908856107d0565b8301826108b0565b50505b505050565b5f82821c905092915050565b5f6109335f1984600802610918565b1980831691505092915050565b5f61094b8383610924565b9150826002028217905092915050565b610964826105d1565b67ffffffffffffffff81111561097d5761097c6103e0565b5b610987825461078e565b6109928282856108d2565b5f60209050601f8311600181146109c3575f84156109b1578287015190505b6109bb8582610940565b865550610a22565b601f1984166109d1866107be565b5f5b828110156109f8578489015182556001820191506020850194506020810190506109d3565b86831015610a155784890151610a11601f891682610924565b8355505b6001600288020188555050505b505050505050565b7f5469636b6574206e756d62657220646f6573206e6f742065786973742e0000005f82015250565b5f610a5e601d836105db565b9150610a6982610a2a565b602082019050919050565b5f6020820190508181035f830152610a8b81610a52565b905091905056fea26469706673582212200eb4122faf4e8397d97af75f76ae70a86e55444d3d0fe7cd751f1ca5699f39be64736f6c634300081a0033",
					"opcodes": "PUSH1 0x80 PUSH1 0x40 MSTORE CALLVALUE DUP1 ISZERO PUSH2 0xF JUMPI PUSH0 DUP1 REVERT JUMPDEST POP PUSH1 0x40 MLOAD PUSH2 0xC5B CODESIZE SUB DUP1 PUSH2 0xC5B DUP4 CODECOPY DUP2 DUP2 ADD PUSH1 0x40 MSTORE DUP2 ADD SWAP1 PUSH2 0x31 SWAP2 SWAP1 PUSH2 0xBD JUMP JUMPDEST PUSH0 DUP2 GT PUSH2 0x73 JUMPI PUSH1 0x40 MLOAD PUSH32 0x8C379A000000000000000000000000000000000000000000000000000000000 DUP2 MSTORE PUSH1 0x4 ADD PUSH2 0x6A SWAP1 PUSH2 0x168 JUMP JUMPDEST PUSH1 0x40 MLOAD DUP1 SWAP2 SUB SWAP1 REVERT JUMPDEST DUP1 PUSH1 0x1 DUP2 SWAP1 SSTORE POP PUSH0 DUP1 DUP2 SWAP1 SSTORE POP POP PUSH2 0x186 JUMP JUMPDEST PUSH0 DUP1 REVERT JUMPDEST PUSH0 DUP2 SWAP1 POP SWAP2 SWAP1 POP JUMP JUMPDEST PUSH2 0x9C DUP2 PUSH2 0x8A JUMP JUMPDEST DUP2 EQ PUSH2 0xA6 JUMPI PUSH0 DUP1 REVERT JUMPDEST POP JUMP JUMPDEST PUSH0 DUP2 MLOAD SWAP1 POP PUSH2 0xB7 DUP2 PUSH2 0x93 JUMP JUMPDEST SWAP3 SWAP2 POP POP JUMP JUMPDEST PUSH0 PUSH1 0x20 DUP3 DUP5 SUB SLT ISZERO PUSH2 0xD2 JUMPI PUSH2 0xD1 PUSH2 0x86 JUMP JUMPDEST JUMPDEST PUSH0 PUSH2 0xDF DUP5 DUP3 DUP6 ADD PUSH2 0xA9 JUMP JUMPDEST SWAP2 POP POP SWAP3 SWAP2 POP POP JUMP JUMPDEST PUSH0 DUP3 DUP3 MSTORE PUSH1 0x20 DUP3 ADD SWAP1 POP SWAP3 SWAP2 POP POP JUMP JUMPDEST PUSH32 0x51756575652073697A65206D7573742062652067726561746572207468616E20 PUSH0 DUP3 ADD MSTORE PUSH32 0x3000000000000000000000000000000000000000000000000000000000000000 PUSH1 0x20 DUP3 ADD MSTORE POP JUMP JUMPDEST PUSH0 PUSH2 0x152 PUSH1 0x21 DUP4 PUSH2 0xE8 JUMP JUMPDEST SWAP2 POP PUSH2 0x15D DUP3 PUSH2 0xF8 JUMP JUMPDEST PUSH1 0x40 DUP3 ADD SWAP1 POP SWAP2 SWAP1 POP JUMP JUMPDEST PUSH0 PUSH1 0x20 DUP3 ADD SWAP1 POP DUP2 DUP2 SUB PUSH0 DUP4 ADD MSTORE PUSH2 0x17F DUP2 PUSH2 0x146 JUMP JUMPDEST SWAP1 POP SWAP2 SWAP1 POP JUMP JUMPDEST PUSH2 0xAC8 DUP1 PUSH2 0x193 PUSH0 CODECOPY PUSH0 RETURN INVALID PUSH1 0x80 PUSH1 0x40 MSTORE CALLVALUE DUP1 ISZERO PUSH2 0xF JUMPI PUSH0 DUP1 REVERT JUMPDEST POP PUSH1 0x4 CALLDATASIZE LT PUSH2 0x55 JUMPI PUSH0 CALLDATALOAD PUSH1 0xE0 SHR DUP1 PUSH4 0xA6A77D98 EQ PUSH2 0x59 JUMPI DUP1 PUSH4 0xBAE6C2AD EQ PUSH2 0x75 JUMPI DUP1 PUSH4 0xC0ABDA2A EQ PUSH2 0x93 JUMPI DUP1 PUSH4 0xCFBD900F EQ PUSH2 0xC4 JUMPI DUP1 PUSH4 0xEB876F27 EQ PUSH2 0xE2 JUMPI JUMPDEST PUSH0 DUP1 REVERT JUMPDEST PUSH2 0x73 PUSH1 0x4 DUP1 CALLDATASIZE SUB DUP2 ADD SWAP1 PUSH2 0x6E SWAP2 SWAP1 PUSH2 0x504 JUMP JUMPDEST PUSH2 0x113 JUMP JUMPDEST STOP JUMPDEST PUSH2 0x7D PUSH2 0x1F4 JUMP JUMPDEST PUSH1 0x40 MLOAD PUSH2 0x8A SWAP2 SWAP1 PUSH2 0x563 JUMP JUMPDEST PUSH1 0x40 MLOAD DUP1 SWAP2 SUB SWAP1 RETURN JUMPDEST PUSH2 0xAD PUSH1 0x4 DUP1 CALLDATASIZE SUB DUP2 ADD SWAP1 PUSH2 0xA8 SWAP2 SWAP1 PUSH2 0x5A6 JUMP JUMPDEST PUSH2 0x1FA JUMP JUMPDEST PUSH1 0x40 MLOAD PUSH2 0xBB SWAP3 SWAP2 SWAP1 PUSH2 0x631 JUMP JUMPDEST PUSH1 0x40 MLOAD DUP1 SWAP2 SUB SWAP1 RETURN JUMPDEST PUSH2 0xCC PUSH2 0x2A0 JUMP JUMPDEST PUSH1 0x40 MLOAD PUSH2 0xD9 SWAP2 SWAP1 PUSH2 0x563 JUMP JUMPDEST PUSH1 0x40 MLOAD DUP1 SWAP2 SUB SWAP1 RETURN JUMPDEST PUSH2 0xFC PUSH1 0x4 DUP1 CALLDATASIZE SUB DUP2 ADD SWAP1 PUSH2 0xF7 SWAP2 SWAP1 PUSH2 0x5A6 JUMP JUMPDEST PUSH2 0x2A5 JUMP JUMPDEST PUSH1 0x40 MLOAD PUSH2 0x10A SWAP3 SWAP2 SWAP1 PUSH2 0x631 JUMP JUMPDEST PUSH1 0x40 MLOAD DUP1 SWAP2 SUB SWAP1 RETURN JUMPDEST PUSH1 0x1 SLOAD PUSH0 SLOAD LT PUSH2 0x158 JUMPI PUSH1 0x40 MLOAD PUSH32 0x8C379A000000000000000000000000000000000000000000000000000000000 DUP2 MSTORE PUSH1 0x4 ADD PUSH2 0x14F SWAP1 PUSH2 0x6CF JUMP JUMPDEST PUSH1 0x40 MLOAD DUP1 SWAP2 SUB SWAP1 REVERT JUMPDEST PUSH0 DUP1 DUP2 SLOAD DUP1 SWAP3 SWAP2 SWAP1 PUSH2 0x169 SWAP1 PUSH2 0x71A JUMP JUMPDEST SWAP2 SWAP1 POP SSTORE POP PUSH1 0x40 MLOAD DUP1 PUSH1 0x40 ADD PUSH1 0x40 MSTORE DUP1 PUSH0 SLOAD DUP2 MSTORE PUSH1 0x20 ADD DUP3 DUP2 MSTORE POP PUSH1 0x2 PUSH0 DUP1 SLOAD DUP2 MSTORE PUSH1 0x20 ADD SWAP1 DUP2 MSTORE PUSH1 0x20 ADD PUSH0 KECCAK256 PUSH0 DUP3 ADD MLOAD DUP2 PUSH0 ADD SSTORE PUSH1 0x20 DUP3 ADD MLOAD DUP2 PUSH1 0x1 ADD SWAP1 DUP2 PUSH2 0x1B3 SWAP2 SWAP1 PUSH2 0x95B JUMP JUMPDEST POP SWAP1 POP POP PUSH32 0x1BA30FD76C09B4B9FED660BEE1D769CFC3252B9192AB5E79B7F499563ACE780A PUSH0 SLOAD DUP3 PUSH1 0x40 MLOAD PUSH2 0x1E9 SWAP3 SWAP2 SWAP1 PUSH2 0x631 JUMP JUMPDEST PUSH1 0x40 MLOAD DUP1 SWAP2 SUB SWAP1 LOG1 POP JUMP JUMPDEST PUSH1 0x1 SLOAD DUP2 JUMP JUMPDEST PUSH1 0x2 PUSH1 0x20 MSTORE DUP1 PUSH0 MSTORE PUSH1 0x40 PUSH0 KECCAK256 PUSH0 SWAP2 POP SWAP1 POP DUP1 PUSH0 ADD SLOAD SWAP1 DUP1 PUSH1 0x1 ADD DUP1 SLOAD PUSH2 0x21F SWAP1 PUSH2 0x78E JUMP JUMPDEST DUP1 PUSH1 0x1F ADD PUSH1 0x20 DUP1 SWAP2 DIV MUL PUSH1 0x20 ADD PUSH1 0x40 MLOAD SWAP1 DUP2 ADD PUSH1 0x40 MSTORE DUP1 SWAP3 SWAP2 SWAP1 DUP2 DUP2 MSTORE PUSH1 0x20 ADD DUP3 DUP1 SLOAD PUSH2 0x24B SWAP1 PUSH2 0x78E JUMP JUMPDEST DUP1 ISZERO PUSH2 0x296 JUMPI DUP1 PUSH1 0x1F LT PUSH2 0x26D JUMPI PUSH2 0x100 DUP1 DUP4 SLOAD DIV MUL DUP4 MSTORE SWAP2 PUSH1 0x20 ADD SWAP2 PUSH2 0x296 JUMP JUMPDEST DUP3 ADD SWAP2 SWAP1 PUSH0 MSTORE PUSH1 0x20 PUSH0 KECCAK256 SWAP1 JUMPDEST DUP2 SLOAD DUP2 MSTORE SWAP1 PUSH1 0x1 ADD SWAP1 PUSH1 0x20 ADD DUP1 DUP4 GT PUSH2 0x279 JUMPI DUP3 SWAP1 SUB PUSH1 0x1F AND DUP3 ADD SWAP2 JUMPDEST POP POP POP POP POP SWAP1 POP DUP3 JUMP JUMPDEST PUSH0 SLOAD DUP2 JUMP JUMPDEST PUSH0 PUSH1 0x60 PUSH0 SLOAD DUP4 GT ISZERO PUSH2 0x2EC JUMPI PUSH1 0x40 MLOAD PUSH32 0x8C379A000000000000000000000000000000000000000000000000000000000 DUP2 MSTORE PUSH1 0x4 ADD PUSH2 0x2E3 SWAP1 PUSH2 0xA74 JUMP JUMPDEST PUSH1 0x40 MLOAD DUP1 SWAP2 SUB SWAP1 REVERT JUMPDEST PUSH0 PUSH1 0x2 PUSH0 DUP6 DUP2 MSTORE PUSH1 0x20 ADD SWAP1 DUP2 MSTORE PUSH1 0x20 ADD PUSH0 KECCAK256 PUSH1 0x40 MLOAD DUP1 PUSH1 0x40 ADD PUSH1 0x40 MSTORE SWAP1 DUP2 PUSH0 DUP3 ADD SLOAD DUP2 MSTORE PUSH1 0x20 ADD PUSH1 0x1 DUP3 ADD DUP1 SLOAD PUSH2 0x322 SWAP1 PUSH2 0x78E JUMP JUMPDEST DUP1 PUSH1 0x1F ADD PUSH1 0x20 DUP1 SWAP2 DIV MUL PUSH1 0x20 ADD PUSH1 0x40 MLOAD SWAP1 DUP2 ADD PUSH1 0x40 MSTORE DUP1 SWAP3 SWAP2 SWAP1 DUP2 DUP2 MSTORE PUSH1 0x20 ADD DUP3 DUP1 SLOAD PUSH2 0x34E SWAP1 PUSH2 0x78E JUMP JUMPDEST DUP1 ISZERO PUSH2 0x399 JUMPI DUP1 PUSH1 0x1F LT PUSH2 0x370 JUMPI PUSH2 0x100 DUP1 DUP4 SLOAD DIV MUL DUP4 MSTORE SWAP2 PUSH1 0x20 ADD SWAP2 PUSH2 0x399 JUMP JUMPDEST DUP3 ADD SWAP2 SWAP1 PUSH0 MSTORE PUSH1 0x20 PUSH0 KECCAK256 SWAP1 JUMPDEST DUP2 SLOAD DUP2 MSTORE SWAP1 PUSH1 0x1 ADD SWAP1 PUSH1 0x20 ADD DUP1 DUP4 GT PUSH2 0x37C JUMPI DUP3 SWAP1 SUB PUSH1 0x1F AND DUP3 ADD SWAP2 JUMPDEST POP POP POP POP POP DUP2 MSTORE POP POP SWAP1 POP DUP1 PUSH0 ADD MLOAD DUP2 PUSH1 0x20 ADD MLOAD SWAP3 POP SWAP3 POP POP SWAP2 POP SWAP2 JUMP JUMPDEST PUSH0 PUSH1 0x40 MLOAD SWAP1 POP SWAP1 JUMP JUMPDEST PUSH0 DUP1 REVERT JUMPDEST PUSH0 DUP1 REVERT JUMPDEST PUSH0 DUP1 REVERT JUMPDEST PUSH0 DUP1 REVERT JUMPDEST PUSH0 PUSH1 0x1F NOT PUSH1 0x1F DUP4 ADD AND SWAP1 POP SWAP2 SWAP1 POP JUMP JUMPDEST PUSH32 0x4E487B7100000000000000000000000000000000000000000000000000000000 PUSH0 MSTORE PUSH1 0x41 PUSH1 0x4 MSTORE PUSH1 0x24 PUSH0 REVERT JUMPDEST PUSH2 0x416 DUP3 PUSH2 0x3D0 JUMP JUMPDEST DUP2 ADD DUP2 DUP2 LT PUSH8 0xFFFFFFFFFFFFFFFF DUP3 GT OR ISZERO PUSH2 0x435 JUMPI PUSH2 0x434 PUSH2 0x3E0 JUMP JUMPDEST JUMPDEST DUP1 PUSH1 0x40 MSTORE POP POP POP JUMP JUMPDEST PUSH0 PUSH2 0x447 PUSH2 0x3B7 JUMP JUMPDEST SWAP1 POP PUSH2 0x453 DUP3 DUP3 PUSH2 0x40D JUMP JUMPDEST SWAP2 SWAP1 POP JUMP JUMPDEST PUSH0 PUSH8 0xFFFFFFFFFFFFFFFF DUP3 GT ISZERO PUSH2 0x472 JUMPI PUSH2 0x471 PUSH2 0x3E0 JUMP JUMPDEST JUMPDEST PUSH2 0x47B DUP3 PUSH2 0x3D0 JUMP JUMPDEST SWAP1 POP PUSH1 0x20 DUP2 ADD SWAP1 POP SWAP2 SWAP1 POP JUMP JUMPDEST DUP3 DUP2 DUP4 CALLDATACOPY PUSH0 DUP4 DUP4 ADD MSTORE POP POP POP JUMP JUMPDEST PUSH0 PUSH2 0x4A8 PUSH2 0x4A3 DUP5 PUSH2 0x458 JUMP JUMPDEST PUSH2 0x43E JUMP JUMPDEST SWAP1 POP DUP3 DUP2 MSTORE PUSH1 0x20 DUP2 ADD DUP5 DUP5 DUP5 ADD GT ISZERO PUSH2 0x4C4 JUMPI PUSH2 0x4C3 PUSH2 0x3CC JUMP JUMPDEST JUMPDEST PUSH2 0x4CF DUP5 DUP3 DUP6 PUSH2 0x488 JUMP JUMPDEST POP SWAP4 SWAP3 POP POP POP JUMP JUMPDEST PUSH0 DUP3 PUSH1 0x1F DUP4 ADD SLT PUSH2 0x4EB JUMPI PUSH2 0x4EA PUSH2 0x3C8 JUMP JUMPDEST JUMPDEST DUP2 CALLDATALOAD PUSH2 0x4FB DUP5 DUP3 PUSH1 0x20 DUP7 ADD PUSH2 0x496 JUMP JUMPDEST SWAP2 POP POP SWAP3 SWAP2 POP POP JUMP JUMPDEST PUSH0 PUSH1 0x20 DUP3 DUP5 SUB SLT ISZERO PUSH2 0x519 JUMPI PUSH2 0x518 PUSH2 0x3C0 JUMP JUMPDEST JUMPDEST PUSH0 DUP3 ADD CALLDATALOAD PUSH8 0xFFFFFFFFFFFFFFFF DUP2 GT ISZERO PUSH2 0x536 JUMPI PUSH2 0x535 PUSH2 0x3C4 JUMP JUMPDEST JUMPDEST PUSH2 0x542 DUP5 DUP3 DUP6 ADD PUSH2 0x4D7 JUMP JUMPDEST SWAP2 POP POP SWAP3 SWAP2 POP POP JUMP JUMPDEST PUSH0 DUP2 SWAP1 POP SWAP2 SWAP1 POP JUMP JUMPDEST PUSH2 0x55D DUP2 PUSH2 0x54B JUMP JUMPDEST DUP3 MSTORE POP POP JUMP JUMPDEST PUSH0 PUSH1 0x20 DUP3 ADD SWAP1 POP PUSH2 0x576 PUSH0 DUP4 ADD DUP5 PUSH2 0x554 JUMP JUMPDEST SWAP3 SWAP2 POP POP JUMP JUMPDEST PUSH2 0x585 DUP2 PUSH2 0x54B JUMP JUMPDEST DUP2 EQ PUSH2 0x58F JUMPI PUSH0 DUP1 REVERT JUMPDEST POP JUMP JUMPDEST PUSH0 DUP2 CALLDATALOAD SWAP1 POP PUSH2 0x5A0 DUP2 PUSH2 0x57C JUMP JUMPDEST SWAP3 SWAP2 POP POP JUMP JUMPDEST PUSH0 PUSH1 0x20 DUP3 DUP5 SUB SLT ISZERO PUSH2 0x5BB JUMPI PUSH2 0x5BA PUSH2 0x3C0 JUMP JUMPDEST JUMPDEST PUSH0 PUSH2 0x5C8 DUP5 DUP3 DUP6 ADD PUSH2 0x592 JUMP JUMPDEST SWAP2 POP POP SWAP3 SWAP2 POP POP JUMP JUMPDEST PUSH0 DUP2 MLOAD SWAP1 POP SWAP2 SWAP1 POP JUMP JUMPDEST PUSH0 DUP3 DUP3 MSTORE PUSH1 0x20 DUP3 ADD SWAP1 POP SWAP3 SWAP2 POP POP JUMP JUMPDEST DUP3 DUP2 DUP4 MCOPY PUSH0 DUP4 DUP4 ADD MSTORE POP POP POP JUMP JUMPDEST PUSH0 PUSH2 0x603 DUP3 PUSH2 0x5D1 JUMP JUMPDEST PUSH2 0x60D DUP2 DUP6 PUSH2 0x5DB JUMP JUMPDEST SWAP4 POP PUSH2 0x61D DUP2 DUP6 PUSH1 0x20 DUP7 ADD PUSH2 0x5EB JUMP JUMPDEST PUSH2 0x626 DUP2 PUSH2 0x3D0 JUMP JUMPDEST DUP5 ADD SWAP2 POP POP SWAP3 SWAP2 POP POP JUMP JUMPDEST PUSH0 PUSH1 0x40 DUP3 ADD SWAP1 POP PUSH2 0x644 PUSH0 DUP4 ADD DUP6 PUSH2 0x554 JUMP JUMPDEST DUP2 DUP2 SUB PUSH1 0x20 DUP4 ADD MSTORE PUSH2 0x656 DUP2 DUP5 PUSH2 0x5F9 JUMP JUMPDEST SWAP1 POP SWAP4 SWAP3 POP POP POP JUMP JUMPDEST PUSH32 0x51756575652069732066756C6C2E204E6F206D6F7265207469636B6574732063 PUSH0 DUP3 ADD MSTORE PUSH32 0x616E206265206973737565642E00000000000000000000000000000000000000 PUSH1 0x20 DUP3 ADD MSTORE POP JUMP JUMPDEST PUSH0 PUSH2 0x6B9 PUSH1 0x2D DUP4 PUSH2 0x5DB JUMP JUMPDEST SWAP2 POP PUSH2 0x6C4 DUP3 PUSH2 0x65F JUMP JUMPDEST PUSH1 0x40 DUP3 ADD SWAP1 POP SWAP2 SWAP1 POP JUMP JUMPDEST PUSH0 PUSH1 0x20 DUP3 ADD SWAP1 POP DUP2 DUP2 SUB PUSH0 DUP4 ADD MSTORE PUSH2 0x6E6 DUP2 PUSH2 0x6AD JUMP JUMPDEST SWAP1 POP SWAP2 SWAP1 POP JUMP JUMPDEST PUSH32 0x4E487B7100000000000000000000000000000000000000000000000000000000 PUSH0 MSTORE PUSH1 0x11 PUSH1 0x4 MSTORE PUSH1 0x24 PUSH0 REVERT JUMPDEST PUSH0 PUSH2 0x724 DUP3 PUSH2 0x54B JUMP JUMPDEST SWAP2 POP PUSH32 0xFFFFFFFFFFFFFFFFFFFFFFFFFFFFFFFFFFFFFFFFFFFFFFFFFFFFFFFFFFFFFFFF DUP3 SUB PUSH2 0x756 JUMPI PUSH2 0x755 PUSH2 0x6ED JUMP JUMPDEST JUMPDEST PUSH1 0x1 DUP3 ADD SWAP1 POP SWAP2 SWAP1 POP JUMP JUMPDEST PUSH32 0x4E487B7100000000000000000000000000000000000000000000000000000000 PUSH0 MSTORE PUSH1 0x22 PUSH1 0x4 MSTORE PUSH1 0x24 PUSH0 REVERT JUMPDEST PUSH0 PUSH1 0x2 DUP3 DIV SWAP1 POP PUSH1 0x1 DUP3 AND DUP1 PUSH2 0x7A5 JUMPI PUSH1 0x7F DUP3 AND SWAP2 POP JUMPDEST PUSH1 0x20 DUP3 LT DUP2 SUB PUSH2 0x7B8 JUMPI PUSH2 0x7B7 PUSH2 0x761 JUMP JUMPDEST JUMPDEST POP SWAP2 SWAP1 POP JUMP JUMPDEST PUSH0 DUP2 SWAP1 POP DUP2 PUSH0 MSTORE PUSH1 0x20 PUSH0 KECCAK256 SWAP1 POP SWAP2 SWAP1 POP JUMP JUMPDEST PUSH0 PUSH1 0x20 PUSH1 0x1F DUP4 ADD DIV SWAP1 POP SWAP2 SWAP1 POP JUMP JUMPDEST PUSH0 DUP3 DUP3 SHL SWAP1 POP SWAP3 SWAP2 POP POP JUMP JUMPDEST PUSH0 PUSH1 0x8 DUP4 MUL PUSH2 0x81A PUSH32 0xFFFFFFFFFFFFFFFFFFFFFFFFFFFFFFFFFFFFFFFFFFFFFFFFFFFFFFFFFFFFFFFF DUP3 PUSH2 0x7DF JUMP JUMPDEST PUSH2 0x824 DUP7 DUP4 PUSH2 0x7DF JUMP JUMPDEST SWAP6 POP DUP1 NOT DUP5 AND SWAP4 POP DUP1 DUP7 AND DUP5 OR SWAP3 POP POP POP SWAP4 SWAP3 POP POP POP JUMP JUMPDEST PUSH0 DUP2 SWAP1 POP SWAP2 SWAP1 POP JUMP JUMPDEST PUSH0 PUSH2 0x85F PUSH2 0x85A PUSH2 0x855 DUP5 PUSH2 0x54B JUMP JUMPDEST PUSH2 0x83C JUMP JUMPDEST PUSH2 0x54B JUMP JUMPDEST SWAP1 POP SWAP2 SWAP1 POP JUMP JUMPDEST PUSH0 DUP2 SWAP1 POP SWAP2 SWAP1 POP JUMP JUMPDEST PUSH2 0x878 DUP4 PUSH2 0x845 JUMP JUMPDEST PUSH2 0x88C PUSH2 0x884 DUP3 PUSH2 0x866 JUMP JUMPDEST DUP5 DUP5 SLOAD PUSH2 0x7EB JUMP JUMPDEST DUP3 SSTORE POP POP POP POP JUMP JUMPDEST PUSH0 SWAP1 JUMP JUMPDEST PUSH2 0x8A0 PUSH2 0x894 JUMP JUMPDEST PUSH2 0x8AB DUP2 DUP5 DUP5 PUSH2 0x86F JUMP JUMPDEST POP POP POP JUMP JUMPDEST JUMPDEST DUP2 DUP2 LT ISZERO PUSH2 0x8CE JUMPI PUSH2 0x8C3 PUSH0 DUP3 PUSH2 0x898 JUMP JUMPDEST PUSH1 0x1 DUP2 ADD SWAP1 POP PUSH2 0x8B1 JUMP JUMPDEST POP POP JUMP JUMPDEST PUSH1 0x1F DUP3 GT ISZERO PUSH2 0x913 JUMPI PUSH2 0x8E4 DUP2 PUSH2 0x7BE JUMP JUMPDEST PUSH2 0x8ED DUP5 PUSH2 0x7D0 JUMP JUMPDEST DUP2 ADD PUSH1 0x20 DUP6 LT ISZERO PUSH2 0x8FC JUMPI DUP2 SWAP1 POP JUMPDEST PUSH2 0x910 PUSH2 0x908 DUP6 PUSH2 0x7D0 JUMP JUMPDEST DUP4 ADD DUP3 PUSH2 0x8B0 JUMP JUMPDEST POP POP JUMPDEST POP POP POP JUMP JUMPDEST PUSH0 DUP3 DUP3 SHR SWAP1 POP SWAP3 SWAP2 POP POP JUMP JUMPDEST PUSH0 PUSH2 0x933 PUSH0 NOT DUP5 PUSH1 0x8 MUL PUSH2 0x918 JUMP JUMPDEST NOT DUP1 DUP4 AND SWAP2 POP POP SWAP3 SWAP2 POP POP JUMP JUMPDEST PUSH0 PUSH2 0x94B DUP4 DUP4 PUSH2 0x924 JUMP JUMPDEST SWAP2 POP DUP3 PUSH1 0x2 MUL DUP3 OR SWAP1 POP SWAP3 SWAP2 POP POP JUMP JUMPDEST PUSH2 0x964 DUP3 PUSH2 0x5D1 JUMP JUMPDEST PUSH8 0xFFFFFFFFFFFFFFFF DUP2 GT ISZERO PUSH2 0x97D JUMPI PUSH2 0x97C PUSH2 0x3E0 JUMP JUMPDEST JUMPDEST PUSH2 0x987 DUP3 SLOAD PUSH2 0x78E JUMP JUMPDEST PUSH2 0x992 DUP3 DUP3 DUP6 PUSH2 0x8D2 JUMP JUMPDEST PUSH0 PUSH1 0x20 SWAP1 POP PUSH1 0x1F DUP4 GT PUSH1 0x1 DUP2 EQ PUSH2 0x9C3 JUMPI PUSH0 DUP5 ISZERO PUSH2 0x9B1 JUMPI DUP3 DUP8 ADD MLOAD SWAP1 POP JUMPDEST PUSH2 0x9BB DUP6 DUP3 PUSH2 0x940 JUMP JUMPDEST DUP7 SSTORE POP PUSH2 0xA22 JUMP JUMPDEST PUSH1 0x1F NOT DUP5 AND PUSH2 0x9D1 DUP7 PUSH2 0x7BE JUMP JUMPDEST PUSH0 JUMPDEST DUP3 DUP2 LT ISZERO PUSH2 0x9F8 JUMPI DUP5 DUP10 ADD MLOAD DUP3 SSTORE PUSH1 0x1 DUP3 ADD SWAP2 POP PUSH1 0x20 DUP6 ADD SWAP5 POP PUSH1 0x20 DUP2 ADD SWAP1 POP PUSH2 0x9D3 JUMP JUMPDEST DUP7 DUP4 LT ISZERO PUSH2 0xA15 JUMPI DUP5 DUP10 ADD MLOAD PUSH2 0xA11 PUSH1 0x1F DUP10 AND DUP3 PUSH2 0x924 JUMP JUMPDEST DUP4 SSTORE POP JUMPDEST PUSH1 0x1 PUSH1 0x2 DUP9 MUL ADD DUP9 SSTORE POP POP POP JUMPDEST POP POP POP POP POP POP JUMP JUMPDEST PUSH32 0x5469636B6574206E756D62657220646F6573206E6F742065786973742E000000 PUSH0 DUP3 ADD MSTORE POP JUMP JUMPDEST PUSH0 PUSH2 0xA5E PUSH1 0x1D DUP4 PUSH2 0x5DB JUMP JUMPDEST SWAP2 POP PUSH2 0xA69 DUP3 PUSH2 0xA2A JUMP JUMPDEST PUSH1 0x20 DUP3 ADD SWAP1 POP SWAP2 SWAP1 POP JUMP JUMPDEST PUSH0 PUSH1 0x20 DUP3 ADD SWAP1 POP DUP2 DUP2 SUB PUSH0 DUP4 ADD MSTORE PUSH2 0xA8B DUP2 PUSH2 0xA52 JUMP JUMPDEST SWAP1 POP SWAP2 SWAP1 POP JUMP INVALID LOG2 PUSH5 0x6970667358 0x22 SLT KECCAK256 0xE 0xB4 SLT 0x2F 0xAF 0x4E DUP4 SWAP8 0xD9 PUSH27 0xF75F76AE70A86E55444D3D0FE7CD751F1CA5699F39BE64736F6C63 NUMBER STOP ADDMOD BYTE STOP CALLER "
				},
				"gasEstimates": {
					"creation": {
						"codeDepositCost": "552000",
						"executionCost": "infinite",
						"totalCost": "infinite"
					},
					"external": {
						"customers(uint256)": "infinite",
						"getCustomer(uint256)": "infinite",
						"issueTicket(string)": "infinite",
						"queueSize()": "2425",
						"ticketCount()": "2468"
					}
				},
				"methodIdentifiers": {
					"customers(uint256)": "c0abda2a",
					"getCustomer(uint256)": "eb876f27",
					"issueTicket(string)": "a6a77d98",
					"queueSize()": "bae6c2ad",
					"ticketCount()": "cfbd900f"
				}
			},
			"storageLayout": {
				"storage": [
					{
						"astId": 3,
						"contract": "contracts/DAY4/P1.sol:TicketingSystem",
						"label": "ticketCount",
						"offset": 0,
						"slot": "0",
						"type": "t_uint256"
					},
					{
						"astId": 5,
						"contract": "contracts/DAY4/P1.sol:TicketingSystem",
						"label": "queueSize",
						"offset": 0,
						"slot": "1",
						"type": "t_uint256"
					},
					{
						"astId": 15,
						"contract": "contracts/DAY4/P1.sol:TicketingSystem",
						"label": "customers",
						"offset": 0,
						"slot": "2",
						"type": "t_mapping(t_uint256,t_struct(Customer)10_storage)"
					}
				],
				"types": {
					"t_mapping(t_uint256,t_struct(Customer)10_storage)": {
						"encoding": "mapping",
						"key": "t_uint256",
						"label": "mapping(uint256 => struct TicketingSystem.Customer)",
						"numberOfBytes": "32",
						"value": "t_struct(Customer)10_storage"
					},
					"t_string_storage": {
						"encoding": "bytes",
						"label": "string",
						"numberOfBytes": "32"
					},
					"t_struct(Customer)10_storage": {
						"encoding": "inplace",
						"label": "struct TicketingSystem.Customer",
						"members": [
							{
								"astId": 7,
								"contract": "contracts/DAY4/P1.sol:TicketingSystem",
								"label": "ticketNumber",
								"offset": 0,
								"slot": "0",
								"type": "t_uint256"
							},
							{
								"astId": 9,
								"contract": "contracts/DAY4/P1.sol:TicketingSystem",
								"label": "name",
								"offset": 0,
								"slot": "1",
								"type": "t_string_storage"
							}
						],
						"numberOfBytes": "64"
					},
					"t_uint256": {
						"encoding": "inplace",
						"label": "uint256",
						"numberOfBytes": "32"
					}
				}
			},
			"userdoc": {
				"kind": "user",
				"methods": {},
				"version": 1
			}
		}
	}
}