{
	"contracts/DAY4/p2.sol": {
		"coprime": {
			"abi": [
				{
					"inputs": [
						{
							"internalType": "uint256",
							"name": "",
							"type": "uint256"
						}
					],
					"name": "arr",
					"outputs": [
						{
							"internalType": "uint256",
							"name": "",
							"type": "uint256"
						}
					],
					"stateMutability": "view",
					"type": "function"
				},
				{
					"inputs": [
						{
							"internalType": "uint256",
							"name": "start",
							"type": "uint256"
						},
						{
							"internalType": "uint256",
							"name": "end",
							"type": "uint256"
						}
					],
					"name": "checkRange",
					"outputs": [],
					"stateMutability": "nonpayable",
					"type": "function"
				},
				{
					"inputs": [
						{
							"internalType": "uint256",
							"name": "n1",
							"type": "uint256"
						},
						{
							"internalType": "uint256",
							"name": "n2",
							"type": "uint256"
						}
					],
					"name": "checkcoprime",
					"outputs": [
						{
							"internalType": "bool",
							"name": "",
							"type": "bool"
						}
					],
					"stateMutability": "pure",
					"type": "function"
				},
				{
					"inputs": [
						{
							"internalType": "uint256",
							"name": "n1",
							"type": "uint256"
						},
						{
							"internalType": "uint256",
							"name": "n2",
							"type": "uint256"
						}
					],
					"name": "get",
					"outputs": [],
					"stateMutability": "nonpayable",
					"type": "function"
				},
				{
					"inputs": [],
					"name": "getArray",
					"outputs": [
						{
							"internalType": "uint256[]",
							"name": "",
							"type": "uint256[]"
						}
					],
					"stateMutability": "view",
					"type": "function"
				},
				{
					"inputs": [],
					"name": "num1",
					"outputs": [
						{
							"internalType": "uint256",
							"name": "",
							"type": "uint256"
						}
					],
					"stateMutability": "view",
					"type": "function"
				},
				{
					"inputs": [],
					"name": "num2",
					"outputs": [
						{
							"internalType": "uint256",
							"name": "",
							"type": "uint256"
						}
					],
					"stateMutability": "view",
					"type": "function"
				}
			],
			"devdoc": {
				"kind": "dev",
				"methods": {},
				"version": 1
			},
			"evm": {
				"assembly": "    /* \"contracts/DAY4/p2.sol\":50:1126  contract coprime {... */\n  mstore(0x40, 0x80)\n  callvalue\n  dup1\n  iszero\n  tag_1\n  jumpi\n  0x00\n  dup1\n  revert\ntag_1:\n  pop\n  dataSize(sub_0)\n  dup1\n  dataOffset(sub_0)\n  0x00\n  codecopy\n  0x00\n  return\nstop\n\nsub_0: assembly {\n        /* \"contracts/DAY4/p2.sol\":50:1126  contract coprime {... */\n      mstore(0x40, 0x80)\n      callvalue\n      dup1\n      iszero\n      tag_1\n      jumpi\n      0x00\n      dup1\n      revert\n    tag_1:\n      pop\n      jumpi(tag_2, lt(calldatasize, 0x04))\n      shr(0xe0, calldataload(0x00))\n      dup1\n      0x6cc99ad5\n      gt\n      tag_10\n      jumpi\n      dup1\n      0x6cc99ad5\n      eq\n      tag_6\n      jumpi\n      dup1\n      0x71e5ee5f\n      eq\n      tag_7\n      jumpi\n      dup1\n      0x939b6767\n      eq\n      tag_8\n      jumpi\n      dup1\n      0xd504ea1d\n      eq\n      tag_9\n      jumpi\n      jump(tag_2)\n    tag_10:\n      dup1\n      0x15d4266c\n      eq\n      tag_3\n      jumpi\n      dup1\n      0x3b9eac4b\n      eq\n      tag_4\n      jumpi\n      dup1\n      0x669e48aa\n      eq\n      tag_5\n      jumpi\n    tag_2:\n      0x00\n      dup1\n      revert\n        /* \"contracts/DAY4/p2.sol\":97:113  uint public num2 */\n    tag_3:\n      tag_11\n      tag_12\n      jump\t// in\n    tag_11:\n      mload(0x40)\n      tag_13\n      swap2\n      swap1\n      tag_14\n      jump\t// in\n    tag_13:\n      mload(0x40)\n      dup1\n      swap2\n      sub\n      swap1\n      return\n        /* \"contracts/DAY4/p2.sol\":74:90  uint public num1 */\n    tag_4:\n      tag_15\n      tag_16\n      jump\t// in\n    tag_15:\n      mload(0x40)\n      tag_17\n      swap2\n      swap1\n      tag_14\n      jump\t// in\n    tag_17:\n      mload(0x40)\n      dup1\n      swap2\n      sub\n      swap1\n      return\n        /* \"contracts/DAY4/p2.sol\":156:242  function get(uint n1, uint n2) public {... */\n    tag_5:\n      tag_18\n      0x04\n      dup1\n      calldatasize\n      sub\n      dup2\n      add\n      swap1\n      tag_19\n      swap2\n      swap1\n      tag_20\n      jump\t// in\n    tag_19:\n      tag_21\n      jump\t// in\n    tag_18:\n      stop\n        /* \"contracts/DAY4/p2.sol\":632:1028  function checkRange(uint start, uint end) public {... */\n    tag_6:\n      tag_22\n      0x04\n      dup1\n      calldatasize\n      sub\n      dup2\n      add\n      swap1\n      tag_23\n      swap2\n      swap1\n      tag_20\n      jump\t// in\n    tag_23:\n      tag_24\n      jump\t// in\n    tag_22:\n      stop\n        /* \"contracts/DAY4/p2.sol\":120:137  uint[] public arr */\n    tag_7:\n      tag_25\n      0x04\n      dup1\n      calldatasize\n      sub\n      dup2\n      add\n      swap1\n      tag_26\n      swap2\n      swap1\n      tag_27\n      jump\t// in\n    tag_26:\n      tag_28\n      jump\t// in\n    tag_25:\n      mload(0x40)\n      tag_29\n      swap2\n      swap1\n      tag_14\n      jump\t// in\n    tag_29:\n      mload(0x40)\n      dup1\n      swap2\n      sub\n      swap1\n      return\n        /* \"contracts/DAY4/p2.sol\":255:619  function checkcoprime(uint n1, uint n2) public pure returns (bool) {... */\n    tag_8:\n      tag_30\n      0x04\n      dup1\n      calldatasize\n      sub\n      dup2\n      add\n      swap1\n      tag_31\n      swap2\n      swap1\n      tag_20\n      jump\t// in\n    tag_31:\n      tag_32\n      jump\t// in\n    tag_30:\n      mload(0x40)\n      tag_33\n      swap2\n      swap1\n      tag_34\n      jump\t// in\n    tag_33:\n      mload(0x40)\n      dup1\n      swap2\n      sub\n      swap1\n      return\n        /* \"contracts/DAY4/p2.sol\":1038:1123  function getArray() public view returns (uint[] memory) {... */\n    tag_9:\n      tag_35\n      tag_36\n      jump\t// in\n    tag_35:\n      mload(0x40)\n      tag_37\n      swap2\n      swap1\n      tag_38\n      jump\t// in\n    tag_37:\n      mload(0x40)\n      dup1\n      swap2\n      sub\n      swap1\n      return\n        /* \"contracts/DAY4/p2.sol\":97:113  uint public num2 */\n    tag_12:\n      sload(0x01)\n      dup2\n      jump\t// out\n        /* \"contracts/DAY4/p2.sol\":74:90  uint public num1 */\n    tag_16:\n      sload(0x00)\n      dup2\n      jump\t// out\n        /* \"contracts/DAY4/p2.sol\":156:242  function get(uint n1, uint n2) public {... */\n    tag_21:\n        /* \"contracts/DAY4/p2.sol\":212:214  n1 */\n      dup2\n        /* \"contracts/DAY4/p2.sol\":205:209  num1 */\n      0x00\n        /* \"contracts/DAY4/p2.sol\":205:214  num1 = n1 */\n      dup2\n      swap1\n      sstore\n      pop\n        /* \"contracts/DAY4/p2.sol\":232:234  n2 */\n      dup1\n        /* \"contracts/DAY4/p2.sol\":225:229  num2 */\n      0x01\n        /* \"contracts/DAY4/p2.sol\":225:234  num2 = n2 */\n      dup2\n      swap1\n      sstore\n      pop\n        /* \"contracts/DAY4/p2.sol\":156:242  function get(uint n1, uint n2) public {... */\n      pop\n      pop\n      jump\t// out\n        /* \"contracts/DAY4/p2.sol\":632:1028  function checkRange(uint start, uint end) public {... */\n    tag_24:\n        /* \"contracts/DAY4/p2.sol\":707:710  arr */\n      0x02\n      0x00\n        /* \"contracts/DAY4/p2.sol\":700:710  delete arr */\n      tag_41\n      swap2\n      swap1\n      tag_42\n      jump\t// in\n    tag_41:\n        /* \"contracts/DAY4/p2.sol\":763:769  uint i */\n      0x00\n        /* \"contracts/DAY4/p2.sol\":772:777  start */\n      dup3\n        /* \"contracts/DAY4/p2.sol\":763:777  uint i = start */\n      swap1\n      pop\n        /* \"contracts/DAY4/p2.sol\":758:1021  for (uint i = start; i < end; i++) {... */\n    tag_43:\n        /* \"contracts/DAY4/p2.sol\":783:786  end */\n      dup2\n        /* \"contracts/DAY4/p2.sol\":779:780  i */\n      dup2\n        /* \"contracts/DAY4/p2.sol\":779:786  i < end */\n      lt\n        /* \"contracts/DAY4/p2.sol\":758:1021  for (uint i = start; i < end; i++) {... */\n      iszero\n      tag_44\n      jumpi\n        /* \"contracts/DAY4/p2.sol\":813:819  uint j */\n      0x00\n        /* \"contracts/DAY4/p2.sol\":826:827  1 */\n      0x01\n        /* \"contracts/DAY4/p2.sol\":822:823  i */\n      dup3\n        /* \"contracts/DAY4/p2.sol\":822:827  i + 1 */\n      tag_49\n      swap2\n      swap1\n      tag_50\n      jump\t// in\n    tag_49:\n        /* \"contracts/DAY4/p2.sol\":813:827  uint j = i + 1 */\n      swap1\n      pop\n        /* \"contracts/DAY4/p2.sol\":808:1010  for (uint j = i + 1; j <= end; j++) {... */\n    tag_46:\n        /* \"contracts/DAY4/p2.sol\":834:837  end */\n      dup3\n        /* \"contracts/DAY4/p2.sol\":829:830  j */\n      dup2\n        /* \"contracts/DAY4/p2.sol\":829:837  j <= end */\n      gt\n        /* \"contracts/DAY4/p2.sol\":808:1010  for (uint j = i + 1; j <= end; j++) {... */\n      tag_47\n      jumpi\n        /* \"contracts/DAY4/p2.sol\":884:902  checkcoprime(i, j) */\n      tag_51\n        /* \"contracts/DAY4/p2.sol\":897:898  i */\n      dup3\n        /* \"contracts/DAY4/p2.sol\":900:901  j */\n      dup3\n        /* \"contracts/DAY4/p2.sol\":884:896  checkcoprime */\n      tag_32\n        /* \"contracts/DAY4/p2.sol\":884:902  checkcoprime(i, j) */\n      jump\t// in\n    tag_51:\n        /* \"contracts/DAY4/p2.sol\":880:994  if (checkcoprime(i, j)) {... */\n      iszero\n      tag_52\n      jumpi\n        /* \"contracts/DAY4/p2.sol\":927:930  arr */\n      0x02\n        /* \"contracts/DAY4/p2.sol\":936:937  i */\n      dup3\n        /* \"contracts/DAY4/p2.sol\":927:938  arr.push(i) */\n      swap1\n      dup1\n      0x01\n      dup2\n      sload\n      add\n      dup1\n      dup3\n      sstore\n      dup1\n      swap2\n      pop\n      pop\n      0x01\n      swap1\n      sub\n      swap1\n      0x00\n      mstore\n      keccak256(0x00, 0x20)\n      add\n      0x00\n      swap1\n      swap2\n      swap1\n      swap2\n      swap1\n      swap2\n      pop\n      sstore\n        /* \"contracts/DAY4/p2.sol\":962:965  arr */\n      0x02\n        /* \"contracts/DAY4/p2.sol\":971:972  j */\n      dup2\n        /* \"contracts/DAY4/p2.sol\":962:973  arr.push(j) */\n      swap1\n      dup1\n      0x01\n      dup2\n      sload\n      add\n      dup1\n      dup3\n      sstore\n      dup1\n      swap2\n      pop\n      pop\n      0x01\n      swap1\n      sub\n      swap1\n      0x00\n      mstore\n      keccak256(0x00, 0x20)\n      add\n      0x00\n      swap1\n      swap2\n      swap1\n      swap2\n      swap1\n      swap2\n      pop\n      sstore\n        /* \"contracts/DAY4/p2.sol\":880:994  if (checkcoprime(i, j)) {... */\n    tag_52:\n        /* \"contracts/DAY4/p2.sol\":839:842  j++ */\n      dup1\n      dup1\n      tag_55\n      swap1\n      tag_56\n      jump\t// in\n    tag_55:\n      swap2\n      pop\n      pop\n        /* \"contracts/DAY4/p2.sol\":808:1010  for (uint j = i + 1; j <= end; j++) {... */\n      jump(tag_46)\n    tag_47:\n      pop\n        /* \"contracts/DAY4/p2.sol\":788:791  i++ */\n      dup1\n      dup1\n      0x01\n      add\n      swap2\n      pop\n      pop\n        /* \"contracts/DAY4/p2.sol\":758:1021  for (uint i = start; i < end; i++) {... */\n      jump(tag_43)\n    tag_44:\n      pop\n        /* \"contracts/DAY4/p2.sol\":632:1028  function checkRange(uint start, uint end) public {... */\n      pop\n      pop\n      jump\t// out\n        /* \"contracts/DAY4/p2.sol\":120:137  uint[] public arr */\n    tag_28:\n      0x02\n      dup2\n      dup2\n      sload\n      dup2\n      lt\n      tag_57\n      jumpi\n      0x00\n      dup1\n      revert\n    tag_57:\n      swap1\n      0x00\n      mstore\n      keccak256(0x00, 0x20)\n      add\n      0x00\n      swap2\n      pop\n      swap1\n      pop\n      sload\n      dup2\n      jump\t// out\n        /* \"contracts/DAY4/p2.sol\":255:619  function checkcoprime(uint n1, uint n2) public pure returns (bool) {... */\n    tag_32:\n        /* \"contracts/DAY4/p2.sol\":316:320  bool */\n      0x00\n        /* \"contracts/DAY4/p2.sol\":333:339  uint a */\n      dup1\n        /* \"contracts/DAY4/p2.sol\":342:344  n1 */\n      dup4\n        /* \"contracts/DAY4/p2.sol\":333:344  uint a = n1 */\n      swap1\n      pop\n        /* \"contracts/DAY4/p2.sol\":355:361  uint b */\n      0x00\n        /* \"contracts/DAY4/p2.sol\":364:366  n2 */\n      dup4\n        /* \"contracts/DAY4/p2.sol\":355:366  uint b = n2 */\n      swap1\n      pop\n        /* \"contracts/DAY4/p2.sol\":401:402  b */\n      dup1\n        /* \"contracts/DAY4/p2.sol\":397:398  a */\n      dup3\n        /* \"contracts/DAY4/p2.sol\":397:402  a > b */\n      gt\n        /* \"contracts/DAY4/p2.sol\":393:447  if (a > b) {... */\n      iszero\n      tag_60\n      jumpi\n        /* \"contracts/DAY4/p2.sol\":429:430  b */\n      dup1\n        /* \"contracts/DAY4/p2.sol\":432:433  a */\n      dup3\n        /* \"contracts/DAY4/p2.sol\":419:434  (a, b) = (b, a) */\n      dup1\n      swap3\n      pop\n      dup2\n      swap4\n      pop\n      pop\n      pop\n        /* \"contracts/DAY4/p2.sol\":393:447  if (a > b) {... */\n    tag_60:\n        /* \"contracts/DAY4/p2.sol\":477:579  while (b != 0) {... */\n    tag_61:\n        /* \"contracts/DAY4/p2.sol\":489:490  0 */\n      0x00\n        /* \"contracts/DAY4/p2.sol\":484:485  b */\n      dup2\n        /* \"contracts/DAY4/p2.sol\":484:490  b != 0 */\n      eq\n        /* \"contracts/DAY4/p2.sol\":477:579  while (b != 0) {... */\n      tag_62\n      jumpi\n        /* \"contracts/DAY4/p2.sol\":507:516  uint temp */\n      0x00\n        /* \"contracts/DAY4/p2.sol\":519:520  b */\n      dup2\n        /* \"contracts/DAY4/p2.sol\":507:520  uint temp = b */\n      swap1\n      pop\n        /* \"contracts/DAY4/p2.sol\":543:544  b */\n      dup2\n        /* \"contracts/DAY4/p2.sol\":539:540  a */\n      dup4\n        /* \"contracts/DAY4/p2.sol\":539:544  a % b */\n      tag_63\n      swap2\n      swap1\n      tag_64\n      jump\t// in\n    tag_63:\n        /* \"contracts/DAY4/p2.sol\":535:544  b = a % b */\n      swap2\n      pop\n        /* \"contracts/DAY4/p2.sol\":563:567  temp */\n      dup1\n        /* \"contracts/DAY4/p2.sol\":559:567  a = temp */\n      swap3\n      pop\n        /* \"contracts/DAY4/p2.sol\":492:579  {... */\n      pop\n        /* \"contracts/DAY4/p2.sol\":477:579  while (b != 0) {... */\n      jump(tag_61)\n    tag_62:\n        /* \"contracts/DAY4/p2.sol\":610:611  1 */\n      0x01\n        /* \"contracts/DAY4/p2.sol\":605:606  a */\n      dup3\n        /* \"contracts/DAY4/p2.sol\":605:611  a == 1 */\n      eq\n        /* \"contracts/DAY4/p2.sol\":598:611  return a == 1 */\n      swap3\n      pop\n      pop\n      pop\n        /* \"contracts/DAY4/p2.sol\":255:619  function checkcoprime(uint n1, uint n2) public pure returns (bool) {... */\n      swap3\n      swap2\n      pop\n      pop\n      jump\t// out\n        /* \"contracts/DAY4/p2.sol\":1038:1123  function getArray() public view returns (uint[] memory) {... */\n    tag_36:\n        /* \"contracts/DAY4/p2.sol\":1079:1092  uint[] memory */\n      0x60\n        /* \"contracts/DAY4/p2.sol\":1112:1115  arr */\n      0x02\n        /* \"contracts/DAY4/p2.sol\":1105:1115  return arr */\n      dup1\n      sload\n      dup1\n      0x20\n      mul\n      0x20\n      add\n      mload(0x40)\n      swap1\n      dup2\n      add\n      0x40\n      mstore\n      dup1\n      swap3\n      swap2\n      swap1\n      dup2\n      dup2\n      mstore\n      0x20\n      add\n      dup3\n      dup1\n      sload\n      dup1\n      iszero\n      tag_66\n      jumpi\n      0x20\n      mul\n      dup3\n      add\n      swap2\n      swap1\n      0x00\n      mstore\n      keccak256(0x00, 0x20)\n      swap1\n    tag_67:\n      dup2\n      sload\n      dup2\n      mstore\n      0x20\n      add\n      swap1\n      0x01\n      add\n      swap1\n      dup1\n      dup4\n      gt\n      tag_67\n      jumpi\n    tag_66:\n      pop\n      pop\n      pop\n      pop\n      pop\n      swap1\n      pop\n        /* \"contracts/DAY4/p2.sol\":1038:1123  function getArray() public view returns (uint[] memory) {... */\n      swap1\n      jump\t// out\n    tag_42:\n      pop\n      dup1\n      sload\n      0x00\n      dup3\n      sstore\n      swap1\n      0x00\n      mstore\n      keccak256(0x00, 0x20)\n      swap1\n      dup2\n      add\n      swap1\n      tag_69\n      swap2\n      swap1\n      tag_70\n      jump\t// in\n    tag_69:\n      pop\n      jump\t// out\n    tag_70:\n    tag_71:\n      dup1\n      dup3\n      gt\n      iszero\n      tag_72\n      jumpi\n      0x00\n      dup2\n      0x00\n      swap1\n      sstore\n      pop\n      0x01\n      add\n      jump(tag_71)\n    tag_72:\n      pop\n      swap1\n      jump\t// out\n        /* \"#utility.yul\":7:84   */\n    tag_73:\n        /* \"#utility.yul\":44:51   */\n      0x00\n        /* \"#utility.yul\":73:78   */\n      dup2\n        /* \"#utility.yul\":62:78   */\n      swap1\n      pop\n        /* \"#utility.yul\":7:84   */\n      swap2\n      swap1\n      pop\n      jump\t// out\n        /* \"#utility.yul\":90:208   */\n    tag_74:\n        /* \"#utility.yul\":177:201   */\n      tag_94\n        /* \"#utility.yul\":195:200   */\n      dup2\n        /* \"#utility.yul\":177:201   */\n      tag_73\n      jump\t// in\n    tag_94:\n        /* \"#utility.yul\":172:175   */\n      dup3\n        /* \"#utility.yul\":165:202   */\n      mstore\n        /* \"#utility.yul\":90:208   */\n      pop\n      pop\n      jump\t// out\n        /* \"#utility.yul\":214:436   */\n    tag_14:\n        /* \"#utility.yul\":307:311   */\n      0x00\n        /* \"#utility.yul\":345:347   */\n      0x20\n        /* \"#utility.yul\":334:343   */\n      dup3\n        /* \"#utility.yul\":330:348   */\n      add\n        /* \"#utility.yul\":322:348   */\n      swap1\n      pop\n        /* \"#utility.yul\":358:429   */\n      tag_96\n        /* \"#utility.yul\":426:427   */\n      0x00\n        /* \"#utility.yul\":415:424   */\n      dup4\n        /* \"#utility.yul\":411:428   */\n      add\n        /* \"#utility.yul\":402:408   */\n      dup5\n        /* \"#utility.yul\":358:429   */\n      tag_74\n      jump\t// in\n    tag_96:\n        /* \"#utility.yul\":214:436   */\n      swap3\n      swap2\n      pop\n      pop\n      jump\t// out\n        /* \"#utility.yul\":523:640   */\n    tag_76:\n        /* \"#utility.yul\":632:633   */\n      0x00\n        /* \"#utility.yul\":629:630   */\n      dup1\n        /* \"#utility.yul\":622:634   */\n      revert\n        /* \"#utility.yul\":769:891   */\n    tag_78:\n        /* \"#utility.yul\":842:866   */\n      tag_101\n        /* \"#utility.yul\":860:865   */\n      dup2\n        /* \"#utility.yul\":842:866   */\n      tag_73\n      jump\t// in\n    tag_101:\n        /* \"#utility.yul\":835:840   */\n      dup2\n        /* \"#utility.yul\":832:867   */\n      eq\n        /* \"#utility.yul\":822:885   */\n      tag_102\n      jumpi\n        /* \"#utility.yul\":881:882   */\n      0x00\n        /* \"#utility.yul\":878:879   */\n      dup1\n        /* \"#utility.yul\":871:883   */\n      revert\n        /* \"#utility.yul\":822:885   */\n    tag_102:\n        /* \"#utility.yul\":769:891   */\n      pop\n      jump\t// out\n        /* \"#utility.yul\":897:1036   */\n    tag_79:\n        /* \"#utility.yul\":943:948   */\n      0x00\n        /* \"#utility.yul\":981:987   */\n      dup2\n        /* \"#utility.yul\":968:988   */\n      calldataload\n        /* \"#utility.yul\":959:988   */\n      swap1\n      pop\n        /* \"#utility.yul\":997:1030   */\n      tag_104\n        /* \"#utility.yul\":1024:1029   */\n      dup2\n        /* \"#utility.yul\":997:1030   */\n      tag_78\n      jump\t// in\n    tag_104:\n        /* \"#utility.yul\":897:1036   */\n      swap3\n      swap2\n      pop\n      pop\n      jump\t// out\n        /* \"#utility.yul\":1042:1516   */\n    tag_20:\n        /* \"#utility.yul\":1110:1116   */\n      0x00\n        /* \"#utility.yul\":1118:1124   */\n      dup1\n        /* \"#utility.yul\":1167:1169   */\n      0x40\n        /* \"#utility.yul\":1155:1164   */\n      dup4\n        /* \"#utility.yul\":1146:1153   */\n      dup6\n        /* \"#utility.yul\":1142:1165   */\n      sub\n        /* \"#utility.yul\":1138:1170   */\n      slt\n        /* \"#utility.yul\":1135:1254   */\n      iszero\n      tag_106\n      jumpi\n        /* \"#utility.yul\":1173:1252   */\n      tag_107\n      tag_76\n      jump\t// in\n    tag_107:\n        /* \"#utility.yul\":1135:1254   */\n    tag_106:\n        /* \"#utility.yul\":1293:1294   */\n      0x00\n        /* \"#utility.yul\":1318:1371   */\n      tag_108\n        /* \"#utility.yul\":1363:1370   */\n      dup6\n        /* \"#utility.yul\":1354:1360   */\n      dup3\n        /* \"#utility.yul\":1343:1352   */\n      dup7\n        /* \"#utility.yul\":1339:1361   */\n      add\n        /* \"#utility.yul\":1318:1371   */\n      tag_79\n      jump\t// in\n    tag_108:\n        /* \"#utility.yul\":1308:1371   */\n      swap3\n      pop\n        /* \"#utility.yul\":1264:1381   */\n      pop\n        /* \"#utility.yul\":1420:1422   */\n      0x20\n        /* \"#utility.yul\":1446:1499   */\n      tag_109\n        /* \"#utility.yul\":1491:1498   */\n      dup6\n        /* \"#utility.yul\":1482:1488   */\n      dup3\n        /* \"#utility.yul\":1471:1480   */\n      dup7\n        /* \"#utility.yul\":1467:1489   */\n      add\n        /* \"#utility.yul\":1446:1499   */\n      tag_79\n      jump\t// in\n    tag_109:\n        /* \"#utility.yul\":1436:1499   */\n      swap2\n      pop\n        /* \"#utility.yul\":1391:1509   */\n      pop\n        /* \"#utility.yul\":1042:1516   */\n      swap3\n      pop\n      swap3\n      swap1\n      pop\n      jump\t// out\n        /* \"#utility.yul\":1522:1851   */\n    tag_27:\n        /* \"#utility.yul\":1581:1587   */\n      0x00\n        /* \"#utility.yul\":1630:1632   */\n      0x20\n        /* \"#utility.yul\":1618:1627   */\n      dup3\n        /* \"#utility.yul\":1609:1616   */\n      dup5\n        /* \"#utility.yul\":1605:1628   */\n      sub\n        /* \"#utility.yul\":1601:1633   */\n      slt\n        /* \"#utility.yul\":1598:1717   */\n      iszero\n      tag_111\n      jumpi\n        /* \"#utility.yul\":1636:1715   */\n      tag_112\n      tag_76\n      jump\t// in\n    tag_112:\n        /* \"#utility.yul\":1598:1717   */\n    tag_111:\n        /* \"#utility.yul\":1756:1757   */\n      0x00\n        /* \"#utility.yul\":1781:1834   */\n      tag_113\n        /* \"#utility.yul\":1826:1833   */\n      dup5\n        /* \"#utility.yul\":1817:1823   */\n      dup3\n        /* \"#utility.yul\":1806:1815   */\n      dup6\n        /* \"#utility.yul\":1802:1824   */\n      add\n        /* \"#utility.yul\":1781:1834   */\n      tag_79\n      jump\t// in\n    tag_113:\n        /* \"#utility.yul\":1771:1834   */\n      swap2\n      pop\n        /* \"#utility.yul\":1727:1844   */\n      pop\n        /* \"#utility.yul\":1522:1851   */\n      swap3\n      swap2\n      pop\n      pop\n      jump\t// out\n        /* \"#utility.yul\":1857:1947   */\n    tag_80:\n        /* \"#utility.yul\":1891:1898   */\n      0x00\n        /* \"#utility.yul\":1934:1939   */\n      dup2\n        /* \"#utility.yul\":1927:1940   */\n      iszero\n        /* \"#utility.yul\":1920:1941   */\n      iszero\n        /* \"#utility.yul\":1909:1941   */\n      swap1\n      pop\n        /* \"#utility.yul\":1857:1947   */\n      swap2\n      swap1\n      pop\n      jump\t// out\n        /* \"#utility.yul\":1953:2062   */\n    tag_81:\n        /* \"#utility.yul\":2034:2055   */\n      tag_116\n        /* \"#utility.yul\":2049:2054   */\n      dup2\n        /* \"#utility.yul\":2034:2055   */\n      tag_80\n      jump\t// in\n    tag_116:\n        /* \"#utility.yul\":2029:2032   */\n      dup3\n        /* \"#utility.yul\":2022:2056   */\n      mstore\n        /* \"#utility.yul\":1953:2062   */\n      pop\n      pop\n      jump\t// out\n        /* \"#utility.yul\":2068:2278   */\n    tag_34:\n        /* \"#utility.yul\":2155:2159   */\n      0x00\n        /* \"#utility.yul\":2193:2195   */\n      0x20\n        /* \"#utility.yul\":2182:2191   */\n      dup3\n        /* \"#utility.yul\":2178:2196   */\n      add\n        /* \"#utility.yul\":2170:2196   */\n      swap1\n      pop\n        /* \"#utility.yul\":2206:2271   */\n      tag_118\n        /* \"#utility.yul\":2268:2269   */\n      0x00\n        /* \"#utility.yul\":2257:2266   */\n      dup4\n        /* \"#utility.yul\":2253:2270   */\n      add\n        /* \"#utility.yul\":2244:2250   */\n      dup5\n        /* \"#utility.yul\":2206:2271   */\n      tag_81\n      jump\t// in\n    tag_118:\n        /* \"#utility.yul\":2068:2278   */\n      swap3\n      swap2\n      pop\n      pop\n      jump\t// out\n        /* \"#utility.yul\":2284:2398   */\n    tag_82:\n        /* \"#utility.yul\":2351:2357   */\n      0x00\n        /* \"#utility.yul\":2385:2390   */\n      dup2\n        /* \"#utility.yul\":2379:2391   */\n      mload\n        /* \"#utility.yul\":2369:2391   */\n      swap1\n      pop\n        /* \"#utility.yul\":2284:2398   */\n      swap2\n      swap1\n      pop\n      jump\t// out\n        /* \"#utility.yul\":2404:2588   */\n    tag_83:\n        /* \"#utility.yul\":2503:2514   */\n      0x00\n        /* \"#utility.yul\":2537:2543   */\n      dup3\n        /* \"#utility.yul\":2532:2535   */\n      dup3\n        /* \"#utility.yul\":2525:2544   */\n      mstore\n        /* \"#utility.yul\":2577:2581   */\n      0x20\n        /* \"#utility.yul\":2572:2575   */\n      dup3\n        /* \"#utility.yul\":2568:2582   */\n      add\n        /* \"#utility.yul\":2553:2582   */\n      swap1\n      pop\n        /* \"#utility.yul\":2404:2588   */\n      swap3\n      swap2\n      pop\n      pop\n      jump\t// out\n        /* \"#utility.yul\":2594:2726   */\n    tag_84:\n        /* \"#utility.yul\":2661:2665   */\n      0x00\n        /* \"#utility.yul\":2684:2687   */\n      dup2\n        /* \"#utility.yul\":2676:2687   */\n      swap1\n      pop\n        /* \"#utility.yul\":2714:2718   */\n      0x20\n        /* \"#utility.yul\":2709:2712   */\n      dup3\n        /* \"#utility.yul\":2705:2719   */\n      add\n        /* \"#utility.yul\":2697:2719   */\n      swap1\n      pop\n        /* \"#utility.yul\":2594:2726   */\n      swap2\n      swap1\n      pop\n      jump\t// out\n        /* \"#utility.yul\":2732:2840   */\n    tag_85:\n        /* \"#utility.yul\":2809:2833   */\n      tag_123\n        /* \"#utility.yul\":2827:2832   */\n      dup2\n        /* \"#utility.yul\":2809:2833   */\n      tag_73\n      jump\t// in\n    tag_123:\n        /* \"#utility.yul\":2804:2807   */\n      dup3\n        /* \"#utility.yul\":2797:2834   */\n      mstore\n        /* \"#utility.yul\":2732:2840   */\n      pop\n      pop\n      jump\t// out\n        /* \"#utility.yul\":2846:3025   */\n    tag_86:\n        /* \"#utility.yul\":2915:2925   */\n      0x00\n        /* \"#utility.yul\":2936:2982   */\n      tag_125\n        /* \"#utility.yul\":2978:2981   */\n      dup4\n        /* \"#utility.yul\":2970:2976   */\n      dup4\n        /* \"#utility.yul\":2936:2982   */\n      tag_85\n      jump\t// in\n    tag_125:\n        /* \"#utility.yul\":3014:3018   */\n      0x20\n        /* \"#utility.yul\":3009:3012   */\n      dup4\n        /* \"#utility.yul\":3005:3019   */\n      add\n        /* \"#utility.yul\":2991:3019   */\n      swap1\n      pop\n        /* \"#utility.yul\":2846:3025   */\n      swap3\n      swap2\n      pop\n      pop\n      jump\t// out\n        /* \"#utility.yul\":3031:3144   */\n    tag_87:\n        /* \"#utility.yul\":3101:3105   */\n      0x00\n        /* \"#utility.yul\":3133:3137   */\n      0x20\n        /* \"#utility.yul\":3128:3131   */\n      dup3\n        /* \"#utility.yul\":3124:3138   */\n      add\n        /* \"#utility.yul\":3116:3138   */\n      swap1\n      pop\n        /* \"#utility.yul\":3031:3144   */\n      swap2\n      swap1\n      pop\n      jump\t// out\n        /* \"#utility.yul\":3180:3912   */\n    tag_88:\n        /* \"#utility.yul\":3299:3302   */\n      0x00\n        /* \"#utility.yul\":3328:3382   */\n      tag_128\n        /* \"#utility.yul\":3376:3381   */\n      dup3\n        /* \"#utility.yul\":3328:3382   */\n      tag_82\n      jump\t// in\n    tag_128:\n        /* \"#utility.yul\":3398:3484   */\n      tag_129\n        /* \"#utility.yul\":3477:3483   */\n      dup2\n        /* \"#utility.yul\":3472:3475   */\n      dup6\n        /* \"#utility.yul\":3398:3484   */\n      tag_83\n      jump\t// in\n    tag_129:\n        /* \"#utility.yul\":3391:3484   */\n      swap4\n      pop\n        /* \"#utility.yul\":3508:3564   */\n      tag_130\n        /* \"#utility.yul\":3558:3563   */\n      dup4\n        /* \"#utility.yul\":3508:3564   */\n      tag_84\n      jump\t// in\n    tag_130:\n        /* \"#utility.yul\":3587:3594   */\n      dup1\n        /* \"#utility.yul\":3618:3619   */\n      0x00\n        /* \"#utility.yul\":3603:3887   */\n    tag_131:\n        /* \"#utility.yul\":3628:3634   */\n      dup4\n        /* \"#utility.yul\":3625:3626   */\n      dup2\n        /* \"#utility.yul\":3622:3635   */\n      lt\n        /* \"#utility.yul\":3603:3887   */\n      iszero\n      tag_133\n      jumpi\n        /* \"#utility.yul\":3704:3710   */\n      dup2\n        /* \"#utility.yul\":3698:3711   */\n      mload\n        /* \"#utility.yul\":3731:3794   */\n      tag_134\n        /* \"#utility.yul\":3790:3793   */\n      dup9\n        /* \"#utility.yul\":3775:3788   */\n      dup3\n        /* \"#utility.yul\":3731:3794   */\n      tag_86\n      jump\t// in\n    tag_134:\n        /* \"#utility.yul\":3724:3794   */\n      swap8\n      pop\n        /* \"#utility.yul\":3817:3877   */\n      tag_135\n        /* \"#utility.yul\":3870:3876   */\n      dup4\n        /* \"#utility.yul\":3817:3877   */\n      tag_87\n      jump\t// in\n    tag_135:\n        /* \"#utility.yul\":3807:3877   */\n      swap3\n      pop\n        /* \"#utility.yul\":3663:3887   */\n      pop\n        /* \"#utility.yul\":3650:3651   */\n      0x01\n        /* \"#utility.yul\":3647:3648   */\n      dup2\n        /* \"#utility.yul\":3643:3652   */\n      add\n        /* \"#utility.yul\":3638:3652   */\n      swap1\n      pop\n        /* \"#utility.yul\":3603:3887   */\n      jump(tag_131)\n    tag_133:\n        /* \"#utility.yul\":3607:3621   */\n      pop\n        /* \"#utility.yul\":3903:3906   */\n      dup6\n        /* \"#utility.yul\":3896:3906   */\n      swap4\n      pop\n        /* \"#utility.yul\":3304:3912   */\n      pop\n      pop\n      pop\n        /* \"#utility.yul\":3180:3912   */\n      swap3\n      swap2\n      pop\n      pop\n      jump\t// out\n        /* \"#utility.yul\":3918:4291   */\n    tag_38:\n        /* \"#utility.yul\":4061:4065   */\n      0x00\n        /* \"#utility.yul\":4099:4101   */\n      0x20\n        /* \"#utility.yul\":4088:4097   */\n      dup3\n        /* \"#utility.yul\":4084:4102   */\n      add\n        /* \"#utility.yul\":4076:4102   */\n      swap1\n      pop\n        /* \"#utility.yul\":4148:4157   */\n      dup2\n        /* \"#utility.yul\":4142:4146   */\n      dup2\n        /* \"#utility.yul\":4138:4158   */\n      sub\n        /* \"#utility.yul\":4134:4135   */\n      0x00\n        /* \"#utility.yul\":4123:4132   */\n      dup4\n        /* \"#utility.yul\":4119:4136   */\n      add\n        /* \"#utility.yul\":4112:4159   */\n      mstore\n        /* \"#utility.yul\":4176:4284   */\n      tag_137\n        /* \"#utility.yul\":4279:4283   */\n      dup2\n        /* \"#utility.yul\":4270:4276   */\n      dup5\n        /* \"#utility.yul\":4176:4284   */\n      tag_88\n      jump\t// in\n    tag_137:\n        /* \"#utility.yul\":4168:4284   */\n      swap1\n      pop\n        /* \"#utility.yul\":3918:4291   */\n      swap3\n      swap2\n      pop\n      pop\n      jump\t// out\n        /* \"#utility.yul\":4297:4477   */\n    tag_89:\n        /* \"#utility.yul\":4345:4422   */\n      0x4e487b7100000000000000000000000000000000000000000000000000000000\n        /* \"#utility.yul\":4342:4343   */\n      0x00\n        /* \"#utility.yul\":4335:4423   */\n      mstore\n        /* \"#utility.yul\":4442:4446   */\n      0x11\n        /* \"#utility.yul\":4439:4440   */\n      0x04\n        /* \"#utility.yul\":4432:4447   */\n      mstore\n        /* \"#utility.yul\":4466:4470   */\n      0x24\n        /* \"#utility.yul\":4463:4464   */\n      0x00\n        /* \"#utility.yul\":4456:4471   */\n      revert\n        /* \"#utility.yul\":4483:4674   */\n    tag_50:\n        /* \"#utility.yul\":4523:4526   */\n      0x00\n        /* \"#utility.yul\":4542:4562   */\n      tag_140\n        /* \"#utility.yul\":4560:4561   */\n      dup3\n        /* \"#utility.yul\":4542:4562   */\n      tag_73\n      jump\t// in\n    tag_140:\n        /* \"#utility.yul\":4537:4562   */\n      swap2\n      pop\n        /* \"#utility.yul\":4576:4596   */\n      tag_141\n        /* \"#utility.yul\":4594:4595   */\n      dup4\n        /* \"#utility.yul\":4576:4596   */\n      tag_73\n      jump\t// in\n    tag_141:\n        /* \"#utility.yul\":4571:4596   */\n      swap3\n      pop\n        /* \"#utility.yul\":4619:4620   */\n      dup3\n        /* \"#utility.yul\":4616:4617   */\n      dup3\n        /* \"#utility.yul\":4612:4621   */\n      add\n        /* \"#utility.yul\":4605:4621   */\n      swap1\n      pop\n        /* \"#utility.yul\":4640:4643   */\n      dup1\n        /* \"#utility.yul\":4637:4638   */\n      dup3\n        /* \"#utility.yul\":4634:4644   */\n      gt\n        /* \"#utility.yul\":4631:4667   */\n      iszero\n      tag_142\n      jumpi\n        /* \"#utility.yul\":4647:4665   */\n      tag_143\n      tag_89\n      jump\t// in\n    tag_143:\n        /* \"#utility.yul\":4631:4667   */\n    tag_142:\n        /* \"#utility.yul\":4483:4674   */\n      swap3\n      swap2\n      pop\n      pop\n      jump\t// out\n        /* \"#utility.yul\":4680:4913   */\n    tag_56:\n        /* \"#utility.yul\":4719:4722   */\n      0x00\n        /* \"#utility.yul\":4742:4766   */\n      tag_145\n        /* \"#utility.yul\":4760:4765   */\n      dup3\n        /* \"#utility.yul\":4742:4766   */\n      tag_73\n      jump\t// in\n    tag_145:\n        /* \"#utility.yul\":4733:4766   */\n      swap2\n      pop\n        /* \"#utility.yul\":4788:4854   */\n      0xffffffffffffffffffffffffffffffffffffffffffffffffffffffffffffffff\n        /* \"#utility.yul\":4781:4786   */\n      dup3\n        /* \"#utility.yul\":4778:4855   */\n      sub\n        /* \"#utility.yul\":4775:4878   */\n      tag_146\n      jumpi\n        /* \"#utility.yul\":4858:4876   */\n      tag_147\n      tag_89\n      jump\t// in\n    tag_147:\n        /* \"#utility.yul\":4775:4878   */\n    tag_146:\n        /* \"#utility.yul\":4905:4906   */\n      0x01\n        /* \"#utility.yul\":4898:4903   */\n      dup3\n        /* \"#utility.yul\":4894:4907   */\n      add\n        /* \"#utility.yul\":4887:4907   */\n      swap1\n      pop\n        /* \"#utility.yul\":4680:4913   */\n      swap2\n      swap1\n      pop\n      jump\t// out\n        /* \"#utility.yul\":4919:5099   */\n    tag_90:\n        /* \"#utility.yul\":4967:5044   */\n      0x4e487b7100000000000000000000000000000000000000000000000000000000\n        /* \"#utility.yul\":4964:4965   */\n      0x00\n        /* \"#utility.yul\":4957:5045   */\n      mstore\n        /* \"#utility.yul\":5064:5068   */\n      0x12\n        /* \"#utility.yul\":5061:5062   */\n      0x04\n        /* \"#utility.yul\":5054:5069   */\n      mstore\n        /* \"#utility.yul\":5088:5092   */\n      0x24\n        /* \"#utility.yul\":5085:5086   */\n      0x00\n        /* \"#utility.yul\":5078:5093   */\n      revert\n        /* \"#utility.yul\":5105:5281   */\n    tag_64:\n        /* \"#utility.yul\":5137:5138   */\n      0x00\n        /* \"#utility.yul\":5154:5174   */\n      tag_150\n        /* \"#utility.yul\":5172:5173   */\n      dup3\n        /* \"#utility.yul\":5154:5174   */\n      tag_73\n      jump\t// in\n    tag_150:\n        /* \"#utility.yul\":5149:5174   */\n      swap2\n      pop\n        /* \"#utility.yul\":5188:5208   */\n      tag_151\n        /* \"#utility.yul\":5206:5207   */\n      dup4\n        /* \"#utility.yul\":5188:5208   */\n      tag_73\n      jump\t// in\n    tag_151:\n        /* \"#utility.yul\":5183:5208   */\n      swap3\n      pop\n        /* \"#utility.yul\":5227:5228   */\n      dup3\n        /* \"#utility.yul\":5217:5252   */\n      tag_152\n      jumpi\n        /* \"#utility.yul\":5232:5250   */\n      tag_153\n      tag_90\n      jump\t// in\n    tag_153:\n        /* \"#utility.yul\":5217:5252   */\n    tag_152:\n        /* \"#utility.yul\":5273:5274   */\n      dup3\n        /* \"#utility.yul\":5270:5271   */\n      dup3\n        /* \"#utility.yul\":5266:5275   */\n      mod\n        /* \"#utility.yul\":5261:5275   */\n      swap1\n      pop\n        /* \"#utility.yul\":5105:5281   */\n      swap3\n      swap2\n      pop\n      pop\n      jump\t// out\n\n    auxdata: 0xa2646970667358221220380c2938b90733690de4390096e14f2fc2a1430c438fc2eb04cfa0f53bfe773664736f6c634300081a0033\n}\n",
				"bytecode": {
					"linkReferences": {},
					"object": "6080604052348015600e575f80fd5b506106498061001c5f395ff3fe608060405234801561000f575f80fd5b506004361061007b575f3560e01c80636cc99ad5116100595780636cc99ad5146100d757806371e5ee5f146100f3578063939b676714610123578063d504ea1d146101535761007b565b806315d4266c1461007f5780633b9eac4b1461009d578063669e48aa146100bb575b5f80fd5b610087610171565b6040516100949190610355565b60405180910390f35b6100a5610177565b6040516100b29190610355565b60405180910390f35b6100d560048036038101906100d0919061039c565b61017c565b005b6100f160048036038101906100ec919061039c565b61018d565b005b61010d600480360381019061010891906103da565b610241565b60405161011a9190610355565b60405180910390f35b61013d6004803603810190610138919061039c565b610261565b60405161014a919061041f565b60405180910390f35b61015b6102ae565b60405161016891906104ef565b60405180910390f35b60015481565b5f5481565b815f81905550806001819055505050565b60025f61019a9190610304565b5f8290505b8181101561023c575f6001826101b5919061053c565b90505b82811161022e576101c98282610261565b1561021b57600282908060018154018082558091505060019003905f5260205f20015f9091909190915055600281908060018154018082558091505060019003905f5260205f20015f90919091909150555b80806102269061056f565b9150506101b8565b50808060010191505061019f565b505050565b60028181548110610250575f80fd5b905f5260205f20015f915090505481565b5f808390505f8390508082111561027d57808280925081935050505b5b5f81146102a0575f819050818361029591906105e3565b91508092505061027e565b600182149250505092915050565b606060028054806020026020016040519081016040528092919081815260200182805480156102fa57602002820191905f5260205f20905b8154815260200190600101908083116102e6575b5050505050905090565b5080545f8255905f5260205f209081019061031f9190610322565b50565b5b80821115610339575f815f905550600101610323565b5090565b5f819050919050565b61034f8161033d565b82525050565b5f6020820190506103685f830184610346565b92915050565b5f80fd5b61037b8161033d565b8114610385575f80fd5b50565b5f8135905061039681610372565b92915050565b5f80604083850312156103b2576103b161036e565b5b5f6103bf85828601610388565b92505060206103d085828601610388565b9150509250929050565b5f602082840312156103ef576103ee61036e565b5b5f6103fc84828501610388565b91505092915050565b5f8115159050919050565b61041981610405565b82525050565b5f6020820190506104325f830184610410565b92915050565b5f81519050919050565b5f82825260208201905092915050565b5f819050602082019050919050565b61046a8161033d565b82525050565b5f61047b8383610461565b60208301905092915050565b5f602082019050919050565b5f61049d82610438565b6104a78185610442565b93506104b283610452565b805f5b838110156104e25781516104c98882610470565b97506104d483610487565b9250506001810190506104b5565b5085935050505092915050565b5f6020820190508181035f8301526105078184610493565b905092915050565b7f4e487b71000000000000000000000000000000000000000000000000000000005f52601160045260245ffd5b5f6105468261033d565b91506105518361033d565b92508282019050808211156105695761056861050f565b5b92915050565b5f6105798261033d565b91507fffffffffffffffffffffffffffffffffffffffffffffffffffffffffffffffff82036105ab576105aa61050f565b5b600182019050919050565b7f4e487b71000000000000000000000000000000000000000000000000000000005f52601260045260245ffd5b5f6105ed8261033d565b91506105f88361033d565b925082610608576106076105b6565b5b82820690509291505056fea2646970667358221220380c2938b90733690de4390096e14f2fc2a1430c438fc2eb04cfa0f53bfe773664736f6c634300081a0033",
					"opcodes": "PUSH1 0x80 PUSH1 0x40 MSTORE CALLVALUE DUP1 ISZERO PUSH1 0xE JUMPI PUSH0 DUP1 REVERT JUMPDEST POP PUSH2 0x649 DUP1 PUSH2 0x1C PUSH0 CODECOPY PUSH0 RETURN INVALID PUSH1 0x80 PUSH1 0x40 MSTORE CALLVALUE DUP1 ISZERO PUSH2 0xF JUMPI PUSH0 DUP1 REVERT JUMPDEST POP PUSH1 0x4 CALLDATASIZE LT PUSH2 0x7B JUMPI PUSH0 CALLDATALOAD PUSH1 0xE0 SHR DUP1 PUSH4 0x6CC99AD5 GT PUSH2 0x59 JUMPI DUP1 PUSH4 0x6CC99AD5 EQ PUSH2 0xD7 JUMPI DUP1 PUSH4 0x71E5EE5F EQ PUSH2 0xF3 JUMPI DUP1 PUSH4 0x939B6767 EQ PUSH2 0x123 JUMPI DUP1 PUSH4 0xD504EA1D EQ PUSH2 0x153 JUMPI PUSH2 0x7B JUMP JUMPDEST DUP1 PUSH4 0x15D4266C EQ PUSH2 0x7F JUMPI DUP1 PUSH4 0x3B9EAC4B EQ PUSH2 0x9D JUMPI DUP1 PUSH4 0x669E48AA EQ PUSH2 0xBB JUMPI JUMPDEST PUSH0 DUP1 REVERT JUMPDEST PUSH2 0x87 PUSH2 0x171 JUMP JUMPDEST PUSH1 0x40 MLOAD PUSH2 0x94 SWAP2 SWAP1 PUSH2 0x355 JUMP JUMPDEST PUSH1 0x40 MLOAD DUP1 SWAP2 SUB SWAP1 RETURN JUMPDEST PUSH2 0xA5 PUSH2 0x177 JUMP JUMPDEST PUSH1 0x40 MLOAD PUSH2 0xB2 SWAP2 SWAP1 PUSH2 0x355 JUMP JUMPDEST PUSH1 0x40 MLOAD DUP1 SWAP2 SUB SWAP1 RETURN JUMPDEST PUSH2 0xD5 PUSH1 0x4 DUP1 CALLDATASIZE SUB DUP2 ADD SWAP1 PUSH2 0xD0 SWAP2 SWAP1 PUSH2 0x39C JUMP JUMPDEST PUSH2 0x17C JUMP JUMPDEST STOP JUMPDEST PUSH2 0xF1 PUSH1 0x4 DUP1 CALLDATASIZE SUB DUP2 ADD SWAP1 PUSH2 0xEC SWAP2 SWAP1 PUSH2 0x39C JUMP JUMPDEST PUSH2 0x18D JUMP JUMPDEST STOP JUMPDEST PUSH2 0x10D PUSH1 0x4 DUP1 CALLDATASIZE SUB DUP2 ADD SWAP1 PUSH2 0x108 SWAP2 SWAP1 PUSH2 0x3DA JUMP JUMPDEST PUSH2 0x241 JUMP JUMPDEST PUSH1 0x40 MLOAD PUSH2 0x11A SWAP2 SWAP1 PUSH2 0x355 JUMP JUMPDEST PUSH1 0x40 MLOAD DUP1 SWAP2 SUB SWAP1 RETURN JUMPDEST PUSH2 0x13D PUSH1 0x4 DUP1 CALLDATASIZE SUB DUP2 ADD SWAP1 PUSH2 0x138 SWAP2 SWAP1 PUSH2 0x39C JUMP JUMPDEST PUSH2 0x261 JUMP JUMPDEST PUSH1 0x40 MLOAD PUSH2 0x14A SWAP2 SWAP1 PUSH2 0x41F JUMP JUMPDEST PUSH1 0x40 MLOAD DUP1 SWAP2 SUB SWAP1 RETURN JUMPDEST PUSH2 0x15B PUSH2 0x2AE JUMP JUMPDEST PUSH1 0x40 MLOAD PUSH2 0x168 SWAP2 SWAP1 PUSH2 0x4EF JUMP JUMPDEST PUSH1 0x40 MLOAD DUP1 SWAP2 SUB SWAP1 RETURN JUMPDEST PUSH1 0x1 SLOAD DUP2 JUMP JUMPDEST PUSH0 SLOAD DUP2 JUMP JUMPDEST DUP2 PUSH0 DUP2 SWAP1 SSTORE POP DUP1 PUSH1 0x1 DUP2 SWAP1 SSTORE POP POP POP JUMP JUMPDEST PUSH1 0x2 PUSH0 PUSH2 0x19A SWAP2 SWAP1 PUSH2 0x304 JUMP JUMPDEST PUSH0 DUP3 SWAP1 POP JUMPDEST DUP2 DUP2 LT ISZERO PUSH2 0x23C JUMPI PUSH0 PUSH1 0x1 DUP3 PUSH2 0x1B5 SWAP2 SWAP1 PUSH2 0x53C JUMP JUMPDEST SWAP1 POP JUMPDEST DUP3 DUP2 GT PUSH2 0x22E JUMPI PUSH2 0x1C9 DUP3 DUP3 PUSH2 0x261 JUMP JUMPDEST ISZERO PUSH2 0x21B JUMPI PUSH1 0x2 DUP3 SWAP1 DUP1 PUSH1 0x1 DUP2 SLOAD ADD DUP1 DUP3 SSTORE DUP1 SWAP2 POP POP PUSH1 0x1 SWAP1 SUB SWAP1 PUSH0 MSTORE PUSH1 0x20 PUSH0 KECCAK256 ADD PUSH0 SWAP1 SWAP2 SWAP1 SWAP2 SWAP1 SWAP2 POP SSTORE PUSH1 0x2 DUP2 SWAP1 DUP1 PUSH1 0x1 DUP2 SLOAD ADD DUP1 DUP3 SSTORE DUP1 SWAP2 POP POP PUSH1 0x1 SWAP1 SUB SWAP1 PUSH0 MSTORE PUSH1 0x20 PUSH0 KECCAK256 ADD PUSH0 SWAP1 SWAP2 SWAP1 SWAP2 SWAP1 SWAP2 POP SSTORE JUMPDEST DUP1 DUP1 PUSH2 0x226 SWAP1 PUSH2 0x56F JUMP JUMPDEST SWAP2 POP POP PUSH2 0x1B8 JUMP JUMPDEST POP DUP1 DUP1 PUSH1 0x1 ADD SWAP2 POP POP PUSH2 0x19F JUMP JUMPDEST POP POP POP JUMP JUMPDEST PUSH1 0x2 DUP2 DUP2 SLOAD DUP2 LT PUSH2 0x250 JUMPI PUSH0 DUP1 REVERT JUMPDEST SWAP1 PUSH0 MSTORE PUSH1 0x20 PUSH0 KECCAK256 ADD PUSH0 SWAP2 POP SWAP1 POP SLOAD DUP2 JUMP JUMPDEST PUSH0 DUP1 DUP4 SWAP1 POP PUSH0 DUP4 SWAP1 POP DUP1 DUP3 GT ISZERO PUSH2 0x27D JUMPI DUP1 DUP3 DUP1 SWAP3 POP DUP2 SWAP4 POP POP POP JUMPDEST JUMPDEST PUSH0 DUP2 EQ PUSH2 0x2A0 JUMPI PUSH0 DUP2 SWAP1 POP DUP2 DUP4 PUSH2 0x295 SWAP2 SWAP1 PUSH2 0x5E3 JUMP JUMPDEST SWAP2 POP DUP1 SWAP3 POP POP PUSH2 0x27E JUMP JUMPDEST PUSH1 0x1 DUP3 EQ SWAP3 POP POP POP SWAP3 SWAP2 POP POP JUMP JUMPDEST PUSH1 0x60 PUSH1 0x2 DUP1 SLOAD DUP1 PUSH1 0x20 MUL PUSH1 0x20 ADD PUSH1 0x40 MLOAD SWAP1 DUP2 ADD PUSH1 0x40 MSTORE DUP1 SWAP3 SWAP2 SWAP1 DUP2 DUP2 MSTORE PUSH1 0x20 ADD DUP3 DUP1 SLOAD DUP1 ISZERO PUSH2 0x2FA JUMPI PUSH1 0x20 MUL DUP3 ADD SWAP2 SWAP1 PUSH0 MSTORE PUSH1 0x20 PUSH0 KECCAK256 SWAP1 JUMPDEST DUP2 SLOAD DUP2 MSTORE PUSH1 0x20 ADD SWAP1 PUSH1 0x1 ADD SWAP1 DUP1 DUP4 GT PUSH2 0x2E6 JUMPI JUMPDEST POP POP POP POP POP SWAP1 POP SWAP1 JUMP JUMPDEST POP DUP1 SLOAD PUSH0 DUP3 SSTORE SWAP1 PUSH0 MSTORE PUSH1 0x20 PUSH0 KECCAK256 SWAP1 DUP2 ADD SWAP1 PUSH2 0x31F SWAP2 SWAP1 PUSH2 0x322 JUMP JUMPDEST POP JUMP JUMPDEST JUMPDEST DUP1 DUP3 GT ISZERO PUSH2 0x339 JUMPI PUSH0 DUP2 PUSH0 SWAP1 SSTORE POP PUSH1 0x1 ADD PUSH2 0x323 JUMP JUMPDEST POP SWAP1 JUMP JUMPDEST PUSH0 DUP2 SWAP1 POP SWAP2 SWAP1 POP JUMP JUMPDEST PUSH2 0x34F DUP2 PUSH2 0x33D JUMP JUMPDEST DUP3 MSTORE POP POP JUMP JUMPDEST PUSH0 PUSH1 0x20 DUP3 ADD SWAP1 POP PUSH2 0x368 PUSH0 DUP4 ADD DUP5 PUSH2 0x346 JUMP JUMPDEST SWAP3 SWAP2 POP POP JUMP JUMPDEST PUSH0 DUP1 REVERT JUMPDEST PUSH2 0x37B DUP2 PUSH2 0x33D JUMP JUMPDEST DUP2 EQ PUSH2 0x385 JUMPI PUSH0 DUP1 REVERT JUMPDEST POP JUMP JUMPDEST PUSH0 DUP2 CALLDATALOAD SWAP1 POP PUSH2 0x396 DUP2 PUSH2 0x372 JUMP JUMPDEST SWAP3 SWAP2 POP POP JUMP JUMPDEST PUSH0 DUP1 PUSH1 0x40 DUP4 DUP6 SUB SLT ISZERO PUSH2 0x3B2 JUMPI PUSH2 0x3B1 PUSH2 0x36E JUMP JUMPDEST JUMPDEST PUSH0 PUSH2 0x3BF DUP6 DUP3 DUP7 ADD PUSH2 0x388 JUMP JUMPDEST SWAP3 POP POP PUSH1 0x20 PUSH2 0x3D0 DUP6 DUP3 DUP7 ADD PUSH2 0x388 JUMP JUMPDEST SWAP2 POP POP SWAP3 POP SWAP3 SWAP1 POP JUMP JUMPDEST PUSH0 PUSH1 0x20 DUP3 DUP5 SUB SLT ISZERO PUSH2 0x3EF JUMPI PUSH2 0x3EE PUSH2 0x36E JUMP JUMPDEST JUMPDEST PUSH0 PUSH2 0x3FC DUP5 DUP3 DUP6 ADD PUSH2 0x388 JUMP JUMPDEST SWAP2 POP POP SWAP3 SWAP2 POP POP JUMP JUMPDEST PUSH0 DUP2 ISZERO ISZERO SWAP1 POP SWAP2 SWAP1 POP JUMP JUMPDEST PUSH2 0x419 DUP2 PUSH2 0x405 JUMP JUMPDEST DUP3 MSTORE POP POP JUMP JUMPDEST PUSH0 PUSH1 0x20 DUP3 ADD SWAP1 POP PUSH2 0x432 PUSH0 DUP4 ADD DUP5 PUSH2 0x410 JUMP JUMPDEST SWAP3 SWAP2 POP POP JUMP JUMPDEST PUSH0 DUP2 MLOAD SWAP1 POP SWAP2 SWAP1 POP JUMP JUMPDEST PUSH0 DUP3 DUP3 MSTORE PUSH1 0x20 DUP3 ADD SWAP1 POP SWAP3 SWAP2 POP POP JUMP JUMPDEST PUSH0 DUP2 SWAP1 POP PUSH1 0x20 DUP3 ADD SWAP1 POP SWAP2 SWAP1 POP JUMP JUMPDEST PUSH2 0x46A DUP2 PUSH2 0x33D JUMP JUMPDEST DUP3 MSTORE POP POP JUMP JUMPDEST PUSH0 PUSH2 0x47B DUP4 DUP4 PUSH2 0x461 JUMP JUMPDEST PUSH1 0x20 DUP4 ADD SWAP1 POP SWAP3 SWAP2 POP POP JUMP JUMPDEST PUSH0 PUSH1 0x20 DUP3 ADD SWAP1 POP SWAP2 SWAP1 POP JUMP JUMPDEST PUSH0 PUSH2 0x49D DUP3 PUSH2 0x438 JUMP JUMPDEST PUSH2 0x4A7 DUP2 DUP6 PUSH2 0x442 JUMP JUMPDEST SWAP4 POP PUSH2 0x4B2 DUP4 PUSH2 0x452 JUMP JUMPDEST DUP1 PUSH0 JUMPDEST DUP4 DUP2 LT ISZERO PUSH2 0x4E2 JUMPI DUP2 MLOAD PUSH2 0x4C9 DUP9 DUP3 PUSH2 0x470 JUMP JUMPDEST SWAP8 POP PUSH2 0x4D4 DUP4 PUSH2 0x487 JUMP JUMPDEST SWAP3 POP POP PUSH1 0x1 DUP2 ADD SWAP1 POP PUSH2 0x4B5 JUMP JUMPDEST POP DUP6 SWAP4 POP POP POP POP SWAP3 SWAP2 POP POP JUMP JUMPDEST PUSH0 PUSH1 0x20 DUP3 ADD SWAP1 POP DUP2 DUP2 SUB PUSH0 DUP4 ADD MSTORE PUSH2 0x507 DUP2 DUP5 PUSH2 0x493 JUMP JUMPDEST SWAP1 POP SWAP3 SWAP2 POP POP JUMP JUMPDEST PUSH32 0x4E487B7100000000000000000000000000000000000000000000000000000000 PUSH0 MSTORE PUSH1 0x11 PUSH1 0x4 MSTORE PUSH1 0x24 PUSH0 REVERT JUMPDEST PUSH0 PUSH2 0x546 DUP3 PUSH2 0x33D JUMP JUMPDEST SWAP2 POP PUSH2 0x551 DUP4 PUSH2 0x33D JUMP JUMPDEST SWAP3 POP DUP3 DUP3 ADD SWAP1 POP DUP1 DUP3 GT ISZERO PUSH2 0x569 JUMPI PUSH2 0x568 PUSH2 0x50F JUMP JUMPDEST JUMPDEST SWAP3 SWAP2 POP POP JUMP JUMPDEST PUSH0 PUSH2 0x579 DUP3 PUSH2 0x33D JUMP JUMPDEST SWAP2 POP PUSH32 0xFFFFFFFFFFFFFFFFFFFFFFFFFFFFFFFFFFFFFFFFFFFFFFFFFFFFFFFFFFFFFFFF DUP3 SUB PUSH2 0x5AB JUMPI PUSH2 0x5AA PUSH2 0x50F JUMP JUMPDEST JUMPDEST PUSH1 0x1 DUP3 ADD SWAP1 POP SWAP2 SWAP1 POP JUMP JUMPDEST PUSH32 0x4E487B7100000000000000000000000000000000000000000000000000000000 PUSH0 MSTORE PUSH1 0x12 PUSH1 0x4 MSTORE PUSH1 0x24 PUSH0 REVERT JUMPDEST PUSH0 PUSH2 0x5ED DUP3 PUSH2 0x33D JUMP JUMPDEST SWAP2 POP PUSH2 0x5F8 DUP4 PUSH2 0x33D JUMP JUMPDEST SWAP3 POP DUP3 PUSH2 0x608 JUMPI PUSH2 0x607 PUSH2 0x5B6 JUMP JUMPDEST JUMPDEST DUP3 DUP3 MOD SWAP1 POP SWAP3 SWAP2 POP POP JUMP INVALID LOG2 PUSH5 0x6970667358 0x22 SLT KECCAK256 CODESIZE 0xC 0x29 CODESIZE 0xB9 SMOD CALLER PUSH10 0xDE4390096E14F2FC2A1 NUMBER 0xC NUMBER DUP16 0xC2 0xEB DIV 0xCF LOG0 CREATE2 EXTCODESIZE INVALID PUSH24 0x3664736F6C634300081A0033000000000000000000000000 "
				},
				"gasEstimates": {
					"creation": {
						"codeDepositCost": "321800",
						"executionCost": "360",
						"totalCost": "322160"
					},
					"external": {
						"arr(uint256)": "infinite",
						"checkRange(uint256,uint256)": "infinite",
						"checkcoprime(uint256,uint256)": "infinite",
						"get(uint256,uint256)": "infinite",
						"getArray()": "infinite",
						"num1()": "2447",
						"num2()": "2426"
					}
				},
				"methodIdentifiers": {
					"arr(uint256)": "71e5ee5f",
					"checkRange(uint256,uint256)": "6cc99ad5",
					"checkcoprime(uint256,uint256)": "939b6767",
					"get(uint256,uint256)": "669e48aa",
					"getArray()": "d504ea1d",
					"num1()": "3b9eac4b",
					"num2()": "15d4266c"
				}
			},
			"storageLayout": {
				"storage": [
					{
						"astId": 3,
						"contract": "contracts/DAY4/p2.sol:coprime",
						"label": "num1",
						"offset": 0,
						"slot": "0",
						"type": "t_uint256"
					},
					{
						"astId": 5,
						"contract": "contracts/DAY4/p2.sol:coprime",
						"label": "num2",
						"offset": 0,
						"slot": "1",
						"type": "t_uint256"
					},
					{
						"astId": 8,
						"contract": "contracts/DAY4/p2.sol:coprime",
						"label": "arr",
						"offset": 0,
						"slot": "2",
						"type": "t_array(t_uint256)dyn_storage"
					}
				],
				"types": {
					"t_array(t_uint256)dyn_storage": {
						"base": "t_uint256",
						"encoding": "dynamic_array",
						"label": "uint256[]",
						"numberOfBytes": "32"
					},
					"t_uint256": {
						"encoding": "inplace",
						"label": "uint256",
						"numberOfBytes": "32"
					}
				}
			},
			"userdoc": {
				"kind": "user",
				"methods": {},
				"version": 1
			}
		}
	}
}