{
	"contracts/DAY4/p2.sol": {
		"CoprimeChecker": {
			"abi": [
				{
					"inputs": [
						{
							"internalType": "uint256[]",
							"name": "rollNumbers",
							"type": "uint256[]"
						}
					],
					"name": "checkCoprime",
					"outputs": [
						{
							"internalType": "string",
							"name": "",
							"type": "string"
						}
					],
					"stateMutability": "pure",
					"type": "function"
				}
			],
			"devdoc": {
				"kind": "dev",
				"methods": {},
				"version": 1
			},
			"evm": {
				"assembly": "    /* \"contracts/DAY4/p2.sol\":60:1029  contract CoprimeChecker {... */\n  mstore(0x40, 0x80)\n  callvalue\n  dup1\n  iszero\n  tag_1\n  jumpi\n  0x00\n  dup1\n  revert\ntag_1:\n  pop\n  dataSize(sub_0)\n  dup1\n  dataOffset(sub_0)\n  0x00\n  codecopy\n  0x00\n  return\nstop\n\nsub_0: assembly {\n        /* \"contracts/DAY4/p2.sol\":60:1029  contract CoprimeChecker {... */\n      mstore(0x40, 0x80)\n      callvalue\n      dup1\n      iszero\n      tag_1\n      jumpi\n      0x00\n      dup1\n      revert\n    tag_1:\n      pop\n      jumpi(tag_2, lt(calldatasize, 0x04))\n      shr(0xe0, calldataload(0x00))\n      dup1\n      0x250127ec\n      eq\n      tag_3\n      jumpi\n    tag_2:\n      0x00\n      dup1\n      revert\n        /* \"contracts/DAY4/p2.sol\":308:1026  function checkCoprime(uint[] memory rollNumbers) public pure returns (string memory) {... */\n    tag_3:\n      tag_4\n      0x04\n      dup1\n      calldatasize\n      sub\n      dup2\n      add\n      swap1\n      tag_5\n      swap2\n      swap1\n      tag_6\n      jump\t// in\n    tag_5:\n      tag_7\n      jump\t// in\n    tag_4:\n      mload(0x40)\n      tag_8\n      swap2\n      swap1\n      tag_9\n      jump\t// in\n    tag_8:\n      mload(0x40)\n      dup1\n      swap2\n      sub\n      swap1\n      return\n    tag_7:\n        /* \"contracts/DAY4/p2.sol\":378:391  string memory */\n      0x60\n        /* \"contracts/DAY4/p2.sol\":404:412  uint len */\n      0x00\n        /* \"contracts/DAY4/p2.sol\":415:426  rollNumbers */\n      dup3\n        /* \"contracts/DAY4/p2.sol\":415:433  rollNumbers.length */\n      mload\n        /* \"contracts/DAY4/p2.sol\":404:433  uint len = rollNumbers.length */\n      swap1\n      pop\n        /* \"contracts/DAY4/p2.sol\":525:531  uint i */\n      0x00\n        /* \"contracts/DAY4/p2.sol\":520:965  for (uint i = 0; i < len; i++) {... */\n    tag_11:\n        /* \"contracts/DAY4/p2.sol\":541:544  len */\n      dup2\n        /* \"contracts/DAY4/p2.sol\":537:538  i */\n      dup2\n        /* \"contracts/DAY4/p2.sol\":537:544  i < len */\n      lt\n        /* \"contracts/DAY4/p2.sol\":520:965  for (uint i = 0; i < len; i++) {... */\n      iszero\n      tag_12\n      jumpi\n        /* \"contracts/DAY4/p2.sol\":571:577  uint j */\n      0x00\n        /* \"contracts/DAY4/p2.sol\":584:585  1 */\n      0x01\n        /* \"contracts/DAY4/p2.sol\":580:581  i */\n      dup3\n        /* \"contracts/DAY4/p2.sol\":580:585  i + 1 */\n      tag_17\n      swap2\n      swap1\n      tag_18\n      jump\t// in\n    tag_17:\n        /* \"contracts/DAY4/p2.sol\":571:585  uint j = i + 1 */\n      swap1\n      pop\n        /* \"contracts/DAY4/p2.sol\":566:954  for (uint j = i + 1; j < len; j++) {... */\n    tag_14:\n        /* \"contracts/DAY4/p2.sol\":591:594  len */\n      dup3\n        /* \"contracts/DAY4/p2.sol\":587:588  j */\n      dup2\n        /* \"contracts/DAY4/p2.sol\":587:594  j < len */\n      lt\n        /* \"contracts/DAY4/p2.sol\":566:954  for (uint j = i + 1; j < len; j++) {... */\n      iszero\n      tag_15\n      jumpi\n        /* \"contracts/DAY4/p2.sol\":620:629  uint num1 */\n      0x00\n        /* \"contracts/DAY4/p2.sol\":632:643  rollNumbers */\n      dup6\n        /* \"contracts/DAY4/p2.sol\":644:645  i */\n      dup4\n        /* \"contracts/DAY4/p2.sol\":632:646  rollNumbers[i] */\n      dup2\n      mload\n      dup2\n      lt\n      tag_19\n      jumpi\n      tag_20\n      tag_21\n      jump\t// in\n    tag_20:\n    tag_19:\n      0x20\n      mul\n      0x20\n      add\n      add\n      mload\n        /* \"contracts/DAY4/p2.sol\":620:646  uint num1 = rollNumbers[i] */\n      swap1\n      pop\n        /* \"contracts/DAY4/p2.sol\":665:674  uint num2 */\n      0x00\n        /* \"contracts/DAY4/p2.sol\":677:688  rollNumbers */\n      dup7\n        /* \"contracts/DAY4/p2.sol\":689:690  j */\n      dup4\n        /* \"contracts/DAY4/p2.sol\":677:691  rollNumbers[j] */\n      dup2\n      mload\n      dup2\n      lt\n      tag_22\n      jumpi\n      tag_23\n      tag_21\n      jump\t// in\n    tag_23:\n    tag_22:\n      0x20\n      mul\n      0x20\n      add\n      add\n      mload\n        /* \"contracts/DAY4/p2.sol\":665:691  uint num2 = rollNumbers[j] */\n      swap1\n      pop\n        /* \"contracts/DAY4/p2.sol\":745:763  uint commonDivisor */\n      0x00\n        /* \"contracts/DAY4/p2.sol\":766:781  gcd(num1, num2) */\n      tag_24\n        /* \"contracts/DAY4/p2.sol\":770:774  num1 */\n      dup4\n        /* \"contracts/DAY4/p2.sol\":776:780  num2 */\n      dup4\n        /* \"contracts/DAY4/p2.sol\":766:769  gcd */\n      tag_25\n        /* \"contracts/DAY4/p2.sol\":766:781  gcd(num1, num2) */\n      jump\t// in\n    tag_24:\n        /* \"contracts/DAY4/p2.sol\":745:781  uint commonDivisor = gcd(num1, num2) */\n      swap1\n      pop\n        /* \"contracts/DAY4/p2.sol\":856:857  1 */\n      0x01\n        /* \"contracts/DAY4/p2.sol\":839:852  commonDivisor */\n      dup2\n        /* \"contracts/DAY4/p2.sol\":839:857  commonDivisor != 1 */\n      eq\n        /* \"contracts/DAY4/p2.sol\":835:939  if (commonDivisor != 1) {... */\n      tag_26\n      jumpi\n        /* \"contracts/DAY4/p2.sol\":882:918  return \"Not All Numbers Are Coprime\" */\n      mload(0x40)\n      dup1\n      0x40\n      add\n      0x40\n      mstore\n      dup1\n      0x1b\n      dup2\n      mstore\n      0x20\n      add\n      0x4e6f7420416c6c204e756d626572732041726520436f7072696d650000000000\n      dup2\n      mstore\n      pop\n      swap7\n      pop\n      pop\n      pop\n      pop\n      pop\n      pop\n      pop\n      jump(tag_10)\n        /* \"contracts/DAY4/p2.sol\":835:939  if (commonDivisor != 1) {... */\n    tag_26:\n        /* \"contracts/DAY4/p2.sol\":601:954  {... */\n      pop\n      pop\n      pop\n        /* \"contracts/DAY4/p2.sol\":596:599  j++ */\n      dup1\n      dup1\n      0x01\n      add\n      swap2\n      pop\n      pop\n        /* \"contracts/DAY4/p2.sol\":566:954  for (uint j = i + 1; j < len; j++) {... */\n      jump(tag_14)\n    tag_15:\n      pop\n        /* \"contracts/DAY4/p2.sol\":546:549  i++ */\n      dup1\n      dup1\n      0x01\n      add\n      swap2\n      pop\n      pop\n        /* \"contracts/DAY4/p2.sol\":520:965  for (uint i = 0; i < len; i++) {... */\n      jump(tag_11)\n    tag_12:\n      pop\n        /* \"contracts/DAY4/p2.sol\":985:1017  return \"All Numbers Are Coprime\" */\n      mload(0x40)\n      dup1\n      0x40\n      add\n      0x40\n      mstore\n      dup1\n      0x17\n      dup2\n      mstore\n      0x20\n      add\n      0x416c6c204e756d626572732041726520436f7072696d65000000000000000000\n      dup2\n      mstore\n      pop\n      swap2\n      pop\n      pop\n        /* \"contracts/DAY4/p2.sol\":308:1026  function checkCoprime(uint[] memory rollNumbers) public pure returns (string memory) {... */\n    tag_10:\n      swap2\n      swap1\n      pop\n      jump\t// out\n        /* \"contracts/DAY4/p2.sol\":98:294  function gcd(uint a, uint b) private pure returns (uint) {... */\n    tag_25:\n        /* \"contracts/DAY4/p2.sol\":149:153  uint */\n      0x00\n        /* \"contracts/DAY4/p2.sol\":166:268  while (b != 0) {... */\n    tag_28:\n        /* \"contracts/DAY4/p2.sol\":178:179  0 */\n      0x00\n        /* \"contracts/DAY4/p2.sol\":173:174  b */\n      dup3\n        /* \"contracts/DAY4/p2.sol\":173:179  b != 0 */\n      eq\n        /* \"contracts/DAY4/p2.sol\":166:268  while (b != 0) {... */\n      tag_29\n      jumpi\n        /* \"contracts/DAY4/p2.sol\":196:205  uint temp */\n      0x00\n        /* \"contracts/DAY4/p2.sol\":208:209  b */\n      dup3\n        /* \"contracts/DAY4/p2.sol\":196:209  uint temp = b */\n      swap1\n      pop\n        /* \"contracts/DAY4/p2.sol\":232:233  b */\n      dup3\n        /* \"contracts/DAY4/p2.sol\":228:229  a */\n      dup5\n        /* \"contracts/DAY4/p2.sol\":228:233  a % b */\n      tag_30\n      swap2\n      swap1\n      tag_31\n      jump\t// in\n    tag_30:\n        /* \"contracts/DAY4/p2.sol\":224:233  b = a % b */\n      swap3\n      pop\n        /* \"contracts/DAY4/p2.sol\":252:256  temp */\n      dup1\n        /* \"contracts/DAY4/p2.sol\":248:256  a = temp */\n      swap4\n      pop\n        /* \"contracts/DAY4/p2.sol\":181:268  {... */\n      pop\n        /* \"contracts/DAY4/p2.sol\":166:268  while (b != 0) {... */\n      jump(tag_28)\n    tag_29:\n        /* \"contracts/DAY4/p2.sol\":285:286  a */\n      dup3\n        /* \"contracts/DAY4/p2.sol\":278:286  return a */\n      swap1\n      pop\n        /* \"contracts/DAY4/p2.sol\":98:294  function gcd(uint a, uint b) private pure returns (uint) {... */\n      swap3\n      swap2\n      pop\n      pop\n      jump\t// out\n        /* \"#utility.yul\":7:82   */\n    tag_32:\n        /* \"#utility.yul\":40:46   */\n      0x00\n        /* \"#utility.yul\":73:75   */\n      0x40\n        /* \"#utility.yul\":67:76   */\n      mload\n        /* \"#utility.yul\":57:76   */\n      swap1\n      pop\n        /* \"#utility.yul\":7:82   */\n      swap1\n      jump\t// out\n        /* \"#utility.yul\":88:205   */\n    tag_33:\n        /* \"#utility.yul\":197:198   */\n      0x00\n        /* \"#utility.yul\":194:195   */\n      dup1\n        /* \"#utility.yul\":187:199   */\n      revert\n        /* \"#utility.yul\":211:328   */\n    tag_34:\n        /* \"#utility.yul\":320:321   */\n      0x00\n        /* \"#utility.yul\":317:318   */\n      dup1\n        /* \"#utility.yul\":310:322   */\n      revert\n        /* \"#utility.yul\":334:451   */\n    tag_35:\n        /* \"#utility.yul\":443:444   */\n      0x00\n        /* \"#utility.yul\":440:441   */\n      dup1\n        /* \"#utility.yul\":433:445   */\n      revert\n        /* \"#utility.yul\":457:559   */\n    tag_36:\n        /* \"#utility.yul\":498:504   */\n      0x00\n        /* \"#utility.yul\":549:551   */\n      0x1f\n        /* \"#utility.yul\":545:552   */\n      not\n        /* \"#utility.yul\":540:542   */\n      0x1f\n        /* \"#utility.yul\":533:538   */\n      dup4\n        /* \"#utility.yul\":529:543   */\n      add\n        /* \"#utility.yul\":525:553   */\n      and\n        /* \"#utility.yul\":515:553   */\n      swap1\n      pop\n        /* \"#utility.yul\":457:559   */\n      swap2\n      swap1\n      pop\n      jump\t// out\n        /* \"#utility.yul\":565:745   */\n    tag_37:\n        /* \"#utility.yul\":613:690   */\n      0x4e487b7100000000000000000000000000000000000000000000000000000000\n        /* \"#utility.yul\":610:611   */\n      0x00\n        /* \"#utility.yul\":603:691   */\n      mstore\n        /* \"#utility.yul\":710:714   */\n      0x41\n        /* \"#utility.yul\":707:708   */\n      0x04\n        /* \"#utility.yul\":700:715   */\n      mstore\n        /* \"#utility.yul\":734:738   */\n      0x24\n        /* \"#utility.yul\":731:732   */\n      0x00\n        /* \"#utility.yul\":724:739   */\n      revert\n        /* \"#utility.yul\":751:1032   */\n    tag_38:\n        /* \"#utility.yul\":834:861   */\n      tag_61\n        /* \"#utility.yul\":856:860   */\n      dup3\n        /* \"#utility.yul\":834:861   */\n      tag_36\n      jump\t// in\n    tag_61:\n        /* \"#utility.yul\":826:832   */\n      dup2\n        /* \"#utility.yul\":822:862   */\n      add\n        /* \"#utility.yul\":964:970   */\n      dup2\n        /* \"#utility.yul\":952:962   */\n      dup2\n        /* \"#utility.yul\":949:971   */\n      lt\n        /* \"#utility.yul\":928:946   */\n      0xffffffffffffffff\n        /* \"#utility.yul\":916:926   */\n      dup3\n        /* \"#utility.yul\":913:947   */\n      gt\n        /* \"#utility.yul\":910:972   */\n      or\n        /* \"#utility.yul\":907:995   */\n      iszero\n      tag_62\n      jumpi\n        /* \"#utility.yul\":975:993   */\n      tag_63\n      tag_37\n      jump\t// in\n    tag_63:\n        /* \"#utility.yul\":907:995   */\n    tag_62:\n        /* \"#utility.yul\":1015:1025   */\n      dup1\n        /* \"#utility.yul\":1011:1013   */\n      0x40\n        /* \"#utility.yul\":1004:1026   */\n      mstore\n        /* \"#utility.yul\":794:1032   */\n      pop\n        /* \"#utility.yul\":751:1032   */\n      pop\n      pop\n      jump\t// out\n        /* \"#utility.yul\":1038:1167   */\n    tag_39:\n        /* \"#utility.yul\":1072:1078   */\n      0x00\n        /* \"#utility.yul\":1099:1119   */\n      tag_65\n      tag_32\n      jump\t// in\n    tag_65:\n        /* \"#utility.yul\":1089:1119   */\n      swap1\n      pop\n        /* \"#utility.yul\":1128:1161   */\n      tag_66\n        /* \"#utility.yul\":1156:1160   */\n      dup3\n        /* \"#utility.yul\":1148:1154   */\n      dup3\n        /* \"#utility.yul\":1128:1161   */\n      tag_38\n      jump\t// in\n    tag_66:\n        /* \"#utility.yul\":1038:1167   */\n      swap2\n      swap1\n      pop\n      jump\t// out\n        /* \"#utility.yul\":1173:1484   */\n    tag_40:\n        /* \"#utility.yul\":1250:1254   */\n      0x00\n        /* \"#utility.yul\":1340:1358   */\n      0xffffffffffffffff\n        /* \"#utility.yul\":1332:1338   */\n      dup3\n        /* \"#utility.yul\":1329:1359   */\n      gt\n        /* \"#utility.yul\":1326:1382   */\n      iszero\n      tag_68\n      jumpi\n        /* \"#utility.yul\":1362:1380   */\n      tag_69\n      tag_37\n      jump\t// in\n    tag_69:\n        /* \"#utility.yul\":1326:1382   */\n    tag_68:\n        /* \"#utility.yul\":1412:1416   */\n      0x20\n        /* \"#utility.yul\":1404:1410   */\n      dup3\n        /* \"#utility.yul\":1400:1417   */\n      mul\n        /* \"#utility.yul\":1392:1417   */\n      swap1\n      pop\n        /* \"#utility.yul\":1472:1476   */\n      0x20\n        /* \"#utility.yul\":1466:1470   */\n      dup2\n        /* \"#utility.yul\":1462:1477   */\n      add\n        /* \"#utility.yul\":1454:1477   */\n      swap1\n      pop\n        /* \"#utility.yul\":1173:1484   */\n      swap2\n      swap1\n      pop\n      jump\t// out\n        /* \"#utility.yul\":1490:1607   */\n    tag_41:\n        /* \"#utility.yul\":1599:1600   */\n      0x00\n        /* \"#utility.yul\":1596:1597   */\n      dup1\n        /* \"#utility.yul\":1589:1601   */\n      revert\n        /* \"#utility.yul\":1613:1690   */\n    tag_42:\n        /* \"#utility.yul\":1650:1657   */\n      0x00\n        /* \"#utility.yul\":1679:1684   */\n      dup2\n        /* \"#utility.yul\":1668:1684   */\n      swap1\n      pop\n        /* \"#utility.yul\":1613:1690   */\n      swap2\n      swap1\n      pop\n      jump\t// out\n        /* \"#utility.yul\":1696:1818   */\n    tag_43:\n        /* \"#utility.yul\":1769:1793   */\n      tag_73\n        /* \"#utility.yul\":1787:1792   */\n      dup2\n        /* \"#utility.yul\":1769:1793   */\n      tag_42\n      jump\t// in\n    tag_73:\n        /* \"#utility.yul\":1762:1767   */\n      dup2\n        /* \"#utility.yul\":1759:1794   */\n      eq\n        /* \"#utility.yul\":1749:1812   */\n      tag_74\n      jumpi\n        /* \"#utility.yul\":1808:1809   */\n      0x00\n        /* \"#utility.yul\":1805:1806   */\n      dup1\n        /* \"#utility.yul\":1798:1810   */\n      revert\n        /* \"#utility.yul\":1749:1812   */\n    tag_74:\n        /* \"#utility.yul\":1696:1818   */\n      pop\n      jump\t// out\n        /* \"#utility.yul\":1824:1963   */\n    tag_44:\n        /* \"#utility.yul\":1870:1875   */\n      0x00\n        /* \"#utility.yul\":1908:1914   */\n      dup2\n        /* \"#utility.yul\":1895:1915   */\n      calldataload\n        /* \"#utility.yul\":1886:1915   */\n      swap1\n      pop\n        /* \"#utility.yul\":1924:1957   */\n      tag_76\n        /* \"#utility.yul\":1951:1956   */\n      dup2\n        /* \"#utility.yul\":1924:1957   */\n      tag_43\n      jump\t// in\n    tag_76:\n        /* \"#utility.yul\":1824:1963   */\n      swap3\n      swap2\n      pop\n      pop\n      jump\t// out\n        /* \"#utility.yul\":1986:2696   */\n    tag_45:\n        /* \"#utility.yul\":2082:2087   */\n      0x00\n        /* \"#utility.yul\":2107:2188   */\n      tag_78\n        /* \"#utility.yul\":2123:2187   */\n      tag_79\n        /* \"#utility.yul\":2180:2186   */\n      dup5\n        /* \"#utility.yul\":2123:2187   */\n      tag_40\n      jump\t// in\n    tag_79:\n        /* \"#utility.yul\":2107:2188   */\n      tag_39\n      jump\t// in\n    tag_78:\n        /* \"#utility.yul\":2098:2188   */\n      swap1\n      pop\n        /* \"#utility.yul\":2208:2213   */\n      dup1\n        /* \"#utility.yul\":2237:2243   */\n      dup4\n        /* \"#utility.yul\":2230:2235   */\n      dup3\n        /* \"#utility.yul\":2223:2244   */\n      mstore\n        /* \"#utility.yul\":2271:2275   */\n      0x20\n        /* \"#utility.yul\":2264:2269   */\n      dup3\n        /* \"#utility.yul\":2260:2276   */\n      add\n        /* \"#utility.yul\":2253:2276   */\n      swap1\n      pop\n        /* \"#utility.yul\":2324:2328   */\n      0x20\n        /* \"#utility.yul\":2316:2322   */\n      dup5\n        /* \"#utility.yul\":2312:2329   */\n      mul\n        /* \"#utility.yul\":2304:2310   */\n      dup4\n        /* \"#utility.yul\":2300:2330   */\n      add\n        /* \"#utility.yul\":2353:2356   */\n      dup6\n        /* \"#utility.yul\":2345:2351   */\n      dup2\n        /* \"#utility.yul\":2342:2357   */\n      gt\n        /* \"#utility.yul\":2339:2461   */\n      iszero\n      tag_80\n      jumpi\n        /* \"#utility.yul\":2372:2451   */\n      tag_81\n      tag_41\n      jump\t// in\n    tag_81:\n        /* \"#utility.yul\":2339:2461   */\n    tag_80:\n        /* \"#utility.yul\":2487:2493   */\n      dup4\n        /* \"#utility.yul\":2470:2690   */\n    tag_82:\n        /* \"#utility.yul\":2504:2510   */\n      dup2\n        /* \"#utility.yul\":2499:2502   */\n      dup2\n        /* \"#utility.yul\":2496:2511   */\n      lt\n        /* \"#utility.yul\":2470:2690   */\n      iszero\n      tag_84\n      jumpi\n        /* \"#utility.yul\":2579:2582   */\n      dup1\n        /* \"#utility.yul\":2608:2645   */\n      tag_85\n        /* \"#utility.yul\":2641:2644   */\n      dup9\n        /* \"#utility.yul\":2629:2639   */\n      dup3\n        /* \"#utility.yul\":2608:2645   */\n      tag_44\n      jump\t// in\n    tag_85:\n        /* \"#utility.yul\":2603:2606   */\n      dup5\n        /* \"#utility.yul\":2596:2646   */\n      mstore\n        /* \"#utility.yul\":2675:2679   */\n      0x20\n        /* \"#utility.yul\":2670:2673   */\n      dup5\n        /* \"#utility.yul\":2666:2680   */\n      add\n        /* \"#utility.yul\":2659:2680   */\n      swap4\n      pop\n        /* \"#utility.yul\":2546:2690   */\n      pop\n        /* \"#utility.yul\":2530:2534   */\n      0x20\n        /* \"#utility.yul\":2525:2528   */\n      dup2\n        /* \"#utility.yul\":2521:2535   */\n      add\n        /* \"#utility.yul\":2514:2535   */\n      swap1\n      pop\n        /* \"#utility.yul\":2470:2690   */\n      jump(tag_82)\n    tag_84:\n        /* \"#utility.yul\":2474:2495   */\n      pop\n        /* \"#utility.yul\":2088:2696   */\n      pop\n      pop\n        /* \"#utility.yul\":1986:2696   */\n      swap4\n      swap3\n      pop\n      pop\n      pop\n      jump\t// out\n        /* \"#utility.yul\":2719:3089   */\n    tag_46:\n        /* \"#utility.yul\":2790:2795   */\n      0x00\n        /* \"#utility.yul\":2839:2842   */\n      dup3\n        /* \"#utility.yul\":2832:2836   */\n      0x1f\n        /* \"#utility.yul\":2824:2830   */\n      dup4\n        /* \"#utility.yul\":2820:2837   */\n      add\n        /* \"#utility.yul\":2816:2843   */\n      slt\n        /* \"#utility.yul\":2806:2928   */\n      tag_87\n      jumpi\n        /* \"#utility.yul\":2847:2926   */\n      tag_88\n      tag_35\n      jump\t// in\n    tag_88:\n        /* \"#utility.yul\":2806:2928   */\n    tag_87:\n        /* \"#utility.yul\":2964:2970   */\n      dup2\n        /* \"#utility.yul\":2951:2971   */\n      calldataload\n        /* \"#utility.yul\":2989:3083   */\n      tag_89\n        /* \"#utility.yul\":3079:3082   */\n      dup5\n        /* \"#utility.yul\":3071:3077   */\n      dup3\n        /* \"#utility.yul\":3064:3068   */\n      0x20\n        /* \"#utility.yul\":3056:3062   */\n      dup7\n        /* \"#utility.yul\":3052:3069   */\n      add\n        /* \"#utility.yul\":2989:3083   */\n      tag_45\n      jump\t// in\n    tag_89:\n        /* \"#utility.yul\":2980:3083   */\n      swap2\n      pop\n        /* \"#utility.yul\":2796:3089   */\n      pop\n        /* \"#utility.yul\":2719:3089   */\n      swap3\n      swap2\n      pop\n      pop\n      jump\t// out\n        /* \"#utility.yul\":3095:3634   */\n    tag_6:\n        /* \"#utility.yul\":3179:3185   */\n      0x00\n        /* \"#utility.yul\":3228:3230   */\n      0x20\n        /* \"#utility.yul\":3216:3225   */\n      dup3\n        /* \"#utility.yul\":3207:3214   */\n      dup5\n        /* \"#utility.yul\":3203:3226   */\n      sub\n        /* \"#utility.yul\":3199:3231   */\n      slt\n        /* \"#utility.yul\":3196:3315   */\n      iszero\n      tag_91\n      jumpi\n        /* \"#utility.yul\":3234:3313   */\n      tag_92\n      tag_33\n      jump\t// in\n    tag_92:\n        /* \"#utility.yul\":3196:3315   */\n    tag_91:\n        /* \"#utility.yul\":3382:3383   */\n      0x00\n        /* \"#utility.yul\":3371:3380   */\n      dup3\n        /* \"#utility.yul\":3367:3384   */\n      add\n        /* \"#utility.yul\":3354:3385   */\n      calldataload\n        /* \"#utility.yul\":3412:3430   */\n      0xffffffffffffffff\n        /* \"#utility.yul\":3404:3410   */\n      dup2\n        /* \"#utility.yul\":3401:3431   */\n      gt\n        /* \"#utility.yul\":3398:3515   */\n      iszero\n      tag_93\n      jumpi\n        /* \"#utility.yul\":3434:3513   */\n      tag_94\n      tag_34\n      jump\t// in\n    tag_94:\n        /* \"#utility.yul\":3398:3515   */\n    tag_93:\n        /* \"#utility.yul\":3539:3617   */\n      tag_95\n        /* \"#utility.yul\":3609:3616   */\n      dup5\n        /* \"#utility.yul\":3600:3606   */\n      dup3\n        /* \"#utility.yul\":3589:3598   */\n      dup6\n        /* \"#utility.yul\":3585:3607   */\n      add\n        /* \"#utility.yul\":3539:3617   */\n      tag_46\n      jump\t// in\n    tag_95:\n        /* \"#utility.yul\":3529:3617   */\n      swap2\n      pop\n        /* \"#utility.yul\":3325:3627   */\n      pop\n        /* \"#utility.yul\":3095:3634   */\n      swap3\n      swap2\n      pop\n      pop\n      jump\t// out\n        /* \"#utility.yul\":3640:3739   */\n    tag_47:\n        /* \"#utility.yul\":3692:3698   */\n      0x00\n        /* \"#utility.yul\":3726:3731   */\n      dup2\n        /* \"#utility.yul\":3720:3732   */\n      mload\n        /* \"#utility.yul\":3710:3732   */\n      swap1\n      pop\n        /* \"#utility.yul\":3640:3739   */\n      swap2\n      swap1\n      pop\n      jump\t// out\n        /* \"#utility.yul\":3745:3914   */\n    tag_48:\n        /* \"#utility.yul\":3829:3840   */\n      0x00\n        /* \"#utility.yul\":3863:3869   */\n      dup3\n        /* \"#utility.yul\":3858:3861   */\n      dup3\n        /* \"#utility.yul\":3851:3870   */\n      mstore\n        /* \"#utility.yul\":3903:3907   */\n      0x20\n        /* \"#utility.yul\":3898:3901   */\n      dup3\n        /* \"#utility.yul\":3894:3908   */\n      add\n        /* \"#utility.yul\":3879:3908   */\n      swap1\n      pop\n        /* \"#utility.yul\":3745:3914   */\n      swap3\n      swap2\n      pop\n      pop\n      jump\t// out\n        /* \"#utility.yul\":3920:4059   */\n    tag_49:\n        /* \"#utility.yul\":4009:4015   */\n      dup3\n        /* \"#utility.yul\":4004:4007   */\n      dup2\n        /* \"#utility.yul\":3999:4002   */\n      dup4\n        /* \"#utility.yul\":3993:4016   */\n      mcopy\n        /* \"#utility.yul\":4050:4051   */\n      0x00\n        /* \"#utility.yul\":4041:4047   */\n      dup4\n        /* \"#utility.yul\":4036:4039   */\n      dup4\n        /* \"#utility.yul\":4032:4048   */\n      add\n        /* \"#utility.yul\":4025:4052   */\n      mstore\n        /* \"#utility.yul\":3920:4059   */\n      pop\n      pop\n      pop\n      jump\t// out\n        /* \"#utility.yul\":4065:4442   */\n    tag_50:\n        /* \"#utility.yul\":4153:4156   */\n      0x00\n        /* \"#utility.yul\":4181:4220   */\n      tag_100\n        /* \"#utility.yul\":4214:4219   */\n      dup3\n        /* \"#utility.yul\":4181:4220   */\n      tag_47\n      jump\t// in\n    tag_100:\n        /* \"#utility.yul\":4236:4307   */\n      tag_101\n        /* \"#utility.yul\":4300:4306   */\n      dup2\n        /* \"#utility.yul\":4295:4298   */\n      dup6\n        /* \"#utility.yul\":4236:4307   */\n      tag_48\n      jump\t// in\n    tag_101:\n        /* \"#utility.yul\":4229:4307   */\n      swap4\n      pop\n        /* \"#utility.yul\":4316:4381   */\n      tag_102\n        /* \"#utility.yul\":4374:4380   */\n      dup2\n        /* \"#utility.yul\":4369:4372   */\n      dup6\n        /* \"#utility.yul\":4362:4366   */\n      0x20\n        /* \"#utility.yul\":4355:4360   */\n      dup7\n        /* \"#utility.yul\":4351:4367   */\n      add\n        /* \"#utility.yul\":4316:4381   */\n      tag_49\n      jump\t// in\n    tag_102:\n        /* \"#utility.yul\":4406:4435   */\n      tag_103\n        /* \"#utility.yul\":4428:4434   */\n      dup2\n        /* \"#utility.yul\":4406:4435   */\n      tag_36\n      jump\t// in\n    tag_103:\n        /* \"#utility.yul\":4401:4404   */\n      dup5\n        /* \"#utility.yul\":4397:4436   */\n      add\n        /* \"#utility.yul\":4390:4436   */\n      swap2\n      pop\n        /* \"#utility.yul\":4157:4442   */\n      pop\n        /* \"#utility.yul\":4065:4442   */\n      swap3\n      swap2\n      pop\n      pop\n      jump\t// out\n        /* \"#utility.yul\":4448:4761   */\n    tag_9:\n        /* \"#utility.yul\":4561:4565   */\n      0x00\n        /* \"#utility.yul\":4599:4601   */\n      0x20\n        /* \"#utility.yul\":4588:4597   */\n      dup3\n        /* \"#utility.yul\":4584:4602   */\n      add\n        /* \"#utility.yul\":4576:4602   */\n      swap1\n      pop\n        /* \"#utility.yul\":4648:4657   */\n      dup2\n        /* \"#utility.yul\":4642:4646   */\n      dup2\n        /* \"#utility.yul\":4638:4658   */\n      sub\n        /* \"#utility.yul\":4634:4635   */\n      0x00\n        /* \"#utility.yul\":4623:4632   */\n      dup4\n        /* \"#utility.yul\":4619:4636   */\n      add\n        /* \"#utility.yul\":4612:4659   */\n      mstore\n        /* \"#utility.yul\":4676:4754   */\n      tag_105\n        /* \"#utility.yul\":4749:4753   */\n      dup2\n        /* \"#utility.yul\":4740:4746   */\n      dup5\n        /* \"#utility.yul\":4676:4754   */\n      tag_50\n      jump\t// in\n    tag_105:\n        /* \"#utility.yul\":4668:4754   */\n      swap1\n      pop\n        /* \"#utility.yul\":4448:4761   */\n      swap3\n      swap2\n      pop\n      pop\n      jump\t// out\n        /* \"#utility.yul\":4767:4947   */\n    tag_51:\n        /* \"#utility.yul\":4815:4892   */\n      0x4e487b7100000000000000000000000000000000000000000000000000000000\n        /* \"#utility.yul\":4812:4813   */\n      0x00\n        /* \"#utility.yul\":4805:4893   */\n      mstore\n        /* \"#utility.yul\":4912:4916   */\n      0x11\n        /* \"#utility.yul\":4909:4910   */\n      0x04\n        /* \"#utility.yul\":4902:4917   */\n      mstore\n        /* \"#utility.yul\":4936:4940   */\n      0x24\n        /* \"#utility.yul\":4933:4934   */\n      0x00\n        /* \"#utility.yul\":4926:4941   */\n      revert\n        /* \"#utility.yul\":4953:5144   */\n    tag_18:\n        /* \"#utility.yul\":4993:4996   */\n      0x00\n        /* \"#utility.yul\":5012:5032   */\n      tag_108\n        /* \"#utility.yul\":5030:5031   */\n      dup3\n        /* \"#utility.yul\":5012:5032   */\n      tag_42\n      jump\t// in\n    tag_108:\n        /* \"#utility.yul\":5007:5032   */\n      swap2\n      pop\n        /* \"#utility.yul\":5046:5066   */\n      tag_109\n        /* \"#utility.yul\":5064:5065   */\n      dup4\n        /* \"#utility.yul\":5046:5066   */\n      tag_42\n      jump\t// in\n    tag_109:\n        /* \"#utility.yul\":5041:5066   */\n      swap3\n      pop\n        /* \"#utility.yul\":5089:5090   */\n      dup3\n        /* \"#utility.yul\":5086:5087   */\n      dup3\n        /* \"#utility.yul\":5082:5091   */\n      add\n        /* \"#utility.yul\":5075:5091   */\n      swap1\n      pop\n        /* \"#utility.yul\":5110:5113   */\n      dup1\n        /* \"#utility.yul\":5107:5108   */\n      dup3\n        /* \"#utility.yul\":5104:5114   */\n      gt\n        /* \"#utility.yul\":5101:5137   */\n      iszero\n      tag_110\n      jumpi\n        /* \"#utility.yul\":5117:5135   */\n      tag_111\n      tag_51\n      jump\t// in\n    tag_111:\n        /* \"#utility.yul\":5101:5137   */\n    tag_110:\n        /* \"#utility.yul\":4953:5144   */\n      swap3\n      swap2\n      pop\n      pop\n      jump\t// out\n        /* \"#utility.yul\":5150:5330   */\n    tag_21:\n        /* \"#utility.yul\":5198:5275   */\n      0x4e487b7100000000000000000000000000000000000000000000000000000000\n        /* \"#utility.yul\":5195:5196   */\n      0x00\n        /* \"#utility.yul\":5188:5276   */\n      mstore\n        /* \"#utility.yul\":5295:5299   */\n      0x32\n        /* \"#utility.yul\":5292:5293   */\n      0x04\n        /* \"#utility.yul\":5285:5300   */\n      mstore\n        /* \"#utility.yul\":5319:5323   */\n      0x24\n        /* \"#utility.yul\":5316:5317   */\n      0x00\n        /* \"#utility.yul\":5309:5324   */\n      revert\n        /* \"#utility.yul\":5336:5516   */\n    tag_52:\n        /* \"#utility.yul\":5384:5461   */\n      0x4e487b7100000000000000000000000000000000000000000000000000000000\n        /* \"#utility.yul\":5381:5382   */\n      0x00\n        /* \"#utility.yul\":5374:5462   */\n      mstore\n        /* \"#utility.yul\":5481:5485   */\n      0x12\n        /* \"#utility.yul\":5478:5479   */\n      0x04\n        /* \"#utility.yul\":5471:5486   */\n      mstore\n        /* \"#utility.yul\":5505:5509   */\n      0x24\n        /* \"#utility.yul\":5502:5503   */\n      0x00\n        /* \"#utility.yul\":5495:5510   */\n      revert\n        /* \"#utility.yul\":5522:5698   */\n    tag_31:\n        /* \"#utility.yul\":5554:5555   */\n      0x00\n        /* \"#utility.yul\":5571:5591   */\n      tag_115\n        /* \"#utility.yul\":5589:5590   */\n      dup3\n        /* \"#utility.yul\":5571:5591   */\n      tag_42\n      jump\t// in\n    tag_115:\n        /* \"#utility.yul\":5566:5591   */\n      swap2\n      pop\n        /* \"#utility.yul\":5605:5625   */\n      tag_116\n        /* \"#utility.yul\":5623:5624   */\n      dup4\n        /* \"#utility.yul\":5605:5625   */\n      tag_42\n      jump\t// in\n    tag_116:\n        /* \"#utility.yul\":5600:5625   */\n      swap3\n      pop\n        /* \"#utility.yul\":5644:5645   */\n      dup3\n        /* \"#utility.yul\":5634:5669   */\n      tag_117\n      jumpi\n        /* \"#utility.yul\":5649:5667   */\n      tag_118\n      tag_52\n      jump\t// in\n    tag_118:\n        /* \"#utility.yul\":5634:5669   */\n    tag_117:\n        /* \"#utility.yul\":5690:5691   */\n      dup3\n        /* \"#utility.yul\":5687:5688   */\n      dup3\n        /* \"#utility.yul\":5683:5692   */\n      mod\n        /* \"#utility.yul\":5678:5692   */\n      swap1\n      pop\n        /* \"#utility.yul\":5522:5698   */\n      swap3\n      swap2\n      pop\n      pop\n      jump\t// out\n\n    auxdata: 0xa2646970667358221220ecabf631787c7e6dcf9a384cfa7b32ac9bb1394f8877cfd69aa0cf6aa6f85a4464736f6c634300081a0033\n}\n",
				"bytecode": {
					"linkReferences": {},
					"object": "6080604052348015600e575f80fd5b506105218061001c5f395ff3fe608060405234801561000f575f80fd5b5060043610610029575f3560e01c8063250127ec1461002d575b5f80fd5b6100476004803603810190610042919061033a565b61005d565b60405161005491906103e1565b60405180910390f35b60605f825190505f5b81811015610139575f60018261007c919061042e565b90505b8281101561012b575f85838151811061009b5761009a610461565b5b602002602001015190505f8683815181106100b9576100b8610461565b5b602002602001015190505f6100ce8383610179565b90506001811461011b576040518060400160405280601b81526020017f4e6f7420416c6c204e756d626572732041726520436f7072696d6500000000008152509650505050505050610174565b505050808060010191505061007f565b508080600101915050610066565b506040518060400160405280601781526020017f416c6c204e756d626572732041726520436f7072696d650000000000000000008152509150505b919050565b5f5b5f821461019d575f829050828461019291906104bb565b92508093505061017b565b82905092915050565b5f604051905090565b5f80fd5b5f80fd5b5f80fd5b5f601f19601f8301169050919050565b7f4e487b71000000000000000000000000000000000000000000000000000000005f52604160045260245ffd5b610201826101bb565b810181811067ffffffffffffffff821117156102205761021f6101cb565b5b80604052505050565b5f6102326101a6565b905061023e82826101f8565b919050565b5f67ffffffffffffffff82111561025d5761025c6101cb565b5b602082029050602081019050919050565b5f80fd5b5f819050919050565b61028481610272565b811461028e575f80fd5b50565b5f8135905061029f8161027b565b92915050565b5f6102b76102b284610243565b610229565b905080838252602082019050602084028301858111156102da576102d961026e565b5b835b8181101561030357806102ef8882610291565b8452602084019350506020810190506102dc565b5050509392505050565b5f82601f830112610321576103206101b7565b5b81356103318482602086016102a5565b91505092915050565b5f6020828403121561034f5761034e6101af565b5b5f82013567ffffffffffffffff81111561036c5761036b6101b3565b5b6103788482850161030d565b91505092915050565b5f81519050919050565b5f82825260208201905092915050565b8281835e5f83830152505050565b5f6103b382610381565b6103bd818561038b565b93506103cd81856020860161039b565b6103d6816101bb565b840191505092915050565b5f6020820190508181035f8301526103f981846103a9565b905092915050565b7f4e487b71000000000000000000000000000000000000000000000000000000005f52601160045260245ffd5b5f61043882610272565b915061044383610272565b925082820190508082111561045b5761045a610401565b5b92915050565b7f4e487b71000000000000000000000000000000000000000000000000000000005f52603260045260245ffd5b7f4e487b71000000000000000000000000000000000000000000000000000000005f52601260045260245ffd5b5f6104c582610272565b91506104d083610272565b9250826104e0576104df61048e565b5b82820690509291505056fea2646970667358221220ecabf631787c7e6dcf9a384cfa7b32ac9bb1394f8877cfd69aa0cf6aa6f85a4464736f6c634300081a0033",
					"opcodes": "PUSH1 0x80 PUSH1 0x40 MSTORE CALLVALUE DUP1 ISZERO PUSH1 0xE JUMPI PUSH0 DUP1 REVERT JUMPDEST POP PUSH2 0x521 DUP1 PUSH2 0x1C PUSH0 CODECOPY PUSH0 RETURN INVALID PUSH1 0x80 PUSH1 0x40 MSTORE CALLVALUE DUP1 ISZERO PUSH2 0xF JUMPI PUSH0 DUP1 REVERT JUMPDEST POP PUSH1 0x4 CALLDATASIZE LT PUSH2 0x29 JUMPI PUSH0 CALLDATALOAD PUSH1 0xE0 SHR DUP1 PUSH4 0x250127EC EQ PUSH2 0x2D JUMPI JUMPDEST PUSH0 DUP1 REVERT JUMPDEST PUSH2 0x47 PUSH1 0x4 DUP1 CALLDATASIZE SUB DUP2 ADD SWAP1 PUSH2 0x42 SWAP2 SWAP1 PUSH2 0x33A JUMP JUMPDEST PUSH2 0x5D JUMP JUMPDEST PUSH1 0x40 MLOAD PUSH2 0x54 SWAP2 SWAP1 PUSH2 0x3E1 JUMP JUMPDEST PUSH1 0x40 MLOAD DUP1 SWAP2 SUB SWAP1 RETURN JUMPDEST PUSH1 0x60 PUSH0 DUP3 MLOAD SWAP1 POP PUSH0 JUMPDEST DUP2 DUP2 LT ISZERO PUSH2 0x139 JUMPI PUSH0 PUSH1 0x1 DUP3 PUSH2 0x7C SWAP2 SWAP1 PUSH2 0x42E JUMP JUMPDEST SWAP1 POP JUMPDEST DUP3 DUP2 LT ISZERO PUSH2 0x12B JUMPI PUSH0 DUP6 DUP4 DUP2 MLOAD DUP2 LT PUSH2 0x9B JUMPI PUSH2 0x9A PUSH2 0x461 JUMP JUMPDEST JUMPDEST PUSH1 0x20 MUL PUSH1 0x20 ADD ADD MLOAD SWAP1 POP PUSH0 DUP7 DUP4 DUP2 MLOAD DUP2 LT PUSH2 0xB9 JUMPI PUSH2 0xB8 PUSH2 0x461 JUMP JUMPDEST JUMPDEST PUSH1 0x20 MUL PUSH1 0x20 ADD ADD MLOAD SWAP1 POP PUSH0 PUSH2 0xCE DUP4 DUP4 PUSH2 0x179 JUMP JUMPDEST SWAP1 POP PUSH1 0x1 DUP2 EQ PUSH2 0x11B JUMPI PUSH1 0x40 MLOAD DUP1 PUSH1 0x40 ADD PUSH1 0x40 MSTORE DUP1 PUSH1 0x1B DUP2 MSTORE PUSH1 0x20 ADD PUSH32 0x4E6F7420416C6C204E756D626572732041726520436F7072696D650000000000 DUP2 MSTORE POP SWAP7 POP POP POP POP POP POP POP PUSH2 0x174 JUMP JUMPDEST POP POP POP DUP1 DUP1 PUSH1 0x1 ADD SWAP2 POP POP PUSH2 0x7F JUMP JUMPDEST POP DUP1 DUP1 PUSH1 0x1 ADD SWAP2 POP POP PUSH2 0x66 JUMP JUMPDEST POP PUSH1 0x40 MLOAD DUP1 PUSH1 0x40 ADD PUSH1 0x40 MSTORE DUP1 PUSH1 0x17 DUP2 MSTORE PUSH1 0x20 ADD PUSH32 0x416C6C204E756D626572732041726520436F7072696D65000000000000000000 DUP2 MSTORE POP SWAP2 POP POP JUMPDEST SWAP2 SWAP1 POP JUMP JUMPDEST PUSH0 JUMPDEST PUSH0 DUP3 EQ PUSH2 0x19D JUMPI PUSH0 DUP3 SWAP1 POP DUP3 DUP5 PUSH2 0x192 SWAP2 SWAP1 PUSH2 0x4BB JUMP JUMPDEST SWAP3 POP DUP1 SWAP4 POP POP PUSH2 0x17B JUMP JUMPDEST DUP3 SWAP1 POP SWAP3 SWAP2 POP POP JUMP JUMPDEST PUSH0 PUSH1 0x40 MLOAD SWAP1 POP SWAP1 JUMP JUMPDEST PUSH0 DUP1 REVERT JUMPDEST PUSH0 DUP1 REVERT JUMPDEST PUSH0 DUP1 REVERT JUMPDEST PUSH0 PUSH1 0x1F NOT PUSH1 0x1F DUP4 ADD AND SWAP1 POP SWAP2 SWAP1 POP JUMP JUMPDEST PUSH32 0x4E487B7100000000000000000000000000000000000000000000000000000000 PUSH0 MSTORE PUSH1 0x41 PUSH1 0x4 MSTORE PUSH1 0x24 PUSH0 REVERT JUMPDEST PUSH2 0x201 DUP3 PUSH2 0x1BB JUMP JUMPDEST DUP2 ADD DUP2 DUP2 LT PUSH8 0xFFFFFFFFFFFFFFFF DUP3 GT OR ISZERO PUSH2 0x220 JUMPI PUSH2 0x21F PUSH2 0x1CB JUMP JUMPDEST JUMPDEST DUP1 PUSH1 0x40 MSTORE POP POP POP JUMP JUMPDEST PUSH0 PUSH2 0x232 PUSH2 0x1A6 JUMP JUMPDEST SWAP1 POP PUSH2 0x23E DUP3 DUP3 PUSH2 0x1F8 JUMP JUMPDEST SWAP2 SWAP1 POP JUMP JUMPDEST PUSH0 PUSH8 0xFFFFFFFFFFFFFFFF DUP3 GT ISZERO PUSH2 0x25D JUMPI PUSH2 0x25C PUSH2 0x1CB JUMP JUMPDEST JUMPDEST PUSH1 0x20 DUP3 MUL SWAP1 POP PUSH1 0x20 DUP2 ADD SWAP1 POP SWAP2 SWAP1 POP JUMP JUMPDEST PUSH0 DUP1 REVERT JUMPDEST PUSH0 DUP2 SWAP1 POP SWAP2 SWAP1 POP JUMP JUMPDEST PUSH2 0x284 DUP2 PUSH2 0x272 JUMP JUMPDEST DUP2 EQ PUSH2 0x28E JUMPI PUSH0 DUP1 REVERT JUMPDEST POP JUMP JUMPDEST PUSH0 DUP2 CALLDATALOAD SWAP1 POP PUSH2 0x29F DUP2 PUSH2 0x27B JUMP JUMPDEST SWAP3 SWAP2 POP POP JUMP JUMPDEST PUSH0 PUSH2 0x2B7 PUSH2 0x2B2 DUP5 PUSH2 0x243 JUMP JUMPDEST PUSH2 0x229 JUMP JUMPDEST SWAP1 POP DUP1 DUP4 DUP3 MSTORE PUSH1 0x20 DUP3 ADD SWAP1 POP PUSH1 0x20 DUP5 MUL DUP4 ADD DUP6 DUP2 GT ISZERO PUSH2 0x2DA JUMPI PUSH2 0x2D9 PUSH2 0x26E JUMP JUMPDEST JUMPDEST DUP4 JUMPDEST DUP2 DUP2 LT ISZERO PUSH2 0x303 JUMPI DUP1 PUSH2 0x2EF DUP9 DUP3 PUSH2 0x291 JUMP JUMPDEST DUP5 MSTORE PUSH1 0x20 DUP5 ADD SWAP4 POP POP PUSH1 0x20 DUP2 ADD SWAP1 POP PUSH2 0x2DC JUMP JUMPDEST POP POP POP SWAP4 SWAP3 POP POP POP JUMP JUMPDEST PUSH0 DUP3 PUSH1 0x1F DUP4 ADD SLT PUSH2 0x321 JUMPI PUSH2 0x320 PUSH2 0x1B7 JUMP JUMPDEST JUMPDEST DUP2 CALLDATALOAD PUSH2 0x331 DUP5 DUP3 PUSH1 0x20 DUP7 ADD PUSH2 0x2A5 JUMP JUMPDEST SWAP2 POP POP SWAP3 SWAP2 POP POP JUMP JUMPDEST PUSH0 PUSH1 0x20 DUP3 DUP5 SUB SLT ISZERO PUSH2 0x34F JUMPI PUSH2 0x34E PUSH2 0x1AF JUMP JUMPDEST JUMPDEST PUSH0 DUP3 ADD CALLDATALOAD PUSH8 0xFFFFFFFFFFFFFFFF DUP2 GT ISZERO PUSH2 0x36C JUMPI PUSH2 0x36B PUSH2 0x1B3 JUMP JUMPDEST JUMPDEST PUSH2 0x378 DUP5 DUP3 DUP6 ADD PUSH2 0x30D JUMP JUMPDEST SWAP2 POP POP SWAP3 SWAP2 POP POP JUMP JUMPDEST PUSH0 DUP2 MLOAD SWAP1 POP SWAP2 SWAP1 POP JUMP JUMPDEST PUSH0 DUP3 DUP3 MSTORE PUSH1 0x20 DUP3 ADD SWAP1 POP SWAP3 SWAP2 POP POP JUMP JUMPDEST DUP3 DUP2 DUP4 MCOPY PUSH0 DUP4 DUP4 ADD MSTORE POP POP POP JUMP JUMPDEST PUSH0 PUSH2 0x3B3 DUP3 PUSH2 0x381 JUMP JUMPDEST PUSH2 0x3BD DUP2 DUP6 PUSH2 0x38B JUMP JUMPDEST SWAP4 POP PUSH2 0x3CD DUP2 DUP6 PUSH1 0x20 DUP7 ADD PUSH2 0x39B JUMP JUMPDEST PUSH2 0x3D6 DUP2 PUSH2 0x1BB JUMP JUMPDEST DUP5 ADD SWAP2 POP POP SWAP3 SWAP2 POP POP JUMP JUMPDEST PUSH0 PUSH1 0x20 DUP3 ADD SWAP1 POP DUP2 DUP2 SUB PUSH0 DUP4 ADD MSTORE PUSH2 0x3F9 DUP2 DUP5 PUSH2 0x3A9 JUMP JUMPDEST SWAP1 POP SWAP3 SWAP2 POP POP JUMP JUMPDEST PUSH32 0x4E487B7100000000000000000000000000000000000000000000000000000000 PUSH0 MSTORE PUSH1 0x11 PUSH1 0x4 MSTORE PUSH1 0x24 PUSH0 REVERT JUMPDEST PUSH0 PUSH2 0x438 DUP3 PUSH2 0x272 JUMP JUMPDEST SWAP2 POP PUSH2 0x443 DUP4 PUSH2 0x272 JUMP JUMPDEST SWAP3 POP DUP3 DUP3 ADD SWAP1 POP DUP1 DUP3 GT ISZERO PUSH2 0x45B JUMPI PUSH2 0x45A PUSH2 0x401 JUMP JUMPDEST JUMPDEST SWAP3 SWAP2 POP POP JUMP JUMPDEST PUSH32 0x4E487B7100000000000000000000000000000000000000000000000000000000 PUSH0 MSTORE PUSH1 0x32 PUSH1 0x4 MSTORE PUSH1 0x24 PUSH0 REVERT JUMPDEST PUSH32 0x4E487B7100000000000000000000000000000000000000000000000000000000 PUSH0 MSTORE PUSH1 0x12 PUSH1 0x4 MSTORE PUSH1 0x24 PUSH0 REVERT JUMPDEST PUSH0 PUSH2 0x4C5 DUP3 PUSH2 0x272 JUMP JUMPDEST SWAP2 POP PUSH2 0x4D0 DUP4 PUSH2 0x272 JUMP JUMPDEST SWAP3 POP DUP3 PUSH2 0x4E0 JUMPI PUSH2 0x4DF PUSH2 0x48E JUMP JUMPDEST JUMPDEST DUP3 DUP3 MOD SWAP1 POP SWAP3 SWAP2 POP POP JUMP INVALID LOG2 PUSH5 0x6970667358 0x22 SLT KECCAK256 0xEC 0xAB 0xF6 BALANCE PUSH25 0x7C7E6DCF9A384CFA7B32AC9BB1394F8877CFD69AA0CF6AA6F8 GAS PREVRANDAO PUSH5 0x736F6C6343 STOP ADDMOD BYTE STOP CALLER "
				},
				"gasEstimates": {
					"creation": {
						"codeDepositCost": "262600",
						"executionCost": "304",
						"totalCost": "262904"
					},
					"external": {
						"checkCoprime(uint256[])": "infinite"
					},
					"internal": {
						"gcd(uint256,uint256)": "infinite"
					}
				},
				"methodIdentifiers": {
					"checkCoprime(uint256[])": "250127ec"
				}
			},
			"storageLayout": {
				"storage": [],
				"types": null
			},
			"userdoc": {
				"kind": "user",
				"methods": {},
				"version": 1
			}
		}
	}
}