{
	"contracts/DAY07/MathLibrary.sol": {
		"MathLibrary": {
			"abi": [
				{
					"inputs": [
						{
							"internalType": "uint256",
							"name": "n",
							"type": "uint256"
						}
					],
					"name": "factorial",
					"outputs": [
						{
							"internalType": "uint256",
							"name": "",
							"type": "uint256"
						}
					],
					"stateMutability": "pure",
					"type": "function"
				},
				{
					"inputs": [
						{
							"internalType": "uint256",
							"name": "n",
							"type": "uint256"
						}
					],
					"name": "fibonacci",
					"outputs": [
						{
							"internalType": "uint256[]",
							"name": "",
							"type": "uint256[]"
						}
					],
					"stateMutability": "pure",
					"type": "function"
				},
				{
					"inputs": [
						{
							"internalType": "uint256",
							"name": "number",
							"type": "uint256"
						}
					],
					"name": "isArmstrong",
					"outputs": [
						{
							"internalType": "bool",
							"name": "",
							"type": "bool"
						}
					],
					"stateMutability": "pure",
					"type": "function"
				},
				{
					"inputs": [
						{
							"internalType": "uint256",
							"name": "a",
							"type": "uint256"
						},
						{
							"internalType": "uint256",
							"name": "b",
							"type": "uint256"
						}
					],
					"name": "max",
					"outputs": [
						{
							"internalType": "uint256",
							"name": "",
							"type": "uint256"
						}
					],
					"stateMutability": "pure",
					"type": "function"
				},
				{
					"inputs": [
						{
							"internalType": "uint256",
							"name": "a",
							"type": "uint256"
						},
						{
							"internalType": "uint256",
							"name": "b",
							"type": "uint256"
						}
					],
					"name": "min",
					"outputs": [
						{
							"internalType": "uint256",
							"name": "",
							"type": "uint256"
						}
					],
					"stateMutability": "pure",
					"type": "function"
				}
			],
			"devdoc": {
				"kind": "dev",
				"methods": {},
				"version": 1
			},
			"evm": {
				"assembly": "    /* \"contracts/DAY07/MathLibrary.sol\":60:1959  library MathLibrary {... */\n  dataSize(sub_0)\n  dataOffset(sub_0)\n  0x0b\n  dup3\n  dup3\n  dup3\n  codecopy\n  dup1\n  mload\n  0x00\n  byte\n  0x73\n  eq\n  tag_1\n  jumpi\n  mstore(0x00, 0x4e487b7100000000000000000000000000000000000000000000000000000000)\n  mstore(0x04, 0x00)\n  revert(0x00, 0x24)\ntag_1:\n  mstore(0x00, address)\n  0x73\n  dup2\n  mstore8\n  dup3\n  dup2\n  return\nstop\n\nsub_0: assembly {\n        /* \"contracts/DAY07/MathLibrary.sol\":60:1959  library MathLibrary {... */\n      eq(address, deployTimeAddress())\n      mstore(0x40, 0x80)\n      jumpi(tag_1, lt(calldatasize, 0x04))\n      shr(0xe0, calldataload(0x00))\n      dup1\n      0x61047ff4\n      eq\n      tag_2\n      jumpi\n      dup1\n      0x6d5433e6\n      eq\n      tag_3\n      jumpi\n      dup1\n      0x7ae2b5c7\n      eq\n      tag_4\n      jumpi\n      dup1\n      0x83714834\n      eq\n      tag_5\n      jumpi\n      dup1\n      0xfe459d20\n      eq\n      tag_6\n      jumpi\n    tag_1:\n      0x00\n      dup1\n      revert\n        /* \"contracts/DAY07/MathLibrary.sol\":931:1292  function fibonacci(uint256 n) public pure returns (uint256[] memory) {... */\n    tag_2:\n      tag_7\n      0x04\n      dup1\n      calldatasize\n      sub\n      dup2\n      add\n      swap1\n      tag_8\n      swap2\n      swap1\n      tag_9\n      jump\t// in\n    tag_8:\n      tag_10\n      jump\t// in\n    tag_7:\n      mload(0x40)\n      tag_11\n      swap2\n      swap1\n      tag_12\n      jump\t// in\n    tag_11:\n      mload(0x40)\n      dup1\n      swap2\n      sub\n      swap1\n      return\n        /* \"contracts/DAY07/MathLibrary.sol\":145:315  function max(uint256 a, uint256 b) public pure returns (uint256) {... */\n    tag_3:\n      tag_13\n      0x04\n      dup1\n      calldatasize\n      sub\n      dup2\n      add\n      swap1\n      tag_14\n      swap2\n      swap1\n      tag_15\n      jump\t// in\n    tag_14:\n      tag_16\n      jump\t// in\n    tag_13:\n      mload(0x40)\n      tag_17\n      swap2\n      swap1\n      tag_18\n      jump\t// in\n    tag_17:\n      mload(0x40)\n      dup1\n      swap2\n      sub\n      swap1\n      return\n        /* \"contracts/DAY07/MathLibrary.sol\":375:545  function min(uint256 a, uint256 b) public pure returns (uint256) {... */\n    tag_4:\n      tag_19\n      0x04\n      dup1\n      calldatasize\n      sub\n      dup2\n      add\n      swap1\n      tag_20\n      swap2\n      swap1\n      tag_15\n      jump\t// in\n    tag_20:\n      tag_21\n      jump\t// in\n    tag_19:\n      mload(0x40)\n      tag_22\n      swap2\n      swap1\n      tag_18\n      jump\t// in\n    tag_22:\n      mload(0x40)\n      dup1\n      swap2\n      sub\n      swap1\n      return\n        /* \"contracts/DAY07/MathLibrary.sol\":609:863  function factorial(uint256 n) public pure returns (uint256) {... */\n    tag_5:\n      tag_23\n      0x04\n      dup1\n      calldatasize\n      sub\n      dup2\n      add\n      swap1\n      tag_24\n      swap2\n      swap1\n      tag_9\n      jump\t// in\n    tag_24:\n      tag_25\n      jump\t// in\n    tag_23:\n      mload(0x40)\n      tag_26\n      swap2\n      swap1\n      tag_18\n      jump\t// in\n    tag_26:\n      mload(0x40)\n      dup1\n      swap2\n      sub\n      swap1\n      return\n        /* \"contracts/DAY07/MathLibrary.sol\":1361:1956  function isArmstrong(uint256 number) public pure returns (bool) {... */\n    tag_6:\n      tag_27\n      0x04\n      dup1\n      calldatasize\n      sub\n      dup2\n      add\n      swap1\n      tag_28\n      swap2\n      swap1\n      tag_9\n      jump\t// in\n    tag_28:\n      tag_29\n      jump\t// in\n    tag_27:\n      mload(0x40)\n      tag_30\n      swap2\n      swap1\n      tag_31\n      jump\t// in\n    tag_30:\n      mload(0x40)\n      dup1\n      swap2\n      sub\n      swap1\n      return\n        /* \"contracts/DAY07/MathLibrary.sol\":931:1292  function fibonacci(uint256 n) public pure returns (uint256[] memory) {... */\n    tag_10:\n        /* \"contracts/DAY07/MathLibrary.sol\":982:998  uint256[] memory */\n      0x60\n        /* \"contracts/DAY07/MathLibrary.sol\":1011:1034  uint256[] memory series */\n      0x00\n        /* \"contracts/DAY07/MathLibrary.sol\":1051:1052  n */\n      dup3\n        /* \"contracts/DAY07/MathLibrary.sol\":1037:1053  new uint256[](n) */\n      0xffffffffffffffff\n      dup2\n      gt\n      iszero\n      tag_33\n      jumpi\n      tag_34\n      tag_35\n      jump\t// in\n    tag_34:\n    tag_33:\n      mload(0x40)\n      swap1\n      dup1\n      dup3\n      mstore\n      dup1\n      0x20\n      mul\n      0x20\n      add\n      dup3\n      add\n      0x40\n      mstore\n      dup1\n      iszero\n      tag_36\n      jumpi\n      dup2\n      0x20\n      add\n      0x20\n      dup3\n      mul\n      dup1\n      calldatasize\n      dup4\n      calldatacopy\n      dup1\n      dup3\n      add\n      swap2\n      pop\n      pop\n      swap1\n      pop\n    tag_36:\n      pop\n        /* \"contracts/DAY07/MathLibrary.sol\":1011:1053  uint256[] memory series = new uint256[](n) */\n      swap1\n      pop\n        /* \"contracts/DAY07/MathLibrary.sol\":1076:1077  0 */\n      0x00\n        /* \"contracts/DAY07/MathLibrary.sol\":1064:1070  series */\n      dup2\n        /* \"contracts/DAY07/MathLibrary.sol\":1071:1072  0 */\n      0x00\n        /* \"contracts/DAY07/MathLibrary.sol\":1064:1073  series[0] */\n      dup2\n      mload\n      dup2\n      lt\n      tag_37\n      jumpi\n      tag_38\n      tag_39\n      jump\t// in\n    tag_38:\n    tag_37:\n      0x20\n      mul\n      0x20\n      add\n      add\n        /* \"contracts/DAY07/MathLibrary.sol\":1064:1077  series[0] = 0 */\n      dup2\n      dup2\n      mstore\n      pop\n      pop\n        /* \"contracts/DAY07/MathLibrary.sol\":1096:1097  1 */\n      0x01\n        /* \"contracts/DAY07/MathLibrary.sol\":1092:1093  n */\n      dup4\n        /* \"contracts/DAY07/MathLibrary.sol\":1092:1097  n > 1 */\n      gt\n        /* \"contracts/DAY07/MathLibrary.sol\":1088:1261  if (n > 1) {... */\n      iszero\n      tag_40\n      jumpi\n        /* \"contracts/DAY07/MathLibrary.sol\":1126:1127  1 */\n      0x01\n        /* \"contracts/DAY07/MathLibrary.sol\":1114:1120  series */\n      dup2\n        /* \"contracts/DAY07/MathLibrary.sol\":1121:1122  1 */\n      0x01\n        /* \"contracts/DAY07/MathLibrary.sol\":1114:1123  series[1] */\n      dup2\n      mload\n      dup2\n      lt\n      tag_41\n      jumpi\n      tag_42\n      tag_39\n      jump\t// in\n    tag_42:\n    tag_41:\n      0x20\n      mul\n      0x20\n      add\n      add\n        /* \"contracts/DAY07/MathLibrary.sol\":1114:1127  series[1] = 1 */\n      dup2\n      dup2\n      mstore\n      pop\n      pop\n        /* \"contracts/DAY07/MathLibrary.sol\":1147:1156  uint256 i */\n      0x00\n        /* \"contracts/DAY07/MathLibrary.sol\":1159:1160  2 */\n      0x02\n        /* \"contracts/DAY07/MathLibrary.sol\":1147:1160  uint256 i = 2 */\n      swap1\n      pop\n        /* \"contracts/DAY07/MathLibrary.sol\":1142:1250  for (uint256 i = 2; i < n; i++) {... */\n    tag_43:\n        /* \"contracts/DAY07/MathLibrary.sol\":1166:1167  n */\n      dup4\n        /* \"contracts/DAY07/MathLibrary.sol\":1162:1163  i */\n      dup2\n        /* \"contracts/DAY07/MathLibrary.sol\":1162:1167  i < n */\n      lt\n        /* \"contracts/DAY07/MathLibrary.sol\":1142:1250  for (uint256 i = 2; i < n; i++) {... */\n      iszero\n      tag_44\n      jumpi\n        /* \"contracts/DAY07/MathLibrary.sol\":1221:1227  series */\n      dup2\n        /* \"contracts/DAY07/MathLibrary.sol\":1232:1233  2 */\n      0x02\n        /* \"contracts/DAY07/MathLibrary.sol\":1228:1229  i */\n      dup3\n        /* \"contracts/DAY07/MathLibrary.sol\":1228:1233  i - 2 */\n      tag_46\n      swap2\n      swap1\n      tag_47\n      jump\t// in\n    tag_46:\n        /* \"contracts/DAY07/MathLibrary.sol\":1221:1234  series[i - 2] */\n      dup2\n      mload\n      dup2\n      lt\n      tag_48\n      jumpi\n      tag_49\n      tag_39\n      jump\t// in\n    tag_49:\n    tag_48:\n      0x20\n      mul\n      0x20\n      add\n      add\n      mload\n        /* \"contracts/DAY07/MathLibrary.sol\":1205:1211  series */\n      dup3\n        /* \"contracts/DAY07/MathLibrary.sol\":1216:1217  1 */\n      0x01\n        /* \"contracts/DAY07/MathLibrary.sol\":1212:1213  i */\n      dup4\n        /* \"contracts/DAY07/MathLibrary.sol\":1212:1217  i - 1 */\n      tag_50\n      swap2\n      swap1\n      tag_47\n      jump\t// in\n    tag_50:\n        /* \"contracts/DAY07/MathLibrary.sol\":1205:1218  series[i - 1] */\n      dup2\n      mload\n      dup2\n      lt\n      tag_51\n      jumpi\n      tag_52\n      tag_39\n      jump\t// in\n    tag_52:\n    tag_51:\n      0x20\n      mul\n      0x20\n      add\n      add\n      mload\n        /* \"contracts/DAY07/MathLibrary.sol\":1205:1234  series[i - 1] + series[i - 2] */\n      tag_53\n      swap2\n      swap1\n      tag_54\n      jump\t// in\n    tag_53:\n        /* \"contracts/DAY07/MathLibrary.sol\":1193:1199  series */\n      dup3\n        /* \"contracts/DAY07/MathLibrary.sol\":1200:1201  i */\n      dup3\n        /* \"contracts/DAY07/MathLibrary.sol\":1193:1202  series[i] */\n      dup2\n      mload\n      dup2\n      lt\n      tag_55\n      jumpi\n      tag_56\n      tag_39\n      jump\t// in\n    tag_56:\n    tag_55:\n      0x20\n      mul\n      0x20\n      add\n      add\n        /* \"contracts/DAY07/MathLibrary.sol\":1193:1234  series[i] = series[i - 1] + series[i - 2] */\n      dup2\n      dup2\n      mstore\n      pop\n      pop\n        /* \"contracts/DAY07/MathLibrary.sol\":1169:1172  i++ */\n      dup1\n      dup1\n      0x01\n      add\n      swap2\n      pop\n      pop\n        /* \"contracts/DAY07/MathLibrary.sol\":1142:1250  for (uint256 i = 2; i < n; i++) {... */\n      jump(tag_43)\n    tag_44:\n      pop\n        /* \"contracts/DAY07/MathLibrary.sol\":1088:1261  if (n > 1) {... */\n    tag_40:\n        /* \"contracts/DAY07/MathLibrary.sol\":1278:1284  series */\n      dup1\n        /* \"contracts/DAY07/MathLibrary.sol\":1271:1284  return series */\n      swap2\n      pop\n      pop\n        /* \"contracts/DAY07/MathLibrary.sol\":931:1292  function fibonacci(uint256 n) public pure returns (uint256[] memory) {... */\n      swap2\n      swap1\n      pop\n      jump\t// out\n        /* \"contracts/DAY07/MathLibrary.sol\":145:315  function max(uint256 a, uint256 b) public pure returns (uint256) {... */\n    tag_16:\n        /* \"contracts/DAY07/MathLibrary.sol\":201:208  uint256 */\n      0x00\n        /* \"contracts/DAY07/MathLibrary.sol\":229:230  b */\n      dup2\n        /* \"contracts/DAY07/MathLibrary.sol\":225:226  a */\n      dup4\n        /* \"contracts/DAY07/MathLibrary.sol\":225:230  a > b */\n      gt\n        /* \"contracts/DAY07/MathLibrary.sol\":221:308  if (a > b) {... */\n      iszero\n      tag_58\n      jumpi\n        /* \"contracts/DAY07/MathLibrary.sol\":254:255  a */\n      dup3\n        /* \"contracts/DAY07/MathLibrary.sol\":247:255  return a */\n      swap1\n      pop\n      jump(tag_57)\n        /* \"contracts/DAY07/MathLibrary.sol\":221:308  if (a > b) {... */\n    tag_58:\n        /* \"contracts/DAY07/MathLibrary.sol\":295:296  b */\n      dup2\n        /* \"contracts/DAY07/MathLibrary.sol\":288:296  return b */\n      swap1\n      pop\n        /* \"contracts/DAY07/MathLibrary.sol\":145:315  function max(uint256 a, uint256 b) public pure returns (uint256) {... */\n    tag_57:\n      swap3\n      swap2\n      pop\n      pop\n      jump\t// out\n        /* \"contracts/DAY07/MathLibrary.sol\":375:545  function min(uint256 a, uint256 b) public pure returns (uint256) {... */\n    tag_21:\n        /* \"contracts/DAY07/MathLibrary.sol\":431:438  uint256 */\n      0x00\n        /* \"contracts/DAY07/MathLibrary.sol\":459:460  b */\n      dup2\n        /* \"contracts/DAY07/MathLibrary.sol\":455:456  a */\n      dup4\n        /* \"contracts/DAY07/MathLibrary.sol\":455:460  a < b */\n      lt\n        /* \"contracts/DAY07/MathLibrary.sol\":451:538  if (a < b) {... */\n      iszero\n      tag_61\n      jumpi\n        /* \"contracts/DAY07/MathLibrary.sol\":484:485  a */\n      dup3\n        /* \"contracts/DAY07/MathLibrary.sol\":477:485  return a */\n      swap1\n      pop\n      jump(tag_60)\n        /* \"contracts/DAY07/MathLibrary.sol\":451:538  if (a < b) {... */\n    tag_61:\n        /* \"contracts/DAY07/MathLibrary.sol\":525:526  b */\n      dup2\n        /* \"contracts/DAY07/MathLibrary.sol\":518:526  return b */\n      swap1\n      pop\n        /* \"contracts/DAY07/MathLibrary.sol\":375:545  function min(uint256 a, uint256 b) public pure returns (uint256) {... */\n    tag_60:\n      swap3\n      swap2\n      pop\n      pop\n      jump\t// out\n        /* \"contracts/DAY07/MathLibrary.sol\":609:863  function factorial(uint256 n) public pure returns (uint256) {... */\n    tag_25:\n        /* \"contracts/DAY07/MathLibrary.sol\":660:667  uint256 */\n      0x00\n        /* \"contracts/DAY07/MathLibrary.sol\":693:694  0 */\n      dup1\n        /* \"contracts/DAY07/MathLibrary.sol\":688:689  n */\n      dup3\n        /* \"contracts/DAY07/MathLibrary.sol\":688:694  n >= 0 */\n      lt\n      iszero\n        /* \"contracts/DAY07/MathLibrary.sol\":680:721  require(n >= 0, \"n must be non-negative\") */\n      tag_64\n      jumpi\n      mload(0x40)\n      0x08c379a000000000000000000000000000000000000000000000000000000000\n      dup2\n      mstore\n      0x04\n      add\n      tag_65\n      swap1\n      tag_66\n      jump\t// in\n    tag_65:\n      mload(0x40)\n      dup1\n      swap2\n      sub\n      swap1\n      revert\n    tag_64:\n        /* \"contracts/DAY07/MathLibrary.sol\":732:746  uint256 result */\n      0x00\n        /* \"contracts/DAY07/MathLibrary.sol\":749:750  1 */\n      0x01\n        /* \"contracts/DAY07/MathLibrary.sol\":732:750  uint256 result = 1 */\n      swap1\n      pop\n        /* \"contracts/DAY07/MathLibrary.sol\":766:775  uint256 i */\n      0x00\n        /* \"contracts/DAY07/MathLibrary.sol\":778:779  1 */\n      0x01\n        /* \"contracts/DAY07/MathLibrary.sol\":766:779  uint256 i = 1 */\n      swap1\n      pop\n        /* \"contracts/DAY07/MathLibrary.sol\":761:832  for (uint256 i = 1; i <= n; i++) {... */\n    tag_67:\n        /* \"contracts/DAY07/MathLibrary.sol\":786:787  n */\n      dup4\n        /* \"contracts/DAY07/MathLibrary.sol\":781:782  i */\n      dup2\n        /* \"contracts/DAY07/MathLibrary.sol\":781:787  i <= n */\n      gt\n        /* \"contracts/DAY07/MathLibrary.sol\":761:832  for (uint256 i = 1; i <= n; i++) {... */\n      tag_68\n      jumpi\n        /* \"contracts/DAY07/MathLibrary.sol\":819:820  i */\n      dup1\n        /* \"contracts/DAY07/MathLibrary.sol\":809:820  result *= i */\n      dup3\n      tag_70\n      swap2\n      swap1\n      tag_71\n      jump\t// in\n    tag_70:\n      swap2\n      pop\n        /* \"contracts/DAY07/MathLibrary.sol\":789:792  i++ */\n      dup1\n      dup1\n      tag_72\n      swap1\n      tag_73\n      jump\t// in\n    tag_72:\n      swap2\n      pop\n      pop\n        /* \"contracts/DAY07/MathLibrary.sol\":761:832  for (uint256 i = 1; i <= n; i++) {... */\n      jump(tag_67)\n    tag_68:\n      pop\n        /* \"contracts/DAY07/MathLibrary.sol\":849:855  result */\n      dup1\n        /* \"contracts/DAY07/MathLibrary.sol\":842:855  return result */\n      swap2\n      pop\n      pop\n        /* \"contracts/DAY07/MathLibrary.sol\":609:863  function factorial(uint256 n) public pure returns (uint256) {... */\n      swap2\n      swap1\n      pop\n      jump\t// out\n        /* \"contracts/DAY07/MathLibrary.sol\":1361:1956  function isArmstrong(uint256 number) public pure returns (bool) {... */\n    tag_29:\n        /* \"contracts/DAY07/MathLibrary.sol\":1419:1423  bool */\n      0x00\n        /* \"contracts/DAY07/MathLibrary.sol\":1436:1447  uint256 sum */\n      dup1\n        /* \"contracts/DAY07/MathLibrary.sol\":1450:1451  0 */\n      0x00\n        /* \"contracts/DAY07/MathLibrary.sol\":1436:1451  uint256 sum = 0 */\n      swap1\n      pop\n        /* \"contracts/DAY07/MathLibrary.sol\":1462:1474  uint256 temp */\n      0x00\n        /* \"contracts/DAY07/MathLibrary.sol\":1477:1483  number */\n      dup4\n        /* \"contracts/DAY07/MathLibrary.sol\":1462:1483  uint256 temp = number */\n      swap1\n      pop\n        /* \"contracts/DAY07/MathLibrary.sol\":1494:1508  uint256 digits */\n      0x00\n        /* \"contracts/DAY07/MathLibrary.sol\":1578:1656  while (temp != 0) {... */\n    tag_75:\n        /* \"contracts/DAY07/MathLibrary.sol\":1593:1594  0 */\n      0x00\n        /* \"contracts/DAY07/MathLibrary.sol\":1585:1589  temp */\n      dup3\n        /* \"contracts/DAY07/MathLibrary.sol\":1585:1594  temp != 0 */\n      eq\n        /* \"contracts/DAY07/MathLibrary.sol\":1578:1656  while (temp != 0) {... */\n      tag_76\n      jumpi\n        /* \"contracts/DAY07/MathLibrary.sol\":1611:1619  digits++ */\n      dup1\n      dup1\n      tag_77\n      swap1\n      tag_73\n      jump\t// in\n    tag_77:\n      swap2\n      pop\n      pop\n        /* \"contracts/DAY07/MathLibrary.sol\":1642:1644  10 */\n      0x0a\n        /* \"contracts/DAY07/MathLibrary.sol\":1634:1644  temp /= 10 */\n      dup3\n      tag_78\n      swap2\n      swap1\n      tag_79\n      jump\t// in\n    tag_78:\n      swap2\n      pop\n        /* \"contracts/DAY07/MathLibrary.sol\":1578:1656  while (temp != 0) {... */\n      jump(tag_75)\n    tag_76:\n        /* \"contracts/DAY07/MathLibrary.sol\":1675:1681  number */\n      dup5\n        /* \"contracts/DAY07/MathLibrary.sol\":1668:1681  temp = number */\n      swap2\n      pop\n        /* \"contracts/DAY07/MathLibrary.sol\":1776:1916  while (temp != 0) {... */\n    tag_80:\n        /* \"contracts/DAY07/MathLibrary.sol\":1791:1792  0 */\n      0x00\n        /* \"contracts/DAY07/MathLibrary.sol\":1783:1787  temp */\n      dup3\n        /* \"contracts/DAY07/MathLibrary.sol\":1783:1792  temp != 0 */\n      eq\n        /* \"contracts/DAY07/MathLibrary.sol\":1776:1916  while (temp != 0) {... */\n      tag_81\n      jumpi\n        /* \"contracts/DAY07/MathLibrary.sol\":1809:1826  uint256 remainder */\n      0x00\n        /* \"contracts/DAY07/MathLibrary.sol\":1836:1838  10 */\n      0x0a\n        /* \"contracts/DAY07/MathLibrary.sol\":1829:1833  temp */\n      dup4\n        /* \"contracts/DAY07/MathLibrary.sol\":1829:1838  temp % 10 */\n      tag_82\n      swap2\n      swap1\n      tag_83\n      jump\t// in\n    tag_82:\n        /* \"contracts/DAY07/MathLibrary.sol\":1809:1838  uint256 remainder = temp % 10 */\n      swap1\n      pop\n        /* \"contracts/DAY07/MathLibrary.sol\":1873:1879  digits */\n      dup2\n        /* \"contracts/DAY07/MathLibrary.sol\":1860:1869  remainder */\n      dup2\n        /* \"contracts/DAY07/MathLibrary.sol\":1860:1879  remainder ** digits */\n      tag_84\n      swap2\n      swap1\n      tag_85\n      jump\t// in\n    tag_84:\n        /* \"contracts/DAY07/MathLibrary.sol\":1853:1879  sum += remainder ** digits */\n      dup5\n      tag_86\n      swap2\n      swap1\n      tag_54\n      jump\t// in\n    tag_86:\n      swap4\n      pop\n        /* \"contracts/DAY07/MathLibrary.sol\":1902:1904  10 */\n      0x0a\n        /* \"contracts/DAY07/MathLibrary.sol\":1894:1904  temp /= 10 */\n      dup4\n      tag_87\n      swap2\n      swap1\n      tag_79\n      jump\t// in\n    tag_87:\n      swap3\n      pop\n        /* \"contracts/DAY07/MathLibrary.sol\":1794:1916  {... */\n      pop\n        /* \"contracts/DAY07/MathLibrary.sol\":1776:1916  while (temp != 0) {... */\n      jump(tag_80)\n    tag_81:\n        /* \"contracts/DAY07/MathLibrary.sol\":1942:1948  number */\n      dup5\n        /* \"contracts/DAY07/MathLibrary.sol\":1935:1938  sum */\n      dup4\n        /* \"contracts/DAY07/MathLibrary.sol\":1935:1948  sum == number */\n      eq\n        /* \"contracts/DAY07/MathLibrary.sol\":1928:1948  return sum == number */\n      swap4\n      pop\n      pop\n      pop\n      pop\n        /* \"contracts/DAY07/MathLibrary.sol\":1361:1956  function isArmstrong(uint256 number) public pure returns (bool) {... */\n      swap2\n      swap1\n      pop\n      jump\t// out\n        /* \"#utility.yul\":88:205   */\n    tag_89:\n        /* \"#utility.yul\":197:198   */\n      0x00\n        /* \"#utility.yul\":194:195   */\n      dup1\n        /* \"#utility.yul\":187:199   */\n      revert\n        /* \"#utility.yul\":334:411   */\n    tag_91:\n        /* \"#utility.yul\":371:378   */\n      0x00\n        /* \"#utility.yul\":400:405   */\n      dup2\n        /* \"#utility.yul\":389:405   */\n      swap1\n      pop\n        /* \"#utility.yul\":334:411   */\n      swap2\n      swap1\n      pop\n      jump\t// out\n        /* \"#utility.yul\":417:539   */\n    tag_92:\n        /* \"#utility.yul\":490:514   */\n      tag_118\n        /* \"#utility.yul\":508:513   */\n      dup2\n        /* \"#utility.yul\":490:514   */\n      tag_91\n      jump\t// in\n    tag_118:\n        /* \"#utility.yul\":483:488   */\n      dup2\n        /* \"#utility.yul\":480:515   */\n      eq\n        /* \"#utility.yul\":470:533   */\n      tag_119\n      jumpi\n        /* \"#utility.yul\":529:530   */\n      0x00\n        /* \"#utility.yul\":526:527   */\n      dup1\n        /* \"#utility.yul\":519:531   */\n      revert\n        /* \"#utility.yul\":470:533   */\n    tag_119:\n        /* \"#utility.yul\":417:539   */\n      pop\n      jump\t// out\n        /* \"#utility.yul\":545:684   */\n    tag_93:\n        /* \"#utility.yul\":591:596   */\n      0x00\n        /* \"#utility.yul\":629:635   */\n      dup2\n        /* \"#utility.yul\":616:636   */\n      calldataload\n        /* \"#utility.yul\":607:636   */\n      swap1\n      pop\n        /* \"#utility.yul\":645:678   */\n      tag_121\n        /* \"#utility.yul\":672:677   */\n      dup2\n        /* \"#utility.yul\":645:678   */\n      tag_92\n      jump\t// in\n    tag_121:\n        /* \"#utility.yul\":545:684   */\n      swap3\n      swap2\n      pop\n      pop\n      jump\t// out\n        /* \"#utility.yul\":690:1019   */\n    tag_9:\n        /* \"#utility.yul\":749:755   */\n      0x00\n        /* \"#utility.yul\":798:800   */\n      0x20\n        /* \"#utility.yul\":786:795   */\n      dup3\n        /* \"#utility.yul\":777:784   */\n      dup5\n        /* \"#utility.yul\":773:796   */\n      sub\n        /* \"#utility.yul\":769:801   */\n      slt\n        /* \"#utility.yul\":766:885   */\n      iszero\n      tag_123\n      jumpi\n        /* \"#utility.yul\":804:883   */\n      tag_124\n      tag_89\n      jump\t// in\n    tag_124:\n        /* \"#utility.yul\":766:885   */\n    tag_123:\n        /* \"#utility.yul\":924:925   */\n      0x00\n        /* \"#utility.yul\":949:1002   */\n      tag_125\n        /* \"#utility.yul\":994:1001   */\n      dup5\n        /* \"#utility.yul\":985:991   */\n      dup3\n        /* \"#utility.yul\":974:983   */\n      dup6\n        /* \"#utility.yul\":970:992   */\n      add\n        /* \"#utility.yul\":949:1002   */\n      tag_93\n      jump\t// in\n    tag_125:\n        /* \"#utility.yul\":939:1002   */\n      swap2\n      pop\n        /* \"#utility.yul\":895:1012   */\n      pop\n        /* \"#utility.yul\":690:1019   */\n      swap3\n      swap2\n      pop\n      pop\n      jump\t// out\n        /* \"#utility.yul\":1025:1139   */\n    tag_94:\n        /* \"#utility.yul\":1092:1098   */\n      0x00\n        /* \"#utility.yul\":1126:1131   */\n      dup2\n        /* \"#utility.yul\":1120:1132   */\n      mload\n        /* \"#utility.yul\":1110:1132   */\n      swap1\n      pop\n        /* \"#utility.yul\":1025:1139   */\n      swap2\n      swap1\n      pop\n      jump\t// out\n        /* \"#utility.yul\":1145:1337   */\n    tag_95:\n        /* \"#utility.yul\":1252:1263   */\n      0x00\n        /* \"#utility.yul\":1286:1292   */\n      dup3\n        /* \"#utility.yul\":1281:1284   */\n      dup3\n        /* \"#utility.yul\":1274:1293   */\n      mstore\n        /* \"#utility.yul\":1326:1330   */\n      0x20\n        /* \"#utility.yul\":1321:1324   */\n      dup3\n        /* \"#utility.yul\":1317:1331   */\n      add\n        /* \"#utility.yul\":1302:1331   */\n      swap1\n      pop\n        /* \"#utility.yul\":1145:1337   */\n      swap3\n      swap2\n      pop\n      pop\n      jump\t// out\n        /* \"#utility.yul\":1343:1475   */\n    tag_96:\n        /* \"#utility.yul\":1410:1414   */\n      0x00\n        /* \"#utility.yul\":1433:1436   */\n      dup2\n        /* \"#utility.yul\":1425:1436   */\n      swap1\n      pop\n        /* \"#utility.yul\":1463:1467   */\n      0x20\n        /* \"#utility.yul\":1458:1461   */\n      dup3\n        /* \"#utility.yul\":1454:1468   */\n      add\n        /* \"#utility.yul\":1446:1468   */\n      swap1\n      pop\n        /* \"#utility.yul\":1343:1475   */\n      swap2\n      swap1\n      pop\n      jump\t// out\n        /* \"#utility.yul\":1481:1597   */\n    tag_97:\n        /* \"#utility.yul\":1566:1590   */\n      tag_130\n        /* \"#utility.yul\":1584:1589   */\n      dup2\n        /* \"#utility.yul\":1566:1590   */\n      tag_91\n      jump\t// in\n    tag_130:\n        /* \"#utility.yul\":1561:1564   */\n      dup3\n        /* \"#utility.yul\":1554:1591   */\n      mstore\n        /* \"#utility.yul\":1481:1597   */\n      pop\n      pop\n      jump\t// out\n        /* \"#utility.yul\":1603:1798   */\n    tag_98:\n        /* \"#utility.yul\":1680:1690   */\n      0x00\n        /* \"#utility.yul\":1701:1755   */\n      tag_132\n        /* \"#utility.yul\":1751:1754   */\n      dup4\n        /* \"#utility.yul\":1743:1749   */\n      dup4\n        /* \"#utility.yul\":1701:1755   */\n      tag_97\n      jump\t// in\n    tag_132:\n        /* \"#utility.yul\":1787:1791   */\n      0x20\n        /* \"#utility.yul\":1782:1785   */\n      dup4\n        /* \"#utility.yul\":1778:1792   */\n      add\n        /* \"#utility.yul\":1764:1792   */\n      swap1\n      pop\n        /* \"#utility.yul\":1603:1798   */\n      swap3\n      swap2\n      pop\n      pop\n      jump\t// out\n        /* \"#utility.yul\":1804:1917   */\n    tag_99:\n        /* \"#utility.yul\":1874:1878   */\n      0x00\n        /* \"#utility.yul\":1906:1910   */\n      0x20\n        /* \"#utility.yul\":1901:1904   */\n      dup3\n        /* \"#utility.yul\":1897:1911   */\n      add\n        /* \"#utility.yul\":1889:1911   */\n      swap1\n      pop\n        /* \"#utility.yul\":1804:1917   */\n      swap2\n      swap1\n      pop\n      jump\t// out\n        /* \"#utility.yul\":1953:2709   */\n    tag_100:\n        /* \"#utility.yul\":2080:2083   */\n      0x00\n        /* \"#utility.yul\":2109:2163   */\n      tag_135\n        /* \"#utility.yul\":2157:2162   */\n      dup3\n        /* \"#utility.yul\":2109:2163   */\n      tag_94\n      jump\t// in\n    tag_135:\n        /* \"#utility.yul\":2179:2273   */\n      tag_136\n        /* \"#utility.yul\":2266:2272   */\n      dup2\n        /* \"#utility.yul\":2261:2264   */\n      dup6\n        /* \"#utility.yul\":2179:2273   */\n      tag_95\n      jump\t// in\n    tag_136:\n        /* \"#utility.yul\":2172:2273   */\n      swap4\n      pop\n        /* \"#utility.yul\":2297:2353   */\n      tag_137\n        /* \"#utility.yul\":2347:2352   */\n      dup4\n        /* \"#utility.yul\":2297:2353   */\n      tag_96\n      jump\t// in\n    tag_137:\n        /* \"#utility.yul\":2376:2383   */\n      dup1\n        /* \"#utility.yul\":2407:2408   */\n      0x00\n        /* \"#utility.yul\":2392:2684   */\n    tag_138:\n        /* \"#utility.yul\":2417:2423   */\n      dup4\n        /* \"#utility.yul\":2414:2415   */\n      dup2\n        /* \"#utility.yul\":2411:2424   */\n      lt\n        /* \"#utility.yul\":2392:2684   */\n      iszero\n      tag_140\n      jumpi\n        /* \"#utility.yul\":2493:2499   */\n      dup2\n        /* \"#utility.yul\":2487:2500   */\n      mload\n        /* \"#utility.yul\":2520:2591   */\n      tag_141\n        /* \"#utility.yul\":2587:2590   */\n      dup9\n        /* \"#utility.yul\":2572:2585   */\n      dup3\n        /* \"#utility.yul\":2520:2591   */\n      tag_98\n      jump\t// in\n    tag_141:\n        /* \"#utility.yul\":2513:2591   */\n      swap8\n      pop\n        /* \"#utility.yul\":2614:2674   */\n      tag_142\n        /* \"#utility.yul\":2667:2673   */\n      dup4\n        /* \"#utility.yul\":2614:2674   */\n      tag_99\n      jump\t// in\n    tag_142:\n        /* \"#utility.yul\":2604:2674   */\n      swap3\n      pop\n        /* \"#utility.yul\":2452:2684   */\n      pop\n        /* \"#utility.yul\":2439:2440   */\n      0x01\n        /* \"#utility.yul\":2436:2437   */\n      dup2\n        /* \"#utility.yul\":2432:2441   */\n      add\n        /* \"#utility.yul\":2427:2441   */\n      swap1\n      pop\n        /* \"#utility.yul\":2392:2684   */\n      jump(tag_138)\n    tag_140:\n        /* \"#utility.yul\":2396:2410   */\n      pop\n        /* \"#utility.yul\":2700:2703   */\n      dup6\n        /* \"#utility.yul\":2693:2703   */\n      swap4\n      pop\n        /* \"#utility.yul\":2085:2709   */\n      pop\n      pop\n      pop\n        /* \"#utility.yul\":1953:2709   */\n      swap3\n      swap2\n      pop\n      pop\n      jump\t// out\n        /* \"#utility.yul\":2715:3104   */\n    tag_12:\n        /* \"#utility.yul\":2866:2870   */\n      0x00\n        /* \"#utility.yul\":2904:2906   */\n      0x20\n        /* \"#utility.yul\":2893:2902   */\n      dup3\n        /* \"#utility.yul\":2889:2907   */\n      add\n        /* \"#utility.yul\":2881:2907   */\n      swap1\n      pop\n        /* \"#utility.yul\":2953:2962   */\n      dup2\n        /* \"#utility.yul\":2947:2951   */\n      dup2\n        /* \"#utility.yul\":2943:2963   */\n      sub\n        /* \"#utility.yul\":2939:2940   */\n      0x00\n        /* \"#utility.yul\":2928:2937   */\n      dup4\n        /* \"#utility.yul\":2924:2941   */\n      add\n        /* \"#utility.yul\":2917:2964   */\n      mstore\n        /* \"#utility.yul\":2981:3097   */\n      tag_144\n        /* \"#utility.yul\":3092:3096   */\n      dup2\n        /* \"#utility.yul\":3083:3089   */\n      dup5\n        /* \"#utility.yul\":2981:3097   */\n      tag_100\n      jump\t// in\n    tag_144:\n        /* \"#utility.yul\":2973:3097   */\n      swap1\n      pop\n        /* \"#utility.yul\":2715:3104   */\n      swap3\n      swap2\n      pop\n      pop\n      jump\t// out\n        /* \"#utility.yul\":3110:3584   */\n    tag_15:\n        /* \"#utility.yul\":3178:3184   */\n      0x00\n        /* \"#utility.yul\":3186:3192   */\n      dup1\n        /* \"#utility.yul\":3235:3237   */\n      0x40\n        /* \"#utility.yul\":3223:3232   */\n      dup4\n        /* \"#utility.yul\":3214:3221   */\n      dup6\n        /* \"#utility.yul\":3210:3233   */\n      sub\n        /* \"#utility.yul\":3206:3238   */\n      slt\n        /* \"#utility.yul\":3203:3322   */\n      iszero\n      tag_146\n      jumpi\n        /* \"#utility.yul\":3241:3320   */\n      tag_147\n      tag_89\n      jump\t// in\n    tag_147:\n        /* \"#utility.yul\":3203:3322   */\n    tag_146:\n        /* \"#utility.yul\":3361:3362   */\n      0x00\n        /* \"#utility.yul\":3386:3439   */\n      tag_148\n        /* \"#utility.yul\":3431:3438   */\n      dup6\n        /* \"#utility.yul\":3422:3428   */\n      dup3\n        /* \"#utility.yul\":3411:3420   */\n      dup7\n        /* \"#utility.yul\":3407:3429   */\n      add\n        /* \"#utility.yul\":3386:3439   */\n      tag_93\n      jump\t// in\n    tag_148:\n        /* \"#utility.yul\":3376:3439   */\n      swap3\n      pop\n        /* \"#utility.yul\":3332:3449   */\n      pop\n        /* \"#utility.yul\":3488:3490   */\n      0x20\n        /* \"#utility.yul\":3514:3567   */\n      tag_149\n        /* \"#utility.yul\":3559:3566   */\n      dup6\n        /* \"#utility.yul\":3550:3556   */\n      dup3\n        /* \"#utility.yul\":3539:3548   */\n      dup7\n        /* \"#utility.yul\":3535:3557   */\n      add\n        /* \"#utility.yul\":3514:3567   */\n      tag_93\n      jump\t// in\n    tag_149:\n        /* \"#utility.yul\":3504:3567   */\n      swap2\n      pop\n        /* \"#utility.yul\":3459:3577   */\n      pop\n        /* \"#utility.yul\":3110:3584   */\n      swap3\n      pop\n      swap3\n      swap1\n      pop\n      jump\t// out\n        /* \"#utility.yul\":3590:3716   */\n    tag_101:\n        /* \"#utility.yul\":3685:3709   */\n      tag_151\n        /* \"#utility.yul\":3703:3708   */\n      dup2\n        /* \"#utility.yul\":3685:3709   */\n      tag_91\n      jump\t// in\n    tag_151:\n        /* \"#utility.yul\":3680:3683   */\n      dup3\n        /* \"#utility.yul\":3673:3710   */\n      mstore\n        /* \"#utility.yul\":3590:3716   */\n      pop\n      pop\n      jump\t// out\n        /* \"#utility.yul\":3722:3960   */\n    tag_18:\n        /* \"#utility.yul\":3823:3827   */\n      0x00\n        /* \"#utility.yul\":3861:3863   */\n      0x20\n        /* \"#utility.yul\":3850:3859   */\n      dup3\n        /* \"#utility.yul\":3846:3864   */\n      add\n        /* \"#utility.yul\":3838:3864   */\n      swap1\n      pop\n        /* \"#utility.yul\":3874:3953   */\n      tag_153\n        /* \"#utility.yul\":3950:3951   */\n      0x00\n        /* \"#utility.yul\":3939:3948   */\n      dup4\n        /* \"#utility.yul\":3935:3952   */\n      add\n        /* \"#utility.yul\":3926:3932   */\n      dup5\n        /* \"#utility.yul\":3874:3953   */\n      tag_101\n      jump\t// in\n    tag_153:\n        /* \"#utility.yul\":3722:3960   */\n      swap3\n      swap2\n      pop\n      pop\n      jump\t// out\n        /* \"#utility.yul\":3966:4056   */\n    tag_102:\n        /* \"#utility.yul\":4000:4007   */\n      0x00\n        /* \"#utility.yul\":4043:4048   */\n      dup2\n        /* \"#utility.yul\":4036:4049   */\n      iszero\n        /* \"#utility.yul\":4029:4050   */\n      iszero\n        /* \"#utility.yul\":4018:4050   */\n      swap1\n      pop\n        /* \"#utility.yul\":3966:4056   */\n      swap2\n      swap1\n      pop\n      jump\t// out\n        /* \"#utility.yul\":4062:4179   */\n    tag_103:\n        /* \"#utility.yul\":4151:4172   */\n      tag_156\n        /* \"#utility.yul\":4166:4171   */\n      dup2\n        /* \"#utility.yul\":4151:4172   */\n      tag_102\n      jump\t// in\n    tag_156:\n        /* \"#utility.yul\":4146:4149   */\n      dup3\n        /* \"#utility.yul\":4139:4173   */\n      mstore\n        /* \"#utility.yul\":4062:4179   */\n      pop\n      pop\n      jump\t// out\n        /* \"#utility.yul\":4185:4411   */\n    tag_31:\n        /* \"#utility.yul\":4280:4284   */\n      0x00\n        /* \"#utility.yul\":4318:4320   */\n      0x20\n        /* \"#utility.yul\":4307:4316   */\n      dup3\n        /* \"#utility.yul\":4303:4321   */\n      add\n        /* \"#utility.yul\":4295:4321   */\n      swap1\n      pop\n        /* \"#utility.yul\":4331:4404   */\n      tag_158\n        /* \"#utility.yul\":4401:4402   */\n      0x00\n        /* \"#utility.yul\":4390:4399   */\n      dup4\n        /* \"#utility.yul\":4386:4403   */\n      add\n        /* \"#utility.yul\":4377:4383   */\n      dup5\n        /* \"#utility.yul\":4331:4404   */\n      tag_103\n      jump\t// in\n    tag_158:\n        /* \"#utility.yul\":4185:4411   */\n      swap3\n      swap2\n      pop\n      pop\n      jump\t// out\n        /* \"#utility.yul\":4417:4597   */\n    tag_35:\n        /* \"#utility.yul\":4465:4542   */\n      0x4e487b7100000000000000000000000000000000000000000000000000000000\n        /* \"#utility.yul\":4462:4463   */\n      0x00\n        /* \"#utility.yul\":4455:4543   */\n      mstore\n        /* \"#utility.yul\":4562:4566   */\n      0x41\n        /* \"#utility.yul\":4559:4560   */\n      0x04\n        /* \"#utility.yul\":4552:4567   */\n      mstore\n        /* \"#utility.yul\":4586:4590   */\n      0x24\n        /* \"#utility.yul\":4583:4584   */\n      0x00\n        /* \"#utility.yul\":4576:4591   */\n      revert\n        /* \"#utility.yul\":4603:4783   */\n    tag_39:\n        /* \"#utility.yul\":4651:4728   */\n      0x4e487b7100000000000000000000000000000000000000000000000000000000\n        /* \"#utility.yul\":4648:4649   */\n      0x00\n        /* \"#utility.yul\":4641:4729   */\n      mstore\n        /* \"#utility.yul\":4748:4752   */\n      0x32\n        /* \"#utility.yul\":4745:4746   */\n      0x04\n        /* \"#utility.yul\":4738:4753   */\n      mstore\n        /* \"#utility.yul\":4772:4776   */\n      0x24\n        /* \"#utility.yul\":4769:4770   */\n      0x00\n        /* \"#utility.yul\":4762:4777   */\n      revert\n        /* \"#utility.yul\":4789:4969   */\n    tag_104:\n        /* \"#utility.yul\":4837:4914   */\n      0x4e487b7100000000000000000000000000000000000000000000000000000000\n        /* \"#utility.yul\":4834:4835   */\n      0x00\n        /* \"#utility.yul\":4827:4915   */\n      mstore\n        /* \"#utility.yul\":4934:4938   */\n      0x11\n        /* \"#utility.yul\":4931:4932   */\n      0x04\n        /* \"#utility.yul\":4924:4939   */\n      mstore\n        /* \"#utility.yul\":4958:4962   */\n      0x24\n        /* \"#utility.yul\":4955:4956   */\n      0x00\n        /* \"#utility.yul\":4948:4963   */\n      revert\n        /* \"#utility.yul\":4975:5169   */\n    tag_47:\n        /* \"#utility.yul\":5015:5019   */\n      0x00\n        /* \"#utility.yul\":5035:5055   */\n      tag_163\n        /* \"#utility.yul\":5053:5054   */\n      dup3\n        /* \"#utility.yul\":5035:5055   */\n      tag_91\n      jump\t// in\n    tag_163:\n        /* \"#utility.yul\":5030:5055   */\n      swap2\n      pop\n        /* \"#utility.yul\":5069:5089   */\n      tag_164\n        /* \"#utility.yul\":5087:5088   */\n      dup4\n        /* \"#utility.yul\":5069:5089   */\n      tag_91\n      jump\t// in\n    tag_164:\n        /* \"#utility.yul\":5064:5089   */\n      swap3\n      pop\n        /* \"#utility.yul\":5113:5114   */\n      dup3\n        /* \"#utility.yul\":5110:5111   */\n      dup3\n        /* \"#utility.yul\":5106:5115   */\n      sub\n        /* \"#utility.yul\":5098:5115   */\n      swap1\n      pop\n        /* \"#utility.yul\":5137:5138   */\n      dup2\n        /* \"#utility.yul\":5131:5135   */\n      dup2\n        /* \"#utility.yul\":5128:5139   */\n      gt\n        /* \"#utility.yul\":5125:5162   */\n      iszero\n      tag_165\n      jumpi\n        /* \"#utility.yul\":5142:5160   */\n      tag_166\n      tag_104\n      jump\t// in\n    tag_166:\n        /* \"#utility.yul\":5125:5162   */\n    tag_165:\n        /* \"#utility.yul\":4975:5169   */\n      swap3\n      swap2\n      pop\n      pop\n      jump\t// out\n        /* \"#utility.yul\":5175:5366   */\n    tag_54:\n        /* \"#utility.yul\":5215:5218   */\n      0x00\n        /* \"#utility.yul\":5234:5254   */\n      tag_168\n        /* \"#utility.yul\":5252:5253   */\n      dup3\n        /* \"#utility.yul\":5234:5254   */\n      tag_91\n      jump\t// in\n    tag_168:\n        /* \"#utility.yul\":5229:5254   */\n      swap2\n      pop\n        /* \"#utility.yul\":5268:5288   */\n      tag_169\n        /* \"#utility.yul\":5286:5287   */\n      dup4\n        /* \"#utility.yul\":5268:5288   */\n      tag_91\n      jump\t// in\n    tag_169:\n        /* \"#utility.yul\":5263:5288   */\n      swap3\n      pop\n        /* \"#utility.yul\":5311:5312   */\n      dup3\n        /* \"#utility.yul\":5308:5309   */\n      dup3\n        /* \"#utility.yul\":5304:5313   */\n      add\n        /* \"#utility.yul\":5297:5313   */\n      swap1\n      pop\n        /* \"#utility.yul\":5332:5335   */\n      dup1\n        /* \"#utility.yul\":5329:5330   */\n      dup3\n        /* \"#utility.yul\":5326:5336   */\n      gt\n        /* \"#utility.yul\":5323:5359   */\n      iszero\n      tag_170\n      jumpi\n        /* \"#utility.yul\":5339:5357   */\n      tag_171\n      tag_104\n      jump\t// in\n    tag_171:\n        /* \"#utility.yul\":5323:5359   */\n    tag_170:\n        /* \"#utility.yul\":5175:5366   */\n      swap3\n      swap2\n      pop\n      pop\n      jump\t// out\n        /* \"#utility.yul\":5372:5541   */\n    tag_105:\n        /* \"#utility.yul\":5456:5467   */\n      0x00\n        /* \"#utility.yul\":5490:5496   */\n      dup3\n        /* \"#utility.yul\":5485:5488   */\n      dup3\n        /* \"#utility.yul\":5478:5497   */\n      mstore\n        /* \"#utility.yul\":5530:5534   */\n      0x20\n        /* \"#utility.yul\":5525:5528   */\n      dup3\n        /* \"#utility.yul\":5521:5535   */\n      add\n        /* \"#utility.yul\":5506:5535   */\n      swap1\n      pop\n        /* \"#utility.yul\":5372:5541   */\n      swap3\n      swap2\n      pop\n      pop\n      jump\t// out\n        /* \"#utility.yul\":5547:5719   */\n    tag_106:\n        /* \"#utility.yul\":5687:5711   */\n      0x6e206d757374206265206e6f6e2d6e6567617469766500000000000000000000\n        /* \"#utility.yul\":5683:5684   */\n      0x00\n        /* \"#utility.yul\":5675:5681   */\n      dup3\n        /* \"#utility.yul\":5671:5685   */\n      add\n        /* \"#utility.yul\":5664:5712   */\n      mstore\n        /* \"#utility.yul\":5547:5719   */\n      pop\n      jump\t// out\n        /* \"#utility.yul\":5725:6091   */\n    tag_107:\n        /* \"#utility.yul\":5867:5870   */\n      0x00\n        /* \"#utility.yul\":5888:5955   */\n      tag_175\n        /* \"#utility.yul\":5952:5954   */\n      0x16\n        /* \"#utility.yul\":5947:5950   */\n      dup4\n        /* \"#utility.yul\":5888:5955   */\n      tag_105\n      jump\t// in\n    tag_175:\n        /* \"#utility.yul\":5881:5955   */\n      swap2\n      pop\n        /* \"#utility.yul\":5964:6057   */\n      tag_176\n        /* \"#utility.yul\":6053:6056   */\n      dup3\n        /* \"#utility.yul\":5964:6057   */\n      tag_106\n      jump\t// in\n    tag_176:\n        /* \"#utility.yul\":6082:6084   */\n      0x20\n        /* \"#utility.yul\":6077:6080   */\n      dup3\n        /* \"#utility.yul\":6073:6085   */\n      add\n        /* \"#utility.yul\":6066:6085   */\n      swap1\n      pop\n        /* \"#utility.yul\":5725:6091   */\n      swap2\n      swap1\n      pop\n      jump\t// out\n        /* \"#utility.yul\":6097:6516   */\n    tag_66:\n        /* \"#utility.yul\":6263:6267   */\n      0x00\n        /* \"#utility.yul\":6301:6303   */\n      0x20\n        /* \"#utility.yul\":6290:6299   */\n      dup3\n        /* \"#utility.yul\":6286:6304   */\n      add\n        /* \"#utility.yul\":6278:6304   */\n      swap1\n      pop\n        /* \"#utility.yul\":6350:6359   */\n      dup2\n        /* \"#utility.yul\":6344:6348   */\n      dup2\n        /* \"#utility.yul\":6340:6360   */\n      sub\n        /* \"#utility.yul\":6336:6337   */\n      0x00\n        /* \"#utility.yul\":6325:6334   */\n      dup4\n        /* \"#utility.yul\":6321:6338   */\n      add\n        /* \"#utility.yul\":6314:6361   */\n      mstore\n        /* \"#utility.yul\":6378:6509   */\n      tag_178\n        /* \"#utility.yul\":6504:6508   */\n      dup2\n        /* \"#utility.yul\":6378:6509   */\n      tag_107\n      jump\t// in\n    tag_178:\n        /* \"#utility.yul\":6370:6509   */\n      swap1\n      pop\n        /* \"#utility.yul\":6097:6516   */\n      swap2\n      swap1\n      pop\n      jump\t// out\n        /* \"#utility.yul\":6522:6932   */\n    tag_71:\n        /* \"#utility.yul\":6562:6569   */\n      0x00\n        /* \"#utility.yul\":6585:6605   */\n      tag_180\n        /* \"#utility.yul\":6603:6604   */\n      dup3\n        /* \"#utility.yul\":6585:6605   */\n      tag_91\n      jump\t// in\n    tag_180:\n        /* \"#utility.yul\":6580:6605   */\n      swap2\n      pop\n        /* \"#utility.yul\":6619:6639   */\n      tag_181\n        /* \"#utility.yul\":6637:6638   */\n      dup4\n        /* \"#utility.yul\":6619:6639   */\n      tag_91\n      jump\t// in\n    tag_181:\n        /* \"#utility.yul\":6614:6639   */\n      swap3\n      pop\n        /* \"#utility.yul\":6674:6675   */\n      dup3\n        /* \"#utility.yul\":6671:6672   */\n      dup3\n        /* \"#utility.yul\":6667:6676   */\n      mul\n        /* \"#utility.yul\":6696:6726   */\n      tag_182\n        /* \"#utility.yul\":6714:6725   */\n      dup2\n        /* \"#utility.yul\":6696:6726   */\n      tag_91\n      jump\t// in\n    tag_182:\n        /* \"#utility.yul\":6685:6726   */\n      swap2\n      pop\n        /* \"#utility.yul\":6875:6876   */\n      dup3\n        /* \"#utility.yul\":6866:6873   */\n      dup3\n        /* \"#utility.yul\":6862:6877   */\n      div\n        /* \"#utility.yul\":6859:6860   */\n      dup5\n        /* \"#utility.yul\":6856:6878   */\n      eq\n        /* \"#utility.yul\":6836:6837   */\n      dup4\n        /* \"#utility.yul\":6829:6838   */\n      iszero\n        /* \"#utility.yul\":6809:6892   */\n      or\n        /* \"#utility.yul\":6786:6925   */\n      tag_183\n      jumpi\n        /* \"#utility.yul\":6905:6923   */\n      tag_184\n      tag_104\n      jump\t// in\n    tag_184:\n        /* \"#utility.yul\":6786:6925   */\n    tag_183:\n        /* \"#utility.yul\":6570:6932   */\n      pop\n        /* \"#utility.yul\":6522:6932   */\n      swap3\n      swap2\n      pop\n      pop\n      jump\t// out\n        /* \"#utility.yul\":6938:7171   */\n    tag_73:\n        /* \"#utility.yul\":6977:6980   */\n      0x00\n        /* \"#utility.yul\":7000:7024   */\n      tag_186\n        /* \"#utility.yul\":7018:7023   */\n      dup3\n        /* \"#utility.yul\":7000:7024   */\n      tag_91\n      jump\t// in\n    tag_186:\n        /* \"#utility.yul\":6991:7024   */\n      swap2\n      pop\n        /* \"#utility.yul\":7046:7112   */\n      0xffffffffffffffffffffffffffffffffffffffffffffffffffffffffffffffff\n        /* \"#utility.yul\":7039:7044   */\n      dup3\n        /* \"#utility.yul\":7036:7113   */\n      sub\n        /* \"#utility.yul\":7033:7136   */\n      tag_187\n      jumpi\n        /* \"#utility.yul\":7116:7134   */\n      tag_188\n      tag_104\n      jump\t// in\n    tag_188:\n        /* \"#utility.yul\":7033:7136   */\n    tag_187:\n        /* \"#utility.yul\":7163:7164   */\n      0x01\n        /* \"#utility.yul\":7156:7161   */\n      dup3\n        /* \"#utility.yul\":7152:7165   */\n      add\n        /* \"#utility.yul\":7145:7165   */\n      swap1\n      pop\n        /* \"#utility.yul\":6938:7171   */\n      swap2\n      swap1\n      pop\n      jump\t// out\n        /* \"#utility.yul\":7177:7357   */\n    tag_108:\n        /* \"#utility.yul\":7225:7302   */\n      0x4e487b7100000000000000000000000000000000000000000000000000000000\n        /* \"#utility.yul\":7222:7223   */\n      0x00\n        /* \"#utility.yul\":7215:7303   */\n      mstore\n        /* \"#utility.yul\":7322:7326   */\n      0x12\n        /* \"#utility.yul\":7319:7320   */\n      0x04\n        /* \"#utility.yul\":7312:7327   */\n      mstore\n        /* \"#utility.yul\":7346:7350   */\n      0x24\n        /* \"#utility.yul\":7343:7344   */\n      0x00\n        /* \"#utility.yul\":7336:7351   */\n      revert\n        /* \"#utility.yul\":7363:7548   */\n    tag_79:\n        /* \"#utility.yul\":7403:7404   */\n      0x00\n        /* \"#utility.yul\":7420:7440   */\n      tag_191\n        /* \"#utility.yul\":7438:7439   */\n      dup3\n        /* \"#utility.yul\":7420:7440   */\n      tag_91\n      jump\t// in\n    tag_191:\n        /* \"#utility.yul\":7415:7440   */\n      swap2\n      pop\n        /* \"#utility.yul\":7454:7474   */\n      tag_192\n        /* \"#utility.yul\":7472:7473   */\n      dup4\n        /* \"#utility.yul\":7454:7474   */\n      tag_91\n      jump\t// in\n    tag_192:\n        /* \"#utility.yul\":7449:7474   */\n      swap3\n      pop\n        /* \"#utility.yul\":7493:7494   */\n      dup3\n        /* \"#utility.yul\":7483:7518   */\n      tag_193\n      jumpi\n        /* \"#utility.yul\":7498:7516   */\n      tag_194\n      tag_108\n      jump\t// in\n    tag_194:\n        /* \"#utility.yul\":7483:7518   */\n    tag_193:\n        /* \"#utility.yul\":7540:7541   */\n      dup3\n        /* \"#utility.yul\":7537:7538   */\n      dup3\n        /* \"#utility.yul\":7533:7542   */\n      div\n        /* \"#utility.yul\":7528:7542   */\n      swap1\n      pop\n        /* \"#utility.yul\":7363:7548   */\n      swap3\n      swap2\n      pop\n      pop\n      jump\t// out\n        /* \"#utility.yul\":7554:7730   */\n    tag_83:\n        /* \"#utility.yul\":7586:7587   */\n      0x00\n        /* \"#utility.yul\":7603:7623   */\n      tag_196\n        /* \"#utility.yul\":7621:7622   */\n      dup3\n        /* \"#utility.yul\":7603:7623   */\n      tag_91\n      jump\t// in\n    tag_196:\n        /* \"#utility.yul\":7598:7623   */\n      swap2\n      pop\n        /* \"#utility.yul\":7637:7657   */\n      tag_197\n        /* \"#utility.yul\":7655:7656   */\n      dup4\n        /* \"#utility.yul\":7637:7657   */\n      tag_91\n      jump\t// in\n    tag_197:\n        /* \"#utility.yul\":7632:7657   */\n      swap3\n      pop\n        /* \"#utility.yul\":7676:7677   */\n      dup3\n        /* \"#utility.yul\":7666:7701   */\n      tag_198\n      jumpi\n        /* \"#utility.yul\":7681:7699   */\n      tag_199\n      tag_108\n      jump\t// in\n    tag_199:\n        /* \"#utility.yul\":7666:7701   */\n    tag_198:\n        /* \"#utility.yul\":7722:7723   */\n      dup3\n        /* \"#utility.yul\":7719:7720   */\n      dup3\n        /* \"#utility.yul\":7715:7724   */\n      mod\n        /* \"#utility.yul\":7710:7724   */\n      swap1\n      pop\n        /* \"#utility.yul\":7554:7730   */\n      swap3\n      swap2\n      pop\n      pop\n      jump\t// out\n        /* \"#utility.yul\":7736:7838   */\n    tag_109:\n        /* \"#utility.yul\":7778:7786   */\n      0x00\n        /* \"#utility.yul\":7825:7830   */\n      dup2\n        /* \"#utility.yul\":7822:7823   */\n      0x01\n        /* \"#utility.yul\":7818:7831   */\n      shr\n        /* \"#utility.yul\":7797:7831   */\n      swap1\n      pop\n        /* \"#utility.yul\":7736:7838   */\n      swap2\n      swap1\n      pop\n      jump\t// out\n        /* \"#utility.yul\":7844:8692   */\n    tag_110:\n        /* \"#utility.yul\":7905:7910   */\n      0x00\n        /* \"#utility.yul\":7912:7916   */\n      dup1\n        /* \"#utility.yul\":7936:7942   */\n      dup3\n        /* \"#utility.yul\":7927:7942   */\n      swap2\n      pop\n        /* \"#utility.yul\":7960:7965   */\n      dup4\n        /* \"#utility.yul\":7951:7965   */\n      swap1\n      pop\n        /* \"#utility.yul\":7974:8686   */\n    tag_202:\n        /* \"#utility.yul\":7995:7996   */\n      0x01\n        /* \"#utility.yul\":7985:7993   */\n      dup6\n        /* \"#utility.yul\":7982:7997   */\n      gt\n        /* \"#utility.yul\":7974:8686   */\n      iszero\n      tag_204\n      jumpi\n        /* \"#utility.yul\":8090:8094   */\n      dup1\n        /* \"#utility.yul\":8085:8088   */\n      dup7\n        /* \"#utility.yul\":8081:8095   */\n      div\n        /* \"#utility.yul\":8075:8079   */\n      dup2\n        /* \"#utility.yul\":8072:8096   */\n      gt\n        /* \"#utility.yul\":8069:8119   */\n      iszero\n      tag_205\n      jumpi\n        /* \"#utility.yul\":8099:8117   */\n      tag_206\n      tag_104\n      jump\t// in\n    tag_206:\n        /* \"#utility.yul\":8069:8119   */\n    tag_205:\n        /* \"#utility.yul\":8149:8150   */\n      0x01\n        /* \"#utility.yul\":8139:8147   */\n      dup6\n        /* \"#utility.yul\":8135:8151   */\n      and\n        /* \"#utility.yul\":8132:8583   */\n      iszero\n      tag_207\n      jumpi\n        /* \"#utility.yul\":8564:8568   */\n      dup1\n        /* \"#utility.yul\":8557:8562   */\n      dup3\n        /* \"#utility.yul\":8553:8569   */\n      mul\n        /* \"#utility.yul\":8544:8569   */\n      swap2\n      pop\n        /* \"#utility.yul\":8132:8583   */\n    tag_207:\n        /* \"#utility.yul\":8614:8618   */\n      dup1\n        /* \"#utility.yul\":8608:8612   */\n      dup2\n        /* \"#utility.yul\":8604:8619   */\n      mul\n        /* \"#utility.yul\":8596:8619   */\n      swap1\n      pop\n        /* \"#utility.yul\":8644:8676   */\n      tag_208\n        /* \"#utility.yul\":8667:8675   */\n      dup6\n        /* \"#utility.yul\":8644:8676   */\n      tag_109\n      jump\t// in\n    tag_208:\n        /* \"#utility.yul\":8632:8676   */\n      swap5\n      pop\n        /* \"#utility.yul\":7974:8686   */\n      jump(tag_202)\n    tag_204:\n        /* \"#utility.yul\":7844:8692   */\n      swap5\n      pop\n      swap5\n      swap3\n      pop\n      pop\n      pop\n      jump\t// out\n        /* \"#utility.yul\":8698:9771   */\n    tag_111:\n        /* \"#utility.yul\":8752:8757   */\n      0x00\n        /* \"#utility.yul\":8943:8951   */\n      dup3\n        /* \"#utility.yul\":8933:8973   */\n      tag_210\n      jumpi\n        /* \"#utility.yul\":8964:8965   */\n      0x01\n        /* \"#utility.yul\":8955:8965   */\n      swap1\n      pop\n        /* \"#utility.yul\":8966:8971   */\n      jump(tag_209)\n        /* \"#utility.yul\":8933:8973   */\n    tag_210:\n        /* \"#utility.yul\":8992:8996   */\n      dup2\n        /* \"#utility.yul\":8982:9018   */\n      tag_211\n      jumpi\n        /* \"#utility.yul\":9009:9010   */\n      0x00\n        /* \"#utility.yul\":9000:9010   */\n      swap1\n      pop\n        /* \"#utility.yul\":9011:9016   */\n      jump(tag_209)\n        /* \"#utility.yul\":8982:9018   */\n    tag_211:\n        /* \"#utility.yul\":9078:9082   */\n      dup2\n        /* \"#utility.yul\":9126:9127   */\n      0x01\n        /* \"#utility.yul\":9121:9148   */\n      dup2\n      eq\n      tag_213\n      jumpi\n        /* \"#utility.yul\":9162:9163   */\n      0x02\n        /* \"#utility.yul\":9157:9348   */\n      dup2\n      eq\n      tag_214\n      jumpi\n        /* \"#utility.yul\":9071:9348   */\n      jump(tag_212)\n        /* \"#utility.yul\":9121:9148   */\n    tag_213:\n        /* \"#utility.yul\":9139:9140   */\n      0x01\n        /* \"#utility.yul\":9130:9140   */\n      swap2\n      pop\n        /* \"#utility.yul\":9141:9146   */\n      pop\n      jump(tag_209)\n        /* \"#utility.yul\":9157:9348   */\n    tag_214:\n        /* \"#utility.yul\":9202:9205   */\n      0xff\n        /* \"#utility.yul\":9192:9200   */\n      dup5\n        /* \"#utility.yul\":9189:9206   */\n      gt\n        /* \"#utility.yul\":9186:9229   */\n      iszero\n      tag_215\n      jumpi\n        /* \"#utility.yul\":9209:9227   */\n      tag_216\n      tag_104\n      jump\t// in\n    tag_216:\n        /* \"#utility.yul\":9186:9229   */\n    tag_215:\n        /* \"#utility.yul\":9258:9266   */\n      dup4\n        /* \"#utility.yul\":9255:9256   */\n      0x02\n        /* \"#utility.yul\":9251:9267   */\n      exp\n        /* \"#utility.yul\":9242:9267   */\n      swap2\n      pop\n        /* \"#utility.yul\":9293:9296   */\n      dup5\n        /* \"#utility.yul\":9286:9291   */\n      dup3\n        /* \"#utility.yul\":9283:9297   */\n      gt\n        /* \"#utility.yul\":9280:9320   */\n      iszero\n      tag_217\n      jumpi\n        /* \"#utility.yul\":9300:9318   */\n      tag_218\n      tag_104\n      jump\t// in\n    tag_218:\n        /* \"#utility.yul\":9280:9320   */\n    tag_217:\n        /* \"#utility.yul\":9333:9338   */\n      pop\n      jump(tag_209)\n        /* \"#utility.yul\":9071:9348   */\n    tag_212:\n      pop\n        /* \"#utility.yul\":9457:9459   */\n      0x20\n        /* \"#utility.yul\":9447:9455   */\n      dup4\n        /* \"#utility.yul\":9444:9460   */\n      lt\n        /* \"#utility.yul\":9438:9441   */\n      0x0133\n        /* \"#utility.yul\":9432:9436   */\n      dup4\n        /* \"#utility.yul\":9429:9442   */\n      lt\n        /* \"#utility.yul\":9425:9461   */\n      and\n        /* \"#utility.yul\":9407:9409   */\n      0x4e\n        /* \"#utility.yul\":9397:9405   */\n      dup5\n        /* \"#utility.yul\":9394:9410   */\n      lt\n        /* \"#utility.yul\":9389:9391   */\n      0x0b\n        /* \"#utility.yul\":9383:9387   */\n      dup5\n        /* \"#utility.yul\":9380:9392   */\n      lt\n        /* \"#utility.yul\":9376:9411   */\n      and\n        /* \"#utility.yul\":9360:9471   */\n      or\n        /* \"#utility.yul\":9357:9603   */\n      iszero\n      tag_219\n      jumpi\n        /* \"#utility.yul\":9513:9521   */\n      dup3\n        /* \"#utility.yul\":9507:9511   */\n      dup3\n        /* \"#utility.yul\":9503:9522   */\n      exp\n        /* \"#utility.yul\":9494:9522   */\n      swap1\n      pop\n        /* \"#utility.yul\":9548:9551   */\n      dup4\n        /* \"#utility.yul\":9541:9546   */\n      dup2\n        /* \"#utility.yul\":9538:9552   */\n      gt\n        /* \"#utility.yul\":9535:9575   */\n      iszero\n      tag_220\n      jumpi\n        /* \"#utility.yul\":9555:9573   */\n      tag_221\n      tag_104\n      jump\t// in\n    tag_221:\n        /* \"#utility.yul\":9535:9575   */\n    tag_220:\n        /* \"#utility.yul\":9588:9593   */\n      jump(tag_209)\n        /* \"#utility.yul\":9357:9603   */\n    tag_219:\n        /* \"#utility.yul\":9628:9670   */\n      tag_222\n        /* \"#utility.yul\":9666:9669   */\n      dup5\n        /* \"#utility.yul\":9656:9664   */\n      dup5\n        /* \"#utility.yul\":9650:9654   */\n      dup5\n        /* \"#utility.yul\":9647:9648   */\n      0x01\n        /* \"#utility.yul\":9628:9670   */\n      tag_110\n      jump\t// in\n    tag_222:\n        /* \"#utility.yul\":9613:9670   */\n      swap3\n      pop\n      swap1\n      pop\n        /* \"#utility.yul\":9702:9706   */\n      dup2\n        /* \"#utility.yul\":9697:9700   */\n      dup5\n        /* \"#utility.yul\":9693:9707   */\n      div\n        /* \"#utility.yul\":9686:9691   */\n      dup2\n        /* \"#utility.yul\":9683:9708   */\n      gt\n        /* \"#utility.yul\":9680:9731   */\n      iszero\n      tag_223\n      jumpi\n        /* \"#utility.yul\":9711:9729   */\n      tag_224\n      tag_104\n      jump\t// in\n    tag_224:\n        /* \"#utility.yul\":9680:9731   */\n    tag_223:\n        /* \"#utility.yul\":9760:9764   */\n      dup2\n        /* \"#utility.yul\":9753:9758   */\n      dup2\n        /* \"#utility.yul\":9749:9765   */\n      mul\n        /* \"#utility.yul\":9740:9765   */\n      swap1\n      pop\n        /* \"#utility.yul\":8698:9771   */\n    tag_209:\n      swap4\n      swap3\n      pop\n      pop\n      pop\n      jump\t// out\n        /* \"#utility.yul\":9777:10062   */\n    tag_85:\n        /* \"#utility.yul\":9837:9842   */\n      0x00\n        /* \"#utility.yul\":9861:9884   */\n      tag_226\n        /* \"#utility.yul\":9879:9883   */\n      dup3\n        /* \"#utility.yul\":9861:9884   */\n      tag_91\n      jump\t// in\n    tag_226:\n        /* \"#utility.yul\":9853:9884   */\n      swap2\n      pop\n        /* \"#utility.yul\":9905:9932   */\n      tag_227\n        /* \"#utility.yul\":9923:9931   */\n      dup4\n        /* \"#utility.yul\":9905:9932   */\n      tag_91\n      jump\t// in\n    tag_227:\n        /* \"#utility.yul\":9893:9932   */\n      swap3\n      pop\n        /* \"#utility.yul\":9951:10055   */\n      tag_228\n        /* \"#utility.yul\":9988:10054   */\n      0xffffffffffffffffffffffffffffffffffffffffffffffffffffffffffffffff\n        /* \"#utility.yul\":9978:9986   */\n      dup5\n        /* \"#utility.yul\":9972:9976   */\n      dup5\n        /* \"#utility.yul\":9951:10055   */\n      tag_111\n      jump\t// in\n    tag_228:\n        /* \"#utility.yul\":9942:10055   */\n      swap1\n      pop\n        /* \"#utility.yul\":9777:10062   */\n      swap3\n      swap2\n      pop\n      pop\n      jump\t// out\n\n    auxdata: 0xa2646970667358221220a93d92c41dd56b7417289a0139adbea969027ae696df96a698e4fe79dc71db0964736f6c634300081a0033\n}\n",
				"bytecode": {
					"linkReferences": {},
					"object": "6109c661004d600b8282823980515f1a6073146041577f4e487b71000000000000000000000000000000000000000000000000000000005f525f60045260245ffd5b305f52607381538281f3fe7300000000000000000000000000000000000000003014608060405260043610610060575f3560e01c806361047ff4146100645780636d5433e6146100945780637ae2b5c7146100c457806383714834146100f4578063fe459d2014610124575b5f80fd5b61007e60048036038101906100799190610402565b610154565b60405161008b91906104e4565b60405180910390f35b6100ae60048036038101906100a99190610504565b61028a565b6040516100bb9190610551565b60405180910390f35b6100de60048036038101906100d99190610504565b6102a5565b6040516100eb9190610551565b60405180910390f35b61010e60048036038101906101099190610402565b6102c0565b60405161011b9190610551565b60405180910390f35b61013e60048036038101906101399190610402565b610341565b60405161014b9190610584565b60405180910390f35b60605f8267ffffffffffffffff8111156101715761017061059d565b5b60405190808252806020026020018201604052801561019f5781602001602082028036833780820191505090505b5090505f815f815181106101b6576101b56105ca565b5b6020026020010181815250506001831115610281576001816001815181106101e1576101e06105ca565b5b6020026020010181815250505f600290505b8381101561027f57816002826102099190610624565b8151811061021a576102196105ca565b5b6020026020010151826001836102309190610624565b81518110610241576102406105ca565b5b60200260200101516102539190610657565b828281518110610266576102656105ca565b5b60200260200101818152505080806001019150506101f3565b505b80915050919050565b5f8183111561029b5782905061029f565b8190505b92915050565b5f818310156102b6578290506102ba565b8190505b92915050565b5f80821015610304576040517f08c379a00000000000000000000000000000000000000000000000000000000081526004016102fb906106e4565b60405180910390fd5b5f600190505f600190505b8381116103375780826103229190610702565b9150808061032f90610743565b91505061030f565b5080915050919050565b5f805f90505f8390505f5b5f821461037557808061035e90610743565b915050600a8261036e91906107b7565b915061034c565b8491505b5f82146103be575f600a8361038e91906107e7565b9050818161039c9190610946565b846103a79190610657565b9350600a836103b691906107b7565b925050610379565b8483149350505050919050565b5f80fd5b5f819050919050565b6103e1816103cf565b81146103eb575f80fd5b50565b5f813590506103fc816103d8565b92915050565b5f60208284031215610417576104166103cb565b5b5f610424848285016103ee565b91505092915050565b5f81519050919050565b5f82825260208201905092915050565b5f819050602082019050919050565b61045f816103cf565b82525050565b5f6104708383610456565b60208301905092915050565b5f602082019050919050565b5f6104928261042d565b61049c8185610437565b93506104a783610447565b805f5b838110156104d75781516104be8882610465565b97506104c98361047c565b9250506001810190506104aa565b5085935050505092915050565b5f6020820190508181035f8301526104fc8184610488565b905092915050565b5f806040838503121561051a576105196103cb565b5b5f610527858286016103ee565b9250506020610538858286016103ee565b9150509250929050565b61054b816103cf565b82525050565b5f6020820190506105645f830184610542565b92915050565b5f8115159050919050565b61057e8161056a565b82525050565b5f6020820190506105975f830184610575565b92915050565b7f4e487b71000000000000000000000000000000000000000000000000000000005f52604160045260245ffd5b7f4e487b71000000000000000000000000000000000000000000000000000000005f52603260045260245ffd5b7f4e487b71000000000000000000000000000000000000000000000000000000005f52601160045260245ffd5b5f61062e826103cf565b9150610639836103cf565b9250828203905081811115610651576106506105f7565b5b92915050565b5f610661826103cf565b915061066c836103cf565b9250828201905080821115610684576106836105f7565b5b92915050565b5f82825260208201905092915050565b7f6e206d757374206265206e6f6e2d6e65676174697665000000000000000000005f82015250565b5f6106ce60168361068a565b91506106d98261069a565b602082019050919050565b5f6020820190508181035f8301526106fb816106c2565b9050919050565b5f61070c826103cf565b9150610717836103cf565b9250828202610725816103cf565b9150828204841483151761073c5761073b6105f7565b5b5092915050565b5f61074d826103cf565b91507fffffffffffffffffffffffffffffffffffffffffffffffffffffffffffffffff820361077f5761077e6105f7565b5b600182019050919050565b7f4e487b71000000000000000000000000000000000000000000000000000000005f52601260045260245ffd5b5f6107c1826103cf565b91506107cc836103cf565b9250826107dc576107db61078a565b5b828204905092915050565b5f6107f1826103cf565b91506107fc836103cf565b92508261080c5761080b61078a565b5b828206905092915050565b5f8160011c9050919050565b5f808291508390505b600185111561086c57808604811115610848576108476105f7565b5b60018516156108575780820291505b808102905061086585610817565b945061082c565b94509492505050565b5f82610884576001905061093f565b81610891575f905061093f565b81600181146108a757600281146108b1576108e0565b600191505061093f565b60ff8411156108c3576108c26105f7565b5b8360020a9150848211156108da576108d96105f7565b5b5061093f565b5060208310610133831016604e8410600b84101617156109155782820a9050838111156109105761090f6105f7565b5b61093f565b6109228484846001610823565b92509050818404811115610939576109386105f7565b5b81810290505b9392505050565b5f610950826103cf565b915061095b836103cf565b92506109887fffffffffffffffffffffffffffffffffffffffffffffffffffffffffffffffff8484610875565b90509291505056fea2646970667358221220a93d92c41dd56b7417289a0139adbea969027ae696df96a698e4fe79dc71db0964736f6c634300081a0033",
					"opcodes": "PUSH2 0x9C6 PUSH2 0x4D PUSH1 0xB DUP3 DUP3 DUP3 CODECOPY DUP1 MLOAD PUSH0 BYTE PUSH1 0x73 EQ PUSH1 0x41 JUMPI PUSH32 0x4E487B7100000000000000000000000000000000000000000000000000000000 PUSH0 MSTORE PUSH0 PUSH1 0x4 MSTORE PUSH1 0x24 PUSH0 REVERT JUMPDEST ADDRESS PUSH0 MSTORE PUSH1 0x73 DUP2 MSTORE8 DUP3 DUP2 RETURN INVALID PUSH20 0x0 ADDRESS EQ PUSH1 0x80 PUSH1 0x40 MSTORE PUSH1 0x4 CALLDATASIZE LT PUSH2 0x60 JUMPI PUSH0 CALLDATALOAD PUSH1 0xE0 SHR DUP1 PUSH4 0x61047FF4 EQ PUSH2 0x64 JUMPI DUP1 PUSH4 0x6D5433E6 EQ PUSH2 0x94 JUMPI DUP1 PUSH4 0x7AE2B5C7 EQ PUSH2 0xC4 JUMPI DUP1 PUSH4 0x83714834 EQ PUSH2 0xF4 JUMPI DUP1 PUSH4 0xFE459D20 EQ PUSH2 0x124 JUMPI JUMPDEST PUSH0 DUP1 REVERT JUMPDEST PUSH2 0x7E PUSH1 0x4 DUP1 CALLDATASIZE SUB DUP2 ADD SWAP1 PUSH2 0x79 SWAP2 SWAP1 PUSH2 0x402 JUMP JUMPDEST PUSH2 0x154 JUMP JUMPDEST PUSH1 0x40 MLOAD PUSH2 0x8B SWAP2 SWAP1 PUSH2 0x4E4 JUMP JUMPDEST PUSH1 0x40 MLOAD DUP1 SWAP2 SUB SWAP1 RETURN JUMPDEST PUSH2 0xAE PUSH1 0x4 DUP1 CALLDATASIZE SUB DUP2 ADD SWAP1 PUSH2 0xA9 SWAP2 SWAP1 PUSH2 0x504 JUMP JUMPDEST PUSH2 0x28A JUMP JUMPDEST PUSH1 0x40 MLOAD PUSH2 0xBB SWAP2 SWAP1 PUSH2 0x551 JUMP JUMPDEST PUSH1 0x40 MLOAD DUP1 SWAP2 SUB SWAP1 RETURN JUMPDEST PUSH2 0xDE PUSH1 0x4 DUP1 CALLDATASIZE SUB DUP2 ADD SWAP1 PUSH2 0xD9 SWAP2 SWAP1 PUSH2 0x504 JUMP JUMPDEST PUSH2 0x2A5 JUMP JUMPDEST PUSH1 0x40 MLOAD PUSH2 0xEB SWAP2 SWAP1 PUSH2 0x551 JUMP JUMPDEST PUSH1 0x40 MLOAD DUP1 SWAP2 SUB SWAP1 RETURN JUMPDEST PUSH2 0x10E PUSH1 0x4 DUP1 CALLDATASIZE SUB DUP2 ADD SWAP1 PUSH2 0x109 SWAP2 SWAP1 PUSH2 0x402 JUMP JUMPDEST PUSH2 0x2C0 JUMP JUMPDEST PUSH1 0x40 MLOAD PUSH2 0x11B SWAP2 SWAP1 PUSH2 0x551 JUMP JUMPDEST PUSH1 0x40 MLOAD DUP1 SWAP2 SUB SWAP1 RETURN JUMPDEST PUSH2 0x13E PUSH1 0x4 DUP1 CALLDATASIZE SUB DUP2 ADD SWAP1 PUSH2 0x139 SWAP2 SWAP1 PUSH2 0x402 JUMP JUMPDEST PUSH2 0x341 JUMP JUMPDEST PUSH1 0x40 MLOAD PUSH2 0x14B SWAP2 SWAP1 PUSH2 0x584 JUMP JUMPDEST PUSH1 0x40 MLOAD DUP1 SWAP2 SUB SWAP1 RETURN JUMPDEST PUSH1 0x60 PUSH0 DUP3 PUSH8 0xFFFFFFFFFFFFFFFF DUP2 GT ISZERO PUSH2 0x171 JUMPI PUSH2 0x170 PUSH2 0x59D JUMP JUMPDEST JUMPDEST PUSH1 0x40 MLOAD SWAP1 DUP1 DUP3 MSTORE DUP1 PUSH1 0x20 MUL PUSH1 0x20 ADD DUP3 ADD PUSH1 0x40 MSTORE DUP1 ISZERO PUSH2 0x19F JUMPI DUP2 PUSH1 0x20 ADD PUSH1 0x20 DUP3 MUL DUP1 CALLDATASIZE DUP4 CALLDATACOPY DUP1 DUP3 ADD SWAP2 POP POP SWAP1 POP JUMPDEST POP SWAP1 POP PUSH0 DUP2 PUSH0 DUP2 MLOAD DUP2 LT PUSH2 0x1B6 JUMPI PUSH2 0x1B5 PUSH2 0x5CA JUMP JUMPDEST JUMPDEST PUSH1 0x20 MUL PUSH1 0x20 ADD ADD DUP2 DUP2 MSTORE POP POP PUSH1 0x1 DUP4 GT ISZERO PUSH2 0x281 JUMPI PUSH1 0x1 DUP2 PUSH1 0x1 DUP2 MLOAD DUP2 LT PUSH2 0x1E1 JUMPI PUSH2 0x1E0 PUSH2 0x5CA JUMP JUMPDEST JUMPDEST PUSH1 0x20 MUL PUSH1 0x20 ADD ADD DUP2 DUP2 MSTORE POP POP PUSH0 PUSH1 0x2 SWAP1 POP JUMPDEST DUP4 DUP2 LT ISZERO PUSH2 0x27F JUMPI DUP2 PUSH1 0x2 DUP3 PUSH2 0x209 SWAP2 SWAP1 PUSH2 0x624 JUMP JUMPDEST DUP2 MLOAD DUP2 LT PUSH2 0x21A JUMPI PUSH2 0x219 PUSH2 0x5CA JUMP JUMPDEST JUMPDEST PUSH1 0x20 MUL PUSH1 0x20 ADD ADD MLOAD DUP3 PUSH1 0x1 DUP4 PUSH2 0x230 SWAP2 SWAP1 PUSH2 0x624 JUMP JUMPDEST DUP2 MLOAD DUP2 LT PUSH2 0x241 JUMPI PUSH2 0x240 PUSH2 0x5CA JUMP JUMPDEST JUMPDEST PUSH1 0x20 MUL PUSH1 0x20 ADD ADD MLOAD PUSH2 0x253 SWAP2 SWAP1 PUSH2 0x657 JUMP JUMPDEST DUP3 DUP3 DUP2 MLOAD DUP2 LT PUSH2 0x266 JUMPI PUSH2 0x265 PUSH2 0x5CA JUMP JUMPDEST JUMPDEST PUSH1 0x20 MUL PUSH1 0x20 ADD ADD DUP2 DUP2 MSTORE POP POP DUP1 DUP1 PUSH1 0x1 ADD SWAP2 POP POP PUSH2 0x1F3 JUMP JUMPDEST POP JUMPDEST DUP1 SWAP2 POP POP SWAP2 SWAP1 POP JUMP JUMPDEST PUSH0 DUP2 DUP4 GT ISZERO PUSH2 0x29B JUMPI DUP3 SWAP1 POP PUSH2 0x29F JUMP JUMPDEST DUP2 SWAP1 POP JUMPDEST SWAP3 SWAP2 POP POP JUMP JUMPDEST PUSH0 DUP2 DUP4 LT ISZERO PUSH2 0x2B6 JUMPI DUP3 SWAP1 POP PUSH2 0x2BA JUMP JUMPDEST DUP2 SWAP1 POP JUMPDEST SWAP3 SWAP2 POP POP JUMP JUMPDEST PUSH0 DUP1 DUP3 LT ISZERO PUSH2 0x304 JUMPI PUSH1 0x40 MLOAD PUSH32 0x8C379A000000000000000000000000000000000000000000000000000000000 DUP2 MSTORE PUSH1 0x4 ADD PUSH2 0x2FB SWAP1 PUSH2 0x6E4 JUMP JUMPDEST PUSH1 0x40 MLOAD DUP1 SWAP2 SUB SWAP1 REVERT JUMPDEST PUSH0 PUSH1 0x1 SWAP1 POP PUSH0 PUSH1 0x1 SWAP1 POP JUMPDEST DUP4 DUP2 GT PUSH2 0x337 JUMPI DUP1 DUP3 PUSH2 0x322 SWAP2 SWAP1 PUSH2 0x702 JUMP JUMPDEST SWAP2 POP DUP1 DUP1 PUSH2 0x32F SWAP1 PUSH2 0x743 JUMP JUMPDEST SWAP2 POP POP PUSH2 0x30F JUMP JUMPDEST POP DUP1 SWAP2 POP POP SWAP2 SWAP1 POP JUMP JUMPDEST PUSH0 DUP1 PUSH0 SWAP1 POP PUSH0 DUP4 SWAP1 POP PUSH0 JUMPDEST PUSH0 DUP3 EQ PUSH2 0x375 JUMPI DUP1 DUP1 PUSH2 0x35E SWAP1 PUSH2 0x743 JUMP JUMPDEST SWAP2 POP POP PUSH1 0xA DUP3 PUSH2 0x36E SWAP2 SWAP1 PUSH2 0x7B7 JUMP JUMPDEST SWAP2 POP PUSH2 0x34C JUMP JUMPDEST DUP5 SWAP2 POP JUMPDEST PUSH0 DUP3 EQ PUSH2 0x3BE JUMPI PUSH0 PUSH1 0xA DUP4 PUSH2 0x38E SWAP2 SWAP1 PUSH2 0x7E7 JUMP JUMPDEST SWAP1 POP DUP2 DUP2 PUSH2 0x39C SWAP2 SWAP1 PUSH2 0x946 JUMP JUMPDEST DUP5 PUSH2 0x3A7 SWAP2 SWAP1 PUSH2 0x657 JUMP JUMPDEST SWAP4 POP PUSH1 0xA DUP4 PUSH2 0x3B6 SWAP2 SWAP1 PUSH2 0x7B7 JUMP JUMPDEST SWAP3 POP POP PUSH2 0x379 JUMP JUMPDEST DUP5 DUP4 EQ SWAP4 POP POP POP POP SWAP2 SWAP1 POP JUMP JUMPDEST PUSH0 DUP1 REVERT JUMPDEST PUSH0 DUP2 SWAP1 POP SWAP2 SWAP1 POP JUMP JUMPDEST PUSH2 0x3E1 DUP2 PUSH2 0x3CF JUMP JUMPDEST DUP2 EQ PUSH2 0x3EB JUMPI PUSH0 DUP1 REVERT JUMPDEST POP JUMP JUMPDEST PUSH0 DUP2 CALLDATALOAD SWAP1 POP PUSH2 0x3FC DUP2 PUSH2 0x3D8 JUMP JUMPDEST SWAP3 SWAP2 POP POP JUMP JUMPDEST PUSH0 PUSH1 0x20 DUP3 DUP5 SUB SLT ISZERO PUSH2 0x417 JUMPI PUSH2 0x416 PUSH2 0x3CB JUMP JUMPDEST JUMPDEST PUSH0 PUSH2 0x424 DUP5 DUP3 DUP6 ADD PUSH2 0x3EE JUMP JUMPDEST SWAP2 POP POP SWAP3 SWAP2 POP POP JUMP JUMPDEST PUSH0 DUP2 MLOAD SWAP1 POP SWAP2 SWAP1 POP JUMP JUMPDEST PUSH0 DUP3 DUP3 MSTORE PUSH1 0x20 DUP3 ADD SWAP1 POP SWAP3 SWAP2 POP POP JUMP JUMPDEST PUSH0 DUP2 SWAP1 POP PUSH1 0x20 DUP3 ADD SWAP1 POP SWAP2 SWAP1 POP JUMP JUMPDEST PUSH2 0x45F DUP2 PUSH2 0x3CF JUMP JUMPDEST DUP3 MSTORE POP POP JUMP JUMPDEST PUSH0 PUSH2 0x470 DUP4 DUP4 PUSH2 0x456 JUMP JUMPDEST PUSH1 0x20 DUP4 ADD SWAP1 POP SWAP3 SWAP2 POP POP JUMP JUMPDEST PUSH0 PUSH1 0x20 DUP3 ADD SWAP1 POP SWAP2 SWAP1 POP JUMP JUMPDEST PUSH0 PUSH2 0x492 DUP3 PUSH2 0x42D JUMP JUMPDEST PUSH2 0x49C DUP2 DUP6 PUSH2 0x437 JUMP JUMPDEST SWAP4 POP PUSH2 0x4A7 DUP4 PUSH2 0x447 JUMP JUMPDEST DUP1 PUSH0 JUMPDEST DUP4 DUP2 LT ISZERO PUSH2 0x4D7 JUMPI DUP2 MLOAD PUSH2 0x4BE DUP9 DUP3 PUSH2 0x465 JUMP JUMPDEST SWAP8 POP PUSH2 0x4C9 DUP4 PUSH2 0x47C JUMP JUMPDEST SWAP3 POP POP PUSH1 0x1 DUP2 ADD SWAP1 POP PUSH2 0x4AA JUMP JUMPDEST POP DUP6 SWAP4 POP POP POP POP SWAP3 SWAP2 POP POP JUMP JUMPDEST PUSH0 PUSH1 0x20 DUP3 ADD SWAP1 POP DUP2 DUP2 SUB PUSH0 DUP4 ADD MSTORE PUSH2 0x4FC DUP2 DUP5 PUSH2 0x488 JUMP JUMPDEST SWAP1 POP SWAP3 SWAP2 POP POP JUMP JUMPDEST PUSH0 DUP1 PUSH1 0x40 DUP4 DUP6 SUB SLT ISZERO PUSH2 0x51A JUMPI PUSH2 0x519 PUSH2 0x3CB JUMP JUMPDEST JUMPDEST PUSH0 PUSH2 0x527 DUP6 DUP3 DUP7 ADD PUSH2 0x3EE JUMP JUMPDEST SWAP3 POP POP PUSH1 0x20 PUSH2 0x538 DUP6 DUP3 DUP7 ADD PUSH2 0x3EE JUMP JUMPDEST SWAP2 POP POP SWAP3 POP SWAP3 SWAP1 POP JUMP JUMPDEST PUSH2 0x54B DUP2 PUSH2 0x3CF JUMP JUMPDEST DUP3 MSTORE POP POP JUMP JUMPDEST PUSH0 PUSH1 0x20 DUP3 ADD SWAP1 POP PUSH2 0x564 PUSH0 DUP4 ADD DUP5 PUSH2 0x542 JUMP JUMPDEST SWAP3 SWAP2 POP POP JUMP JUMPDEST PUSH0 DUP2 ISZERO ISZERO SWAP1 POP SWAP2 SWAP1 POP JUMP JUMPDEST PUSH2 0x57E DUP2 PUSH2 0x56A JUMP JUMPDEST DUP3 MSTORE POP POP JUMP JUMPDEST PUSH0 PUSH1 0x20 DUP3 ADD SWAP1 POP PUSH2 0x597 PUSH0 DUP4 ADD DUP5 PUSH2 0x575 JUMP JUMPDEST SWAP3 SWAP2 POP POP JUMP JUMPDEST PUSH32 0x4E487B7100000000000000000000000000000000000000000000000000000000 PUSH0 MSTORE PUSH1 0x41 PUSH1 0x4 MSTORE PUSH1 0x24 PUSH0 REVERT JUMPDEST PUSH32 0x4E487B7100000000000000000000000000000000000000000000000000000000 PUSH0 MSTORE PUSH1 0x32 PUSH1 0x4 MSTORE PUSH1 0x24 PUSH0 REVERT JUMPDEST PUSH32 0x4E487B7100000000000000000000000000000000000000000000000000000000 PUSH0 MSTORE PUSH1 0x11 PUSH1 0x4 MSTORE PUSH1 0x24 PUSH0 REVERT JUMPDEST PUSH0 PUSH2 0x62E DUP3 PUSH2 0x3CF JUMP JUMPDEST SWAP2 POP PUSH2 0x639 DUP4 PUSH2 0x3CF JUMP JUMPDEST SWAP3 POP DUP3 DUP3 SUB SWAP1 POP DUP2 DUP2 GT ISZERO PUSH2 0x651 JUMPI PUSH2 0x650 PUSH2 0x5F7 JUMP JUMPDEST JUMPDEST SWAP3 SWAP2 POP POP JUMP JUMPDEST PUSH0 PUSH2 0x661 DUP3 PUSH2 0x3CF JUMP JUMPDEST SWAP2 POP PUSH2 0x66C DUP4 PUSH2 0x3CF JUMP JUMPDEST SWAP3 POP DUP3 DUP3 ADD SWAP1 POP DUP1 DUP3 GT ISZERO PUSH2 0x684 JUMPI PUSH2 0x683 PUSH2 0x5F7 JUMP JUMPDEST JUMPDEST SWAP3 SWAP2 POP POP JUMP JUMPDEST PUSH0 DUP3 DUP3 MSTORE PUSH1 0x20 DUP3 ADD SWAP1 POP SWAP3 SWAP2 POP POP JUMP JUMPDEST PUSH32 0x6E206D757374206265206E6F6E2D6E6567617469766500000000000000000000 PUSH0 DUP3 ADD MSTORE POP JUMP JUMPDEST PUSH0 PUSH2 0x6CE PUSH1 0x16 DUP4 PUSH2 0x68A JUMP JUMPDEST SWAP2 POP PUSH2 0x6D9 DUP3 PUSH2 0x69A JUMP JUMPDEST PUSH1 0x20 DUP3 ADD SWAP1 POP SWAP2 SWAP1 POP JUMP JUMPDEST PUSH0 PUSH1 0x20 DUP3 ADD SWAP1 POP DUP2 DUP2 SUB PUSH0 DUP4 ADD MSTORE PUSH2 0x6FB DUP2 PUSH2 0x6C2 JUMP JUMPDEST SWAP1 POP SWAP2 SWAP1 POP JUMP JUMPDEST PUSH0 PUSH2 0x70C DUP3 PUSH2 0x3CF JUMP JUMPDEST SWAP2 POP PUSH2 0x717 DUP4 PUSH2 0x3CF JUMP JUMPDEST SWAP3 POP DUP3 DUP3 MUL PUSH2 0x725 DUP2 PUSH2 0x3CF JUMP JUMPDEST SWAP2 POP DUP3 DUP3 DIV DUP5 EQ DUP4 ISZERO OR PUSH2 0x73C JUMPI PUSH2 0x73B PUSH2 0x5F7 JUMP JUMPDEST JUMPDEST POP SWAP3 SWAP2 POP POP JUMP JUMPDEST PUSH0 PUSH2 0x74D DUP3 PUSH2 0x3CF JUMP JUMPDEST SWAP2 POP PUSH32 0xFFFFFFFFFFFFFFFFFFFFFFFFFFFFFFFFFFFFFFFFFFFFFFFFFFFFFFFFFFFFFFFF DUP3 SUB PUSH2 0x77F JUMPI PUSH2 0x77E PUSH2 0x5F7 JUMP JUMPDEST JUMPDEST PUSH1 0x1 DUP3 ADD SWAP1 POP SWAP2 SWAP1 POP JUMP JUMPDEST PUSH32 0x4E487B7100000000000000000000000000000000000000000000000000000000 PUSH0 MSTORE PUSH1 0x12 PUSH1 0x4 MSTORE PUSH1 0x24 PUSH0 REVERT JUMPDEST PUSH0 PUSH2 0x7C1 DUP3 PUSH2 0x3CF JUMP JUMPDEST SWAP2 POP PUSH2 0x7CC DUP4 PUSH2 0x3CF JUMP JUMPDEST SWAP3 POP DUP3 PUSH2 0x7DC JUMPI PUSH2 0x7DB PUSH2 0x78A JUMP JUMPDEST JUMPDEST DUP3 DUP3 DIV SWAP1 POP SWAP3 SWAP2 POP POP JUMP JUMPDEST PUSH0 PUSH2 0x7F1 DUP3 PUSH2 0x3CF JUMP JUMPDEST SWAP2 POP PUSH2 0x7FC DUP4 PUSH2 0x3CF JUMP JUMPDEST SWAP3 POP DUP3 PUSH2 0x80C JUMPI PUSH2 0x80B PUSH2 0x78A JUMP JUMPDEST JUMPDEST DUP3 DUP3 MOD SWAP1 POP SWAP3 SWAP2 POP POP JUMP JUMPDEST PUSH0 DUP2 PUSH1 0x1 SHR SWAP1 POP SWAP2 SWAP1 POP JUMP JUMPDEST PUSH0 DUP1 DUP3 SWAP2 POP DUP4 SWAP1 POP JUMPDEST PUSH1 0x1 DUP6 GT ISZERO PUSH2 0x86C JUMPI DUP1 DUP7 DIV DUP2 GT ISZERO PUSH2 0x848 JUMPI PUSH2 0x847 PUSH2 0x5F7 JUMP JUMPDEST JUMPDEST PUSH1 0x1 DUP6 AND ISZERO PUSH2 0x857 JUMPI DUP1 DUP3 MUL SWAP2 POP JUMPDEST DUP1 DUP2 MUL SWAP1 POP PUSH2 0x865 DUP6 PUSH2 0x817 JUMP JUMPDEST SWAP5 POP PUSH2 0x82C JUMP JUMPDEST SWAP5 POP SWAP5 SWAP3 POP POP POP JUMP JUMPDEST PUSH0 DUP3 PUSH2 0x884 JUMPI PUSH1 0x1 SWAP1 POP PUSH2 0x93F JUMP JUMPDEST DUP2 PUSH2 0x891 JUMPI PUSH0 SWAP1 POP PUSH2 0x93F JUMP JUMPDEST DUP2 PUSH1 0x1 DUP2 EQ PUSH2 0x8A7 JUMPI PUSH1 0x2 DUP2 EQ PUSH2 0x8B1 JUMPI PUSH2 0x8E0 JUMP JUMPDEST PUSH1 0x1 SWAP2 POP POP PUSH2 0x93F JUMP JUMPDEST PUSH1 0xFF DUP5 GT ISZERO PUSH2 0x8C3 JUMPI PUSH2 0x8C2 PUSH2 0x5F7 JUMP JUMPDEST JUMPDEST DUP4 PUSH1 0x2 EXP SWAP2 POP DUP5 DUP3 GT ISZERO PUSH2 0x8DA JUMPI PUSH2 0x8D9 PUSH2 0x5F7 JUMP JUMPDEST JUMPDEST POP PUSH2 0x93F JUMP JUMPDEST POP PUSH1 0x20 DUP4 LT PUSH2 0x133 DUP4 LT AND PUSH1 0x4E DUP5 LT PUSH1 0xB DUP5 LT AND OR ISZERO PUSH2 0x915 JUMPI DUP3 DUP3 EXP SWAP1 POP DUP4 DUP2 GT ISZERO PUSH2 0x910 JUMPI PUSH2 0x90F PUSH2 0x5F7 JUMP JUMPDEST JUMPDEST PUSH2 0x93F JUMP JUMPDEST PUSH2 0x922 DUP5 DUP5 DUP5 PUSH1 0x1 PUSH2 0x823 JUMP JUMPDEST SWAP3 POP SWAP1 POP DUP2 DUP5 DIV DUP2 GT ISZERO PUSH2 0x939 JUMPI PUSH2 0x938 PUSH2 0x5F7 JUMP JUMPDEST JUMPDEST DUP2 DUP2 MUL SWAP1 POP JUMPDEST SWAP4 SWAP3 POP POP POP JUMP JUMPDEST PUSH0 PUSH2 0x950 DUP3 PUSH2 0x3CF JUMP JUMPDEST SWAP2 POP PUSH2 0x95B DUP4 PUSH2 0x3CF JUMP JUMPDEST SWAP3 POP PUSH2 0x988 PUSH32 0xFFFFFFFFFFFFFFFFFFFFFFFFFFFFFFFFFFFFFFFFFFFFFFFFFFFFFFFFFFFFFFFF DUP5 DUP5 PUSH2 0x875 JUMP JUMPDEST SWAP1 POP SWAP3 SWAP2 POP POP JUMP INVALID LOG2 PUSH5 0x6970667358 0x22 SLT KECCAK256 0xA9 RETURNDATASIZE SWAP3 0xC4 SAR 0xD5 PUSH12 0x7417289A0139ADBEA969027A 0xE6 SWAP7 0xDF SWAP7 0xA6 SWAP9 0xE4 INVALID PUSH26 0xDC71DB0964736F6C634300081A00330000000000000000000000 "
				},
				"gasEstimates": {
					"creation": {
						"codeDepositCost": "500400",
						"executionCost": "560",
						"totalCost": "500960"
					},
					"external": {
						"factorial(uint256)": "infinite",
						"fibonacci(uint256)": "infinite",
						"isArmstrong(uint256)": "infinite",
						"max(uint256,uint256)": "infinite",
						"min(uint256,uint256)": "infinite"
					}
				},
				"methodIdentifiers": {
					"factorial(uint256)": "83714834",
					"fibonacci(uint256)": "61047ff4",
					"isArmstrong(uint256)": "fe459d20",
					"max(uint256,uint256)": "6d5433e6",
					"min(uint256,uint256)": "7ae2b5c7"
				}
			},
			"storageLayout": {
				"storage": [],
				"types": null
			},
			"userdoc": {
				"kind": "user",
				"methods": {},
				"version": 1
			}
		}
	}
}