{
	"contracts/DAY07/MathTest.sol": {
		"MathTest": {
			"abi": [
				{
					"inputs": [
						{
							"internalType": "uint256",
							"name": "n",
							"type": "uint256"
						}
					],
					"name": "testFactorial",
					"outputs": [
						{
							"internalType": "uint256",
							"name": "",
							"type": "uint256"
						}
					],
					"stateMutability": "pure",
					"type": "function"
				},
				{
					"inputs": [
						{
							"internalType": "uint256",
							"name": "n",
							"type": "uint256"
						}
					],
					"name": "testFibonacci",
					"outputs": [
						{
							"internalType": "uint256[]",
							"name": "",
							"type": "uint256[]"
						}
					],
					"stateMutability": "pure",
					"type": "function"
				},
				{
					"inputs": [
						{
							"internalType": "uint256",
							"name": "number",
							"type": "uint256"
						}
					],
					"name": "testIsArmstrong",
					"outputs": [
						{
							"internalType": "bool",
							"name": "",
							"type": "bool"
						}
					],
					"stateMutability": "pure",
					"type": "function"
				},
				{
					"inputs": [
						{
							"internalType": "uint256",
							"name": "a",
							"type": "uint256"
						},
						{
							"internalType": "uint256",
							"name": "b",
							"type": "uint256"
						}
					],
					"name": "testMaxMin",
					"outputs": [
						{
							"internalType": "uint256",
							"name": "maxNum",
							"type": "uint256"
						},
						{
							"internalType": "uint256",
							"name": "minNum",
							"type": "uint256"
						}
					],
					"stateMutability": "pure",
					"type": "function"
				}
			],
			"devdoc": {
				"kind": "dev",
				"methods": {},
				"version": 1
			},
			"evm": {
				"assembly": "    /* \"contracts/DAY07/MathTest.sol\":121:855  contract MathTest {... */\n  mstore(0x40, 0x80)\n  callvalue\n  dup1\n  iszero\n  tag_1\n  jumpi\n  0x00\n  dup1\n  revert\ntag_1:\n  pop\n  dataSize(sub_0)\n  dup1\n  dataOffset(sub_0)\n  0x00\n  codecopy\n  0x00\n  return\nstop\n\nsub_0: assembly {\n        /* \"contracts/DAY07/MathTest.sol\":121:855  contract MathTest {... */\n      mstore(0x40, 0x80)\n      callvalue\n      dup1\n      iszero\n      tag_1\n      jumpi\n      0x00\n      dup1\n      revert\n    tag_1:\n      pop\n      jumpi(tag_2, lt(calldatasize, 0x04))\n      shr(0xe0, calldataload(0x00))\n      dup1\n      0x05d09ad7\n      eq\n      tag_3\n      jumpi\n      dup1\n      0x163b0e51\n      eq\n      tag_4\n      jumpi\n      dup1\n      0x49ee380d\n      eq\n      tag_5\n      jumpi\n      dup1\n      0x8c87bb0a\n      eq\n      tag_6\n      jumpi\n    tag_2:\n      0x00\n      dup1\n      revert\n        /* \"contracts/DAY07/MathTest.sol\":738:852  function testIsArmstrong(uint256 number) public pure returns (bool) {... */\n    tag_3:\n      tag_7\n      0x04\n      dup1\n      calldatasize\n      sub\n      dup2\n      add\n      swap1\n      tag_8\n      swap2\n      swap1\n      tag_9\n      jump\t// in\n    tag_8:\n      tag_10\n      jump\t// in\n    tag_7:\n      mload(0x40)\n      tag_11\n      swap2\n      swap1\n      tag_12\n      jump\t// in\n    tag_11:\n      mload(0x40)\n      dup1\n      swap2\n      sub\n      swap1\n      return\n        /* \"contracts/DAY07/MathTest.sol\":426:529  function testFactorial(uint256 n) public pure returns (uint256) {... */\n    tag_4:\n      tag_13\n      0x04\n      dup1\n      calldatasize\n      sub\n      dup2\n      add\n      swap1\n      tag_14\n      swap2\n      swap1\n      tag_9\n      jump\t// in\n    tag_14:\n      tag_15\n      jump\t// in\n    tag_13:\n      mload(0x40)\n      tag_16\n      swap2\n      swap1\n      tag_17\n      jump\t// in\n    tag_16:\n      mload(0x40)\n      dup1\n      swap2\n      sub\n      swap1\n      return\n        /* \"contracts/DAY07/MathTest.sol\":223:382  function testMaxMin(uint256 a, uint256 b) public pure returns (uint256 maxNum, uint256 minNum) {... */\n    tag_5:\n      tag_18\n      0x04\n      dup1\n      calldatasize\n      sub\n      dup2\n      add\n      swap1\n      tag_19\n      swap2\n      swap1\n      tag_20\n      jump\t// in\n    tag_19:\n      tag_21\n      jump\t// in\n    tag_18:\n      mload(0x40)\n      tag_22\n      swap3\n      swap2\n      swap1\n      tag_23\n      jump\t// in\n    tag_22:\n      mload(0x40)\n      dup1\n      swap2\n      sub\n      swap1\n      return\n        /* \"contracts/DAY07/MathTest.sol\":573:685  function testFibonacci(uint256 n) public pure returns (uint256[] memory) {... */\n    tag_6:\n      tag_24\n      0x04\n      dup1\n      calldatasize\n      sub\n      dup2\n      add\n      swap1\n      tag_25\n      swap2\n      swap1\n      tag_9\n      jump\t// in\n    tag_25:\n      tag_26\n      jump\t// in\n    tag_24:\n      mload(0x40)\n      tag_27\n      swap2\n      swap1\n      tag_28\n      jump\t// in\n    tag_27:\n      mload(0x40)\n      dup1\n      swap2\n      sub\n      swap1\n      return\n        /* \"contracts/DAY07/MathTest.sol\":738:852  function testIsArmstrong(uint256 number) public pure returns (bool) {... */\n    tag_10:\n        /* \"contracts/DAY07/MathTest.sol\":800:804  bool */\n      0x00\n        /* \"contracts/DAY07/MathTest.sol\":824:830  number */\n      dup2\n        /* \"contracts/DAY07/MathTest.sol\":824:842  number.isArmstrong */\n      linkerSymbol(\"99aea197276ed7c9ab83708c433d5977f5da891dc1640b601e72e3e5d8335c92\")\n      0xfe459d20\n      swap1\n      swap2\n        /* \"contracts/DAY07/MathTest.sol\":824:844  number.isArmstrong() */\n      mload(0x40)\n      dup3\n      0xffffffff\n      and\n      0xe0\n      shl\n      dup2\n      mstore\n      0x04\n      add\n      tag_30\n      swap2\n      swap1\n      tag_31\n      jump\t// in\n    tag_30:\n      0x20\n      mload(0x40)\n      dup1\n      dup4\n      sub\n      dup2\n      dup7\n      gas\n      delegatecall\n      iszero\n      dup1\n      iszero\n      tag_33\n      jumpi\n      returndatasize\n      0x00\n      dup1\n      returndatacopy\n      revert(0x00, returndatasize)\n    tag_33:\n      pop\n      pop\n      pop\n      pop\n      mload(0x40)\n      returndatasize\n      not(0x1f)\n      0x1f\n      dup3\n      add\n      and\n      dup3\n      add\n      dup1\n      0x40\n      mstore\n      pop\n      dup2\n      add\n      swap1\n      tag_34\n      swap2\n      swap1\n      tag_35\n      jump\t// in\n    tag_34:\n        /* \"contracts/DAY07/MathTest.sol\":817:844  return number.isArmstrong() */\n      swap1\n      pop\n        /* \"contracts/DAY07/MathTest.sol\":738:852  function testIsArmstrong(uint256 number) public pure returns (bool) {... */\n      swap2\n      swap1\n      pop\n      jump\t// out\n        /* \"contracts/DAY07/MathTest.sol\":426:529  function testFactorial(uint256 n) public pure returns (uint256) {... */\n    tag_15:\n        /* \"contracts/DAY07/MathTest.sol\":481:488  uint256 */\n      0x00\n        /* \"contracts/DAY07/MathTest.sol\":508:509  n */\n      dup2\n        /* \"contracts/DAY07/MathTest.sol\":508:519  n.factorial */\n      linkerSymbol(\"99aea197276ed7c9ab83708c433d5977f5da891dc1640b601e72e3e5d8335c92\")\n      0x83714834\n      swap1\n      swap2\n        /* \"contracts/DAY07/MathTest.sol\":508:521  n.factorial() */\n      mload(0x40)\n      dup3\n      0xffffffff\n      and\n      0xe0\n      shl\n      dup2\n      mstore\n      0x04\n      add\n      tag_37\n      swap2\n      swap1\n      tag_31\n      jump\t// in\n    tag_37:\n      0x20\n      mload(0x40)\n      dup1\n      dup4\n      sub\n      dup2\n      dup7\n      gas\n      delegatecall\n      iszero\n      dup1\n      iszero\n      tag_39\n      jumpi\n      returndatasize\n      0x00\n      dup1\n      returndatacopy\n      revert(0x00, returndatasize)\n    tag_39:\n      pop\n      pop\n      pop\n      pop\n      mload(0x40)\n      returndatasize\n      not(0x1f)\n      0x1f\n      dup3\n      add\n      and\n      dup3\n      add\n      dup1\n      0x40\n      mstore\n      pop\n      dup2\n      add\n      swap1\n      tag_40\n      swap2\n      swap1\n      tag_41\n      jump\t// in\n    tag_40:\n        /* \"contracts/DAY07/MathTest.sol\":501:521  return n.factorial() */\n      swap1\n      pop\n        /* \"contracts/DAY07/MathTest.sol\":426:529  function testFactorial(uint256 n) public pure returns (uint256) {... */\n      swap2\n      swap1\n      pop\n      jump\t// out\n        /* \"contracts/DAY07/MathTest.sol\":223:382  function testMaxMin(uint256 a, uint256 b) public pure returns (uint256 maxNum, uint256 minNum) {... */\n    tag_21:\n        /* \"contracts/DAY07/MathTest.sol\":286:300  uint256 maxNum */\n      0x00\n        /* \"contracts/DAY07/MathTest.sol\":302:316  uint256 minNum */\n      dup1\n        /* \"contracts/DAY07/MathTest.sol\":338:339  a */\n      dup4\n        /* \"contracts/DAY07/MathTest.sol\":338:343  a.max */\n      linkerSymbol(\"99aea197276ed7c9ab83708c433d5977f5da891dc1640b601e72e3e5d8335c92\")\n      0x6d5433e6\n      swap1\n      swap2\n        /* \"contracts/DAY07/MathTest.sol\":344:345  b */\n      dup6\n        /* \"contracts/DAY07/MathTest.sol\":338:346  a.max(b) */\n      mload(0x40)\n      dup4\n      0xffffffff\n      and\n      0xe0\n      shl\n      dup2\n      mstore\n      0x04\n      add\n      tag_43\n      swap3\n      swap2\n      swap1\n      tag_44\n      jump\t// in\n    tag_43:\n      0x20\n      mload(0x40)\n      dup1\n      dup4\n      sub\n      dup2\n      dup7\n      gas\n      delegatecall\n      iszero\n      dup1\n      iszero\n      tag_46\n      jumpi\n      returndatasize\n      0x00\n      dup1\n      returndatacopy\n      revert(0x00, returndatasize)\n    tag_46:\n      pop\n      pop\n      pop\n      pop\n      mload(0x40)\n      returndatasize\n      not(0x1f)\n      0x1f\n      dup3\n      add\n      and\n      dup3\n      add\n      dup1\n      0x40\n      mstore\n      pop\n      dup2\n      add\n      swap1\n      tag_47\n      swap2\n      swap1\n      tag_41\n      jump\t// in\n    tag_47:\n        /* \"contracts/DAY07/MathTest.sol\":329:346  maxNum = a.max(b) */\n      swap2\n      pop\n        /* \"contracts/DAY07/MathTest.sol\":366:367  a */\n      dup4\n        /* \"contracts/DAY07/MathTest.sol\":366:371  a.min */\n      linkerSymbol(\"99aea197276ed7c9ab83708c433d5977f5da891dc1640b601e72e3e5d8335c92\")\n      0x7ae2b5c7\n      swap1\n      swap2\n        /* \"contracts/DAY07/MathTest.sol\":372:373  b */\n      dup6\n        /* \"contracts/DAY07/MathTest.sol\":366:374  a.min(b) */\n      mload(0x40)\n      dup4\n      0xffffffff\n      and\n      0xe0\n      shl\n      dup2\n      mstore\n      0x04\n      add\n      tag_48\n      swap3\n      swap2\n      swap1\n      tag_44\n      jump\t// in\n    tag_48:\n      0x20\n      mload(0x40)\n      dup1\n      dup4\n      sub\n      dup2\n      dup7\n      gas\n      delegatecall\n      iszero\n      dup1\n      iszero\n      tag_50\n      jumpi\n      returndatasize\n      0x00\n      dup1\n      returndatacopy\n      revert(0x00, returndatasize)\n    tag_50:\n      pop\n      pop\n      pop\n      pop\n      mload(0x40)\n      returndatasize\n      not(0x1f)\n      0x1f\n      dup3\n      add\n      and\n      dup3\n      add\n      dup1\n      0x40\n      mstore\n      pop\n      dup2\n      add\n      swap1\n      tag_51\n      swap2\n      swap1\n      tag_41\n      jump\t// in\n    tag_51:\n        /* \"contracts/DAY07/MathTest.sol\":357:374  minNum = a.min(b) */\n      swap1\n      pop\n        /* \"contracts/DAY07/MathTest.sol\":223:382  function testMaxMin(uint256 a, uint256 b) public pure returns (uint256 maxNum, uint256 minNum) {... */\n      swap3\n      pop\n      swap3\n      swap1\n      pop\n      jump\t// out\n        /* \"contracts/DAY07/MathTest.sol\":573:685  function testFibonacci(uint256 n) public pure returns (uint256[] memory) {... */\n    tag_26:\n        /* \"contracts/DAY07/MathTest.sol\":628:644  uint256[] memory */\n      0x60\n        /* \"contracts/DAY07/MathTest.sol\":664:665  n */\n      dup2\n        /* \"contracts/DAY07/MathTest.sol\":664:675  n.fibonacci */\n      linkerSymbol(\"99aea197276ed7c9ab83708c433d5977f5da891dc1640b601e72e3e5d8335c92\")\n      0x61047ff4\n      swap1\n      swap2\n        /* \"contracts/DAY07/MathTest.sol\":664:677  n.fibonacci() */\n      mload(0x40)\n      dup3\n      0xffffffff\n      and\n      0xe0\n      shl\n      dup2\n      mstore\n      0x04\n      add\n      tag_53\n      swap2\n      swap1\n      tag_31\n      jump\t// in\n    tag_53:\n      0x00\n      mload(0x40)\n      dup1\n      dup4\n      sub\n      dup2\n      dup7\n      gas\n      delegatecall\n      iszero\n      dup1\n      iszero\n      tag_55\n      jumpi\n      returndatasize\n      0x00\n      dup1\n      returndatacopy\n      revert(0x00, returndatasize)\n    tag_55:\n      pop\n      pop\n      pop\n      pop\n      mload(0x40)\n      returndatasize\n      0x00\n      dup3\n      returndatacopy\n      returndatasize\n      not(0x1f)\n      0x1f\n      dup3\n      add\n      and\n      dup3\n      add\n      dup1\n      0x40\n      mstore\n      pop\n      dup2\n      add\n      swap1\n      tag_56\n      swap2\n      swap1\n      tag_57\n      jump\t// in\n    tag_56:\n        /* \"contracts/DAY07/MathTest.sol\":657:677  return n.fibonacci() */\n      swap1\n      pop\n        /* \"contracts/DAY07/MathTest.sol\":573:685  function testFibonacci(uint256 n) public pure returns (uint256[] memory) {... */\n      swap2\n      swap1\n      pop\n      jump\t// out\n        /* \"#utility.yul\":7:82   */\n    tag_58:\n        /* \"#utility.yul\":40:46   */\n      0x00\n        /* \"#utility.yul\":73:75   */\n      0x40\n        /* \"#utility.yul\":67:76   */\n      mload\n        /* \"#utility.yul\":57:76   */\n      swap1\n      pop\n        /* \"#utility.yul\":7:82   */\n      swap1\n      jump\t// out\n        /* \"#utility.yul\":88:205   */\n    tag_59:\n        /* \"#utility.yul\":197:198   */\n      0x00\n        /* \"#utility.yul\":194:195   */\n      dup1\n        /* \"#utility.yul\":187:199   */\n      revert\n        /* \"#utility.yul\":211:328   */\n    tag_60:\n        /* \"#utility.yul\":320:321   */\n      0x00\n        /* \"#utility.yul\":317:318   */\n      dup1\n        /* \"#utility.yul\":310:322   */\n      revert\n        /* \"#utility.yul\":334:411   */\n    tag_61:\n        /* \"#utility.yul\":371:378   */\n      0x00\n        /* \"#utility.yul\":400:405   */\n      dup2\n        /* \"#utility.yul\":389:405   */\n      swap1\n      pop\n        /* \"#utility.yul\":334:411   */\n      swap2\n      swap1\n      pop\n      jump\t// out\n        /* \"#utility.yul\":417:539   */\n    tag_62:\n        /* \"#utility.yul\":490:514   */\n      tag_93\n        /* \"#utility.yul\":508:513   */\n      dup2\n        /* \"#utility.yul\":490:514   */\n      tag_61\n      jump\t// in\n    tag_93:\n        /* \"#utility.yul\":483:488   */\n      dup2\n        /* \"#utility.yul\":480:515   */\n      eq\n        /* \"#utility.yul\":470:533   */\n      tag_94\n      jumpi\n        /* \"#utility.yul\":529:530   */\n      0x00\n        /* \"#utility.yul\":526:527   */\n      dup1\n        /* \"#utility.yul\":519:531   */\n      revert\n        /* \"#utility.yul\":470:533   */\n    tag_94:\n        /* \"#utility.yul\":417:539   */\n      pop\n      jump\t// out\n        /* \"#utility.yul\":545:684   */\n    tag_63:\n        /* \"#utility.yul\":591:596   */\n      0x00\n        /* \"#utility.yul\":629:635   */\n      dup2\n        /* \"#utility.yul\":616:636   */\n      calldataload\n        /* \"#utility.yul\":607:636   */\n      swap1\n      pop\n        /* \"#utility.yul\":645:678   */\n      tag_96\n        /* \"#utility.yul\":672:677   */\n      dup2\n        /* \"#utility.yul\":645:678   */\n      tag_62\n      jump\t// in\n    tag_96:\n        /* \"#utility.yul\":545:684   */\n      swap3\n      swap2\n      pop\n      pop\n      jump\t// out\n        /* \"#utility.yul\":690:1019   */\n    tag_9:\n        /* \"#utility.yul\":749:755   */\n      0x00\n        /* \"#utility.yul\":798:800   */\n      0x20\n        /* \"#utility.yul\":786:795   */\n      dup3\n        /* \"#utility.yul\":777:784   */\n      dup5\n        /* \"#utility.yul\":773:796   */\n      sub\n        /* \"#utility.yul\":769:801   */\n      slt\n        /* \"#utility.yul\":766:885   */\n      iszero\n      tag_98\n      jumpi\n        /* \"#utility.yul\":804:883   */\n      tag_99\n      tag_59\n      jump\t// in\n    tag_99:\n        /* \"#utility.yul\":766:885   */\n    tag_98:\n        /* \"#utility.yul\":924:925   */\n      0x00\n        /* \"#utility.yul\":949:1002   */\n      tag_100\n        /* \"#utility.yul\":994:1001   */\n      dup5\n        /* \"#utility.yul\":985:991   */\n      dup3\n        /* \"#utility.yul\":974:983   */\n      dup6\n        /* \"#utility.yul\":970:992   */\n      add\n        /* \"#utility.yul\":949:1002   */\n      tag_63\n      jump\t// in\n    tag_100:\n        /* \"#utility.yul\":939:1002   */\n      swap2\n      pop\n        /* \"#utility.yul\":895:1012   */\n      pop\n        /* \"#utility.yul\":690:1019   */\n      swap3\n      swap2\n      pop\n      pop\n      jump\t// out\n        /* \"#utility.yul\":1025:1115   */\n    tag_64:\n        /* \"#utility.yul\":1059:1066   */\n      0x00\n        /* \"#utility.yul\":1102:1107   */\n      dup2\n        /* \"#utility.yul\":1095:1108   */\n      iszero\n        /* \"#utility.yul\":1088:1109   */\n      iszero\n        /* \"#utility.yul\":1077:1109   */\n      swap1\n      pop\n        /* \"#utility.yul\":1025:1115   */\n      swap2\n      swap1\n      pop\n      jump\t// out\n        /* \"#utility.yul\":1121:1230   */\n    tag_65:\n        /* \"#utility.yul\":1202:1223   */\n      tag_103\n        /* \"#utility.yul\":1217:1222   */\n      dup2\n        /* \"#utility.yul\":1202:1223   */\n      tag_64\n      jump\t// in\n    tag_103:\n        /* \"#utility.yul\":1197:1200   */\n      dup3\n        /* \"#utility.yul\":1190:1224   */\n      mstore\n        /* \"#utility.yul\":1121:1230   */\n      pop\n      pop\n      jump\t// out\n        /* \"#utility.yul\":1236:1446   */\n    tag_12:\n        /* \"#utility.yul\":1323:1327   */\n      0x00\n        /* \"#utility.yul\":1361:1363   */\n      0x20\n        /* \"#utility.yul\":1350:1359   */\n      dup3\n        /* \"#utility.yul\":1346:1364   */\n      add\n        /* \"#utility.yul\":1338:1364   */\n      swap1\n      pop\n        /* \"#utility.yul\":1374:1439   */\n      tag_105\n        /* \"#utility.yul\":1436:1437   */\n      0x00\n        /* \"#utility.yul\":1425:1434   */\n      dup4\n        /* \"#utility.yul\":1421:1438   */\n      add\n        /* \"#utility.yul\":1412:1418   */\n      dup5\n        /* \"#utility.yul\":1374:1439   */\n      tag_65\n      jump\t// in\n    tag_105:\n        /* \"#utility.yul\":1236:1446   */\n      swap3\n      swap2\n      pop\n      pop\n      jump\t// out\n        /* \"#utility.yul\":1452:1570   */\n    tag_66:\n        /* \"#utility.yul\":1539:1563   */\n      tag_107\n        /* \"#utility.yul\":1557:1562   */\n      dup2\n        /* \"#utility.yul\":1539:1563   */\n      tag_61\n      jump\t// in\n    tag_107:\n        /* \"#utility.yul\":1534:1537   */\n      dup3\n        /* \"#utility.yul\":1527:1564   */\n      mstore\n        /* \"#utility.yul\":1452:1570   */\n      pop\n      pop\n      jump\t// out\n        /* \"#utility.yul\":1576:1798   */\n    tag_17:\n        /* \"#utility.yul\":1669:1673   */\n      0x00\n        /* \"#utility.yul\":1707:1709   */\n      0x20\n        /* \"#utility.yul\":1696:1705   */\n      dup3\n        /* \"#utility.yul\":1692:1710   */\n      add\n        /* \"#utility.yul\":1684:1710   */\n      swap1\n      pop\n        /* \"#utility.yul\":1720:1791   */\n      tag_109\n        /* \"#utility.yul\":1788:1789   */\n      0x00\n        /* \"#utility.yul\":1777:1786   */\n      dup4\n        /* \"#utility.yul\":1773:1790   */\n      add\n        /* \"#utility.yul\":1764:1770   */\n      dup5\n        /* \"#utility.yul\":1720:1791   */\n      tag_66\n      jump\t// in\n    tag_109:\n        /* \"#utility.yul\":1576:1798   */\n      swap3\n      swap2\n      pop\n      pop\n      jump\t// out\n        /* \"#utility.yul\":1804:2278   */\n    tag_20:\n        /* \"#utility.yul\":1872:1878   */\n      0x00\n        /* \"#utility.yul\":1880:1886   */\n      dup1\n        /* \"#utility.yul\":1929:1931   */\n      0x40\n        /* \"#utility.yul\":1917:1926   */\n      dup4\n        /* \"#utility.yul\":1908:1915   */\n      dup6\n        /* \"#utility.yul\":1904:1927   */\n      sub\n        /* \"#utility.yul\":1900:1932   */\n      slt\n        /* \"#utility.yul\":1897:2016   */\n      iszero\n      tag_111\n      jumpi\n        /* \"#utility.yul\":1935:2014   */\n      tag_112\n      tag_59\n      jump\t// in\n    tag_112:\n        /* \"#utility.yul\":1897:2016   */\n    tag_111:\n        /* \"#utility.yul\":2055:2056   */\n      0x00\n        /* \"#utility.yul\":2080:2133   */\n      tag_113\n        /* \"#utility.yul\":2125:2132   */\n      dup6\n        /* \"#utility.yul\":2116:2122   */\n      dup3\n        /* \"#utility.yul\":2105:2114   */\n      dup7\n        /* \"#utility.yul\":2101:2123   */\n      add\n        /* \"#utility.yul\":2080:2133   */\n      tag_63\n      jump\t// in\n    tag_113:\n        /* \"#utility.yul\":2070:2133   */\n      swap3\n      pop\n        /* \"#utility.yul\":2026:2143   */\n      pop\n        /* \"#utility.yul\":2182:2184   */\n      0x20\n        /* \"#utility.yul\":2208:2261   */\n      tag_114\n        /* \"#utility.yul\":2253:2260   */\n      dup6\n        /* \"#utility.yul\":2244:2250   */\n      dup3\n        /* \"#utility.yul\":2233:2242   */\n      dup7\n        /* \"#utility.yul\":2229:2251   */\n      add\n        /* \"#utility.yul\":2208:2261   */\n      tag_63\n      jump\t// in\n    tag_114:\n        /* \"#utility.yul\":2198:2261   */\n      swap2\n      pop\n        /* \"#utility.yul\":2153:2271   */\n      pop\n        /* \"#utility.yul\":1804:2278   */\n      swap3\n      pop\n      swap3\n      swap1\n      pop\n      jump\t// out\n        /* \"#utility.yul\":2284:2616   */\n    tag_23:\n        /* \"#utility.yul\":2405:2409   */\n      0x00\n        /* \"#utility.yul\":2443:2445   */\n      0x40\n        /* \"#utility.yul\":2432:2441   */\n      dup3\n        /* \"#utility.yul\":2428:2446   */\n      add\n        /* \"#utility.yul\":2420:2446   */\n      swap1\n      pop\n        /* \"#utility.yul\":2456:2527   */\n      tag_116\n        /* \"#utility.yul\":2524:2525   */\n      0x00\n        /* \"#utility.yul\":2513:2522   */\n      dup4\n        /* \"#utility.yul\":2509:2526   */\n      add\n        /* \"#utility.yul\":2500:2506   */\n      dup6\n        /* \"#utility.yul\":2456:2527   */\n      tag_66\n      jump\t// in\n    tag_116:\n        /* \"#utility.yul\":2537:2609   */\n      tag_117\n        /* \"#utility.yul\":2605:2607   */\n      0x20\n        /* \"#utility.yul\":2594:2603   */\n      dup4\n        /* \"#utility.yul\":2590:2608   */\n      add\n        /* \"#utility.yul\":2581:2587   */\n      dup5\n        /* \"#utility.yul\":2537:2609   */\n      tag_66\n      jump\t// in\n    tag_117:\n        /* \"#utility.yul\":2284:2616   */\n      swap4\n      swap3\n      pop\n      pop\n      pop\n      jump\t// out\n        /* \"#utility.yul\":2622:2736   */\n    tag_67:\n        /* \"#utility.yul\":2689:2695   */\n      0x00\n        /* \"#utility.yul\":2723:2728   */\n      dup2\n        /* \"#utility.yul\":2717:2729   */\n      mload\n        /* \"#utility.yul\":2707:2729   */\n      swap1\n      pop\n        /* \"#utility.yul\":2622:2736   */\n      swap2\n      swap1\n      pop\n      jump\t// out\n        /* \"#utility.yul\":2742:2926   */\n    tag_68:\n        /* \"#utility.yul\":2841:2852   */\n      0x00\n        /* \"#utility.yul\":2875:2881   */\n      dup3\n        /* \"#utility.yul\":2870:2873   */\n      dup3\n        /* \"#utility.yul\":2863:2882   */\n      mstore\n        /* \"#utility.yul\":2915:2919   */\n      0x20\n        /* \"#utility.yul\":2910:2913   */\n      dup3\n        /* \"#utility.yul\":2906:2920   */\n      add\n        /* \"#utility.yul\":2891:2920   */\n      swap1\n      pop\n        /* \"#utility.yul\":2742:2926   */\n      swap3\n      swap2\n      pop\n      pop\n      jump\t// out\n        /* \"#utility.yul\":2932:3064   */\n    tag_69:\n        /* \"#utility.yul\":2999:3003   */\n      0x00\n        /* \"#utility.yul\":3022:3025   */\n      dup2\n        /* \"#utility.yul\":3014:3025   */\n      swap1\n      pop\n        /* \"#utility.yul\":3052:3056   */\n      0x20\n        /* \"#utility.yul\":3047:3050   */\n      dup3\n        /* \"#utility.yul\":3043:3057   */\n      add\n        /* \"#utility.yul\":3035:3057   */\n      swap1\n      pop\n        /* \"#utility.yul\":2932:3064   */\n      swap2\n      swap1\n      pop\n      jump\t// out\n        /* \"#utility.yul\":3070:3178   */\n    tag_70:\n        /* \"#utility.yul\":3147:3171   */\n      tag_122\n        /* \"#utility.yul\":3165:3170   */\n      dup2\n        /* \"#utility.yul\":3147:3171   */\n      tag_61\n      jump\t// in\n    tag_122:\n        /* \"#utility.yul\":3142:3145   */\n      dup3\n        /* \"#utility.yul\":3135:3172   */\n      mstore\n        /* \"#utility.yul\":3070:3178   */\n      pop\n      pop\n      jump\t// out\n        /* \"#utility.yul\":3184:3363   */\n    tag_71:\n        /* \"#utility.yul\":3253:3263   */\n      0x00\n        /* \"#utility.yul\":3274:3320   */\n      tag_124\n        /* \"#utility.yul\":3316:3319   */\n      dup4\n        /* \"#utility.yul\":3308:3314   */\n      dup4\n        /* \"#utility.yul\":3274:3320   */\n      tag_70\n      jump\t// in\n    tag_124:\n        /* \"#utility.yul\":3352:3356   */\n      0x20\n        /* \"#utility.yul\":3347:3350   */\n      dup4\n        /* \"#utility.yul\":3343:3357   */\n      add\n        /* \"#utility.yul\":3329:3357   */\n      swap1\n      pop\n        /* \"#utility.yul\":3184:3363   */\n      swap3\n      swap2\n      pop\n      pop\n      jump\t// out\n        /* \"#utility.yul\":3369:3482   */\n    tag_72:\n        /* \"#utility.yul\":3439:3443   */\n      0x00\n        /* \"#utility.yul\":3471:3475   */\n      0x20\n        /* \"#utility.yul\":3466:3469   */\n      dup3\n        /* \"#utility.yul\":3462:3476   */\n      add\n        /* \"#utility.yul\":3454:3476   */\n      swap1\n      pop\n        /* \"#utility.yul\":3369:3482   */\n      swap2\n      swap1\n      pop\n      jump\t// out\n        /* \"#utility.yul\":3518:4250   */\n    tag_73:\n        /* \"#utility.yul\":3637:3640   */\n      0x00\n        /* \"#utility.yul\":3666:3720   */\n      tag_127\n        /* \"#utility.yul\":3714:3719   */\n      dup3\n        /* \"#utility.yul\":3666:3720   */\n      tag_67\n      jump\t// in\n    tag_127:\n        /* \"#utility.yul\":3736:3822   */\n      tag_128\n        /* \"#utility.yul\":3815:3821   */\n      dup2\n        /* \"#utility.yul\":3810:3813   */\n      dup6\n        /* \"#utility.yul\":3736:3822   */\n      tag_68\n      jump\t// in\n    tag_128:\n        /* \"#utility.yul\":3729:3822   */\n      swap4\n      pop\n        /* \"#utility.yul\":3846:3902   */\n      tag_129\n        /* \"#utility.yul\":3896:3901   */\n      dup4\n        /* \"#utility.yul\":3846:3902   */\n      tag_69\n      jump\t// in\n    tag_129:\n        /* \"#utility.yul\":3925:3932   */\n      dup1\n        /* \"#utility.yul\":3956:3957   */\n      0x00\n        /* \"#utility.yul\":3941:4225   */\n    tag_130:\n        /* \"#utility.yul\":3966:3972   */\n      dup4\n        /* \"#utility.yul\":3963:3964   */\n      dup2\n        /* \"#utility.yul\":3960:3973   */\n      lt\n        /* \"#utility.yul\":3941:4225   */\n      iszero\n      tag_132\n      jumpi\n        /* \"#utility.yul\":4042:4048   */\n      dup2\n        /* \"#utility.yul\":4036:4049   */\n      mload\n        /* \"#utility.yul\":4069:4132   */\n      tag_133\n        /* \"#utility.yul\":4128:4131   */\n      dup9\n        /* \"#utility.yul\":4113:4126   */\n      dup3\n        /* \"#utility.yul\":4069:4132   */\n      tag_71\n      jump\t// in\n    tag_133:\n        /* \"#utility.yul\":4062:4132   */\n      swap8\n      pop\n        /* \"#utility.yul\":4155:4215   */\n      tag_134\n        /* \"#utility.yul\":4208:4214   */\n      dup4\n        /* \"#utility.yul\":4155:4215   */\n      tag_72\n      jump\t// in\n    tag_134:\n        /* \"#utility.yul\":4145:4215   */\n      swap3\n      pop\n        /* \"#utility.yul\":4001:4225   */\n      pop\n        /* \"#utility.yul\":3988:3989   */\n      0x01\n        /* \"#utility.yul\":3985:3986   */\n      dup2\n        /* \"#utility.yul\":3981:3990   */\n      add\n        /* \"#utility.yul\":3976:3990   */\n      swap1\n      pop\n        /* \"#utility.yul\":3941:4225   */\n      jump(tag_130)\n    tag_132:\n        /* \"#utility.yul\":3945:3959   */\n      pop\n        /* \"#utility.yul\":4241:4244   */\n      dup6\n        /* \"#utility.yul\":4234:4244   */\n      swap4\n      pop\n        /* \"#utility.yul\":3642:4250   */\n      pop\n      pop\n      pop\n        /* \"#utility.yul\":3518:4250   */\n      swap3\n      swap2\n      pop\n      pop\n      jump\t// out\n        /* \"#utility.yul\":4256:4629   */\n    tag_28:\n        /* \"#utility.yul\":4399:4403   */\n      0x00\n        /* \"#utility.yul\":4437:4439   */\n      0x20\n        /* \"#utility.yul\":4426:4435   */\n      dup3\n        /* \"#utility.yul\":4422:4440   */\n      add\n        /* \"#utility.yul\":4414:4440   */\n      swap1\n      pop\n        /* \"#utility.yul\":4486:4495   */\n      dup2\n        /* \"#utility.yul\":4480:4484   */\n      dup2\n        /* \"#utility.yul\":4476:4496   */\n      sub\n        /* \"#utility.yul\":4472:4473   */\n      0x00\n        /* \"#utility.yul\":4461:4470   */\n      dup4\n        /* \"#utility.yul\":4457:4474   */\n      add\n        /* \"#utility.yul\":4450:4497   */\n      mstore\n        /* \"#utility.yul\":4514:4622   */\n      tag_136\n        /* \"#utility.yul\":4617:4621   */\n      dup2\n        /* \"#utility.yul\":4608:4614   */\n      dup5\n        /* \"#utility.yul\":4514:4622   */\n      tag_73\n      jump\t// in\n    tag_136:\n        /* \"#utility.yul\":4506:4622   */\n      swap1\n      pop\n        /* \"#utility.yul\":4256:4629   */\n      swap3\n      swap2\n      pop\n      pop\n      jump\t// out\n        /* \"#utility.yul\":4635:4761   */\n    tag_74:\n        /* \"#utility.yul\":4730:4754   */\n      tag_138\n        /* \"#utility.yul\":4748:4753   */\n      dup2\n        /* \"#utility.yul\":4730:4754   */\n      tag_61\n      jump\t// in\n    tag_138:\n        /* \"#utility.yul\":4725:4728   */\n      dup3\n        /* \"#utility.yul\":4718:4755   */\n      mstore\n        /* \"#utility.yul\":4635:4761   */\n      pop\n      pop\n      jump\t// out\n        /* \"#utility.yul\":4767:5005   */\n    tag_31:\n        /* \"#utility.yul\":4868:4872   */\n      0x00\n        /* \"#utility.yul\":4906:4908   */\n      0x20\n        /* \"#utility.yul\":4895:4904   */\n      dup3\n        /* \"#utility.yul\":4891:4909   */\n      add\n        /* \"#utility.yul\":4883:4909   */\n      swap1\n      pop\n        /* \"#utility.yul\":4919:4998   */\n      tag_140\n        /* \"#utility.yul\":4995:4996   */\n      0x00\n        /* \"#utility.yul\":4984:4993   */\n      dup4\n        /* \"#utility.yul\":4980:4997   */\n      add\n        /* \"#utility.yul\":4971:4977   */\n      dup5\n        /* \"#utility.yul\":4919:4998   */\n      tag_74\n      jump\t// in\n    tag_140:\n        /* \"#utility.yul\":4767:5005   */\n      swap3\n      swap2\n      pop\n      pop\n      jump\t// out\n        /* \"#utility.yul\":5011:5127   */\n    tag_75:\n        /* \"#utility.yul\":5081:5102   */\n      tag_142\n        /* \"#utility.yul\":5096:5101   */\n      dup2\n        /* \"#utility.yul\":5081:5102   */\n      tag_64\n      jump\t// in\n    tag_142:\n        /* \"#utility.yul\":5074:5079   */\n      dup2\n        /* \"#utility.yul\":5071:5103   */\n      eq\n        /* \"#utility.yul\":5061:5121   */\n      tag_143\n      jumpi\n        /* \"#utility.yul\":5117:5118   */\n      0x00\n        /* \"#utility.yul\":5114:5115   */\n      dup1\n        /* \"#utility.yul\":5107:5119   */\n      revert\n        /* \"#utility.yul\":5061:5121   */\n    tag_143:\n        /* \"#utility.yul\":5011:5127   */\n      pop\n      jump\t// out\n        /* \"#utility.yul\":5133:5270   */\n    tag_76:\n        /* \"#utility.yul\":5187:5192   */\n      0x00\n        /* \"#utility.yul\":5218:5224   */\n      dup2\n        /* \"#utility.yul\":5212:5225   */\n      mload\n        /* \"#utility.yul\":5203:5225   */\n      swap1\n      pop\n        /* \"#utility.yul\":5234:5264   */\n      tag_145\n        /* \"#utility.yul\":5258:5263   */\n      dup2\n        /* \"#utility.yul\":5234:5264   */\n      tag_75\n      jump\t// in\n    tag_145:\n        /* \"#utility.yul\":5133:5270   */\n      swap3\n      swap2\n      pop\n      pop\n      jump\t// out\n        /* \"#utility.yul\":5276:5621   */\n    tag_35:\n        /* \"#utility.yul\":5343:5349   */\n      0x00\n        /* \"#utility.yul\":5392:5394   */\n      0x20\n        /* \"#utility.yul\":5380:5389   */\n      dup3\n        /* \"#utility.yul\":5371:5378   */\n      dup5\n        /* \"#utility.yul\":5367:5390   */\n      sub\n        /* \"#utility.yul\":5363:5395   */\n      slt\n        /* \"#utility.yul\":5360:5479   */\n      iszero\n      tag_147\n      jumpi\n        /* \"#utility.yul\":5398:5477   */\n      tag_148\n      tag_59\n      jump\t// in\n    tag_148:\n        /* \"#utility.yul\":5360:5479   */\n    tag_147:\n        /* \"#utility.yul\":5518:5519   */\n      0x00\n        /* \"#utility.yul\":5543:5604   */\n      tag_149\n        /* \"#utility.yul\":5596:5603   */\n      dup5\n        /* \"#utility.yul\":5587:5593   */\n      dup3\n        /* \"#utility.yul\":5576:5585   */\n      dup6\n        /* \"#utility.yul\":5572:5594   */\n      add\n        /* \"#utility.yul\":5543:5604   */\n      tag_76\n      jump\t// in\n    tag_149:\n        /* \"#utility.yul\":5533:5604   */\n      swap2\n      pop\n        /* \"#utility.yul\":5489:5614   */\n      pop\n        /* \"#utility.yul\":5276:5621   */\n      swap3\n      swap2\n      pop\n      pop\n      jump\t// out\n        /* \"#utility.yul\":5627:5770   */\n    tag_77:\n        /* \"#utility.yul\":5684:5689   */\n      0x00\n        /* \"#utility.yul\":5715:5721   */\n      dup2\n        /* \"#utility.yul\":5709:5722   */\n      mload\n        /* \"#utility.yul\":5700:5722   */\n      swap1\n      pop\n        /* \"#utility.yul\":5731:5764   */\n      tag_151\n        /* \"#utility.yul\":5758:5763   */\n      dup2\n        /* \"#utility.yul\":5731:5764   */\n      tag_62\n      jump\t// in\n    tag_151:\n        /* \"#utility.yul\":5627:5770   */\n      swap3\n      swap2\n      pop\n      pop\n      jump\t// out\n        /* \"#utility.yul\":5776:6127   */\n    tag_41:\n        /* \"#utility.yul\":5846:5852   */\n      0x00\n        /* \"#utility.yul\":5895:5897   */\n      0x20\n        /* \"#utility.yul\":5883:5892   */\n      dup3\n        /* \"#utility.yul\":5874:5881   */\n      dup5\n        /* \"#utility.yul\":5870:5893   */\n      sub\n        /* \"#utility.yul\":5866:5898   */\n      slt\n        /* \"#utility.yul\":5863:5982   */\n      iszero\n      tag_153\n      jumpi\n        /* \"#utility.yul\":5901:5980   */\n      tag_154\n      tag_59\n      jump\t// in\n    tag_154:\n        /* \"#utility.yul\":5863:5982   */\n    tag_153:\n        /* \"#utility.yul\":6021:6022   */\n      0x00\n        /* \"#utility.yul\":6046:6110   */\n      tag_155\n        /* \"#utility.yul\":6102:6109   */\n      dup5\n        /* \"#utility.yul\":6093:6099   */\n      dup3\n        /* \"#utility.yul\":6082:6091   */\n      dup6\n        /* \"#utility.yul\":6078:6100   */\n      add\n        /* \"#utility.yul\":6046:6110   */\n      tag_77\n      jump\t// in\n    tag_155:\n        /* \"#utility.yul\":6036:6110   */\n      swap2\n      pop\n        /* \"#utility.yul\":5992:6120   */\n      pop\n        /* \"#utility.yul\":5776:6127   */\n      swap3\n      swap2\n      pop\n      pop\n      jump\t// out\n        /* \"#utility.yul\":6133:6489   */\n    tag_44:\n        /* \"#utility.yul\":6262:6266   */\n      0x00\n        /* \"#utility.yul\":6300:6302   */\n      0x40\n        /* \"#utility.yul\":6289:6298   */\n      dup3\n        /* \"#utility.yul\":6285:6303   */\n      add\n        /* \"#utility.yul\":6277:6303   */\n      swap1\n      pop\n        /* \"#utility.yul\":6313:6392   */\n      tag_157\n        /* \"#utility.yul\":6389:6390   */\n      0x00\n        /* \"#utility.yul\":6378:6387   */\n      dup4\n        /* \"#utility.yul\":6374:6391   */\n      add\n        /* \"#utility.yul\":6365:6371   */\n      dup6\n        /* \"#utility.yul\":6313:6392   */\n      tag_74\n      jump\t// in\n    tag_157:\n        /* \"#utility.yul\":6402:6482   */\n      tag_158\n        /* \"#utility.yul\":6478:6480   */\n      0x20\n        /* \"#utility.yul\":6467:6476   */\n      dup4\n        /* \"#utility.yul\":6463:6481   */\n      add\n        /* \"#utility.yul\":6454:6460   */\n      dup5\n        /* \"#utility.yul\":6402:6482   */\n      tag_74\n      jump\t// in\n    tag_158:\n        /* \"#utility.yul\":6133:6489   */\n      swap4\n      swap3\n      pop\n      pop\n      pop\n      jump\t// out\n        /* \"#utility.yul\":6495:6612   */\n    tag_78:\n        /* \"#utility.yul\":6604:6605   */\n      0x00\n        /* \"#utility.yul\":6601:6602   */\n      dup1\n        /* \"#utility.yul\":6594:6606   */\n      revert\n        /* \"#utility.yul\":6618:6720   */\n    tag_79:\n        /* \"#utility.yul\":6659:6665   */\n      0x00\n        /* \"#utility.yul\":6710:6712   */\n      0x1f\n        /* \"#utility.yul\":6706:6713   */\n      not\n        /* \"#utility.yul\":6701:6703   */\n      0x1f\n        /* \"#utility.yul\":6694:6699   */\n      dup4\n        /* \"#utility.yul\":6690:6704   */\n      add\n        /* \"#utility.yul\":6686:6714   */\n      and\n        /* \"#utility.yul\":6676:6714   */\n      swap1\n      pop\n        /* \"#utility.yul\":6618:6720   */\n      swap2\n      swap1\n      pop\n      jump\t// out\n        /* \"#utility.yul\":6726:6906   */\n    tag_80:\n        /* \"#utility.yul\":6774:6851   */\n      0x4e487b7100000000000000000000000000000000000000000000000000000000\n        /* \"#utility.yul\":6771:6772   */\n      0x00\n        /* \"#utility.yul\":6764:6852   */\n      mstore\n        /* \"#utility.yul\":6871:6875   */\n      0x41\n        /* \"#utility.yul\":6868:6869   */\n      0x04\n        /* \"#utility.yul\":6861:6876   */\n      mstore\n        /* \"#utility.yul\":6895:6899   */\n      0x24\n        /* \"#utility.yul\":6892:6893   */\n      0x00\n        /* \"#utility.yul\":6885:6900   */\n      revert\n        /* \"#utility.yul\":6912:7193   */\n    tag_81:\n        /* \"#utility.yul\":6995:7022   */\n      tag_163\n        /* \"#utility.yul\":7017:7021   */\n      dup3\n        /* \"#utility.yul\":6995:7022   */\n      tag_79\n      jump\t// in\n    tag_163:\n        /* \"#utility.yul\":6987:6993   */\n      dup2\n        /* \"#utility.yul\":6983:7023   */\n      add\n        /* \"#utility.yul\":7125:7131   */\n      dup2\n        /* \"#utility.yul\":7113:7123   */\n      dup2\n        /* \"#utility.yul\":7110:7132   */\n      lt\n        /* \"#utility.yul\":7089:7107   */\n      0xffffffffffffffff\n        /* \"#utility.yul\":7077:7087   */\n      dup3\n        /* \"#utility.yul\":7074:7108   */\n      gt\n        /* \"#utility.yul\":7071:7133   */\n      or\n        /* \"#utility.yul\":7068:7156   */\n      iszero\n      tag_164\n      jumpi\n        /* \"#utility.yul\":7136:7154   */\n      tag_165\n      tag_80\n      jump\t// in\n    tag_165:\n        /* \"#utility.yul\":7068:7156   */\n    tag_164:\n        /* \"#utility.yul\":7176:7186   */\n      dup1\n        /* \"#utility.yul\":7172:7174   */\n      0x40\n        /* \"#utility.yul\":7165:7187   */\n      mstore\n        /* \"#utility.yul\":6955:7193   */\n      pop\n        /* \"#utility.yul\":6912:7193   */\n      pop\n      pop\n      jump\t// out\n        /* \"#utility.yul\":7199:7328   */\n    tag_82:\n        /* \"#utility.yul\":7233:7239   */\n      0x00\n        /* \"#utility.yul\":7260:7280   */\n      tag_167\n      tag_58\n      jump\t// in\n    tag_167:\n        /* \"#utility.yul\":7250:7280   */\n      swap1\n      pop\n        /* \"#utility.yul\":7289:7322   */\n      tag_168\n        /* \"#utility.yul\":7317:7321   */\n      dup3\n        /* \"#utility.yul\":7309:7315   */\n      dup3\n        /* \"#utility.yul\":7289:7322   */\n      tag_81\n      jump\t// in\n    tag_168:\n        /* \"#utility.yul\":7199:7328   */\n      swap2\n      swap1\n      pop\n      jump\t// out\n        /* \"#utility.yul\":7334:7645   */\n    tag_83:\n        /* \"#utility.yul\":7411:7415   */\n      0x00\n        /* \"#utility.yul\":7501:7519   */\n      0xffffffffffffffff\n        /* \"#utility.yul\":7493:7499   */\n      dup3\n        /* \"#utility.yul\":7490:7520   */\n      gt\n        /* \"#utility.yul\":7487:7543   */\n      iszero\n      tag_170\n      jumpi\n        /* \"#utility.yul\":7523:7541   */\n      tag_171\n      tag_80\n      jump\t// in\n    tag_171:\n        /* \"#utility.yul\":7487:7543   */\n    tag_170:\n        /* \"#utility.yul\":7573:7577   */\n      0x20\n        /* \"#utility.yul\":7565:7571   */\n      dup3\n        /* \"#utility.yul\":7561:7578   */\n      mul\n        /* \"#utility.yul\":7553:7578   */\n      swap1\n      pop\n        /* \"#utility.yul\":7633:7637   */\n      0x20\n        /* \"#utility.yul\":7627:7631   */\n      dup2\n        /* \"#utility.yul\":7623:7638   */\n      add\n        /* \"#utility.yul\":7615:7638   */\n      swap1\n      pop\n        /* \"#utility.yul\":7334:7645   */\n      swap2\n      swap1\n      pop\n      jump\t// out\n        /* \"#utility.yul\":7651:7768   */\n    tag_84:\n        /* \"#utility.yul\":7760:7761   */\n      0x00\n        /* \"#utility.yul\":7757:7758   */\n      dup1\n        /* \"#utility.yul\":7750:7762   */\n      revert\n        /* \"#utility.yul\":7791:8523   */\n    tag_85:\n        /* \"#utility.yul\":7898:7903   */\n      0x00\n        /* \"#utility.yul\":7923:8004   */\n      tag_174\n        /* \"#utility.yul\":7939:8003   */\n      tag_175\n        /* \"#utility.yul\":7996:8002   */\n      dup5\n        /* \"#utility.yul\":7939:8003   */\n      tag_83\n      jump\t// in\n    tag_175:\n        /* \"#utility.yul\":7923:8004   */\n      tag_82\n      jump\t// in\n    tag_174:\n        /* \"#utility.yul\":7914:8004   */\n      swap1\n      pop\n        /* \"#utility.yul\":8024:8029   */\n      dup1\n        /* \"#utility.yul\":8053:8059   */\n      dup4\n        /* \"#utility.yul\":8046:8051   */\n      dup3\n        /* \"#utility.yul\":8039:8060   */\n      mstore\n        /* \"#utility.yul\":8087:8091   */\n      0x20\n        /* \"#utility.yul\":8080:8085   */\n      dup3\n        /* \"#utility.yul\":8076:8092   */\n      add\n        /* \"#utility.yul\":8069:8092   */\n      swap1\n      pop\n        /* \"#utility.yul\":8140:8144   */\n      0x20\n        /* \"#utility.yul\":8132:8138   */\n      dup5\n        /* \"#utility.yul\":8128:8145   */\n      mul\n        /* \"#utility.yul\":8120:8126   */\n      dup4\n        /* \"#utility.yul\":8116:8146   */\n      add\n        /* \"#utility.yul\":8169:8172   */\n      dup6\n        /* \"#utility.yul\":8161:8167   */\n      dup2\n        /* \"#utility.yul\":8158:8173   */\n      gt\n        /* \"#utility.yul\":8155:8277   */\n      iszero\n      tag_176\n      jumpi\n        /* \"#utility.yul\":8188:8267   */\n      tag_177\n      tag_84\n      jump\t// in\n    tag_177:\n        /* \"#utility.yul\":8155:8277   */\n    tag_176:\n        /* \"#utility.yul\":8303:8309   */\n      dup4\n        /* \"#utility.yul\":8286:8517   */\n    tag_178:\n        /* \"#utility.yul\":8320:8326   */\n      dup2\n        /* \"#utility.yul\":8315:8318   */\n      dup2\n        /* \"#utility.yul\":8312:8327   */\n      lt\n        /* \"#utility.yul\":8286:8517   */\n      iszero\n      tag_180\n      jumpi\n        /* \"#utility.yul\":8395:8398   */\n      dup1\n        /* \"#utility.yul\":8424:8472   */\n      tag_181\n        /* \"#utility.yul\":8468:8471   */\n      dup9\n        /* \"#utility.yul\":8456:8466   */\n      dup3\n        /* \"#utility.yul\":8424:8472   */\n      tag_77\n      jump\t// in\n    tag_181:\n        /* \"#utility.yul\":8419:8422   */\n      dup5\n        /* \"#utility.yul\":8412:8473   */\n      mstore\n        /* \"#utility.yul\":8502:8506   */\n      0x20\n        /* \"#utility.yul\":8497:8500   */\n      dup5\n        /* \"#utility.yul\":8493:8507   */\n      add\n        /* \"#utility.yul\":8486:8507   */\n      swap4\n      pop\n        /* \"#utility.yul\":8362:8517   */\n      pop\n        /* \"#utility.yul\":8346:8350   */\n      0x20\n        /* \"#utility.yul\":8341:8344   */\n      dup2\n        /* \"#utility.yul\":8337:8351   */\n      add\n        /* \"#utility.yul\":8330:8351   */\n      swap1\n      pop\n        /* \"#utility.yul\":8286:8517   */\n      jump(tag_178)\n    tag_180:\n        /* \"#utility.yul\":8290:8311   */\n      pop\n        /* \"#utility.yul\":7904:8523   */\n      pop\n      pop\n        /* \"#utility.yul\":7791:8523   */\n      swap4\n      swap3\n      pop\n      pop\n      pop\n      jump\t// out\n        /* \"#utility.yul\":8546:8931   */\n    tag_86:\n        /* \"#utility.yul\":8628:8633   */\n      0x00\n        /* \"#utility.yul\":8677:8680   */\n      dup3\n        /* \"#utility.yul\":8670:8674   */\n      0x1f\n        /* \"#utility.yul\":8662:8668   */\n      dup4\n        /* \"#utility.yul\":8658:8675   */\n      add\n        /* \"#utility.yul\":8654:8681   */\n      slt\n        /* \"#utility.yul\":8644:8766   */\n      tag_183\n      jumpi\n        /* \"#utility.yul\":8685:8764   */\n      tag_184\n      tag_78\n      jump\t// in\n    tag_184:\n        /* \"#utility.yul\":8644:8766   */\n    tag_183:\n        /* \"#utility.yul\":8795:8801   */\n      dup2\n        /* \"#utility.yul\":8789:8802   */\n      mload\n        /* \"#utility.yul\":8820:8925   */\n      tag_185\n        /* \"#utility.yul\":8921:8924   */\n      dup5\n        /* \"#utility.yul\":8913:8919   */\n      dup3\n        /* \"#utility.yul\":8906:8910   */\n      0x20\n        /* \"#utility.yul\":8898:8904   */\n      dup7\n        /* \"#utility.yul\":8894:8911   */\n      add\n        /* \"#utility.yul\":8820:8925   */\n      tag_85\n      jump\t// in\n    tag_185:\n        /* \"#utility.yul\":8811:8925   */\n      swap2\n      pop\n        /* \"#utility.yul\":8634:8931   */\n      pop\n        /* \"#utility.yul\":8546:8931   */\n      swap3\n      swap2\n      pop\n      pop\n      jump\t// out\n        /* \"#utility.yul\":8937:9491   */\n    tag_57:\n        /* \"#utility.yul\":9032:9038   */\n      0x00\n        /* \"#utility.yul\":9081:9083   */\n      0x20\n        /* \"#utility.yul\":9069:9078   */\n      dup3\n        /* \"#utility.yul\":9060:9067   */\n      dup5\n        /* \"#utility.yul\":9056:9079   */\n      sub\n        /* \"#utility.yul\":9052:9084   */\n      slt\n        /* \"#utility.yul\":9049:9168   */\n      iszero\n      tag_187\n      jumpi\n        /* \"#utility.yul\":9087:9166   */\n      tag_188\n      tag_59\n      jump\t// in\n    tag_188:\n        /* \"#utility.yul\":9049:9168   */\n    tag_187:\n        /* \"#utility.yul\":9228:9229   */\n      0x00\n        /* \"#utility.yul\":9217:9226   */\n      dup3\n        /* \"#utility.yul\":9213:9230   */\n      add\n        /* \"#utility.yul\":9207:9231   */\n      mload\n        /* \"#utility.yul\":9258:9276   */\n      0xffffffffffffffff\n        /* \"#utility.yul\":9250:9256   */\n      dup2\n        /* \"#utility.yul\":9247:9277   */\n      gt\n        /* \"#utility.yul\":9244:9361   */\n      iszero\n      tag_189\n      jumpi\n        /* \"#utility.yul\":9280:9359   */\n      tag_190\n      tag_60\n      jump\t// in\n    tag_190:\n        /* \"#utility.yul\":9244:9361   */\n    tag_189:\n        /* \"#utility.yul\":9385:9474   */\n      tag_191\n        /* \"#utility.yul\":9466:9473   */\n      dup5\n        /* \"#utility.yul\":9457:9463   */\n      dup3\n        /* \"#utility.yul\":9446:9455   */\n      dup6\n        /* \"#utility.yul\":9442:9464   */\n      add\n        /* \"#utility.yul\":9385:9474   */\n      tag_86\n      jump\t// in\n    tag_191:\n        /* \"#utility.yul\":9375:9474   */\n      swap2\n      pop\n        /* \"#utility.yul\":9178:9484   */\n      pop\n        /* \"#utility.yul\":8937:9491   */\n      swap3\n      swap2\n      pop\n      pop\n      jump\t// out\n\n    auxdata: 0xa26469706673582212200dfee78e59326628c3629a1182765a6a53170a1a0908543857f007b4b691c00364736f6c634300081a0033\n}\n",
				"bytecode": {
					"linkReferences": {
						"contracts/DAY07/MathLibrary.sol": {
							"MathLibrary": [
								{
									"length": 20,
									"start": 303
								},
								{
									"length": 20,
									"start": 431
								},
								{
									"length": 20,
									"start": 560
								},
								{
									"length": 20,
									"start": 684
								},
								{
									"length": 20,
									"start": 817
								}
							]
						}
					},
					"object": "6080604052348015600e575f80fd5b5061084a8061001c5f395ff3fe608060405234801561000f575f80fd5b506004361061004a575f3560e01c806305d09ad71461004e578063163b0e511461007e57806349ee380d146100ae5780638c87bb0a146100df575b5f80fd5b610068600480360381019061006391906103d8565b61010f565b604051610075919061041d565b60405180910390f35b610098600480360381019061009391906103d8565b61018f565b6040516100a59190610445565b60405180910390f35b6100c860048036038101906100c3919061045e565b61020f565b6040516100d692919061049c565b60405180910390f35b6100f960048036038101906100f491906103d8565b610310565b604051610106919061057a565b60405180910390f35b5f8173__$99aea197276ed7c9ab83708c433d5977f5$__63fe459d2090916040518263ffffffff1660e01b815260040161014991906105a9565b602060405180830381865af4158015610164573d5f803e3d5ffd5b505050506040513d601f19601f8201168201806040525081019061018891906105ec565b9050919050565b5f8173__$99aea197276ed7c9ab83708c433d5977f5$__638371483490916040518263ffffffff1660e01b81526004016101c991906105a9565b602060405180830381865af41580156101e4573d5f803e3d5ffd5b505050506040513d601f19601f82011682018060405250810190610208919061062b565b9050919050565b5f808373__$99aea197276ed7c9ab83708c433d5977f5$__636d5433e69091856040518363ffffffff1660e01b815260040161024c929190610656565b602060405180830381865af4158015610267573d5f803e3d5ffd5b505050506040513d601f19601f8201168201806040525081019061028b919061062b565b91508373__$99aea197276ed7c9ab83708c433d5977f5$__637ae2b5c79091856040518363ffffffff1660e01b81526004016102c8929190610656565b602060405180830381865af41580156102e3573d5f803e3d5ffd5b505050506040513d601f19601f82011682018060405250810190610307919061062b565b90509250929050565b60608173__$99aea197276ed7c9ab83708c433d5977f5$__6361047ff490916040518263ffffffff1660e01b815260040161034b91906105a9565b5f60405180830381865af4158015610365573d5f803e3d5ffd5b505050506040513d5f823e3d601f19601f8201168201806040525081019061038d91906107cd565b9050919050565b5f604051905090565b5f80fd5b5f80fd5b5f819050919050565b6103b7816103a5565b81146103c1575f80fd5b50565b5f813590506103d2816103ae565b92915050565b5f602082840312156103ed576103ec61039d565b5b5f6103fa848285016103c4565b91505092915050565b5f8115159050919050565b61041781610403565b82525050565b5f6020820190506104305f83018461040e565b92915050565b61043f816103a5565b82525050565b5f6020820190506104585f830184610436565b92915050565b5f80604083850312156104745761047361039d565b5b5f610481858286016103c4565b9250506020610492858286016103c4565b9150509250929050565b5f6040820190506104af5f830185610436565b6104bc6020830184610436565b9392505050565b5f81519050919050565b5f82825260208201905092915050565b5f819050602082019050919050565b6104f5816103a5565b82525050565b5f61050683836104ec565b60208301905092915050565b5f602082019050919050565b5f610528826104c3565b61053281856104cd565b935061053d836104dd565b805f5b8381101561056d57815161055488826104fb565b975061055f83610512565b925050600181019050610540565b5085935050505092915050565b5f6020820190508181035f830152610592818461051e565b905092915050565b6105a3816103a5565b82525050565b5f6020820190506105bc5f83018461059a565b92915050565b6105cb81610403565b81146105d5575f80fd5b50565b5f815190506105e6816105c2565b92915050565b5f602082840312156106015761060061039d565b5b5f61060e848285016105d8565b91505092915050565b5f81519050610625816103ae565b92915050565b5f602082840312156106405761063f61039d565b5b5f61064d84828501610617565b91505092915050565b5f6040820190506106695f83018561059a565b610676602083018461059a565b9392505050565b5f80fd5b5f601f19601f8301169050919050565b7f4e487b71000000000000000000000000000000000000000000000000000000005f52604160045260245ffd5b6106c782610681565b810181811067ffffffffffffffff821117156106e6576106e5610691565b5b80604052505050565b5f6106f8610394565b905061070482826106be565b919050565b5f67ffffffffffffffff82111561072357610722610691565b5b602082029050602081019050919050565b5f80fd5b5f61074a61074584610709565b6106ef565b9050808382526020820190506020840283018581111561076d5761076c610734565b5b835b8181101561079657806107828882610617565b84526020840193505060208101905061076f565b5050509392505050565b5f82601f8301126107b4576107b361067d565b5b81516107c4848260208601610738565b91505092915050565b5f602082840312156107e2576107e161039d565b5b5f82015167ffffffffffffffff8111156107ff576107fe6103a1565b5b61080b848285016107a0565b9150509291505056fea26469706673582212200dfee78e59326628c3629a1182765a6a53170a1a0908543857f007b4b691c00364736f6c634300081a0033",
					"opcodes": "PUSH1 0x80 PUSH1 0x40 MSTORE CALLVALUE DUP1 ISZERO PUSH1 0xE JUMPI PUSH0 DUP1 REVERT JUMPDEST POP PUSH2 0x84A DUP1 PUSH2 0x1C PUSH0 CODECOPY PUSH0 RETURN INVALID PUSH1 0x80 PUSH1 0x40 MSTORE CALLVALUE DUP1 ISZERO PUSH2 0xF JUMPI PUSH0 DUP1 REVERT JUMPDEST POP PUSH1 0x4 CALLDATASIZE LT PUSH2 0x4A JUMPI PUSH0 CALLDATALOAD PUSH1 0xE0 SHR DUP1 PUSH4 0x5D09AD7 EQ PUSH2 0x4E JUMPI DUP1 PUSH4 0x163B0E51 EQ PUSH2 0x7E JUMPI DUP1 PUSH4 0x49EE380D EQ PUSH2 0xAE JUMPI DUP1 PUSH4 0x8C87BB0A EQ PUSH2 0xDF JUMPI JUMPDEST PUSH0 DUP1 REVERT JUMPDEST PUSH2 0x68 PUSH1 0x4 DUP1 CALLDATASIZE SUB DUP2 ADD SWAP1 PUSH2 0x63 SWAP2 SWAP1 PUSH2 0x3D8 JUMP JUMPDEST PUSH2 0x10F JUMP JUMPDEST PUSH1 0x40 MLOAD PUSH2 0x75 SWAP2 SWAP1 PUSH2 0x41D JUMP JUMPDEST PUSH1 0x40 MLOAD DUP1 SWAP2 SUB SWAP1 RETURN JUMPDEST PUSH2 0x98 PUSH1 0x4 DUP1 CALLDATASIZE SUB DUP2 ADD SWAP1 PUSH2 0x93 SWAP2 SWAP1 PUSH2 0x3D8 JUMP JUMPDEST PUSH2 0x18F JUMP JUMPDEST PUSH1 0x40 MLOAD PUSH2 0xA5 SWAP2 SWAP1 PUSH2 0x445 JUMP JUMPDEST PUSH1 0x40 MLOAD DUP1 SWAP2 SUB SWAP1 RETURN JUMPDEST PUSH2 0xC8 PUSH1 0x4 DUP1 CALLDATASIZE SUB DUP2 ADD SWAP1 PUSH2 0xC3 SWAP2 SWAP1 PUSH2 0x45E JUMP JUMPDEST PUSH2 0x20F JUMP JUMPDEST PUSH1 0x40 MLOAD PUSH2 0xD6 SWAP3 SWAP2 SWAP1 PUSH2 0x49C JUMP JUMPDEST PUSH1 0x40 MLOAD DUP1 SWAP2 SUB SWAP1 RETURN JUMPDEST PUSH2 0xF9 PUSH1 0x4 DUP1 CALLDATASIZE SUB DUP2 ADD SWAP1 PUSH2 0xF4 SWAP2 SWAP1 PUSH2 0x3D8 JUMP JUMPDEST PUSH2 0x310 JUMP JUMPDEST PUSH1 0x40 MLOAD PUSH2 0x106 SWAP2 SWAP1 PUSH2 0x57A JUMP JUMPDEST PUSH1 0x40 MLOAD DUP1 SWAP2 SUB SWAP1 RETURN JUMPDEST PUSH0 DUP2 PUSH20 0x0 PUSH4 0xFE459D20 SWAP1 SWAP2 PUSH1 0x40 MLOAD DUP3 PUSH4 0xFFFFFFFF AND PUSH1 0xE0 SHL DUP2 MSTORE PUSH1 0x4 ADD PUSH2 0x149 SWAP2 SWAP1 PUSH2 0x5A9 JUMP JUMPDEST PUSH1 0x20 PUSH1 0x40 MLOAD DUP1 DUP4 SUB DUP2 DUP7 GAS DELEGATECALL ISZERO DUP1 ISZERO PUSH2 0x164 JUMPI RETURNDATASIZE PUSH0 DUP1 RETURNDATACOPY RETURNDATASIZE PUSH0 REVERT JUMPDEST POP POP POP POP PUSH1 0x40 MLOAD RETURNDATASIZE PUSH1 0x1F NOT PUSH1 0x1F DUP3 ADD AND DUP3 ADD DUP1 PUSH1 0x40 MSTORE POP DUP2 ADD SWAP1 PUSH2 0x188 SWAP2 SWAP1 PUSH2 0x5EC JUMP JUMPDEST SWAP1 POP SWAP2 SWAP1 POP JUMP JUMPDEST PUSH0 DUP2 PUSH20 0x0 PUSH4 0x83714834 SWAP1 SWAP2 PUSH1 0x40 MLOAD DUP3 PUSH4 0xFFFFFFFF AND PUSH1 0xE0 SHL DUP2 MSTORE PUSH1 0x4 ADD PUSH2 0x1C9 SWAP2 SWAP1 PUSH2 0x5A9 JUMP JUMPDEST PUSH1 0x20 PUSH1 0x40 MLOAD DUP1 DUP4 SUB DUP2 DUP7 GAS DELEGATECALL ISZERO DUP1 ISZERO PUSH2 0x1E4 JUMPI RETURNDATASIZE PUSH0 DUP1 RETURNDATACOPY RETURNDATASIZE PUSH0 REVERT JUMPDEST POP POP POP POP PUSH1 0x40 MLOAD RETURNDATASIZE PUSH1 0x1F NOT PUSH1 0x1F DUP3 ADD AND DUP3 ADD DUP1 PUSH1 0x40 MSTORE POP DUP2 ADD SWAP1 PUSH2 0x208 SWAP2 SWAP1 PUSH2 0x62B JUMP JUMPDEST SWAP1 POP SWAP2 SWAP1 POP JUMP JUMPDEST PUSH0 DUP1 DUP4 PUSH20 0x0 PUSH4 0x6D5433E6 SWAP1 SWAP2 DUP6 PUSH1 0x40 MLOAD DUP4 PUSH4 0xFFFFFFFF AND PUSH1 0xE0 SHL DUP2 MSTORE PUSH1 0x4 ADD PUSH2 0x24C SWAP3 SWAP2 SWAP1 PUSH2 0x656 JUMP JUMPDEST PUSH1 0x20 PUSH1 0x40 MLOAD DUP1 DUP4 SUB DUP2 DUP7 GAS DELEGATECALL ISZERO DUP1 ISZERO PUSH2 0x267 JUMPI RETURNDATASIZE PUSH0 DUP1 RETURNDATACOPY RETURNDATASIZE PUSH0 REVERT JUMPDEST POP POP POP POP PUSH1 0x40 MLOAD RETURNDATASIZE PUSH1 0x1F NOT PUSH1 0x1F DUP3 ADD AND DUP3 ADD DUP1 PUSH1 0x40 MSTORE POP DUP2 ADD SWAP1 PUSH2 0x28B SWAP2 SWAP1 PUSH2 0x62B JUMP JUMPDEST SWAP2 POP DUP4 PUSH20 0x0 PUSH4 0x7AE2B5C7 SWAP1 SWAP2 DUP6 PUSH1 0x40 MLOAD DUP4 PUSH4 0xFFFFFFFF AND PUSH1 0xE0 SHL DUP2 MSTORE PUSH1 0x4 ADD PUSH2 0x2C8 SWAP3 SWAP2 SWAP1 PUSH2 0x656 JUMP JUMPDEST PUSH1 0x20 PUSH1 0x40 MLOAD DUP1 DUP4 SUB DUP2 DUP7 GAS DELEGATECALL ISZERO DUP1 ISZERO PUSH2 0x2E3 JUMPI RETURNDATASIZE PUSH0 DUP1 RETURNDATACOPY RETURNDATASIZE PUSH0 REVERT JUMPDEST POP POP POP POP PUSH1 0x40 MLOAD RETURNDATASIZE PUSH1 0x1F NOT PUSH1 0x1F DUP3 ADD AND DUP3 ADD DUP1 PUSH1 0x40 MSTORE POP DUP2 ADD SWAP1 PUSH2 0x307 SWAP2 SWAP1 PUSH2 0x62B JUMP JUMPDEST SWAP1 POP SWAP3 POP SWAP3 SWAP1 POP JUMP JUMPDEST PUSH1 0x60 DUP2 PUSH20 0x0 PUSH4 0x61047FF4 SWAP1 SWAP2 PUSH1 0x40 MLOAD DUP3 PUSH4 0xFFFFFFFF AND PUSH1 0xE0 SHL DUP2 MSTORE PUSH1 0x4 ADD PUSH2 0x34B SWAP2 SWAP1 PUSH2 0x5A9 JUMP JUMPDEST PUSH0 PUSH1 0x40 MLOAD DUP1 DUP4 SUB DUP2 DUP7 GAS DELEGATECALL ISZERO DUP1 ISZERO PUSH2 0x365 JUMPI RETURNDATASIZE PUSH0 DUP1 RETURNDATACOPY RETURNDATASIZE PUSH0 REVERT JUMPDEST POP POP POP POP PUSH1 0x40 MLOAD RETURNDATASIZE PUSH0 DUP3 RETURNDATACOPY RETURNDATASIZE PUSH1 0x1F NOT PUSH1 0x1F DUP3 ADD AND DUP3 ADD DUP1 PUSH1 0x40 MSTORE POP DUP2 ADD SWAP1 PUSH2 0x38D SWAP2 SWAP1 PUSH2 0x7CD JUMP JUMPDEST SWAP1 POP SWAP2 SWAP1 POP JUMP JUMPDEST PUSH0 PUSH1 0x40 MLOAD SWAP1 POP SWAP1 JUMP JUMPDEST PUSH0 DUP1 REVERT JUMPDEST PUSH0 DUP1 REVERT JUMPDEST PUSH0 DUP2 SWAP1 POP SWAP2 SWAP1 POP JUMP JUMPDEST PUSH2 0x3B7 DUP2 PUSH2 0x3A5 JUMP JUMPDEST DUP2 EQ PUSH2 0x3C1 JUMPI PUSH0 DUP1 REVERT JUMPDEST POP JUMP JUMPDEST PUSH0 DUP2 CALLDATALOAD SWAP1 POP PUSH2 0x3D2 DUP2 PUSH2 0x3AE JUMP JUMPDEST SWAP3 SWAP2 POP POP JUMP JUMPDEST PUSH0 PUSH1 0x20 DUP3 DUP5 SUB SLT ISZERO PUSH2 0x3ED JUMPI PUSH2 0x3EC PUSH2 0x39D JUMP JUMPDEST JUMPDEST PUSH0 PUSH2 0x3FA DUP5 DUP3 DUP6 ADD PUSH2 0x3C4 JUMP JUMPDEST SWAP2 POP POP SWAP3 SWAP2 POP POP JUMP JUMPDEST PUSH0 DUP2 ISZERO ISZERO SWAP1 POP SWAP2 SWAP1 POP JUMP JUMPDEST PUSH2 0x417 DUP2 PUSH2 0x403 JUMP JUMPDEST DUP3 MSTORE POP POP JUMP JUMPDEST PUSH0 PUSH1 0x20 DUP3 ADD SWAP1 POP PUSH2 0x430 PUSH0 DUP4 ADD DUP5 PUSH2 0x40E JUMP JUMPDEST SWAP3 SWAP2 POP POP JUMP JUMPDEST PUSH2 0x43F DUP2 PUSH2 0x3A5 JUMP JUMPDEST DUP3 MSTORE POP POP JUMP JUMPDEST PUSH0 PUSH1 0x20 DUP3 ADD SWAP1 POP PUSH2 0x458 PUSH0 DUP4 ADD DUP5 PUSH2 0x436 JUMP JUMPDEST SWAP3 SWAP2 POP POP JUMP JUMPDEST PUSH0 DUP1 PUSH1 0x40 DUP4 DUP6 SUB SLT ISZERO PUSH2 0x474 JUMPI PUSH2 0x473 PUSH2 0x39D JUMP JUMPDEST JUMPDEST PUSH0 PUSH2 0x481 DUP6 DUP3 DUP7 ADD PUSH2 0x3C4 JUMP JUMPDEST SWAP3 POP POP PUSH1 0x20 PUSH2 0x492 DUP6 DUP3 DUP7 ADD PUSH2 0x3C4 JUMP JUMPDEST SWAP2 POP POP SWAP3 POP SWAP3 SWAP1 POP JUMP JUMPDEST PUSH0 PUSH1 0x40 DUP3 ADD SWAP1 POP PUSH2 0x4AF PUSH0 DUP4 ADD DUP6 PUSH2 0x436 JUMP JUMPDEST PUSH2 0x4BC PUSH1 0x20 DUP4 ADD DUP5 PUSH2 0x436 JUMP JUMPDEST SWAP4 SWAP3 POP POP POP JUMP JUMPDEST PUSH0 DUP2 MLOAD SWAP1 POP SWAP2 SWAP1 POP JUMP JUMPDEST PUSH0 DUP3 DUP3 MSTORE PUSH1 0x20 DUP3 ADD SWAP1 POP SWAP3 SWAP2 POP POP JUMP JUMPDEST PUSH0 DUP2 SWAP1 POP PUSH1 0x20 DUP3 ADD SWAP1 POP SWAP2 SWAP1 POP JUMP JUMPDEST PUSH2 0x4F5 DUP2 PUSH2 0x3A5 JUMP JUMPDEST DUP3 MSTORE POP POP JUMP JUMPDEST PUSH0 PUSH2 0x506 DUP4 DUP4 PUSH2 0x4EC JUMP JUMPDEST PUSH1 0x20 DUP4 ADD SWAP1 POP SWAP3 SWAP2 POP POP JUMP JUMPDEST PUSH0 PUSH1 0x20 DUP3 ADD SWAP1 POP SWAP2 SWAP1 POP JUMP JUMPDEST PUSH0 PUSH2 0x528 DUP3 PUSH2 0x4C3 JUMP JUMPDEST PUSH2 0x532 DUP2 DUP6 PUSH2 0x4CD JUMP JUMPDEST SWAP4 POP PUSH2 0x53D DUP4 PUSH2 0x4DD JUMP JUMPDEST DUP1 PUSH0 JUMPDEST DUP4 DUP2 LT ISZERO PUSH2 0x56D JUMPI DUP2 MLOAD PUSH2 0x554 DUP9 DUP3 PUSH2 0x4FB JUMP JUMPDEST SWAP8 POP PUSH2 0x55F DUP4 PUSH2 0x512 JUMP JUMPDEST SWAP3 POP POP PUSH1 0x1 DUP2 ADD SWAP1 POP PUSH2 0x540 JUMP JUMPDEST POP DUP6 SWAP4 POP POP POP POP SWAP3 SWAP2 POP POP JUMP JUMPDEST PUSH0 PUSH1 0x20 DUP3 ADD SWAP1 POP DUP2 DUP2 SUB PUSH0 DUP4 ADD MSTORE PUSH2 0x592 DUP2 DUP5 PUSH2 0x51E JUMP JUMPDEST SWAP1 POP SWAP3 SWAP2 POP POP JUMP JUMPDEST PUSH2 0x5A3 DUP2 PUSH2 0x3A5 JUMP JUMPDEST DUP3 MSTORE POP POP JUMP JUMPDEST PUSH0 PUSH1 0x20 DUP3 ADD SWAP1 POP PUSH2 0x5BC PUSH0 DUP4 ADD DUP5 PUSH2 0x59A JUMP JUMPDEST SWAP3 SWAP2 POP POP JUMP JUMPDEST PUSH2 0x5CB DUP2 PUSH2 0x403 JUMP JUMPDEST DUP2 EQ PUSH2 0x5D5 JUMPI PUSH0 DUP1 REVERT JUMPDEST POP JUMP JUMPDEST PUSH0 DUP2 MLOAD SWAP1 POP PUSH2 0x5E6 DUP2 PUSH2 0x5C2 JUMP JUMPDEST SWAP3 SWAP2 POP POP JUMP JUMPDEST PUSH0 PUSH1 0x20 DUP3 DUP5 SUB SLT ISZERO PUSH2 0x601 JUMPI PUSH2 0x600 PUSH2 0x39D JUMP JUMPDEST JUMPDEST PUSH0 PUSH2 0x60E DUP5 DUP3 DUP6 ADD PUSH2 0x5D8 JUMP JUMPDEST SWAP2 POP POP SWAP3 SWAP2 POP POP JUMP JUMPDEST PUSH0 DUP2 MLOAD SWAP1 POP PUSH2 0x625 DUP2 PUSH2 0x3AE JUMP JUMPDEST SWAP3 SWAP2 POP POP JUMP JUMPDEST PUSH0 PUSH1 0x20 DUP3 DUP5 SUB SLT ISZERO PUSH2 0x640 JUMPI PUSH2 0x63F PUSH2 0x39D JUMP JUMPDEST JUMPDEST PUSH0 PUSH2 0x64D DUP5 DUP3 DUP6 ADD PUSH2 0x617 JUMP JUMPDEST SWAP2 POP POP SWAP3 SWAP2 POP POP JUMP JUMPDEST PUSH0 PUSH1 0x40 DUP3 ADD SWAP1 POP PUSH2 0x669 PUSH0 DUP4 ADD DUP6 PUSH2 0x59A JUMP JUMPDEST PUSH2 0x676 PUSH1 0x20 DUP4 ADD DUP5 PUSH2 0x59A JUMP JUMPDEST SWAP4 SWAP3 POP POP POP JUMP JUMPDEST PUSH0 DUP1 REVERT JUMPDEST PUSH0 PUSH1 0x1F NOT PUSH1 0x1F DUP4 ADD AND SWAP1 POP SWAP2 SWAP1 POP JUMP JUMPDEST PUSH32 0x4E487B7100000000000000000000000000000000000000000000000000000000 PUSH0 MSTORE PUSH1 0x41 PUSH1 0x4 MSTORE PUSH1 0x24 PUSH0 REVERT JUMPDEST PUSH2 0x6C7 DUP3 PUSH2 0x681 JUMP JUMPDEST DUP2 ADD DUP2 DUP2 LT PUSH8 0xFFFFFFFFFFFFFFFF DUP3 GT OR ISZERO PUSH2 0x6E6 JUMPI PUSH2 0x6E5 PUSH2 0x691 JUMP JUMPDEST JUMPDEST DUP1 PUSH1 0x40 MSTORE POP POP POP JUMP JUMPDEST PUSH0 PUSH2 0x6F8 PUSH2 0x394 JUMP JUMPDEST SWAP1 POP PUSH2 0x704 DUP3 DUP3 PUSH2 0x6BE JUMP JUMPDEST SWAP2 SWAP1 POP JUMP JUMPDEST PUSH0 PUSH8 0xFFFFFFFFFFFFFFFF DUP3 GT ISZERO PUSH2 0x723 JUMPI PUSH2 0x722 PUSH2 0x691 JUMP JUMPDEST JUMPDEST PUSH1 0x20 DUP3 MUL SWAP1 POP PUSH1 0x20 DUP2 ADD SWAP1 POP SWAP2 SWAP1 POP JUMP JUMPDEST PUSH0 DUP1 REVERT JUMPDEST PUSH0 PUSH2 0x74A PUSH2 0x745 DUP5 PUSH2 0x709 JUMP JUMPDEST PUSH2 0x6EF JUMP JUMPDEST SWAP1 POP DUP1 DUP4 DUP3 MSTORE PUSH1 0x20 DUP3 ADD SWAP1 POP PUSH1 0x20 DUP5 MUL DUP4 ADD DUP6 DUP2 GT ISZERO PUSH2 0x76D JUMPI PUSH2 0x76C PUSH2 0x734 JUMP JUMPDEST JUMPDEST DUP4 JUMPDEST DUP2 DUP2 LT ISZERO PUSH2 0x796 JUMPI DUP1 PUSH2 0x782 DUP9 DUP3 PUSH2 0x617 JUMP JUMPDEST DUP5 MSTORE PUSH1 0x20 DUP5 ADD SWAP4 POP POP PUSH1 0x20 DUP2 ADD SWAP1 POP PUSH2 0x76F JUMP JUMPDEST POP POP POP SWAP4 SWAP3 POP POP POP JUMP JUMPDEST PUSH0 DUP3 PUSH1 0x1F DUP4 ADD SLT PUSH2 0x7B4 JUMPI PUSH2 0x7B3 PUSH2 0x67D JUMP JUMPDEST JUMPDEST DUP2 MLOAD PUSH2 0x7C4 DUP5 DUP3 PUSH1 0x20 DUP7 ADD PUSH2 0x738 JUMP JUMPDEST SWAP2 POP POP SWAP3 SWAP2 POP POP JUMP JUMPDEST PUSH0 PUSH1 0x20 DUP3 DUP5 SUB SLT ISZERO PUSH2 0x7E2 JUMPI PUSH2 0x7E1 PUSH2 0x39D JUMP JUMPDEST JUMPDEST PUSH0 DUP3 ADD MLOAD PUSH8 0xFFFFFFFFFFFFFFFF DUP2 GT ISZERO PUSH2 0x7FF JUMPI PUSH2 0x7FE PUSH2 0x3A1 JUMP JUMPDEST JUMPDEST PUSH2 0x80B DUP5 DUP3 DUP6 ADD PUSH2 0x7A0 JUMP JUMPDEST SWAP2 POP POP SWAP3 SWAP2 POP POP JUMP INVALID LOG2 PUSH5 0x6970667358 0x22 SLT KECCAK256 0xD INVALID 0xE7 DUP15 MSIZE ORIGIN PUSH7 0x28C3629A118276 GAS PUSH11 0x53170A1A0908543857F007 0xB4 0xB6 SWAP2 0xC0 SUB PUSH5 0x736F6C6343 STOP ADDMOD BYTE STOP CALLER "
				},
				"gasEstimates": {
					"creation": {
						"codeDepositCost": "424400",
						"executionCost": "459",
						"totalCost": "424859"
					},
					"external": {
						"testFactorial(uint256)": "infinite",
						"testFibonacci(uint256)": "infinite",
						"testIsArmstrong(uint256)": "infinite",
						"testMaxMin(uint256,uint256)": "infinite"
					}
				},
				"methodIdentifiers": {
					"testFactorial(uint256)": "163b0e51",
					"testFibonacci(uint256)": "8c87bb0a",
					"testIsArmstrong(uint256)": "05d09ad7",
					"testMaxMin(uint256,uint256)": "49ee380d"
				}
			},
			"storageLayout": {
				"storage": [],
				"types": null
			},
			"userdoc": {
				"kind": "user",
				"methods": {},
				"version": 1
			}
		}
	}
}