{
	"data": {
		"bytecode": {
			"linkReferences": {},
			"object": "6080604052348015600e575f80fd5b5061050c8061001c5f395ff3fe608060405234801561000f575f80fd5b506004361061004a575f3560e01c80630bdc13ed1461004e5780632c1360b21461006a57806338d9419314610074578063d504ea1d146100a4575b5f80fd5b61006860048036038101906100639190610253565b6100c2565b005b6100726100ea565b005b61008e600480360381019061008991906102b1565b6101a8565b60405161009b91906102eb565b60405180910390f35b6100ac6101c7565b6040516100b991906103bb565b60405180910390f35b5f81908060018154018082558091505060019003905f5260205f20015f909190919091505550565b5f8060015f805490506100fd9190610408565b90505b808210156101a4575f80838154811061011c5761011b61043b565b5b905f5260205f20015490505f828154811061013a5761013961043b565b5b905f5260205f2001545f84815481106101565761015561043b565b5b905f5260205f200181905550805f83815481106101765761017561043b565b5b905f5260205f200181905550828061018d90610468565b935050818061019b906104af565b92505050610100565b5050565b5f81815481106101b6575f80fd5b905f5260205f20015f915090505481565b60605f80548060200260200160405190810160405280929190818152602001828054801561021257602002820191905f5260205f20905b8154815260200190600101908083116101fe575b5050505050905090565b5f80fd5b5f819050919050565b61023281610220565b811461023c575f80fd5b50565b5f8135905061024d81610229565b92915050565b5f602082840312156102685761026761021c565b5b5f6102758482850161023f565b91505092915050565b5f819050919050565b6102908161027e565b811461029a575f80fd5b50565b5f813590506102ab81610287565b92915050565b5f602082840312156102c6576102c561021c565b5b5f6102d38482850161029d565b91505092915050565b6102e581610220565b82525050565b5f6020820190506102fe5f8301846102dc565b92915050565b5f81519050919050565b5f82825260208201905092915050565b5f819050602082019050919050565b61033681610220565b82525050565b5f610347838361032d565b60208301905092915050565b5f602082019050919050565b5f61036982610304565b610373818561030e565b935061037e8361031e565b805f5b838110156103ae578151610395888261033c565b97506103a083610353565b925050600181019050610381565b5085935050505092915050565b5f6020820190508181035f8301526103d3818461035f565b905092915050565b7f4e487b71000000000000000000000000000000000000000000000000000000005f52601160045260245ffd5b5f6104128261027e565b915061041d8361027e565b9250828203905081811115610435576104346103db565b5b92915050565b7f4e487b71000000000000000000000000000000000000000000000000000000005f52603260045260245ffd5b5f6104728261027e565b91507fffffffffffffffffffffffffffffffffffffffffffffffffffffffffffffffff82036104a4576104a36103db565b5b600182019050919050565b5f6104b98261027e565b91505f82036104cb576104ca6103db565b5b60018203905091905056fea2646970667358221220b9dbcd7b338f0eb257b3985a3c395285d335b8793cde96c1144bc0e0961bd86064736f6c634300081a0033",
			"opcodes": "PUSH1 0x80 PUSH1 0x40 MSTORE CALLVALUE DUP1 ISZERO PUSH1 0xE JUMPI PUSH0 DUP1 REVERT JUMPDEST POP PUSH2 0x50C DUP1 PUSH2 0x1C PUSH0 CODECOPY PUSH0 RETURN INVALID PUSH1 0x80 PUSH1 0x40 MSTORE CALLVALUE DUP1 ISZERO PUSH2 0xF JUMPI PUSH0 DUP1 REVERT JUMPDEST POP PUSH1 0x4 CALLDATASIZE LT PUSH2 0x4A JUMPI PUSH0 CALLDATALOAD PUSH1 0xE0 SHR DUP1 PUSH4 0xBDC13ED EQ PUSH2 0x4E JUMPI DUP1 PUSH4 0x2C1360B2 EQ PUSH2 0x6A JUMPI DUP1 PUSH4 0x38D94193 EQ PUSH2 0x74 JUMPI DUP1 PUSH4 0xD504EA1D EQ PUSH2 0xA4 JUMPI JUMPDEST PUSH0 DUP1 REVERT JUMPDEST PUSH2 0x68 PUSH1 0x4 DUP1 CALLDATASIZE SUB DUP2 ADD SWAP1 PUSH2 0x63 SWAP2 SWAP1 PUSH2 0x253 JUMP JUMPDEST PUSH2 0xC2 JUMP JUMPDEST STOP JUMPDEST PUSH2 0x72 PUSH2 0xEA JUMP JUMPDEST STOP JUMPDEST PUSH2 0x8E PUSH1 0x4 DUP1 CALLDATASIZE SUB DUP2 ADD SWAP1 PUSH2 0x89 SWAP2 SWAP1 PUSH2 0x2B1 JUMP JUMPDEST PUSH2 0x1A8 JUMP JUMPDEST PUSH1 0x40 MLOAD PUSH2 0x9B SWAP2 SWAP1 PUSH2 0x2EB JUMP JUMPDEST PUSH1 0x40 MLOAD DUP1 SWAP2 SUB SWAP1 RETURN JUMPDEST PUSH2 0xAC PUSH2 0x1C7 JUMP JUMPDEST PUSH1 0x40 MLOAD PUSH2 0xB9 SWAP2 SWAP1 PUSH2 0x3BB JUMP JUMPDEST PUSH1 0x40 MLOAD DUP1 SWAP2 SUB SWAP1 RETURN JUMPDEST PUSH0 DUP2 SWAP1 DUP1 PUSH1 0x1 DUP2 SLOAD ADD DUP1 DUP3 SSTORE DUP1 SWAP2 POP POP PUSH1 0x1 SWAP1 SUB SWAP1 PUSH0 MSTORE PUSH1 0x20 PUSH0 KECCAK256 ADD PUSH0 SWAP1 SWAP2 SWAP1 SWAP2 SWAP1 SWAP2 POP SSTORE POP JUMP JUMPDEST PUSH0 DUP1 PUSH1 0x1 PUSH0 DUP1 SLOAD SWAP1 POP PUSH2 0xFD SWAP2 SWAP1 PUSH2 0x408 JUMP JUMPDEST SWAP1 POP JUMPDEST DUP1 DUP3 LT ISZERO PUSH2 0x1A4 JUMPI PUSH0 DUP1 DUP4 DUP2 SLOAD DUP2 LT PUSH2 0x11C JUMPI PUSH2 0x11B PUSH2 0x43B JUMP JUMPDEST JUMPDEST SWAP1 PUSH0 MSTORE PUSH1 0x20 PUSH0 KECCAK256 ADD SLOAD SWAP1 POP PUSH0 DUP3 DUP2 SLOAD DUP2 LT PUSH2 0x13A JUMPI PUSH2 0x139 PUSH2 0x43B JUMP JUMPDEST JUMPDEST SWAP1 PUSH0 MSTORE PUSH1 0x20 PUSH0 KECCAK256 ADD SLOAD PUSH0 DUP5 DUP2 SLOAD DUP2 LT PUSH2 0x156 JUMPI PUSH2 0x155 PUSH2 0x43B JUMP JUMPDEST JUMPDEST SWAP1 PUSH0 MSTORE PUSH1 0x20 PUSH0 KECCAK256 ADD DUP2 SWAP1 SSTORE POP DUP1 PUSH0 DUP4 DUP2 SLOAD DUP2 LT PUSH2 0x176 JUMPI PUSH2 0x175 PUSH2 0x43B JUMP JUMPDEST JUMPDEST SWAP1 PUSH0 MSTORE PUSH1 0x20 PUSH0 KECCAK256 ADD DUP2 SWAP1 SSTORE POP DUP3 DUP1 PUSH2 0x18D SWAP1 PUSH2 0x468 JUMP JUMPDEST SWAP4 POP POP DUP2 DUP1 PUSH2 0x19B SWAP1 PUSH2 0x4AF JUMP JUMPDEST SWAP3 POP POP POP PUSH2 0x100 JUMP JUMPDEST POP POP JUMP JUMPDEST PUSH0 DUP2 DUP2 SLOAD DUP2 LT PUSH2 0x1B6 JUMPI PUSH0 DUP1 REVERT JUMPDEST SWAP1 PUSH0 MSTORE PUSH1 0x20 PUSH0 KECCAK256 ADD PUSH0 SWAP2 POP SWAP1 POP SLOAD DUP2 JUMP JUMPDEST PUSH1 0x60 PUSH0 DUP1 SLOAD DUP1 PUSH1 0x20 MUL PUSH1 0x20 ADD PUSH1 0x40 MLOAD SWAP1 DUP2 ADD PUSH1 0x40 MSTORE DUP1 SWAP3 SWAP2 SWAP1 DUP2 DUP2 MSTORE PUSH1 0x20 ADD DUP3 DUP1 SLOAD DUP1 ISZERO PUSH2 0x212 JUMPI PUSH1 0x20 MUL DUP3 ADD SWAP2 SWAP1 PUSH0 MSTORE PUSH1 0x20 PUSH0 KECCAK256 SWAP1 JUMPDEST DUP2 SLOAD DUP2 MSTORE PUSH1 0x20 ADD SWAP1 PUSH1 0x1 ADD SWAP1 DUP1 DUP4 GT PUSH2 0x1FE JUMPI JUMPDEST POP POP POP POP POP SWAP1 POP SWAP1 JUMP JUMPDEST PUSH0 DUP1 REVERT JUMPDEST PUSH0 DUP2 SWAP1 POP SWAP2 SWAP1 POP JUMP JUMPDEST PUSH2 0x232 DUP2 PUSH2 0x220 JUMP JUMPDEST DUP2 EQ PUSH2 0x23C JUMPI PUSH0 DUP1 REVERT JUMPDEST POP JUMP JUMPDEST PUSH0 DUP2 CALLDATALOAD SWAP1 POP PUSH2 0x24D DUP2 PUSH2 0x229 JUMP JUMPDEST SWAP3 SWAP2 POP POP JUMP JUMPDEST PUSH0 PUSH1 0x20 DUP3 DUP5 SUB SLT ISZERO PUSH2 0x268 JUMPI PUSH2 0x267 PUSH2 0x21C JUMP JUMPDEST JUMPDEST PUSH0 PUSH2 0x275 DUP5 DUP3 DUP6 ADD PUSH2 0x23F JUMP JUMPDEST SWAP2 POP POP SWAP3 SWAP2 POP POP JUMP JUMPDEST PUSH0 DUP2 SWAP1 POP SWAP2 SWAP1 POP JUMP JUMPDEST PUSH2 0x290 DUP2 PUSH2 0x27E JUMP JUMPDEST DUP2 EQ PUSH2 0x29A JUMPI PUSH0 DUP1 REVERT JUMPDEST POP JUMP JUMPDEST PUSH0 DUP2 CALLDATALOAD SWAP1 POP PUSH2 0x2AB DUP2 PUSH2 0x287 JUMP JUMPDEST SWAP3 SWAP2 POP POP JUMP JUMPDEST PUSH0 PUSH1 0x20 DUP3 DUP5 SUB SLT ISZERO PUSH2 0x2C6 JUMPI PUSH2 0x2C5 PUSH2 0x21C JUMP JUMPDEST JUMPDEST PUSH0 PUSH2 0x2D3 DUP5 DUP3 DUP6 ADD PUSH2 0x29D JUMP JUMPDEST SWAP2 POP POP SWAP3 SWAP2 POP POP JUMP JUMPDEST PUSH2 0x2E5 DUP2 PUSH2 0x220 JUMP JUMPDEST DUP3 MSTORE POP POP JUMP JUMPDEST PUSH0 PUSH1 0x20 DUP3 ADD SWAP1 POP PUSH2 0x2FE PUSH0 DUP4 ADD DUP5 PUSH2 0x2DC JUMP JUMPDEST SWAP3 SWAP2 POP POP JUMP JUMPDEST PUSH0 DUP2 MLOAD SWAP1 POP SWAP2 SWAP1 POP JUMP JUMPDEST PUSH0 DUP3 DUP3 MSTORE PUSH1 0x20 DUP3 ADD SWAP1 POP SWAP3 SWAP2 POP POP JUMP JUMPDEST PUSH0 DUP2 SWAP1 POP PUSH1 0x20 DUP3 ADD SWAP1 POP SWAP2 SWAP1 POP JUMP JUMPDEST PUSH2 0x336 DUP2 PUSH2 0x220 JUMP JUMPDEST DUP3 MSTORE POP POP JUMP JUMPDEST PUSH0 PUSH2 0x347 DUP4 DUP4 PUSH2 0x32D JUMP JUMPDEST PUSH1 0x20 DUP4 ADD SWAP1 POP SWAP3 SWAP2 POP POP JUMP JUMPDEST PUSH0 PUSH1 0x20 DUP3 ADD SWAP1 POP SWAP2 SWAP1 POP JUMP JUMPDEST PUSH0 PUSH2 0x369 DUP3 PUSH2 0x304 JUMP JUMPDEST PUSH2 0x373 DUP2 DUP6 PUSH2 0x30E JUMP JUMPDEST SWAP4 POP PUSH2 0x37E DUP4 PUSH2 0x31E JUMP JUMPDEST DUP1 PUSH0 JUMPDEST DUP4 DUP2 LT ISZERO PUSH2 0x3AE JUMPI DUP2 MLOAD PUSH2 0x395 DUP9 DUP3 PUSH2 0x33C JUMP JUMPDEST SWAP8 POP PUSH2 0x3A0 DUP4 PUSH2 0x353 JUMP JUMPDEST SWAP3 POP POP PUSH1 0x1 DUP2 ADD SWAP1 POP PUSH2 0x381 JUMP JUMPDEST POP DUP6 SWAP4 POP POP POP POP SWAP3 SWAP2 POP POP JUMP JUMPDEST PUSH0 PUSH1 0x20 DUP3 ADD SWAP1 POP DUP2 DUP2 SUB PUSH0 DUP4 ADD MSTORE PUSH2 0x3D3 DUP2 DUP5 PUSH2 0x35F JUMP JUMPDEST SWAP1 POP SWAP3 SWAP2 POP POP JUMP JUMPDEST PUSH32 0x4E487B7100000000000000000000000000000000000000000000000000000000 PUSH0 MSTORE PUSH1 0x11 PUSH1 0x4 MSTORE PUSH1 0x24 PUSH0 REVERT JUMPDEST PUSH0 PUSH2 0x412 DUP3 PUSH2 0x27E JUMP JUMPDEST SWAP2 POP PUSH2 0x41D DUP4 PUSH2 0x27E JUMP JUMPDEST SWAP3 POP DUP3 DUP3 SUB SWAP1 POP DUP2 DUP2 GT ISZERO PUSH2 0x435 JUMPI PUSH2 0x434 PUSH2 0x3DB JUMP JUMPDEST JUMPDEST SWAP3 SWAP2 POP POP JUMP JUMPDEST PUSH32 0x4E487B7100000000000000000000000000000000000000000000000000000000 PUSH0 MSTORE PUSH1 0x32 PUSH1 0x4 MSTORE PUSH1 0x24 PUSH0 REVERT JUMPDEST PUSH0 PUSH2 0x472 DUP3 PUSH2 0x27E JUMP JUMPDEST SWAP2 POP PUSH32 0xFFFFFFFFFFFFFFFFFFFFFFFFFFFFFFFFFFFFFFFFFFFFFFFFFFFFFFFFFFFFFFFF DUP3 SUB PUSH2 0x4A4 JUMPI PUSH2 0x4A3 PUSH2 0x3DB JUMP JUMPDEST JUMPDEST PUSH1 0x1 DUP3 ADD SWAP1 POP SWAP2 SWAP1 POP JUMP JUMPDEST PUSH0 PUSH2 0x4B9 DUP3 PUSH2 0x27E JUMP JUMPDEST SWAP2 POP PUSH0 DUP3 SUB PUSH2 0x4CB JUMPI PUSH2 0x4CA PUSH2 0x3DB JUMP JUMPDEST JUMPDEST PUSH1 0x1 DUP3 SUB SWAP1 POP SWAP2 SWAP1 POP JUMP INVALID LOG2 PUSH5 0x6970667358 0x22 SLT KECCAK256 0xB9 0xDB 0xCD PUSH28 0x338F0EB257B3985A3C395285D335B8793CDE96C1144BC0E0961BD860 PUSH5 0x736F6C6343 STOP ADDMOD BYTE STOP CALLER "
		},
		"gasEstimates": {
			"creation": {
				"codeDepositCost": "258400",
				"executionCost": "298",
				"totalCost": "258698"
			},
			"external": {
				"addElement(int256)": "46798",
				"array(uint256)": "4892",
				"getArray()": "infinite",
				"reverseArray()": "infinite"
			}
		},
		"methodIdentifiers": {
			"addElement(int256)": "0bdc13ed",
			"array(uint256)": "38d94193",
			"getArray()": "d504ea1d",
			"reverseArray()": "2c1360b2"
		}
	},
	"abi": [
		{
			"inputs": [
				{
					"internalType": "int256",
					"name": "element",
					"type": "int256"
				}
			],
			"name": "addElement",
			"outputs": [],
			"stateMutability": "nonpayable",
			"type": "function"
		},
		{
			"inputs": [
				{
					"internalType": "uint256",
					"name": "",
					"type": "uint256"
				}
			],
			"name": "array",
			"outputs": [
				{
					"internalType": "int256",
					"name": "",
					"type": "int256"
				}
			],
			"stateMutability": "view",
			"type": "function"
		},
		{
			"inputs": [],
			"name": "getArray",
			"outputs": [
				{
					"internalType": "int256[]",
					"name": "",
					"type": "int256[]"
				}
			],
			"stateMutability": "view",
			"type": "function"
		},
		{
			"inputs": [],
			"name": "reverseArray",
			"outputs": [],
			"stateMutability": "nonpayable",
			"type": "function"
		}
	]
}