{
	"data": {
		"bytecode": {
			"linkReferences": {},
			"object": "6080604052348015600e575f80fd5b506109a98061001c5f395ff3fe608060405234801561000f575f80fd5b506004361061004a575f3560e01c80635ad3a0a81461004e5780637f7f455a1461006c5780638b8ca91114610076578063d9a38d6414610092575b5f80fd5b6100566100c2565b60405161006391906105dd565b60405180910390f35b61007461015b565b005b610090600480360381019061008b9190610866565b61030f565b005b6100ac60048036038101906100a791906108e0565b610328565b6040516100b9919061092d565b60405180910390f35b60605f805480602002602001604051908101604052809291908181526020015f905b82821015610152578382905f5260205f200180548060200260200160405190810160405280929190818152602001828054801561013e57602002820191905f5260205f20905b81548152602001906001019080831161012a575b5050505050815260200190600101906100e4565b50505050905090565b5f808054905090505f805f8154811061017757610176610946565b5b905f5260205f20018054905090505f8167ffffffffffffffff8111156101a05761019f610622565b5b6040519080825280602002602001820160405280156101d357816020015b60608152602001906001900390816101be5790505b5090505f5b82811015610254578367ffffffffffffffff8111156101fa576101f9610622565b5b6040519080825280602002602001820160405280156102285781602001602082028036833780820191505090505b5082828151811061023c5761023b610946565b5b602002602001018190525080806001019150506101d8565b505f5b838110156102f3575f5b838110156102e5575f828154811061027c5761027b610946565b5b905f5260205f2001818154811061029657610295610946565b5b905f5260205f2001548382815181106102b2576102b1610946565b5b602002602001015183815181106102cc576102cb610946565b5b6020026020010181815250508080600101915050610261565b508080600101915050610257565b50805f908051906020019061030992919061035d565b50505050565b805f908051906020019061032492919061035d565b5050565b5f8281548110610336575f80fd5b905f5260205f2001818154811061034b575f80fd5b905f5260205f20015f91509150505481565b828054828255905f5260205f209081019282156103aa579160200282015b828111156103a95782518290805190602001906103999291906103bb565b509160200191906001019061037b565b5b5090506103b79190610406565b5090565b828054828255905f5260205f209081019282156103f5579160200282015b828111156103f45782518255916020019190600101906103d9565b5b5090506104029190610429565b5090565b5b80821115610425575f818161041c9190610444565b50600101610407565b5090565b5b80821115610440575f815f90555060010161042a565b5090565b5080545f8255905f5260205f209081019061045f9190610429565b50565b5f81519050919050565b5f82825260208201905092915050565b5f819050602082019050919050565b5f81519050919050565b5f82825260208201905092915050565b5f819050602082019050919050565b5f819050919050565b6104c6816104b4565b82525050565b5f6104d783836104bd565b60208301905092915050565b5f602082019050919050565b5f6104f98261048b565b6105038185610495565b935061050e836104a5565b805f5b8381101561053e57815161052588826104cc565b9750610530836104e3565b925050600181019050610511565b5085935050505092915050565b5f61055683836104ef565b905092915050565b5f602082019050919050565b5f61057482610462565b61057e818561046c565b9350836020820285016105908561047c565b805f5b858110156105cb57848403895281516105ac858261054b565b94506105b78361055e565b925060208a01995050600181019050610593565b50829750879550505050505092915050565b5f6020820190508181035f8301526105f5818461056a565b905092915050565b5f604051905090565b5f80fd5b5f80fd5b5f80fd5b5f601f19601f8301169050919050565b7f4e487b71000000000000000000000000000000000000000000000000000000005f52604160045260245ffd5b61065882610612565b810181811067ffffffffffffffff8211171561067757610676610622565b5b80604052505050565b5f6106896105fd565b9050610695828261064f565b919050565b5f67ffffffffffffffff8211156106b4576106b3610622565b5b602082029050602081019050919050565b5f80fd5b5f67ffffffffffffffff8211156106e3576106e2610622565b5b602082029050602081019050919050565b6106fd816104b4565b8114610707575f80fd5b50565b5f81359050610718816106f4565b92915050565b5f61073061072b846106c9565b610680565b90508083825260208201905060208402830185811115610753576107526106c5565b5b835b8181101561077c5780610768888261070a565b845260208401935050602081019050610755565b5050509392505050565b5f82601f83011261079a5761079961060e565b5b81356107aa84826020860161071e565b91505092915050565b5f6107c56107c08461069a565b610680565b905080838252602082019050602084028301858111156107e8576107e76106c5565b5b835b8181101561082f57803567ffffffffffffffff81111561080d5761080c61060e565b5b80860161081a8982610786565b855260208501945050506020810190506107ea565b5050509392505050565b5f82601f83011261084d5761084c61060e565b5b813561085d8482602086016107b3565b91505092915050565b5f6020828403121561087b5761087a610606565b5b5f82013567ffffffffffffffff8111156108985761089761060a565b5b6108a484828501610839565b91505092915050565b5f819050919050565b6108bf816108ad565b81146108c9575f80fd5b50565b5f813590506108da816108b6565b92915050565b5f80604083850312156108f6576108f5610606565b5b5f610903858286016108cc565b9250506020610914858286016108cc565b9150509250929050565b610927816104b4565b82525050565b5f6020820190506109405f83018461091e565b92915050565b7f4e487b71000000000000000000000000000000000000000000000000000000005f52603260045260245ffdfea26469706673582212207e75377280ac2d082e60631904da3e1edd3b108f3eea3c2e764f933ee597c7eb64736f6c634300081a0033",
			"opcodes": "PUSH1 0x80 PUSH1 0x40 MSTORE CALLVALUE DUP1 ISZERO PUSH1 0xE JUMPI PUSH0 DUP1 REVERT JUMPDEST POP PUSH2 0x9A9 DUP1 PUSH2 0x1C PUSH0 CODECOPY PUSH0 RETURN INVALID PUSH1 0x80 PUSH1 0x40 MSTORE CALLVALUE DUP1 ISZERO PUSH2 0xF JUMPI PUSH0 DUP1 REVERT JUMPDEST POP PUSH1 0x4 CALLDATASIZE LT PUSH2 0x4A JUMPI PUSH0 CALLDATALOAD PUSH1 0xE0 SHR DUP1 PUSH4 0x5AD3A0A8 EQ PUSH2 0x4E JUMPI DUP1 PUSH4 0x7F7F455A EQ PUSH2 0x6C JUMPI DUP1 PUSH4 0x8B8CA911 EQ PUSH2 0x76 JUMPI DUP1 PUSH4 0xD9A38D64 EQ PUSH2 0x92 JUMPI JUMPDEST PUSH0 DUP1 REVERT JUMPDEST PUSH2 0x56 PUSH2 0xC2 JUMP JUMPDEST PUSH1 0x40 MLOAD PUSH2 0x63 SWAP2 SWAP1 PUSH2 0x5DD JUMP JUMPDEST PUSH1 0x40 MLOAD DUP1 SWAP2 SUB SWAP1 RETURN JUMPDEST PUSH2 0x74 PUSH2 0x15B JUMP JUMPDEST STOP JUMPDEST PUSH2 0x90 PUSH1 0x4 DUP1 CALLDATASIZE SUB DUP2 ADD SWAP1 PUSH2 0x8B SWAP2 SWAP1 PUSH2 0x866 JUMP JUMPDEST PUSH2 0x30F JUMP JUMPDEST STOP JUMPDEST PUSH2 0xAC PUSH1 0x4 DUP1 CALLDATASIZE SUB DUP2 ADD SWAP1 PUSH2 0xA7 SWAP2 SWAP1 PUSH2 0x8E0 JUMP JUMPDEST PUSH2 0x328 JUMP JUMPDEST PUSH1 0x40 MLOAD PUSH2 0xB9 SWAP2 SWAP1 PUSH2 0x92D JUMP JUMPDEST PUSH1 0x40 MLOAD DUP1 SWAP2 SUB SWAP1 RETURN JUMPDEST PUSH1 0x60 PUSH0 DUP1 SLOAD DUP1 PUSH1 0x20 MUL PUSH1 0x20 ADD PUSH1 0x40 MLOAD SWAP1 DUP2 ADD PUSH1 0x40 MSTORE DUP1 SWAP3 SWAP2 SWAP1 DUP2 DUP2 MSTORE PUSH1 0x20 ADD PUSH0 SWAP1 JUMPDEST DUP3 DUP3 LT ISZERO PUSH2 0x152 JUMPI DUP4 DUP3 SWAP1 PUSH0 MSTORE PUSH1 0x20 PUSH0 KECCAK256 ADD DUP1 SLOAD DUP1 PUSH1 0x20 MUL PUSH1 0x20 ADD PUSH1 0x40 MLOAD SWAP1 DUP2 ADD PUSH1 0x40 MSTORE DUP1 SWAP3 SWAP2 SWAP1 DUP2 DUP2 MSTORE PUSH1 0x20 ADD DUP3 DUP1 SLOAD DUP1 ISZERO PUSH2 0x13E JUMPI PUSH1 0x20 MUL DUP3 ADD SWAP2 SWAP1 PUSH0 MSTORE PUSH1 0x20 PUSH0 KECCAK256 SWAP1 JUMPDEST DUP2 SLOAD DUP2 MSTORE PUSH1 0x20 ADD SWAP1 PUSH1 0x1 ADD SWAP1 DUP1 DUP4 GT PUSH2 0x12A JUMPI JUMPDEST POP POP POP POP POP DUP2 MSTORE PUSH1 0x20 ADD SWAP1 PUSH1 0x1 ADD SWAP1 PUSH2 0xE4 JUMP JUMPDEST POP POP POP POP SWAP1 POP SWAP1 JUMP JUMPDEST PUSH0 DUP1 DUP1 SLOAD SWAP1 POP SWAP1 POP PUSH0 DUP1 PUSH0 DUP2 SLOAD DUP2 LT PUSH2 0x177 JUMPI PUSH2 0x176 PUSH2 0x946 JUMP JUMPDEST JUMPDEST SWAP1 PUSH0 MSTORE PUSH1 0x20 PUSH0 KECCAK256 ADD DUP1 SLOAD SWAP1 POP SWAP1 POP PUSH0 DUP2 PUSH8 0xFFFFFFFFFFFFFFFF DUP2 GT ISZERO PUSH2 0x1A0 JUMPI PUSH2 0x19F PUSH2 0x622 JUMP JUMPDEST JUMPDEST PUSH1 0x40 MLOAD SWAP1 DUP1 DUP3 MSTORE DUP1 PUSH1 0x20 MUL PUSH1 0x20 ADD DUP3 ADD PUSH1 0x40 MSTORE DUP1 ISZERO PUSH2 0x1D3 JUMPI DUP2 PUSH1 0x20 ADD JUMPDEST PUSH1 0x60 DUP2 MSTORE PUSH1 0x20 ADD SWAP1 PUSH1 0x1 SWAP1 SUB SWAP1 DUP2 PUSH2 0x1BE JUMPI SWAP1 POP JUMPDEST POP SWAP1 POP PUSH0 JUMPDEST DUP3 DUP2 LT ISZERO PUSH2 0x254 JUMPI DUP4 PUSH8 0xFFFFFFFFFFFFFFFF DUP2 GT ISZERO PUSH2 0x1FA JUMPI PUSH2 0x1F9 PUSH2 0x622 JUMP JUMPDEST JUMPDEST PUSH1 0x40 MLOAD SWAP1 DUP1 DUP3 MSTORE DUP1 PUSH1 0x20 MUL PUSH1 0x20 ADD DUP3 ADD PUSH1 0x40 MSTORE DUP1 ISZERO PUSH2 0x228 JUMPI DUP2 PUSH1 0x20 ADD PUSH1 0x20 DUP3 MUL DUP1 CALLDATASIZE DUP4 CALLDATACOPY DUP1 DUP3 ADD SWAP2 POP POP SWAP1 POP JUMPDEST POP DUP3 DUP3 DUP2 MLOAD DUP2 LT PUSH2 0x23C JUMPI PUSH2 0x23B PUSH2 0x946 JUMP JUMPDEST JUMPDEST PUSH1 0x20 MUL PUSH1 0x20 ADD ADD DUP2 SWAP1 MSTORE POP DUP1 DUP1 PUSH1 0x1 ADD SWAP2 POP POP PUSH2 0x1D8 JUMP JUMPDEST POP PUSH0 JUMPDEST DUP4 DUP2 LT ISZERO PUSH2 0x2F3 JUMPI PUSH0 JUMPDEST DUP4 DUP2 LT ISZERO PUSH2 0x2E5 JUMPI PUSH0 DUP3 DUP2 SLOAD DUP2 LT PUSH2 0x27C JUMPI PUSH2 0x27B PUSH2 0x946 JUMP JUMPDEST JUMPDEST SWAP1 PUSH0 MSTORE PUSH1 0x20 PUSH0 KECCAK256 ADD DUP2 DUP2 SLOAD DUP2 LT PUSH2 0x296 JUMPI PUSH2 0x295 PUSH2 0x946 JUMP JUMPDEST JUMPDEST SWAP1 PUSH0 MSTORE PUSH1 0x20 PUSH0 KECCAK256 ADD SLOAD DUP4 DUP3 DUP2 MLOAD DUP2 LT PUSH2 0x2B2 JUMPI PUSH2 0x2B1 PUSH2 0x946 JUMP JUMPDEST JUMPDEST PUSH1 0x20 MUL PUSH1 0x20 ADD ADD MLOAD DUP4 DUP2 MLOAD DUP2 LT PUSH2 0x2CC JUMPI PUSH2 0x2CB PUSH2 0x946 JUMP JUMPDEST JUMPDEST PUSH1 0x20 MUL PUSH1 0x20 ADD ADD DUP2 DUP2 MSTORE POP POP DUP1 DUP1 PUSH1 0x1 ADD SWAP2 POP POP PUSH2 0x261 JUMP JUMPDEST POP DUP1 DUP1 PUSH1 0x1 ADD SWAP2 POP POP PUSH2 0x257 JUMP JUMPDEST POP DUP1 PUSH0 SWAP1 DUP1 MLOAD SWAP1 PUSH1 0x20 ADD SWAP1 PUSH2 0x309 SWAP3 SWAP2 SWAP1 PUSH2 0x35D JUMP JUMPDEST POP POP POP POP JUMP JUMPDEST DUP1 PUSH0 SWAP1 DUP1 MLOAD SWAP1 PUSH1 0x20 ADD SWAP1 PUSH2 0x324 SWAP3 SWAP2 SWAP1 PUSH2 0x35D JUMP JUMPDEST POP POP JUMP JUMPDEST PUSH0 DUP3 DUP2 SLOAD DUP2 LT PUSH2 0x336 JUMPI PUSH0 DUP1 REVERT JUMPDEST SWAP1 PUSH0 MSTORE PUSH1 0x20 PUSH0 KECCAK256 ADD DUP2 DUP2 SLOAD DUP2 LT PUSH2 0x34B JUMPI PUSH0 DUP1 REVERT JUMPDEST SWAP1 PUSH0 MSTORE PUSH1 0x20 PUSH0 KECCAK256 ADD PUSH0 SWAP2 POP SWAP2 POP POP SLOAD DUP2 JUMP JUMPDEST DUP3 DUP1 SLOAD DUP3 DUP3 SSTORE SWAP1 PUSH0 MSTORE PUSH1 0x20 PUSH0 KECCAK256 SWAP1 DUP2 ADD SWAP3 DUP3 ISZERO PUSH2 0x3AA JUMPI SWAP2 PUSH1 0x20 MUL DUP3 ADD JUMPDEST DUP3 DUP2 GT ISZERO PUSH2 0x3A9 JUMPI DUP3 MLOAD DUP3 SWAP1 DUP1 MLOAD SWAP1 PUSH1 0x20 ADD SWAP1 PUSH2 0x399 SWAP3 SWAP2 SWAP1 PUSH2 0x3BB JUMP JUMPDEST POP SWAP2 PUSH1 0x20 ADD SWAP2 SWAP1 PUSH1 0x1 ADD SWAP1 PUSH2 0x37B JUMP JUMPDEST JUMPDEST POP SWAP1 POP PUSH2 0x3B7 SWAP2 SWAP1 PUSH2 0x406 JUMP JUMPDEST POP SWAP1 JUMP JUMPDEST DUP3 DUP1 SLOAD DUP3 DUP3 SSTORE SWAP1 PUSH0 MSTORE PUSH1 0x20 PUSH0 KECCAK256 SWAP1 DUP2 ADD SWAP3 DUP3 ISZERO PUSH2 0x3F5 JUMPI SWAP2 PUSH1 0x20 MUL DUP3 ADD JUMPDEST DUP3 DUP2 GT ISZERO PUSH2 0x3F4 JUMPI DUP3 MLOAD DUP3 SSTORE SWAP2 PUSH1 0x20 ADD SWAP2 SWAP1 PUSH1 0x1 ADD SWAP1 PUSH2 0x3D9 JUMP JUMPDEST JUMPDEST POP SWAP1 POP PUSH2 0x402 SWAP2 SWAP1 PUSH2 0x429 JUMP JUMPDEST POP SWAP1 JUMP JUMPDEST JUMPDEST DUP1 DUP3 GT ISZERO PUSH2 0x425 JUMPI PUSH0 DUP2 DUP2 PUSH2 0x41C SWAP2 SWAP1 PUSH2 0x444 JUMP JUMPDEST POP PUSH1 0x1 ADD PUSH2 0x407 JUMP JUMPDEST POP SWAP1 JUMP JUMPDEST JUMPDEST DUP1 DUP3 GT ISZERO PUSH2 0x440 JUMPI PUSH0 DUP2 PUSH0 SWAP1 SSTORE POP PUSH1 0x1 ADD PUSH2 0x42A JUMP JUMPDEST POP SWAP1 JUMP JUMPDEST POP DUP1 SLOAD PUSH0 DUP3 SSTORE SWAP1 PUSH0 MSTORE PUSH1 0x20 PUSH0 KECCAK256 SWAP1 DUP2 ADD SWAP1 PUSH2 0x45F SWAP2 SWAP1 PUSH2 0x429 JUMP JUMPDEST POP JUMP JUMPDEST PUSH0 DUP2 MLOAD SWAP1 POP SWAP2 SWAP1 POP JUMP JUMPDEST PUSH0 DUP3 DUP3 MSTORE PUSH1 0x20 DUP3 ADD SWAP1 POP SWAP3 SWAP2 POP POP JUMP JUMPDEST PUSH0 DUP2 SWAP1 POP PUSH1 0x20 DUP3 ADD SWAP1 POP SWAP2 SWAP1 POP JUMP JUMPDEST PUSH0 DUP2 MLOAD SWAP1 POP SWAP2 SWAP1 POP JUMP JUMPDEST PUSH0 DUP3 DUP3 MSTORE PUSH1 0x20 DUP3 ADD SWAP1 POP SWAP3 SWAP2 POP POP JUMP JUMPDEST PUSH0 DUP2 SWAP1 POP PUSH1 0x20 DUP3 ADD SWAP1 POP SWAP2 SWAP1 POP JUMP JUMPDEST PUSH0 DUP2 SWAP1 POP SWAP2 SWAP1 POP JUMP JUMPDEST PUSH2 0x4C6 DUP2 PUSH2 0x4B4 JUMP JUMPDEST DUP3 MSTORE POP POP JUMP JUMPDEST PUSH0 PUSH2 0x4D7 DUP4 DUP4 PUSH2 0x4BD JUMP JUMPDEST PUSH1 0x20 DUP4 ADD SWAP1 POP SWAP3 SWAP2 POP POP JUMP JUMPDEST PUSH0 PUSH1 0x20 DUP3 ADD SWAP1 POP SWAP2 SWAP1 POP JUMP JUMPDEST PUSH0 PUSH2 0x4F9 DUP3 PUSH2 0x48B JUMP JUMPDEST PUSH2 0x503 DUP2 DUP6 PUSH2 0x495 JUMP JUMPDEST SWAP4 POP PUSH2 0x50E DUP4 PUSH2 0x4A5 JUMP JUMPDEST DUP1 PUSH0 JUMPDEST DUP4 DUP2 LT ISZERO PUSH2 0x53E JUMPI DUP2 MLOAD PUSH2 0x525 DUP9 DUP3 PUSH2 0x4CC JUMP JUMPDEST SWAP8 POP PUSH2 0x530 DUP4 PUSH2 0x4E3 JUMP JUMPDEST SWAP3 POP POP PUSH1 0x1 DUP2 ADD SWAP1 POP PUSH2 0x511 JUMP JUMPDEST POP DUP6 SWAP4 POP POP POP POP SWAP3 SWAP2 POP POP JUMP JUMPDEST PUSH0 PUSH2 0x556 DUP4 DUP4 PUSH2 0x4EF JUMP JUMPDEST SWAP1 POP SWAP3 SWAP2 POP POP JUMP JUMPDEST PUSH0 PUSH1 0x20 DUP3 ADD SWAP1 POP SWAP2 SWAP1 POP JUMP JUMPDEST PUSH0 PUSH2 0x574 DUP3 PUSH2 0x462 JUMP JUMPDEST PUSH2 0x57E DUP2 DUP6 PUSH2 0x46C JUMP JUMPDEST SWAP4 POP DUP4 PUSH1 0x20 DUP3 MUL DUP6 ADD PUSH2 0x590 DUP6 PUSH2 0x47C JUMP JUMPDEST DUP1 PUSH0 JUMPDEST DUP6 DUP2 LT ISZERO PUSH2 0x5CB JUMPI DUP5 DUP5 SUB DUP10 MSTORE DUP2 MLOAD PUSH2 0x5AC DUP6 DUP3 PUSH2 0x54B JUMP JUMPDEST SWAP5 POP PUSH2 0x5B7 DUP4 PUSH2 0x55E JUMP JUMPDEST SWAP3 POP PUSH1 0x20 DUP11 ADD SWAP10 POP POP PUSH1 0x1 DUP2 ADD SWAP1 POP PUSH2 0x593 JUMP JUMPDEST POP DUP3 SWAP8 POP DUP8 SWAP6 POP POP POP POP POP POP SWAP3 SWAP2 POP POP JUMP JUMPDEST PUSH0 PUSH1 0x20 DUP3 ADD SWAP1 POP DUP2 DUP2 SUB PUSH0 DUP4 ADD MSTORE PUSH2 0x5F5 DUP2 DUP5 PUSH2 0x56A JUMP JUMPDEST SWAP1 POP SWAP3 SWAP2 POP POP JUMP JUMPDEST PUSH0 PUSH1 0x40 MLOAD SWAP1 POP SWAP1 JUMP JUMPDEST PUSH0 DUP1 REVERT JUMPDEST PUSH0 DUP1 REVERT JUMPDEST PUSH0 DUP1 REVERT JUMPDEST PUSH0 PUSH1 0x1F NOT PUSH1 0x1F DUP4 ADD AND SWAP1 POP SWAP2 SWAP1 POP JUMP JUMPDEST PUSH32 0x4E487B7100000000000000000000000000000000000000000000000000000000 PUSH0 MSTORE PUSH1 0x41 PUSH1 0x4 MSTORE PUSH1 0x24 PUSH0 REVERT JUMPDEST PUSH2 0x658 DUP3 PUSH2 0x612 JUMP JUMPDEST DUP2 ADD DUP2 DUP2 LT PUSH8 0xFFFFFFFFFFFFFFFF DUP3 GT OR ISZERO PUSH2 0x677 JUMPI PUSH2 0x676 PUSH2 0x622 JUMP JUMPDEST JUMPDEST DUP1 PUSH1 0x40 MSTORE POP POP POP JUMP JUMPDEST PUSH0 PUSH2 0x689 PUSH2 0x5FD JUMP JUMPDEST SWAP1 POP PUSH2 0x695 DUP3 DUP3 PUSH2 0x64F JUMP JUMPDEST SWAP2 SWAP1 POP JUMP JUMPDEST PUSH0 PUSH8 0xFFFFFFFFFFFFFFFF DUP3 GT ISZERO PUSH2 0x6B4 JUMPI PUSH2 0x6B3 PUSH2 0x622 JUMP JUMPDEST JUMPDEST PUSH1 0x20 DUP3 MUL SWAP1 POP PUSH1 0x20 DUP2 ADD SWAP1 POP SWAP2 SWAP1 POP JUMP JUMPDEST PUSH0 DUP1 REVERT JUMPDEST PUSH0 PUSH8 0xFFFFFFFFFFFFFFFF DUP3 GT ISZERO PUSH2 0x6E3 JUMPI PUSH2 0x6E2 PUSH2 0x622 JUMP JUMPDEST JUMPDEST PUSH1 0x20 DUP3 MUL SWAP1 POP PUSH1 0x20 DUP2 ADD SWAP1 POP SWAP2 SWAP1 POP JUMP JUMPDEST PUSH2 0x6FD DUP2 PUSH2 0x4B4 JUMP JUMPDEST DUP2 EQ PUSH2 0x707 JUMPI PUSH0 DUP1 REVERT JUMPDEST POP JUMP JUMPDEST PUSH0 DUP2 CALLDATALOAD SWAP1 POP PUSH2 0x718 DUP2 PUSH2 0x6F4 JUMP JUMPDEST SWAP3 SWAP2 POP POP JUMP JUMPDEST PUSH0 PUSH2 0x730 PUSH2 0x72B DUP5 PUSH2 0x6C9 JUMP JUMPDEST PUSH2 0x680 JUMP JUMPDEST SWAP1 POP DUP1 DUP4 DUP3 MSTORE PUSH1 0x20 DUP3 ADD SWAP1 POP PUSH1 0x20 DUP5 MUL DUP4 ADD DUP6 DUP2 GT ISZERO PUSH2 0x753 JUMPI PUSH2 0x752 PUSH2 0x6C5 JUMP JUMPDEST JUMPDEST DUP4 JUMPDEST DUP2 DUP2 LT ISZERO PUSH2 0x77C JUMPI DUP1 PUSH2 0x768 DUP9 DUP3 PUSH2 0x70A JUMP JUMPDEST DUP5 MSTORE PUSH1 0x20 DUP5 ADD SWAP4 POP POP PUSH1 0x20 DUP2 ADD SWAP1 POP PUSH2 0x755 JUMP JUMPDEST POP POP POP SWAP4 SWAP3 POP POP POP JUMP JUMPDEST PUSH0 DUP3 PUSH1 0x1F DUP4 ADD SLT PUSH2 0x79A JUMPI PUSH2 0x799 PUSH2 0x60E JUMP JUMPDEST JUMPDEST DUP2 CALLDATALOAD PUSH2 0x7AA DUP5 DUP3 PUSH1 0x20 DUP7 ADD PUSH2 0x71E JUMP JUMPDEST SWAP2 POP POP SWAP3 SWAP2 POP POP JUMP JUMPDEST PUSH0 PUSH2 0x7C5 PUSH2 0x7C0 DUP5 PUSH2 0x69A JUMP JUMPDEST PUSH2 0x680 JUMP JUMPDEST SWAP1 POP DUP1 DUP4 DUP3 MSTORE PUSH1 0x20 DUP3 ADD SWAP1 POP PUSH1 0x20 DUP5 MUL DUP4 ADD DUP6 DUP2 GT ISZERO PUSH2 0x7E8 JUMPI PUSH2 0x7E7 PUSH2 0x6C5 JUMP JUMPDEST JUMPDEST DUP4 JUMPDEST DUP2 DUP2 LT ISZERO PUSH2 0x82F JUMPI DUP1 CALLDATALOAD PUSH8 0xFFFFFFFFFFFFFFFF DUP2 GT ISZERO PUSH2 0x80D JUMPI PUSH2 0x80C PUSH2 0x60E JUMP JUMPDEST JUMPDEST DUP1 DUP7 ADD PUSH2 0x81A DUP10 DUP3 PUSH2 0x786 JUMP JUMPDEST DUP6 MSTORE PUSH1 0x20 DUP6 ADD SWAP5 POP POP POP PUSH1 0x20 DUP2 ADD SWAP1 POP PUSH2 0x7EA JUMP JUMPDEST POP POP POP SWAP4 SWAP3 POP POP POP JUMP JUMPDEST PUSH0 DUP3 PUSH1 0x1F DUP4 ADD SLT PUSH2 0x84D JUMPI PUSH2 0x84C PUSH2 0x60E JUMP JUMPDEST JUMPDEST DUP2 CALLDATALOAD PUSH2 0x85D DUP5 DUP3 PUSH1 0x20 DUP7 ADD PUSH2 0x7B3 JUMP JUMPDEST SWAP2 POP POP SWAP3 SWAP2 POP POP JUMP JUMPDEST PUSH0 PUSH1 0x20 DUP3 DUP5 SUB SLT ISZERO PUSH2 0x87B JUMPI PUSH2 0x87A PUSH2 0x606 JUMP JUMPDEST JUMPDEST PUSH0 DUP3 ADD CALLDATALOAD PUSH8 0xFFFFFFFFFFFFFFFF DUP2 GT ISZERO PUSH2 0x898 JUMPI PUSH2 0x897 PUSH2 0x60A JUMP JUMPDEST JUMPDEST PUSH2 0x8A4 DUP5 DUP3 DUP6 ADD PUSH2 0x839 JUMP JUMPDEST SWAP2 POP POP SWAP3 SWAP2 POP POP JUMP JUMPDEST PUSH0 DUP2 SWAP1 POP SWAP2 SWAP1 POP JUMP JUMPDEST PUSH2 0x8BF DUP2 PUSH2 0x8AD JUMP JUMPDEST DUP2 EQ PUSH2 0x8C9 JUMPI PUSH0 DUP1 REVERT JUMPDEST POP JUMP JUMPDEST PUSH0 DUP2 CALLDATALOAD SWAP1 POP PUSH2 0x8DA DUP2 PUSH2 0x8B6 JUMP JUMPDEST SWAP3 SWAP2 POP POP JUMP JUMPDEST PUSH0 DUP1 PUSH1 0x40 DUP4 DUP6 SUB SLT ISZERO PUSH2 0x8F6 JUMPI PUSH2 0x8F5 PUSH2 0x606 JUMP JUMPDEST JUMPDEST PUSH0 PUSH2 0x903 DUP6 DUP3 DUP7 ADD PUSH2 0x8CC JUMP JUMPDEST SWAP3 POP POP PUSH1 0x20 PUSH2 0x914 DUP6 DUP3 DUP7 ADD PUSH2 0x8CC JUMP JUMPDEST SWAP2 POP POP SWAP3 POP SWAP3 SWAP1 POP JUMP JUMPDEST PUSH2 0x927 DUP2 PUSH2 0x4B4 JUMP JUMPDEST DUP3 MSTORE POP POP JUMP JUMPDEST PUSH0 PUSH1 0x20 DUP3 ADD SWAP1 POP PUSH2 0x940 PUSH0 DUP4 ADD DUP5 PUSH2 0x91E JUMP JUMPDEST SWAP3 SWAP2 POP POP JUMP JUMPDEST PUSH32 0x4E487B7100000000000000000000000000000000000000000000000000000000 PUSH0 MSTORE PUSH1 0x32 PUSH1 0x4 MSTORE PUSH1 0x24 PUSH0 REVERT INVALID LOG2 PUSH5 0x6970667358 0x22 SLT KECCAK256 PUSH31 0x75377280AC2D082E60631904DA3E1EDD3B108F3EEA3C2E764F933EE597C7EB PUSH5 0x736F6C6343 STOP ADDMOD BYTE STOP CALLER "
		},
		"gasEstimates": {
			"creation": {
				"codeDepositCost": "494600",
				"executionCost": "528",
				"totalCost": "495128"
			},
			"external": {
				"getMatrix()": "infinite",
				"matrix(uint256,uint256)": "infinite",
				"setMatrix(int256[][])": "infinite",
				"transposeMatrix()": "infinite"
			}
		},
		"methodIdentifiers": {
			"getMatrix()": "5ad3a0a8",
			"matrix(uint256,uint256)": "d9a38d64",
			"setMatrix(int256[][])": "8b8ca911",
			"transposeMatrix()": "7f7f455a"
		}
	},
	"abi": [
		{
			"inputs": [],
			"name": "getMatrix",
			"outputs": [
				{
					"internalType": "int256[][]",
					"name": "",
					"type": "int256[][]"
				}
			],
			"stateMutability": "view",
			"type": "function"
		},
		{
			"inputs": [
				{
					"internalType": "uint256",
					"name": "",
					"type": "uint256"
				},
				{
					"internalType": "uint256",
					"name": "",
					"type": "uint256"
				}
			],
			"name": "matrix",
			"outputs": [
				{
					"internalType": "int256",
					"name": "",
					"type": "int256"
				}
			],
			"stateMutability": "view",
			"type": "function"
		},
		{
			"inputs": [
				{
					"internalType": "int256[][]",
					"name": "_matrix",
					"type": "int256[][]"
				}
			],
			"name": "setMatrix",
			"outputs": [],
			"stateMutability": "nonpayable",
			"type": "function"
		},
		{
			"inputs": [],
			"name": "transposeMatrix",
			"outputs": [],
			"stateMutability": "nonpayable",
			"type": "function"
		}
	]
}