{
	"contracts/day6/p2.sol": {
		"Circle": {
			"abi": [
				{
					"inputs": [
						{
							"internalType": "uint256",
							"name": "_radius",
							"type": "uint256"
						}
					],
					"stateMutability": "nonpayable",
					"type": "constructor"
				},
				{
					"inputs": [],
					"name": "getArea",
					"outputs": [
						{
							"internalType": "uint256",
							"name": "",
							"type": "uint256"
						}
					],
					"stateMutability": "view",
					"type": "function"
				},
				{
					"inputs": [],
					"name": "getPerimeter",
					"outputs": [
						{
							"internalType": "uint256",
							"name": "",
							"type": "uint256"
						}
					],
					"stateMutability": "view",
					"type": "function"
				},
				{
					"inputs": [],
					"name": "radius",
					"outputs": [
						{
							"internalType": "uint256",
							"name": "",
							"type": "uint256"
						}
					],
					"stateMutability": "view",
					"type": "function"
				}
			],
			"devdoc": {
				"kind": "dev",
				"methods": {},
				"version": 1
			},
			"evm": {
				"assembly": "    /* \"contracts/day6/p2.sol\":355:1036  contract Circle is Shape {... */\n  mstore(0x40, 0x80)\n    /* \"contracts/day6/p2.sol\":476:540  constructor(uint256 _radius) {... */\n  callvalue\n  dup1\n  iszero\n  tag_1\n  jumpi\n  0x00\n  dup1\n  revert\ntag_1:\n  pop\n  mload(0x40)\n  sub(codesize, bytecodeSize)\n  dup1\n  bytecodeSize\n  dup4\n  codecopy\n  dup2\n  dup2\n  add\n  0x40\n  mstore\n  dup2\n  add\n  swap1\n  tag_2\n  swap2\n  swap1\n  tag_3\n  jump\t// in\ntag_2:\n    /* \"contracts/day6/p2.sol\":525:532  _radius */\n  dup1\n    /* \"contracts/day6/p2.sol\":516:522  radius */\n  0x00\n    /* \"contracts/day6/p2.sol\":516:532  radius = _radius */\n  dup2\n  swap1\n  sstore\n  pop\n    /* \"contracts/day6/p2.sol\":476:540  constructor(uint256 _radius) {... */\n  pop\n    /* \"contracts/day6/p2.sol\":355:1036  contract Circle is Shape {... */\n  jump(tag_6)\n    /* \"#utility.yul\":88:205   */\ntag_8:\n    /* \"#utility.yul\":197:198   */\n  0x00\n    /* \"#utility.yul\":194:195   */\n  dup1\n    /* \"#utility.yul\":187:199   */\n  revert\n    /* \"#utility.yul\":334:411   */\ntag_10:\n    /* \"#utility.yul\":371:378   */\n  0x00\n    /* \"#utility.yul\":400:405   */\n  dup2\n    /* \"#utility.yul\":389:405   */\n  swap1\n  pop\n    /* \"#utility.yul\":334:411   */\n  swap2\n  swap1\n  pop\n  jump\t// out\n    /* \"#utility.yul\":417:539   */\ntag_11:\n    /* \"#utility.yul\":490:514   */\n  tag_19\n    /* \"#utility.yul\":508:513   */\n  dup2\n    /* \"#utility.yul\":490:514   */\n  tag_10\n  jump\t// in\ntag_19:\n    /* \"#utility.yul\":483:488   */\n  dup2\n    /* \"#utility.yul\":480:515   */\n  eq\n    /* \"#utility.yul\":470:533   */\n  tag_20\n  jumpi\n    /* \"#utility.yul\":529:530   */\n  0x00\n    /* \"#utility.yul\":526:527   */\n  dup1\n    /* \"#utility.yul\":519:531   */\n  revert\n    /* \"#utility.yul\":470:533   */\ntag_20:\n    /* \"#utility.yul\":417:539   */\n  pop\n  jump\t// out\n    /* \"#utility.yul\":545:688   */\ntag_12:\n    /* \"#utility.yul\":602:607   */\n  0x00\n    /* \"#utility.yul\":633:639   */\n  dup2\n    /* \"#utility.yul\":627:640   */\n  mload\n    /* \"#utility.yul\":618:640   */\n  swap1\n  pop\n    /* \"#utility.yul\":649:682   */\n  tag_22\n    /* \"#utility.yul\":676:681   */\n  dup2\n    /* \"#utility.yul\":649:682   */\n  tag_11\n  jump\t// in\ntag_22:\n    /* \"#utility.yul\":545:688   */\n  swap3\n  swap2\n  pop\n  pop\n  jump\t// out\n    /* \"#utility.yul\":694:1045   */\ntag_3:\n    /* \"#utility.yul\":764:770   */\n  0x00\n    /* \"#utility.yul\":813:815   */\n  0x20\n    /* \"#utility.yul\":801:810   */\n  dup3\n    /* \"#utility.yul\":792:799   */\n  dup5\n    /* \"#utility.yul\":788:811   */\n  sub\n    /* \"#utility.yul\":784:816   */\n  slt\n    /* \"#utility.yul\":781:900   */\n  iszero\n  tag_24\n  jumpi\n    /* \"#utility.yul\":819:898   */\n  tag_25\n  tag_8\n  jump\t// in\ntag_25:\n    /* \"#utility.yul\":781:900   */\ntag_24:\n    /* \"#utility.yul\":939:940   */\n  0x00\n    /* \"#utility.yul\":964:1028   */\n  tag_26\n    /* \"#utility.yul\":1020:1027   */\n  dup5\n    /* \"#utility.yul\":1011:1017   */\n  dup3\n    /* \"#utility.yul\":1000:1009   */\n  dup6\n    /* \"#utility.yul\":996:1018   */\n  add\n    /* \"#utility.yul\":964:1028   */\n  tag_12\n  jump\t// in\ntag_26:\n    /* \"#utility.yul\":954:1028   */\n  swap2\n  pop\n    /* \"#utility.yul\":910:1038   */\n  pop\n    /* \"#utility.yul\":694:1045   */\n  swap3\n  swap2\n  pop\n  pop\n  jump\t// out\n    /* \"contracts/day6/p2.sol\":355:1036  contract Circle is Shape {... */\ntag_6:\n  dataSize(sub_0)\n  dup1\n  dataOffset(sub_0)\n  0x00\n  codecopy\n  0x00\n  return\nstop\n\nsub_0: assembly {\n        /* \"contracts/day6/p2.sol\":355:1036  contract Circle is Shape {... */\n      mstore(0x40, 0x80)\n      callvalue\n      dup1\n      iszero\n      tag_1\n      jumpi\n      0x00\n      dup1\n      revert\n    tag_1:\n      pop\n      jumpi(tag_2, lt(calldatasize, 0x04))\n      shr(0xe0, calldataload(0x00))\n      dup1\n      0x217f4353\n      eq\n      tag_3\n      jumpi\n      dup1\n      0x7ebeb19c\n      eq\n      tag_4\n      jumpi\n      dup1\n      0x85be3e62\n      eq\n      tag_5\n      jumpi\n    tag_2:\n      0x00\n      dup1\n      revert\n        /* \"contracts/day6/p2.sol\":387:408  uint256 public radius */\n    tag_3:\n      tag_6\n      tag_7\n      jump\t// in\n    tag_6:\n      mload(0x40)\n      tag_8\n      swap2\n      swap1\n      tag_9\n      jump\t// in\n    tag_8:\n      mload(0x40)\n      dup1\n      swap2\n      sub\n      swap1\n      return\n        /* \"contracts/day6/p2.sol\":606:790  function getPerimeter() public view override returns (uint256) {... */\n    tag_4:\n      tag_10\n      tag_11\n      jump\t// in\n    tag_10:\n      mload(0x40)\n      tag_12\n      swap2\n      swap1\n      tag_9\n      jump\t// in\n    tag_12:\n      mload(0x40)\n      dup1\n      swap2\n      sub\n      swap1\n      return\n        /* \"contracts/day6/p2.sol\":849:1033  function getArea() public view override returns (uint256) {... */\n    tag_5:\n      tag_13\n      tag_14\n      jump\t// in\n    tag_13:\n      mload(0x40)\n      tag_15\n      swap2\n      swap1\n      tag_9\n      jump\t// in\n    tag_15:\n      mload(0x40)\n      dup1\n      swap2\n      sub\n      swap1\n      return\n        /* \"contracts/day6/p2.sol\":387:408  uint256 public radius */\n    tag_7:\n      sload(0x00)\n      dup2\n      jump\t// out\n        /* \"contracts/day6/p2.sol\":606:790  function getPerimeter() public view override returns (uint256) {... */\n    tag_11:\n        /* \"contracts/day6/p2.sol\":660:667  uint256 */\n      0x00\n        /* \"contracts/day6/p2.sol\":719:735  1000000000000000 */\n      0x038d7ea4c68000\n        /* \"contracts/day6/p2.sol\":710:716  radius */\n      sload(0x00)\n        /* \"contracts/day6/p2.sol\":687:707  2 * 3141592653589793 */\n      0x165286144ada42\n        /* \"contracts/day6/p2.sol\":687:716  2 * 3141592653589793 * radius */\n      tag_17\n      swap2\n      swap1\n      tag_18\n      jump\t// in\n    tag_17:\n        /* \"contracts/day6/p2.sol\":687:735  2 * 3141592653589793 * radius / 1000000000000000 */\n      tag_19\n      swap2\n      swap1\n      tag_20\n      jump\t// in\n    tag_19:\n        /* \"contracts/day6/p2.sol\":680:735  return 2 * 3141592653589793 * radius / 1000000000000000 */\n      swap1\n      pop\n        /* \"contracts/day6/p2.sol\":606:790  function getPerimeter() public view override returns (uint256) {... */\n      swap1\n      jump\t// out\n        /* \"contracts/day6/p2.sol\":849:1033  function getArea() public view override returns (uint256) {... */\n    tag_14:\n        /* \"contracts/day6/p2.sol\":898:905  uint256 */\n      0x00\n        /* \"contracts/day6/p2.sol\":962:978  1000000000000000 */\n      0x038d7ea4c68000\n        /* \"contracts/day6/p2.sol\":953:959  radius */\n      sload(0x00)\n        /* \"contracts/day6/p2.sol\":944:950  radius */\n      sload(0x00)\n        /* \"contracts/day6/p2.sol\":925:941  3141592653589793 */\n      0x0b29430a256d21\n        /* \"contracts/day6/p2.sol\":925:950  3141592653589793 * radius */\n      tag_22\n      swap2\n      swap1\n      tag_18\n      jump\t// in\n    tag_22:\n        /* \"contracts/day6/p2.sol\":925:959  3141592653589793 * radius * radius */\n      tag_23\n      swap2\n      swap1\n      tag_18\n      jump\t// in\n    tag_23:\n        /* \"contracts/day6/p2.sol\":925:978  3141592653589793 * radius * radius / 1000000000000000 */\n      tag_24\n      swap2\n      swap1\n      tag_20\n      jump\t// in\n    tag_24:\n        /* \"contracts/day6/p2.sol\":918:978  return 3141592653589793 * radius * radius / 1000000000000000 */\n      swap1\n      pop\n        /* \"contracts/day6/p2.sol\":849:1033  function getArea() public view override returns (uint256) {... */\n      swap1\n      jump\t// out\n        /* \"#utility.yul\":7:84   */\n    tag_25:\n        /* \"#utility.yul\":44:51   */\n      0x00\n        /* \"#utility.yul\":73:78   */\n      dup2\n        /* \"#utility.yul\":62:78   */\n      swap1\n      pop\n        /* \"#utility.yul\":7:84   */\n      swap2\n      swap1\n      pop\n      jump\t// out\n        /* \"#utility.yul\":90:208   */\n    tag_26:\n        /* \"#utility.yul\":177:201   */\n      tag_32\n        /* \"#utility.yul\":195:200   */\n      dup2\n        /* \"#utility.yul\":177:201   */\n      tag_25\n      jump\t// in\n    tag_32:\n        /* \"#utility.yul\":172:175   */\n      dup3\n        /* \"#utility.yul\":165:202   */\n      mstore\n        /* \"#utility.yul\":90:208   */\n      pop\n      pop\n      jump\t// out\n        /* \"#utility.yul\":214:436   */\n    tag_9:\n        /* \"#utility.yul\":307:311   */\n      0x00\n        /* \"#utility.yul\":345:347   */\n      0x20\n        /* \"#utility.yul\":334:343   */\n      dup3\n        /* \"#utility.yul\":330:348   */\n      add\n        /* \"#utility.yul\":322:348   */\n      swap1\n      pop\n        /* \"#utility.yul\":358:429   */\n      tag_34\n        /* \"#utility.yul\":426:427   */\n      0x00\n        /* \"#utility.yul\":415:424   */\n      dup4\n        /* \"#utility.yul\":411:428   */\n      add\n        /* \"#utility.yul\":402:408   */\n      dup5\n        /* \"#utility.yul\":358:429   */\n      tag_26\n      jump\t// in\n    tag_34:\n        /* \"#utility.yul\":214:436   */\n      swap3\n      swap2\n      pop\n      pop\n      jump\t// out\n        /* \"#utility.yul\":442:622   */\n    tag_27:\n        /* \"#utility.yul\":490:567   */\n      0x4e487b7100000000000000000000000000000000000000000000000000000000\n        /* \"#utility.yul\":487:488   */\n      0x00\n        /* \"#utility.yul\":480:568   */\n      mstore\n        /* \"#utility.yul\":587:591   */\n      0x11\n        /* \"#utility.yul\":584:585   */\n      0x04\n        /* \"#utility.yul\":577:592   */\n      mstore\n        /* \"#utility.yul\":611:615   */\n      0x24\n        /* \"#utility.yul\":608:609   */\n      0x00\n        /* \"#utility.yul\":601:616   */\n      revert\n        /* \"#utility.yul\":628:1038   */\n    tag_18:\n        /* \"#utility.yul\":668:675   */\n      0x00\n        /* \"#utility.yul\":691:711   */\n      tag_37\n        /* \"#utility.yul\":709:710   */\n      dup3\n        /* \"#utility.yul\":691:711   */\n      tag_25\n      jump\t// in\n    tag_37:\n        /* \"#utility.yul\":686:711   */\n      swap2\n      pop\n        /* \"#utility.yul\":725:745   */\n      tag_38\n        /* \"#utility.yul\":743:744   */\n      dup4\n        /* \"#utility.yul\":725:745   */\n      tag_25\n      jump\t// in\n    tag_38:\n        /* \"#utility.yul\":720:745   */\n      swap3\n      pop\n        /* \"#utility.yul\":780:781   */\n      dup3\n        /* \"#utility.yul\":777:778   */\n      dup3\n        /* \"#utility.yul\":773:782   */\n      mul\n        /* \"#utility.yul\":802:832   */\n      tag_39\n        /* \"#utility.yul\":820:831   */\n      dup2\n        /* \"#utility.yul\":802:832   */\n      tag_25\n      jump\t// in\n    tag_39:\n        /* \"#utility.yul\":791:832   */\n      swap2\n      pop\n        /* \"#utility.yul\":981:982   */\n      dup3\n        /* \"#utility.yul\":972:979   */\n      dup3\n        /* \"#utility.yul\":968:983   */\n      div\n        /* \"#utility.yul\":965:966   */\n      dup5\n        /* \"#utility.yul\":962:984   */\n      eq\n        /* \"#utility.yul\":942:943   */\n      dup4\n        /* \"#utility.yul\":935:944   */\n      iszero\n        /* \"#utility.yul\":915:998   */\n      or\n        /* \"#utility.yul\":892:1031   */\n      tag_40\n      jumpi\n        /* \"#utility.yul\":1011:1029   */\n      tag_41\n      tag_27\n      jump\t// in\n    tag_41:\n        /* \"#utility.yul\":892:1031   */\n    tag_40:\n        /* \"#utility.yul\":676:1038   */\n      pop\n        /* \"#utility.yul\":628:1038   */\n      swap3\n      swap2\n      pop\n      pop\n      jump\t// out\n        /* \"#utility.yul\":1044:1224   */\n    tag_28:\n        /* \"#utility.yul\":1092:1169   */\n      0x4e487b7100000000000000000000000000000000000000000000000000000000\n        /* \"#utility.yul\":1089:1090   */\n      0x00\n        /* \"#utility.yul\":1082:1170   */\n      mstore\n        /* \"#utility.yul\":1189:1193   */\n      0x12\n        /* \"#utility.yul\":1186:1187   */\n      0x04\n        /* \"#utility.yul\":1179:1194   */\n      mstore\n        /* \"#utility.yul\":1213:1217   */\n      0x24\n        /* \"#utility.yul\":1210:1211   */\n      0x00\n        /* \"#utility.yul\":1203:1218   */\n      revert\n        /* \"#utility.yul\":1230:1415   */\n    tag_20:\n        /* \"#utility.yul\":1270:1271   */\n      0x00\n        /* \"#utility.yul\":1287:1307   */\n      tag_44\n        /* \"#utility.yul\":1305:1306   */\n      dup3\n        /* \"#utility.yul\":1287:1307   */\n      tag_25\n      jump\t// in\n    tag_44:\n        /* \"#utility.yul\":1282:1307   */\n      swap2\n      pop\n        /* \"#utility.yul\":1321:1341   */\n      tag_45\n        /* \"#utility.yul\":1339:1340   */\n      dup4\n        /* \"#utility.yul\":1321:1341   */\n      tag_25\n      jump\t// in\n    tag_45:\n        /* \"#utility.yul\":1316:1341   */\n      swap3\n      pop\n        /* \"#utility.yul\":1360:1361   */\n      dup3\n        /* \"#utility.yul\":1350:1385   */\n      tag_46\n      jumpi\n        /* \"#utility.yul\":1365:1383   */\n      tag_47\n      tag_28\n      jump\t// in\n    tag_47:\n        /* \"#utility.yul\":1350:1385   */\n    tag_46:\n        /* \"#utility.yul\":1407:1408   */\n      dup3\n        /* \"#utility.yul\":1404:1405   */\n      dup3\n        /* \"#utility.yul\":1400:1409   */\n      div\n        /* \"#utility.yul\":1395:1409   */\n      swap1\n      pop\n        /* \"#utility.yul\":1230:1415   */\n      swap3\n      swap2\n      pop\n      pop\n      jump\t// out\n\n    auxdata: 0xa2646970667358221220f2267f515beee3c73e871db899cf455eb7d3392d9fa62b9bc536e11e6ac0bd1664736f6c634300081a0033\n}\n",
				"bytecode": {
					"linkReferences": {},
					"object": "6080604052348015600e575f80fd5b506040516102d63803806102d68339818101604052810190602e9190606b565b805f81905550506091565b5f80fd5b5f819050919050565b604d81603d565b81146056575f80fd5b50565b5f815190506065816046565b92915050565b5f60208284031215607d57607c6039565b5b5f6088848285016059565b91505092915050565b6102388061009e5f395ff3fe608060405234801561000f575f80fd5b506004361061003f575f3560e01c8063217f4353146100435780637ebeb19c1461006157806385be3e621461007f575b5f80fd5b61004b61009d565b604051610058919061011e565b60405180910390f35b6100696100a2565b604051610076919061011e565b60405180910390f35b6100876100ce565b604051610094919061011e565b60405180910390f35b5f5481565b5f66038d7ea4c680005f5466165286144ada426100bf9190610164565b6100c991906101d2565b905090565b5f66038d7ea4c680005f545f54660b29430a256d216100ed9190610164565b6100f79190610164565b61010191906101d2565b905090565b5f819050919050565b61011881610106565b82525050565b5f6020820190506101315f83018461010f565b92915050565b7f4e487b71000000000000000000000000000000000000000000000000000000005f52601160045260245ffd5b5f61016e82610106565b915061017983610106565b925082820261018781610106565b9150828204841483151761019e5761019d610137565b5b5092915050565b7f4e487b71000000000000000000000000000000000000000000000000000000005f52601260045260245ffd5b5f6101dc82610106565b91506101e783610106565b9250826101f7576101f66101a5565b5b82820490509291505056fea2646970667358221220f2267f515beee3c73e871db899cf455eb7d3392d9fa62b9bc536e11e6ac0bd1664736f6c634300081a0033",
					"opcodes": "PUSH1 0x80 PUSH1 0x40 MSTORE CALLVALUE DUP1 ISZERO PUSH1 0xE JUMPI PUSH0 DUP1 REVERT JUMPDEST POP PUSH1 0x40 MLOAD PUSH2 0x2D6 CODESIZE SUB DUP1 PUSH2 0x2D6 DUP4 CODECOPY DUP2 DUP2 ADD PUSH1 0x40 MSTORE DUP2 ADD SWAP1 PUSH1 0x2E SWAP2 SWAP1 PUSH1 0x6B JUMP JUMPDEST DUP1 PUSH0 DUP2 SWAP1 SSTORE POP POP PUSH1 0x91 JUMP JUMPDEST PUSH0 DUP1 REVERT JUMPDEST PUSH0 DUP2 SWAP1 POP SWAP2 SWAP1 POP JUMP JUMPDEST PUSH1 0x4D DUP2 PUSH1 0x3D JUMP JUMPDEST DUP2 EQ PUSH1 0x56 JUMPI PUSH0 DUP1 REVERT JUMPDEST POP JUMP JUMPDEST PUSH0 DUP2 MLOAD SWAP1 POP PUSH1 0x65 DUP2 PUSH1 0x46 JUMP JUMPDEST SWAP3 SWAP2 POP POP JUMP JUMPDEST PUSH0 PUSH1 0x20 DUP3 DUP5 SUB SLT ISZERO PUSH1 0x7D JUMPI PUSH1 0x7C PUSH1 0x39 JUMP JUMPDEST JUMPDEST PUSH0 PUSH1 0x88 DUP5 DUP3 DUP6 ADD PUSH1 0x59 JUMP JUMPDEST SWAP2 POP POP SWAP3 SWAP2 POP POP JUMP JUMPDEST PUSH2 0x238 DUP1 PUSH2 0x9E PUSH0 CODECOPY PUSH0 RETURN INVALID PUSH1 0x80 PUSH1 0x40 MSTORE CALLVALUE DUP1 ISZERO PUSH2 0xF JUMPI PUSH0 DUP1 REVERT JUMPDEST POP PUSH1 0x4 CALLDATASIZE LT PUSH2 0x3F JUMPI PUSH0 CALLDATALOAD PUSH1 0xE0 SHR DUP1 PUSH4 0x217F4353 EQ PUSH2 0x43 JUMPI DUP1 PUSH4 0x7EBEB19C EQ PUSH2 0x61 JUMPI DUP1 PUSH4 0x85BE3E62 EQ PUSH2 0x7F JUMPI JUMPDEST PUSH0 DUP1 REVERT JUMPDEST PUSH2 0x4B PUSH2 0x9D JUMP JUMPDEST PUSH1 0x40 MLOAD PUSH2 0x58 SWAP2 SWAP1 PUSH2 0x11E JUMP JUMPDEST PUSH1 0x40 MLOAD DUP1 SWAP2 SUB SWAP1 RETURN JUMPDEST PUSH2 0x69 PUSH2 0xA2 JUMP JUMPDEST PUSH1 0x40 MLOAD PUSH2 0x76 SWAP2 SWAP1 PUSH2 0x11E JUMP JUMPDEST PUSH1 0x40 MLOAD DUP1 SWAP2 SUB SWAP1 RETURN JUMPDEST PUSH2 0x87 PUSH2 0xCE JUMP JUMPDEST PUSH1 0x40 MLOAD PUSH2 0x94 SWAP2 SWAP1 PUSH2 0x11E JUMP JUMPDEST PUSH1 0x40 MLOAD DUP1 SWAP2 SUB SWAP1 RETURN JUMPDEST PUSH0 SLOAD DUP2 JUMP JUMPDEST PUSH0 PUSH7 0x38D7EA4C68000 PUSH0 SLOAD PUSH7 0x165286144ADA42 PUSH2 0xBF SWAP2 SWAP1 PUSH2 0x164 JUMP JUMPDEST PUSH2 0xC9 SWAP2 SWAP1 PUSH2 0x1D2 JUMP JUMPDEST SWAP1 POP SWAP1 JUMP JUMPDEST PUSH0 PUSH7 0x38D7EA4C68000 PUSH0 SLOAD PUSH0 SLOAD PUSH7 0xB29430A256D21 PUSH2 0xED SWAP2 SWAP1 PUSH2 0x164 JUMP JUMPDEST PUSH2 0xF7 SWAP2 SWAP1 PUSH2 0x164 JUMP JUMPDEST PUSH2 0x101 SWAP2 SWAP1 PUSH2 0x1D2 JUMP JUMPDEST SWAP1 POP SWAP1 JUMP JUMPDEST PUSH0 DUP2 SWAP1 POP SWAP2 SWAP1 POP JUMP JUMPDEST PUSH2 0x118 DUP2 PUSH2 0x106 JUMP JUMPDEST DUP3 MSTORE POP POP JUMP JUMPDEST PUSH0 PUSH1 0x20 DUP3 ADD SWAP1 POP PUSH2 0x131 PUSH0 DUP4 ADD DUP5 PUSH2 0x10F JUMP JUMPDEST SWAP3 SWAP2 POP POP JUMP JUMPDEST PUSH32 0x4E487B7100000000000000000000000000000000000000000000000000000000 PUSH0 MSTORE PUSH1 0x11 PUSH1 0x4 MSTORE PUSH1 0x24 PUSH0 REVERT JUMPDEST PUSH0 PUSH2 0x16E DUP3 PUSH2 0x106 JUMP JUMPDEST SWAP2 POP PUSH2 0x179 DUP4 PUSH2 0x106 JUMP JUMPDEST SWAP3 POP DUP3 DUP3 MUL PUSH2 0x187 DUP2 PUSH2 0x106 JUMP JUMPDEST SWAP2 POP DUP3 DUP3 DIV DUP5 EQ DUP4 ISZERO OR PUSH2 0x19E JUMPI PUSH2 0x19D PUSH2 0x137 JUMP JUMPDEST JUMPDEST POP SWAP3 SWAP2 POP POP JUMP JUMPDEST PUSH32 0x4E487B7100000000000000000000000000000000000000000000000000000000 PUSH0 MSTORE PUSH1 0x12 PUSH1 0x4 MSTORE PUSH1 0x24 PUSH0 REVERT JUMPDEST PUSH0 PUSH2 0x1DC DUP3 PUSH2 0x106 JUMP JUMPDEST SWAP2 POP PUSH2 0x1E7 DUP4 PUSH2 0x106 JUMP JUMPDEST SWAP3 POP DUP3 PUSH2 0x1F7 JUMPI PUSH2 0x1F6 PUSH2 0x1A5 JUMP JUMPDEST JUMPDEST DUP3 DUP3 DIV SWAP1 POP SWAP3 SWAP2 POP POP JUMP INVALID LOG2 PUSH5 0x6970667358 0x22 SLT KECCAK256 CALLCODE 0x26 PUSH32 0x515BEEE3C73E871DB899CF455EB7D3392D9FA62B9BC536E11E6AC0BD1664736F PUSH13 0x634300081A0033000000000000 "
				},
				"gasEstimates": {
					"creation": {
						"codeDepositCost": "113600",
						"executionCost": "infinite",
						"totalCost": "infinite"
					},
					"external": {
						"getArea()": "infinite",
						"getPerimeter()": "infinite",
						"radius()": "2402"
					}
				},
				"methodIdentifiers": {
					"getArea()": "85be3e62",
					"getPerimeter()": "7ebeb19c",
					"radius()": "217f4353"
				}
			},
			"storageLayout": {
				"storage": [
					{
						"astId": 16,
						"contract": "contracts/day6/p2.sol:Circle",
						"label": "radius",
						"offset": 0,
						"slot": "0",
						"type": "t_uint256"
					}
				],
				"types": {
					"t_uint256": {
						"encoding": "inplace",
						"label": "uint256",
						"numberOfBytes": "32"
					}
				}
			},
			"userdoc": {
				"kind": "user",
				"methods": {},
				"version": 1
			}
		}
	}
}