{
	"contracts/day6/p2.sol": {
		"Rectangle": {
			"abi": [
				{
					"inputs": [
						{
							"internalType": "uint256",
							"name": "_length",
							"type": "uint256"
						},
						{
							"internalType": "uint256",
							"name": "_width",
							"type": "uint256"
						}
					],
					"stateMutability": "nonpayable",
					"type": "constructor"
				},
				{
					"inputs": [],
					"name": "getArea",
					"outputs": [
						{
							"internalType": "uint256",
							"name": "",
							"type": "uint256"
						}
					],
					"stateMutability": "view",
					"type": "function"
				},
				{
					"inputs": [],
					"name": "getPerimeter",
					"outputs": [
						{
							"internalType": "uint256",
							"name": "",
							"type": "uint256"
						}
					],
					"stateMutability": "view",
					"type": "function"
				},
				{
					"inputs": [],
					"name": "length",
					"outputs": [
						{
							"internalType": "uint256",
							"name": "",
							"type": "uint256"
						}
					],
					"stateMutability": "view",
					"type": "function"
				},
				{
					"inputs": [],
					"name": "width",
					"outputs": [
						{
							"internalType": "uint256",
							"name": "",
							"type": "uint256"
						}
					],
					"stateMutability": "view",
					"type": "function"
				}
			],
			"devdoc": {
				"kind": "dev",
				"methods": {},
				"version": 1
			},
			"evm": {
				"assembly": "    /* \"contracts/day6/p2.sol\":1067:1683  contract Rectangle is Shape {... */\n  mstore(0x40, 0x80)\n    /* \"contracts/day6/p2.sol\":1231:1336  constructor(uint256 _length, uint256 _width) {... */\n  callvalue\n  dup1\n  iszero\n  tag_1\n  jumpi\n  0x00\n  dup1\n  revert\ntag_1:\n  pop\n  mload(0x40)\n  sub(codesize, bytecodeSize)\n  dup1\n  bytecodeSize\n  dup4\n  codecopy\n  dup2\n  dup2\n  add\n  0x40\n  mstore\n  dup2\n  add\n  swap1\n  tag_2\n  swap2\n  swap1\n  tag_3\n  jump\t// in\ntag_2:\n    /* \"contracts/day6/p2.sol\":1296:1303  _length */\n  dup2\n    /* \"contracts/day6/p2.sol\":1287:1293  length */\n  0x00\n    /* \"contracts/day6/p2.sol\":1287:1303  length = _length */\n  dup2\n  swap1\n  sstore\n  pop\n    /* \"contracts/day6/p2.sol\":1322:1328  _width */\n  dup1\n    /* \"contracts/day6/p2.sol\":1314:1319  width */\n  0x01\n    /* \"contracts/day6/p2.sol\":1314:1328  width = _width */\n  dup2\n  swap1\n  sstore\n  pop\n    /* \"contracts/day6/p2.sol\":1231:1336  constructor(uint256 _length, uint256 _width) {... */\n  pop\n  pop\n    /* \"contracts/day6/p2.sol\":1067:1683  contract Rectangle is Shape {... */\n  jump(tag_6)\n    /* \"#utility.yul\":88:205   */\ntag_8:\n    /* \"#utility.yul\":197:198   */\n  0x00\n    /* \"#utility.yul\":194:195   */\n  dup1\n    /* \"#utility.yul\":187:199   */\n  revert\n    /* \"#utility.yul\":334:411   */\ntag_10:\n    /* \"#utility.yul\":371:378   */\n  0x00\n    /* \"#utility.yul\":400:405   */\n  dup2\n    /* \"#utility.yul\":389:405   */\n  swap1\n  pop\n    /* \"#utility.yul\":334:411   */\n  swap2\n  swap1\n  pop\n  jump\t// out\n    /* \"#utility.yul\":417:539   */\ntag_11:\n    /* \"#utility.yul\":490:514   */\n  tag_19\n    /* \"#utility.yul\":508:513   */\n  dup2\n    /* \"#utility.yul\":490:514   */\n  tag_10\n  jump\t// in\ntag_19:\n    /* \"#utility.yul\":483:488   */\n  dup2\n    /* \"#utility.yul\":480:515   */\n  eq\n    /* \"#utility.yul\":470:533   */\n  tag_20\n  jumpi\n    /* \"#utility.yul\":529:530   */\n  0x00\n    /* \"#utility.yul\":526:527   */\n  dup1\n    /* \"#utility.yul\":519:531   */\n  revert\n    /* \"#utility.yul\":470:533   */\ntag_20:\n    /* \"#utility.yul\":417:539   */\n  pop\n  jump\t// out\n    /* \"#utility.yul\":545:688   */\ntag_12:\n    /* \"#utility.yul\":602:607   */\n  0x00\n    /* \"#utility.yul\":633:639   */\n  dup2\n    /* \"#utility.yul\":627:640   */\n  mload\n    /* \"#utility.yul\":618:640   */\n  swap1\n  pop\n    /* \"#utility.yul\":649:682   */\n  tag_22\n    /* \"#utility.yul\":676:681   */\n  dup2\n    /* \"#utility.yul\":649:682   */\n  tag_11\n  jump\t// in\ntag_22:\n    /* \"#utility.yul\":545:688   */\n  swap3\n  swap2\n  pop\n  pop\n  jump\t// out\n    /* \"#utility.yul\":694:1201   */\ntag_3:\n    /* \"#utility.yul\":773:779   */\n  0x00\n    /* \"#utility.yul\":781:787   */\n  dup1\n    /* \"#utility.yul\":830:832   */\n  0x40\n    /* \"#utility.yul\":818:827   */\n  dup4\n    /* \"#utility.yul\":809:816   */\n  dup6\n    /* \"#utility.yul\":805:828   */\n  sub\n    /* \"#utility.yul\":801:833   */\n  slt\n    /* \"#utility.yul\":798:917   */\n  iszero\n  tag_24\n  jumpi\n    /* \"#utility.yul\":836:915   */\n  tag_25\n  tag_8\n  jump\t// in\ntag_25:\n    /* \"#utility.yul\":798:917   */\ntag_24:\n    /* \"#utility.yul\":956:957   */\n  0x00\n    /* \"#utility.yul\":981:1045   */\n  tag_26\n    /* \"#utility.yul\":1037:1044   */\n  dup6\n    /* \"#utility.yul\":1028:1034   */\n  dup3\n    /* \"#utility.yul\":1017:1026   */\n  dup7\n    /* \"#utility.yul\":1013:1035   */\n  add\n    /* \"#utility.yul\":981:1045   */\n  tag_12\n  jump\t// in\ntag_26:\n    /* \"#utility.yul\":971:1045   */\n  swap3\n  pop\n    /* \"#utility.yul\":927:1055   */\n  pop\n    /* \"#utility.yul\":1094:1096   */\n  0x20\n    /* \"#utility.yul\":1120:1184   */\n  tag_27\n    /* \"#utility.yul\":1176:1183   */\n  dup6\n    /* \"#utility.yul\":1167:1173   */\n  dup3\n    /* \"#utility.yul\":1156:1165   */\n  dup7\n    /* \"#utility.yul\":1152:1174   */\n  add\n    /* \"#utility.yul\":1120:1184   */\n  tag_12\n  jump\t// in\ntag_27:\n    /* \"#utility.yul\":1110:1184   */\n  swap2\n  pop\n    /* \"#utility.yul\":1065:1194   */\n  pop\n    /* \"#utility.yul\":694:1201   */\n  swap3\n  pop\n  swap3\n  swap1\n  pop\n  jump\t// out\n    /* \"contracts/day6/p2.sol\":1067:1683  contract Rectangle is Shape {... */\ntag_6:\n  dataSize(sub_0)\n  dup1\n  dataOffset(sub_0)\n  0x00\n  codecopy\n  0x00\n  return\nstop\n\nsub_0: assembly {\n        /* \"contracts/day6/p2.sol\":1067:1683  contract Rectangle is Shape {... */\n      mstore(0x40, 0x80)\n      callvalue\n      dup1\n      iszero\n      tag_1\n      jumpi\n      0x00\n      dup1\n      revert\n    tag_1:\n      pop\n      jumpi(tag_2, lt(calldatasize, 0x04))\n      shr(0xe0, calldataload(0x00))\n      dup1\n      0x1f7b6d32\n      eq\n      tag_3\n      jumpi\n      dup1\n      0x7ebeb19c\n      eq\n      tag_4\n      jumpi\n      dup1\n      0x85be3e62\n      eq\n      tag_5\n      jumpi\n      dup1\n      0x9ededf77\n      eq\n      tag_6\n      jumpi\n    tag_2:\n      0x00\n      dup1\n      revert\n        /* \"contracts/day6/p2.sol\":1102:1123  uint256 public length */\n    tag_3:\n      tag_7\n      tag_8\n      jump\t// in\n    tag_7:\n      mload(0x40)\n      tag_9\n      swap2\n      swap1\n      tag_10\n      jump\t// in\n    tag_9:\n      mload(0x40)\n      dup1\n      swap2\n      sub\n      swap1\n      return\n        /* \"contracts/day6/p2.sol\":1410:1519  function getPerimeter() public view override returns (uint256) {... */\n    tag_4:\n      tag_11\n      tag_12\n      jump\t// in\n    tag_11:\n      mload(0x40)\n      tag_13\n      swap2\n      swap1\n      tag_10\n      jump\t// in\n    tag_13:\n      mload(0x40)\n      dup1\n      swap2\n      sub\n      swap1\n      return\n        /* \"contracts/day6/p2.sol\":1582:1680  function getArea() public view override returns (uint256) {... */\n    tag_5:\n      tag_14\n      tag_15\n      jump\t// in\n    tag_14:\n      mload(0x40)\n      tag_16\n      swap2\n      swap1\n      tag_10\n      jump\t// in\n    tag_16:\n      mload(0x40)\n      dup1\n      swap2\n      sub\n      swap1\n      return\n        /* \"contracts/day6/p2.sol\":1130:1150  uint256 public width */\n    tag_6:\n      tag_17\n      tag_18\n      jump\t// in\n    tag_17:\n      mload(0x40)\n      tag_19\n      swap2\n      swap1\n      tag_10\n      jump\t// in\n    tag_19:\n      mload(0x40)\n      dup1\n      swap2\n      sub\n      swap1\n      return\n        /* \"contracts/day6/p2.sol\":1102:1123  uint256 public length */\n    tag_8:\n      sload(0x00)\n      dup2\n      jump\t// out\n        /* \"contracts/day6/p2.sol\":1410:1519  function getPerimeter() public view override returns (uint256) {... */\n    tag_12:\n        /* \"contracts/day6/p2.sol\":1464:1471  uint256 */\n      0x00\n        /* \"contracts/day6/p2.sol\":1505:1510  width */\n      sload(0x01)\n        /* \"contracts/day6/p2.sol\":1496:1502  length */\n      sload(0x00)\n        /* \"contracts/day6/p2.sol\":1496:1510  length + width */\n      tag_21\n      swap2\n      swap1\n      tag_22\n      jump\t// in\n    tag_21:\n        /* \"contracts/day6/p2.sol\":1491:1492  2 */\n      0x02\n        /* \"contracts/day6/p2.sol\":1491:1511  2 * (length + width) */\n      tag_23\n      swap2\n      swap1\n      tag_24\n      jump\t// in\n    tag_23:\n        /* \"contracts/day6/p2.sol\":1484:1511  return 2 * (length + width) */\n      swap1\n      pop\n        /* \"contracts/day6/p2.sol\":1410:1519  function getPerimeter() public view override returns (uint256) {... */\n      swap1\n      jump\t// out\n        /* \"contracts/day6/p2.sol\":1582:1680  function getArea() public view override returns (uint256) {... */\n    tag_15:\n        /* \"contracts/day6/p2.sol\":1631:1638  uint256 */\n      0x00\n        /* \"contracts/day6/p2.sol\":1667:1672  width */\n      sload(0x01)\n        /* \"contracts/day6/p2.sol\":1658:1664  length */\n      sload(0x00)\n        /* \"contracts/day6/p2.sol\":1658:1672  length * width */\n      tag_26\n      swap2\n      swap1\n      tag_24\n      jump\t// in\n    tag_26:\n        /* \"contracts/day6/p2.sol\":1651:1672  return length * width */\n      swap1\n      pop\n        /* \"contracts/day6/p2.sol\":1582:1680  function getArea() public view override returns (uint256) {... */\n      swap1\n      jump\t// out\n        /* \"contracts/day6/p2.sol\":1130:1150  uint256 public width */\n    tag_18:\n      sload(0x01)\n      dup2\n      jump\t// out\n        /* \"#utility.yul\":7:84   */\n    tag_27:\n        /* \"#utility.yul\":44:51   */\n      0x00\n        /* \"#utility.yul\":73:78   */\n      dup2\n        /* \"#utility.yul\":62:78   */\n      swap1\n      pop\n        /* \"#utility.yul\":7:84   */\n      swap2\n      swap1\n      pop\n      jump\t// out\n        /* \"#utility.yul\":90:208   */\n    tag_28:\n        /* \"#utility.yul\":177:201   */\n      tag_33\n        /* \"#utility.yul\":195:200   */\n      dup2\n        /* \"#utility.yul\":177:201   */\n      tag_27\n      jump\t// in\n    tag_33:\n        /* \"#utility.yul\":172:175   */\n      dup3\n        /* \"#utility.yul\":165:202   */\n      mstore\n        /* \"#utility.yul\":90:208   */\n      pop\n      pop\n      jump\t// out\n        /* \"#utility.yul\":214:436   */\n    tag_10:\n        /* \"#utility.yul\":307:311   */\n      0x00\n        /* \"#utility.yul\":345:347   */\n      0x20\n        /* \"#utility.yul\":334:343   */\n      dup3\n        /* \"#utility.yul\":330:348   */\n      add\n        /* \"#utility.yul\":322:348   */\n      swap1\n      pop\n        /* \"#utility.yul\":358:429   */\n      tag_35\n        /* \"#utility.yul\":426:427   */\n      0x00\n        /* \"#utility.yul\":415:424   */\n      dup4\n        /* \"#utility.yul\":411:428   */\n      add\n        /* \"#utility.yul\":402:408   */\n      dup5\n        /* \"#utility.yul\":358:429   */\n      tag_28\n      jump\t// in\n    tag_35:\n        /* \"#utility.yul\":214:436   */\n      swap3\n      swap2\n      pop\n      pop\n      jump\t// out\n        /* \"#utility.yul\":442:622   */\n    tag_29:\n        /* \"#utility.yul\":490:567   */\n      0x4e487b7100000000000000000000000000000000000000000000000000000000\n        /* \"#utility.yul\":487:488   */\n      0x00\n        /* \"#utility.yul\":480:568   */\n      mstore\n        /* \"#utility.yul\":587:591   */\n      0x11\n        /* \"#utility.yul\":584:585   */\n      0x04\n        /* \"#utility.yul\":577:592   */\n      mstore\n        /* \"#utility.yul\":611:615   */\n      0x24\n        /* \"#utility.yul\":608:609   */\n      0x00\n        /* \"#utility.yul\":601:616   */\n      revert\n        /* \"#utility.yul\":628:819   */\n    tag_22:\n        /* \"#utility.yul\":668:671   */\n      0x00\n        /* \"#utility.yul\":687:707   */\n      tag_38\n        /* \"#utility.yul\":705:706   */\n      dup3\n        /* \"#utility.yul\":687:707   */\n      tag_27\n      jump\t// in\n    tag_38:\n        /* \"#utility.yul\":682:707   */\n      swap2\n      pop\n        /* \"#utility.yul\":721:741   */\n      tag_39\n        /* \"#utility.yul\":739:740   */\n      dup4\n        /* \"#utility.yul\":721:741   */\n      tag_27\n      jump\t// in\n    tag_39:\n        /* \"#utility.yul\":716:741   */\n      swap3\n      pop\n        /* \"#utility.yul\":764:765   */\n      dup3\n        /* \"#utility.yul\":761:762   */\n      dup3\n        /* \"#utility.yul\":757:766   */\n      add\n        /* \"#utility.yul\":750:766   */\n      swap1\n      pop\n        /* \"#utility.yul\":785:788   */\n      dup1\n        /* \"#utility.yul\":782:783   */\n      dup3\n        /* \"#utility.yul\":779:789   */\n      gt\n        /* \"#utility.yul\":776:812   */\n      iszero\n      tag_40\n      jumpi\n        /* \"#utility.yul\":792:810   */\n      tag_41\n      tag_29\n      jump\t// in\n    tag_41:\n        /* \"#utility.yul\":776:812   */\n    tag_40:\n        /* \"#utility.yul\":628:819   */\n      swap3\n      swap2\n      pop\n      pop\n      jump\t// out\n        /* \"#utility.yul\":825:1235   */\n    tag_24:\n        /* \"#utility.yul\":865:872   */\n      0x00\n        /* \"#utility.yul\":888:908   */\n      tag_43\n        /* \"#utility.yul\":906:907   */\n      dup3\n        /* \"#utility.yul\":888:908   */\n      tag_27\n      jump\t// in\n    tag_43:\n        /* \"#utility.yul\":883:908   */\n      swap2\n      pop\n        /* \"#utility.yul\":922:942   */\n      tag_44\n        /* \"#utility.yul\":940:941   */\n      dup4\n        /* \"#utility.yul\":922:942   */\n      tag_27\n      jump\t// in\n    tag_44:\n        /* \"#utility.yul\":917:942   */\n      swap3\n      pop\n        /* \"#utility.yul\":977:978   */\n      dup3\n        /* \"#utility.yul\":974:975   */\n      dup3\n        /* \"#utility.yul\":970:979   */\n      mul\n        /* \"#utility.yul\":999:1029   */\n      tag_45\n        /* \"#utility.yul\":1017:1028   */\n      dup2\n        /* \"#utility.yul\":999:1029   */\n      tag_27\n      jump\t// in\n    tag_45:\n        /* \"#utility.yul\":988:1029   */\n      swap2\n      pop\n        /* \"#utility.yul\":1178:1179   */\n      dup3\n        /* \"#utility.yul\":1169:1176   */\n      dup3\n        /* \"#utility.yul\":1165:1180   */\n      div\n        /* \"#utility.yul\":1162:1163   */\n      dup5\n        /* \"#utility.yul\":1159:1181   */\n      eq\n        /* \"#utility.yul\":1139:1140   */\n      dup4\n        /* \"#utility.yul\":1132:1141   */\n      iszero\n        /* \"#utility.yul\":1112:1195   */\n      or\n        /* \"#utility.yul\":1089:1228   */\n      tag_46\n      jumpi\n        /* \"#utility.yul\":1208:1226   */\n      tag_47\n      tag_29\n      jump\t// in\n    tag_47:\n        /* \"#utility.yul\":1089:1228   */\n    tag_46:\n        /* \"#utility.yul\":873:1235   */\n      pop\n        /* \"#utility.yul\":825:1235   */\n      swap3\n      swap2\n      pop\n      pop\n      jump\t// out\n\n    auxdata: 0xa2646970667358221220caa579e8769e681b9e3027e12315b7db05fbec1cdcc2341b75a0c7e2134732a164736f6c634300081a0033\n}\n",
				"bytecode": {
					"linkReferences": {},
					"object": "6080604052348015600e575f80fd5b506040516102c63803806102c68339818101604052810190602e91906073565b815f8190555080600181905550505060aa565b5f80fd5b5f819050919050565b6055816045565b8114605e575f80fd5b50565b5f81519050606d81604e565b92915050565b5f806040838503121560865760856041565b5b5f6091858286016061565b925050602060a0858286016061565b9150509250929050565b61020f806100b75f395ff3fe608060405234801561000f575f80fd5b506004361061004a575f3560e01c80631f7b6d321461004e5780637ebeb19c1461006c57806385be3e621461008a5780639ededf77146100a8575b5f80fd5b6100566100c6565b604051610063919061011f565b60405180910390f35b6100746100cb565b604051610081919061011f565b60405180910390f35b6100926100ec565b60405161009f919061011f565b60405180910390f35b6100b0610101565b6040516100bd919061011f565b60405180910390f35b5f5481565b5f6001545f546100db9190610165565b60026100e79190610198565b905090565b5f6001545f546100fc9190610198565b905090565b60015481565b5f819050919050565b61011981610107565b82525050565b5f6020820190506101325f830184610110565b92915050565b7f4e487b71000000000000000000000000000000000000000000000000000000005f52601160045260245ffd5b5f61016f82610107565b915061017a83610107565b925082820190508082111561019257610191610138565b5b92915050565b5f6101a282610107565b91506101ad83610107565b92508282026101bb81610107565b915082820484148315176101d2576101d1610138565b5b509291505056fea2646970667358221220caa579e8769e681b9e3027e12315b7db05fbec1cdcc2341b75a0c7e2134732a164736f6c634300081a0033",
					"opcodes": "PUSH1 0x80 PUSH1 0x40 MSTORE CALLVALUE DUP1 ISZERO PUSH1 0xE JUMPI PUSH0 DUP1 REVERT JUMPDEST POP PUSH1 0x40 MLOAD PUSH2 0x2C6 CODESIZE SUB DUP1 PUSH2 0x2C6 DUP4 CODECOPY DUP2 DUP2 ADD PUSH1 0x40 MSTORE DUP2 ADD SWAP1 PUSH1 0x2E SWAP2 SWAP1 PUSH1 0x73 JUMP JUMPDEST DUP2 PUSH0 DUP2 SWAP1 SSTORE POP DUP1 PUSH1 0x1 DUP2 SWAP1 SSTORE POP POP POP PUSH1 0xAA JUMP JUMPDEST PUSH0 DUP1 REVERT JUMPDEST PUSH0 DUP2 SWAP1 POP SWAP2 SWAP1 POP JUMP JUMPDEST PUSH1 0x55 DUP2 PUSH1 0x45 JUMP JUMPDEST DUP2 EQ PUSH1 0x5E JUMPI PUSH0 DUP1 REVERT JUMPDEST POP JUMP JUMPDEST PUSH0 DUP2 MLOAD SWAP1 POP PUSH1 0x6D DUP2 PUSH1 0x4E JUMP JUMPDEST SWAP3 SWAP2 POP POP JUMP JUMPDEST PUSH0 DUP1 PUSH1 0x40 DUP4 DUP6 SUB SLT ISZERO PUSH1 0x86 JUMPI PUSH1 0x85 PUSH1 0x41 JUMP JUMPDEST JUMPDEST PUSH0 PUSH1 0x91 DUP6 DUP3 DUP7 ADD PUSH1 0x61 JUMP JUMPDEST SWAP3 POP POP PUSH1 0x20 PUSH1 0xA0 DUP6 DUP3 DUP7 ADD PUSH1 0x61 JUMP JUMPDEST SWAP2 POP POP SWAP3 POP SWAP3 SWAP1 POP JUMP JUMPDEST PUSH2 0x20F DUP1 PUSH2 0xB7 PUSH0 CODECOPY PUSH0 RETURN INVALID PUSH1 0x80 PUSH1 0x40 MSTORE CALLVALUE DUP1 ISZERO PUSH2 0xF JUMPI PUSH0 DUP1 REVERT JUMPDEST POP PUSH1 0x4 CALLDATASIZE LT PUSH2 0x4A JUMPI PUSH0 CALLDATALOAD PUSH1 0xE0 SHR DUP1 PUSH4 0x1F7B6D32 EQ PUSH2 0x4E JUMPI DUP1 PUSH4 0x7EBEB19C EQ PUSH2 0x6C JUMPI DUP1 PUSH4 0x85BE3E62 EQ PUSH2 0x8A JUMPI DUP1 PUSH4 0x9EDEDF77 EQ PUSH2 0xA8 JUMPI JUMPDEST PUSH0 DUP1 REVERT JUMPDEST PUSH2 0x56 PUSH2 0xC6 JUMP JUMPDEST PUSH1 0x40 MLOAD PUSH2 0x63 SWAP2 SWAP1 PUSH2 0x11F JUMP JUMPDEST PUSH1 0x40 MLOAD DUP1 SWAP2 SUB SWAP1 RETURN JUMPDEST PUSH2 0x74 PUSH2 0xCB JUMP JUMPDEST PUSH1 0x40 MLOAD PUSH2 0x81 SWAP2 SWAP1 PUSH2 0x11F JUMP JUMPDEST PUSH1 0x40 MLOAD DUP1 SWAP2 SUB SWAP1 RETURN JUMPDEST PUSH2 0x92 PUSH2 0xEC JUMP JUMPDEST PUSH1 0x40 MLOAD PUSH2 0x9F SWAP2 SWAP1 PUSH2 0x11F JUMP JUMPDEST PUSH1 0x40 MLOAD DUP1 SWAP2 SUB SWAP1 RETURN JUMPDEST PUSH2 0xB0 PUSH2 0x101 JUMP JUMPDEST PUSH1 0x40 MLOAD PUSH2 0xBD SWAP2 SWAP1 PUSH2 0x11F JUMP JUMPDEST PUSH1 0x40 MLOAD DUP1 SWAP2 SUB SWAP1 RETURN JUMPDEST PUSH0 SLOAD DUP2 JUMP JUMPDEST PUSH0 PUSH1 0x1 SLOAD PUSH0 SLOAD PUSH2 0xDB SWAP2 SWAP1 PUSH2 0x165 JUMP JUMPDEST PUSH1 0x2 PUSH2 0xE7 SWAP2 SWAP1 PUSH2 0x198 JUMP JUMPDEST SWAP1 POP SWAP1 JUMP JUMPDEST PUSH0 PUSH1 0x1 SLOAD PUSH0 SLOAD PUSH2 0xFC SWAP2 SWAP1 PUSH2 0x198 JUMP JUMPDEST SWAP1 POP SWAP1 JUMP JUMPDEST PUSH1 0x1 SLOAD DUP2 JUMP JUMPDEST PUSH0 DUP2 SWAP1 POP SWAP2 SWAP1 POP JUMP JUMPDEST PUSH2 0x119 DUP2 PUSH2 0x107 JUMP JUMPDEST DUP3 MSTORE POP POP JUMP JUMPDEST PUSH0 PUSH1 0x20 DUP3 ADD SWAP1 POP PUSH2 0x132 PUSH0 DUP4 ADD DUP5 PUSH2 0x110 JUMP JUMPDEST SWAP3 SWAP2 POP POP JUMP JUMPDEST PUSH32 0x4E487B7100000000000000000000000000000000000000000000000000000000 PUSH0 MSTORE PUSH1 0x11 PUSH1 0x4 MSTORE PUSH1 0x24 PUSH0 REVERT JUMPDEST PUSH0 PUSH2 0x16F DUP3 PUSH2 0x107 JUMP JUMPDEST SWAP2 POP PUSH2 0x17A DUP4 PUSH2 0x107 JUMP JUMPDEST SWAP3 POP DUP3 DUP3 ADD SWAP1 POP DUP1 DUP3 GT ISZERO PUSH2 0x192 JUMPI PUSH2 0x191 PUSH2 0x138 JUMP JUMPDEST JUMPDEST SWAP3 SWAP2 POP POP JUMP JUMPDEST PUSH0 PUSH2 0x1A2 DUP3 PUSH2 0x107 JUMP JUMPDEST SWAP2 POP PUSH2 0x1AD DUP4 PUSH2 0x107 JUMP JUMPDEST SWAP3 POP DUP3 DUP3 MUL PUSH2 0x1BB DUP2 PUSH2 0x107 JUMP JUMPDEST SWAP2 POP DUP3 DUP3 DIV DUP5 EQ DUP4 ISZERO OR PUSH2 0x1D2 JUMPI PUSH2 0x1D1 PUSH2 0x138 JUMP JUMPDEST JUMPDEST POP SWAP3 SWAP2 POP POP JUMP INVALID LOG2 PUSH5 0x6970667358 0x22 SLT KECCAK256 0xCA 0xA5 PUSH26 0xE8769E681B9E3027E12315B7DB05FBEC1CDCC2341B75A0C7E213 SELFBALANCE ORIGIN LOG1 PUSH5 0x736F6C6343 STOP ADDMOD BYTE STOP CALLER "
				},
				"gasEstimates": {
					"creation": {
						"codeDepositCost": "105400",
						"executionCost": "infinite",
						"totalCost": "infinite"
					},
					"external": {
						"getArea()": "infinite",
						"getPerimeter()": "infinite",
						"length()": "2402",
						"width()": "2469"
					}
				},
				"methodIdentifiers": {
					"getArea()": "85be3e62",
					"getPerimeter()": "7ebeb19c",
					"length()": "1f7b6d32",
					"width()": "9ededf77"
				}
			},
			"storageLayout": {
				"storage": [
					{
						"astId": 61,
						"contract": "contracts/day6/p2.sol:Rectangle",
						"label": "length",
						"offset": 0,
						"slot": "0",
						"type": "t_uint256"
					},
					{
						"astId": 63,
						"contract": "contracts/day6/p2.sol:Rectangle",
						"label": "width",
						"offset": 0,
						"slot": "1",
						"type": "t_uint256"
					}
				],
				"types": {
					"t_uint256": {
						"encoding": "inplace",
						"label": "uint256",
						"numberOfBytes": "32"
					}
				}
			},
			"userdoc": {
				"kind": "user",
				"methods": {},
				"version": 1
			}
		}
	}
}