{
	"contracts/lastday/p1.sol": {
		"StudentManagement": {
			"abi": [
				{
					"inputs": [
						{
							"internalType": "string",
							"name": "_deptName",
							"type": "string"
						},
						{
							"internalType": "string",
							"name": "_deptHead",
							"type": "string"
						},
						{
							"internalType": "string",
							"name": "_studentName",
							"type": "string"
						},
						{
							"internalType": "string",
							"name": "_regdNo",
							"type": "string"
						},
						{
							"internalType": "string",
							"name": "_electiveSubject",
							"type": "string"
						},
						{
							"internalType": "uint256",
							"name": "_avgMarks",
							"type": "uint256"
						}
					],
					"name": "admitNewStudent",
					"outputs": [],
					"stateMutability": "nonpayable",
					"type": "function"
				},
				{
					"inputs": [
						{
							"internalType": "string",
							"name": "_regdNo",
							"type": "string"
						}
					],
					"name": "displayStudentDetails",
					"outputs": [
						{
							"internalType": "string",
							"name": "studentName",
							"type": "string"
						},
						{
							"internalType": "string",
							"name": "regdNo",
							"type": "string"
						},
						{
							"internalType": "string",
							"name": "electiveSubject",
							"type": "string"
						},
						{
							"internalType": "uint256",
							"name": "avgMarks",
							"type": "uint256"
						},
						{
							"internalType": "string",
							"name": "deptName",
							"type": "string"
						},
						{
							"internalType": "string",
							"name": "deptHead",
							"type": "string"
						},
						{
							"internalType": "string",
							"name": "hostelName",
							"type": "string"
						},
						{
							"internalType": "string",
							"name": "hostelLocation",
							"type": "string"
						},
						{
							"internalType": "uint256",
							"name": "numberOfRooms",
							"type": "uint256"
						}
					],
					"stateMutability": "view",
					"type": "function"
				},
				{
					"inputs": [
						{
							"internalType": "string",
							"name": "_regdNo",
							"type": "string"
						}
					],
					"name": "migrateStudent",
					"outputs": [
						{
							"internalType": "string",
							"name": "",
							"type": "string"
						}
					],
					"stateMutability": "view",
					"type": "function"
				},
				{
					"inputs": [
						{
							"internalType": "uint256",
							"name": "",
							"type": "uint256"
						}
					],
					"name": "studentAddresses",
					"outputs": [
						{
							"internalType": "address",
							"name": "",
							"type": "address"
						}
					],
					"stateMutability": "view",
					"type": "function"
				},
				{
					"inputs": [
						{
							"internalType": "string",
							"name": "",
							"type": "string"
						}
					],
					"name": "students",
					"outputs": [
						{
							"internalType": "contract Student",
							"name": "",
							"type": "address"
						}
					],
					"stateMutability": "view",
					"type": "function"
				}
			],
			"devdoc": {
				"kind": "dev",
				"methods": {},
				"version": 1
			},
			"evm": {
				"assembly": "    /* \"contracts/lastday/p1.sol\":2394:4835  contract StudentManagement {... */\n  mstore(0x40, 0x80)\n  callvalue\n  dup1\n  iszero\n  tag_1\n  jumpi\n  0x00\n  dup1\n  revert\ntag_1:\n  pop\n  dataSize(sub_0)\n  dup1\n  dataOffset(sub_0)\n  0x00\n  codecopy\n  0x00\n  return\nstop\n\nsub_0: assembly {\n        /* \"contracts/lastday/p1.sol\":2394:4835  contract StudentManagement {... */\n      mstore(0x40, 0x80)\n      callvalue\n      dup1\n      iszero\n      tag_1\n      jumpi\n      0x00\n      dup1\n      revert\n    tag_1:\n      pop\n      jumpi(tag_2, lt(calldatasize, 0x04))\n      shr(0xe0, calldataload(0x00))\n      dup1\n      0x5b428c84\n      eq\n      tag_3\n      jumpi\n      dup1\n      0x65410701\n      eq\n      tag_4\n      jumpi\n      dup1\n      0xb5ab682d\n      eq\n      tag_5\n      jumpi\n      dup1\n      0xc7ef6bfb\n      eq\n      tag_6\n      jumpi\n      dup1\n      0xe8f3f53b\n      eq\n      tag_7\n      jumpi\n    tag_2:\n      0x00\n      dup1\n      revert\n        /* \"contracts/lastday/p1.sol\":2656:3185  function admitNewStudent(... */\n    tag_3:\n      tag_8\n      0x04\n      dup1\n      calldatasize\n      sub\n      dup2\n      add\n      swap1\n      tag_9\n      swap2\n      swap1\n      tag_10\n      jump\t// in\n    tag_9:\n      tag_11\n      jump\t// in\n    tag_8:\n      stop\n        /* \"contracts/lastday/p1.sol\":3278:3646  function migrateStudent(string memory _regdNo) public view returns (string memory) {... */\n    tag_4:\n      tag_12\n      0x04\n      dup1\n      calldatasize\n      sub\n      dup2\n      add\n      swap1\n      tag_13\n      swap2\n      swap1\n      tag_14\n      jump\t// in\n    tag_13:\n      tag_15\n      jump\t// in\n    tag_12:\n      mload(0x40)\n      tag_16\n      swap2\n      swap1\n      tag_17\n      jump\t// in\n    tag_16:\n      mload(0x40)\n      dup1\n      swap2\n      sub\n      swap1\n      return\n        /* \"contracts/lastday/p1.sol\":2536:2569  address[] public studentAddresses */\n    tag_5:\n      tag_18\n      0x04\n      dup1\n      calldatasize\n      sub\n      dup2\n      add\n      swap1\n      tag_19\n      swap2\n      swap1\n      tag_20\n      jump\t// in\n    tag_19:\n      tag_21\n      jump\t// in\n    tag_18:\n      mload(0x40)\n      tag_22\n      swap2\n      swap1\n      tag_23\n      jump\t// in\n    tag_22:\n      mload(0x40)\n      dup1\n      swap2\n      sub\n      swap1\n      return\n        /* \"contracts/lastday/p1.sol\":2428:2470  mapping(string => Student) public students */\n    tag_6:\n      tag_24\n      0x04\n      dup1\n      calldatasize\n      sub\n      dup2\n      add\n      swap1\n      tag_25\n      swap2\n      swap1\n      tag_14\n      jump\t// in\n    tag_25:\n      tag_26\n      jump\t// in\n    tag_24:\n      mload(0x40)\n      tag_27\n      swap2\n      swap1\n      tag_28\n      jump\t// in\n    tag_27:\n      mload(0x40)\n      dup1\n      swap2\n      sub\n      swap1\n      return\n        /* \"contracts/lastday/p1.sol\":3750:4832  function displayStudentDetails(string memory _regdNo) public view returns (... */\n    tag_7:\n      tag_29\n      0x04\n      dup1\n      calldatasize\n      sub\n      dup2\n      add\n      swap1\n      tag_30\n      swap2\n      swap1\n      tag_14\n      jump\t// in\n    tag_30:\n      tag_31\n      jump\t// in\n    tag_29:\n      mload(0x40)\n      tag_32\n      swap10\n      swap9\n      swap8\n      swap7\n      swap6\n      swap5\n      swap4\n      swap3\n      swap2\n      swap1\n      tag_33\n      jump\t// in\n    tag_32:\n      mload(0x40)\n      dup1\n      swap2\n      sub\n      swap1\n      return\n        /* \"contracts/lastday/p1.sol\":2656:3185  function admitNewStudent(... */\n    tag_11:\n        /* \"contracts/lastday/p1.sol\":2909:2924  Student student */\n      0x00\n        /* \"contracts/lastday/p1.sol\":2939:2948  _deptName */\n      dup7\n        /* \"contracts/lastday/p1.sol\":2950:2959  _deptHead */\n      dup7\n        /* \"contracts/lastday/p1.sol\":2927:2960  new Student(_deptName, _deptHead) */\n      mload(0x40)\n      tag_35\n      swap1\n      tag_36\n      jump\t// in\n    tag_35:\n      tag_37\n      swap3\n      swap2\n      swap1\n      tag_38\n      jump\t// in\n    tag_37:\n      mload(0x40)\n      dup1\n      swap2\n      sub\n      swap1\n      0x00\n      create\n      dup1\n      iszero\n      dup1\n      iszero\n      tag_39\n      jumpi\n      returndatasize\n      0x00\n      dup1\n      returndatacopy\n      revert(0x00, returndatasize)\n    tag_39:\n      pop\n        /* \"contracts/lastday/p1.sol\":2909:2960  Student student = new Student(_deptName, _deptHead) */\n      swap1\n      pop\n        /* \"contracts/lastday/p1.sol\":2971:2978  student */\n      dup1\n        /* \"contracts/lastday/p1.sol\":2971:2986  student.getData */\n      0xffffffffffffffffffffffffffffffffffffffff\n      and\n      0xbbd57851\n        /* \"contracts/lastday/p1.sol\":2987:2999  _studentName */\n      dup7\n        /* \"contracts/lastday/p1.sol\":3001:3008  _regdNo */\n      dup7\n        /* \"contracts/lastday/p1.sol\":3010:3026  _electiveSubject */\n      dup7\n        /* \"contracts/lastday/p1.sol\":3028:3037  _avgMarks */\n      dup7\n        /* \"contracts/lastday/p1.sol\":2971:3038  student.getData(_studentName, _regdNo, _electiveSubject, _avgMarks) */\n      mload(0x40)\n      dup6\n      0xffffffff\n      and\n      0xe0\n      shl\n      dup2\n      mstore\n      0x04\n      add\n      tag_40\n      swap5\n      swap4\n      swap3\n      swap2\n      swap1\n      tag_41\n      jump\t// in\n    tag_40:\n      0x00\n      mload(0x40)\n      dup1\n      dup4\n      sub\n      dup2\n      0x00\n      dup8\n      dup1\n      extcodesize\n      iszero\n      dup1\n      iszero\n      tag_42\n      jumpi\n      0x00\n      dup1\n      revert\n    tag_42:\n      pop\n      gas\n      call\n      iszero\n      dup1\n      iszero\n      tag_44\n      jumpi\n      returndatasize\n      0x00\n      dup1\n      returndatacopy\n      revert(0x00, returndatasize)\n    tag_44:\n      pop\n      pop\n      pop\n      pop\n        /* \"contracts/lastday/p1.sol\":3069:3076  student */\n      dup1\n        /* \"contracts/lastday/p1.sol\":3049:3057  students */\n      0x00\n        /* \"contracts/lastday/p1.sol\":3058:3065  _regdNo */\n      dup6\n        /* \"contracts/lastday/p1.sol\":3049:3066  students[_regdNo] */\n      mload(0x40)\n      tag_45\n      swap2\n      swap1\n      tag_46\n      jump\t// in\n    tag_45:\n      swap1\n      dup2\n      mstore\n      0x20\n      add\n      mload(0x40)\n      dup1\n      swap2\n      sub\n      swap1\n      keccak256\n      0x00\n        /* \"contracts/lastday/p1.sol\":3049:3076  students[_regdNo] = student */\n      0x0100\n      exp\n      dup2\n      sload\n      dup2\n      0xffffffffffffffffffffffffffffffffffffffff\n      mul\n      not\n      and\n      swap1\n      dup4\n      0xffffffffffffffffffffffffffffffffffffffff\n      and\n      mul\n      or\n      swap1\n      sstore\n      pop\n        /* \"contracts/lastday/p1.sol\":3087:3103  studentAddresses */\n      0x01\n        /* \"contracts/lastday/p1.sol\":3117:3124  student */\n      dup2\n        /* \"contracts/lastday/p1.sol\":3087:3126  studentAddresses.push(address(student)) */\n      swap1\n      dup1\n      0x01\n      dup2\n      sload\n      add\n      dup1\n      dup3\n      sstore\n      dup1\n      swap2\n      pop\n      pop\n      0x01\n      swap1\n      sub\n      swap1\n      0x00\n      mstore\n      keccak256(0x00, 0x20)\n      add\n      0x00\n      swap1\n      swap2\n      swap1\n      swap2\n      swap1\n      swap2\n      0x0100\n      exp\n      dup2\n      sload\n      dup2\n      0xffffffffffffffffffffffffffffffffffffffff\n      mul\n      not\n      and\n      swap1\n      dup4\n      0xffffffffffffffffffffffffffffffffffffffff\n      and\n      mul\n      or\n      swap1\n      sstore\n      pop\n        /* \"contracts/lastday/p1.sol\":2898:3185  {... */\n      pop\n        /* \"contracts/lastday/p1.sol\":2656:3185  function admitNewStudent(... */\n      pop\n      pop\n      pop\n      pop\n      pop\n      pop\n      jump\t// out\n        /* \"contracts/lastday/p1.sol\":3278:3646  function migrateStudent(string memory _regdNo) public view returns (string memory) {... */\n    tag_15:\n        /* \"contracts/lastday/p1.sol\":3346:3359  string memory */\n      0x60\n        /* \"contracts/lastday/p1.sol\":3372:3387  Student student */\n      0x00\n        /* \"contracts/lastday/p1.sol\":3390:3398  students */\n      dup1\n        /* \"contracts/lastday/p1.sol\":3399:3406  _regdNo */\n      dup4\n        /* \"contracts/lastday/p1.sol\":3390:3407  students[_regdNo] */\n      mload(0x40)\n      tag_49\n      swap2\n      swap1\n      tag_46\n      jump\t// in\n    tag_49:\n      swap1\n      dup2\n      mstore\n      0x20\n      add\n      mload(0x40)\n      dup1\n      swap2\n      sub\n      swap1\n      keccak256\n      0x00\n      swap1\n      sload\n      swap1\n      0x0100\n      exp\n      swap1\n      div\n      0xffffffffffffffffffffffffffffffffffffffff\n      and\n        /* \"contracts/lastday/p1.sol\":3372:3407  Student student = students[_regdNo] */\n      swap1\n      pop\n        /* \"contracts/lastday/p1.sol\":3454:3455  0 */\n      0x00\n        /* \"contracts/lastday/p1.sol\":3426:3456  address(student) != address(0) */\n      0xffffffffffffffffffffffffffffffffffffffff\n      and\n        /* \"contracts/lastday/p1.sol\":3434:3441  student */\n      dup2\n        /* \"contracts/lastday/p1.sol\":3426:3456  address(student) != address(0) */\n      0xffffffffffffffffffffffffffffffffffffffff\n      and\n      sub\n        /* \"contracts/lastday/p1.sol\":3418:3479  require(address(student) != address(0), \"Student not found.\") */\n      tag_50\n      jumpi\n      mload(0x40)\n      0x08c379a000000000000000000000000000000000000000000000000000000000\n      dup2\n      mstore\n      0x04\n      add\n      tag_51\n      swap1\n      tag_52\n      jump\t// in\n    tag_51:\n      mload(0x40)\n      dup1\n      swap2\n      sub\n      swap1\n      revert\n    tag_50:\n        /* \"contracts/lastday/p1.sol\":3563:3638  return \"Migration process initiated for student with Registration Number: \" */\n      mload(0x40)\n      dup1\n      0x80\n      add\n      0x40\n      mstore\n      dup1\n      0x42\n      dup2\n      mstore\n      0x20\n      add\n      data_ae6600477bca47094ad61cc9fc5e2ce09cc3b1948cd8ed1ab1e566d746825f88\n      0x42\n      swap2\n      codecopy\n      swap2\n      pop\n      pop\n        /* \"contracts/lastday/p1.sol\":3278:3646  function migrateStudent(string memory _regdNo) public view returns (string memory) {... */\n      swap2\n      swap1\n      pop\n      jump\t// out\n        /* \"contracts/lastday/p1.sol\":2536:2569  address[] public studentAddresses */\n    tag_21:\n      0x01\n      dup2\n      dup2\n      sload\n      dup2\n      lt\n      tag_53\n      jumpi\n      0x00\n      dup1\n      revert\n    tag_53:\n      swap1\n      0x00\n      mstore\n      keccak256(0x00, 0x20)\n      add\n      0x00\n      swap2\n      pop\n      sload\n      swap1\n      0x0100\n      exp\n      swap1\n      div\n      0xffffffffffffffffffffffffffffffffffffffff\n      and\n      dup2\n      jump\t// out\n        /* \"contracts/lastday/p1.sol\":2428:2470  mapping(string => Student) public students */\n    tag_26:\n      0x00\n      dup2\n      dup1\n      mload\n      0x20\n      dup2\n      add\n      dup3\n      add\n      dup1\n      mload\n      dup5\n      dup3\n      mstore\n      0x20\n      dup4\n      add\n      0x20\n      dup6\n      add\n      keccak256\n      dup2\n      dup4\n      mstore\n      dup1\n      swap6\n      pop\n      pop\n      pop\n      pop\n      pop\n      pop\n      0x00\n      swap2\n      pop\n      sload\n      swap1\n      0x0100\n      exp\n      swap1\n      div\n      0xffffffffffffffffffffffffffffffffffffffff\n      and\n      dup2\n      jump\t// out\n        /* \"contracts/lastday/p1.sol\":3750:4832  function displayStudentDetails(string memory _regdNo) public view returns (... */\n    tag_31:\n        /* \"contracts/lastday/p1.sol\":3835:3860  string memory studentName */\n      0x60\n        /* \"contracts/lastday/p1.sol\":3872:3892  string memory regdNo */\n      dup1\n        /* \"contracts/lastday/p1.sol\":3904:3933  string memory electiveSubject */\n      0x60\n        /* \"contracts/lastday/p1.sol\":3945:3958  uint avgMarks */\n      0x00\n        /* \"contracts/lastday/p1.sol\":3970:3992  string memory deptName */\n      0x60\n        /* \"contracts/lastday/p1.sol\":4004:4026  string memory deptHead */\n      dup1\n        /* \"contracts/lastday/p1.sol\":4038:4062  string memory hostelName */\n      0x60\n        /* \"contracts/lastday/p1.sol\":4074:4102  string memory hostelLocation */\n      dup1\n        /* \"contracts/lastday/p1.sol\":4114:4132  uint numberOfRooms */\n      0x00\n        /* \"contracts/lastday/p1.sol\":4186:4201  Student student */\n      dup1\n        /* \"contracts/lastday/p1.sol\":4204:4212  students */\n      0x00\n        /* \"contracts/lastday/p1.sol\":4213:4220  _regdNo */\n      dup12\n        /* \"contracts/lastday/p1.sol\":4204:4221  students[_regdNo] */\n      mload(0x40)\n      tag_56\n      swap2\n      swap1\n      tag_46\n      jump\t// in\n    tag_56:\n      swap1\n      dup2\n      mstore\n      0x20\n      add\n      mload(0x40)\n      dup1\n      swap2\n      sub\n      swap1\n      keccak256\n      0x00\n      swap1\n      sload\n      swap1\n      0x0100\n      exp\n      swap1\n      div\n      0xffffffffffffffffffffffffffffffffffffffff\n      and\n        /* \"contracts/lastday/p1.sol\":4186:4221  Student student = students[_regdNo] */\n      swap1\n      pop\n        /* \"contracts/lastday/p1.sol\":4268:4269  0 */\n      0x00\n        /* \"contracts/lastday/p1.sol\":4240:4270  address(student) != address(0) */\n      0xffffffffffffffffffffffffffffffffffffffff\n      and\n        /* \"contracts/lastday/p1.sol\":4248:4255  student */\n      dup2\n        /* \"contracts/lastday/p1.sol\":4240:4270  address(student) != address(0) */\n      0xffffffffffffffffffffffffffffffffffffffff\n      and\n      sub\n        /* \"contracts/lastday/p1.sol\":4232:4293  require(address(student) != address(0), \"Student not found.\") */\n      tag_57\n      jumpi\n      mload(0x40)\n      0x08c379a000000000000000000000000000000000000000000000000000000000\n      dup2\n      mstore\n      0x04\n      add\n      tag_58\n      swap1\n      tag_52\n      jump\t// in\n    tag_58:\n      mload(0x40)\n      dup1\n      swap2\n      sub\n      swap1\n      revert\n    tag_57:\n        /* \"contracts/lastday/p1.sol\":4396:4403  student */\n      dup1\n        /* \"contracts/lastday/p1.sol\":4396:4413  student.printData */\n      0xffffffffffffffffffffffffffffffffffffffff\n      and\n      0xe81bd2a4\n        /* \"contracts/lastday/p1.sol\":4396:4415  student.printData() */\n      mload(0x40)\n      dup2\n      0xffffffff\n      and\n      0xe0\n      shl\n      dup2\n      mstore\n      0x04\n      add\n      0x00\n      mload(0x40)\n      dup1\n      dup4\n      sub\n      dup2\n      dup7\n      gas\n      staticcall\n      iszero\n      dup1\n      iszero\n      tag_60\n      jumpi\n      returndatasize\n      0x00\n      dup1\n      returndatacopy\n      revert(0x00, returndatasize)\n    tag_60:\n      pop\n      pop\n      pop\n      pop\n      mload(0x40)\n      returndatasize\n      0x00\n      dup3\n      returndatacopy\n      returndatasize\n      not(0x1f)\n      0x1f\n      dup3\n      add\n      and\n      dup3\n      add\n      dup1\n      0x40\n      mstore\n      pop\n      dup2\n      add\n      swap1\n      tag_61\n      swap2\n      swap1\n      tag_62\n      jump\t// in\n    tag_61:\n        /* \"contracts/lastday/p1.sol\":4345:4415  (studentName, regdNo, electiveSubject, avgMarks) = student.printData() */\n      dup1\n      swap11\n      pop\n      dup2\n      swap12\n      pop\n      dup3\n      swap13\n      pop\n      dup4\n      swap14\n      pop\n      pop\n      pop\n      pop\n      pop\n        /* \"contracts/lastday/p1.sol\":4496:4503  student */\n      dup1\n        /* \"contracts/lastday/p1.sol\":4496:4520  student.printDeptDetails */\n      0xffffffffffffffffffffffffffffffffffffffff\n      and\n      0x1b0c2670\n        /* \"contracts/lastday/p1.sol\":4496:4522  student.printDeptDetails() */\n      mload(0x40)\n      dup2\n      0xffffffff\n      and\n      0xe0\n      shl\n      dup2\n      mstore\n      0x04\n      add\n      0x00\n      mload(0x40)\n      dup1\n      dup4\n      sub\n      dup2\n      dup7\n      gas\n      staticcall\n      iszero\n      dup1\n      iszero\n      tag_64\n      jumpi\n      returndatasize\n      0x00\n      dup1\n      returndatacopy\n      revert(0x00, returndatasize)\n    tag_64:\n      pop\n      pop\n      pop\n      pop\n      mload(0x40)\n      returndatasize\n      0x00\n      dup3\n      returndatacopy\n      returndatasize\n      not(0x1f)\n      0x1f\n      dup3\n      add\n      and\n      dup3\n      add\n      dup1\n      0x40\n      mstore\n      pop\n      dup2\n      add\n      swap1\n      tag_65\n      swap2\n      swap1\n      tag_66\n      jump\t// in\n    tag_65:\n        /* \"contracts/lastday/p1.sol\":4473:4522  (deptName, deptHead) = student.printDeptDetails() */\n      dup1\n      swap7\n      pop\n      dup2\n      swap8\n      pop\n      pop\n      pop\n        /* \"contracts/lastday/p1.sol\":4622:4629  student */\n      dup1\n        /* \"contracts/lastday/p1.sol\":4622:4648  student.printHostelDetails */\n      0xffffffffffffffffffffffffffffffffffffffff\n      and\n      0xf8fd1948\n        /* \"contracts/lastday/p1.sol\":4622:4650  student.printHostelDetails() */\n      mload(0x40)\n      dup2\n      0xffffffff\n      and\n      0xe0\n      shl\n      dup2\n      mstore\n      0x04\n      add\n      0x00\n      mload(0x40)\n      dup1\n      dup4\n      sub\n      dup2\n      dup7\n      gas\n      staticcall\n      iszero\n      dup1\n      iszero\n      tag_68\n      jumpi\n      returndatasize\n      0x00\n      dup1\n      returndatacopy\n      revert(0x00, returndatasize)\n    tag_68:\n      pop\n      pop\n      pop\n      pop\n      mload(0x40)\n      returndatasize\n      0x00\n      dup3\n      returndatacopy\n      returndatasize\n      not(0x1f)\n      0x1f\n      dup3\n      add\n      and\n      dup3\n      add\n      dup1\n      0x40\n      mstore\n      pop\n      dup2\n      add\n      swap1\n      tag_69\n      swap2\n      swap1\n      tag_70\n      jump\t// in\n    tag_69:\n        /* \"contracts/lastday/p1.sol\":4576:4650  (hostelName, hostelLocation, numberOfRooms) = student.printHostelDetails() */\n      dup1\n      swap5\n      pop\n      dup2\n      swap6\n      pop\n      dup3\n      swap7\n      pop\n      pop\n      pop\n      pop\n        /* \"contracts/lastday/p1.sol\":4706:4824  return (studentName, regdNo, electiveSubject, avgMarks, deptName, deptHead, hostelName, hostelLocation, numberOfRooms) */\n      pop\n        /* \"contracts/lastday/p1.sol\":3750:4832  function displayStudentDetails(string memory _regdNo) public view returns (... */\n      swap2\n      swap4\n      swap6\n      swap8\n      swap10\n      swap1\n      swap3\n      swap5\n      swap7\n      swap9\n      pop\n      jump\t// out\n    tag_36:\n      dataSize(sub_0)\n      dup1\n      dataOffset(sub_0)\n      dup4\n      codecopy\n      add\n      swap1\n      jump\t// out\n        /* \"#utility.yul\":7:82   */\n    tag_71:\n        /* \"#utility.yul\":40:46   */\n      0x00\n        /* \"#utility.yul\":73:75   */\n      0x40\n        /* \"#utility.yul\":67:76   */\n      mload\n        /* \"#utility.yul\":57:76   */\n      swap1\n      pop\n        /* \"#utility.yul\":7:82   */\n      swap1\n      jump\t// out\n        /* \"#utility.yul\":88:205   */\n    tag_72:\n        /* \"#utility.yul\":197:198   */\n      0x00\n        /* \"#utility.yul\":194:195   */\n      dup1\n        /* \"#utility.yul\":187:199   */\n      revert\n        /* \"#utility.yul\":211:328   */\n    tag_73:\n        /* \"#utility.yul\":320:321   */\n      0x00\n        /* \"#utility.yul\":317:318   */\n      dup1\n        /* \"#utility.yul\":310:322   */\n      revert\n        /* \"#utility.yul\":334:451   */\n    tag_74:\n        /* \"#utility.yul\":443:444   */\n      0x00\n        /* \"#utility.yul\":440:441   */\n      dup1\n        /* \"#utility.yul\":433:445   */\n      revert\n        /* \"#utility.yul\":457:574   */\n    tag_75:\n        /* \"#utility.yul\":566:567   */\n      0x00\n        /* \"#utility.yul\":563:564   */\n      dup1\n        /* \"#utility.yul\":556:568   */\n      revert\n        /* \"#utility.yul\":580:682   */\n    tag_76:\n        /* \"#utility.yul\":621:627   */\n      0x00\n        /* \"#utility.yul\":672:674   */\n      0x1f\n        /* \"#utility.yul\":668:675   */\n      not\n        /* \"#utility.yul\":663:665   */\n      0x1f\n        /* \"#utility.yul\":656:661   */\n      dup4\n        /* \"#utility.yul\":652:666   */\n      add\n        /* \"#utility.yul\":648:676   */\n      and\n        /* \"#utility.yul\":638:676   */\n      swap1\n      pop\n        /* \"#utility.yul\":580:682   */\n      swap2\n      swap1\n      pop\n      jump\t// out\n        /* \"#utility.yul\":688:868   */\n    tag_77:\n        /* \"#utility.yul\":736:813   */\n      0x4e487b7100000000000000000000000000000000000000000000000000000000\n        /* \"#utility.yul\":733:734   */\n      0x00\n        /* \"#utility.yul\":726:814   */\n      mstore\n        /* \"#utility.yul\":833:837   */\n      0x41\n        /* \"#utility.yul\":830:831   */\n      0x04\n        /* \"#utility.yul\":823:838   */\n      mstore\n        /* \"#utility.yul\":857:861   */\n      0x24\n        /* \"#utility.yul\":854:855   */\n      0x00\n        /* \"#utility.yul\":847:862   */\n      revert\n        /* \"#utility.yul\":874:1155   */\n    tag_78:\n        /* \"#utility.yul\":957:984   */\n      tag_116\n        /* \"#utility.yul\":979:983   */\n      dup3\n        /* \"#utility.yul\":957:984   */\n      tag_76\n      jump\t// in\n    tag_116:\n        /* \"#utility.yul\":949:955   */\n      dup2\n        /* \"#utility.yul\":945:985   */\n      add\n        /* \"#utility.yul\":1087:1093   */\n      dup2\n        /* \"#utility.yul\":1075:1085   */\n      dup2\n        /* \"#utility.yul\":1072:1094   */\n      lt\n        /* \"#utility.yul\":1051:1069   */\n      0xffffffffffffffff\n        /* \"#utility.yul\":1039:1049   */\n      dup3\n        /* \"#utility.yul\":1036:1070   */\n      gt\n        /* \"#utility.yul\":1033:1095   */\n      or\n        /* \"#utility.yul\":1030:1118   */\n      iszero\n      tag_117\n      jumpi\n        /* \"#utility.yul\":1098:1116   */\n      tag_118\n      tag_77\n      jump\t// in\n    tag_118:\n        /* \"#utility.yul\":1030:1118   */\n    tag_117:\n        /* \"#utility.yul\":1138:1148   */\n      dup1\n        /* \"#utility.yul\":1134:1136   */\n      0x40\n        /* \"#utility.yul\":1127:1149   */\n      mstore\n        /* \"#utility.yul\":917:1155   */\n      pop\n        /* \"#utility.yul\":874:1155   */\n      pop\n      pop\n      jump\t// out\n        /* \"#utility.yul\":1161:1290   */\n    tag_79:\n        /* \"#utility.yul\":1195:1201   */\n      0x00\n        /* \"#utility.yul\":1222:1242   */\n      tag_120\n      tag_71\n      jump\t// in\n    tag_120:\n        /* \"#utility.yul\":1212:1242   */\n      swap1\n      pop\n        /* \"#utility.yul\":1251:1284   */\n      tag_121\n        /* \"#utility.yul\":1279:1283   */\n      dup3\n        /* \"#utility.yul\":1271:1277   */\n      dup3\n        /* \"#utility.yul\":1251:1284   */\n      tag_78\n      jump\t// in\n    tag_121:\n        /* \"#utility.yul\":1161:1290   */\n      swap2\n      swap1\n      pop\n      jump\t// out\n        /* \"#utility.yul\":1296:1604   */\n    tag_80:\n        /* \"#utility.yul\":1358:1362   */\n      0x00\n        /* \"#utility.yul\":1448:1466   */\n      0xffffffffffffffff\n        /* \"#utility.yul\":1440:1446   */\n      dup3\n        /* \"#utility.yul\":1437:1467   */\n      gt\n        /* \"#utility.yul\":1434:1490   */\n      iszero\n      tag_123\n      jumpi\n        /* \"#utility.yul\":1470:1488   */\n      tag_124\n      tag_77\n      jump\t// in\n    tag_124:\n        /* \"#utility.yul\":1434:1490   */\n    tag_123:\n        /* \"#utility.yul\":1508:1537   */\n      tag_125\n        /* \"#utility.yul\":1530:1536   */\n      dup3\n        /* \"#utility.yul\":1508:1537   */\n      tag_76\n      jump\t// in\n    tag_125:\n        /* \"#utility.yul\":1500:1537   */\n      swap1\n      pop\n        /* \"#utility.yul\":1592:1596   */\n      0x20\n        /* \"#utility.yul\":1586:1590   */\n      dup2\n        /* \"#utility.yul\":1582:1597   */\n      add\n        /* \"#utility.yul\":1574:1597   */\n      swap1\n      pop\n        /* \"#utility.yul\":1296:1604   */\n      swap2\n      swap1\n      pop\n      jump\t// out\n        /* \"#utility.yul\":1610:1758   */\n    tag_81:\n        /* \"#utility.yul\":1708:1714   */\n      dup3\n        /* \"#utility.yul\":1703:1706   */\n      dup2\n        /* \"#utility.yul\":1698:1701   */\n      dup4\n        /* \"#utility.yul\":1685:1715   */\n      calldatacopy\n        /* \"#utility.yul\":1749:1750   */\n      0x00\n        /* \"#utility.yul\":1740:1746   */\n      dup4\n        /* \"#utility.yul\":1735:1738   */\n      dup4\n        /* \"#utility.yul\":1731:1747   */\n      add\n        /* \"#utility.yul\":1724:1751   */\n      mstore\n        /* \"#utility.yul\":1610:1758   */\n      pop\n      pop\n      pop\n      jump\t// out\n        /* \"#utility.yul\":1764:2189   */\n    tag_82:\n        /* \"#utility.yul\":1842:1847   */\n      0x00\n        /* \"#utility.yul\":1867:1933   */\n      tag_128\n        /* \"#utility.yul\":1883:1932   */\n      tag_129\n        /* \"#utility.yul\":1925:1931   */\n      dup5\n        /* \"#utility.yul\":1883:1932   */\n      tag_80\n      jump\t// in\n    tag_129:\n        /* \"#utility.yul\":1867:1933   */\n      tag_79\n      jump\t// in\n    tag_128:\n        /* \"#utility.yul\":1858:1933   */\n      swap1\n      pop\n        /* \"#utility.yul\":1956:1962   */\n      dup3\n        /* \"#utility.yul\":1949:1954   */\n      dup2\n        /* \"#utility.yul\":1942:1963   */\n      mstore\n        /* \"#utility.yul\":1994:1998   */\n      0x20\n        /* \"#utility.yul\":1987:1992   */\n      dup2\n        /* \"#utility.yul\":1983:1999   */\n      add\n        /* \"#utility.yul\":2032:2035   */\n      dup5\n        /* \"#utility.yul\":2023:2029   */\n      dup5\n        /* \"#utility.yul\":2018:2021   */\n      dup5\n        /* \"#utility.yul\":2014:2030   */\n      add\n        /* \"#utility.yul\":2011:2036   */\n      gt\n        /* \"#utility.yul\":2008:2120   */\n      iszero\n      tag_130\n      jumpi\n        /* \"#utility.yul\":2039:2118   */\n      tag_131\n      tag_75\n      jump\t// in\n    tag_131:\n        /* \"#utility.yul\":2008:2120   */\n    tag_130:\n        /* \"#utility.yul\":2129:2183   */\n      tag_132\n        /* \"#utility.yul\":2176:2182   */\n      dup5\n        /* \"#utility.yul\":2171:2174   */\n      dup3\n        /* \"#utility.yul\":2166:2169   */\n      dup6\n        /* \"#utility.yul\":2129:2183   */\n      tag_81\n      jump\t// in\n    tag_132:\n        /* \"#utility.yul\":1848:2189   */\n      pop\n        /* \"#utility.yul\":1764:2189   */\n      swap4\n      swap3\n      pop\n      pop\n      pop\n      jump\t// out\n        /* \"#utility.yul\":2209:2549   */\n    tag_83:\n        /* \"#utility.yul\":2265:2270   */\n      0x00\n        /* \"#utility.yul\":2314:2317   */\n      dup3\n        /* \"#utility.yul\":2307:2311   */\n      0x1f\n        /* \"#utility.yul\":2299:2305   */\n      dup4\n        /* \"#utility.yul\":2295:2312   */\n      add\n        /* \"#utility.yul\":2291:2318   */\n      slt\n        /* \"#utility.yul\":2281:2403   */\n      tag_134\n      jumpi\n        /* \"#utility.yul\":2322:2401   */\n      tag_135\n      tag_74\n      jump\t// in\n    tag_135:\n        /* \"#utility.yul\":2281:2403   */\n    tag_134:\n        /* \"#utility.yul\":2439:2445   */\n      dup2\n        /* \"#utility.yul\":2426:2446   */\n      calldataload\n        /* \"#utility.yul\":2464:2543   */\n      tag_136\n        /* \"#utility.yul\":2539:2542   */\n      dup5\n        /* \"#utility.yul\":2531:2537   */\n      dup3\n        /* \"#utility.yul\":2524:2528   */\n      0x20\n        /* \"#utility.yul\":2516:2522   */\n      dup7\n        /* \"#utility.yul\":2512:2529   */\n      add\n        /* \"#utility.yul\":2464:2543   */\n      tag_82\n      jump\t// in\n    tag_136:\n        /* \"#utility.yul\":2455:2543   */\n      swap2\n      pop\n        /* \"#utility.yul\":2271:2549   */\n      pop\n        /* \"#utility.yul\":2209:2549   */\n      swap3\n      swap2\n      pop\n      pop\n      jump\t// out\n        /* \"#utility.yul\":2555:2632   */\n    tag_84:\n        /* \"#utility.yul\":2592:2599   */\n      0x00\n        /* \"#utility.yul\":2621:2626   */\n      dup2\n        /* \"#utility.yul\":2610:2626   */\n      swap1\n      pop\n        /* \"#utility.yul\":2555:2632   */\n      swap2\n      swap1\n      pop\n      jump\t// out\n        /* \"#utility.yul\":2638:2760   */\n    tag_85:\n        /* \"#utility.yul\":2711:2735   */\n      tag_139\n        /* \"#utility.yul\":2729:2734   */\n      dup2\n        /* \"#utility.yul\":2711:2735   */\n      tag_84\n      jump\t// in\n    tag_139:\n        /* \"#utility.yul\":2704:2709   */\n      dup2\n        /* \"#utility.yul\":2701:2736   */\n      eq\n        /* \"#utility.yul\":2691:2754   */\n      tag_140\n      jumpi\n        /* \"#utility.yul\":2750:2751   */\n      0x00\n        /* \"#utility.yul\":2747:2748   */\n      dup1\n        /* \"#utility.yul\":2740:2752   */\n      revert\n        /* \"#utility.yul\":2691:2754   */\n    tag_140:\n        /* \"#utility.yul\":2638:2760   */\n      pop\n      jump\t// out\n        /* \"#utility.yul\":2766:2905   */\n    tag_86:\n        /* \"#utility.yul\":2812:2817   */\n      0x00\n        /* \"#utility.yul\":2850:2856   */\n      dup2\n        /* \"#utility.yul\":2837:2857   */\n      calldataload\n        /* \"#utility.yul\":2828:2857   */\n      swap1\n      pop\n        /* \"#utility.yul\":2866:2899   */\n      tag_142\n        /* \"#utility.yul\":2893:2898   */\n      dup2\n        /* \"#utility.yul\":2866:2899   */\n      tag_85\n      jump\t// in\n    tag_142:\n        /* \"#utility.yul\":2766:2905   */\n      swap3\n      swap2\n      pop\n      pop\n      jump\t// out\n        /* \"#utility.yul\":2911:4868   */\n    tag_10:\n        /* \"#utility.yul\":3065:3071   */\n      0x00\n        /* \"#utility.yul\":3073:3079   */\n      dup1\n        /* \"#utility.yul\":3081:3087   */\n      0x00\n        /* \"#utility.yul\":3089:3095   */\n      dup1\n        /* \"#utility.yul\":3097:3103   */\n      0x00\n        /* \"#utility.yul\":3105:3111   */\n      dup1\n        /* \"#utility.yul\":3154:3157   */\n      0xc0\n        /* \"#utility.yul\":3142:3151   */\n      dup8\n        /* \"#utility.yul\":3133:3140   */\n      dup10\n        /* \"#utility.yul\":3129:3152   */\n      sub\n        /* \"#utility.yul\":3125:3158   */\n      slt\n        /* \"#utility.yul\":3122:3242   */\n      iszero\n      tag_144\n      jumpi\n        /* \"#utility.yul\":3161:3240   */\n      tag_145\n      tag_72\n      jump\t// in\n    tag_145:\n        /* \"#utility.yul\":3122:3242   */\n    tag_144:\n        /* \"#utility.yul\":3309:3310   */\n      0x00\n        /* \"#utility.yul\":3298:3307   */\n      dup8\n        /* \"#utility.yul\":3294:3311   */\n      add\n        /* \"#utility.yul\":3281:3312   */\n      calldataload\n        /* \"#utility.yul\":3339:3357   */\n      0xffffffffffffffff\n        /* \"#utility.yul\":3331:3337   */\n      dup2\n        /* \"#utility.yul\":3328:3358   */\n      gt\n        /* \"#utility.yul\":3325:3442   */\n      iszero\n      tag_146\n      jumpi\n        /* \"#utility.yul\":3361:3440   */\n      tag_147\n      tag_73\n      jump\t// in\n    tag_147:\n        /* \"#utility.yul\":3325:3442   */\n    tag_146:\n        /* \"#utility.yul\":3466:3529   */\n      tag_148\n        /* \"#utility.yul\":3521:3528   */\n      dup10\n        /* \"#utility.yul\":3512:3518   */\n      dup3\n        /* \"#utility.yul\":3501:3510   */\n      dup11\n        /* \"#utility.yul\":3497:3519   */\n      add\n        /* \"#utility.yul\":3466:3529   */\n      tag_83\n      jump\t// in\n    tag_148:\n        /* \"#utility.yul\":3456:3529   */\n      swap7\n      pop\n        /* \"#utility.yul\":3252:3539   */\n      pop\n        /* \"#utility.yul\":3606:3608   */\n      0x20\n        /* \"#utility.yul\":3595:3604   */\n      dup8\n        /* \"#utility.yul\":3591:3609   */\n      add\n        /* \"#utility.yul\":3578:3610   */\n      calldataload\n        /* \"#utility.yul\":3637:3655   */\n      0xffffffffffffffff\n        /* \"#utility.yul\":3629:3635   */\n      dup2\n        /* \"#utility.yul\":3626:3656   */\n      gt\n        /* \"#utility.yul\":3623:3740   */\n      iszero\n      tag_149\n      jumpi\n        /* \"#utility.yul\":3659:3738   */\n      tag_150\n      tag_73\n      jump\t// in\n    tag_150:\n        /* \"#utility.yul\":3623:3740   */\n    tag_149:\n        /* \"#utility.yul\":3764:3827   */\n      tag_151\n        /* \"#utility.yul\":3819:3826   */\n      dup10\n        /* \"#utility.yul\":3810:3816   */\n      dup3\n        /* \"#utility.yul\":3799:3808   */\n      dup11\n        /* \"#utility.yul\":3795:3817   */\n      add\n        /* \"#utility.yul\":3764:3827   */\n      tag_83\n      jump\t// in\n    tag_151:\n        /* \"#utility.yul\":3754:3827   */\n      swap6\n      pop\n        /* \"#utility.yul\":3549:3837   */\n      pop\n        /* \"#utility.yul\":3904:3906   */\n      0x40\n        /* \"#utility.yul\":3893:3902   */\n      dup8\n        /* \"#utility.yul\":3889:3907   */\n      add\n        /* \"#utility.yul\":3876:3908   */\n      calldataload\n        /* \"#utility.yul\":3935:3953   */\n      0xffffffffffffffff\n        /* \"#utility.yul\":3927:3933   */\n      dup2\n        /* \"#utility.yul\":3924:3954   */\n      gt\n        /* \"#utility.yul\":3921:4038   */\n      iszero\n      tag_152\n      jumpi\n        /* \"#utility.yul\":3957:4036   */\n      tag_153\n      tag_73\n      jump\t// in\n    tag_153:\n        /* \"#utility.yul\":3921:4038   */\n    tag_152:\n        /* \"#utility.yul\":4062:4125   */\n      tag_154\n        /* \"#utility.yul\":4117:4124   */\n      dup10\n        /* \"#utility.yul\":4108:4114   */\n      dup3\n        /* \"#utility.yul\":4097:4106   */\n      dup11\n        /* \"#utility.yul\":4093:4115   */\n      add\n        /* \"#utility.yul\":4062:4125   */\n      tag_83\n      jump\t// in\n    tag_154:\n        /* \"#utility.yul\":4052:4125   */\n      swap5\n      pop\n        /* \"#utility.yul\":3847:4135   */\n      pop\n        /* \"#utility.yul\":4202:4204   */\n      0x60\n        /* \"#utility.yul\":4191:4200   */\n      dup8\n        /* \"#utility.yul\":4187:4205   */\n      add\n        /* \"#utility.yul\":4174:4206   */\n      calldataload\n        /* \"#utility.yul\":4233:4251   */\n      0xffffffffffffffff\n        /* \"#utility.yul\":4225:4231   */\n      dup2\n        /* \"#utility.yul\":4222:4252   */\n      gt\n        /* \"#utility.yul\":4219:4336   */\n      iszero\n      tag_155\n      jumpi\n        /* \"#utility.yul\":4255:4334   */\n      tag_156\n      tag_73\n      jump\t// in\n    tag_156:\n        /* \"#utility.yul\":4219:4336   */\n    tag_155:\n        /* \"#utility.yul\":4360:4423   */\n      tag_157\n        /* \"#utility.yul\":4415:4422   */\n      dup10\n        /* \"#utility.yul\":4406:4412   */\n      dup3\n        /* \"#utility.yul\":4395:4404   */\n      dup11\n        /* \"#utility.yul\":4391:4413   */\n      add\n        /* \"#utility.yul\":4360:4423   */\n      tag_83\n      jump\t// in\n    tag_157:\n        /* \"#utility.yul\":4350:4423   */\n      swap4\n      pop\n        /* \"#utility.yul\":4145:4433   */\n      pop\n        /* \"#utility.yul\":4500:4503   */\n      0x80\n        /* \"#utility.yul\":4489:4498   */\n      dup8\n        /* \"#utility.yul\":4485:4504   */\n      add\n        /* \"#utility.yul\":4472:4505   */\n      calldataload\n        /* \"#utility.yul\":4532:4550   */\n      0xffffffffffffffff\n        /* \"#utility.yul\":4524:4530   */\n      dup2\n        /* \"#utility.yul\":4521:4551   */\n      gt\n        /* \"#utility.yul\":4518:4635   */\n      iszero\n      tag_158\n      jumpi\n        /* \"#utility.yul\":4554:4633   */\n      tag_159\n      tag_73\n      jump\t// in\n    tag_159:\n        /* \"#utility.yul\":4518:4635   */\n    tag_158:\n        /* \"#utility.yul\":4659:4722   */\n      tag_160\n        /* \"#utility.yul\":4714:4721   */\n      dup10\n        /* \"#utility.yul\":4705:4711   */\n      dup3\n        /* \"#utility.yul\":4694:4703   */\n      dup11\n        /* \"#utility.yul\":4690:4712   */\n      add\n        /* \"#utility.yul\":4659:4722   */\n      tag_83\n      jump\t// in\n    tag_160:\n        /* \"#utility.yul\":4649:4722   */\n      swap3\n      pop\n        /* \"#utility.yul\":4443:4732   */\n      pop\n        /* \"#utility.yul\":4771:4774   */\n      0xa0\n        /* \"#utility.yul\":4798:4851   */\n      tag_161\n        /* \"#utility.yul\":4843:4850   */\n      dup10\n        /* \"#utility.yul\":4834:4840   */\n      dup3\n        /* \"#utility.yul\":4823:4832   */\n      dup11\n        /* \"#utility.yul\":4819:4841   */\n      add\n        /* \"#utility.yul\":4798:4851   */\n      tag_86\n      jump\t// in\n    tag_161:\n        /* \"#utility.yul\":4788:4851   */\n      swap2\n      pop\n        /* \"#utility.yul\":4742:4861   */\n      pop\n        /* \"#utility.yul\":2911:4868   */\n      swap3\n      swap6\n      pop\n      swap3\n      swap6\n      pop\n      swap3\n      swap6\n      jump\t// out\n        /* \"#utility.yul\":4874:5383   */\n    tag_14:\n        /* \"#utility.yul\":4943:4949   */\n      0x00\n        /* \"#utility.yul\":4992:4994   */\n      0x20\n        /* \"#utility.yul\":4980:4989   */\n      dup3\n        /* \"#utility.yul\":4971:4978   */\n      dup5\n        /* \"#utility.yul\":4967:4990   */\n      sub\n        /* \"#utility.yul\":4963:4995   */\n      slt\n        /* \"#utility.yul\":4960:5079   */\n      iszero\n      tag_163\n      jumpi\n        /* \"#utility.yul\":4998:5077   */\n      tag_164\n      tag_72\n      jump\t// in\n    tag_164:\n        /* \"#utility.yul\":4960:5079   */\n    tag_163:\n        /* \"#utility.yul\":5146:5147   */\n      0x00\n        /* \"#utility.yul\":5135:5144   */\n      dup3\n        /* \"#utility.yul\":5131:5148   */\n      add\n        /* \"#utility.yul\":5118:5149   */\n      calldataload\n        /* \"#utility.yul\":5176:5194   */\n      0xffffffffffffffff\n        /* \"#utility.yul\":5168:5174   */\n      dup2\n        /* \"#utility.yul\":5165:5195   */\n      gt\n        /* \"#utility.yul\":5162:5279   */\n      iszero\n      tag_165\n      jumpi\n        /* \"#utility.yul\":5198:5277   */\n      tag_166\n      tag_73\n      jump\t// in\n    tag_166:\n        /* \"#utility.yul\":5162:5279   */\n    tag_165:\n        /* \"#utility.yul\":5303:5366   */\n      tag_167\n        /* \"#utility.yul\":5358:5365   */\n      dup5\n        /* \"#utility.yul\":5349:5355   */\n      dup3\n        /* \"#utility.yul\":5338:5347   */\n      dup6\n        /* \"#utility.yul\":5334:5356   */\n      add\n        /* \"#utility.yul\":5303:5366   */\n      tag_83\n      jump\t// in\n    tag_167:\n        /* \"#utility.yul\":5293:5366   */\n      swap2\n      pop\n        /* \"#utility.yul\":5089:5376   */\n      pop\n        /* \"#utility.yul\":4874:5383   */\n      swap3\n      swap2\n      pop\n      pop\n      jump\t// out\n        /* \"#utility.yul\":5389:5488   */\n    tag_87:\n        /* \"#utility.yul\":5441:5447   */\n      0x00\n        /* \"#utility.yul\":5475:5480   */\n      dup2\n        /* \"#utility.yul\":5469:5481   */\n      mload\n        /* \"#utility.yul\":5459:5481   */\n      swap1\n      pop\n        /* \"#utility.yul\":5389:5488   */\n      swap2\n      swap1\n      pop\n      jump\t// out\n        /* \"#utility.yul\":5494:5663   */\n    tag_88:\n        /* \"#utility.yul\":5578:5589   */\n      0x00\n        /* \"#utility.yul\":5612:5618   */\n      dup3\n        /* \"#utility.yul\":5607:5610   */\n      dup3\n        /* \"#utility.yul\":5600:5619   */\n      mstore\n        /* \"#utility.yul\":5652:5656   */\n      0x20\n        /* \"#utility.yul\":5647:5650   */\n      dup3\n        /* \"#utility.yul\":5643:5657   */\n      add\n        /* \"#utility.yul\":5628:5657   */\n      swap1\n      pop\n        /* \"#utility.yul\":5494:5663   */\n      swap3\n      swap2\n      pop\n      pop\n      jump\t// out\n        /* \"#utility.yul\":5669:5808   */\n    tag_89:\n        /* \"#utility.yul\":5758:5764   */\n      dup3\n        /* \"#utility.yul\":5753:5756   */\n      dup2\n        /* \"#utility.yul\":5748:5751   */\n      dup4\n        /* \"#utility.yul\":5742:5765   */\n      mcopy\n        /* \"#utility.yul\":5799:5800   */\n      0x00\n        /* \"#utility.yul\":5790:5796   */\n      dup4\n        /* \"#utility.yul\":5785:5788   */\n      dup4\n        /* \"#utility.yul\":5781:5797   */\n      add\n        /* \"#utility.yul\":5774:5801   */\n      mstore\n        /* \"#utility.yul\":5669:5808   */\n      pop\n      pop\n      pop\n      jump\t// out\n        /* \"#utility.yul\":5814:6191   */\n    tag_90:\n        /* \"#utility.yul\":5902:5905   */\n      0x00\n        /* \"#utility.yul\":5930:5969   */\n      tag_172\n        /* \"#utility.yul\":5963:5968   */\n      dup3\n        /* \"#utility.yul\":5930:5969   */\n      tag_87\n      jump\t// in\n    tag_172:\n        /* \"#utility.yul\":5985:6056   */\n      tag_173\n        /* \"#utility.yul\":6049:6055   */\n      dup2\n        /* \"#utility.yul\":6044:6047   */\n      dup6\n        /* \"#utility.yul\":5985:6056   */\n      tag_88\n      jump\t// in\n    tag_173:\n        /* \"#utility.yul\":5978:6056   */\n      swap4\n      pop\n        /* \"#utility.yul\":6065:6130   */\n      tag_174\n        /* \"#utility.yul\":6123:6129   */\n      dup2\n        /* \"#utility.yul\":6118:6121   */\n      dup6\n        /* \"#utility.yul\":6111:6115   */\n      0x20\n        /* \"#utility.yul\":6104:6109   */\n      dup7\n        /* \"#utility.yul\":6100:6116   */\n      add\n        /* \"#utility.yul\":6065:6130   */\n      tag_89\n      jump\t// in\n    tag_174:\n        /* \"#utility.yul\":6155:6184   */\n      tag_175\n        /* \"#utility.yul\":6177:6183   */\n      dup2\n        /* \"#utility.yul\":6155:6184   */\n      tag_76\n      jump\t// in\n    tag_175:\n        /* \"#utility.yul\":6150:6153   */\n      dup5\n        /* \"#utility.yul\":6146:6185   */\n      add\n        /* \"#utility.yul\":6139:6185   */\n      swap2\n      pop\n        /* \"#utility.yul\":5906:6191   */\n      pop\n        /* \"#utility.yul\":5814:6191   */\n      swap3\n      swap2\n      pop\n      pop\n      jump\t// out\n        /* \"#utility.yul\":6197:6510   */\n    tag_17:\n        /* \"#utility.yul\":6310:6314   */\n      0x00\n        /* \"#utility.yul\":6348:6350   */\n      0x20\n        /* \"#utility.yul\":6337:6346   */\n      dup3\n        /* \"#utility.yul\":6333:6351   */\n      add\n        /* \"#utility.yul\":6325:6351   */\n      swap1\n      pop\n        /* \"#utility.yul\":6397:6406   */\n      dup2\n        /* \"#utility.yul\":6391:6395   */\n      dup2\n        /* \"#utility.yul\":6387:6407   */\n      sub\n        /* \"#utility.yul\":6383:6384   */\n      0x00\n        /* \"#utility.yul\":6372:6381   */\n      dup4\n        /* \"#utility.yul\":6368:6385   */\n      add\n        /* \"#utility.yul\":6361:6408   */\n      mstore\n        /* \"#utility.yul\":6425:6503   */\n      tag_177\n        /* \"#utility.yul\":6498:6502   */\n      dup2\n        /* \"#utility.yul\":6489:6495   */\n      dup5\n        /* \"#utility.yul\":6425:6503   */\n      tag_90\n      jump\t// in\n    tag_177:\n        /* \"#utility.yul\":6417:6503   */\n      swap1\n      pop\n        /* \"#utility.yul\":6197:6510   */\n      swap3\n      swap2\n      pop\n      pop\n      jump\t// out\n        /* \"#utility.yul\":6516:6845   */\n    tag_20:\n        /* \"#utility.yul\":6575:6581   */\n      0x00\n        /* \"#utility.yul\":6624:6626   */\n      0x20\n        /* \"#utility.yul\":6612:6621   */\n      dup3\n        /* \"#utility.yul\":6603:6610   */\n      dup5\n        /* \"#utility.yul\":6599:6622   */\n      sub\n        /* \"#utility.yul\":6595:6627   */\n      slt\n        /* \"#utility.yul\":6592:6711   */\n      iszero\n      tag_179\n      jumpi\n        /* \"#utility.yul\":6630:6709   */\n      tag_180\n      tag_72\n      jump\t// in\n    tag_180:\n        /* \"#utility.yul\":6592:6711   */\n    tag_179:\n        /* \"#utility.yul\":6750:6751   */\n      0x00\n        /* \"#utility.yul\":6775:6828   */\n      tag_181\n        /* \"#utility.yul\":6820:6827   */\n      dup5\n        /* \"#utility.yul\":6811:6817   */\n      dup3\n        /* \"#utility.yul\":6800:6809   */\n      dup6\n        /* \"#utility.yul\":6796:6818   */\n      add\n        /* \"#utility.yul\":6775:6828   */\n      tag_86\n      jump\t// in\n    tag_181:\n        /* \"#utility.yul\":6765:6828   */\n      swap2\n      pop\n        /* \"#utility.yul\":6721:6838   */\n      pop\n        /* \"#utility.yul\":6516:6845   */\n      swap3\n      swap2\n      pop\n      pop\n      jump\t// out\n        /* \"#utility.yul\":6851:6977   */\n    tag_91:\n        /* \"#utility.yul\":6888:6895   */\n      0x00\n        /* \"#utility.yul\":6928:6970   */\n      0xffffffffffffffffffffffffffffffffffffffff\n        /* \"#utility.yul\":6921:6926   */\n      dup3\n        /* \"#utility.yul\":6917:6971   */\n      and\n        /* \"#utility.yul\":6906:6971   */\n      swap1\n      pop\n        /* \"#utility.yul\":6851:6977   */\n      swap2\n      swap1\n      pop\n      jump\t// out\n        /* \"#utility.yul\":6983:7079   */\n    tag_92:\n        /* \"#utility.yul\":7020:7027   */\n      0x00\n        /* \"#utility.yul\":7049:7073   */\n      tag_184\n        /* \"#utility.yul\":7067:7072   */\n      dup3\n        /* \"#utility.yul\":7049:7073   */\n      tag_91\n      jump\t// in\n    tag_184:\n        /* \"#utility.yul\":7038:7073   */\n      swap1\n      pop\n        /* \"#utility.yul\":6983:7079   */\n      swap2\n      swap1\n      pop\n      jump\t// out\n        /* \"#utility.yul\":7085:7203   */\n    tag_93:\n        /* \"#utility.yul\":7172:7196   */\n      tag_186\n        /* \"#utility.yul\":7190:7195   */\n      dup2\n        /* \"#utility.yul\":7172:7196   */\n      tag_92\n      jump\t// in\n    tag_186:\n        /* \"#utility.yul\":7167:7170   */\n      dup3\n        /* \"#utility.yul\":7160:7197   */\n      mstore\n        /* \"#utility.yul\":7085:7203   */\n      pop\n      pop\n      jump\t// out\n        /* \"#utility.yul\":7209:7431   */\n    tag_23:\n        /* \"#utility.yul\":7302:7306   */\n      0x00\n        /* \"#utility.yul\":7340:7342   */\n      0x20\n        /* \"#utility.yul\":7329:7338   */\n      dup3\n        /* \"#utility.yul\":7325:7343   */\n      add\n        /* \"#utility.yul\":7317:7343   */\n      swap1\n      pop\n        /* \"#utility.yul\":7353:7424   */\n      tag_188\n        /* \"#utility.yul\":7421:7422   */\n      0x00\n        /* \"#utility.yul\":7410:7419   */\n      dup4\n        /* \"#utility.yul\":7406:7423   */\n      add\n        /* \"#utility.yul\":7397:7403   */\n      dup5\n        /* \"#utility.yul\":7353:7424   */\n      tag_93\n      jump\t// in\n    tag_188:\n        /* \"#utility.yul\":7209:7431   */\n      swap3\n      swap2\n      pop\n      pop\n      jump\t// out\n        /* \"#utility.yul\":7437:7497   */\n    tag_94:\n        /* \"#utility.yul\":7465:7468   */\n      0x00\n        /* \"#utility.yul\":7486:7491   */\n      dup2\n        /* \"#utility.yul\":7479:7491   */\n      swap1\n      pop\n        /* \"#utility.yul\":7437:7497   */\n      swap2\n      swap1\n      pop\n      jump\t// out\n        /* \"#utility.yul\":7503:7645   */\n    tag_95:\n        /* \"#utility.yul\":7553:7562   */\n      0x00\n        /* \"#utility.yul\":7586:7639   */\n      tag_191\n        /* \"#utility.yul\":7604:7638   */\n      tag_192\n        /* \"#utility.yul\":7613:7637   */\n      tag_193\n        /* \"#utility.yul\":7631:7636   */\n      dup5\n        /* \"#utility.yul\":7613:7637   */\n      tag_91\n      jump\t// in\n    tag_193:\n        /* \"#utility.yul\":7604:7638   */\n      tag_94\n      jump\t// in\n    tag_192:\n        /* \"#utility.yul\":7586:7639   */\n      tag_91\n      jump\t// in\n    tag_191:\n        /* \"#utility.yul\":7573:7639   */\n      swap1\n      pop\n        /* \"#utility.yul\":7503:7645   */\n      swap2\n      swap1\n      pop\n      jump\t// out\n        /* \"#utility.yul\":7651:7777   */\n    tag_96:\n        /* \"#utility.yul\":7701:7710   */\n      0x00\n        /* \"#utility.yul\":7734:7771   */\n      tag_195\n        /* \"#utility.yul\":7765:7770   */\n      dup3\n        /* \"#utility.yul\":7734:7771   */\n      tag_95\n      jump\t// in\n    tag_195:\n        /* \"#utility.yul\":7721:7771   */\n      swap1\n      pop\n        /* \"#utility.yul\":7651:7777   */\n      swap2\n      swap1\n      pop\n      jump\t// out\n        /* \"#utility.yul\":7783:7924   */\n    tag_97:\n        /* \"#utility.yul\":7848:7857   */\n      0x00\n        /* \"#utility.yul\":7881:7918   */\n      tag_197\n        /* \"#utility.yul\":7912:7917   */\n      dup3\n        /* \"#utility.yul\":7881:7918   */\n      tag_96\n      jump\t// in\n    tag_197:\n        /* \"#utility.yul\":7868:7918   */\n      swap1\n      pop\n        /* \"#utility.yul\":7783:7924   */\n      swap2\n      swap1\n      pop\n      jump\t// out\n        /* \"#utility.yul\":7930:8091   */\n    tag_98:\n        /* \"#utility.yul\":8032:8084   */\n      tag_199\n        /* \"#utility.yul\":8078:8083   */\n      dup2\n        /* \"#utility.yul\":8032:8084   */\n      tag_97\n      jump\t// in\n    tag_199:\n        /* \"#utility.yul\":8027:8030   */\n      dup3\n        /* \"#utility.yul\":8020:8085   */\n      mstore\n        /* \"#utility.yul\":7930:8091   */\n      pop\n      pop\n      jump\t// out\n        /* \"#utility.yul\":8097:8349   */\n    tag_28:\n        /* \"#utility.yul\":8205:8209   */\n      0x00\n        /* \"#utility.yul\":8243:8245   */\n      0x20\n        /* \"#utility.yul\":8232:8241   */\n      dup3\n        /* \"#utility.yul\":8228:8246   */\n      add\n        /* \"#utility.yul\":8220:8246   */\n      swap1\n      pop\n        /* \"#utility.yul\":8256:8342   */\n      tag_201\n        /* \"#utility.yul\":8339:8340   */\n      0x00\n        /* \"#utility.yul\":8328:8337   */\n      dup4\n        /* \"#utility.yul\":8324:8341   */\n      add\n        /* \"#utility.yul\":8315:8321   */\n      dup5\n        /* \"#utility.yul\":8256:8342   */\n      tag_98\n      jump\t// in\n    tag_201:\n        /* \"#utility.yul\":8097:8349   */\n      swap3\n      swap2\n      pop\n      pop\n      jump\t// out\n        /* \"#utility.yul\":8355:8473   */\n    tag_99:\n        /* \"#utility.yul\":8442:8466   */\n      tag_203\n        /* \"#utility.yul\":8460:8465   */\n      dup2\n        /* \"#utility.yul\":8442:8466   */\n      tag_84\n      jump\t// in\n    tag_203:\n        /* \"#utility.yul\":8437:8440   */\n      dup3\n        /* \"#utility.yul\":8430:8467   */\n      mstore\n        /* \"#utility.yul\":8355:8473   */\n      pop\n      pop\n      jump\t// out\n        /* \"#utility.yul\":8479:10224   */\n    tag_33:\n        /* \"#utility.yul\":8936:8940   */\n      0x00\n        /* \"#utility.yul\":8974:8977   */\n      0x0120\n        /* \"#utility.yul\":8963:8972   */\n      dup3\n        /* \"#utility.yul\":8959:8978   */\n      add\n        /* \"#utility.yul\":8951:8978   */\n      swap1\n      pop\n        /* \"#utility.yul\":9024:9033   */\n      dup2\n        /* \"#utility.yul\":9018:9022   */\n      dup2\n        /* \"#utility.yul\":9014:9034   */\n      sub\n        /* \"#utility.yul\":9010:9011   */\n      0x00\n        /* \"#utility.yul\":8999:9008   */\n      dup4\n        /* \"#utility.yul\":8995:9012   */\n      add\n        /* \"#utility.yul\":8988:9035   */\n      mstore\n        /* \"#utility.yul\":9052:9130   */\n      tag_205\n        /* \"#utility.yul\":9125:9129   */\n      dup2\n        /* \"#utility.yul\":9116:9122   */\n      dup13\n        /* \"#utility.yul\":9052:9130   */\n      tag_90\n      jump\t// in\n    tag_205:\n        /* \"#utility.yul\":9044:9130   */\n      swap1\n      pop\n        /* \"#utility.yul\":9177:9186   */\n      dup2\n        /* \"#utility.yul\":9171:9175   */\n      dup2\n        /* \"#utility.yul\":9167:9187   */\n      sub\n        /* \"#utility.yul\":9162:9164   */\n      0x20\n        /* \"#utility.yul\":9151:9160   */\n      dup4\n        /* \"#utility.yul\":9147:9165   */\n      add\n        /* \"#utility.yul\":9140:9188   */\n      mstore\n        /* \"#utility.yul\":9205:9283   */\n      tag_206\n        /* \"#utility.yul\":9278:9282   */\n      dup2\n        /* \"#utility.yul\":9269:9275   */\n      dup12\n        /* \"#utility.yul\":9205:9283   */\n      tag_90\n      jump\t// in\n    tag_206:\n        /* \"#utility.yul\":9197:9283   */\n      swap1\n      pop\n        /* \"#utility.yul\":9330:9339   */\n      dup2\n        /* \"#utility.yul\":9324:9328   */\n      dup2\n        /* \"#utility.yul\":9320:9340   */\n      sub\n        /* \"#utility.yul\":9315:9317   */\n      0x40\n        /* \"#utility.yul\":9304:9313   */\n      dup4\n        /* \"#utility.yul\":9300:9318   */\n      add\n        /* \"#utility.yul\":9293:9341   */\n      mstore\n        /* \"#utility.yul\":9358:9436   */\n      tag_207\n        /* \"#utility.yul\":9431:9435   */\n      dup2\n        /* \"#utility.yul\":9422:9428   */\n      dup11\n        /* \"#utility.yul\":9358:9436   */\n      tag_90\n      jump\t// in\n    tag_207:\n        /* \"#utility.yul\":9350:9436   */\n      swap1\n      pop\n        /* \"#utility.yul\":9446:9518   */\n      tag_208\n        /* \"#utility.yul\":9514:9516   */\n      0x60\n        /* \"#utility.yul\":9503:9512   */\n      dup4\n        /* \"#utility.yul\":9499:9517   */\n      add\n        /* \"#utility.yul\":9490:9496   */\n      dup10\n        /* \"#utility.yul\":9446:9518   */\n      tag_99\n      jump\t// in\n    tag_208:\n        /* \"#utility.yul\":9566:9575   */\n      dup2\n        /* \"#utility.yul\":9560:9564   */\n      dup2\n        /* \"#utility.yul\":9556:9576   */\n      sub\n        /* \"#utility.yul\":9550:9553   */\n      0x80\n        /* \"#utility.yul\":9539:9548   */\n      dup4\n        /* \"#utility.yul\":9535:9554   */\n      add\n        /* \"#utility.yul\":9528:9577   */\n      mstore\n        /* \"#utility.yul\":9594:9672   */\n      tag_209\n        /* \"#utility.yul\":9667:9671   */\n      dup2\n        /* \"#utility.yul\":9658:9664   */\n      dup9\n        /* \"#utility.yul\":9594:9672   */\n      tag_90\n      jump\t// in\n    tag_209:\n        /* \"#utility.yul\":9586:9672   */\n      swap1\n      pop\n        /* \"#utility.yul\":9720:9729   */\n      dup2\n        /* \"#utility.yul\":9714:9718   */\n      dup2\n        /* \"#utility.yul\":9710:9730   */\n      sub\n        /* \"#utility.yul\":9704:9707   */\n      0xa0\n        /* \"#utility.yul\":9693:9702   */\n      dup4\n        /* \"#utility.yul\":9689:9708   */\n      add\n        /* \"#utility.yul\":9682:9731   */\n      mstore\n        /* \"#utility.yul\":9748:9826   */\n      tag_210\n        /* \"#utility.yul\":9821:9825   */\n      dup2\n        /* \"#utility.yul\":9812:9818   */\n      dup8\n        /* \"#utility.yul\":9748:9826   */\n      tag_90\n      jump\t// in\n    tag_210:\n        /* \"#utility.yul\":9740:9826   */\n      swap1\n      pop\n        /* \"#utility.yul\":9874:9883   */\n      dup2\n        /* \"#utility.yul\":9868:9872   */\n      dup2\n        /* \"#utility.yul\":9864:9884   */\n      sub\n        /* \"#utility.yul\":9858:9861   */\n      0xc0\n        /* \"#utility.yul\":9847:9856   */\n      dup4\n        /* \"#utility.yul\":9843:9862   */\n      add\n        /* \"#utility.yul\":9836:9885   */\n      mstore\n        /* \"#utility.yul\":9902:9980   */\n      tag_211\n        /* \"#utility.yul\":9975:9979   */\n      dup2\n        /* \"#utility.yul\":9966:9972   */\n      dup7\n        /* \"#utility.yul\":9902:9980   */\n      tag_90\n      jump\t// in\n    tag_211:\n        /* \"#utility.yul\":9894:9980   */\n      swap1\n      pop\n        /* \"#utility.yul\":10028:10037   */\n      dup2\n        /* \"#utility.yul\":10022:10026   */\n      dup2\n        /* \"#utility.yul\":10018:10038   */\n      sub\n        /* \"#utility.yul\":10012:10015   */\n      0xe0\n        /* \"#utility.yul\":10001:10010   */\n      dup4\n        /* \"#utility.yul\":9997:10016   */\n      add\n        /* \"#utility.yul\":9990:10039   */\n      mstore\n        /* \"#utility.yul\":10056:10134   */\n      tag_212\n        /* \"#utility.yul\":10129:10133   */\n      dup2\n        /* \"#utility.yul\":10120:10126   */\n      dup6\n        /* \"#utility.yul\":10056:10134   */\n      tag_90\n      jump\t// in\n    tag_212:\n        /* \"#utility.yul\":10048:10134   */\n      swap1\n      pop\n        /* \"#utility.yul\":10144:10217   */\n      tag_213\n        /* \"#utility.yul\":10212:10215   */\n      0x0100\n        /* \"#utility.yul\":10201:10210   */\n      dup4\n        /* \"#utility.yul\":10197:10216   */\n      add\n        /* \"#utility.yul\":10188:10194   */\n      dup5\n        /* \"#utility.yul\":10144:10217   */\n      tag_99\n      jump\t// in\n    tag_213:\n        /* \"#utility.yul\":8479:10224   */\n      swap11\n      swap10\n      pop\n      pop\n      pop\n      pop\n      pop\n      pop\n      pop\n      pop\n      pop\n      pop\n      jump\t// out\n        /* \"#utility.yul\":10230:10744   */\n    tag_38:\n        /* \"#utility.yul\":10391:10395   */\n      0x00\n        /* \"#utility.yul\":10429:10431   */\n      0x40\n        /* \"#utility.yul\":10418:10427   */\n      dup3\n        /* \"#utility.yul\":10414:10432   */\n      add\n        /* \"#utility.yul\":10406:10432   */\n      swap1\n      pop\n        /* \"#utility.yul\":10478:10487   */\n      dup2\n        /* \"#utility.yul\":10472:10476   */\n      dup2\n        /* \"#utility.yul\":10468:10488   */\n      sub\n        /* \"#utility.yul\":10464:10465   */\n      0x00\n        /* \"#utility.yul\":10453:10462   */\n      dup4\n        /* \"#utility.yul\":10449:10466   */\n      add\n        /* \"#utility.yul\":10442:10489   */\n      mstore\n        /* \"#utility.yul\":10506:10584   */\n      tag_215\n        /* \"#utility.yul\":10579:10583   */\n      dup2\n        /* \"#utility.yul\":10570:10576   */\n      dup6\n        /* \"#utility.yul\":10506:10584   */\n      tag_90\n      jump\t// in\n    tag_215:\n        /* \"#utility.yul\":10498:10584   */\n      swap1\n      pop\n        /* \"#utility.yul\":10631:10640   */\n      dup2\n        /* \"#utility.yul\":10625:10629   */\n      dup2\n        /* \"#utility.yul\":10621:10641   */\n      sub\n        /* \"#utility.yul\":10616:10618   */\n      0x20\n        /* \"#utility.yul\":10605:10614   */\n      dup4\n        /* \"#utility.yul\":10601:10619   */\n      add\n        /* \"#utility.yul\":10594:10642   */\n      mstore\n        /* \"#utility.yul\":10659:10737   */\n      tag_216\n        /* \"#utility.yul\":10732:10736   */\n      dup2\n        /* \"#utility.yul\":10723:10729   */\n      dup5\n        /* \"#utility.yul\":10659:10737   */\n      tag_90\n      jump\t// in\n    tag_216:\n        /* \"#utility.yul\":10651:10737   */\n      swap1\n      pop\n        /* \"#utility.yul\":10230:10744   */\n      swap4\n      swap3\n      pop\n      pop\n      pop\n      jump\t// out\n        /* \"#utility.yul\":10750:11576   */\n    tag_41:\n        /* \"#utility.yul\":10987:10991   */\n      0x00\n        /* \"#utility.yul\":11025:11028   */\n      0x80\n        /* \"#utility.yul\":11014:11023   */\n      dup3\n        /* \"#utility.yul\":11010:11029   */\n      add\n        /* \"#utility.yul\":11002:11029   */\n      swap1\n      pop\n        /* \"#utility.yul\":11075:11084   */\n      dup2\n        /* \"#utility.yul\":11069:11073   */\n      dup2\n        /* \"#utility.yul\":11065:11085   */\n      sub\n        /* \"#utility.yul\":11061:11062   */\n      0x00\n        /* \"#utility.yul\":11050:11059   */\n      dup4\n        /* \"#utility.yul\":11046:11063   */\n      add\n        /* \"#utility.yul\":11039:11086   */\n      mstore\n        /* \"#utility.yul\":11103:11181   */\n      tag_218\n        /* \"#utility.yul\":11176:11180   */\n      dup2\n        /* \"#utility.yul\":11167:11173   */\n      dup8\n        /* \"#utility.yul\":11103:11181   */\n      tag_90\n      jump\t// in\n    tag_218:\n        /* \"#utility.yul\":11095:11181   */\n      swap1\n      pop\n        /* \"#utility.yul\":11228:11237   */\n      dup2\n        /* \"#utility.yul\":11222:11226   */\n      dup2\n        /* \"#utility.yul\":11218:11238   */\n      sub\n        /* \"#utility.yul\":11213:11215   */\n      0x20\n        /* \"#utility.yul\":11202:11211   */\n      dup4\n        /* \"#utility.yul\":11198:11216   */\n      add\n        /* \"#utility.yul\":11191:11239   */\n      mstore\n        /* \"#utility.yul\":11256:11334   */\n      tag_219\n        /* \"#utility.yul\":11329:11333   */\n      dup2\n        /* \"#utility.yul\":11320:11326   */\n      dup7\n        /* \"#utility.yul\":11256:11334   */\n      tag_90\n      jump\t// in\n    tag_219:\n        /* \"#utility.yul\":11248:11334   */\n      swap1\n      pop\n        /* \"#utility.yul\":11381:11390   */\n      dup2\n        /* \"#utility.yul\":11375:11379   */\n      dup2\n        /* \"#utility.yul\":11371:11391   */\n      sub\n        /* \"#utility.yul\":11366:11368   */\n      0x40\n        /* \"#utility.yul\":11355:11364   */\n      dup4\n        /* \"#utility.yul\":11351:11369   */\n      add\n        /* \"#utility.yul\":11344:11392   */\n      mstore\n        /* \"#utility.yul\":11409:11487   */\n      tag_220\n        /* \"#utility.yul\":11482:11486   */\n      dup2\n        /* \"#utility.yul\":11473:11479   */\n      dup6\n        /* \"#utility.yul\":11409:11487   */\n      tag_90\n      jump\t// in\n    tag_220:\n        /* \"#utility.yul\":11401:11487   */\n      swap1\n      pop\n        /* \"#utility.yul\":11497:11569   */\n      tag_221\n        /* \"#utility.yul\":11565:11567   */\n      0x60\n        /* \"#utility.yul\":11554:11563   */\n      dup4\n        /* \"#utility.yul\":11550:11568   */\n      add\n        /* \"#utility.yul\":11541:11547   */\n      dup5\n        /* \"#utility.yul\":11497:11569   */\n      tag_99\n      jump\t// in\n    tag_221:\n        /* \"#utility.yul\":10750:11576   */\n      swap6\n      swap5\n      pop\n      pop\n      pop\n      pop\n      pop\n      jump\t// out\n        /* \"#utility.yul\":11582:11730   */\n    tag_100:\n        /* \"#utility.yul\":11684:11695   */\n      0x00\n        /* \"#utility.yul\":11721:11724   */\n      dup2\n        /* \"#utility.yul\":11706:11724   */\n      swap1\n      pop\n        /* \"#utility.yul\":11582:11730   */\n      swap3\n      swap2\n      pop\n      pop\n      jump\t// out\n        /* \"#utility.yul\":11736:12126   */\n    tag_101:\n        /* \"#utility.yul\":11842:11845   */\n      0x00\n        /* \"#utility.yul\":11870:11909   */\n      tag_224\n        /* \"#utility.yul\":11903:11908   */\n      dup3\n        /* \"#utility.yul\":11870:11909   */\n      tag_87\n      jump\t// in\n    tag_224:\n        /* \"#utility.yul\":11925:12014   */\n      tag_225\n        /* \"#utility.yul\":12007:12013   */\n      dup2\n        /* \"#utility.yul\":12002:12005   */\n      dup6\n        /* \"#utility.yul\":11925:12014   */\n      tag_100\n      jump\t// in\n    tag_225:\n        /* \"#utility.yul\":11918:12014   */\n      swap4\n      pop\n        /* \"#utility.yul\":12023:12088   */\n      tag_226\n        /* \"#utility.yul\":12081:12087   */\n      dup2\n        /* \"#utility.yul\":12076:12079   */\n      dup6\n        /* \"#utility.yul\":12069:12073   */\n      0x20\n        /* \"#utility.yul\":12062:12067   */\n      dup7\n        /* \"#utility.yul\":12058:12074   */\n      add\n        /* \"#utility.yul\":12023:12088   */\n      tag_89\n      jump\t// in\n    tag_226:\n        /* \"#utility.yul\":12113:12119   */\n      dup1\n        /* \"#utility.yul\":12108:12111   */\n      dup5\n        /* \"#utility.yul\":12104:12120   */\n      add\n        /* \"#utility.yul\":12097:12120   */\n      swap2\n      pop\n        /* \"#utility.yul\":11846:12126   */\n      pop\n        /* \"#utility.yul\":11736:12126   */\n      swap3\n      swap2\n      pop\n      pop\n      jump\t// out\n        /* \"#utility.yul\":12132:12407   */\n    tag_46:\n        /* \"#utility.yul\":12264:12267   */\n      0x00\n        /* \"#utility.yul\":12286:12381   */\n      tag_228\n        /* \"#utility.yul\":12377:12380   */\n      dup3\n        /* \"#utility.yul\":12368:12374   */\n      dup5\n        /* \"#utility.yul\":12286:12381   */\n      tag_101\n      jump\t// in\n    tag_228:\n        /* \"#utility.yul\":12279:12381   */\n      swap2\n      pop\n        /* \"#utility.yul\":12398:12401   */\n      dup2\n        /* \"#utility.yul\":12391:12401   */\n      swap1\n      pop\n        /* \"#utility.yul\":12132:12407   */\n      swap3\n      swap2\n      pop\n      pop\n      jump\t// out\n        /* \"#utility.yul\":12413:12581   */\n    tag_102:\n        /* \"#utility.yul\":12553:12573   */\n      0x53747564656e74206e6f7420666f756e642e0000000000000000000000000000\n        /* \"#utility.yul\":12549:12550   */\n      0x00\n        /* \"#utility.yul\":12541:12547   */\n      dup3\n        /* \"#utility.yul\":12537:12551   */\n      add\n        /* \"#utility.yul\":12530:12574   */\n      mstore\n        /* \"#utility.yul\":12413:12581   */\n      pop\n      jump\t// out\n        /* \"#utility.yul\":12587:12953   */\n    tag_103:\n        /* \"#utility.yul\":12729:12732   */\n      0x00\n        /* \"#utility.yul\":12750:12817   */\n      tag_231\n        /* \"#utility.yul\":12814:12816   */\n      0x12\n        /* \"#utility.yul\":12809:12812   */\n      dup4\n        /* \"#utility.yul\":12750:12817   */\n      tag_88\n      jump\t// in\n    tag_231:\n        /* \"#utility.yul\":12743:12817   */\n      swap2\n      pop\n        /* \"#utility.yul\":12826:12919   */\n      tag_232\n        /* \"#utility.yul\":12915:12918   */\n      dup3\n        /* \"#utility.yul\":12826:12919   */\n      tag_102\n      jump\t// in\n    tag_232:\n        /* \"#utility.yul\":12944:12946   */\n      0x20\n        /* \"#utility.yul\":12939:12942   */\n      dup3\n        /* \"#utility.yul\":12935:12947   */\n      add\n        /* \"#utility.yul\":12928:12947   */\n      swap1\n      pop\n        /* \"#utility.yul\":12587:12953   */\n      swap2\n      swap1\n      pop\n      jump\t// out\n        /* \"#utility.yul\":12959:13378   */\n    tag_52:\n        /* \"#utility.yul\":13125:13129   */\n      0x00\n        /* \"#utility.yul\":13163:13165   */\n      0x20\n        /* \"#utility.yul\":13152:13161   */\n      dup3\n        /* \"#utility.yul\":13148:13166   */\n      add\n        /* \"#utility.yul\":13140:13166   */\n      swap1\n      pop\n        /* \"#utility.yul\":13212:13221   */\n      dup2\n        /* \"#utility.yul\":13206:13210   */\n      dup2\n        /* \"#utility.yul\":13202:13222   */\n      sub\n        /* \"#utility.yul\":13198:13199   */\n      0x00\n        /* \"#utility.yul\":13187:13196   */\n      dup4\n        /* \"#utility.yul\":13183:13200   */\n      add\n        /* \"#utility.yul\":13176:13223   */\n      mstore\n        /* \"#utility.yul\":13240:13371   */\n      tag_234\n        /* \"#utility.yul\":13366:13370   */\n      dup2\n        /* \"#utility.yul\":13240:13371   */\n      tag_103\n      jump\t// in\n    tag_234:\n        /* \"#utility.yul\":13232:13371   */\n      swap1\n      pop\n        /* \"#utility.yul\":12959:13378   */\n      swap2\n      swap1\n      pop\n      jump\t// out\n        /* \"#utility.yul\":13384:13818   */\n    tag_104:\n        /* \"#utility.yul\":13473:13478   */\n      0x00\n        /* \"#utility.yul\":13498:13564   */\n      tag_236\n        /* \"#utility.yul\":13514:13563   */\n      tag_237\n        /* \"#utility.yul\":13556:13562   */\n      dup5\n        /* \"#utility.yul\":13514:13563   */\n      tag_80\n      jump\t// in\n    tag_237:\n        /* \"#utility.yul\":13498:13564   */\n      tag_79\n      jump\t// in\n    tag_236:\n        /* \"#utility.yul\":13489:13564   */\n      swap1\n      pop\n        /* \"#utility.yul\":13587:13593   */\n      dup3\n        /* \"#utility.yul\":13580:13585   */\n      dup2\n        /* \"#utility.yul\":13573:13594   */\n      mstore\n        /* \"#utility.yul\":13625:13629   */\n      0x20\n        /* \"#utility.yul\":13618:13623   */\n      dup2\n        /* \"#utility.yul\":13614:13630   */\n      add\n        /* \"#utility.yul\":13663:13666   */\n      dup5\n        /* \"#utility.yul\":13654:13660   */\n      dup5\n        /* \"#utility.yul\":13649:13652   */\n      dup5\n        /* \"#utility.yul\":13645:13661   */\n      add\n        /* \"#utility.yul\":13642:13667   */\n      gt\n        /* \"#utility.yul\":13639:13751   */\n      iszero\n      tag_238\n      jumpi\n        /* \"#utility.yul\":13670:13749   */\n      tag_239\n      tag_75\n      jump\t// in\n    tag_239:\n        /* \"#utility.yul\":13639:13751   */\n    tag_238:\n        /* \"#utility.yul\":13760:13812   */\n      tag_240\n        /* \"#utility.yul\":13805:13811   */\n      dup5\n        /* \"#utility.yul\":13800:13803   */\n      dup3\n        /* \"#utility.yul\":13795:13798   */\n      dup6\n        /* \"#utility.yul\":13760:13812   */\n      tag_89\n      jump\t// in\n    tag_240:\n        /* \"#utility.yul\":13479:13818   */\n      pop\n        /* \"#utility.yul\":13384:13818   */\n      swap4\n      swap3\n      pop\n      pop\n      pop\n      jump\t// out\n        /* \"#utility.yul\":13838:14193   */\n    tag_105:\n        /* \"#utility.yul\":13905:13910   */\n      0x00\n        /* \"#utility.yul\":13954:13957   */\n      dup3\n        /* \"#utility.yul\":13947:13951   */\n      0x1f\n        /* \"#utility.yul\":13939:13945   */\n      dup4\n        /* \"#utility.yul\":13935:13952   */\n      add\n        /* \"#utility.yul\":13931:13958   */\n      slt\n        /* \"#utility.yul\":13921:14043   */\n      tag_242\n      jumpi\n        /* \"#utility.yul\":13962:14041   */\n      tag_243\n      tag_74\n      jump\t// in\n    tag_243:\n        /* \"#utility.yul\":13921:14043   */\n    tag_242:\n        /* \"#utility.yul\":14072:14078   */\n      dup2\n        /* \"#utility.yul\":14066:14079   */\n      mload\n        /* \"#utility.yul\":14097:14187   */\n      tag_244\n        /* \"#utility.yul\":14183:14186   */\n      dup5\n        /* \"#utility.yul\":14175:14181   */\n      dup3\n        /* \"#utility.yul\":14168:14172   */\n      0x20\n        /* \"#utility.yul\":14160:14166   */\n      dup7\n        /* \"#utility.yul\":14156:14173   */\n      add\n        /* \"#utility.yul\":14097:14187   */\n      tag_104\n      jump\t// in\n    tag_244:\n        /* \"#utility.yul\":14088:14187   */\n      swap2\n      pop\n        /* \"#utility.yul\":13911:14193   */\n      pop\n        /* \"#utility.yul\":13838:14193   */\n      swap3\n      swap2\n      pop\n      pop\n      jump\t// out\n        /* \"#utility.yul\":14199:14342   */\n    tag_106:\n        /* \"#utility.yul\":14256:14261   */\n      0x00\n        /* \"#utility.yul\":14287:14293   */\n      dup2\n        /* \"#utility.yul\":14281:14294   */\n      mload\n        /* \"#utility.yul\":14272:14294   */\n      swap1\n      pop\n        /* \"#utility.yul\":14303:14336   */\n      tag_246\n        /* \"#utility.yul\":14330:14335   */\n      dup2\n        /* \"#utility.yul\":14303:14336   */\n      tag_85\n      jump\t// in\n    tag_246:\n        /* \"#utility.yul\":14199:14342   */\n      swap3\n      swap2\n      pop\n      pop\n      jump\t// out\n        /* \"#utility.yul\":14348:15687   */\n    tag_62:\n        /* \"#utility.yul\":14475:14481   */\n      0x00\n        /* \"#utility.yul\":14483:14489   */\n      dup1\n        /* \"#utility.yul\":14491:14497   */\n      0x00\n        /* \"#utility.yul\":14499:14505   */\n      dup1\n        /* \"#utility.yul\":14548:14551   */\n      0x80\n        /* \"#utility.yul\":14536:14545   */\n      dup6\n        /* \"#utility.yul\":14527:14534   */\n      dup8\n        /* \"#utility.yul\":14523:14546   */\n      sub\n        /* \"#utility.yul\":14519:14552   */\n      slt\n        /* \"#utility.yul\":14516:14636   */\n      iszero\n      tag_248\n      jumpi\n        /* \"#utility.yul\":14555:14634   */\n      tag_249\n      tag_72\n      jump\t// in\n    tag_249:\n        /* \"#utility.yul\":14516:14636   */\n    tag_248:\n        /* \"#utility.yul\":14696:14697   */\n      0x00\n        /* \"#utility.yul\":14685:14694   */\n      dup6\n        /* \"#utility.yul\":14681:14698   */\n      add\n        /* \"#utility.yul\":14675:14699   */\n      mload\n        /* \"#utility.yul\":14726:14744   */\n      0xffffffffffffffff\n        /* \"#utility.yul\":14718:14724   */\n      dup2\n        /* \"#utility.yul\":14715:14745   */\n      gt\n        /* \"#utility.yul\":14712:14829   */\n      iszero\n      tag_250\n      jumpi\n        /* \"#utility.yul\":14748:14827   */\n      tag_251\n      tag_73\n      jump\t// in\n    tag_251:\n        /* \"#utility.yul\":14712:14829   */\n    tag_250:\n        /* \"#utility.yul\":14853:14927   */\n      tag_252\n        /* \"#utility.yul\":14919:14926   */\n      dup8\n        /* \"#utility.yul\":14910:14916   */\n      dup3\n        /* \"#utility.yul\":14899:14908   */\n      dup9\n        /* \"#utility.yul\":14895:14917   */\n      add\n        /* \"#utility.yul\":14853:14927   */\n      tag_105\n      jump\t// in\n    tag_252:\n        /* \"#utility.yul\":14843:14927   */\n      swap5\n      pop\n        /* \"#utility.yul\":14646:14937   */\n      pop\n        /* \"#utility.yul\":14997:14999   */\n      0x20\n        /* \"#utility.yul\":14986:14995   */\n      dup6\n        /* \"#utility.yul\":14982:15000   */\n      add\n        /* \"#utility.yul\":14976:15001   */\n      mload\n        /* \"#utility.yul\":15028:15046   */\n      0xffffffffffffffff\n        /* \"#utility.yul\":15020:15026   */\n      dup2\n        /* \"#utility.yul\":15017:15047   */\n      gt\n        /* \"#utility.yul\":15014:15131   */\n      iszero\n      tag_253\n      jumpi\n        /* \"#utility.yul\":15050:15129   */\n      tag_254\n      tag_73\n      jump\t// in\n    tag_254:\n        /* \"#utility.yul\":15014:15131   */\n    tag_253:\n        /* \"#utility.yul\":15155:15229   */\n      tag_255\n        /* \"#utility.yul\":15221:15228   */\n      dup8\n        /* \"#utility.yul\":15212:15218   */\n      dup3\n        /* \"#utility.yul\":15201:15210   */\n      dup9\n        /* \"#utility.yul\":15197:15219   */\n      add\n        /* \"#utility.yul\":15155:15229   */\n      tag_105\n      jump\t// in\n    tag_255:\n        /* \"#utility.yul\":15145:15229   */\n      swap4\n      pop\n        /* \"#utility.yul\":14947:15239   */\n      pop\n        /* \"#utility.yul\":15299:15301   */\n      0x40\n        /* \"#utility.yul\":15288:15297   */\n      dup6\n        /* \"#utility.yul\":15284:15302   */\n      add\n        /* \"#utility.yul\":15278:15303   */\n      mload\n        /* \"#utility.yul\":15330:15348   */\n      0xffffffffffffffff\n        /* \"#utility.yul\":15322:15328   */\n      dup2\n        /* \"#utility.yul\":15319:15349   */\n      gt\n        /* \"#utility.yul\":15316:15433   */\n      iszero\n      tag_256\n      jumpi\n        /* \"#utility.yul\":15352:15431   */\n      tag_257\n      tag_73\n      jump\t// in\n    tag_257:\n        /* \"#utility.yul\":15316:15433   */\n    tag_256:\n        /* \"#utility.yul\":15457:15531   */\n      tag_258\n        /* \"#utility.yul\":15523:15530   */\n      dup8\n        /* \"#utility.yul\":15514:15520   */\n      dup3\n        /* \"#utility.yul\":15503:15512   */\n      dup9\n        /* \"#utility.yul\":15499:15521   */\n      add\n        /* \"#utility.yul\":15457:15531   */\n      tag_105\n      jump\t// in\n    tag_258:\n        /* \"#utility.yul\":15447:15531   */\n      swap3\n      pop\n        /* \"#utility.yul\":15249:15541   */\n      pop\n        /* \"#utility.yul\":15580:15582   */\n      0x60\n        /* \"#utility.yul\":15606:15670   */\n      tag_259\n        /* \"#utility.yul\":15662:15669   */\n      dup8\n        /* \"#utility.yul\":15653:15659   */\n      dup3\n        /* \"#utility.yul\":15642:15651   */\n      dup9\n        /* \"#utility.yul\":15638:15660   */\n      add\n        /* \"#utility.yul\":15606:15670   */\n      tag_106\n      jump\t// in\n    tag_259:\n        /* \"#utility.yul\":15596:15670   */\n      swap2\n      pop\n        /* \"#utility.yul\":15551:15680   */\n      pop\n        /* \"#utility.yul\":14348:15687   */\n      swap3\n      swap6\n      swap2\n      swap5\n      pop\n      swap3\n      pop\n      jump\t// out\n        /* \"#utility.yul\":15693:16546   */\n    tag_66:\n        /* \"#utility.yul\":15792:15798   */\n      0x00\n        /* \"#utility.yul\":15800:15806   */\n      dup1\n        /* \"#utility.yul\":15849:15851   */\n      0x40\n        /* \"#utility.yul\":15837:15846   */\n      dup4\n        /* \"#utility.yul\":15828:15835   */\n      dup6\n        /* \"#utility.yul\":15824:15847   */\n      sub\n        /* \"#utility.yul\":15820:15852   */\n      slt\n        /* \"#utility.yul\":15817:15936   */\n      iszero\n      tag_261\n      jumpi\n        /* \"#utility.yul\":15855:15934   */\n      tag_262\n      tag_72\n      jump\t// in\n    tag_262:\n        /* \"#utility.yul\":15817:15936   */\n    tag_261:\n        /* \"#utility.yul\":15996:15997   */\n      0x00\n        /* \"#utility.yul\":15985:15994   */\n      dup4\n        /* \"#utility.yul\":15981:15998   */\n      add\n        /* \"#utility.yul\":15975:15999   */\n      mload\n        /* \"#utility.yul\":16026:16044   */\n      0xffffffffffffffff\n        /* \"#utility.yul\":16018:16024   */\n      dup2\n        /* \"#utility.yul\":16015:16045   */\n      gt\n        /* \"#utility.yul\":16012:16129   */\n      iszero\n      tag_263\n      jumpi\n        /* \"#utility.yul\":16048:16127   */\n      tag_264\n      tag_73\n      jump\t// in\n    tag_264:\n        /* \"#utility.yul\":16012:16129   */\n    tag_263:\n        /* \"#utility.yul\":16153:16227   */\n      tag_265\n        /* \"#utility.yul\":16219:16226   */\n      dup6\n        /* \"#utility.yul\":16210:16216   */\n      dup3\n        /* \"#utility.yul\":16199:16208   */\n      dup7\n        /* \"#utility.yul\":16195:16217   */\n      add\n        /* \"#utility.yul\":16153:16227   */\n      tag_105\n      jump\t// in\n    tag_265:\n        /* \"#utility.yul\":16143:16227   */\n      swap3\n      pop\n        /* \"#utility.yul\":15946:16237   */\n      pop\n        /* \"#utility.yul\":16297:16299   */\n      0x20\n        /* \"#utility.yul\":16286:16295   */\n      dup4\n        /* \"#utility.yul\":16282:16300   */\n      add\n        /* \"#utility.yul\":16276:16301   */\n      mload\n        /* \"#utility.yul\":16328:16346   */\n      0xffffffffffffffff\n        /* \"#utility.yul\":16320:16326   */\n      dup2\n        /* \"#utility.yul\":16317:16347   */\n      gt\n        /* \"#utility.yul\":16314:16431   */\n      iszero\n      tag_266\n      jumpi\n        /* \"#utility.yul\":16350:16429   */\n      tag_267\n      tag_73\n      jump\t// in\n    tag_267:\n        /* \"#utility.yul\":16314:16431   */\n    tag_266:\n        /* \"#utility.yul\":16455:16529   */\n      tag_268\n        /* \"#utility.yul\":16521:16528   */\n      dup6\n        /* \"#utility.yul\":16512:16518   */\n      dup3\n        /* \"#utility.yul\":16501:16510   */\n      dup7\n        /* \"#utility.yul\":16497:16519   */\n      add\n        /* \"#utility.yul\":16455:16529   */\n      tag_105\n      jump\t// in\n    tag_268:\n        /* \"#utility.yul\":16445:16529   */\n      swap2\n      pop\n        /* \"#utility.yul\":16247:16539   */\n      pop\n        /* \"#utility.yul\":15693:16546   */\n      swap3\n      pop\n      swap3\n      swap1\n      pop\n      jump\t// out\n        /* \"#utility.yul\":16552:17561   */\n    tag_70:\n        /* \"#utility.yul\":16660:16666   */\n      0x00\n        /* \"#utility.yul\":16668:16674   */\n      dup1\n        /* \"#utility.yul\":16676:16682   */\n      0x00\n        /* \"#utility.yul\":16725:16727   */\n      0x60\n        /* \"#utility.yul\":16713:16722   */\n      dup5\n        /* \"#utility.yul\":16704:16711   */\n      dup7\n        /* \"#utility.yul\":16700:16723   */\n      sub\n        /* \"#utility.yul\":16696:16728   */\n      slt\n        /* \"#utility.yul\":16693:16812   */\n      iszero\n      tag_270\n      jumpi\n        /* \"#utility.yul\":16731:16810   */\n      tag_271\n      tag_72\n      jump\t// in\n    tag_271:\n        /* \"#utility.yul\":16693:16812   */\n    tag_270:\n        /* \"#utility.yul\":16872:16873   */\n      0x00\n        /* \"#utility.yul\":16861:16870   */\n      dup5\n        /* \"#utility.yul\":16857:16874   */\n      add\n        /* \"#utility.yul\":16851:16875   */\n      mload\n        /* \"#utility.yul\":16902:16920   */\n      0xffffffffffffffff\n        /* \"#utility.yul\":16894:16900   */\n      dup2\n        /* \"#utility.yul\":16891:16921   */\n      gt\n        /* \"#utility.yul\":16888:17005   */\n      iszero\n      tag_272\n      jumpi\n        /* \"#utility.yul\":16924:17003   */\n      tag_273\n      tag_73\n      jump\t// in\n    tag_273:\n        /* \"#utility.yul\":16888:17005   */\n    tag_272:\n        /* \"#utility.yul\":17029:17103   */\n      tag_274\n        /* \"#utility.yul\":17095:17102   */\n      dup7\n        /* \"#utility.yul\":17086:17092   */\n      dup3\n        /* \"#utility.yul\":17075:17084   */\n      dup8\n        /* \"#utility.yul\":17071:17093   */\n      add\n        /* \"#utility.yul\":17029:17103   */\n      tag_105\n      jump\t// in\n    tag_274:\n        /* \"#utility.yul\":17019:17103   */\n      swap4\n      pop\n        /* \"#utility.yul\":16822:17113   */\n      pop\n        /* \"#utility.yul\":17173:17175   */\n      0x20\n        /* \"#utility.yul\":17162:17171   */\n      dup5\n        /* \"#utility.yul\":17158:17176   */\n      add\n        /* \"#utility.yul\":17152:17177   */\n      mload\n        /* \"#utility.yul\":17204:17222   */\n      0xffffffffffffffff\n        /* \"#utility.yul\":17196:17202   */\n      dup2\n        /* \"#utility.yul\":17193:17223   */\n      gt\n        /* \"#utility.yul\":17190:17307   */\n      iszero\n      tag_275\n      jumpi\n        /* \"#utility.yul\":17226:17305   */\n      tag_276\n      tag_73\n      jump\t// in\n    tag_276:\n        /* \"#utility.yul\":17190:17307   */\n    tag_275:\n        /* \"#utility.yul\":17331:17405   */\n      tag_277\n        /* \"#utility.yul\":17397:17404   */\n      dup7\n        /* \"#utility.yul\":17388:17394   */\n      dup3\n        /* \"#utility.yul\":17377:17386   */\n      dup8\n        /* \"#utility.yul\":17373:17395   */\n      add\n        /* \"#utility.yul\":17331:17405   */\n      tag_105\n      jump\t// in\n    tag_277:\n        /* \"#utility.yul\":17321:17405   */\n      swap3\n      pop\n        /* \"#utility.yul\":17123:17415   */\n      pop\n        /* \"#utility.yul\":17454:17456   */\n      0x40\n        /* \"#utility.yul\":17480:17544   */\n      tag_278\n        /* \"#utility.yul\":17536:17543   */\n      dup7\n        /* \"#utility.yul\":17527:17533   */\n      dup3\n        /* \"#utility.yul\":17516:17525   */\n      dup8\n        /* \"#utility.yul\":17512:17534   */\n      add\n        /* \"#utility.yul\":17480:17544   */\n      tag_106\n      jump\t// in\n    tag_278:\n        /* \"#utility.yul\":17470:17544   */\n      swap2\n      pop\n        /* \"#utility.yul\":17425:17554   */\n      pop\n        /* \"#utility.yul\":16552:17561   */\n      swap3\n      pop\n      swap3\n      pop\n      swap3\n      jump\t// out\n    stop\n    data_ae6600477bca47094ad61cc9fc5e2ce09cc3b1948cd8ed1ab1e566d746825f88 4d6967726174696f6e2070726f6365737320696e6974696174656420666f722073747564656e74207769746820526567697374726174696f6e204e756d6265723a20\n\n    sub_0: assembly {\n            /* \"contracts/lastday/p1.sol\":1081:2370  contract Student is Department, Hostel {... */\n          mstore(0x40, 0x80)\n            /* \"contracts/lastday/p1.sol\":329:374  string public hostelName = \"Deepak ka hostel\" */\n          mload(0x40)\n          dup1\n          0x40\n          add\n          0x40\n          mstore\n          dup1\n          0x10\n          dup2\n          mstore\n          0x20\n          add\n          0x44656570616b206b6120686f7374656c00000000000000000000000000000000\n          dup2\n          mstore\n          pop\n          0x00\n          swap1\n          dup2\n          tag_1\n          swap2\n          swap1\n          tag_2\n          jump\t// in\n        tag_1:\n          pop\n            /* \"contracts/lastday/p1.sol\":403:441  string public hostelLocation = \"Patna\" */\n          mload(0x40)\n          dup1\n          0x40\n          add\n          0x40\n          mstore\n          dup1\n          0x05\n          dup2\n          mstore\n          0x20\n          add\n          0x5061746e61000000000000000000000000000000000000000000000000000000\n          dup2\n          mstore\n          pop\n          0x01\n          swap1\n          dup2\n          tag_3\n          swap2\n          swap1\n          tag_2\n          jump\t// in\n        tag_3:\n          pop\n            /* \"contracts/lastday/p1.sol\":503:506  100 */\n          0x64\n            /* \"contracts/lastday/p1.sol\":475:506  uint public numberOfRooms = 100 */\n          0x02\n          sstore\n            /* \"contracts/lastday/p1.sol\":1368:1538  constructor(string memory _deptName, string memory _deptHead) {... */\n          callvalue\n          dup1\n          iszero\n          tag_4\n          jumpi\n          0x00\n          dup1\n          revert\n        tag_4:\n          pop\n          mload(0x40)\n          sub(codesize, bytecodeSize)\n          dup1\n          bytecodeSize\n          dup4\n          codecopy\n          dup2\n          dup2\n          add\n          0x40\n          mstore\n          dup2\n          add\n          swap1\n          tag_5\n          swap2\n          swap1\n          tag_6\n          jump\t// in\n        tag_5:\n            /* \"contracts/lastday/p1.sol\":1452:1461  _deptName */\n          dup2\n            /* \"contracts/lastday/p1.sol\":1441:1449  deptName */\n          0x03\n            /* \"contracts/lastday/p1.sol\":1441:1461  deptName = _deptName */\n          swap1\n          dup2\n          tag_9\n          swap2\n          swap1\n          tag_2\n          jump\t// in\n        tag_9:\n          pop\n            /* \"contracts/lastday/p1.sol\":1502:1511  _deptHead */\n          dup1\n            /* \"contracts/lastday/p1.sol\":1491:1499  deptHead */\n          0x04\n            /* \"contracts/lastday/p1.sol\":1491:1511  deptHead = _deptHead */\n          swap1\n          dup2\n          tag_10\n          swap2\n          swap1\n          tag_2\n          jump\t// in\n        tag_10:\n          pop\n            /* \"contracts/lastday/p1.sol\":1368:1538  constructor(string memory _deptName, string memory _deptHead) {... */\n          pop\n          pop\n            /* \"contracts/lastday/p1.sol\":1081:2370  contract Student is Department, Hostel {... */\n          jump(tag_11)\n            /* \"#utility.yul\":7:106   */\n        tag_12:\n            /* \"#utility.yul\":59:65   */\n          0x00\n            /* \"#utility.yul\":93:98   */\n          dup2\n            /* \"#utility.yul\":87:99   */\n          mload\n            /* \"#utility.yul\":77:99   */\n          swap1\n          pop\n            /* \"#utility.yul\":7:106   */\n          swap2\n          swap1\n          pop\n          jump\t// out\n            /* \"#utility.yul\":112:292   */\n        tag_13:\n            /* \"#utility.yul\":160:237   */\n          0x4e487b7100000000000000000000000000000000000000000000000000000000\n            /* \"#utility.yul\":157:158   */\n          0x00\n            /* \"#utility.yul\":150:238   */\n          mstore\n            /* \"#utility.yul\":257:261   */\n          0x41\n            /* \"#utility.yul\":254:255   */\n          0x04\n            /* \"#utility.yul\":247:262   */\n          mstore\n            /* \"#utility.yul\":281:285   */\n          0x24\n            /* \"#utility.yul\":278:279   */\n          0x00\n            /* \"#utility.yul\":271:286   */\n          revert\n            /* \"#utility.yul\":298:478   */\n        tag_14:\n            /* \"#utility.yul\":346:423   */\n          0x4e487b7100000000000000000000000000000000000000000000000000000000\n            /* \"#utility.yul\":343:344   */\n          0x00\n            /* \"#utility.yul\":336:424   */\n          mstore\n            /* \"#utility.yul\":443:447   */\n          0x22\n            /* \"#utility.yul\":440:441   */\n          0x04\n            /* \"#utility.yul\":433:448   */\n          mstore\n            /* \"#utility.yul\":467:471   */\n          0x24\n            /* \"#utility.yul\":464:465   */\n          0x00\n            /* \"#utility.yul\":457:472   */\n          revert\n            /* \"#utility.yul\":484:804   */\n        tag_15:\n            /* \"#utility.yul\":528:534   */\n          0x00\n            /* \"#utility.yul\":565:566   */\n          0x02\n            /* \"#utility.yul\":559:563   */\n          dup3\n            /* \"#utility.yul\":555:567   */\n          div\n            /* \"#utility.yul\":545:567   */\n          swap1\n          pop\n            /* \"#utility.yul\":612:613   */\n          0x01\n            /* \"#utility.yul\":606:610   */\n          dup3\n            /* \"#utility.yul\":602:614   */\n          and\n            /* \"#utility.yul\":633:651   */\n          dup1\n            /* \"#utility.yul\":623:704   */\n          tag_49\n          jumpi\n            /* \"#utility.yul\":689:693   */\n          0x7f\n            /* \"#utility.yul\":681:687   */\n          dup3\n            /* \"#utility.yul\":677:694   */\n          and\n            /* \"#utility.yul\":667:694   */\n          swap2\n          pop\n            /* \"#utility.yul\":623:704   */\n        tag_49:\n            /* \"#utility.yul\":751:753   */\n          0x20\n            /* \"#utility.yul\":743:749   */\n          dup3\n            /* \"#utility.yul\":740:754   */\n          lt\n            /* \"#utility.yul\":720:738   */\n          dup2\n            /* \"#utility.yul\":717:755   */\n          sub\n            /* \"#utility.yul\":714:798   */\n          tag_50\n          jumpi\n            /* \"#utility.yul\":770:788   */\n          tag_51\n          tag_14\n          jump\t// in\n        tag_51:\n            /* \"#utility.yul\":714:798   */\n        tag_50:\n            /* \"#utility.yul\":535:804   */\n          pop\n            /* \"#utility.yul\":484:804   */\n          swap2\n          swap1\n          pop\n          jump\t// out\n            /* \"#utility.yul\":810:951   */\n        tag_16:\n            /* \"#utility.yul\":859:863   */\n          0x00\n            /* \"#utility.yul\":882:885   */\n          dup2\n            /* \"#utility.yul\":874:885   */\n          swap1\n          pop\n            /* \"#utility.yul\":905:908   */\n          dup2\n            /* \"#utility.yul\":902:903   */\n          0x00\n            /* \"#utility.yul\":895:909   */\n          mstore\n            /* \"#utility.yul\":939:943   */\n          0x20\n            /* \"#utility.yul\":936:937   */\n          0x00\n            /* \"#utility.yul\":926:944   */\n          keccak256\n            /* \"#utility.yul\":918:944   */\n          swap1\n          pop\n            /* \"#utility.yul\":810:951   */\n          swap2\n          swap1\n          pop\n          jump\t// out\n            /* \"#utility.yul\":957:1050   */\n        tag_17:\n            /* \"#utility.yul\":994:1000   */\n          0x00\n            /* \"#utility.yul\":1041:1043   */\n          0x20\n            /* \"#utility.yul\":1036:1038   */\n          0x1f\n            /* \"#utility.yul\":1029:1034   */\n          dup4\n            /* \"#utility.yul\":1025:1039   */\n          add\n            /* \"#utility.yul\":1021:1044   */\n          div\n            /* \"#utility.yul\":1011:1044   */\n          swap1\n          pop\n            /* \"#utility.yul\":957:1050   */\n          swap2\n          swap1\n          pop\n          jump\t// out\n            /* \"#utility.yul\":1056:1163   */\n        tag_18:\n            /* \"#utility.yul\":1100:1108   */\n          0x00\n            /* \"#utility.yul\":1150:1155   */\n          dup3\n            /* \"#utility.yul\":1144:1148   */\n          dup3\n            /* \"#utility.yul\":1140:1156   */\n          shl\n            /* \"#utility.yul\":1119:1156   */\n          swap1\n          pop\n            /* \"#utility.yul\":1056:1163   */\n          swap3\n          swap2\n          pop\n          pop\n          jump\t// out\n            /* \"#utility.yul\":1169:1562   */\n        tag_19:\n            /* \"#utility.yul\":1238:1244   */\n          0x00\n            /* \"#utility.yul\":1288:1289   */\n          0x08\n            /* \"#utility.yul\":1276:1286   */\n          dup4\n            /* \"#utility.yul\":1272:1290   */\n          mul\n            /* \"#utility.yul\":1311:1408   */\n          tag_56\n            /* \"#utility.yul\":1341:1407   */\n          0xffffffffffffffffffffffffffffffffffffffffffffffffffffffffffffffff\n            /* \"#utility.yul\":1330:1339   */\n          dup3\n            /* \"#utility.yul\":1311:1408   */\n          tag_18\n          jump\t// in\n        tag_56:\n            /* \"#utility.yul\":1429:1468   */\n          tag_57\n            /* \"#utility.yul\":1459:1467   */\n          dup7\n            /* \"#utility.yul\":1448:1457   */\n          dup4\n            /* \"#utility.yul\":1429:1468   */\n          tag_18\n          jump\t// in\n        tag_57:\n            /* \"#utility.yul\":1417:1468   */\n          swap6\n          pop\n            /* \"#utility.yul\":1501:1505   */\n          dup1\n            /* \"#utility.yul\":1497:1506   */\n          not\n            /* \"#utility.yul\":1490:1495   */\n          dup5\n            /* \"#utility.yul\":1486:1507   */\n          and\n            /* \"#utility.yul\":1477:1507   */\n          swap4\n          pop\n            /* \"#utility.yul\":1550:1554   */\n          dup1\n            /* \"#utility.yul\":1540:1548   */\n          dup7\n            /* \"#utility.yul\":1536:1555   */\n          and\n            /* \"#utility.yul\":1529:1534   */\n          dup5\n            /* \"#utility.yul\":1526:1556   */\n          or\n            /* \"#utility.yul\":1516:1556   */\n          swap3\n          pop\n            /* \"#utility.yul\":1245:1562   */\n          pop\n          pop\n            /* \"#utility.yul\":1169:1562   */\n          swap4\n          swap3\n          pop\n          pop\n          pop\n          jump\t// out\n            /* \"#utility.yul\":1568:1645   */\n        tag_20:\n            /* \"#utility.yul\":1605:1612   */\n          0x00\n            /* \"#utility.yul\":1634:1639   */\n          dup2\n            /* \"#utility.yul\":1623:1639   */\n          swap1\n          pop\n            /* \"#utility.yul\":1568:1645   */\n          swap2\n          swap1\n          pop\n          jump\t// out\n            /* \"#utility.yul\":1651:1711   */\n        tag_21:\n            /* \"#utility.yul\":1679:1682   */\n          0x00\n            /* \"#utility.yul\":1700:1705   */\n          dup2\n            /* \"#utility.yul\":1693:1705   */\n          swap1\n          pop\n            /* \"#utility.yul\":1651:1711   */\n          swap2\n          swap1\n          pop\n          jump\t// out\n            /* \"#utility.yul\":1717:1859   */\n        tag_22:\n            /* \"#utility.yul\":1767:1776   */\n          0x00\n            /* \"#utility.yul\":1800:1853   */\n          tag_61\n            /* \"#utility.yul\":1818:1852   */\n          tag_62\n            /* \"#utility.yul\":1827:1851   */\n          tag_63\n            /* \"#utility.yul\":1845:1850   */\n          dup5\n            /* \"#utility.yul\":1827:1851   */\n          tag_20\n          jump\t// in\n        tag_63:\n            /* \"#utility.yul\":1818:1852   */\n          tag_21\n          jump\t// in\n        tag_62:\n            /* \"#utility.yul\":1800:1853   */\n          tag_20\n          jump\t// in\n        tag_61:\n            /* \"#utility.yul\":1787:1853   */\n          swap1\n          pop\n            /* \"#utility.yul\":1717:1859   */\n          swap2\n          swap1\n          pop\n          jump\t// out\n            /* \"#utility.yul\":1865:1940   */\n        tag_23:\n            /* \"#utility.yul\":1908:1911   */\n          0x00\n            /* \"#utility.yul\":1929:1934   */\n          dup2\n            /* \"#utility.yul\":1922:1934   */\n          swap1\n          pop\n            /* \"#utility.yul\":1865:1940   */\n          swap2\n          swap1\n          pop\n          jump\t// out\n            /* \"#utility.yul\":1946:2215   */\n        tag_24:\n            /* \"#utility.yul\":2056:2095   */\n          tag_66\n            /* \"#utility.yul\":2087:2094   */\n          dup4\n            /* \"#utility.yul\":2056:2095   */\n          tag_22\n          jump\t// in\n        tag_66:\n            /* \"#utility.yul\":2117:2208   */\n          tag_67\n            /* \"#utility.yul\":2166:2207   */\n          tag_68\n            /* \"#utility.yul\":2190:2206   */\n          dup3\n            /* \"#utility.yul\":2166:2207   */\n          tag_23\n          jump\t// in\n        tag_68:\n            /* \"#utility.yul\":2158:2164   */\n          dup5\n            /* \"#utility.yul\":2151:2155   */\n          dup5\n            /* \"#utility.yul\":2145:2156   */\n          sload\n            /* \"#utility.yul\":2117:2208   */\n          tag_19\n          jump\t// in\n        tag_67:\n            /* \"#utility.yul\":2111:2115   */\n          dup3\n            /* \"#utility.yul\":2104:2209   */\n          sstore\n            /* \"#utility.yul\":2022:2215   */\n          pop\n            /* \"#utility.yul\":1946:2215   */\n          pop\n          pop\n          pop\n          jump\t// out\n            /* \"#utility.yul\":2221:2294   */\n        tag_25:\n            /* \"#utility.yul\":2266:2269   */\n          0x00\n            /* \"#utility.yul\":2221:2294   */\n          swap1\n          jump\t// out\n            /* \"#utility.yul\":2300:2489   */\n        tag_26:\n            /* \"#utility.yul\":2377:2409   */\n          tag_71\n          tag_25\n          jump\t// in\n        tag_71:\n            /* \"#utility.yul\":2418:2483   */\n          tag_72\n            /* \"#utility.yul\":2476:2482   */\n          dup2\n            /* \"#utility.yul\":2468:2474   */\n          dup5\n            /* \"#utility.yul\":2462:2466   */\n          dup5\n            /* \"#utility.yul\":2418:2483   */\n          tag_24\n          jump\t// in\n        tag_72:\n            /* \"#utility.yul\":2353:2489   */\n          pop\n            /* \"#utility.yul\":2300:2489   */\n          pop\n          pop\n          jump\t// out\n            /* \"#utility.yul\":2495:2681   */\n        tag_27:\n            /* \"#utility.yul\":2555:2675   */\n        tag_74:\n            /* \"#utility.yul\":2572:2575   */\n          dup2\n            /* \"#utility.yul\":2565:2570   */\n          dup2\n            /* \"#utility.yul\":2562:2576   */\n          lt\n            /* \"#utility.yul\":2555:2675   */\n          iszero\n          tag_76\n          jumpi\n            /* \"#utility.yul\":2626:2665   */\n          tag_77\n            /* \"#utility.yul\":2663:2664   */\n          0x00\n            /* \"#utility.yul\":2656:2661   */\n          dup3\n            /* \"#utility.yul\":2626:2665   */\n          tag_26\n          jump\t// in\n        tag_77:\n            /* \"#utility.yul\":2599:2600   */\n          0x01\n            /* \"#utility.yul\":2592:2597   */\n          dup2\n            /* \"#utility.yul\":2588:2601   */\n          add\n            /* \"#utility.yul\":2579:2601   */\n          swap1\n          pop\n            /* \"#utility.yul\":2555:2675   */\n          jump(tag_74)\n        tag_76:\n            /* \"#utility.yul\":2495:2681   */\n          pop\n          pop\n          jump\t// out\n            /* \"#utility.yul\":2687:3230   */\n        tag_28:\n            /* \"#utility.yul\":2788:2790   */\n          0x1f\n            /* \"#utility.yul\":2783:2786   */\n          dup3\n            /* \"#utility.yul\":2780:2791   */\n          gt\n            /* \"#utility.yul\":2777:3223   */\n          iszero\n          tag_79\n          jumpi\n            /* \"#utility.yul\":2822:2860   */\n          tag_80\n            /* \"#utility.yul\":2854:2859   */\n          dup2\n            /* \"#utility.yul\":2822:2860   */\n          tag_16\n          jump\t// in\n        tag_80:\n            /* \"#utility.yul\":2906:2935   */\n          tag_81\n            /* \"#utility.yul\":2924:2934   */\n          dup5\n            /* \"#utility.yul\":2906:2935   */\n          tag_17\n          jump\t// in\n        tag_81:\n            /* \"#utility.yul\":2896:2904   */\n          dup2\n            /* \"#utility.yul\":2892:2936   */\n          add\n            /* \"#utility.yul\":3089:3091   */\n          0x20\n            /* \"#utility.yul\":3077:3087   */\n          dup6\n            /* \"#utility.yul\":3074:3092   */\n          lt\n            /* \"#utility.yul\":3071:3120   */\n          iszero\n          tag_82\n          jumpi\n            /* \"#utility.yul\":3110:3118   */\n          dup2\n            /* \"#utility.yul\":3095:3118   */\n          swap1\n          pop\n            /* \"#utility.yul\":3071:3120   */\n        tag_82:\n            /* \"#utility.yul\":3133:3213   */\n          tag_83\n            /* \"#utility.yul\":3189:3211   */\n          tag_84\n            /* \"#utility.yul\":3207:3210   */\n          dup6\n            /* \"#utility.yul\":3189:3211   */\n          tag_17\n          jump\t// in\n        tag_84:\n            /* \"#utility.yul\":3179:3187   */\n          dup4\n            /* \"#utility.yul\":3175:3212   */\n          add\n            /* \"#utility.yul\":3162:3173   */\n          dup3\n            /* \"#utility.yul\":3133:3213   */\n          tag_27\n          jump\t// in\n        tag_83:\n            /* \"#utility.yul\":2792:3223   */\n          pop\n          pop\n            /* \"#utility.yul\":2777:3223   */\n        tag_79:\n            /* \"#utility.yul\":2687:3230   */\n          pop\n          pop\n          pop\n          jump\t// out\n            /* \"#utility.yul\":3236:3353   */\n        tag_29:\n            /* \"#utility.yul\":3290:3298   */\n          0x00\n            /* \"#utility.yul\":3340:3345   */\n          dup3\n            /* \"#utility.yul\":3334:3338   */\n          dup3\n            /* \"#utility.yul\":3330:3346   */\n          shr\n            /* \"#utility.yul\":3309:3346   */\n          swap1\n          pop\n            /* \"#utility.yul\":3236:3353   */\n          swap3\n          swap2\n          pop\n          pop\n          jump\t// out\n            /* \"#utility.yul\":3359:3528   */\n        tag_30:\n            /* \"#utility.yul\":3403:3409   */\n          0x00\n            /* \"#utility.yul\":3436:3487   */\n          tag_87\n            /* \"#utility.yul\":3484:3485   */\n          0x00\n            /* \"#utility.yul\":3480:3486   */\n          not\n            /* \"#utility.yul\":3472:3477   */\n          dup5\n            /* \"#utility.yul\":3469:3470   */\n          0x08\n            /* \"#utility.yul\":3465:3478   */\n          mul\n            /* \"#utility.yul\":3436:3487   */\n          tag_29\n          jump\t// in\n        tag_87:\n            /* \"#utility.yul\":3432:3488   */\n          not\n            /* \"#utility.yul\":3517:3521   */\n          dup1\n            /* \"#utility.yul\":3511:3515   */\n          dup4\n            /* \"#utility.yul\":3507:3522   */\n          and\n            /* \"#utility.yul\":3497:3522   */\n          swap2\n          pop\n            /* \"#utility.yul\":3410:3528   */\n          pop\n            /* \"#utility.yul\":3359:3528   */\n          swap3\n          swap2\n          pop\n          pop\n          jump\t// out\n            /* \"#utility.yul\":3533:3828   */\n        tag_31:\n            /* \"#utility.yul\":3609:3613   */\n          0x00\n            /* \"#utility.yul\":3755:3784   */\n          tag_89\n            /* \"#utility.yul\":3780:3783   */\n          dup4\n            /* \"#utility.yul\":3774:3778   */\n          dup4\n            /* \"#utility.yul\":3755:3784   */\n          tag_30\n          jump\t// in\n        tag_89:\n            /* \"#utility.yul\":3747:3784   */\n          swap2\n          pop\n            /* \"#utility.yul\":3817:3820   */\n          dup3\n            /* \"#utility.yul\":3814:3815   */\n          0x02\n            /* \"#utility.yul\":3810:3821   */\n          mul\n            /* \"#utility.yul\":3804:3808   */\n          dup3\n            /* \"#utility.yul\":3801:3822   */\n          or\n            /* \"#utility.yul\":3793:3822   */\n          swap1\n          pop\n            /* \"#utility.yul\":3533:3828   */\n          swap3\n          swap2\n          pop\n          pop\n          jump\t// out\n            /* \"#utility.yul\":3833:5228   */\n        tag_2:\n            /* \"#utility.yul\":3950:3987   */\n          tag_91\n            /* \"#utility.yul\":3983:3986   */\n          dup3\n            /* \"#utility.yul\":3950:3987   */\n          tag_12\n          jump\t// in\n        tag_91:\n            /* \"#utility.yul\":4052:4070   */\n          0xffffffffffffffff\n            /* \"#utility.yul\":4044:4050   */\n          dup2\n            /* \"#utility.yul\":4041:4071   */\n          gt\n            /* \"#utility.yul\":4038:4094   */\n          iszero\n          tag_92\n          jumpi\n            /* \"#utility.yul\":4074:4092   */\n          tag_93\n          tag_13\n          jump\t// in\n        tag_93:\n            /* \"#utility.yul\":4038:4094   */\n        tag_92:\n            /* \"#utility.yul\":4118:4156   */\n          tag_94\n            /* \"#utility.yul\":4150:4154   */\n          dup3\n            /* \"#utility.yul\":4144:4155   */\n          sload\n            /* \"#utility.yul\":4118:4156   */\n          tag_15\n          jump\t// in\n        tag_94:\n            /* \"#utility.yul\":4203:4270   */\n          tag_95\n            /* \"#utility.yul\":4263:4269   */\n          dup3\n            /* \"#utility.yul\":4255:4261   */\n          dup3\n            /* \"#utility.yul\":4249:4253   */\n          dup6\n            /* \"#utility.yul\":4203:4270   */\n          tag_28\n          jump\t// in\n        tag_95:\n            /* \"#utility.yul\":4297:4298   */\n          0x00\n            /* \"#utility.yul\":4321:4325   */\n          0x20\n            /* \"#utility.yul\":4308:4325   */\n          swap1\n          pop\n            /* \"#utility.yul\":4353:4355   */\n          0x1f\n            /* \"#utility.yul\":4345:4351   */\n          dup4\n            /* \"#utility.yul\":4342:4356   */\n          gt\n            /* \"#utility.yul\":4370:4371   */\n          0x01\n            /* \"#utility.yul\":4365:4983   */\n          dup2\n          eq\n          tag_97\n          jumpi\n            /* \"#utility.yul\":5027:5028   */\n          0x00\n            /* \"#utility.yul\":5044:5050   */\n          dup5\n            /* \"#utility.yul\":5041:5118   */\n          iszero\n          tag_98\n          jumpi\n            /* \"#utility.yul\":5093:5102   */\n          dup3\n            /* \"#utility.yul\":5088:5091   */\n          dup8\n            /* \"#utility.yul\":5084:5103   */\n          add\n            /* \"#utility.yul\":5078:5104   */\n          mload\n            /* \"#utility.yul\":5069:5104   */\n          swap1\n          pop\n            /* \"#utility.yul\":5041:5118   */\n        tag_98:\n            /* \"#utility.yul\":5144:5211   */\n          tag_99\n            /* \"#utility.yul\":5204:5210   */\n          dup6\n            /* \"#utility.yul\":5197:5202   */\n          dup3\n            /* \"#utility.yul\":5144:5211   */\n          tag_31\n          jump\t// in\n        tag_99:\n            /* \"#utility.yul\":5138:5142   */\n          dup7\n            /* \"#utility.yul\":5131:5212   */\n          sstore\n            /* \"#utility.yul\":5000:5222   */\n          pop\n            /* \"#utility.yul\":4335:5222   */\n          jump(tag_96)\n            /* \"#utility.yul\":4365:4983   */\n        tag_97:\n            /* \"#utility.yul\":4417:4421   */\n          0x1f\n            /* \"#utility.yul\":4413:4422   */\n          not\n            /* \"#utility.yul\":4405:4411   */\n          dup5\n            /* \"#utility.yul\":4401:4423   */\n          and\n            /* \"#utility.yul\":4451:4488   */\n          tag_100\n            /* \"#utility.yul\":4483:4487   */\n          dup7\n            /* \"#utility.yul\":4451:4488   */\n          tag_16\n          jump\t// in\n        tag_100:\n            /* \"#utility.yul\":4510:4511   */\n          0x00\n            /* \"#utility.yul\":4524:4732   */\n        tag_101:\n            /* \"#utility.yul\":4538:4545   */\n          dup3\n            /* \"#utility.yul\":4535:4536   */\n          dup2\n            /* \"#utility.yul\":4532:4546   */\n          lt\n            /* \"#utility.yul\":4524:4732   */\n          iszero\n          tag_103\n          jumpi\n            /* \"#utility.yul\":4617:4626   */\n          dup5\n            /* \"#utility.yul\":4612:4615   */\n          dup10\n            /* \"#utility.yul\":4608:4627   */\n          add\n            /* \"#utility.yul\":4602:4628   */\n          mload\n            /* \"#utility.yul\":4594:4600   */\n          dup3\n            /* \"#utility.yul\":4587:4629   */\n          sstore\n            /* \"#utility.yul\":4668:4669   */\n          0x01\n            /* \"#utility.yul\":4660:4666   */\n          dup3\n            /* \"#utility.yul\":4656:4670   */\n          add\n            /* \"#utility.yul\":4646:4670   */\n          swap2\n          pop\n            /* \"#utility.yul\":4715:4717   */\n          0x20\n            /* \"#utility.yul\":4704:4713   */\n          dup6\n            /* \"#utility.yul\":4700:4718   */\n          add\n            /* \"#utility.yul\":4687:4718   */\n          swap5\n          pop\n            /* \"#utility.yul\":4561:4565   */\n          0x20\n            /* \"#utility.yul\":4558:4559   */\n          dup2\n            /* \"#utility.yul\":4554:4566   */\n          add\n            /* \"#utility.yul\":4549:4566   */\n          swap1\n          pop\n            /* \"#utility.yul\":4524:4732   */\n          jump(tag_101)\n        tag_103:\n            /* \"#utility.yul\":4760:4766   */\n          dup7\n            /* \"#utility.yul\":4751:4758   */\n          dup4\n            /* \"#utility.yul\":4748:4767   */\n          lt\n            /* \"#utility.yul\":4745:4924   */\n          iszero\n          tag_104\n          jumpi\n            /* \"#utility.yul\":4818:4827   */\n          dup5\n            /* \"#utility.yul\":4813:4816   */\n          dup10\n            /* \"#utility.yul\":4809:4828   */\n          add\n            /* \"#utility.yul\":4803:4829   */\n          mload\n            /* \"#utility.yul\":4861:4909   */\n          tag_105\n            /* \"#utility.yul\":4903:4907   */\n          0x1f\n            /* \"#utility.yul\":4895:4901   */\n          dup10\n            /* \"#utility.yul\":4891:4908   */\n          and\n            /* \"#utility.yul\":4880:4889   */\n          dup3\n            /* \"#utility.yul\":4861:4909   */\n          tag_30\n          jump\t// in\n        tag_105:\n            /* \"#utility.yul\":4853:4859   */\n          dup4\n            /* \"#utility.yul\":4846:4910   */\n          sstore\n            /* \"#utility.yul\":4768:4924   */\n          pop\n            /* \"#utility.yul\":4745:4924   */\n        tag_104:\n            /* \"#utility.yul\":4970:4971   */\n          0x01\n            /* \"#utility.yul\":4966:4967   */\n          0x02\n            /* \"#utility.yul\":4958:4964   */\n          dup9\n            /* \"#utility.yul\":4954:4968   */\n          mul\n            /* \"#utility.yul\":4950:4972   */\n          add\n            /* \"#utility.yul\":4944:4948   */\n          dup9\n            /* \"#utility.yul\":4937:4973   */\n          sstore\n            /* \"#utility.yul\":4372:4983   */\n          pop\n          pop\n          pop\n            /* \"#utility.yul\":4335:5222   */\n        tag_96:\n          pop\n            /* \"#utility.yul\":3925:5228   */\n          pop\n          pop\n          pop\n            /* \"#utility.yul\":3833:5228   */\n          pop\n          pop\n          jump\t// out\n            /* \"#utility.yul\":5234:5309   */\n        tag_32:\n            /* \"#utility.yul\":5267:5273   */\n          0x00\n            /* \"#utility.yul\":5300:5302   */\n          0x40\n            /* \"#utility.yul\":5294:5303   */\n          mload\n            /* \"#utility.yul\":5284:5303   */\n          swap1\n          pop\n            /* \"#utility.yul\":5234:5309   */\n          swap1\n          jump\t// out\n            /* \"#utility.yul\":5315:5432   */\n        tag_33:\n            /* \"#utility.yul\":5424:5425   */\n          0x00\n            /* \"#utility.yul\":5421:5422   */\n          dup1\n            /* \"#utility.yul\":5414:5426   */\n          revert\n            /* \"#utility.yul\":5438:5555   */\n        tag_34:\n            /* \"#utility.yul\":5547:5548   */\n          0x00\n            /* \"#utility.yul\":5544:5545   */\n          dup1\n            /* \"#utility.yul\":5537:5549   */\n          revert\n            /* \"#utility.yul\":5561:5678   */\n        tag_35:\n            /* \"#utility.yul\":5670:5671   */\n          0x00\n            /* \"#utility.yul\":5667:5668   */\n          dup1\n            /* \"#utility.yul\":5660:5672   */\n          revert\n            /* \"#utility.yul\":5684:5801   */\n        tag_36:\n            /* \"#utility.yul\":5793:5794   */\n          0x00\n            /* \"#utility.yul\":5790:5791   */\n          dup1\n            /* \"#utility.yul\":5783:5795   */\n          revert\n            /* \"#utility.yul\":5807:5909   */\n        tag_37:\n            /* \"#utility.yul\":5848:5854   */\n          0x00\n            /* \"#utility.yul\":5899:5901   */\n          0x1f\n            /* \"#utility.yul\":5895:5902   */\n          not\n            /* \"#utility.yul\":5890:5892   */\n          0x1f\n            /* \"#utility.yul\":5883:5888   */\n          dup4\n            /* \"#utility.yul\":5879:5893   */\n          add\n            /* \"#utility.yul\":5875:5903   */\n          and\n            /* \"#utility.yul\":5865:5903   */\n          swap1\n          pop\n            /* \"#utility.yul\":5807:5909   */\n          swap2\n          swap1\n          pop\n          jump\t// out\n            /* \"#utility.yul\":5915:6196   */\n        tag_38:\n            /* \"#utility.yul\":5998:6025   */\n          tag_113\n            /* \"#utility.yul\":6020:6024   */\n          dup3\n            /* \"#utility.yul\":5998:6025   */\n          tag_37\n          jump\t// in\n        tag_113:\n            /* \"#utility.yul\":5990:5996   */\n          dup2\n            /* \"#utility.yul\":5986:6026   */\n          add\n            /* \"#utility.yul\":6128:6134   */\n          dup2\n            /* \"#utility.yul\":6116:6126   */\n          dup2\n            /* \"#utility.yul\":6113:6135   */\n          lt\n            /* \"#utility.yul\":6092:6110   */\n          0xffffffffffffffff\n            /* \"#utility.yul\":6080:6090   */\n          dup3\n            /* \"#utility.yul\":6077:6111   */\n          gt\n            /* \"#utility.yul\":6074:6136   */\n          or\n            /* \"#utility.yul\":6071:6159   */\n          iszero\n          tag_114\n          jumpi\n            /* \"#utility.yul\":6139:6157   */\n          tag_115\n          tag_13\n          jump\t// in\n        tag_115:\n            /* \"#utility.yul\":6071:6159   */\n        tag_114:\n            /* \"#utility.yul\":6179:6189   */\n          dup1\n            /* \"#utility.yul\":6175:6177   */\n          0x40\n            /* \"#utility.yul\":6168:6190   */\n          mstore\n            /* \"#utility.yul\":5958:6196   */\n          pop\n            /* \"#utility.yul\":5915:6196   */\n          pop\n          pop\n          jump\t// out\n            /* \"#utility.yul\":6202:6331   */\n        tag_39:\n            /* \"#utility.yul\":6236:6242   */\n          0x00\n            /* \"#utility.yul\":6263:6283   */\n          tag_117\n          tag_32\n          jump\t// in\n        tag_117:\n            /* \"#utility.yul\":6253:6283   */\n          swap1\n          pop\n            /* \"#utility.yul\":6292:6325   */\n          tag_118\n            /* \"#utility.yul\":6320:6324   */\n          dup3\n            /* \"#utility.yul\":6312:6318   */\n          dup3\n            /* \"#utility.yul\":6292:6325   */\n          tag_38\n          jump\t// in\n        tag_118:\n            /* \"#utility.yul\":6202:6331   */\n          swap2\n          swap1\n          pop\n          jump\t// out\n            /* \"#utility.yul\":6337:6645   */\n        tag_40:\n            /* \"#utility.yul\":6399:6403   */\n          0x00\n            /* \"#utility.yul\":6489:6507   */\n          0xffffffffffffffff\n            /* \"#utility.yul\":6481:6487   */\n          dup3\n            /* \"#utility.yul\":6478:6508   */\n          gt\n            /* \"#utility.yul\":6475:6531   */\n          iszero\n          tag_120\n          jumpi\n            /* \"#utility.yul\":6511:6529   */\n          tag_121\n          tag_13\n          jump\t// in\n        tag_121:\n            /* \"#utility.yul\":6475:6531   */\n        tag_120:\n            /* \"#utility.yul\":6549:6578   */\n          tag_122\n            /* \"#utility.yul\":6571:6577   */\n          dup3\n            /* \"#utility.yul\":6549:6578   */\n          tag_37\n          jump\t// in\n        tag_122:\n            /* \"#utility.yul\":6541:6578   */\n          swap1\n          pop\n            /* \"#utility.yul\":6633:6637   */\n          0x20\n            /* \"#utility.yul\":6627:6631   */\n          dup2\n            /* \"#utility.yul\":6623:6638   */\n          add\n            /* \"#utility.yul\":6615:6638   */\n          swap1\n          pop\n            /* \"#utility.yul\":6337:6645   */\n          swap2\n          swap1\n          pop\n          jump\t// out\n            /* \"#utility.yul\":6651:6790   */\n        tag_41:\n            /* \"#utility.yul\":6740:6746   */\n          dup3\n            /* \"#utility.yul\":6735:6738   */\n          dup2\n            /* \"#utility.yul\":6730:6733   */\n          dup4\n            /* \"#utility.yul\":6724:6747   */\n          mcopy\n            /* \"#utility.yul\":6781:6782   */\n          0x00\n            /* \"#utility.yul\":6772:6778   */\n          dup4\n            /* \"#utility.yul\":6767:6770   */\n          dup4\n            /* \"#utility.yul\":6763:6779   */\n          add\n            /* \"#utility.yul\":6756:6783   */\n          mstore\n            /* \"#utility.yul\":6651:6790   */\n          pop\n          pop\n          pop\n          jump\t// out\n            /* \"#utility.yul\":6796:7230   */\n        tag_42:\n            /* \"#utility.yul\":6885:6890   */\n          0x00\n            /* \"#utility.yul\":6910:6976   */\n          tag_125\n            /* \"#utility.yul\":6926:6975   */\n          tag_126\n            /* \"#utility.yul\":6968:6974   */\n          dup5\n            /* \"#utility.yul\":6926:6975   */\n          tag_40\n          jump\t// in\n        tag_126:\n            /* \"#utility.yul\":6910:6976   */\n          tag_39\n          jump\t// in\n        tag_125:\n            /* \"#utility.yul\":6901:6976   */\n          swap1\n          pop\n            /* \"#utility.yul\":6999:7005   */\n          dup3\n            /* \"#utility.yul\":6992:6997   */\n          dup2\n            /* \"#utility.yul\":6985:7006   */\n          mstore\n            /* \"#utility.yul\":7037:7041   */\n          0x20\n            /* \"#utility.yul\":7030:7035   */\n          dup2\n            /* \"#utility.yul\":7026:7042   */\n          add\n            /* \"#utility.yul\":7075:7078   */\n          dup5\n            /* \"#utility.yul\":7066:7072   */\n          dup5\n            /* \"#utility.yul\":7061:7064   */\n          dup5\n            /* \"#utility.yul\":7057:7073   */\n          add\n            /* \"#utility.yul\":7054:7079   */\n          gt\n            /* \"#utility.yul\":7051:7163   */\n          iszero\n          tag_127\n          jumpi\n            /* \"#utility.yul\":7082:7161   */\n          tag_128\n          tag_36\n          jump\t// in\n        tag_128:\n            /* \"#utility.yul\":7051:7163   */\n        tag_127:\n            /* \"#utility.yul\":7172:7224   */\n          tag_129\n            /* \"#utility.yul\":7217:7223   */\n          dup5\n            /* \"#utility.yul\":7212:7215   */\n          dup3\n            /* \"#utility.yul\":7207:7210   */\n          dup6\n            /* \"#utility.yul\":7172:7224   */\n          tag_41\n          jump\t// in\n        tag_129:\n            /* \"#utility.yul\":6891:7230   */\n          pop\n            /* \"#utility.yul\":6796:7230   */\n          swap4\n          swap3\n          pop\n          pop\n          pop\n          jump\t// out\n            /* \"#utility.yul\":7250:7605   */\n        tag_43:\n            /* \"#utility.yul\":7317:7322   */\n          0x00\n            /* \"#utility.yul\":7366:7369   */\n          dup3\n            /* \"#utility.yul\":7359:7363   */\n          0x1f\n            /* \"#utility.yul\":7351:7357   */\n          dup4\n            /* \"#utility.yul\":7347:7364   */\n          add\n            /* \"#utility.yul\":7343:7370   */\n          slt\n            /* \"#utility.yul\":7333:7455   */\n          tag_131\n          jumpi\n            /* \"#utility.yul\":7374:7453   */\n          tag_132\n          tag_35\n          jump\t// in\n        tag_132:\n            /* \"#utility.yul\":7333:7455   */\n        tag_131:\n            /* \"#utility.yul\":7484:7490   */\n          dup2\n            /* \"#utility.yul\":7478:7491   */\n          mload\n            /* \"#utility.yul\":7509:7599   */\n          tag_133\n            /* \"#utility.yul\":7595:7598   */\n          dup5\n            /* \"#utility.yul\":7587:7593   */\n          dup3\n            /* \"#utility.yul\":7580:7584   */\n          0x20\n            /* \"#utility.yul\":7572:7578   */\n          dup7\n            /* \"#utility.yul\":7568:7585   */\n          add\n            /* \"#utility.yul\":7509:7599   */\n          tag_42\n          jump\t// in\n        tag_133:\n            /* \"#utility.yul\":7500:7599   */\n          swap2\n          pop\n            /* \"#utility.yul\":7323:7605   */\n          pop\n            /* \"#utility.yul\":7250:7605   */\n          swap3\n          swap2\n          pop\n          pop\n          jump\t// out\n            /* \"#utility.yul\":7611:8464   */\n        tag_6:\n            /* \"#utility.yul\":7710:7716   */\n          0x00\n            /* \"#utility.yul\":7718:7724   */\n          dup1\n            /* \"#utility.yul\":7767:7769   */\n          0x40\n            /* \"#utility.yul\":7755:7764   */\n          dup4\n            /* \"#utility.yul\":7746:7753   */\n          dup6\n            /* \"#utility.yul\":7742:7765   */\n          sub\n            /* \"#utility.yul\":7738:7770   */\n          slt\n            /* \"#utility.yul\":7735:7854   */\n          iszero\n          tag_135\n          jumpi\n            /* \"#utility.yul\":7773:7852   */\n          tag_136\n          tag_33\n          jump\t// in\n        tag_136:\n            /* \"#utility.yul\":7735:7854   */\n        tag_135:\n            /* \"#utility.yul\":7914:7915   */\n          0x00\n            /* \"#utility.yul\":7903:7912   */\n          dup4\n            /* \"#utility.yul\":7899:7916   */\n          add\n            /* \"#utility.yul\":7893:7917   */\n          mload\n            /* \"#utility.yul\":7944:7962   */\n          0xffffffffffffffff\n            /* \"#utility.yul\":7936:7942   */\n          dup2\n            /* \"#utility.yul\":7933:7963   */\n          gt\n            /* \"#utility.yul\":7930:8047   */\n          iszero\n          tag_137\n          jumpi\n            /* \"#utility.yul\":7966:8045   */\n          tag_138\n          tag_34\n          jump\t// in\n        tag_138:\n            /* \"#utility.yul\":7930:8047   */\n        tag_137:\n            /* \"#utility.yul\":8071:8145   */\n          tag_139\n            /* \"#utility.yul\":8137:8144   */\n          dup6\n            /* \"#utility.yul\":8128:8134   */\n          dup3\n            /* \"#utility.yul\":8117:8126   */\n          dup7\n            /* \"#utility.yul\":8113:8135   */\n          add\n            /* \"#utility.yul\":8071:8145   */\n          tag_43\n          jump\t// in\n        tag_139:\n            /* \"#utility.yul\":8061:8145   */\n          swap3\n          pop\n            /* \"#utility.yul\":7864:8155   */\n          pop\n            /* \"#utility.yul\":8215:8217   */\n          0x20\n            /* \"#utility.yul\":8204:8213   */\n          dup4\n            /* \"#utility.yul\":8200:8218   */\n          add\n            /* \"#utility.yul\":8194:8219   */\n          mload\n            /* \"#utility.yul\":8246:8264   */\n          0xffffffffffffffff\n            /* \"#utility.yul\":8238:8244   */\n          dup2\n            /* \"#utility.yul\":8235:8265   */\n          gt\n            /* \"#utility.yul\":8232:8349   */\n          iszero\n          tag_140\n          jumpi\n            /* \"#utility.yul\":8268:8347   */\n          tag_141\n          tag_34\n          jump\t// in\n        tag_141:\n            /* \"#utility.yul\":8232:8349   */\n        tag_140:\n            /* \"#utility.yul\":8373:8447   */\n          tag_142\n            /* \"#utility.yul\":8439:8446   */\n          dup6\n            /* \"#utility.yul\":8430:8436   */\n          dup3\n            /* \"#utility.yul\":8419:8428   */\n          dup7\n            /* \"#utility.yul\":8415:8437   */\n          add\n            /* \"#utility.yul\":8373:8447   */\n          tag_43\n          jump\t// in\n        tag_142:\n            /* \"#utility.yul\":8363:8447   */\n          swap2\n          pop\n            /* \"#utility.yul\":8165:8457   */\n          pop\n            /* \"#utility.yul\":7611:8464   */\n          swap3\n          pop\n          swap3\n          swap1\n          pop\n          jump\t// out\n            /* \"contracts/lastday/p1.sol\":1081:2370  contract Student is Department, Hostel {... */\n        tag_11:\n          dataSize(sub_0)\n          dup1\n          dataOffset(sub_0)\n          0x00\n          codecopy\n          0x00\n          return\n        stop\n\n        sub_0: assembly {\n                /* \"contracts/lastday/p1.sol\":1081:2370  contract Student is Department, Hostel {... */\n              mstore(0x40, 0x80)\n              callvalue\n              dup1\n              iszero\n              tag_1\n              jumpi\n              0x00\n              dup1\n              revert\n            tag_1:\n              pop\n              jumpi(tag_2, lt(calldatasize, 0x04))\n              shr(0xe0, calldataload(0x00))\n              dup1\n              0xbbd57851\n              gt\n              tag_17\n              jumpi\n              dup1\n              0xd57831f5\n              gt\n              tag_18\n              jumpi\n              dup1\n              0xd57831f5\n              eq\n              tag_13\n              jumpi\n              dup1\n              0xe81bd2a4\n              eq\n              tag_14\n              jumpi\n              dup1\n              0xeb96548f\n              eq\n              tag_15\n              jumpi\n              dup1\n              0xf8fd1948\n              eq\n              tag_16\n              jumpi\n              jump(tag_2)\n            tag_18:\n              dup1\n              0xbbd57851\n              eq\n              tag_10\n              jumpi\n              dup1\n              0xc607ba4d\n              eq\n              tag_11\n              jumpi\n              dup1\n              0xcb9cb0c2\n              eq\n              tag_12\n              jumpi\n              jump(tag_2)\n            tag_17:\n              dup1\n              0x99d568b3\n              gt\n              tag_19\n              jumpi\n              dup1\n              0x99d568b3\n              eq\n              tag_6\n              jumpi\n              dup1\n              0x9d8c8315\n              eq\n              tag_7\n              jumpi\n              dup1\n              0xb508ba31\n              eq\n              tag_8\n              jumpi\n              dup1\n              0xb975abb3\n              eq\n              tag_9\n              jumpi\n              jump(tag_2)\n            tag_19:\n              dup1\n              0x11ebae41\n              eq\n              tag_3\n              jumpi\n              dup1\n              0x1b0c2670\n              eq\n              tag_4\n              jumpi\n              dup1\n              0x8d1d2d90\n              eq\n              tag_5\n              jumpi\n            tag_2:\n              0x00\n              dup1\n              revert\n                /* \"contracts/lastday/p1.sol\":403:441  string public hostelLocation = \"Patna\" */\n            tag_3:\n              tag_20\n              tag_21\n              jump\t// in\n            tag_20:\n              mload(0x40)\n              tag_22\n              swap2\n              swap1\n              tag_23\n              jump\t// in\n            tag_22:\n              mload(0x40)\n              dup1\n              swap2\n              sub\n              swap1\n              return\n                /* \"contracts/lastday/p1.sol\":2233:2367  function printDeptDetails() public view override returns (string memory, string memory) {... */\n            tag_4:\n              tag_24\n              tag_25\n              jump\t// in\n            tag_24:\n              mload(0x40)\n              tag_26\n              swap3\n              swap2\n              swap1\n              tag_27\n              jump\t// in\n            tag_26:\n              mload(0x40)\n              dup1\n              swap2\n              sub\n              swap1\n              return\n                /* \"contracts/lastday/p1.sol\":1223:1243  string public regdNo */\n            tag_5:\n              tag_28\n              tag_29\n              jump\t// in\n            tag_28:\n              mload(0x40)\n              tag_30\n              swap2\n              swap1\n              tag_23\n              jump\t// in\n            tag_30:\n              mload(0x40)\n              dup1\n              swap2\n              sub\n              swap1\n              return\n                /* \"contracts/lastday/p1.sol\":475:506  uint public numberOfRooms = 100 */\n            tag_6:\n              tag_31\n              tag_32\n              jump\t// in\n            tag_31:\n              mload(0x40)\n              tag_33\n              swap2\n              swap1\n              tag_34\n              jump\t// in\n            tag_33:\n              mload(0x40)\n              dup1\n              swap2\n              sub\n              swap1\n              return\n                /* \"contracts/lastday/p1.sol\":648:802  function getHostelDetails() public view returns (string memory, string memory, uint) {... */\n            tag_7:\n              tag_35\n              tag_36\n              jump\t// in\n            tag_35:\n              mload(0x40)\n              tag_37\n              swap4\n              swap3\n              swap2\n              swap1\n              tag_38\n              jump\t// in\n            tag_37:\n              mload(0x40)\n              dup1\n              swap2\n              sub\n              swap1\n              return\n                /* \"contracts/lastday/p1.sol\":1191:1216  string public studentName */\n            tag_8:\n              tag_39\n              tag_40\n              jump\t// in\n            tag_39:\n              mload(0x40)\n              tag_41\n              swap2\n              swap1\n              tag_23\n              jump\t// in\n            tag_41:\n              mload(0x40)\n              dup1\n              swap2\n              sub\n              swap1\n              return\n                /* \"contracts/lastday/p1.sol\":1127:1149  string public deptName */\n            tag_9:\n              tag_42\n              tag_43\n              jump\t// in\n            tag_42:\n              mload(0x40)\n              tag_44\n              swap2\n              swap1\n              tag_23\n              jump\t// in\n            tag_44:\n              mload(0x40)\n              dup1\n              swap2\n              sub\n              swap1\n              return\n                /* \"contracts/lastday/p1.sol\":1589:1860  function getData(string memory _studentName, string memory _regdNo, string memory _electiveSubject, uint _avgMarks) public {... */\n            tag_10:\n              tag_45\n              0x04\n              dup1\n              calldatasize\n              sub\n              dup2\n              add\n              swap1\n              tag_46\n              swap2\n              swap1\n              tag_47\n              jump\t// in\n            tag_46:\n              tag_48\n              jump\t// in\n            tag_45:\n              stop\n                /* \"contracts/lastday/p1.sol\":1250:1279  string public electiveSubject */\n            tag_11:\n              tag_49\n              tag_50\n              jump\t// in\n            tag_49:\n              mload(0x40)\n              tag_51\n              swap2\n              swap1\n              tag_23\n              jump\t// in\n            tag_51:\n              mload(0x40)\n              dup1\n              swap2\n              sub\n              swap1\n              return\n                /* \"contracts/lastday/p1.sol\":329:374  string public hostelName = \"Deepak ka hostel\" */\n            tag_12:\n              tag_52\n              tag_53\n              jump\t// in\n            tag_52:\n              mload(0x40)\n              tag_54\n              swap2\n              swap1\n              tag_23\n              jump\t// in\n            tag_54:\n              mload(0x40)\n              dup1\n              swap2\n              sub\n              swap1\n              return\n                /* \"contracts/lastday/p1.sol\":1286:1306  uint public avgMarks */\n            tag_13:\n              tag_55\n              tag_56\n              jump\t// in\n            tag_55:\n              mload(0x40)\n              tag_57\n              swap2\n              swap1\n              tag_34\n              jump\t// in\n            tag_57:\n              mload(0x40)\n              dup1\n              swap2\n              sub\n              swap1\n              return\n                /* \"contracts/lastday/p1.sol\":1949:2116  function printData() public view returns (string memory, string memory, string memory, uint) {... */\n            tag_14:\n              tag_58\n              tag_59\n              jump\t// in\n            tag_58:\n              mload(0x40)\n              tag_60\n              swap5\n              swap4\n              swap3\n              swap2\n              swap1\n              tag_61\n              jump\t// in\n            tag_60:\n              mload(0x40)\n              dup1\n              swap2\n              sub\n              swap1\n              return\n                /* \"contracts/lastday/p1.sol\":1156:1178  string public deptHead */\n            tag_15:\n              tag_62\n              tag_63\n              jump\t// in\n            tag_62:\n              mload(0x40)\n              tag_64\n              swap2\n              swap1\n              tag_23\n              jump\t// in\n            tag_64:\n              mload(0x40)\n              dup1\n              swap2\n              sub\n              swap1\n              return\n                /* \"contracts/lastday/p1.sol\":897:1053  function printHostelDetails() public view returns (string memory, string memory, uint) {... */\n            tag_16:\n              tag_65\n              tag_66\n              jump\t// in\n            tag_65:\n              mload(0x40)\n              tag_67\n              swap4\n              swap3\n              swap2\n              swap1\n              tag_38\n              jump\t// in\n            tag_67:\n              mload(0x40)\n              dup1\n              swap2\n              sub\n              swap1\n              return\n                /* \"contracts/lastday/p1.sol\":403:441  string public hostelLocation = \"Patna\" */\n            tag_21:\n              0x01\n              dup1\n              sload\n              tag_68\n              swap1\n              tag_69\n              jump\t// in\n            tag_68:\n              dup1\n              0x1f\n              add\n              0x20\n              dup1\n              swap2\n              div\n              mul\n              0x20\n              add\n              mload(0x40)\n              swap1\n              dup2\n              add\n              0x40\n              mstore\n              dup1\n              swap3\n              swap2\n              swap1\n              dup2\n              dup2\n              mstore\n              0x20\n              add\n              dup3\n              dup1\n              sload\n              tag_70\n              swap1\n              tag_69\n              jump\t// in\n            tag_70:\n              dup1\n              iszero\n              tag_71\n              jumpi\n              dup1\n              0x1f\n              lt\n              tag_72\n              jumpi\n              0x0100\n              dup1\n              dup4\n              sload\n              div\n              mul\n              dup4\n              mstore\n              swap2\n              0x20\n              add\n              swap2\n              jump(tag_71)\n            tag_72:\n              dup3\n              add\n              swap2\n              swap1\n              0x00\n              mstore\n              keccak256(0x00, 0x20)\n              swap1\n            tag_73:\n              dup2\n              sload\n              dup2\n              mstore\n              swap1\n              0x01\n              add\n              swap1\n              0x20\n              add\n              dup1\n              dup4\n              gt\n              tag_73\n              jumpi\n              dup3\n              swap1\n              sub\n              0x1f\n              and\n              dup3\n              add\n              swap2\n            tag_71:\n              pop\n              pop\n              pop\n              pop\n              pop\n              dup2\n              jump\t// out\n                /* \"contracts/lastday/p1.sol\":2233:2367  function printDeptDetails() public view override returns (string memory, string memory) {... */\n            tag_25:\n                /* \"contracts/lastday/p1.sol\":2291:2304  string memory */\n              0x60\n                /* \"contracts/lastday/p1.sol\":2306:2319  string memory */\n              dup1\n                /* \"contracts/lastday/p1.sol\":2340:2348  deptName */\n              0x03\n                /* \"contracts/lastday/p1.sol\":2350:2358  deptHead */\n              0x04\n                /* \"contracts/lastday/p1.sol\":2332:2359  return (deptName, deptHead) */\n              dup2\n              dup1\n              sload\n              tag_75\n              swap1\n              tag_69\n              jump\t// in\n            tag_75:\n              dup1\n              0x1f\n              add\n              0x20\n              dup1\n              swap2\n              div\n              mul\n              0x20\n              add\n              mload(0x40)\n              swap1\n              dup2\n              add\n              0x40\n              mstore\n              dup1\n              swap3\n              swap2\n              swap1\n              dup2\n              dup2\n              mstore\n              0x20\n              add\n              dup3\n              dup1\n              sload\n              tag_76\n              swap1\n              tag_69\n              jump\t// in\n            tag_76:\n              dup1\n              iszero\n              tag_77\n              jumpi\n              dup1\n              0x1f\n              lt\n              tag_78\n              jumpi\n              0x0100\n              dup1\n              dup4\n              sload\n              div\n              mul\n              dup4\n              mstore\n              swap2\n              0x20\n              add\n              swap2\n              jump(tag_77)\n            tag_78:\n              dup3\n              add\n              swap2\n              swap1\n              0x00\n              mstore\n              keccak256(0x00, 0x20)\n              swap1\n            tag_79:\n              dup2\n              sload\n              dup2\n              mstore\n              swap1\n              0x01\n              add\n              swap1\n              0x20\n              add\n              dup1\n              dup4\n              gt\n              tag_79\n              jumpi\n              dup3\n              swap1\n              sub\n              0x1f\n              and\n              dup3\n              add\n              swap2\n            tag_77:\n              pop\n              pop\n              pop\n              pop\n              pop\n              swap2\n              pop\n              dup1\n              dup1\n              sload\n              tag_80\n              swap1\n              tag_69\n              jump\t// in\n            tag_80:\n              dup1\n              0x1f\n              add\n              0x20\n              dup1\n              swap2\n              div\n              mul\n              0x20\n              add\n              mload(0x40)\n              swap1\n              dup2\n              add\n              0x40\n              mstore\n              dup1\n              swap3\n              swap2\n              swap1\n              dup2\n              dup2\n              mstore\n              0x20\n              add\n              dup3\n              dup1\n              sload\n              tag_81\n              swap1\n              tag_69\n              jump\t// in\n            tag_81:\n              dup1\n              iszero\n              tag_82\n              jumpi\n              dup1\n              0x1f\n              lt\n              tag_83\n              jumpi\n              0x0100\n              dup1\n              dup4\n              sload\n              div\n              mul\n              dup4\n              mstore\n              swap2\n              0x20\n              add\n              swap2\n              jump(tag_82)\n            tag_83:\n              dup3\n              add\n              swap2\n              swap1\n              0x00\n              mstore\n              keccak256(0x00, 0x20)\n              swap1\n            tag_84:\n              dup2\n              sload\n              dup2\n              mstore\n              swap1\n              0x01\n              add\n              swap1\n              0x20\n              add\n              dup1\n              dup4\n              gt\n              tag_84\n              jumpi\n              dup3\n              swap1\n              sub\n              0x1f\n              and\n              dup3\n              add\n              swap2\n            tag_82:\n              pop\n              pop\n              pop\n              pop\n              pop\n              swap1\n              pop\n              swap2\n              pop\n              swap2\n              pop\n                /* \"contracts/lastday/p1.sol\":2233:2367  function printDeptDetails() public view override returns (string memory, string memory) {... */\n              swap1\n              swap2\n              jump\t// out\n                /* \"contracts/lastday/p1.sol\":1223:1243  string public regdNo */\n            tag_29:\n              0x06\n              dup1\n              sload\n              tag_85\n              swap1\n              tag_69\n              jump\t// in\n            tag_85:\n              dup1\n              0x1f\n              add\n              0x20\n              dup1\n              swap2\n              div\n              mul\n              0x20\n              add\n              mload(0x40)\n              swap1\n              dup2\n              add\n              0x40\n              mstore\n              dup1\n              swap3\n              swap2\n              swap1\n              dup2\n              dup2\n              mstore\n              0x20\n              add\n              dup3\n              dup1\n              sload\n              tag_86\n              swap1\n              tag_69\n              jump\t// in\n            tag_86:\n              dup1\n              iszero\n              tag_87\n              jumpi\n              dup1\n              0x1f\n              lt\n              tag_88\n              jumpi\n              0x0100\n              dup1\n              dup4\n              sload\n              div\n              mul\n              dup4\n              mstore\n              swap2\n              0x20\n              add\n              swap2\n              jump(tag_87)\n            tag_88:\n              dup3\n              add\n              swap2\n              swap1\n              0x00\n              mstore\n              keccak256(0x00, 0x20)\n              swap1\n            tag_89:\n              dup2\n              sload\n              dup2\n              mstore\n              swap1\n              0x01\n              add\n              swap1\n              0x20\n              add\n              dup1\n              dup4\n              gt\n              tag_89\n              jumpi\n              dup3\n              swap1\n              sub\n              0x1f\n              and\n              dup3\n              add\n              swap2\n            tag_87:\n              pop\n              pop\n              pop\n              pop\n              pop\n              dup2\n              jump\t// out\n                /* \"contracts/lastday/p1.sol\":475:506  uint public numberOfRooms = 100 */\n            tag_32:\n              sload(0x02)\n              dup2\n              jump\t// out\n                /* \"contracts/lastday/p1.sol\":648:802  function getHostelDetails() public view returns (string memory, string memory, uint) {... */\n            tag_36:\n                /* \"contracts/lastday/p1.sol\":697:710  string memory */\n              0x60\n                /* \"contracts/lastday/p1.sol\":712:725  string memory */\n              dup1\n                /* \"contracts/lastday/p1.sol\":727:731  uint */\n              0x00\n                /* \"contracts/lastday/p1.sol\":752:762  hostelName */\n              dup1\n                /* \"contracts/lastday/p1.sol\":764:778  hostelLocation */\n              0x01\n                /* \"contracts/lastday/p1.sol\":780:793  numberOfRooms */\n              sload(0x02)\n                /* \"contracts/lastday/p1.sol\":744:794  return (hostelName, hostelLocation, numberOfRooms) */\n              dup3\n              dup1\n              sload\n              tag_91\n              swap1\n              tag_69\n              jump\t// in\n            tag_91:\n              dup1\n              0x1f\n              add\n              0x20\n              dup1\n              swap2\n              div\n              mul\n              0x20\n              add\n              mload(0x40)\n              swap1\n              dup2\n              add\n              0x40\n              mstore\n              dup1\n              swap3\n              swap2\n              swap1\n              dup2\n              dup2\n              mstore\n              0x20\n              add\n              dup3\n              dup1\n              sload\n              tag_92\n              swap1\n              tag_69\n              jump\t// in\n            tag_92:\n              dup1\n              iszero\n              tag_93\n              jumpi\n              dup1\n              0x1f\n              lt\n              tag_94\n              jumpi\n              0x0100\n              dup1\n              dup4\n              sload\n              div\n              mul\n              dup4\n              mstore\n              swap2\n              0x20\n              add\n              swap2\n              jump(tag_93)\n            tag_94:\n              dup3\n              add\n              swap2\n              swap1\n              0x00\n              mstore\n              keccak256(0x00, 0x20)\n              swap1\n            tag_95:\n              dup2\n              sload\n              dup2\n              mstore\n              swap1\n              0x01\n              add\n              swap1\n              0x20\n              add\n              dup1\n              dup4\n              gt\n              tag_95\n              jumpi\n              dup3\n              swap1\n              sub\n              0x1f\n              and\n              dup3\n              add\n              swap2\n            tag_93:\n              pop\n              pop\n              pop\n              pop\n              pop\n              swap3\n              pop\n              dup2\n              dup1\n              sload\n              tag_96\n              swap1\n              tag_69\n              jump\t// in\n            tag_96:\n              dup1\n              0x1f\n              add\n              0x20\n              dup1\n              swap2\n              div\n              mul\n              0x20\n              add\n              mload(0x40)\n              swap1\n              dup2\n              add\n              0x40\n              mstore\n              dup1\n              swap3\n              swap2\n              swap1\n              dup2\n              dup2\n              mstore\n              0x20\n              add\n              dup3\n              dup1\n              sload\n              tag_97\n              swap1\n              tag_69\n              jump\t// in\n            tag_97:\n              dup1\n              iszero\n              tag_98\n              jumpi\n              dup1\n              0x1f\n              lt\n              tag_99\n              jumpi\n              0x0100\n              dup1\n              dup4\n              sload\n              div\n              mul\n              dup4\n              mstore\n              swap2\n              0x20\n              add\n              swap2\n              jump(tag_98)\n            tag_99:\n              dup3\n              add\n              swap2\n              swap1\n              0x00\n              mstore\n              keccak256(0x00, 0x20)\n              swap1\n            tag_100:\n              dup2\n              sload\n              dup2\n              mstore\n              swap1\n              0x01\n              add\n              swap1\n              0x20\n              add\n              dup1\n              dup4\n              gt\n              tag_100\n              jumpi\n              dup3\n              swap1\n              sub\n              0x1f\n              and\n              dup3\n              add\n              swap2\n            tag_98:\n              pop\n              pop\n              pop\n              pop\n              pop\n              swap2\n              pop\n              swap3\n              pop\n              swap3\n              pop\n              swap3\n              pop\n                /* \"contracts/lastday/p1.sol\":648:802  function getHostelDetails() public view returns (string memory, string memory, uint) {... */\n              swap1\n              swap2\n              swap3\n              jump\t// out\n                /* \"contracts/lastday/p1.sol\":1191:1216  string public studentName */\n            tag_40:\n              0x05\n              dup1\n              sload\n              tag_101\n              swap1\n              tag_69\n              jump\t// in\n            tag_101:\n              dup1\n              0x1f\n              add\n              0x20\n              dup1\n              swap2\n              div\n              mul\n              0x20\n              add\n              mload(0x40)\n              swap1\n              dup2\n              add\n              0x40\n              mstore\n              dup1\n              swap3\n              swap2\n              swap1\n              dup2\n              dup2\n              mstore\n              0x20\n              add\n              dup3\n              dup1\n              sload\n              tag_102\n              swap1\n              tag_69\n              jump\t// in\n            tag_102:\n              dup1\n              iszero\n              tag_103\n              jumpi\n              dup1\n              0x1f\n              lt\n              tag_104\n              jumpi\n              0x0100\n              dup1\n              dup4\n              sload\n              div\n              mul\n              dup4\n              mstore\n              swap2\n              0x20\n              add\n              swap2\n              jump(tag_103)\n            tag_104:\n              dup3\n              add\n              swap2\n              swap1\n              0x00\n              mstore\n              keccak256(0x00, 0x20)\n              swap1\n            tag_105:\n              dup2\n              sload\n              dup2\n              mstore\n              swap1\n              0x01\n              add\n              swap1\n              0x20\n              add\n              dup1\n              dup4\n              gt\n              tag_105\n              jumpi\n              dup3\n              swap1\n              sub\n              0x1f\n              and\n              dup3\n              add\n              swap2\n            tag_103:\n              pop\n              pop\n              pop\n              pop\n              pop\n              dup2\n              jump\t// out\n                /* \"contracts/lastday/p1.sol\":1127:1149  string public deptName */\n            tag_43:\n              0x03\n              dup1\n              sload\n              tag_106\n              swap1\n              tag_69\n              jump\t// in\n            tag_106:\n              dup1\n              0x1f\n              add\n              0x20\n              dup1\n              swap2\n              div\n              mul\n              0x20\n              add\n              mload(0x40)\n              swap1\n              dup2\n              add\n              0x40\n              mstore\n              dup1\n              swap3\n              swap2\n              swap1\n              dup2\n              dup2\n              mstore\n              0x20\n              add\n              dup3\n              dup1\n              sload\n              tag_107\n              swap1\n              tag_69\n              jump\t// in\n            tag_107:\n              dup1\n              iszero\n              tag_108\n              jumpi\n              dup1\n              0x1f\n              lt\n              tag_109\n              jumpi\n              0x0100\n              dup1\n              dup4\n              sload\n              div\n              mul\n              dup4\n              mstore\n              swap2\n              0x20\n              add\n              swap2\n              jump(tag_108)\n            tag_109:\n              dup3\n              add\n              swap2\n              swap1\n              0x00\n              mstore\n              keccak256(0x00, 0x20)\n              swap1\n            tag_110:\n              dup2\n              sload\n              dup2\n              mstore\n              swap1\n              0x01\n              add\n              swap1\n              0x20\n              add\n              dup1\n              dup4\n              gt\n              tag_110\n              jumpi\n              dup3\n              swap1\n              sub\n              0x1f\n              and\n              dup3\n              add\n              swap2\n            tag_108:\n              pop\n              pop\n              pop\n              pop\n              pop\n              dup2\n              jump\t// out\n                /* \"contracts/lastday/p1.sol\":1589:1860  function getData(string memory _studentName, string memory _regdNo, string memory _electiveSubject, uint _avgMarks) public {... */\n            tag_48:\n                /* \"contracts/lastday/p1.sol\":1737:1749  _studentName */\n              dup4\n                /* \"contracts/lastday/p1.sol\":1723:1734  studentName */\n              0x05\n                /* \"contracts/lastday/p1.sol\":1723:1749  studentName = _studentName */\n              swap1\n              dup2\n              tag_112\n              swap2\n              swap1\n              tag_113\n              jump\t// in\n            tag_112:\n              pop\n                /* \"contracts/lastday/p1.sol\":1769:1776  _regdNo */\n              dup3\n                /* \"contracts/lastday/p1.sol\":1760:1766  regdNo */\n              0x06\n                /* \"contracts/lastday/p1.sol\":1760:1776  regdNo = _regdNo */\n              swap1\n              dup2\n              tag_114\n              swap2\n              swap1\n              tag_113\n              jump\t// in\n            tag_114:\n              pop\n                /* \"contracts/lastday/p1.sol\":1805:1821  _electiveSubject */\n              dup2\n                /* \"contracts/lastday/p1.sol\":1787:1802  electiveSubject */\n              0x07\n                /* \"contracts/lastday/p1.sol\":1787:1821  electiveSubject = _electiveSubject */\n              swap1\n              dup2\n              tag_115\n              swap2\n              swap1\n              tag_113\n              jump\t// in\n            tag_115:\n              pop\n                /* \"contracts/lastday/p1.sol\":1843:1852  _avgMarks */\n              dup1\n                /* \"contracts/lastday/p1.sol\":1832:1840  avgMarks */\n              0x08\n                /* \"contracts/lastday/p1.sol\":1832:1852  avgMarks = _avgMarks */\n              dup2\n              swap1\n              sstore\n              pop\n                /* \"contracts/lastday/p1.sol\":1589:1860  function getData(string memory _studentName, string memory _regdNo, string memory _electiveSubject, uint _avgMarks) public {... */\n              pop\n              pop\n              pop\n              pop\n              jump\t// out\n                /* \"contracts/lastday/p1.sol\":1250:1279  string public electiveSubject */\n            tag_50:\n              0x07\n              dup1\n              sload\n              tag_116\n              swap1\n              tag_69\n              jump\t// in\n            tag_116:\n              dup1\n              0x1f\n              add\n              0x20\n              dup1\n              swap2\n              div\n              mul\n              0x20\n              add\n              mload(0x40)\n              swap1\n              dup2\n              add\n              0x40\n              mstore\n              dup1\n              swap3\n              swap2\n              swap1\n              dup2\n              dup2\n              mstore\n              0x20\n              add\n              dup3\n              dup1\n              sload\n              tag_117\n              swap1\n              tag_69\n              jump\t// in\n            tag_117:\n              dup1\n              iszero\n              tag_118\n              jumpi\n              dup1\n              0x1f\n              lt\n              tag_119\n              jumpi\n              0x0100\n              dup1\n              dup4\n              sload\n              div\n              mul\n              dup4\n              mstore\n              swap2\n              0x20\n              add\n              swap2\n              jump(tag_118)\n            tag_119:\n              dup3\n              add\n              swap2\n              swap1\n              0x00\n              mstore\n              keccak256(0x00, 0x20)\n              swap1\n            tag_120:\n              dup2\n              sload\n              dup2\n              mstore\n              swap1\n              0x01\n              add\n              swap1\n              0x20\n              add\n              dup1\n              dup4\n              gt\n              tag_120\n              jumpi\n              dup3\n              swap1\n              sub\n              0x1f\n              and\n              dup3\n              add\n              swap2\n            tag_118:\n              pop\n              pop\n              pop\n              pop\n              pop\n              dup2\n              jump\t// out\n                /* \"contracts/lastday/p1.sol\":329:374  string public hostelName = \"Deepak ka hostel\" */\n            tag_53:\n              0x00\n              dup1\n              sload\n              tag_121\n              swap1\n              tag_69\n              jump\t// in\n            tag_121:\n              dup1\n              0x1f\n              add\n              0x20\n              dup1\n              swap2\n              div\n              mul\n              0x20\n              add\n              mload(0x40)\n              swap1\n              dup2\n              add\n              0x40\n              mstore\n              dup1\n              swap3\n              swap2\n              swap1\n              dup2\n              dup2\n              mstore\n              0x20\n              add\n              dup3\n              dup1\n              sload\n              tag_122\n              swap1\n              tag_69\n              jump\t// in\n            tag_122:\n              dup1\n              iszero\n              tag_123\n              jumpi\n              dup1\n              0x1f\n              lt\n              tag_124\n              jumpi\n              0x0100\n              dup1\n              dup4\n              sload\n              div\n              mul\n              dup4\n              mstore\n              swap2\n              0x20\n              add\n              swap2\n              jump(tag_123)\n            tag_124:\n              dup3\n              add\n              swap2\n              swap1\n              0x00\n              mstore\n              keccak256(0x00, 0x20)\n              swap1\n            tag_125:\n              dup2\n              sload\n              dup2\n              mstore\n              swap1\n              0x01\n              add\n              swap1\n              0x20\n              add\n              dup1\n              dup4\n              gt\n              tag_125\n              jumpi\n              dup3\n              swap1\n              sub\n              0x1f\n              and\n              dup3\n              add\n              swap2\n            tag_123:\n              pop\n              pop\n              pop\n              pop\n              pop\n              dup2\n              jump\t// out\n                /* \"contracts/lastday/p1.sol\":1286:1306  uint public avgMarks */\n            tag_56:\n              sload(0x08)\n              dup2\n              jump\t// out\n                /* \"contracts/lastday/p1.sol\":1949:2116  function printData() public view returns (string memory, string memory, string memory, uint) {... */\n            tag_59:\n                /* \"contracts/lastday/p1.sol\":1991:2004  string memory */\n              0x60\n                /* \"contracts/lastday/p1.sol\":2006:2019  string memory */\n              dup1\n                /* \"contracts/lastday/p1.sol\":2021:2034  string memory */\n              0x60\n                /* \"contracts/lastday/p1.sol\":2036:2040  uint */\n              0x00\n                /* \"contracts/lastday/p1.sol\":2061:2072  studentName */\n              0x05\n                /* \"contracts/lastday/p1.sol\":2074:2080  regdNo */\n              0x06\n                /* \"contracts/lastday/p1.sol\":2082:2097  electiveSubject */\n              0x07\n                /* \"contracts/lastday/p1.sol\":2099:2107  avgMarks */\n              sload(0x08)\n                /* \"contracts/lastday/p1.sol\":2053:2108  return (studentName, regdNo, electiveSubject, avgMarks) */\n              dup4\n              dup1\n              sload\n              tag_127\n              swap1\n              tag_69\n              jump\t// in\n            tag_127:\n              dup1\n              0x1f\n              add\n              0x20\n              dup1\n              swap2\n              div\n              mul\n              0x20\n              add\n              mload(0x40)\n              swap1\n              dup2\n              add\n              0x40\n              mstore\n              dup1\n              swap3\n              swap2\n              swap1\n              dup2\n              dup2\n              mstore\n              0x20\n              add\n              dup3\n              dup1\n              sload\n              tag_128\n              swap1\n              tag_69\n              jump\t// in\n            tag_128:\n              dup1\n              iszero\n              tag_129\n              jumpi\n              dup1\n              0x1f\n              lt\n              tag_130\n              jumpi\n              0x0100\n              dup1\n              dup4\n              sload\n              div\n              mul\n              dup4\n              mstore\n              swap2\n              0x20\n              add\n              swap2\n              jump(tag_129)\n            tag_130:\n              dup3\n              add\n              swap2\n              swap1\n              0x00\n              mstore\n              keccak256(0x00, 0x20)\n              swap1\n            tag_131:\n              dup2\n              sload\n              dup2\n              mstore\n              swap1\n              0x01\n              add\n              swap1\n              0x20\n              add\n              dup1\n              dup4\n              gt\n              tag_131\n              jumpi\n              dup3\n              swap1\n              sub\n              0x1f\n              and\n              dup3\n              add\n              swap2\n            tag_129:\n              pop\n              pop\n              pop\n              pop\n              pop\n              swap4\n              pop\n              dup3\n              dup1\n              sload\n              tag_132\n              swap1\n              tag_69\n              jump\t// in\n            tag_132:\n              dup1\n              0x1f\n              add\n              0x20\n              dup1\n              swap2\n              div\n              mul\n              0x20\n              add\n              mload(0x40)\n              swap1\n              dup2\n              add\n              0x40\n              mstore\n              dup1\n              swap3\n              swap2\n              swap1\n              dup2\n              dup2\n              mstore\n              0x20\n              add\n              dup3\n              dup1\n              sload\n              tag_133\n              swap1\n              tag_69\n              jump\t// in\n            tag_133:\n              dup1\n              iszero\n              tag_134\n              jumpi\n              dup1\n              0x1f\n              lt\n              tag_135\n              jumpi\n              0x0100\n              dup1\n              dup4\n              sload\n              div\n              mul\n              dup4\n              mstore\n              swap2\n              0x20\n              add\n              swap2\n              jump(tag_134)\n            tag_135:\n              dup3\n              add\n              swap2\n              swap1\n              0x00\n              mstore\n              keccak256(0x00, 0x20)\n              swap1\n            tag_136:\n              dup2\n              sload\n              dup2\n              mstore\n              swap1\n              0x01\n              add\n              swap1\n              0x20\n              add\n              dup1\n              dup4\n              gt\n              tag_136\n              jumpi\n              dup3\n              swap1\n              sub\n              0x1f\n              and\n              dup3\n              add\n              swap2\n            tag_134:\n              pop\n              pop\n              pop\n              pop\n              pop\n              swap3\n              pop\n              dup2\n              dup1\n              sload\n              tag_137\n              swap1\n              tag_69\n              jump\t// in\n            tag_137:\n              dup1\n              0x1f\n              add\n              0x20\n              dup1\n              swap2\n              div\n              mul\n              0x20\n              add\n              mload(0x40)\n              swap1\n              dup2\n              add\n              0x40\n              mstore\n              dup1\n              swap3\n              swap2\n              swap1\n              dup2\n              dup2\n              mstore\n              0x20\n              add\n              dup3\n              dup1\n              sload\n              tag_138\n              swap1\n              tag_69\n              jump\t// in\n            tag_138:\n              dup1\n              iszero\n              tag_139\n              jumpi\n              dup1\n              0x1f\n              lt\n              tag_140\n              jumpi\n              0x0100\n              dup1\n              dup4\n              sload\n              div\n              mul\n              dup4\n              mstore\n              swap2\n              0x20\n              add\n              swap2\n              jump(tag_139)\n            tag_140:\n              dup3\n              add\n              swap2\n              swap1\n              0x00\n              mstore\n              keccak256(0x00, 0x20)\n              swap1\n            tag_141:\n              dup2\n              sload\n              dup2\n              mstore\n              swap1\n              0x01\n              add\n              swap1\n              0x20\n              add\n              dup1\n              dup4\n              gt\n              tag_141\n              jumpi\n              dup3\n              swap1\n              sub\n              0x1f\n              and\n              dup3\n              add\n              swap2\n            tag_139:\n              pop\n              pop\n              pop\n              pop\n              pop\n              swap2\n              pop\n              swap4\n              pop\n              swap4\n              pop\n              swap4\n              pop\n              swap4\n              pop\n                /* \"contracts/lastday/p1.sol\":1949:2116  function printData() public view returns (string memory, string memory, string memory, uint) {... */\n              swap1\n              swap2\n              swap3\n              swap4\n              jump\t// out\n                /* \"contracts/lastday/p1.sol\":1156:1178  string public deptHead */\n            tag_63:\n              0x04\n              dup1\n              sload\n              tag_142\n              swap1\n              tag_69\n              jump\t// in\n            tag_142:\n              dup1\n              0x1f\n              add\n              0x20\n              dup1\n              swap2\n              div\n              mul\n              0x20\n              add\n              mload(0x40)\n              swap1\n              dup2\n              add\n              0x40\n              mstore\n              dup1\n              swap3\n              swap2\n              swap1\n              dup2\n              dup2\n              mstore\n              0x20\n              add\n              dup3\n              dup1\n              sload\n              tag_143\n              swap1\n              tag_69\n              jump\t// in\n            tag_143:\n              dup1\n              iszero\n              tag_144\n              jumpi\n              dup1\n              0x1f\n              lt\n              tag_145\n              jumpi\n              0x0100\n              dup1\n              dup4\n              sload\n              div\n              mul\n              dup4\n              mstore\n              swap2\n              0x20\n              add\n              swap2\n              jump(tag_144)\n            tag_145:\n              dup3\n              add\n              swap2\n              swap1\n              0x00\n              mstore\n              keccak256(0x00, 0x20)\n              swap1\n            tag_146:\n              dup2\n              sload\n              dup2\n              mstore\n              swap1\n              0x01\n              add\n              swap1\n              0x20\n              add\n              dup1\n              dup4\n              gt\n              tag_146\n              jumpi\n              dup3\n              swap1\n              sub\n              0x1f\n              and\n              dup3\n              add\n              swap2\n            tag_144:\n              pop\n              pop\n              pop\n              pop\n              pop\n              dup2\n              jump\t// out\n                /* \"contracts/lastday/p1.sol\":897:1053  function printHostelDetails() public view returns (string memory, string memory, uint) {... */\n            tag_66:\n                /* \"contracts/lastday/p1.sol\":948:961  string memory */\n              0x60\n                /* \"contracts/lastday/p1.sol\":963:976  string memory */\n              dup1\n                /* \"contracts/lastday/p1.sol\":978:982  uint */\n              0x00\n                /* \"contracts/lastday/p1.sol\":1003:1013  hostelName */\n              dup1\n                /* \"contracts/lastday/p1.sol\":1015:1029  hostelLocation */\n              0x01\n                /* \"contracts/lastday/p1.sol\":1031:1044  numberOfRooms */\n              sload(0x02)\n                /* \"contracts/lastday/p1.sol\":995:1045  return (hostelName, hostelLocation, numberOfRooms) */\n              dup3\n              dup1\n              sload\n              tag_148\n              swap1\n              tag_69\n              jump\t// in\n            tag_148:\n              dup1\n              0x1f\n              add\n              0x20\n              dup1\n              swap2\n              div\n              mul\n              0x20\n              add\n              mload(0x40)\n              swap1\n              dup2\n              add\n              0x40\n              mstore\n              dup1\n              swap3\n              swap2\n              swap1\n              dup2\n              dup2\n              mstore\n              0x20\n              add\n              dup3\n              dup1\n              sload\n              tag_149\n              swap1\n              tag_69\n              jump\t// in\n            tag_149:\n              dup1\n              iszero\n              tag_150\n              jumpi\n              dup1\n              0x1f\n              lt\n              tag_151\n              jumpi\n              0x0100\n              dup1\n              dup4\n              sload\n              div\n              mul\n              dup4\n              mstore\n              swap2\n              0x20\n              add\n              swap2\n              jump(tag_150)\n            tag_151:\n              dup3\n              add\n              swap2\n              swap1\n              0x00\n              mstore\n              keccak256(0x00, 0x20)\n              swap1\n            tag_152:\n              dup2\n              sload\n              dup2\n              mstore\n              swap1\n              0x01\n              add\n              swap1\n              0x20\n              add\n              dup1\n              dup4\n              gt\n              tag_152\n              jumpi\n              dup3\n              swap1\n              sub\n              0x1f\n              and\n              dup3\n              add\n              swap2\n            tag_150:\n              pop\n              pop\n              pop\n              pop\n              pop\n              swap3\n              pop\n              dup2\n              dup1\n              sload\n              tag_153\n              swap1\n              tag_69\n              jump\t// in\n            tag_153:\n              dup1\n              0x1f\n              add\n              0x20\n              dup1\n              swap2\n              div\n              mul\n              0x20\n              add\n              mload(0x40)\n              swap1\n              dup2\n              add\n              0x40\n              mstore\n              dup1\n              swap3\n              swap2\n              swap1\n              dup2\n              dup2\n              mstore\n              0x20\n              add\n              dup3\n              dup1\n              sload\n              tag_154\n              swap1\n              tag_69\n              jump\t// in\n            tag_154:\n              dup1\n              iszero\n              tag_155\n              jumpi\n              dup1\n              0x1f\n              lt\n              tag_156\n              jumpi\n              0x0100\n              dup1\n              dup4\n              sload\n              div\n              mul\n              dup4\n              mstore\n              swap2\n              0x20\n              add\n              swap2\n              jump(tag_155)\n            tag_156:\n              dup3\n              add\n              swap2\n              swap1\n              0x00\n              mstore\n              keccak256(0x00, 0x20)\n              swap1\n            tag_157:\n              dup2\n              sload\n              dup2\n              mstore\n              swap1\n              0x01\n              add\n              swap1\n              0x20\n              add\n              dup1\n              dup4\n              gt\n              tag_157\n              jumpi\n              dup3\n              swap1\n              sub\n              0x1f\n              and\n              dup3\n              add\n              swap2\n            tag_155:\n              pop\n              pop\n              pop\n              pop\n              pop\n              swap2\n              pop\n              swap3\n              pop\n              swap3\n              pop\n              swap3\n              pop\n                /* \"contracts/lastday/p1.sol\":897:1053  function printHostelDetails() public view returns (string memory, string memory, uint) {... */\n              swap1\n              swap2\n              swap3\n              jump\t// out\n                /* \"#utility.yul\":7:106   */\n            tag_158:\n                /* \"#utility.yul\":59:65   */\n              0x00\n                /* \"#utility.yul\":93:98   */\n              dup2\n                /* \"#utility.yul\":87:99   */\n              mload\n                /* \"#utility.yul\":77:99   */\n              swap1\n              pop\n                /* \"#utility.yul\":7:106   */\n              swap2\n              swap1\n              pop\n              jump\t// out\n                /* \"#utility.yul\":112:281   */\n            tag_159:\n                /* \"#utility.yul\":196:207   */\n              0x00\n                /* \"#utility.yul\":230:236   */\n              dup3\n                /* \"#utility.yul\":225:228   */\n              dup3\n                /* \"#utility.yul\":218:237   */\n              mstore\n                /* \"#utility.yul\":270:274   */\n              0x20\n                /* \"#utility.yul\":265:268   */\n              dup3\n                /* \"#utility.yul\":261:275   */\n              add\n                /* \"#utility.yul\":246:275   */\n              swap1\n              pop\n                /* \"#utility.yul\":112:281   */\n              swap3\n              swap2\n              pop\n              pop\n              jump\t// out\n                /* \"#utility.yul\":287:426   */\n            tag_160:\n                /* \"#utility.yul\":376:382   */\n              dup3\n                /* \"#utility.yul\":371:374   */\n              dup2\n                /* \"#utility.yul\":366:369   */\n              dup4\n                /* \"#utility.yul\":360:383   */\n              mcopy\n                /* \"#utility.yul\":417:418   */\n              0x00\n                /* \"#utility.yul\":408:414   */\n              dup4\n                /* \"#utility.yul\":403:406   */\n              dup4\n                /* \"#utility.yul\":399:415   */\n              add\n                /* \"#utility.yul\":392:419   */\n              mstore\n                /* \"#utility.yul\":287:426   */\n              pop\n              pop\n              pop\n              jump\t// out\n                /* \"#utility.yul\":432:534   */\n            tag_161:\n                /* \"#utility.yul\":473:479   */\n              0x00\n                /* \"#utility.yul\":524:526   */\n              0x1f\n                /* \"#utility.yul\":520:527   */\n              not\n                /* \"#utility.yul\":515:517   */\n              0x1f\n                /* \"#utility.yul\":508:513   */\n              dup4\n                /* \"#utility.yul\":504:518   */\n              add\n                /* \"#utility.yul\":500:528   */\n              and\n                /* \"#utility.yul\":490:528   */\n              swap1\n              pop\n                /* \"#utility.yul\":432:534   */\n              swap2\n              swap1\n              pop\n              jump\t// out\n                /* \"#utility.yul\":540:917   */\n            tag_162:\n                /* \"#utility.yul\":628:631   */\n              0x00\n                /* \"#utility.yul\":656:695   */\n              tag_201\n                /* \"#utility.yul\":689:694   */\n              dup3\n                /* \"#utility.yul\":656:695   */\n              tag_158\n              jump\t// in\n            tag_201:\n                /* \"#utility.yul\":711:782   */\n              tag_202\n                /* \"#utility.yul\":775:781   */\n              dup2\n                /* \"#utility.yul\":770:773   */\n              dup6\n                /* \"#utility.yul\":711:782   */\n              tag_159\n              jump\t// in\n            tag_202:\n                /* \"#utility.yul\":704:782   */\n              swap4\n              pop\n                /* \"#utility.yul\":791:856   */\n              tag_203\n                /* \"#utility.yul\":849:855   */\n              dup2\n                /* \"#utility.yul\":844:847   */\n              dup6\n                /* \"#utility.yul\":837:841   */\n              0x20\n                /* \"#utility.yul\":830:835   */\n              dup7\n                /* \"#utility.yul\":826:842   */\n              add\n                /* \"#utility.yul\":791:856   */\n              tag_160\n              jump\t// in\n            tag_203:\n                /* \"#utility.yul\":881:910   */\n              tag_204\n                /* \"#utility.yul\":903:909   */\n              dup2\n                /* \"#utility.yul\":881:910   */\n              tag_161\n              jump\t// in\n            tag_204:\n                /* \"#utility.yul\":876:879   */\n              dup5\n                /* \"#utility.yul\":872:911   */\n              add\n                /* \"#utility.yul\":865:911   */\n              swap2\n              pop\n                /* \"#utility.yul\":632:917   */\n              pop\n                /* \"#utility.yul\":540:917   */\n              swap3\n              swap2\n              pop\n              pop\n              jump\t// out\n                /* \"#utility.yul\":923:1236   */\n            tag_23:\n                /* \"#utility.yul\":1036:1040   */\n              0x00\n                /* \"#utility.yul\":1074:1076   */\n              0x20\n                /* \"#utility.yul\":1063:1072   */\n              dup3\n                /* \"#utility.yul\":1059:1077   */\n              add\n                /* \"#utility.yul\":1051:1077   */\n              swap1\n              pop\n                /* \"#utility.yul\":1123:1132   */\n              dup2\n                /* \"#utility.yul\":1117:1121   */\n              dup2\n                /* \"#utility.yul\":1113:1133   */\n              sub\n                /* \"#utility.yul\":1109:1110   */\n              0x00\n                /* \"#utility.yul\":1098:1107   */\n              dup4\n                /* \"#utility.yul\":1094:1111   */\n              add\n                /* \"#utility.yul\":1087:1134   */\n              mstore\n                /* \"#utility.yul\":1151:1229   */\n              tag_206\n                /* \"#utility.yul\":1224:1228   */\n              dup2\n                /* \"#utility.yul\":1215:1221   */\n              dup5\n                /* \"#utility.yul\":1151:1229   */\n              tag_162\n              jump\t// in\n            tag_206:\n                /* \"#utility.yul\":1143:1229   */\n              swap1\n              pop\n                /* \"#utility.yul\":923:1236   */\n              swap3\n              swap2\n              pop\n              pop\n              jump\t// out\n                /* \"#utility.yul\":1242:1756   */\n            tag_27:\n                /* \"#utility.yul\":1403:1407   */\n              0x00\n                /* \"#utility.yul\":1441:1443   */\n              0x40\n                /* \"#utility.yul\":1430:1439   */\n              dup3\n                /* \"#utility.yul\":1426:1444   */\n              add\n                /* \"#utility.yul\":1418:1444   */\n              swap1\n              pop\n                /* \"#utility.yul\":1490:1499   */\n              dup2\n                /* \"#utility.yul\":1484:1488   */\n              dup2\n                /* \"#utility.yul\":1480:1500   */\n              sub\n                /* \"#utility.yul\":1476:1477   */\n              0x00\n                /* \"#utility.yul\":1465:1474   */\n              dup4\n                /* \"#utility.yul\":1461:1478   */\n              add\n                /* \"#utility.yul\":1454:1501   */\n              mstore\n                /* \"#utility.yul\":1518:1596   */\n              tag_208\n                /* \"#utility.yul\":1591:1595   */\n              dup2\n                /* \"#utility.yul\":1582:1588   */\n              dup6\n                /* \"#utility.yul\":1518:1596   */\n              tag_162\n              jump\t// in\n            tag_208:\n                /* \"#utility.yul\":1510:1596   */\n              swap1\n              pop\n                /* \"#utility.yul\":1643:1652   */\n              dup2\n                /* \"#utility.yul\":1637:1641   */\n              dup2\n                /* \"#utility.yul\":1633:1653   */\n              sub\n                /* \"#utility.yul\":1628:1630   */\n              0x20\n                /* \"#utility.yul\":1617:1626   */\n              dup4\n                /* \"#utility.yul\":1613:1631   */\n              add\n                /* \"#utility.yul\":1606:1654   */\n              mstore\n                /* \"#utility.yul\":1671:1749   */\n              tag_209\n                /* \"#utility.yul\":1744:1748   */\n              dup2\n                /* \"#utility.yul\":1735:1741   */\n              dup5\n                /* \"#utility.yul\":1671:1749   */\n              tag_162\n              jump\t// in\n            tag_209:\n                /* \"#utility.yul\":1663:1749   */\n              swap1\n              pop\n                /* \"#utility.yul\":1242:1756   */\n              swap4\n              swap3\n              pop\n              pop\n              pop\n              jump\t// out\n                /* \"#utility.yul\":1762:1839   */\n            tag_163:\n                /* \"#utility.yul\":1799:1806   */\n              0x00\n                /* \"#utility.yul\":1828:1833   */\n              dup2\n                /* \"#utility.yul\":1817:1833   */\n              swap1\n              pop\n                /* \"#utility.yul\":1762:1839   */\n              swap2\n              swap1\n              pop\n              jump\t// out\n                /* \"#utility.yul\":1845:1963   */\n            tag_164:\n                /* \"#utility.yul\":1932:1956   */\n              tag_212\n                /* \"#utility.yul\":1950:1955   */\n              dup2\n                /* \"#utility.yul\":1932:1956   */\n              tag_163\n              jump\t// in\n            tag_212:\n                /* \"#utility.yul\":1927:1930   */\n              dup3\n                /* \"#utility.yul\":1920:1957   */\n              mstore\n                /* \"#utility.yul\":1845:1963   */\n              pop\n              pop\n              jump\t// out\n                /* \"#utility.yul\":1969:2191   */\n            tag_34:\n                /* \"#utility.yul\":2062:2066   */\n              0x00\n                /* \"#utility.yul\":2100:2102   */\n              0x20\n                /* \"#utility.yul\":2089:2098   */\n              dup3\n                /* \"#utility.yul\":2085:2103   */\n              add\n                /* \"#utility.yul\":2077:2103   */\n              swap1\n              pop\n                /* \"#utility.yul\":2113:2184   */\n              tag_214\n                /* \"#utility.yul\":2181:2182   */\n              0x00\n                /* \"#utility.yul\":2170:2179   */\n              dup4\n                /* \"#utility.yul\":2166:2183   */\n              add\n                /* \"#utility.yul\":2157:2163   */\n              dup5\n                /* \"#utility.yul\":2113:2184   */\n              tag_164\n              jump\t// in\n            tag_214:\n                /* \"#utility.yul\":1969:2191   */\n              swap3\n              swap2\n              pop\n              pop\n              jump\t// out\n                /* \"#utility.yul\":2197:2821   */\n            tag_38:\n                /* \"#utility.yul\":2386:2390   */\n              0x00\n                /* \"#utility.yul\":2424:2426   */\n              0x60\n                /* \"#utility.yul\":2413:2422   */\n              dup3\n                /* \"#utility.yul\":2409:2427   */\n              add\n                /* \"#utility.yul\":2401:2427   */\n              swap1\n              pop\n                /* \"#utility.yul\":2473:2482   */\n              dup2\n                /* \"#utility.yul\":2467:2471   */\n              dup2\n                /* \"#utility.yul\":2463:2483   */\n              sub\n                /* \"#utility.yul\":2459:2460   */\n              0x00\n                /* \"#utility.yul\":2448:2457   */\n              dup4\n                /* \"#utility.yul\":2444:2461   */\n              add\n                /* \"#utility.yul\":2437:2484   */\n              mstore\n                /* \"#utility.yul\":2501:2579   */\n              tag_216\n                /* \"#utility.yul\":2574:2578   */\n              dup2\n                /* \"#utility.yul\":2565:2571   */\n              dup7\n                /* \"#utility.yul\":2501:2579   */\n              tag_162\n              jump\t// in\n            tag_216:\n                /* \"#utility.yul\":2493:2579   */\n              swap1\n              pop\n                /* \"#utility.yul\":2626:2635   */\n              dup2\n                /* \"#utility.yul\":2620:2624   */\n              dup2\n                /* \"#utility.yul\":2616:2636   */\n              sub\n                /* \"#utility.yul\":2611:2613   */\n              0x20\n                /* \"#utility.yul\":2600:2609   */\n              dup4\n                /* \"#utility.yul\":2596:2614   */\n              add\n                /* \"#utility.yul\":2589:2637   */\n              mstore\n                /* \"#utility.yul\":2654:2732   */\n              tag_217\n                /* \"#utility.yul\":2727:2731   */\n              dup2\n                /* \"#utility.yul\":2718:2724   */\n              dup6\n                /* \"#utility.yul\":2654:2732   */\n              tag_162\n              jump\t// in\n            tag_217:\n                /* \"#utility.yul\":2646:2732   */\n              swap1\n              pop\n                /* \"#utility.yul\":2742:2814   */\n              tag_218\n                /* \"#utility.yul\":2810:2812   */\n              0x40\n                /* \"#utility.yul\":2799:2808   */\n              dup4\n                /* \"#utility.yul\":2795:2813   */\n              add\n                /* \"#utility.yul\":2786:2792   */\n              dup5\n                /* \"#utility.yul\":2742:2814   */\n              tag_164\n              jump\t// in\n            tag_218:\n                /* \"#utility.yul\":2197:2821   */\n              swap5\n              swap4\n              pop\n              pop\n              pop\n              pop\n              jump\t// out\n                /* \"#utility.yul\":2827:2902   */\n            tag_165:\n                /* \"#utility.yul\":2860:2866   */\n              0x00\n                /* \"#utility.yul\":2893:2895   */\n              0x40\n                /* \"#utility.yul\":2887:2896   */\n              mload\n                /* \"#utility.yul\":2877:2896   */\n              swap1\n              pop\n                /* \"#utility.yul\":2827:2902   */\n              swap1\n              jump\t// out\n                /* \"#utility.yul\":2908:3025   */\n            tag_166:\n                /* \"#utility.yul\":3017:3018   */\n              0x00\n                /* \"#utility.yul\":3014:3015   */\n              dup1\n                /* \"#utility.yul\":3007:3019   */\n              revert\n                /* \"#utility.yul\":3031:3148   */\n            tag_167:\n                /* \"#utility.yul\":3140:3141   */\n              0x00\n                /* \"#utility.yul\":3137:3138   */\n              dup1\n                /* \"#utility.yul\":3130:3142   */\n              revert\n                /* \"#utility.yul\":3154:3271   */\n            tag_168:\n                /* \"#utility.yul\":3263:3264   */\n              0x00\n                /* \"#utility.yul\":3260:3261   */\n              dup1\n                /* \"#utility.yul\":3253:3265   */\n              revert\n                /* \"#utility.yul\":3277:3394   */\n            tag_169:\n                /* \"#utility.yul\":3386:3387   */\n              0x00\n                /* \"#utility.yul\":3383:3384   */\n              dup1\n                /* \"#utility.yul\":3376:3388   */\n              revert\n                /* \"#utility.yul\":3400:3580   */\n            tag_170:\n                /* \"#utility.yul\":3448:3525   */\n              0x4e487b7100000000000000000000000000000000000000000000000000000000\n                /* \"#utility.yul\":3445:3446   */\n              0x00\n                /* \"#utility.yul\":3438:3526   */\n              mstore\n                /* \"#utility.yul\":3545:3549   */\n              0x41\n                /* \"#utility.yul\":3542:3543   */\n              0x04\n                /* \"#utility.yul\":3535:3550   */\n              mstore\n                /* \"#utility.yul\":3569:3573   */\n              0x24\n                /* \"#utility.yul\":3566:3567   */\n              0x00\n                /* \"#utility.yul\":3559:3574   */\n              revert\n                /* \"#utility.yul\":3586:3867   */\n            tag_171:\n                /* \"#utility.yul\":3669:3696   */\n              tag_226\n                /* \"#utility.yul\":3691:3695   */\n              dup3\n                /* \"#utility.yul\":3669:3696   */\n              tag_161\n              jump\t// in\n            tag_226:\n                /* \"#utility.yul\":3661:3667   */\n              dup2\n                /* \"#utility.yul\":3657:3697   */\n              add\n                /* \"#utility.yul\":3799:3805   */\n              dup2\n                /* \"#utility.yul\":3787:3797   */\n              dup2\n                /* \"#utility.yul\":3784:3806   */\n              lt\n                /* \"#utility.yul\":3763:3781   */\n              0xffffffffffffffff\n                /* \"#utility.yul\":3751:3761   */\n              dup3\n                /* \"#utility.yul\":3748:3782   */\n              gt\n                /* \"#utility.yul\":3745:3807   */\n              or\n                /* \"#utility.yul\":3742:3830   */\n              iszero\n              tag_227\n              jumpi\n                /* \"#utility.yul\":3810:3828   */\n              tag_228\n              tag_170\n              jump\t// in\n            tag_228:\n                /* \"#utility.yul\":3742:3830   */\n            tag_227:\n                /* \"#utility.yul\":3850:3860   */\n              dup1\n                /* \"#utility.yul\":3846:3848   */\n              0x40\n                /* \"#utility.yul\":3839:3861   */\n              mstore\n                /* \"#utility.yul\":3629:3867   */\n              pop\n                /* \"#utility.yul\":3586:3867   */\n              pop\n              pop\n              jump\t// out\n                /* \"#utility.yul\":3873:4002   */\n            tag_172:\n                /* \"#utility.yul\":3907:3913   */\n              0x00\n                /* \"#utility.yul\":3934:3954   */\n              tag_230\n              tag_165\n              jump\t// in\n            tag_230:\n                /* \"#utility.yul\":3924:3954   */\n              swap1\n              pop\n                /* \"#utility.yul\":3963:3996   */\n              tag_231\n                /* \"#utility.yul\":3991:3995   */\n              dup3\n                /* \"#utility.yul\":3983:3989   */\n              dup3\n                /* \"#utility.yul\":3963:3996   */\n              tag_171\n              jump\t// in\n            tag_231:\n                /* \"#utility.yul\":3873:4002   */\n              swap2\n              swap1\n              pop\n              jump\t// out\n                /* \"#utility.yul\":4008:4316   */\n            tag_173:\n                /* \"#utility.yul\":4070:4074   */\n              0x00\n                /* \"#utility.yul\":4160:4178   */\n              0xffffffffffffffff\n                /* \"#utility.yul\":4152:4158   */\n              dup3\n                /* \"#utility.yul\":4149:4179   */\n              gt\n                /* \"#utility.yul\":4146:4202   */\n              iszero\n              tag_233\n              jumpi\n                /* \"#utility.yul\":4182:4200   */\n              tag_234\n              tag_170\n              jump\t// in\n            tag_234:\n                /* \"#utility.yul\":4146:4202   */\n            tag_233:\n                /* \"#utility.yul\":4220:4249   */\n              tag_235\n                /* \"#utility.yul\":4242:4248   */\n              dup3\n                /* \"#utility.yul\":4220:4249   */\n              tag_161\n              jump\t// in\n            tag_235:\n                /* \"#utility.yul\":4212:4249   */\n              swap1\n              pop\n                /* \"#utility.yul\":4304:4308   */\n              0x20\n                /* \"#utility.yul\":4298:4302   */\n              dup2\n                /* \"#utility.yul\":4294:4309   */\n              add\n                /* \"#utility.yul\":4286:4309   */\n              swap1\n              pop\n                /* \"#utility.yul\":4008:4316   */\n              swap2\n              swap1\n              pop\n              jump\t// out\n                /* \"#utility.yul\":4322:4470   */\n            tag_174:\n                /* \"#utility.yul\":4420:4426   */\n              dup3\n                /* \"#utility.yul\":4415:4418   */\n              dup2\n                /* \"#utility.yul\":4410:4413   */\n              dup4\n                /* \"#utility.yul\":4397:4427   */\n              calldatacopy\n                /* \"#utility.yul\":4461:4462   */\n              0x00\n                /* \"#utility.yul\":4452:4458   */\n              dup4\n                /* \"#utility.yul\":4447:4450   */\n              dup4\n                /* \"#utility.yul\":4443:4459   */\n              add\n                /* \"#utility.yul\":4436:4463   */\n              mstore\n                /* \"#utility.yul\":4322:4470   */\n              pop\n              pop\n              pop\n              jump\t// out\n                /* \"#utility.yul\":4476:4901   */\n            tag_175:\n                /* \"#utility.yul\":4554:4559   */\n              0x00\n                /* \"#utility.yul\":4579:4645   */\n              tag_238\n                /* \"#utility.yul\":4595:4644   */\n              tag_239\n                /* \"#utility.yul\":4637:4643   */\n              dup5\n                /* \"#utility.yul\":4595:4644   */\n              tag_173\n              jump\t// in\n            tag_239:\n                /* \"#utility.yul\":4579:4645   */\n              tag_172\n              jump\t// in\n            tag_238:\n                /* \"#utility.yul\":4570:4645   */\n              swap1\n              pop\n                /* \"#utility.yul\":4668:4674   */\n              dup3\n                /* \"#utility.yul\":4661:4666   */\n              dup2\n                /* \"#utility.yul\":4654:4675   */\n              mstore\n                /* \"#utility.yul\":4706:4710   */\n              0x20\n                /* \"#utility.yul\":4699:4704   */\n              dup2\n                /* \"#utility.yul\":4695:4711   */\n              add\n                /* \"#utility.yul\":4744:4747   */\n              dup5\n                /* \"#utility.yul\":4735:4741   */\n              dup5\n                /* \"#utility.yul\":4730:4733   */\n              dup5\n                /* \"#utility.yul\":4726:4742   */\n              add\n                /* \"#utility.yul\":4723:4748   */\n              gt\n                /* \"#utility.yul\":4720:4832   */\n              iszero\n              tag_240\n              jumpi\n                /* \"#utility.yul\":4751:4830   */\n              tag_241\n              tag_169\n              jump\t// in\n            tag_241:\n                /* \"#utility.yul\":4720:4832   */\n            tag_240:\n                /* \"#utility.yul\":4841:4895   */\n              tag_242\n                /* \"#utility.yul\":4888:4894   */\n              dup5\n                /* \"#utility.yul\":4883:4886   */\n              dup3\n                /* \"#utility.yul\":4878:4881   */\n              dup6\n                /* \"#utility.yul\":4841:4895   */\n              tag_174\n              jump\t// in\n            tag_242:\n                /* \"#utility.yul\":4560:4901   */\n              pop\n                /* \"#utility.yul\":4476:4901   */\n              swap4\n              swap3\n              pop\n              pop\n              pop\n              jump\t// out\n                /* \"#utility.yul\":4921:5261   */\n            tag_176:\n                /* \"#utility.yul\":4977:4982   */\n              0x00\n                /* \"#utility.yul\":5026:5029   */\n              dup3\n                /* \"#utility.yul\":5019:5023   */\n              0x1f\n                /* \"#utility.yul\":5011:5017   */\n              dup4\n                /* \"#utility.yul\":5007:5024   */\n              add\n                /* \"#utility.yul\":5003:5030   */\n              slt\n                /* \"#utility.yul\":4993:5115   */\n              tag_244\n              jumpi\n                /* \"#utility.yul\":5034:5113   */\n              tag_245\n              tag_168\n              jump\t// in\n            tag_245:\n                /* \"#utility.yul\":4993:5115   */\n            tag_244:\n                /* \"#utility.yul\":5151:5157   */\n              dup2\n                /* \"#utility.yul\":5138:5158   */\n              calldataload\n                /* \"#utility.yul\":5176:5255   */\n              tag_246\n                /* \"#utility.yul\":5251:5254   */\n              dup5\n                /* \"#utility.yul\":5243:5249   */\n              dup3\n                /* \"#utility.yul\":5236:5240   */\n              0x20\n                /* \"#utility.yul\":5228:5234   */\n              dup7\n                /* \"#utility.yul\":5224:5241   */\n              add\n                /* \"#utility.yul\":5176:5255   */\n              tag_175\n              jump\t// in\n            tag_246:\n                /* \"#utility.yul\":5167:5255   */\n              swap2\n              pop\n                /* \"#utility.yul\":4983:5261   */\n              pop\n                /* \"#utility.yul\":4921:5261   */\n              swap3\n              swap2\n              pop\n              pop\n              jump\t// out\n                /* \"#utility.yul\":5267:5389   */\n            tag_177:\n                /* \"#utility.yul\":5340:5364   */\n              tag_248\n                /* \"#utility.yul\":5358:5363   */\n              dup2\n                /* \"#utility.yul\":5340:5364   */\n              tag_163\n              jump\t// in\n            tag_248:\n                /* \"#utility.yul\":5333:5338   */\n              dup2\n                /* \"#utility.yul\":5330:5365   */\n              eq\n                /* \"#utility.yul\":5320:5383   */\n              tag_249\n              jumpi\n                /* \"#utility.yul\":5379:5380   */\n              0x00\n                /* \"#utility.yul\":5376:5377   */\n              dup1\n                /* \"#utility.yul\":5369:5381   */\n              revert\n                /* \"#utility.yul\":5320:5383   */\n            tag_249:\n                /* \"#utility.yul\":5267:5389   */\n              pop\n              jump\t// out\n                /* \"#utility.yul\":5395:5534   */\n            tag_178:\n                /* \"#utility.yul\":5441:5446   */\n              0x00\n                /* \"#utility.yul\":5479:5485   */\n              dup2\n                /* \"#utility.yul\":5466:5486   */\n              calldataload\n                /* \"#utility.yul\":5457:5486   */\n              swap1\n              pop\n                /* \"#utility.yul\":5495:5528   */\n              tag_251\n                /* \"#utility.yul\":5522:5527   */\n              dup2\n                /* \"#utility.yul\":5495:5528   */\n              tag_177\n              jump\t// in\n            tag_251:\n                /* \"#utility.yul\":5395:5534   */\n              swap3\n              swap2\n              pop\n              pop\n              jump\t// out\n                /* \"#utility.yul\":5540:6845   */\n            tag_47:\n                /* \"#utility.yul\":5656:5662   */\n              0x00\n                /* \"#utility.yul\":5664:5670   */\n              dup1\n                /* \"#utility.yul\":5672:5678   */\n              0x00\n                /* \"#utility.yul\":5680:5686   */\n              dup1\n                /* \"#utility.yul\":5729:5732   */\n              0x80\n                /* \"#utility.yul\":5717:5726   */\n              dup6\n                /* \"#utility.yul\":5708:5715   */\n              dup8\n                /* \"#utility.yul\":5704:5727   */\n              sub\n                /* \"#utility.yul\":5700:5733   */\n              slt\n                /* \"#utility.yul\":5697:5817   */\n              iszero\n              tag_253\n              jumpi\n                /* \"#utility.yul\":5736:5815   */\n              tag_254\n              tag_166\n              jump\t// in\n            tag_254:\n                /* \"#utility.yul\":5697:5817   */\n            tag_253:\n                /* \"#utility.yul\":5884:5885   */\n              0x00\n                /* \"#utility.yul\":5873:5882   */\n              dup6\n                /* \"#utility.yul\":5869:5886   */\n              add\n                /* \"#utility.yul\":5856:5887   */\n              calldataload\n                /* \"#utility.yul\":5914:5932   */\n              0xffffffffffffffff\n                /* \"#utility.yul\":5906:5912   */\n              dup2\n                /* \"#utility.yul\":5903:5933   */\n              gt\n                /* \"#utility.yul\":5900:6017   */\n              iszero\n              tag_255\n              jumpi\n                /* \"#utility.yul\":5936:6015   */\n              tag_256\n              tag_167\n              jump\t// in\n            tag_256:\n                /* \"#utility.yul\":5900:6017   */\n            tag_255:\n                /* \"#utility.yul\":6041:6104   */\n              tag_257\n                /* \"#utility.yul\":6096:6103   */\n              dup8\n                /* \"#utility.yul\":6087:6093   */\n              dup3\n                /* \"#utility.yul\":6076:6085   */\n              dup9\n                /* \"#utility.yul\":6072:6094   */\n              add\n                /* \"#utility.yul\":6041:6104   */\n              tag_176\n              jump\t// in\n            tag_257:\n                /* \"#utility.yul\":6031:6104   */\n              swap5\n              pop\n                /* \"#utility.yul\":5827:6114   */\n              pop\n                /* \"#utility.yul\":6181:6183   */\n              0x20\n                /* \"#utility.yul\":6170:6179   */\n              dup6\n                /* \"#utility.yul\":6166:6184   */\n              add\n                /* \"#utility.yul\":6153:6185   */\n              calldataload\n                /* \"#utility.yul\":6212:6230   */\n              0xffffffffffffffff\n                /* \"#utility.yul\":6204:6210   */\n              dup2\n                /* \"#utility.yul\":6201:6231   */\n              gt\n                /* \"#utility.yul\":6198:6315   */\n              iszero\n              tag_258\n              jumpi\n                /* \"#utility.yul\":6234:6313   */\n              tag_259\n              tag_167\n              jump\t// in\n            tag_259:\n                /* \"#utility.yul\":6198:6315   */\n            tag_258:\n                /* \"#utility.yul\":6339:6402   */\n              tag_260\n                /* \"#utility.yul\":6394:6401   */\n              dup8\n                /* \"#utility.yul\":6385:6391   */\n              dup3\n                /* \"#utility.yul\":6374:6383   */\n              dup9\n                /* \"#utility.yul\":6370:6392   */\n              add\n                /* \"#utility.yul\":6339:6402   */\n              tag_176\n              jump\t// in\n            tag_260:\n                /* \"#utility.yul\":6329:6402   */\n              swap4\n              pop\n                /* \"#utility.yul\":6124:6412   */\n              pop\n                /* \"#utility.yul\":6479:6481   */\n              0x40\n                /* \"#utility.yul\":6468:6477   */\n              dup6\n                /* \"#utility.yul\":6464:6482   */\n              add\n                /* \"#utility.yul\":6451:6483   */\n              calldataload\n                /* \"#utility.yul\":6510:6528   */\n              0xffffffffffffffff\n                /* \"#utility.yul\":6502:6508   */\n              dup2\n                /* \"#utility.yul\":6499:6529   */\n              gt\n                /* \"#utility.yul\":6496:6613   */\n              iszero\n              tag_261\n              jumpi\n                /* \"#utility.yul\":6532:6611   */\n              tag_262\n              tag_167\n              jump\t// in\n            tag_262:\n                /* \"#utility.yul\":6496:6613   */\n            tag_261:\n                /* \"#utility.yul\":6637:6700   */\n              tag_263\n                /* \"#utility.yul\":6692:6699   */\n              dup8\n                /* \"#utility.yul\":6683:6689   */\n              dup3\n                /* \"#utility.yul\":6672:6681   */\n              dup9\n                /* \"#utility.yul\":6668:6690   */\n              add\n                /* \"#utility.yul\":6637:6700   */\n              tag_176\n              jump\t// in\n            tag_263:\n                /* \"#utility.yul\":6627:6700   */\n              swap3\n              pop\n                /* \"#utility.yul\":6422:6710   */\n              pop\n                /* \"#utility.yul\":6749:6751   */\n              0x60\n                /* \"#utility.yul\":6775:6828   */\n              tag_264\n                /* \"#utility.yul\":6820:6827   */\n              dup8\n                /* \"#utility.yul\":6811:6817   */\n              dup3\n                /* \"#utility.yul\":6800:6809   */\n              dup9\n                /* \"#utility.yul\":6796:6818   */\n              add\n                /* \"#utility.yul\":6775:6828   */\n              tag_178\n              jump\t// in\n            tag_264:\n                /* \"#utility.yul\":6765:6828   */\n              swap2\n              pop\n                /* \"#utility.yul\":6720:6838   */\n              pop\n                /* \"#utility.yul\":5540:6845   */\n              swap3\n              swap6\n              swap2\n              swap5\n              pop\n              swap3\n              pop\n              jump\t// out\n                /* \"#utility.yul\":6851:7677   */\n            tag_61:\n                /* \"#utility.yul\":7088:7092   */\n              0x00\n                /* \"#utility.yul\":7126:7129   */\n              0x80\n                /* \"#utility.yul\":7115:7124   */\n              dup3\n                /* \"#utility.yul\":7111:7130   */\n              add\n                /* \"#utility.yul\":7103:7130   */\n              swap1\n              pop\n                /* \"#utility.yul\":7176:7185   */\n              dup2\n                /* \"#utility.yul\":7170:7174   */\n              dup2\n                /* \"#utility.yul\":7166:7186   */\n              sub\n                /* \"#utility.yul\":7162:7163   */\n              0x00\n                /* \"#utility.yul\":7151:7160   */\n              dup4\n                /* \"#utility.yul\":7147:7164   */\n              add\n                /* \"#utility.yul\":7140:7187   */\n              mstore\n                /* \"#utility.yul\":7204:7282   */\n              tag_266\n                /* \"#utility.yul\":7277:7281   */\n              dup2\n                /* \"#utility.yul\":7268:7274   */\n              dup8\n                /* \"#utility.yul\":7204:7282   */\n              tag_162\n              jump\t// in\n            tag_266:\n                /* \"#utility.yul\":7196:7282   */\n              swap1\n              pop\n                /* \"#utility.yul\":7329:7338   */\n              dup2\n                /* \"#utility.yul\":7323:7327   */\n              dup2\n                /* \"#utility.yul\":7319:7339   */\n              sub\n                /* \"#utility.yul\":7314:7316   */\n              0x20\n                /* \"#utility.yul\":7303:7312   */\n              dup4\n                /* \"#utility.yul\":7299:7317   */\n              add\n                /* \"#utility.yul\":7292:7340   */\n              mstore\n                /* \"#utility.yul\":7357:7435   */\n              tag_267\n                /* \"#utility.yul\":7430:7434   */\n              dup2\n                /* \"#utility.yul\":7421:7427   */\n              dup7\n                /* \"#utility.yul\":7357:7435   */\n              tag_162\n              jump\t// in\n            tag_267:\n                /* \"#utility.yul\":7349:7435   */\n              swap1\n              pop\n                /* \"#utility.yul\":7482:7491   */\n              dup2\n                /* \"#utility.yul\":7476:7480   */\n              dup2\n                /* \"#utility.yul\":7472:7492   */\n              sub\n                /* \"#utility.yul\":7467:7469   */\n              0x40\n                /* \"#utility.yul\":7456:7465   */\n              dup4\n                /* \"#utility.yul\":7452:7470   */\n              add\n                /* \"#utility.yul\":7445:7493   */\n              mstore\n                /* \"#utility.yul\":7510:7588   */\n              tag_268\n                /* \"#utility.yul\":7583:7587   */\n              dup2\n                /* \"#utility.yul\":7574:7580   */\n              dup6\n                /* \"#utility.yul\":7510:7588   */\n              tag_162\n              jump\t// in\n            tag_268:\n                /* \"#utility.yul\":7502:7588   */\n              swap1\n              pop\n                /* \"#utility.yul\":7598:7670   */\n              tag_269\n                /* \"#utility.yul\":7666:7668   */\n              0x60\n                /* \"#utility.yul\":7655:7664   */\n              dup4\n                /* \"#utility.yul\":7651:7669   */\n              add\n                /* \"#utility.yul\":7642:7648   */\n              dup5\n                /* \"#utility.yul\":7598:7670   */\n              tag_164\n              jump\t// in\n            tag_269:\n                /* \"#utility.yul\":6851:7677   */\n              swap6\n              swap5\n              pop\n              pop\n              pop\n              pop\n              pop\n              jump\t// out\n                /* \"#utility.yul\":7683:7863   */\n            tag_179:\n                /* \"#utility.yul\":7731:7808   */\n              0x4e487b7100000000000000000000000000000000000000000000000000000000\n                /* \"#utility.yul\":7728:7729   */\n              0x00\n                /* \"#utility.yul\":7721:7809   */\n              mstore\n                /* \"#utility.yul\":7828:7832   */\n              0x22\n                /* \"#utility.yul\":7825:7826   */\n              0x04\n                /* \"#utility.yul\":7818:7833   */\n              mstore\n                /* \"#utility.yul\":7852:7856   */\n              0x24\n                /* \"#utility.yul\":7849:7850   */\n              0x00\n                /* \"#utility.yul\":7842:7857   */\n              revert\n                /* \"#utility.yul\":7869:8189   */\n            tag_69:\n                /* \"#utility.yul\":7913:7919   */\n              0x00\n                /* \"#utility.yul\":7950:7951   */\n              0x02\n                /* \"#utility.yul\":7944:7948   */\n              dup3\n                /* \"#utility.yul\":7940:7952   */\n              div\n                /* \"#utility.yul\":7930:7952   */\n              swap1\n              pop\n                /* \"#utility.yul\":7997:7998   */\n              0x01\n                /* \"#utility.yul\":7991:7995   */\n              dup3\n                /* \"#utility.yul\":7987:7999   */\n              and\n                /* \"#utility.yul\":8018:8036   */\n              dup1\n                /* \"#utility.yul\":8008:8089   */\n              tag_272\n              jumpi\n                /* \"#utility.yul\":8074:8078   */\n              0x7f\n                /* \"#utility.yul\":8066:8072   */\n              dup3\n                /* \"#utility.yul\":8062:8079   */\n              and\n                /* \"#utility.yul\":8052:8079   */\n              swap2\n              pop\n                /* \"#utility.yul\":8008:8089   */\n            tag_272:\n                /* \"#utility.yul\":8136:8138   */\n              0x20\n                /* \"#utility.yul\":8128:8134   */\n              dup3\n                /* \"#utility.yul\":8125:8139   */\n              lt\n                /* \"#utility.yul\":8105:8123   */\n              dup2\n                /* \"#utility.yul\":8102:8140   */\n              sub\n                /* \"#utility.yul\":8099:8183   */\n              tag_273\n              jumpi\n                /* \"#utility.yul\":8155:8173   */\n              tag_274\n              tag_179\n              jump\t// in\n            tag_274:\n                /* \"#utility.yul\":8099:8183   */\n            tag_273:\n                /* \"#utility.yul\":7920:8189   */\n              pop\n                /* \"#utility.yul\":7869:8189   */\n              swap2\n              swap1\n              pop\n              jump\t// out\n                /* \"#utility.yul\":8195:8336   */\n            tag_180:\n                /* \"#utility.yul\":8244:8248   */\n              0x00\n                /* \"#utility.yul\":8267:8270   */\n              dup2\n                /* \"#utility.yul\":8259:8270   */\n              swap1\n              pop\n                /* \"#utility.yul\":8290:8293   */\n              dup2\n                /* \"#utility.yul\":8287:8288   */\n              0x00\n                /* \"#utility.yul\":8280:8294   */\n              mstore\n                /* \"#utility.yul\":8324:8328   */\n              0x20\n                /* \"#utility.yul\":8321:8322   */\n              0x00\n                /* \"#utility.yul\":8311:8329   */\n              keccak256\n                /* \"#utility.yul\":8303:8329   */\n              swap1\n              pop\n                /* \"#utility.yul\":8195:8336   */\n              swap2\n              swap1\n              pop\n              jump\t// out\n                /* \"#utility.yul\":8342:8435   */\n            tag_181:\n                /* \"#utility.yul\":8379:8385   */\n              0x00\n                /* \"#utility.yul\":8426:8428   */\n              0x20\n                /* \"#utility.yul\":8421:8423   */\n              0x1f\n                /* \"#utility.yul\":8414:8419   */\n              dup4\n                /* \"#utility.yul\":8410:8424   */\n              add\n                /* \"#utility.yul\":8406:8429   */\n              div\n                /* \"#utility.yul\":8396:8429   */\n              swap1\n              pop\n                /* \"#utility.yul\":8342:8435   */\n              swap2\n              swap1\n              pop\n              jump\t// out\n                /* \"#utility.yul\":8441:8548   */\n            tag_182:\n                /* \"#utility.yul\":8485:8493   */\n              0x00\n                /* \"#utility.yul\":8535:8540   */\n              dup3\n                /* \"#utility.yul\":8529:8533   */\n              dup3\n                /* \"#utility.yul\":8525:8541   */\n              shl\n                /* \"#utility.yul\":8504:8541   */\n              swap1\n              pop\n                /* \"#utility.yul\":8441:8548   */\n              swap3\n              swap2\n              pop\n              pop\n              jump\t// out\n                /* \"#utility.yul\":8554:8947   */\n            tag_183:\n                /* \"#utility.yul\":8623:8629   */\n              0x00\n                /* \"#utility.yul\":8673:8674   */\n              0x08\n                /* \"#utility.yul\":8661:8671   */\n              dup4\n                /* \"#utility.yul\":8657:8675   */\n              mul\n                /* \"#utility.yul\":8696:8793   */\n              tag_279\n                /* \"#utility.yul\":8726:8792   */\n              0xffffffffffffffffffffffffffffffffffffffffffffffffffffffffffffffff\n                /* \"#utility.yul\":8715:8724   */\n              dup3\n                /* \"#utility.yul\":8696:8793   */\n              tag_182\n              jump\t// in\n            tag_279:\n                /* \"#utility.yul\":8814:8853   */\n              tag_280\n                /* \"#utility.yul\":8844:8852   */\n              dup7\n                /* \"#utility.yul\":8833:8842   */\n              dup4\n                /* \"#utility.yul\":8814:8853   */\n              tag_182\n              jump\t// in\n            tag_280:\n                /* \"#utility.yul\":8802:8853   */\n              swap6\n              pop\n                /* \"#utility.yul\":8886:8890   */\n              dup1\n                /* \"#utility.yul\":8882:8891   */\n              not\n                /* \"#utility.yul\":8875:8880   */\n              dup5\n                /* \"#utility.yul\":8871:8892   */\n              and\n                /* \"#utility.yul\":8862:8892   */\n              swap4\n              pop\n                /* \"#utility.yul\":8935:8939   */\n              dup1\n                /* \"#utility.yul\":8925:8933   */\n              dup7\n                /* \"#utility.yul\":8921:8940   */\n              and\n                /* \"#utility.yul\":8914:8919   */\n              dup5\n                /* \"#utility.yul\":8911:8941   */\n              or\n                /* \"#utility.yul\":8901:8941   */\n              swap3\n              pop\n                /* \"#utility.yul\":8630:8947   */\n              pop\n              pop\n                /* \"#utility.yul\":8554:8947   */\n              swap4\n              swap3\n              pop\n              pop\n              pop\n              jump\t// out\n                /* \"#utility.yul\":8953:9013   */\n            tag_184:\n                /* \"#utility.yul\":8981:8984   */\n              0x00\n                /* \"#utility.yul\":9002:9007   */\n              dup2\n                /* \"#utility.yul\":8995:9007   */\n              swap1\n              pop\n                /* \"#utility.yul\":8953:9013   */\n              swap2\n              swap1\n              pop\n              jump\t// out\n                /* \"#utility.yul\":9019:9161   */\n            tag_185:\n                /* \"#utility.yul\":9069:9078   */\n              0x00\n                /* \"#utility.yul\":9102:9155   */\n              tag_283\n                /* \"#utility.yul\":9120:9154   */\n              tag_284\n                /* \"#utility.yul\":9129:9153   */\n              tag_285\n                /* \"#utility.yul\":9147:9152   */\n              dup5\n                /* \"#utility.yul\":9129:9153   */\n              tag_163\n              jump\t// in\n            tag_285:\n                /* \"#utility.yul\":9120:9154   */\n              tag_184\n              jump\t// in\n            tag_284:\n                /* \"#utility.yul\":9102:9155   */\n              tag_163\n              jump\t// in\n            tag_283:\n                /* \"#utility.yul\":9089:9155   */\n              swap1\n              pop\n                /* \"#utility.yul\":9019:9161   */\n              swap2\n              swap1\n              pop\n              jump\t// out\n                /* \"#utility.yul\":9167:9242   */\n            tag_186:\n                /* \"#utility.yul\":9210:9213   */\n              0x00\n                /* \"#utility.yul\":9231:9236   */\n              dup2\n                /* \"#utility.yul\":9224:9236   */\n              swap1\n              pop\n                /* \"#utility.yul\":9167:9242   */\n              swap2\n              swap1\n              pop\n              jump\t// out\n                /* \"#utility.yul\":9248:9517   */\n            tag_187:\n                /* \"#utility.yul\":9358:9397   */\n              tag_288\n                /* \"#utility.yul\":9389:9396   */\n              dup4\n                /* \"#utility.yul\":9358:9397   */\n              tag_185\n              jump\t// in\n            tag_288:\n                /* \"#utility.yul\":9419:9510   */\n              tag_289\n                /* \"#utility.yul\":9468:9509   */\n              tag_290\n                /* \"#utility.yul\":9492:9508   */\n              dup3\n                /* \"#utility.yul\":9468:9509   */\n              tag_186\n              jump\t// in\n            tag_290:\n                /* \"#utility.yul\":9460:9466   */\n              dup5\n                /* \"#utility.yul\":9453:9457   */\n              dup5\n                /* \"#utility.yul\":9447:9458   */\n              sload\n                /* \"#utility.yul\":9419:9510   */\n              tag_183\n              jump\t// in\n            tag_289:\n                /* \"#utility.yul\":9413:9417   */\n              dup3\n                /* \"#utility.yul\":9406:9511   */\n              sstore\n                /* \"#utility.yul\":9324:9517   */\n              pop\n                /* \"#utility.yul\":9248:9517   */\n              pop\n              pop\n              pop\n              jump\t// out\n                /* \"#utility.yul\":9523:9596   */\n            tag_188:\n                /* \"#utility.yul\":9568:9571   */\n              0x00\n                /* \"#utility.yul\":9523:9596   */\n              swap1\n              jump\t// out\n                /* \"#utility.yul\":9602:9791   */\n            tag_189:\n                /* \"#utility.yul\":9679:9711   */\n              tag_293\n              tag_188\n              jump\t// in\n            tag_293:\n                /* \"#utility.yul\":9720:9785   */\n              tag_294\n                /* \"#utility.yul\":9778:9784   */\n              dup2\n                /* \"#utility.yul\":9770:9776   */\n              dup5\n                /* \"#utility.yul\":9764:9768   */\n              dup5\n                /* \"#utility.yul\":9720:9785   */\n              tag_187\n              jump\t// in\n            tag_294:\n                /* \"#utility.yul\":9655:9791   */\n              pop\n                /* \"#utility.yul\":9602:9791   */\n              pop\n              pop\n              jump\t// out\n                /* \"#utility.yul\":9797:9983   */\n            tag_190:\n                /* \"#utility.yul\":9857:9977   */\n            tag_296:\n                /* \"#utility.yul\":9874:9877   */\n              dup2\n                /* \"#utility.yul\":9867:9872   */\n              dup2\n                /* \"#utility.yul\":9864:9878   */\n              lt\n                /* \"#utility.yul\":9857:9977   */\n              iszero\n              tag_298\n              jumpi\n                /* \"#utility.yul\":9928:9967   */\n              tag_299\n                /* \"#utility.yul\":9965:9966   */\n              0x00\n                /* \"#utility.yul\":9958:9963   */\n              dup3\n                /* \"#utility.yul\":9928:9967   */\n              tag_189\n              jump\t// in\n            tag_299:\n                /* \"#utility.yul\":9901:9902   */\n              0x01\n                /* \"#utility.yul\":9894:9899   */\n              dup2\n                /* \"#utility.yul\":9890:9903   */\n              add\n                /* \"#utility.yul\":9881:9903   */\n              swap1\n              pop\n                /* \"#utility.yul\":9857:9977   */\n              jump(tag_296)\n            tag_298:\n                /* \"#utility.yul\":9797:9983   */\n              pop\n              pop\n              jump\t// out\n                /* \"#utility.yul\":9989:10532   */\n            tag_191:\n                /* \"#utility.yul\":10090:10092   */\n              0x1f\n                /* \"#utility.yul\":10085:10088   */\n              dup3\n                /* \"#utility.yul\":10082:10093   */\n              gt\n                /* \"#utility.yul\":10079:10525   */\n              iszero\n              tag_301\n              jumpi\n                /* \"#utility.yul\":10124:10162   */\n              tag_302\n                /* \"#utility.yul\":10156:10161   */\n              dup2\n                /* \"#utility.yul\":10124:10162   */\n              tag_180\n              jump\t// in\n            tag_302:\n                /* \"#utility.yul\":10208:10237   */\n              tag_303\n                /* \"#utility.yul\":10226:10236   */\n              dup5\n                /* \"#utility.yul\":10208:10237   */\n              tag_181\n              jump\t// in\n            tag_303:\n                /* \"#utility.yul\":10198:10206   */\n              dup2\n                /* \"#utility.yul\":10194:10238   */\n              add\n                /* \"#utility.yul\":10391:10393   */\n              0x20\n                /* \"#utility.yul\":10379:10389   */\n              dup6\n                /* \"#utility.yul\":10376:10394   */\n              lt\n                /* \"#utility.yul\":10373:10422   */\n              iszero\n              tag_304\n              jumpi\n                /* \"#utility.yul\":10412:10420   */\n              dup2\n                /* \"#utility.yul\":10397:10420   */\n              swap1\n              pop\n                /* \"#utility.yul\":10373:10422   */\n            tag_304:\n                /* \"#utility.yul\":10435:10515   */\n              tag_305\n                /* \"#utility.yul\":10491:10513   */\n              tag_306\n                /* \"#utility.yul\":10509:10512   */\n              dup6\n                /* \"#utility.yul\":10491:10513   */\n              tag_181\n              jump\t// in\n            tag_306:\n                /* \"#utility.yul\":10481:10489   */\n              dup4\n                /* \"#utility.yul\":10477:10514   */\n              add\n                /* \"#utility.yul\":10464:10475   */\n              dup3\n                /* \"#utility.yul\":10435:10515   */\n              tag_190\n              jump\t// in\n            tag_305:\n                /* \"#utility.yul\":10094:10525   */\n              pop\n              pop\n                /* \"#utility.yul\":10079:10525   */\n            tag_301:\n                /* \"#utility.yul\":9989:10532   */\n              pop\n              pop\n              pop\n              jump\t// out\n                /* \"#utility.yul\":10538:10655   */\n            tag_192:\n                /* \"#utility.yul\":10592:10600   */\n              0x00\n                /* \"#utility.yul\":10642:10647   */\n              dup3\n                /* \"#utility.yul\":10636:10640   */\n              dup3\n                /* \"#utility.yul\":10632:10648   */\n              shr\n                /* \"#utility.yul\":10611:10648   */\n              swap1\n              pop\n                /* \"#utility.yul\":10538:10655   */\n              swap3\n              swap2\n              pop\n              pop\n              jump\t// out\n                /* \"#utility.yul\":10661:10830   */\n            tag_193:\n                /* \"#utility.yul\":10705:10711   */\n              0x00\n                /* \"#utility.yul\":10738:10789   */\n              tag_309\n                /* \"#utility.yul\":10786:10787   */\n              0x00\n                /* \"#utility.yul\":10782:10788   */\n              not\n                /* \"#utility.yul\":10774:10779   */\n              dup5\n                /* \"#utility.yul\":10771:10772   */\n              0x08\n                /* \"#utility.yul\":10767:10780   */\n              mul\n                /* \"#utility.yul\":10738:10789   */\n              tag_192\n              jump\t// in\n            tag_309:\n                /* \"#utility.yul\":10734:10790   */\n              not\n                /* \"#utility.yul\":10819:10823   */\n              dup1\n                /* \"#utility.yul\":10813:10817   */\n              dup4\n                /* \"#utility.yul\":10809:10824   */\n              and\n                /* \"#utility.yul\":10799:10824   */\n              swap2\n              pop\n                /* \"#utility.yul\":10712:10830   */\n              pop\n                /* \"#utility.yul\":10661:10830   */\n              swap3\n              swap2\n              pop\n              pop\n              jump\t// out\n                /* \"#utility.yul\":10835:11130   */\n            tag_194:\n                /* \"#utility.yul\":10911:10915   */\n              0x00\n                /* \"#utility.yul\":11057:11086   */\n              tag_311\n                /* \"#utility.yul\":11082:11085   */\n              dup4\n                /* \"#utility.yul\":11076:11080   */\n              dup4\n                /* \"#utility.yul\":11057:11086   */\n              tag_193\n              jump\t// in\n            tag_311:\n                /* \"#utility.yul\":11049:11086   */\n              swap2\n              pop\n                /* \"#utility.yul\":11119:11122   */\n              dup3\n                /* \"#utility.yul\":11116:11117   */\n              0x02\n                /* \"#utility.yul\":11112:11123   */\n              mul\n                /* \"#utility.yul\":11106:11110   */\n              dup3\n                /* \"#utility.yul\":11103:11124   */\n              or\n                /* \"#utility.yul\":11095:11124   */\n              swap1\n              pop\n                /* \"#utility.yul\":10835:11130   */\n              swap3\n              swap2\n              pop\n              pop\n              jump\t// out\n                /* \"#utility.yul\":11135:12530   */\n            tag_113:\n                /* \"#utility.yul\":11252:11289   */\n              tag_313\n                /* \"#utility.yul\":11285:11288   */\n              dup3\n                /* \"#utility.yul\":11252:11289   */\n              tag_158\n              jump\t// in\n            tag_313:\n                /* \"#utility.yul\":11354:11372   */\n              0xffffffffffffffff\n                /* \"#utility.yul\":11346:11352   */\n              dup2\n                /* \"#utility.yul\":11343:11373   */\n              gt\n                /* \"#utility.yul\":11340:11396   */\n              iszero\n              tag_314\n              jumpi\n                /* \"#utility.yul\":11376:11394   */\n              tag_315\n              tag_170\n              jump\t// in\n            tag_315:\n                /* \"#utility.yul\":11340:11396   */\n            tag_314:\n                /* \"#utility.yul\":11420:11458   */\n              tag_316\n                /* \"#utility.yul\":11452:11456   */\n              dup3\n                /* \"#utility.yul\":11446:11457   */\n              sload\n                /* \"#utility.yul\":11420:11458   */\n              tag_69\n              jump\t// in\n            tag_316:\n                /* \"#utility.yul\":11505:11572   */\n              tag_317\n                /* \"#utility.yul\":11565:11571   */\n              dup3\n                /* \"#utility.yul\":11557:11563   */\n              dup3\n                /* \"#utility.yul\":11551:11555   */\n              dup6\n                /* \"#utility.yul\":11505:11572   */\n              tag_191\n              jump\t// in\n            tag_317:\n                /* \"#utility.yul\":11599:11600   */\n              0x00\n                /* \"#utility.yul\":11623:11627   */\n              0x20\n                /* \"#utility.yul\":11610:11627   */\n              swap1\n              pop\n                /* \"#utility.yul\":11655:11657   */\n              0x1f\n                /* \"#utility.yul\":11647:11653   */\n              dup4\n                /* \"#utility.yul\":11644:11658   */\n              gt\n                /* \"#utility.yul\":11672:11673   */\n              0x01\n                /* \"#utility.yul\":11667:12285   */\n              dup2\n              eq\n              tag_319\n              jumpi\n                /* \"#utility.yul\":12329:12330   */\n              0x00\n                /* \"#utility.yul\":12346:12352   */\n              dup5\n                /* \"#utility.yul\":12343:12420   */\n              iszero\n              tag_320\n              jumpi\n                /* \"#utility.yul\":12395:12404   */\n              dup3\n                /* \"#utility.yul\":12390:12393   */\n              dup8\n                /* \"#utility.yul\":12386:12405   */\n              add\n                /* \"#utility.yul\":12380:12406   */\n              mload\n                /* \"#utility.yul\":12371:12406   */\n              swap1\n              pop\n                /* \"#utility.yul\":12343:12420   */\n            tag_320:\n                /* \"#utility.yul\":12446:12513   */\n              tag_321\n                /* \"#utility.yul\":12506:12512   */\n              dup6\n                /* \"#utility.yul\":12499:12504   */\n              dup3\n                /* \"#utility.yul\":12446:12513   */\n              tag_194\n              jump\t// in\n            tag_321:\n                /* \"#utility.yul\":12440:12444   */\n              dup7\n                /* \"#utility.yul\":12433:12514   */\n              sstore\n                /* \"#utility.yul\":12302:12524   */\n              pop\n                /* \"#utility.yul\":11637:12524   */\n              jump(tag_318)\n                /* \"#utility.yul\":11667:12285   */\n            tag_319:\n                /* \"#utility.yul\":11719:11723   */\n              0x1f\n                /* \"#utility.yul\":11715:11724   */\n              not\n                /* \"#utility.yul\":11707:11713   */\n              dup5\n                /* \"#utility.yul\":11703:11725   */\n              and\n                /* \"#utility.yul\":11753:11790   */\n              tag_322\n                /* \"#utility.yul\":11785:11789   */\n              dup7\n                /* \"#utility.yul\":11753:11790   */\n              tag_180\n              jump\t// in\n            tag_322:\n                /* \"#utility.yul\":11812:11813   */\n              0x00\n                /* \"#utility.yul\":11826:12034   */\n            tag_323:\n                /* \"#utility.yul\":11840:11847   */\n              dup3\n                /* \"#utility.yul\":11837:11838   */\n              dup2\n                /* \"#utility.yul\":11834:11848   */\n              lt\n                /* \"#utility.yul\":11826:12034   */\n              iszero\n              tag_325\n              jumpi\n                /* \"#utility.yul\":11919:11928   */\n              dup5\n                /* \"#utility.yul\":11914:11917   */\n              dup10\n                /* \"#utility.yul\":11910:11929   */\n              add\n                /* \"#utility.yul\":11904:11930   */\n              mload\n                /* \"#utility.yul\":11896:11902   */\n              dup3\n                /* \"#utility.yul\":11889:11931   */\n              sstore\n                /* \"#utility.yul\":11970:11971   */\n              0x01\n                /* \"#utility.yul\":11962:11968   */\n              dup3\n                /* \"#utility.yul\":11958:11972   */\n              add\n                /* \"#utility.yul\":11948:11972   */\n              swap2\n              pop\n                /* \"#utility.yul\":12017:12019   */\n              0x20\n                /* \"#utility.yul\":12006:12015   */\n              dup6\n                /* \"#utility.yul\":12002:12020   */\n              add\n                /* \"#utility.yul\":11989:12020   */\n              swap5\n              pop\n                /* \"#utility.yul\":11863:11867   */\n              0x20\n                /* \"#utility.yul\":11860:11861   */\n              dup2\n                /* \"#utility.yul\":11856:11868   */\n              add\n                /* \"#utility.yul\":11851:11868   */\n              swap1\n              pop\n                /* \"#utility.yul\":11826:12034   */\n              jump(tag_323)\n            tag_325:\n                /* \"#utility.yul\":12062:12068   */\n              dup7\n                /* \"#utility.yul\":12053:12060   */\n              dup4\n                /* \"#utility.yul\":12050:12069   */\n              lt\n                /* \"#utility.yul\":12047:12226   */\n              iszero\n              tag_326\n              jumpi\n                /* \"#utility.yul\":12120:12129   */\n              dup5\n                /* \"#utility.yul\":12115:12118   */\n              dup10\n                /* \"#utility.yul\":12111:12130   */\n              add\n                /* \"#utility.yul\":12105:12131   */\n              mload\n                /* \"#utility.yul\":12163:12211   */\n              tag_327\n                /* \"#utility.yul\":12205:12209   */\n              0x1f\n                /* \"#utility.yul\":12197:12203   */\n              dup10\n                /* \"#utility.yul\":12193:12210   */\n              and\n                /* \"#utility.yul\":12182:12191   */\n              dup3\n                /* \"#utility.yul\":12163:12211   */\n              tag_193\n              jump\t// in\n            tag_327:\n                /* \"#utility.yul\":12155:12161   */\n              dup4\n                /* \"#utility.yul\":12148:12212   */\n              sstore\n                /* \"#utility.yul\":12070:12226   */\n              pop\n                /* \"#utility.yul\":12047:12226   */\n            tag_326:\n                /* \"#utility.yul\":12272:12273   */\n              0x01\n                /* \"#utility.yul\":12268:12269   */\n              0x02\n                /* \"#utility.yul\":12260:12266   */\n              dup9\n                /* \"#utility.yul\":12256:12270   */\n              mul\n                /* \"#utility.yul\":12252:12274   */\n              add\n                /* \"#utility.yul\":12246:12250   */\n              dup9\n                /* \"#utility.yul\":12239:12275   */\n              sstore\n                /* \"#utility.yul\":11674:12285   */\n              pop\n              pop\n              pop\n                /* \"#utility.yul\":11637:12524   */\n            tag_318:\n              pop\n                /* \"#utility.yul\":11227:12530   */\n              pop\n              pop\n              pop\n                /* \"#utility.yul\":11135:12530   */\n              pop\n              pop\n              jump\t// out\n\n            auxdata: 0xa2646970667358221220f543c3d013886079b248ec3b065bc289a04ddf5d0e2960dada773443cc67211364736f6c634300081a0033\n        }\n    }\n\n    auxdata: 0xa2646970667358221220e5cec623762bcc747d0facc19a39098d03c6b45e907046fdd8cdd70626cee08264736f6c634300081a0033\n}\n",
				"bytecode": {
					"linkReferences": {},
					"object": "6080604052348015600e575f80fd5b506127768061001c5f395ff3fe608060405234801561000f575f80fd5b5060043610610055575f3560e01c80635b428c84146100595780636541070114610075578063b5ab682d146100a5578063c7ef6bfb146100d5578063e8f3f53b14610105575b5f80fd5b610073600480360381019061006e91906107c0565b61013d565b005b61008f600480360381019061008a91906108d5565b6102a3565b60405161009c919061097c565b60405180910390f35b6100bf60048036038101906100ba919061099c565b610374565b6040516100cc9190610a06565b60405180910390f35b6100ef60048036038101906100ea91906108d5565b6103af565b6040516100fc9190610a7a565b60405180910390f35b61011f600480360381019061011a91906108d5565b6103f6565b60405161013499989796959493929190610aa2565b60405180910390f35b5f868660405161014c90610633565b610157929190610b5e565b604051809103905ff080158015610170573d5f803e3d5ffd5b5090508073ffffffffffffffffffffffffffffffffffffffff1663bbd57851868686866040518563ffffffff1660e01b81526004016101b29493929190610b93565b5f604051808303815f87803b1580156101c9575f80fd5b505af11580156101db573d5f803e3d5ffd5b50505050805f856040516101ef9190610c25565b90815260200160405180910390205f6101000a81548173ffffffffffffffffffffffffffffffffffffffff021916908373ffffffffffffffffffffffffffffffffffffffff160217905550600181908060018154018082558091505060019003905f5260205f20015f9091909190916101000a81548173ffffffffffffffffffffffffffffffffffffffff021916908373ffffffffffffffffffffffffffffffffffffffff16021790555050505050505050565b60605f80836040516102b59190610c25565b90815260200160405180910390205f9054906101000a900473ffffffffffffffffffffffffffffffffffffffff1690505f73ffffffffffffffffffffffffffffffffffffffff168173ffffffffffffffffffffffffffffffffffffffff1603610353576040517f08c379a000000000000000000000000000000000000000000000000000000000815260040161034a90610c85565b60405180910390fd5b6040518060800160405280604281526020016126ff60429139915050919050565b60018181548110610383575f80fd5b905f5260205f20015f915054906101000a900473ffffffffffffffffffffffffffffffffffffffff1681565b5f818051602081018201805184825260208301602085012081835280955050505050505f915054906101000a900473ffffffffffffffffffffffffffffffffffffffff1681565b60608060605f6060806060805f805f8b6040516104139190610c25565b90815260200160405180910390205f9054906101000a900473ffffffffffffffffffffffffffffffffffffffff1690505f73ffffffffffffffffffffffffffffffffffffffff168173ffffffffffffffffffffffffffffffffffffffff16036104b1576040517f08c379a00000000000000000000000000000000000000000000000000000000081526004016104a890610c85565b60405180910390fd5b8073ffffffffffffffffffffffffffffffffffffffff1663e81bd2a46040518163ffffffff1660e01b81526004015f60405180830381865afa1580156104f9573d5f803e3d5ffd5b505050506040513d5f823e3d601f19601f820116820180604052508101906105219190610d25565b809a50819b50829c50839d50505050508073ffffffffffffffffffffffffffffffffffffffff16631b0c26706040518163ffffffff1660e01b81526004015f60405180830381865afa158015610579573d5f803e3d5ffd5b505050506040513d5f823e3d601f19601f820116820180604052508101906105a19190610ddd565b80965081975050508073ffffffffffffffffffffffffffffffffffffffff1663f8fd19486040518163ffffffff1660e01b81526004015f60405180830381865afa1580156105f1573d5f803e3d5ffd5b505050506040513d5f823e3d601f19601f820116820180604052508101906106199190610e53565b809450819550829650505050509193959799909294969850565b61182380610edc83390190565b5f604051905090565b5f80fd5b5f80fd5b5f80fd5b5f80fd5b5f601f19601f8301169050919050565b7f4e487b71000000000000000000000000000000000000000000000000000000005f52604160045260245ffd5b61069f82610659565b810181811067ffffffffffffffff821117156106be576106bd610669565b5b80604052505050565b5f6106d0610640565b90506106dc8282610696565b919050565b5f67ffffffffffffffff8211156106fb576106fa610669565b5b61070482610659565b9050602081019050919050565b828183375f83830152505050565b5f61073161072c846106e1565b6106c7565b90508281526020810184848401111561074d5761074c610655565b5b610758848285610711565b509392505050565b5f82601f83011261077457610773610651565b5b813561078484826020860161071f565b91505092915050565b5f819050919050565b61079f8161078d565b81146107a9575f80fd5b50565b5f813590506107ba81610796565b92915050565b5f805f805f8060c087890312156107da576107d9610649565b5b5f87013567ffffffffffffffff8111156107f7576107f661064d565b5b61080389828a01610760565b965050602087013567ffffffffffffffff8111156108245761082361064d565b5b61083089828a01610760565b955050604087013567ffffffffffffffff8111156108515761085061064d565b5b61085d89828a01610760565b945050606087013567ffffffffffffffff81111561087e5761087d61064d565b5b61088a89828a01610760565b935050608087013567ffffffffffffffff8111156108ab576108aa61064d565b5b6108b789828a01610760565b92505060a06108c889828a016107ac565b9150509295509295509295565b5f602082840312156108ea576108e9610649565b5b5f82013567ffffffffffffffff8111156109075761090661064d565b5b61091384828501610760565b91505092915050565b5f81519050919050565b5f82825260208201905092915050565b8281835e5f83830152505050565b5f61094e8261091c565b6109588185610926565b9350610968818560208601610936565b61097181610659565b840191505092915050565b5f6020820190508181035f8301526109948184610944565b905092915050565b5f602082840312156109b1576109b0610649565b5b5f6109be848285016107ac565b91505092915050565b5f73ffffffffffffffffffffffffffffffffffffffff82169050919050565b5f6109f0826109c7565b9050919050565b610a00816109e6565b82525050565b5f602082019050610a195f8301846109f7565b92915050565b5f819050919050565b5f610a42610a3d610a38846109c7565b610a1f565b6109c7565b9050919050565b5f610a5382610a28565b9050919050565b5f610a6482610a49565b9050919050565b610a7481610a5a565b82525050565b5f602082019050610a8d5f830184610a6b565b92915050565b610a9c8161078d565b82525050565b5f610120820190508181035f830152610abb818c610944565b90508181036020830152610acf818b610944565b90508181036040830152610ae3818a610944565b9050610af26060830189610a93565b8181036080830152610b048188610944565b905081810360a0830152610b188187610944565b905081810360c0830152610b2c8186610944565b905081810360e0830152610b408185610944565b9050610b50610100830184610a93565b9a9950505050505050505050565b5f6040820190508181035f830152610b768185610944565b90508181036020830152610b8a8184610944565b90509392505050565b5f6080820190508181035f830152610bab8187610944565b90508181036020830152610bbf8186610944565b90508181036040830152610bd38185610944565b9050610be26060830184610a93565b95945050505050565b5f81905092915050565b5f610bff8261091c565b610c098185610beb565b9350610c19818560208601610936565b80840191505092915050565b5f610c308284610bf5565b915081905092915050565b7f53747564656e74206e6f7420666f756e642e00000000000000000000000000005f82015250565b5f610c6f601283610926565b9150610c7a82610c3b565b602082019050919050565b5f6020820190508181035f830152610c9c81610c63565b9050919050565b5f610cb5610cb0846106e1565b6106c7565b905082815260208101848484011115610cd157610cd0610655565b5b610cdc848285610936565b509392505050565b5f82601f830112610cf857610cf7610651565b5b8151610d08848260208601610ca3565b91505092915050565b5f81519050610d1f81610796565b92915050565b5f805f8060808587031215610d3d57610d3c610649565b5b5f85015167ffffffffffffffff811115610d5a57610d5961064d565b5b610d6687828801610ce4565b945050602085015167ffffffffffffffff811115610d8757610d8661064d565b5b610d9387828801610ce4565b935050604085015167ffffffffffffffff811115610db457610db361064d565b5b610dc087828801610ce4565b9250506060610dd187828801610d11565b91505092959194509250565b5f8060408385031215610df357610df2610649565b5b5f83015167ffffffffffffffff811115610e1057610e0f61064d565b5b610e1c85828601610ce4565b925050602083015167ffffffffffffffff811115610e3d57610e3c61064d565b5b610e4985828601610ce4565b9150509250929050565b5f805f60608486031215610e6a57610e69610649565b5b5f84015167ffffffffffffffff811115610e8757610e8661064d565b5b610e9386828701610ce4565b935050602084015167ffffffffffffffff811115610eb457610eb361064d565b5b610ec086828701610ce4565b9250506040610ed186828701610d11565b915050925092509256fe60806040526040518060400160405280601081526020017f44656570616b206b6120686f7374656c000000000000000000000000000000008152505f90816100479190610320565b506040518060400160405280600581526020017f5061746e610000000000000000000000000000000000000000000000000000008152506001908161008c9190610320565b50606460025534801561009d575f80fd5b5060405161182338038061182383398181016040528101906100bf919061050f565b81600390816100ce9190610320565b5080600490816100de9190610320565b505050610585565b5f81519050919050565b7f4e487b71000000000000000000000000000000000000000000000000000000005f52604160045260245ffd5b7f4e487b71000000000000000000000000000000000000000000000000000000005f52602260045260245ffd5b5f600282049050600182168061016157607f821691505b6020821081036101745761017361011d565b5b50919050565b5f819050815f5260205f209050919050565b5f6020601f8301049050919050565b5f82821b905092915050565b5f600883026101d67fffffffffffffffffffffffffffffffffffffffffffffffffffffffffffffffff8261019b565b6101e0868361019b565b95508019841693508086168417925050509392505050565b5f819050919050565b5f819050919050565b5f61022461021f61021a846101f8565b610201565b6101f8565b9050919050565b5f819050919050565b61023d8361020a565b6102516102498261022b565b8484546101a7565b825550505050565b5f90565b610265610259565b610270818484610234565b505050565b5b81811015610293576102885f8261025d565b600181019050610276565b5050565b601f8211156102d8576102a98161017a565b6102b28461018c565b810160208510156102c1578190505b6102d56102cd8561018c565b830182610275565b50505b505050565b5f82821c905092915050565b5f6102f85f19846008026102dd565b1980831691505092915050565b5f61031083836102e9565b9150826002028217905092915050565b610329826100e6565b67ffffffffffffffff811115610342576103416100f0565b5b61034c825461014a565b610357828285610297565b5f60209050601f831160018114610388575f8415610376578287015190505b6103808582610305565b8655506103e7565b601f1984166103968661017a565b5f5b828110156103bd57848901518255600182019150602085019450602081019050610398565b868310156103da57848901516103d6601f8916826102e9565b8355505b6001600288020188555050505b505050505050565b5f604051905090565b5f80fd5b5f80fd5b5f80fd5b5f80fd5b5f601f19601f8301169050919050565b61042182610408565b810181811067ffffffffffffffff821117156104405761043f6100f0565b5b80604052505050565b5f6104526103ef565b905061045e8282610418565b919050565b5f67ffffffffffffffff82111561047d5761047c6100f0565b5b61048682610408565b9050602081019050919050565b8281835e5f83830152505050565b5f6104b36104ae84610463565b610449565b9050828152602081018484840111156104cf576104ce610404565b5b6104da848285610493565b509392505050565b5f82601f8301126104f6576104f5610400565b5b81516105068482602086016104a1565b91505092915050565b5f8060408385031215610525576105246103f8565b5b5f83015167ffffffffffffffff811115610542576105416103fc565b5b61054e858286016104e2565b925050602083015167ffffffffffffffff81111561056f5761056e6103fc565b5b61057b858286016104e2565b9150509250929050565b611291806105925f395ff3fe608060405234801561000f575f80fd5b50600436106100e8575f3560e01c8063bbd578511161008a578063d57831f511610064578063d57831f514610219578063e81bd2a414610237578063eb96548f14610258578063f8fd194814610276576100e8565b8063bbd57851146101c1578063c607ba4d146101dd578063cb9cb0c2146101fb576100e8565b806399d568b3116100c657806399d568b3146101475780639d8c831514610165578063b508ba3114610185578063b975abb3146101a3576100e8565b806311ebae41146100ec5780631b0c26701461010a5780638d1d2d9014610129575b5f80fd5b6100f4610296565b6040516101019190610c52565b60405180910390f35b610112610322565b604051610120929190610c72565b60405180910390f35b610131610445565b60405161013e9190610c52565b60405180910390f35b61014f6104d1565b60405161015c9190610cbf565b60405180910390f35b61016d6104d7565b60405161017c93929190610cd8565b60405180910390f35b61018d610600565b60405161019a9190610c52565b60405180910390f35b6101ab61068c565b6040516101b89190610c52565b60405180910390f35b6101db60048036038101906101d69190610e82565b610718565b005b6101e5610755565b6040516101f29190610c52565b60405180910390f35b6102036107e1565b6040516102109190610c52565b60405180910390f35b61022161086c565b60405161022e9190610cbf565b60405180910390f35b61023f610872565b60405161024f9493929190610f3a565b60405180910390f35b610260610a2d565b60405161026d9190610c52565b60405180910390f35b61027e610ab9565b60405161028d93929190610cd8565b60405180910390f35b600180546102a390610fbf565b80601f01602080910402602001604051908101604052809291908181526020018280546102cf90610fbf565b801561031a5780601f106102f15761010080835404028352916020019161031a565b820191905f5260205f20905b8154815290600101906020018083116102fd57829003601f168201915b505050505081565b6060806003600481805461033590610fbf565b80601f016020809104026020016040519081016040528092919081815260200182805461036190610fbf565b80156103ac5780601f10610383576101008083540402835291602001916103ac565b820191905f5260205f20905b81548152906001019060200180831161038f57829003601f168201915b505050505091508080546103bf90610fbf565b80601f01602080910402602001604051908101604052809291908181526020018280546103eb90610fbf565b80156104365780601f1061040d57610100808354040283529160200191610436565b820191905f5260205f20905b81548152906001019060200180831161041957829003601f168201915b50505050509050915091509091565b6006805461045290610fbf565b80601f016020809104026020016040519081016040528092919081815260200182805461047e90610fbf565b80156104c95780601f106104a0576101008083540402835291602001916104c9565b820191905f5260205f20905b8154815290600101906020018083116104ac57829003601f168201915b505050505081565b60025481565b6060805f8060016002548280546104ed90610fbf565b80601f016020809104026020016040519081016040528092919081815260200182805461051990610fbf565b80156105645780601f1061053b57610100808354040283529160200191610564565b820191905f5260205f20905b81548152906001019060200180831161054757829003601f168201915b5050505050925081805461057790610fbf565b80601f01602080910402602001604051908101604052809291908181526020018280546105a390610fbf565b80156105ee5780601f106105c5576101008083540402835291602001916105ee565b820191905f5260205f20905b8154815290600101906020018083116105d157829003601f168201915b50505050509150925092509250909192565b6005805461060d90610fbf565b80601f016020809104026020016040519081016040528092919081815260200182805461063990610fbf565b80156106845780601f1061065b57610100808354040283529160200191610684565b820191905f5260205f20905b81548152906001019060200180831161066757829003601f168201915b505050505081565b6003805461069990610fbf565b80601f01602080910402602001604051908101604052809291908181526020018280546106c590610fbf565b80156107105780601f106106e757610100808354040283529160200191610710565b820191905f5260205f20905b8154815290600101906020018083116106f357829003601f168201915b505050505081565b8360059081610727919061118c565b508260069081610737919061118c565b508160079081610747919061118c565b508060088190555050505050565b6007805461076290610fbf565b80601f016020809104026020016040519081016040528092919081815260200182805461078e90610fbf565b80156107d95780601f106107b0576101008083540402835291602001916107d9565b820191905f5260205f20905b8154815290600101906020018083116107bc57829003601f168201915b505050505081565b5f80546107ed90610fbf565b80601f016020809104026020016040519081016040528092919081815260200182805461081990610fbf565b80156108645780601f1061083b57610100808354040283529160200191610864565b820191905f5260205f20905b81548152906001019060200180831161084757829003601f168201915b505050505081565b60085481565b60608060605f60056006600760085483805461088d90610fbf565b80601f01602080910402602001604051908101604052809291908181526020018280546108b990610fbf565b80156109045780601f106108db57610100808354040283529160200191610904565b820191905f5260205f20905b8154815290600101906020018083116108e757829003601f168201915b5050505050935082805461091790610fbf565b80601f016020809104026020016040519081016040528092919081815260200182805461094390610fbf565b801561098e5780601f106109655761010080835404028352916020019161098e565b820191905f5260205f20905b81548152906001019060200180831161097157829003601f168201915b505050505092508180546109a190610fbf565b80601f01602080910402602001604051908101604052809291908181526020018280546109cd90610fbf565b8015610a185780601f106109ef57610100808354040283529160200191610a18565b820191905f5260205f20905b8154815290600101906020018083116109fb57829003601f168201915b50505050509150935093509350935090919293565b60048054610a3a90610fbf565b80601f0160208091040260200160405190810160405280929190818152602001828054610a6690610fbf565b8015610ab15780601f10610a8857610100808354040283529160200191610ab1565b820191905f5260205f20905b815481529060010190602001808311610a9457829003601f168201915b505050505081565b6060805f806001600254828054610acf90610fbf565b80601f0160208091040260200160405190810160405280929190818152602001828054610afb90610fbf565b8015610b465780601f10610b1d57610100808354040283529160200191610b46565b820191905f5260205f20905b815481529060010190602001808311610b2957829003601f168201915b50505050509250818054610b5990610fbf565b80601f0160208091040260200160405190810160405280929190818152602001828054610b8590610fbf565b8015610bd05780601f10610ba757610100808354040283529160200191610bd0565b820191905f5260205f20905b815481529060010190602001808311610bb357829003601f168201915b50505050509150925092509250909192565b5f81519050919050565b5f82825260208201905092915050565b8281835e5f83830152505050565b5f601f19601f8301169050919050565b5f610c2482610be2565b610c2e8185610bec565b9350610c3e818560208601610bfc565b610c4781610c0a565b840191505092915050565b5f6020820190508181035f830152610c6a8184610c1a565b905092915050565b5f6040820190508181035f830152610c8a8185610c1a565b90508181036020830152610c9e8184610c1a565b90509392505050565b5f819050919050565b610cb981610ca7565b82525050565b5f602082019050610cd25f830184610cb0565b92915050565b5f6060820190508181035f830152610cf08186610c1a565b90508181036020830152610d048185610c1a565b9050610d136040830184610cb0565b949350505050565b5f604051905090565b5f80fd5b5f80fd5b5f80fd5b5f80fd5b7f4e487b71000000000000000000000000000000000000000000000000000000005f52604160045260245ffd5b610d6a82610c0a565b810181811067ffffffffffffffff82111715610d8957610d88610d34565b5b80604052505050565b5f610d9b610d1b565b9050610da78282610d61565b919050565b5f67ffffffffffffffff821115610dc657610dc5610d34565b5b610dcf82610c0a565b9050602081019050919050565b828183375f83830152505050565b5f610dfc610df784610dac565b610d92565b905082815260208101848484011115610e1857610e17610d30565b5b610e23848285610ddc565b509392505050565b5f82601f830112610e3f57610e3e610d2c565b5b8135610e4f848260208601610dea565b91505092915050565b610e6181610ca7565b8114610e6b575f80fd5b50565b5f81359050610e7c81610e58565b92915050565b5f805f8060808587031215610e9a57610e99610d24565b5b5f85013567ffffffffffffffff811115610eb757610eb6610d28565b5b610ec387828801610e2b565b945050602085013567ffffffffffffffff811115610ee457610ee3610d28565b5b610ef087828801610e2b565b935050604085013567ffffffffffffffff811115610f1157610f10610d28565b5b610f1d87828801610e2b565b9250506060610f2e87828801610e6e565b91505092959194509250565b5f6080820190508181035f830152610f528187610c1a565b90508181036020830152610f668186610c1a565b90508181036040830152610f7a8185610c1a565b9050610f896060830184610cb0565b95945050505050565b7f4e487b71000000000000000000000000000000000000000000000000000000005f52602260045260245ffd5b5f6002820490506001821680610fd657607f821691505b602082108103610fe957610fe8610f92565b5b50919050565b5f819050815f5260205f209050919050565b5f6020601f8301049050919050565b5f82821b905092915050565b5f6008830261104b7fffffffffffffffffffffffffffffffffffffffffffffffffffffffffffffffff82611010565b6110558683611010565b95508019841693508086168417925050509392505050565b5f819050919050565b5f61109061108b61108684610ca7565b61106d565b610ca7565b9050919050565b5f819050919050565b6110a983611076565b6110bd6110b582611097565b84845461101c565b825550505050565b5f90565b6110d16110c5565b6110dc8184846110a0565b505050565b5b818110156110ff576110f45f826110c9565b6001810190506110e2565b5050565b601f8211156111445761111581610fef565b61111e84611001565b8101602085101561112d578190505b61114161113985611001565b8301826110e1565b50505b505050565b5f82821c905092915050565b5f6111645f1984600802611149565b1980831691505092915050565b5f61117c8383611155565b9150826002028217905092915050565b61119582610be2565b67ffffffffffffffff8111156111ae576111ad610d34565b5b6111b88254610fbf565b6111c3828285611103565b5f60209050601f8311600181146111f4575f84156111e2578287015190505b6111ec8582611171565b865550611253565b601f19841661120286610fef565b5f5b8281101561122957848901518255600182019150602085019450602081019050611204565b868310156112465784890151611242601f891682611155565b8355505b6001600288020188555050505b50505050505056fea2646970667358221220f543c3d013886079b248ec3b065bc289a04ddf5d0e2960dada773443cc67211364736f6c634300081a00334d6967726174696f6e2070726f6365737320696e6974696174656420666f722073747564656e74207769746820526567697374726174696f6e204e756d6265723a20a2646970667358221220e5cec623762bcc747d0facc19a39098d03c6b45e907046fdd8cdd70626cee08264736f6c634300081a0033",
					"opcodes": "PUSH1 0x80 PUSH1 0x40 MSTORE CALLVALUE DUP1 ISZERO PUSH1 0xE JUMPI PUSH0 DUP1 REVERT JUMPDEST POP PUSH2 0x2776 DUP1 PUSH2 0x1C PUSH0 CODECOPY PUSH0 RETURN INVALID PUSH1 0x80 PUSH1 0x40 MSTORE CALLVALUE DUP1 ISZERO PUSH2 0xF JUMPI PUSH0 DUP1 REVERT JUMPDEST POP PUSH1 0x4 CALLDATASIZE LT PUSH2 0x55 JUMPI PUSH0 CALLDATALOAD PUSH1 0xE0 SHR DUP1 PUSH4 0x5B428C84 EQ PUSH2 0x59 JUMPI DUP1 PUSH4 0x65410701 EQ PUSH2 0x75 JUMPI DUP1 PUSH4 0xB5AB682D EQ PUSH2 0xA5 JUMPI DUP1 PUSH4 0xC7EF6BFB EQ PUSH2 0xD5 JUMPI DUP1 PUSH4 0xE8F3F53B EQ PUSH2 0x105 JUMPI JUMPDEST PUSH0 DUP1 REVERT JUMPDEST PUSH2 0x73 PUSH1 0x4 DUP1 CALLDATASIZE SUB DUP2 ADD SWAP1 PUSH2 0x6E SWAP2 SWAP1 PUSH2 0x7C0 JUMP JUMPDEST PUSH2 0x13D JUMP JUMPDEST STOP JUMPDEST PUSH2 0x8F PUSH1 0x4 DUP1 CALLDATASIZE SUB DUP2 ADD SWAP1 PUSH2 0x8A SWAP2 SWAP1 PUSH2 0x8D5 JUMP JUMPDEST PUSH2 0x2A3 JUMP JUMPDEST PUSH1 0x40 MLOAD PUSH2 0x9C SWAP2 SWAP1 PUSH2 0x97C JUMP JUMPDEST PUSH1 0x40 MLOAD DUP1 SWAP2 SUB SWAP1 RETURN JUMPDEST PUSH2 0xBF PUSH1 0x4 DUP1 CALLDATASIZE SUB DUP2 ADD SWAP1 PUSH2 0xBA SWAP2 SWAP1 PUSH2 0x99C JUMP JUMPDEST PUSH2 0x374 JUMP JUMPDEST PUSH1 0x40 MLOAD PUSH2 0xCC SWAP2 SWAP1 PUSH2 0xA06 JUMP JUMPDEST PUSH1 0x40 MLOAD DUP1 SWAP2 SUB SWAP1 RETURN JUMPDEST PUSH2 0xEF PUSH1 0x4 DUP1 CALLDATASIZE SUB DUP2 ADD SWAP1 PUSH2 0xEA SWAP2 SWAP1 PUSH2 0x8D5 JUMP JUMPDEST PUSH2 0x3AF JUMP JUMPDEST PUSH1 0x40 MLOAD PUSH2 0xFC SWAP2 SWAP1 PUSH2 0xA7A JUMP JUMPDEST PUSH1 0x40 MLOAD DUP1 SWAP2 SUB SWAP1 RETURN JUMPDEST PUSH2 0x11F PUSH1 0x4 DUP1 CALLDATASIZE SUB DUP2 ADD SWAP1 PUSH2 0x11A SWAP2 SWAP1 PUSH2 0x8D5 JUMP JUMPDEST PUSH2 0x3F6 JUMP JUMPDEST PUSH1 0x40 MLOAD PUSH2 0x134 SWAP10 SWAP9 SWAP8 SWAP7 SWAP6 SWAP5 SWAP4 SWAP3 SWAP2 SWAP1 PUSH2 0xAA2 JUMP JUMPDEST PUSH1 0x40 MLOAD DUP1 SWAP2 SUB SWAP1 RETURN JUMPDEST PUSH0 DUP7 DUP7 PUSH1 0x40 MLOAD PUSH2 0x14C SWAP1 PUSH2 0x633 JUMP JUMPDEST PUSH2 0x157 SWAP3 SWAP2 SWAP1 PUSH2 0xB5E JUMP JUMPDEST PUSH1 0x40 MLOAD DUP1 SWAP2 SUB SWAP1 PUSH0 CREATE DUP1 ISZERO DUP1 ISZERO PUSH2 0x170 JUMPI RETURNDATASIZE PUSH0 DUP1 RETURNDATACOPY RETURNDATASIZE PUSH0 REVERT JUMPDEST POP SWAP1 POP DUP1 PUSH20 0xFFFFFFFFFFFFFFFFFFFFFFFFFFFFFFFFFFFFFFFF AND PUSH4 0xBBD57851 DUP7 DUP7 DUP7 DUP7 PUSH1 0x40 MLOAD DUP6 PUSH4 0xFFFFFFFF AND PUSH1 0xE0 SHL DUP2 MSTORE PUSH1 0x4 ADD PUSH2 0x1B2 SWAP5 SWAP4 SWAP3 SWAP2 SWAP1 PUSH2 0xB93 JUMP JUMPDEST PUSH0 PUSH1 0x40 MLOAD DUP1 DUP4 SUB DUP2 PUSH0 DUP8 DUP1 EXTCODESIZE ISZERO DUP1 ISZERO PUSH2 0x1C9 JUMPI PUSH0 DUP1 REVERT JUMPDEST POP GAS CALL ISZERO DUP1 ISZERO PUSH2 0x1DB JUMPI RETURNDATASIZE PUSH0 DUP1 RETURNDATACOPY RETURNDATASIZE PUSH0 REVERT JUMPDEST POP POP POP POP DUP1 PUSH0 DUP6 PUSH1 0x40 MLOAD PUSH2 0x1EF SWAP2 SWAP1 PUSH2 0xC25 JUMP JUMPDEST SWAP1 DUP2 MSTORE PUSH1 0x20 ADD PUSH1 0x40 MLOAD DUP1 SWAP2 SUB SWAP1 KECCAK256 PUSH0 PUSH2 0x100 EXP DUP2 SLOAD DUP2 PUSH20 0xFFFFFFFFFFFFFFFFFFFFFFFFFFFFFFFFFFFFFFFF MUL NOT AND SWAP1 DUP4 PUSH20 0xFFFFFFFFFFFFFFFFFFFFFFFFFFFFFFFFFFFFFFFF AND MUL OR SWAP1 SSTORE POP PUSH1 0x1 DUP2 SWAP1 DUP1 PUSH1 0x1 DUP2 SLOAD ADD DUP1 DUP3 SSTORE DUP1 SWAP2 POP POP PUSH1 0x1 SWAP1 SUB SWAP1 PUSH0 MSTORE PUSH1 0x20 PUSH0 KECCAK256 ADD PUSH0 SWAP1 SWAP2 SWAP1 SWAP2 SWAP1 SWAP2 PUSH2 0x100 EXP DUP2 SLOAD DUP2 PUSH20 0xFFFFFFFFFFFFFFFFFFFFFFFFFFFFFFFFFFFFFFFF MUL NOT AND SWAP1 DUP4 PUSH20 0xFFFFFFFFFFFFFFFFFFFFFFFFFFFFFFFFFFFFFFFF AND MUL OR SWAP1 SSTORE POP POP POP POP POP POP POP POP JUMP JUMPDEST PUSH1 0x60 PUSH0 DUP1 DUP4 PUSH1 0x40 MLOAD PUSH2 0x2B5 SWAP2 SWAP1 PUSH2 0xC25 JUMP JUMPDEST SWAP1 DUP2 MSTORE PUSH1 0x20 ADD PUSH1 0x40 MLOAD DUP1 SWAP2 SUB SWAP1 KECCAK256 PUSH0 SWAP1 SLOAD SWAP1 PUSH2 0x100 EXP SWAP1 DIV PUSH20 0xFFFFFFFFFFFFFFFFFFFFFFFFFFFFFFFFFFFFFFFF AND SWAP1 POP PUSH0 PUSH20 0xFFFFFFFFFFFFFFFFFFFFFFFFFFFFFFFFFFFFFFFF AND DUP2 PUSH20 0xFFFFFFFFFFFFFFFFFFFFFFFFFFFFFFFFFFFFFFFF AND SUB PUSH2 0x353 JUMPI PUSH1 0x40 MLOAD PUSH32 0x8C379A000000000000000000000000000000000000000000000000000000000 DUP2 MSTORE PUSH1 0x4 ADD PUSH2 0x34A SWAP1 PUSH2 0xC85 JUMP JUMPDEST PUSH1 0x40 MLOAD DUP1 SWAP2 SUB SWAP1 REVERT JUMPDEST PUSH1 0x40 MLOAD DUP1 PUSH1 0x80 ADD PUSH1 0x40 MSTORE DUP1 PUSH1 0x42 DUP2 MSTORE PUSH1 0x20 ADD PUSH2 0x26FF PUSH1 0x42 SWAP2 CODECOPY SWAP2 POP POP SWAP2 SWAP1 POP JUMP JUMPDEST PUSH1 0x1 DUP2 DUP2 SLOAD DUP2 LT PUSH2 0x383 JUMPI PUSH0 DUP1 REVERT JUMPDEST SWAP1 PUSH0 MSTORE PUSH1 0x20 PUSH0 KECCAK256 ADD PUSH0 SWAP2 POP SLOAD SWAP1 PUSH2 0x100 EXP SWAP1 DIV PUSH20 0xFFFFFFFFFFFFFFFFFFFFFFFFFFFFFFFFFFFFFFFF AND DUP2 JUMP JUMPDEST PUSH0 DUP2 DUP1 MLOAD PUSH1 0x20 DUP2 ADD DUP3 ADD DUP1 MLOAD DUP5 DUP3 MSTORE PUSH1 0x20 DUP4 ADD PUSH1 0x20 DUP6 ADD KECCAK256 DUP2 DUP4 MSTORE DUP1 SWAP6 POP POP POP POP POP POP PUSH0 SWAP2 POP SLOAD SWAP1 PUSH2 0x100 EXP SWAP1 DIV PUSH20 0xFFFFFFFFFFFFFFFFFFFFFFFFFFFFFFFFFFFFFFFF AND DUP2 JUMP JUMPDEST PUSH1 0x60 DUP1 PUSH1 0x60 PUSH0 PUSH1 0x60 DUP1 PUSH1 0x60 DUP1 PUSH0 DUP1 PUSH0 DUP12 PUSH1 0x40 MLOAD PUSH2 0x413 SWAP2 SWAP1 PUSH2 0xC25 JUMP JUMPDEST SWAP1 DUP2 MSTORE PUSH1 0x20 ADD PUSH1 0x40 MLOAD DUP1 SWAP2 SUB SWAP1 KECCAK256 PUSH0 SWAP1 SLOAD SWAP1 PUSH2 0x100 EXP SWAP1 DIV PUSH20 0xFFFFFFFFFFFFFFFFFFFFFFFFFFFFFFFFFFFFFFFF AND SWAP1 POP PUSH0 PUSH20 0xFFFFFFFFFFFFFFFFFFFFFFFFFFFFFFFFFFFFFFFF AND DUP2 PUSH20 0xFFFFFFFFFFFFFFFFFFFFFFFFFFFFFFFFFFFFFFFF AND SUB PUSH2 0x4B1 JUMPI PUSH1 0x40 MLOAD PUSH32 0x8C379A000000000000000000000000000000000000000000000000000000000 DUP2 MSTORE PUSH1 0x4 ADD PUSH2 0x4A8 SWAP1 PUSH2 0xC85 JUMP JUMPDEST PUSH1 0x40 MLOAD DUP1 SWAP2 SUB SWAP1 REVERT JUMPDEST DUP1 PUSH20 0xFFFFFFFFFFFFFFFFFFFFFFFFFFFFFFFFFFFFFFFF AND PUSH4 0xE81BD2A4 PUSH1 0x40 MLOAD DUP2 PUSH4 0xFFFFFFFF AND PUSH1 0xE0 SHL DUP2 MSTORE PUSH1 0x4 ADD PUSH0 PUSH1 0x40 MLOAD DUP1 DUP4 SUB DUP2 DUP7 GAS STATICCALL ISZERO DUP1 ISZERO PUSH2 0x4F9 JUMPI RETURNDATASIZE PUSH0 DUP1 RETURNDATACOPY RETURNDATASIZE PUSH0 REVERT JUMPDEST POP POP POP POP PUSH1 0x40 MLOAD RETURNDATASIZE PUSH0 DUP3 RETURNDATACOPY RETURNDATASIZE PUSH1 0x1F NOT PUSH1 0x1F DUP3 ADD AND DUP3 ADD DUP1 PUSH1 0x40 MSTORE POP DUP2 ADD SWAP1 PUSH2 0x521 SWAP2 SWAP1 PUSH2 0xD25 JUMP JUMPDEST DUP1 SWAP11 POP DUP2 SWAP12 POP DUP3 SWAP13 POP DUP4 SWAP14 POP POP POP POP POP DUP1 PUSH20 0xFFFFFFFFFFFFFFFFFFFFFFFFFFFFFFFFFFFFFFFF AND PUSH4 0x1B0C2670 PUSH1 0x40 MLOAD DUP2 PUSH4 0xFFFFFFFF AND PUSH1 0xE0 SHL DUP2 MSTORE PUSH1 0x4 ADD PUSH0 PUSH1 0x40 MLOAD DUP1 DUP4 SUB DUP2 DUP7 GAS STATICCALL ISZERO DUP1 ISZERO PUSH2 0x579 JUMPI RETURNDATASIZE PUSH0 DUP1 RETURNDATACOPY RETURNDATASIZE PUSH0 REVERT JUMPDEST POP POP POP POP PUSH1 0x40 MLOAD RETURNDATASIZE PUSH0 DUP3 RETURNDATACOPY RETURNDATASIZE PUSH1 0x1F NOT PUSH1 0x1F DUP3 ADD AND DUP3 ADD DUP1 PUSH1 0x40 MSTORE POP DUP2 ADD SWAP1 PUSH2 0x5A1 SWAP2 SWAP1 PUSH2 0xDDD JUMP JUMPDEST DUP1 SWAP7 POP DUP2 SWAP8 POP POP POP DUP1 PUSH20 0xFFFFFFFFFFFFFFFFFFFFFFFFFFFFFFFFFFFFFFFF AND PUSH4 0xF8FD1948 PUSH1 0x40 MLOAD DUP2 PUSH4 0xFFFFFFFF AND PUSH1 0xE0 SHL DUP2 MSTORE PUSH1 0x4 ADD PUSH0 PUSH1 0x40 MLOAD DUP1 DUP4 SUB DUP2 DUP7 GAS STATICCALL ISZERO DUP1 ISZERO PUSH2 0x5F1 JUMPI RETURNDATASIZE PUSH0 DUP1 RETURNDATACOPY RETURNDATASIZE PUSH0 REVERT JUMPDEST POP POP POP POP PUSH1 0x40 MLOAD RETURNDATASIZE PUSH0 DUP3 RETURNDATACOPY RETURNDATASIZE PUSH1 0x1F NOT PUSH1 0x1F DUP3 ADD AND DUP3 ADD DUP1 PUSH1 0x40 MSTORE POP DUP2 ADD SWAP1 PUSH2 0x619 SWAP2 SWAP1 PUSH2 0xE53 JUMP JUMPDEST DUP1 SWAP5 POP DUP2 SWAP6 POP DUP3 SWAP7 POP POP POP POP POP SWAP2 SWAP4 SWAP6 SWAP8 SWAP10 SWAP1 SWAP3 SWAP5 SWAP7 SWAP9 POP JUMP JUMPDEST PUSH2 0x1823 DUP1 PUSH2 0xEDC DUP4 CODECOPY ADD SWAP1 JUMP JUMPDEST PUSH0 PUSH1 0x40 MLOAD SWAP1 POP SWAP1 JUMP JUMPDEST PUSH0 DUP1 REVERT JUMPDEST PUSH0 DUP1 REVERT JUMPDEST PUSH0 DUP1 REVERT JUMPDEST PUSH0 DUP1 REVERT JUMPDEST PUSH0 PUSH1 0x1F NOT PUSH1 0x1F DUP4 ADD AND SWAP1 POP SWAP2 SWAP1 POP JUMP JUMPDEST PUSH32 0x4E487B7100000000000000000000000000000000000000000000000000000000 PUSH0 MSTORE PUSH1 0x41 PUSH1 0x4 MSTORE PUSH1 0x24 PUSH0 REVERT JUMPDEST PUSH2 0x69F DUP3 PUSH2 0x659 JUMP JUMPDEST DUP2 ADD DUP2 DUP2 LT PUSH8 0xFFFFFFFFFFFFFFFF DUP3 GT OR ISZERO PUSH2 0x6BE JUMPI PUSH2 0x6BD PUSH2 0x669 JUMP JUMPDEST JUMPDEST DUP1 PUSH1 0x40 MSTORE POP POP POP JUMP JUMPDEST PUSH0 PUSH2 0x6D0 PUSH2 0x640 JUMP JUMPDEST SWAP1 POP PUSH2 0x6DC DUP3 DUP3 PUSH2 0x696 JUMP JUMPDEST SWAP2 SWAP1 POP JUMP JUMPDEST PUSH0 PUSH8 0xFFFFFFFFFFFFFFFF DUP3 GT ISZERO PUSH2 0x6FB JUMPI PUSH2 0x6FA PUSH2 0x669 JUMP JUMPDEST JUMPDEST PUSH2 0x704 DUP3 PUSH2 0x659 JUMP JUMPDEST SWAP1 POP PUSH1 0x20 DUP2 ADD SWAP1 POP SWAP2 SWAP1 POP JUMP JUMPDEST DUP3 DUP2 DUP4 CALLDATACOPY PUSH0 DUP4 DUP4 ADD MSTORE POP POP POP JUMP JUMPDEST PUSH0 PUSH2 0x731 PUSH2 0x72C DUP5 PUSH2 0x6E1 JUMP JUMPDEST PUSH2 0x6C7 JUMP JUMPDEST SWAP1 POP DUP3 DUP2 MSTORE PUSH1 0x20 DUP2 ADD DUP5 DUP5 DUP5 ADD GT ISZERO PUSH2 0x74D JUMPI PUSH2 0x74C PUSH2 0x655 JUMP JUMPDEST JUMPDEST PUSH2 0x758 DUP5 DUP3 DUP6 PUSH2 0x711 JUMP JUMPDEST POP SWAP4 SWAP3 POP POP POP JUMP JUMPDEST PUSH0 DUP3 PUSH1 0x1F DUP4 ADD SLT PUSH2 0x774 JUMPI PUSH2 0x773 PUSH2 0x651 JUMP JUMPDEST JUMPDEST DUP2 CALLDATALOAD PUSH2 0x784 DUP5 DUP3 PUSH1 0x20 DUP7 ADD PUSH2 0x71F JUMP JUMPDEST SWAP2 POP POP SWAP3 SWAP2 POP POP JUMP JUMPDEST PUSH0 DUP2 SWAP1 POP SWAP2 SWAP1 POP JUMP JUMPDEST PUSH2 0x79F DUP2 PUSH2 0x78D JUMP JUMPDEST DUP2 EQ PUSH2 0x7A9 JUMPI PUSH0 DUP1 REVERT JUMPDEST POP JUMP JUMPDEST PUSH0 DUP2 CALLDATALOAD SWAP1 POP PUSH2 0x7BA DUP2 PUSH2 0x796 JUMP JUMPDEST SWAP3 SWAP2 POP POP JUMP JUMPDEST PUSH0 DUP1 PUSH0 DUP1 PUSH0 DUP1 PUSH1 0xC0 DUP8 DUP10 SUB SLT ISZERO PUSH2 0x7DA JUMPI PUSH2 0x7D9 PUSH2 0x649 JUMP JUMPDEST JUMPDEST PUSH0 DUP8 ADD CALLDATALOAD PUSH8 0xFFFFFFFFFFFFFFFF DUP2 GT ISZERO PUSH2 0x7F7 JUMPI PUSH2 0x7F6 PUSH2 0x64D JUMP JUMPDEST JUMPDEST PUSH2 0x803 DUP10 DUP3 DUP11 ADD PUSH2 0x760 JUMP JUMPDEST SWAP7 POP POP PUSH1 0x20 DUP8 ADD CALLDATALOAD PUSH8 0xFFFFFFFFFFFFFFFF DUP2 GT ISZERO PUSH2 0x824 JUMPI PUSH2 0x823 PUSH2 0x64D JUMP JUMPDEST JUMPDEST PUSH2 0x830 DUP10 DUP3 DUP11 ADD PUSH2 0x760 JUMP JUMPDEST SWAP6 POP POP PUSH1 0x40 DUP8 ADD CALLDATALOAD PUSH8 0xFFFFFFFFFFFFFFFF DUP2 GT ISZERO PUSH2 0x851 JUMPI PUSH2 0x850 PUSH2 0x64D JUMP JUMPDEST JUMPDEST PUSH2 0x85D DUP10 DUP3 DUP11 ADD PUSH2 0x760 JUMP JUMPDEST SWAP5 POP POP PUSH1 0x60 DUP8 ADD CALLDATALOAD PUSH8 0xFFFFFFFFFFFFFFFF DUP2 GT ISZERO PUSH2 0x87E JUMPI PUSH2 0x87D PUSH2 0x64D JUMP JUMPDEST JUMPDEST PUSH2 0x88A DUP10 DUP3 DUP11 ADD PUSH2 0x760 JUMP JUMPDEST SWAP4 POP POP PUSH1 0x80 DUP8 ADD CALLDATALOAD PUSH8 0xFFFFFFFFFFFFFFFF DUP2 GT ISZERO PUSH2 0x8AB JUMPI PUSH2 0x8AA PUSH2 0x64D JUMP JUMPDEST JUMPDEST PUSH2 0x8B7 DUP10 DUP3 DUP11 ADD PUSH2 0x760 JUMP JUMPDEST SWAP3 POP POP PUSH1 0xA0 PUSH2 0x8C8 DUP10 DUP3 DUP11 ADD PUSH2 0x7AC JUMP JUMPDEST SWAP2 POP POP SWAP3 SWAP6 POP SWAP3 SWAP6 POP SWAP3 SWAP6 JUMP JUMPDEST PUSH0 PUSH1 0x20 DUP3 DUP5 SUB SLT ISZERO PUSH2 0x8EA JUMPI PUSH2 0x8E9 PUSH2 0x649 JUMP JUMPDEST JUMPDEST PUSH0 DUP3 ADD CALLDATALOAD PUSH8 0xFFFFFFFFFFFFFFFF DUP2 GT ISZERO PUSH2 0x907 JUMPI PUSH2 0x906 PUSH2 0x64D JUMP JUMPDEST JUMPDEST PUSH2 0x913 DUP5 DUP3 DUP6 ADD PUSH2 0x760 JUMP JUMPDEST SWAP2 POP POP SWAP3 SWAP2 POP POP JUMP JUMPDEST PUSH0 DUP2 MLOAD SWAP1 POP SWAP2 SWAP1 POP JUMP JUMPDEST PUSH0 DUP3 DUP3 MSTORE PUSH1 0x20 DUP3 ADD SWAP1 POP SWAP3 SWAP2 POP POP JUMP JUMPDEST DUP3 DUP2 DUP4 MCOPY PUSH0 DUP4 DUP4 ADD MSTORE POP POP POP JUMP JUMPDEST PUSH0 PUSH2 0x94E DUP3 PUSH2 0x91C JUMP JUMPDEST PUSH2 0x958 DUP2 DUP6 PUSH2 0x926 JUMP JUMPDEST SWAP4 POP PUSH2 0x968 DUP2 DUP6 PUSH1 0x20 DUP7 ADD PUSH2 0x936 JUMP JUMPDEST PUSH2 0x971 DUP2 PUSH2 0x659 JUMP JUMPDEST DUP5 ADD SWAP2 POP POP SWAP3 SWAP2 POP POP JUMP JUMPDEST PUSH0 PUSH1 0x20 DUP3 ADD SWAP1 POP DUP2 DUP2 SUB PUSH0 DUP4 ADD MSTORE PUSH2 0x994 DUP2 DUP5 PUSH2 0x944 JUMP JUMPDEST SWAP1 POP SWAP3 SWAP2 POP POP JUMP JUMPDEST PUSH0 PUSH1 0x20 DUP3 DUP5 SUB SLT ISZERO PUSH2 0x9B1 JUMPI PUSH2 0x9B0 PUSH2 0x649 JUMP JUMPDEST JUMPDEST PUSH0 PUSH2 0x9BE DUP5 DUP3 DUP6 ADD PUSH2 0x7AC JUMP JUMPDEST SWAP2 POP POP SWAP3 SWAP2 POP POP JUMP JUMPDEST PUSH0 PUSH20 0xFFFFFFFFFFFFFFFFFFFFFFFFFFFFFFFFFFFFFFFF DUP3 AND SWAP1 POP SWAP2 SWAP1 POP JUMP JUMPDEST PUSH0 PUSH2 0x9F0 DUP3 PUSH2 0x9C7 JUMP JUMPDEST SWAP1 POP SWAP2 SWAP1 POP JUMP JUMPDEST PUSH2 0xA00 DUP2 PUSH2 0x9E6 JUMP JUMPDEST DUP3 MSTORE POP POP JUMP JUMPDEST PUSH0 PUSH1 0x20 DUP3 ADD SWAP1 POP PUSH2 0xA19 PUSH0 DUP4 ADD DUP5 PUSH2 0x9F7 JUMP JUMPDEST SWAP3 SWAP2 POP POP JUMP JUMPDEST PUSH0 DUP2 SWAP1 POP SWAP2 SWAP1 POP JUMP JUMPDEST PUSH0 PUSH2 0xA42 PUSH2 0xA3D PUSH2 0xA38 DUP5 PUSH2 0x9C7 JUMP JUMPDEST PUSH2 0xA1F JUMP JUMPDEST PUSH2 0x9C7 JUMP JUMPDEST SWAP1 POP SWAP2 SWAP1 POP JUMP JUMPDEST PUSH0 PUSH2 0xA53 DUP3 PUSH2 0xA28 JUMP JUMPDEST SWAP1 POP SWAP2 SWAP1 POP JUMP JUMPDEST PUSH0 PUSH2 0xA64 DUP3 PUSH2 0xA49 JUMP JUMPDEST SWAP1 POP SWAP2 SWAP1 POP JUMP JUMPDEST PUSH2 0xA74 DUP2 PUSH2 0xA5A JUMP JUMPDEST DUP3 MSTORE POP POP JUMP JUMPDEST PUSH0 PUSH1 0x20 DUP3 ADD SWAP1 POP PUSH2 0xA8D PUSH0 DUP4 ADD DUP5 PUSH2 0xA6B JUMP JUMPDEST SWAP3 SWAP2 POP POP JUMP JUMPDEST PUSH2 0xA9C DUP2 PUSH2 0x78D JUMP JUMPDEST DUP3 MSTORE POP POP JUMP JUMPDEST PUSH0 PUSH2 0x120 DUP3 ADD SWAP1 POP DUP2 DUP2 SUB PUSH0 DUP4 ADD MSTORE PUSH2 0xABB DUP2 DUP13 PUSH2 0x944 JUMP JUMPDEST SWAP1 POP DUP2 DUP2 SUB PUSH1 0x20 DUP4 ADD MSTORE PUSH2 0xACF DUP2 DUP12 PUSH2 0x944 JUMP JUMPDEST SWAP1 POP DUP2 DUP2 SUB PUSH1 0x40 DUP4 ADD MSTORE PUSH2 0xAE3 DUP2 DUP11 PUSH2 0x944 JUMP JUMPDEST SWAP1 POP PUSH2 0xAF2 PUSH1 0x60 DUP4 ADD DUP10 PUSH2 0xA93 JUMP JUMPDEST DUP2 DUP2 SUB PUSH1 0x80 DUP4 ADD MSTORE PUSH2 0xB04 DUP2 DUP9 PUSH2 0x944 JUMP JUMPDEST SWAP1 POP DUP2 DUP2 SUB PUSH1 0xA0 DUP4 ADD MSTORE PUSH2 0xB18 DUP2 DUP8 PUSH2 0x944 JUMP JUMPDEST SWAP1 POP DUP2 DUP2 SUB PUSH1 0xC0 DUP4 ADD MSTORE PUSH2 0xB2C DUP2 DUP7 PUSH2 0x944 JUMP JUMPDEST SWAP1 POP DUP2 DUP2 SUB PUSH1 0xE0 DUP4 ADD MSTORE PUSH2 0xB40 DUP2 DUP6 PUSH2 0x944 JUMP JUMPDEST SWAP1 POP PUSH2 0xB50 PUSH2 0x100 DUP4 ADD DUP5 PUSH2 0xA93 JUMP JUMPDEST SWAP11 SWAP10 POP POP POP POP POP POP POP POP POP POP JUMP JUMPDEST PUSH0 PUSH1 0x40 DUP3 ADD SWAP1 POP DUP2 DUP2 SUB PUSH0 DUP4 ADD MSTORE PUSH2 0xB76 DUP2 DUP6 PUSH2 0x944 JUMP JUMPDEST SWAP1 POP DUP2 DUP2 SUB PUSH1 0x20 DUP4 ADD MSTORE PUSH2 0xB8A DUP2 DUP5 PUSH2 0x944 JUMP JUMPDEST SWAP1 POP SWAP4 SWAP3 POP POP POP JUMP JUMPDEST PUSH0 PUSH1 0x80 DUP3 ADD SWAP1 POP DUP2 DUP2 SUB PUSH0 DUP4 ADD MSTORE PUSH2 0xBAB DUP2 DUP8 PUSH2 0x944 JUMP JUMPDEST SWAP1 POP DUP2 DUP2 SUB PUSH1 0x20 DUP4 ADD MSTORE PUSH2 0xBBF DUP2 DUP7 PUSH2 0x944 JUMP JUMPDEST SWAP1 POP DUP2 DUP2 SUB PUSH1 0x40 DUP4 ADD MSTORE PUSH2 0xBD3 DUP2 DUP6 PUSH2 0x944 JUMP JUMPDEST SWAP1 POP PUSH2 0xBE2 PUSH1 0x60 DUP4 ADD DUP5 PUSH2 0xA93 JUMP JUMPDEST SWAP6 SWAP5 POP POP POP POP POP JUMP JUMPDEST PUSH0 DUP2 SWAP1 POP SWAP3 SWAP2 POP POP JUMP JUMPDEST PUSH0 PUSH2 0xBFF DUP3 PUSH2 0x91C JUMP JUMPDEST PUSH2 0xC09 DUP2 DUP6 PUSH2 0xBEB JUMP JUMPDEST SWAP4 POP PUSH2 0xC19 DUP2 DUP6 PUSH1 0x20 DUP7 ADD PUSH2 0x936 JUMP JUMPDEST DUP1 DUP5 ADD SWAP2 POP POP SWAP3 SWAP2 POP POP JUMP JUMPDEST PUSH0 PUSH2 0xC30 DUP3 DUP5 PUSH2 0xBF5 JUMP JUMPDEST SWAP2 POP DUP2 SWAP1 POP SWAP3 SWAP2 POP POP JUMP JUMPDEST PUSH32 0x53747564656E74206E6F7420666F756E642E0000000000000000000000000000 PUSH0 DUP3 ADD MSTORE POP JUMP JUMPDEST PUSH0 PUSH2 0xC6F PUSH1 0x12 DUP4 PUSH2 0x926 JUMP JUMPDEST SWAP2 POP PUSH2 0xC7A DUP3 PUSH2 0xC3B JUMP JUMPDEST PUSH1 0x20 DUP3 ADD SWAP1 POP SWAP2 SWAP1 POP JUMP JUMPDEST PUSH0 PUSH1 0x20 DUP3 ADD SWAP1 POP DUP2 DUP2 SUB PUSH0 DUP4 ADD MSTORE PUSH2 0xC9C DUP2 PUSH2 0xC63 JUMP JUMPDEST SWAP1 POP SWAP2 SWAP1 POP JUMP JUMPDEST PUSH0 PUSH2 0xCB5 PUSH2 0xCB0 DUP5 PUSH2 0x6E1 JUMP JUMPDEST PUSH2 0x6C7 JUMP JUMPDEST SWAP1 POP DUP3 DUP2 MSTORE PUSH1 0x20 DUP2 ADD DUP5 DUP5 DUP5 ADD GT ISZERO PUSH2 0xCD1 JUMPI PUSH2 0xCD0 PUSH2 0x655 JUMP JUMPDEST JUMPDEST PUSH2 0xCDC DUP5 DUP3 DUP6 PUSH2 0x936 JUMP JUMPDEST POP SWAP4 SWAP3 POP POP POP JUMP JUMPDEST PUSH0 DUP3 PUSH1 0x1F DUP4 ADD SLT PUSH2 0xCF8 JUMPI PUSH2 0xCF7 PUSH2 0x651 JUMP JUMPDEST JUMPDEST DUP2 MLOAD PUSH2 0xD08 DUP5 DUP3 PUSH1 0x20 DUP7 ADD PUSH2 0xCA3 JUMP JUMPDEST SWAP2 POP POP SWAP3 SWAP2 POP POP JUMP JUMPDEST PUSH0 DUP2 MLOAD SWAP1 POP PUSH2 0xD1F DUP2 PUSH2 0x796 JUMP JUMPDEST SWAP3 SWAP2 POP POP JUMP JUMPDEST PUSH0 DUP1 PUSH0 DUP1 PUSH1 0x80 DUP6 DUP8 SUB SLT ISZERO PUSH2 0xD3D JUMPI PUSH2 0xD3C PUSH2 0x649 JUMP JUMPDEST JUMPDEST PUSH0 DUP6 ADD MLOAD PUSH8 0xFFFFFFFFFFFFFFFF DUP2 GT ISZERO PUSH2 0xD5A JUMPI PUSH2 0xD59 PUSH2 0x64D JUMP JUMPDEST JUMPDEST PUSH2 0xD66 DUP8 DUP3 DUP9 ADD PUSH2 0xCE4 JUMP JUMPDEST SWAP5 POP POP PUSH1 0x20 DUP6 ADD MLOAD PUSH8 0xFFFFFFFFFFFFFFFF DUP2 GT ISZERO PUSH2 0xD87 JUMPI PUSH2 0xD86 PUSH2 0x64D JUMP JUMPDEST JUMPDEST PUSH2 0xD93 DUP8 DUP3 DUP9 ADD PUSH2 0xCE4 JUMP JUMPDEST SWAP4 POP POP PUSH1 0x40 DUP6 ADD MLOAD PUSH8 0xFFFFFFFFFFFFFFFF DUP2 GT ISZERO PUSH2 0xDB4 JUMPI PUSH2 0xDB3 PUSH2 0x64D JUMP JUMPDEST JUMPDEST PUSH2 0xDC0 DUP8 DUP3 DUP9 ADD PUSH2 0xCE4 JUMP JUMPDEST SWAP3 POP POP PUSH1 0x60 PUSH2 0xDD1 DUP8 DUP3 DUP9 ADD PUSH2 0xD11 JUMP JUMPDEST SWAP2 POP POP SWAP3 SWAP6 SWAP2 SWAP5 POP SWAP3 POP JUMP JUMPDEST PUSH0 DUP1 PUSH1 0x40 DUP4 DUP6 SUB SLT ISZERO PUSH2 0xDF3 JUMPI PUSH2 0xDF2 PUSH2 0x649 JUMP JUMPDEST JUMPDEST PUSH0 DUP4 ADD MLOAD PUSH8 0xFFFFFFFFFFFFFFFF DUP2 GT ISZERO PUSH2 0xE10 JUMPI PUSH2 0xE0F PUSH2 0x64D JUMP JUMPDEST JUMPDEST PUSH2 0xE1C DUP6 DUP3 DUP7 ADD PUSH2 0xCE4 JUMP JUMPDEST SWAP3 POP POP PUSH1 0x20 DUP4 ADD MLOAD PUSH8 0xFFFFFFFFFFFFFFFF DUP2 GT ISZERO PUSH2 0xE3D JUMPI PUSH2 0xE3C PUSH2 0x64D JUMP JUMPDEST JUMPDEST PUSH2 0xE49 DUP6 DUP3 DUP7 ADD PUSH2 0xCE4 JUMP JUMPDEST SWAP2 POP POP SWAP3 POP SWAP3 SWAP1 POP JUMP JUMPDEST PUSH0 DUP1 PUSH0 PUSH1 0x60 DUP5 DUP7 SUB SLT ISZERO PUSH2 0xE6A JUMPI PUSH2 0xE69 PUSH2 0x649 JUMP JUMPDEST JUMPDEST PUSH0 DUP5 ADD MLOAD PUSH8 0xFFFFFFFFFFFFFFFF DUP2 GT ISZERO PUSH2 0xE87 JUMPI PUSH2 0xE86 PUSH2 0x64D JUMP JUMPDEST JUMPDEST PUSH2 0xE93 DUP7 DUP3 DUP8 ADD PUSH2 0xCE4 JUMP JUMPDEST SWAP4 POP POP PUSH1 0x20 DUP5 ADD MLOAD PUSH8 0xFFFFFFFFFFFFFFFF DUP2 GT ISZERO PUSH2 0xEB4 JUMPI PUSH2 0xEB3 PUSH2 0x64D JUMP JUMPDEST JUMPDEST PUSH2 0xEC0 DUP7 DUP3 DUP8 ADD PUSH2 0xCE4 JUMP JUMPDEST SWAP3 POP POP PUSH1 0x40 PUSH2 0xED1 DUP7 DUP3 DUP8 ADD PUSH2 0xD11 JUMP JUMPDEST SWAP2 POP POP SWAP3 POP SWAP3 POP SWAP3 JUMP INVALID PUSH1 0x80 PUSH1 0x40 MSTORE PUSH1 0x40 MLOAD DUP1 PUSH1 0x40 ADD PUSH1 0x40 MSTORE DUP1 PUSH1 0x10 DUP2 MSTORE PUSH1 0x20 ADD PUSH32 0x44656570616B206B6120686F7374656C00000000000000000000000000000000 DUP2 MSTORE POP PUSH0 SWAP1 DUP2 PUSH2 0x47 SWAP2 SWAP1 PUSH2 0x320 JUMP JUMPDEST POP PUSH1 0x40 MLOAD DUP1 PUSH1 0x40 ADD PUSH1 0x40 MSTORE DUP1 PUSH1 0x5 DUP2 MSTORE PUSH1 0x20 ADD PUSH32 0x5061746E61000000000000000000000000000000000000000000000000000000 DUP2 MSTORE POP PUSH1 0x1 SWAP1 DUP2 PUSH2 0x8C SWAP2 SWAP1 PUSH2 0x320 JUMP JUMPDEST POP PUSH1 0x64 PUSH1 0x2 SSTORE CALLVALUE DUP1 ISZERO PUSH2 0x9D JUMPI PUSH0 DUP1 REVERT JUMPDEST POP PUSH1 0x40 MLOAD PUSH2 0x1823 CODESIZE SUB DUP1 PUSH2 0x1823 DUP4 CODECOPY DUP2 DUP2 ADD PUSH1 0x40 MSTORE DUP2 ADD SWAP1 PUSH2 0xBF SWAP2 SWAP1 PUSH2 0x50F JUMP JUMPDEST DUP2 PUSH1 0x3 SWAP1 DUP2 PUSH2 0xCE SWAP2 SWAP1 PUSH2 0x320 JUMP JUMPDEST POP DUP1 PUSH1 0x4 SWAP1 DUP2 PUSH2 0xDE SWAP2 SWAP1 PUSH2 0x320 JUMP JUMPDEST POP POP POP PUSH2 0x585 JUMP JUMPDEST PUSH0 DUP2 MLOAD SWAP1 POP SWAP2 SWAP1 POP JUMP JUMPDEST PUSH32 0x4E487B7100000000000000000000000000000000000000000000000000000000 PUSH0 MSTORE PUSH1 0x41 PUSH1 0x4 MSTORE PUSH1 0x24 PUSH0 REVERT JUMPDEST PUSH32 0x4E487B7100000000000000000000000000000000000000000000000000000000 PUSH0 MSTORE PUSH1 0x22 PUSH1 0x4 MSTORE PUSH1 0x24 PUSH0 REVERT JUMPDEST PUSH0 PUSH1 0x2 DUP3 DIV SWAP1 POP PUSH1 0x1 DUP3 AND DUP1 PUSH2 0x161 JUMPI PUSH1 0x7F DUP3 AND SWAP2 POP JUMPDEST PUSH1 0x20 DUP3 LT DUP2 SUB PUSH2 0x174 JUMPI PUSH2 0x173 PUSH2 0x11D JUMP JUMPDEST JUMPDEST POP SWAP2 SWAP1 POP JUMP JUMPDEST PUSH0 DUP2 SWAP1 POP DUP2 PUSH0 MSTORE PUSH1 0x20 PUSH0 KECCAK256 SWAP1 POP SWAP2 SWAP1 POP JUMP JUMPDEST PUSH0 PUSH1 0x20 PUSH1 0x1F DUP4 ADD DIV SWAP1 POP SWAP2 SWAP1 POP JUMP JUMPDEST PUSH0 DUP3 DUP3 SHL SWAP1 POP SWAP3 SWAP2 POP POP JUMP JUMPDEST PUSH0 PUSH1 0x8 DUP4 MUL PUSH2 0x1D6 PUSH32 0xFFFFFFFFFFFFFFFFFFFFFFFFFFFFFFFFFFFFFFFFFFFFFFFFFFFFFFFFFFFFFFFF DUP3 PUSH2 0x19B JUMP JUMPDEST PUSH2 0x1E0 DUP7 DUP4 PUSH2 0x19B JUMP JUMPDEST SWAP6 POP DUP1 NOT DUP5 AND SWAP4 POP DUP1 DUP7 AND DUP5 OR SWAP3 POP POP POP SWAP4 SWAP3 POP POP POP JUMP JUMPDEST PUSH0 DUP2 SWAP1 POP SWAP2 SWAP1 POP JUMP JUMPDEST PUSH0 DUP2 SWAP1 POP SWAP2 SWAP1 POP JUMP JUMPDEST PUSH0 PUSH2 0x224 PUSH2 0x21F PUSH2 0x21A DUP5 PUSH2 0x1F8 JUMP JUMPDEST PUSH2 0x201 JUMP JUMPDEST PUSH2 0x1F8 JUMP JUMPDEST SWAP1 POP SWAP2 SWAP1 POP JUMP JUMPDEST PUSH0 DUP2 SWAP1 POP SWAP2 SWAP1 POP JUMP JUMPDEST PUSH2 0x23D DUP4 PUSH2 0x20A JUMP JUMPDEST PUSH2 0x251 PUSH2 0x249 DUP3 PUSH2 0x22B JUMP JUMPDEST DUP5 DUP5 SLOAD PUSH2 0x1A7 JUMP JUMPDEST DUP3 SSTORE POP POP POP POP JUMP JUMPDEST PUSH0 SWAP1 JUMP JUMPDEST PUSH2 0x265 PUSH2 0x259 JUMP JUMPDEST PUSH2 0x270 DUP2 DUP5 DUP5 PUSH2 0x234 JUMP JUMPDEST POP POP POP JUMP JUMPDEST JUMPDEST DUP2 DUP2 LT ISZERO PUSH2 0x293 JUMPI PUSH2 0x288 PUSH0 DUP3 PUSH2 0x25D JUMP JUMPDEST PUSH1 0x1 DUP2 ADD SWAP1 POP PUSH2 0x276 JUMP JUMPDEST POP POP JUMP JUMPDEST PUSH1 0x1F DUP3 GT ISZERO PUSH2 0x2D8 JUMPI PUSH2 0x2A9 DUP2 PUSH2 0x17A JUMP JUMPDEST PUSH2 0x2B2 DUP5 PUSH2 0x18C JUMP JUMPDEST DUP2 ADD PUSH1 0x20 DUP6 LT ISZERO PUSH2 0x2C1 JUMPI DUP2 SWAP1 POP JUMPDEST PUSH2 0x2D5 PUSH2 0x2CD DUP6 PUSH2 0x18C JUMP JUMPDEST DUP4 ADD DUP3 PUSH2 0x275 JUMP JUMPDEST POP POP JUMPDEST POP POP POP JUMP JUMPDEST PUSH0 DUP3 DUP3 SHR SWAP1 POP SWAP3 SWAP2 POP POP JUMP JUMPDEST PUSH0 PUSH2 0x2F8 PUSH0 NOT DUP5 PUSH1 0x8 MUL PUSH2 0x2DD JUMP JUMPDEST NOT DUP1 DUP4 AND SWAP2 POP POP SWAP3 SWAP2 POP POP JUMP JUMPDEST PUSH0 PUSH2 0x310 DUP4 DUP4 PUSH2 0x2E9 JUMP JUMPDEST SWAP2 POP DUP3 PUSH1 0x2 MUL DUP3 OR SWAP1 POP SWAP3 SWAP2 POP POP JUMP JUMPDEST PUSH2 0x329 DUP3 PUSH2 0xE6 JUMP JUMPDEST PUSH8 0xFFFFFFFFFFFFFFFF DUP2 GT ISZERO PUSH2 0x342 JUMPI PUSH2 0x341 PUSH2 0xF0 JUMP JUMPDEST JUMPDEST PUSH2 0x34C DUP3 SLOAD PUSH2 0x14A JUMP JUMPDEST PUSH2 0x357 DUP3 DUP3 DUP6 PUSH2 0x297 JUMP JUMPDEST PUSH0 PUSH1 0x20 SWAP1 POP PUSH1 0x1F DUP4 GT PUSH1 0x1 DUP2 EQ PUSH2 0x388 JUMPI PUSH0 DUP5 ISZERO PUSH2 0x376 JUMPI DUP3 DUP8 ADD MLOAD SWAP1 POP JUMPDEST PUSH2 0x380 DUP6 DUP3 PUSH2 0x305 JUMP JUMPDEST DUP7 SSTORE POP PUSH2 0x3E7 JUMP JUMPDEST PUSH1 0x1F NOT DUP5 AND PUSH2 0x396 DUP7 PUSH2 0x17A JUMP JUMPDEST PUSH0 JUMPDEST DUP3 DUP2 LT ISZERO PUSH2 0x3BD JUMPI DUP5 DUP10 ADD MLOAD DUP3 SSTORE PUSH1 0x1 DUP3 ADD SWAP2 POP PUSH1 0x20 DUP6 ADD SWAP5 POP PUSH1 0x20 DUP2 ADD SWAP1 POP PUSH2 0x398 JUMP JUMPDEST DUP7 DUP4 LT ISZERO PUSH2 0x3DA JUMPI DUP5 DUP10 ADD MLOAD PUSH2 0x3D6 PUSH1 0x1F DUP10 AND DUP3 PUSH2 0x2E9 JUMP JUMPDEST DUP4 SSTORE POP JUMPDEST PUSH1 0x1 PUSH1 0x2 DUP9 MUL ADD DUP9 SSTORE POP POP POP JUMPDEST POP POP POP POP POP POP JUMP JUMPDEST PUSH0 PUSH1 0x40 MLOAD SWAP1 POP SWAP1 JUMP JUMPDEST PUSH0 DUP1 REVERT JUMPDEST PUSH0 DUP1 REVERT JUMPDEST PUSH0 DUP1 REVERT JUMPDEST PUSH0 DUP1 REVERT JUMPDEST PUSH0 PUSH1 0x1F NOT PUSH1 0x1F DUP4 ADD AND SWAP1 POP SWAP2 SWAP1 POP JUMP JUMPDEST PUSH2 0x421 DUP3 PUSH2 0x408 JUMP JUMPDEST DUP2 ADD DUP2 DUP2 LT PUSH8 0xFFFFFFFFFFFFFFFF DUP3 GT OR ISZERO PUSH2 0x440 JUMPI PUSH2 0x43F PUSH2 0xF0 JUMP JUMPDEST JUMPDEST DUP1 PUSH1 0x40 MSTORE POP POP POP JUMP JUMPDEST PUSH0 PUSH2 0x452 PUSH2 0x3EF JUMP JUMPDEST SWAP1 POP PUSH2 0x45E DUP3 DUP3 PUSH2 0x418 JUMP JUMPDEST SWAP2 SWAP1 POP JUMP JUMPDEST PUSH0 PUSH8 0xFFFFFFFFFFFFFFFF DUP3 GT ISZERO PUSH2 0x47D JUMPI PUSH2 0x47C PUSH2 0xF0 JUMP JUMPDEST JUMPDEST PUSH2 0x486 DUP3 PUSH2 0x408 JUMP JUMPDEST SWAP1 POP PUSH1 0x20 DUP2 ADD SWAP1 POP SWAP2 SWAP1 POP JUMP JUMPDEST DUP3 DUP2 DUP4 MCOPY PUSH0 DUP4 DUP4 ADD MSTORE POP POP POP JUMP JUMPDEST PUSH0 PUSH2 0x4B3 PUSH2 0x4AE DUP5 PUSH2 0x463 JUMP JUMPDEST PUSH2 0x449 JUMP JUMPDEST SWAP1 POP DUP3 DUP2 MSTORE PUSH1 0x20 DUP2 ADD DUP5 DUP5 DUP5 ADD GT ISZERO PUSH2 0x4CF JUMPI PUSH2 0x4CE PUSH2 0x404 JUMP JUMPDEST JUMPDEST PUSH2 0x4DA DUP5 DUP3 DUP6 PUSH2 0x493 JUMP JUMPDEST POP SWAP4 SWAP3 POP POP POP JUMP JUMPDEST PUSH0 DUP3 PUSH1 0x1F DUP4 ADD SLT PUSH2 0x4F6 JUMPI PUSH2 0x4F5 PUSH2 0x400 JUMP JUMPDEST JUMPDEST DUP2 MLOAD PUSH2 0x506 DUP5 DUP3 PUSH1 0x20 DUP7 ADD PUSH2 0x4A1 JUMP JUMPDEST SWAP2 POP POP SWAP3 SWAP2 POP POP JUMP JUMPDEST PUSH0 DUP1 PUSH1 0x40 DUP4 DUP6 SUB SLT ISZERO PUSH2 0x525 JUMPI PUSH2 0x524 PUSH2 0x3F8 JUMP JUMPDEST JUMPDEST PUSH0 DUP4 ADD MLOAD PUSH8 0xFFFFFFFFFFFFFFFF DUP2 GT ISZERO PUSH2 0x542 JUMPI PUSH2 0x541 PUSH2 0x3FC JUMP JUMPDEST JUMPDEST PUSH2 0x54E DUP6 DUP3 DUP7 ADD PUSH2 0x4E2 JUMP JUMPDEST SWAP3 POP POP PUSH1 0x20 DUP4 ADD MLOAD PUSH8 0xFFFFFFFFFFFFFFFF DUP2 GT ISZERO PUSH2 0x56F JUMPI PUSH2 0x56E PUSH2 0x3FC JUMP JUMPDEST JUMPDEST PUSH2 0x57B DUP6 DUP3 DUP7 ADD PUSH2 0x4E2 JUMP JUMPDEST SWAP2 POP POP SWAP3 POP SWAP3 SWAP1 POP JUMP JUMPDEST PUSH2 0x1291 DUP1 PUSH2 0x592 PUSH0 CODECOPY PUSH0 RETURN INVALID PUSH1 0x80 PUSH1 0x40 MSTORE CALLVALUE DUP1 ISZERO PUSH2 0xF JUMPI PUSH0 DUP1 REVERT JUMPDEST POP PUSH1 0x4 CALLDATASIZE LT PUSH2 0xE8 JUMPI PUSH0 CALLDATALOAD PUSH1 0xE0 SHR DUP1 PUSH4 0xBBD57851 GT PUSH2 0x8A JUMPI DUP1 PUSH4 0xD57831F5 GT PUSH2 0x64 JUMPI DUP1 PUSH4 0xD57831F5 EQ PUSH2 0x219 JUMPI DUP1 PUSH4 0xE81BD2A4 EQ PUSH2 0x237 JUMPI DUP1 PUSH4 0xEB96548F EQ PUSH2 0x258 JUMPI DUP1 PUSH4 0xF8FD1948 EQ PUSH2 0x276 JUMPI PUSH2 0xE8 JUMP JUMPDEST DUP1 PUSH4 0xBBD57851 EQ PUSH2 0x1C1 JUMPI DUP1 PUSH4 0xC607BA4D EQ PUSH2 0x1DD JUMPI DUP1 PUSH4 0xCB9CB0C2 EQ PUSH2 0x1FB JUMPI PUSH2 0xE8 JUMP JUMPDEST DUP1 PUSH4 0x99D568B3 GT PUSH2 0xC6 JUMPI DUP1 PUSH4 0x99D568B3 EQ PUSH2 0x147 JUMPI DUP1 PUSH4 0x9D8C8315 EQ PUSH2 0x165 JUMPI DUP1 PUSH4 0xB508BA31 EQ PUSH2 0x185 JUMPI DUP1 PUSH4 0xB975ABB3 EQ PUSH2 0x1A3 JUMPI PUSH2 0xE8 JUMP JUMPDEST DUP1 PUSH4 0x11EBAE41 EQ PUSH2 0xEC JUMPI DUP1 PUSH4 0x1B0C2670 EQ PUSH2 0x10A JUMPI DUP1 PUSH4 0x8D1D2D90 EQ PUSH2 0x129 JUMPI JUMPDEST PUSH0 DUP1 REVERT JUMPDEST PUSH2 0xF4 PUSH2 0x296 JUMP JUMPDEST PUSH1 0x40 MLOAD PUSH2 0x101 SWAP2 SWAP1 PUSH2 0xC52 JUMP JUMPDEST PUSH1 0x40 MLOAD DUP1 SWAP2 SUB SWAP1 RETURN JUMPDEST PUSH2 0x112 PUSH2 0x322 JUMP JUMPDEST PUSH1 0x40 MLOAD PUSH2 0x120 SWAP3 SWAP2 SWAP1 PUSH2 0xC72 JUMP JUMPDEST PUSH1 0x40 MLOAD DUP1 SWAP2 SUB SWAP1 RETURN JUMPDEST PUSH2 0x131 PUSH2 0x445 JUMP JUMPDEST PUSH1 0x40 MLOAD PUSH2 0x13E SWAP2 SWAP1 PUSH2 0xC52 JUMP JUMPDEST PUSH1 0x40 MLOAD DUP1 SWAP2 SUB SWAP1 RETURN JUMPDEST PUSH2 0x14F PUSH2 0x4D1 JUMP JUMPDEST PUSH1 0x40 MLOAD PUSH2 0x15C SWAP2 SWAP1 PUSH2 0xCBF JUMP JUMPDEST PUSH1 0x40 MLOAD DUP1 SWAP2 SUB SWAP1 RETURN JUMPDEST PUSH2 0x16D PUSH2 0x4D7 JUMP JUMPDEST PUSH1 0x40 MLOAD PUSH2 0x17C SWAP4 SWAP3 SWAP2 SWAP1 PUSH2 0xCD8 JUMP JUMPDEST PUSH1 0x40 MLOAD DUP1 SWAP2 SUB SWAP1 RETURN JUMPDEST PUSH2 0x18D PUSH2 0x600 JUMP JUMPDEST PUSH1 0x40 MLOAD PUSH2 0x19A SWAP2 SWAP1 PUSH2 0xC52 JUMP JUMPDEST PUSH1 0x40 MLOAD DUP1 SWAP2 SUB SWAP1 RETURN JUMPDEST PUSH2 0x1AB PUSH2 0x68C JUMP JUMPDEST PUSH1 0x40 MLOAD PUSH2 0x1B8 SWAP2 SWAP1 PUSH2 0xC52 JUMP JUMPDEST PUSH1 0x40 MLOAD DUP1 SWAP2 SUB SWAP1 RETURN JUMPDEST PUSH2 0x1DB PUSH1 0x4 DUP1 CALLDATASIZE SUB DUP2 ADD SWAP1 PUSH2 0x1D6 SWAP2 SWAP1 PUSH2 0xE82 JUMP JUMPDEST PUSH2 0x718 JUMP JUMPDEST STOP JUMPDEST PUSH2 0x1E5 PUSH2 0x755 JUMP JUMPDEST PUSH1 0x40 MLOAD PUSH2 0x1F2 SWAP2 SWAP1 PUSH2 0xC52 JUMP JUMPDEST PUSH1 0x40 MLOAD DUP1 SWAP2 SUB SWAP1 RETURN JUMPDEST PUSH2 0x203 PUSH2 0x7E1 JUMP JUMPDEST PUSH1 0x40 MLOAD PUSH2 0x210 SWAP2 SWAP1 PUSH2 0xC52 JUMP JUMPDEST PUSH1 0x40 MLOAD DUP1 SWAP2 SUB SWAP1 RETURN JUMPDEST PUSH2 0x221 PUSH2 0x86C JUMP JUMPDEST PUSH1 0x40 MLOAD PUSH2 0x22E SWAP2 SWAP1 PUSH2 0xCBF JUMP JUMPDEST PUSH1 0x40 MLOAD DUP1 SWAP2 SUB SWAP1 RETURN JUMPDEST PUSH2 0x23F PUSH2 0x872 JUMP JUMPDEST PUSH1 0x40 MLOAD PUSH2 0x24F SWAP5 SWAP4 SWAP3 SWAP2 SWAP1 PUSH2 0xF3A JUMP JUMPDEST PUSH1 0x40 MLOAD DUP1 SWAP2 SUB SWAP1 RETURN JUMPDEST PUSH2 0x260 PUSH2 0xA2D JUMP JUMPDEST PUSH1 0x40 MLOAD PUSH2 0x26D SWAP2 SWAP1 PUSH2 0xC52 JUMP JUMPDEST PUSH1 0x40 MLOAD DUP1 SWAP2 SUB SWAP1 RETURN JUMPDEST PUSH2 0x27E PUSH2 0xAB9 JUMP JUMPDEST PUSH1 0x40 MLOAD PUSH2 0x28D SWAP4 SWAP3 SWAP2 SWAP1 PUSH2 0xCD8 JUMP JUMPDEST PUSH1 0x40 MLOAD DUP1 SWAP2 SUB SWAP1 RETURN JUMPDEST PUSH1 0x1 DUP1 SLOAD PUSH2 0x2A3 SWAP1 PUSH2 0xFBF JUMP JUMPDEST DUP1 PUSH1 0x1F ADD PUSH1 0x20 DUP1 SWAP2 DIV MUL PUSH1 0x20 ADD PUSH1 0x40 MLOAD SWAP1 DUP2 ADD PUSH1 0x40 MSTORE DUP1 SWAP3 SWAP2 SWAP1 DUP2 DUP2 MSTORE PUSH1 0x20 ADD DUP3 DUP1 SLOAD PUSH2 0x2CF SWAP1 PUSH2 0xFBF JUMP JUMPDEST DUP1 ISZERO PUSH2 0x31A JUMPI DUP1 PUSH1 0x1F LT PUSH2 0x2F1 JUMPI PUSH2 0x100 DUP1 DUP4 SLOAD DIV MUL DUP4 MSTORE SWAP2 PUSH1 0x20 ADD SWAP2 PUSH2 0x31A JUMP JUMPDEST DUP3 ADD SWAP2 SWAP1 PUSH0 MSTORE PUSH1 0x20 PUSH0 KECCAK256 SWAP1 JUMPDEST DUP2 SLOAD DUP2 MSTORE SWAP1 PUSH1 0x1 ADD SWAP1 PUSH1 0x20 ADD DUP1 DUP4 GT PUSH2 0x2FD JUMPI DUP3 SWAP1 SUB PUSH1 0x1F AND DUP3 ADD SWAP2 JUMPDEST POP POP POP POP POP DUP2 JUMP JUMPDEST PUSH1 0x60 DUP1 PUSH1 0x3 PUSH1 0x4 DUP2 DUP1 SLOAD PUSH2 0x335 SWAP1 PUSH2 0xFBF JUMP JUMPDEST DUP1 PUSH1 0x1F ADD PUSH1 0x20 DUP1 SWAP2 DIV MUL PUSH1 0x20 ADD PUSH1 0x40 MLOAD SWAP1 DUP2 ADD PUSH1 0x40 MSTORE DUP1 SWAP3 SWAP2 SWAP1 DUP2 DUP2 MSTORE PUSH1 0x20 ADD DUP3 DUP1 SLOAD PUSH2 0x361 SWAP1 PUSH2 0xFBF JUMP JUMPDEST DUP1 ISZERO PUSH2 0x3AC JUMPI DUP1 PUSH1 0x1F LT PUSH2 0x383 JUMPI PUSH2 0x100 DUP1 DUP4 SLOAD DIV MUL DUP4 MSTORE SWAP2 PUSH1 0x20 ADD SWAP2 PUSH2 0x3AC JUMP JUMPDEST DUP3 ADD SWAP2 SWAP1 PUSH0 MSTORE PUSH1 0x20 PUSH0 KECCAK256 SWAP1 JUMPDEST DUP2 SLOAD DUP2 MSTORE SWAP1 PUSH1 0x1 ADD SWAP1 PUSH1 0x20 ADD DUP1 DUP4 GT PUSH2 0x38F JUMPI DUP3 SWAP1 SUB PUSH1 0x1F AND DUP3 ADD SWAP2 JUMPDEST POP POP POP POP POP SWAP2 POP DUP1 DUP1 SLOAD PUSH2 0x3BF SWAP1 PUSH2 0xFBF JUMP JUMPDEST DUP1 PUSH1 0x1F ADD PUSH1 0x20 DUP1 SWAP2 DIV MUL PUSH1 0x20 ADD PUSH1 0x40 MLOAD SWAP1 DUP2 ADD PUSH1 0x40 MSTORE DUP1 SWAP3 SWAP2 SWAP1 DUP2 DUP2 MSTORE PUSH1 0x20 ADD DUP3 DUP1 SLOAD PUSH2 0x3EB SWAP1 PUSH2 0xFBF JUMP JUMPDEST DUP1 ISZERO PUSH2 0x436 JUMPI DUP1 PUSH1 0x1F LT PUSH2 0x40D JUMPI PUSH2 0x100 DUP1 DUP4 SLOAD DIV MUL DUP4 MSTORE SWAP2 PUSH1 0x20 ADD SWAP2 PUSH2 0x436 JUMP JUMPDEST DUP3 ADD SWAP2 SWAP1 PUSH0 MSTORE PUSH1 0x20 PUSH0 KECCAK256 SWAP1 JUMPDEST DUP2 SLOAD DUP2 MSTORE SWAP1 PUSH1 0x1 ADD SWAP1 PUSH1 0x20 ADD DUP1 DUP4 GT PUSH2 0x419 JUMPI DUP3 SWAP1 SUB PUSH1 0x1F AND DUP3 ADD SWAP2 JUMPDEST POP POP POP POP POP SWAP1 POP SWAP2 POP SWAP2 POP SWAP1 SWAP2 JUMP JUMPDEST PUSH1 0x6 DUP1 SLOAD PUSH2 0x452 SWAP1 PUSH2 0xFBF JUMP JUMPDEST DUP1 PUSH1 0x1F ADD PUSH1 0x20 DUP1 SWAP2 DIV MUL PUSH1 0x20 ADD PUSH1 0x40 MLOAD SWAP1 DUP2 ADD PUSH1 0x40 MSTORE DUP1 SWAP3 SWAP2 SWAP1 DUP2 DUP2 MSTORE PUSH1 0x20 ADD DUP3 DUP1 SLOAD PUSH2 0x47E SWAP1 PUSH2 0xFBF JUMP JUMPDEST DUP1 ISZERO PUSH2 0x4C9 JUMPI DUP1 PUSH1 0x1F LT PUSH2 0x4A0 JUMPI PUSH2 0x100 DUP1 DUP4 SLOAD DIV MUL DUP4 MSTORE SWAP2 PUSH1 0x20 ADD SWAP2 PUSH2 0x4C9 JUMP JUMPDEST DUP3 ADD SWAP2 SWAP1 PUSH0 MSTORE PUSH1 0x20 PUSH0 KECCAK256 SWAP1 JUMPDEST DUP2 SLOAD DUP2 MSTORE SWAP1 PUSH1 0x1 ADD SWAP1 PUSH1 0x20 ADD DUP1 DUP4 GT PUSH2 0x4AC JUMPI DUP3 SWAP1 SUB PUSH1 0x1F AND DUP3 ADD SWAP2 JUMPDEST POP POP POP POP POP DUP2 JUMP JUMPDEST PUSH1 0x2 SLOAD DUP2 JUMP JUMPDEST PUSH1 0x60 DUP1 PUSH0 DUP1 PUSH1 0x1 PUSH1 0x2 SLOAD DUP3 DUP1 SLOAD PUSH2 0x4ED SWAP1 PUSH2 0xFBF JUMP JUMPDEST DUP1 PUSH1 0x1F ADD PUSH1 0x20 DUP1 SWAP2 DIV MUL PUSH1 0x20 ADD PUSH1 0x40 MLOAD SWAP1 DUP2 ADD PUSH1 0x40 MSTORE DUP1 SWAP3 SWAP2 SWAP1 DUP2 DUP2 MSTORE PUSH1 0x20 ADD DUP3 DUP1 SLOAD PUSH2 0x519 SWAP1 PUSH2 0xFBF JUMP JUMPDEST DUP1 ISZERO PUSH2 0x564 JUMPI DUP1 PUSH1 0x1F LT PUSH2 0x53B JUMPI PUSH2 0x100 DUP1 DUP4 SLOAD DIV MUL DUP4 MSTORE SWAP2 PUSH1 0x20 ADD SWAP2 PUSH2 0x564 JUMP JUMPDEST DUP3 ADD SWAP2 SWAP1 PUSH0 MSTORE PUSH1 0x20 PUSH0 KECCAK256 SWAP1 JUMPDEST DUP2 SLOAD DUP2 MSTORE SWAP1 PUSH1 0x1 ADD SWAP1 PUSH1 0x20 ADD DUP1 DUP4 GT PUSH2 0x547 JUMPI DUP3 SWAP1 SUB PUSH1 0x1F AND DUP3 ADD SWAP2 JUMPDEST POP POP POP POP POP SWAP3 POP DUP2 DUP1 SLOAD PUSH2 0x577 SWAP1 PUSH2 0xFBF JUMP JUMPDEST DUP1 PUSH1 0x1F ADD PUSH1 0x20 DUP1 SWAP2 DIV MUL PUSH1 0x20 ADD PUSH1 0x40 MLOAD SWAP1 DUP2 ADD PUSH1 0x40 MSTORE DUP1 SWAP3 SWAP2 SWAP1 DUP2 DUP2 MSTORE PUSH1 0x20 ADD DUP3 DUP1 SLOAD PUSH2 0x5A3 SWAP1 PUSH2 0xFBF JUMP JUMPDEST DUP1 ISZERO PUSH2 0x5EE JUMPI DUP1 PUSH1 0x1F LT PUSH2 0x5C5 JUMPI PUSH2 0x100 DUP1 DUP4 SLOAD DIV MUL DUP4 MSTORE SWAP2 PUSH1 0x20 ADD SWAP2 PUSH2 0x5EE JUMP JUMPDEST DUP3 ADD SWAP2 SWAP1 PUSH0 MSTORE PUSH1 0x20 PUSH0 KECCAK256 SWAP1 JUMPDEST DUP2 SLOAD DUP2 MSTORE SWAP1 PUSH1 0x1 ADD SWAP1 PUSH1 0x20 ADD DUP1 DUP4 GT PUSH2 0x5D1 JUMPI DUP3 SWAP1 SUB PUSH1 0x1F AND DUP3 ADD SWAP2 JUMPDEST POP POP POP POP POP SWAP2 POP SWAP3 POP SWAP3 POP SWAP3 POP SWAP1 SWAP2 SWAP3 JUMP JUMPDEST PUSH1 0x5 DUP1 SLOAD PUSH2 0x60D SWAP1 PUSH2 0xFBF JUMP JUMPDEST DUP1 PUSH1 0x1F ADD PUSH1 0x20 DUP1 SWAP2 DIV MUL PUSH1 0x20 ADD PUSH1 0x40 MLOAD SWAP1 DUP2 ADD PUSH1 0x40 MSTORE DUP1 SWAP3 SWAP2 SWAP1 DUP2 DUP2 MSTORE PUSH1 0x20 ADD DUP3 DUP1 SLOAD PUSH2 0x639 SWAP1 PUSH2 0xFBF JUMP JUMPDEST DUP1 ISZERO PUSH2 0x684 JUMPI DUP1 PUSH1 0x1F LT PUSH2 0x65B JUMPI PUSH2 0x100 DUP1 DUP4 SLOAD DIV MUL DUP4 MSTORE SWAP2 PUSH1 0x20 ADD SWAP2 PUSH2 0x684 JUMP JUMPDEST DUP3 ADD SWAP2 SWAP1 PUSH0 MSTORE PUSH1 0x20 PUSH0 KECCAK256 SWAP1 JUMPDEST DUP2 SLOAD DUP2 MSTORE SWAP1 PUSH1 0x1 ADD SWAP1 PUSH1 0x20 ADD DUP1 DUP4 GT PUSH2 0x667 JUMPI DUP3 SWAP1 SUB PUSH1 0x1F AND DUP3 ADD SWAP2 JUMPDEST POP POP POP POP POP DUP2 JUMP JUMPDEST PUSH1 0x3 DUP1 SLOAD PUSH2 0x699 SWAP1 PUSH2 0xFBF JUMP JUMPDEST DUP1 PUSH1 0x1F ADD PUSH1 0x20 DUP1 SWAP2 DIV MUL PUSH1 0x20 ADD PUSH1 0x40 MLOAD SWAP1 DUP2 ADD PUSH1 0x40 MSTORE DUP1 SWAP3 SWAP2 SWAP1 DUP2 DUP2 MSTORE PUSH1 0x20 ADD DUP3 DUP1 SLOAD PUSH2 0x6C5 SWAP1 PUSH2 0xFBF JUMP JUMPDEST DUP1 ISZERO PUSH2 0x710 JUMPI DUP1 PUSH1 0x1F LT PUSH2 0x6E7 JUMPI PUSH2 0x100 DUP1 DUP4 SLOAD DIV MUL DUP4 MSTORE SWAP2 PUSH1 0x20 ADD SWAP2 PUSH2 0x710 JUMP JUMPDEST DUP3 ADD SWAP2 SWAP1 PUSH0 MSTORE PUSH1 0x20 PUSH0 KECCAK256 SWAP1 JUMPDEST DUP2 SLOAD DUP2 MSTORE SWAP1 PUSH1 0x1 ADD SWAP1 PUSH1 0x20 ADD DUP1 DUP4 GT PUSH2 0x6F3 JUMPI DUP3 SWAP1 SUB PUSH1 0x1F AND DUP3 ADD SWAP2 JUMPDEST POP POP POP POP POP DUP2 JUMP JUMPDEST DUP4 PUSH1 0x5 SWAP1 DUP2 PUSH2 0x727 SWAP2 SWAP1 PUSH2 0x118C JUMP JUMPDEST POP DUP3 PUSH1 0x6 SWAP1 DUP2 PUSH2 0x737 SWAP2 SWAP1 PUSH2 0x118C JUMP JUMPDEST POP DUP2 PUSH1 0x7 SWAP1 DUP2 PUSH2 0x747 SWAP2 SWAP1 PUSH2 0x118C JUMP JUMPDEST POP DUP1 PUSH1 0x8 DUP2 SWAP1 SSTORE POP POP POP POP POP JUMP JUMPDEST PUSH1 0x7 DUP1 SLOAD PUSH2 0x762 SWAP1 PUSH2 0xFBF JUMP JUMPDEST DUP1 PUSH1 0x1F ADD PUSH1 0x20 DUP1 SWAP2 DIV MUL PUSH1 0x20 ADD PUSH1 0x40 MLOAD SWAP1 DUP2 ADD PUSH1 0x40 MSTORE DUP1 SWAP3 SWAP2 SWAP1 DUP2 DUP2 MSTORE PUSH1 0x20 ADD DUP3 DUP1 SLOAD PUSH2 0x78E SWAP1 PUSH2 0xFBF JUMP JUMPDEST DUP1 ISZERO PUSH2 0x7D9 JUMPI DUP1 PUSH1 0x1F LT PUSH2 0x7B0 JUMPI PUSH2 0x100 DUP1 DUP4 SLOAD DIV MUL DUP4 MSTORE SWAP2 PUSH1 0x20 ADD SWAP2 PUSH2 0x7D9 JUMP JUMPDEST DUP3 ADD SWAP2 SWAP1 PUSH0 MSTORE PUSH1 0x20 PUSH0 KECCAK256 SWAP1 JUMPDEST DUP2 SLOAD DUP2 MSTORE SWAP1 PUSH1 0x1 ADD SWAP1 PUSH1 0x20 ADD DUP1 DUP4 GT PUSH2 0x7BC JUMPI DUP3 SWAP1 SUB PUSH1 0x1F AND DUP3 ADD SWAP2 JUMPDEST POP POP POP POP POP DUP2 JUMP JUMPDEST PUSH0 DUP1 SLOAD PUSH2 0x7ED SWAP1 PUSH2 0xFBF JUMP JUMPDEST DUP1 PUSH1 0x1F ADD PUSH1 0x20 DUP1 SWAP2 DIV MUL PUSH1 0x20 ADD PUSH1 0x40 MLOAD SWAP1 DUP2 ADD PUSH1 0x40 MSTORE DUP1 SWAP3 SWAP2 SWAP1 DUP2 DUP2 MSTORE PUSH1 0x20 ADD DUP3 DUP1 SLOAD PUSH2 0x819 SWAP1 PUSH2 0xFBF JUMP JUMPDEST DUP1 ISZERO PUSH2 0x864 JUMPI DUP1 PUSH1 0x1F LT PUSH2 0x83B JUMPI PUSH2 0x100 DUP1 DUP4 SLOAD DIV MUL DUP4 MSTORE SWAP2 PUSH1 0x20 ADD SWAP2 PUSH2 0x864 JUMP JUMPDEST DUP3 ADD SWAP2 SWAP1 PUSH0 MSTORE PUSH1 0x20 PUSH0 KECCAK256 SWAP1 JUMPDEST DUP2 SLOAD DUP2 MSTORE SWAP1 PUSH1 0x1 ADD SWAP1 PUSH1 0x20 ADD DUP1 DUP4 GT PUSH2 0x847 JUMPI DUP3 SWAP1 SUB PUSH1 0x1F AND DUP3 ADD SWAP2 JUMPDEST POP POP POP POP POP DUP2 JUMP JUMPDEST PUSH1 0x8 SLOAD DUP2 JUMP JUMPDEST PUSH1 0x60 DUP1 PUSH1 0x60 PUSH0 PUSH1 0x5 PUSH1 0x6 PUSH1 0x7 PUSH1 0x8 SLOAD DUP4 DUP1 SLOAD PUSH2 0x88D SWAP1 PUSH2 0xFBF JUMP JUMPDEST DUP1 PUSH1 0x1F ADD PUSH1 0x20 DUP1 SWAP2 DIV MUL PUSH1 0x20 ADD PUSH1 0x40 MLOAD SWAP1 DUP2 ADD PUSH1 0x40 MSTORE DUP1 SWAP3 SWAP2 SWAP1 DUP2 DUP2 MSTORE PUSH1 0x20 ADD DUP3 DUP1 SLOAD PUSH2 0x8B9 SWAP1 PUSH2 0xFBF JUMP JUMPDEST DUP1 ISZERO PUSH2 0x904 JUMPI DUP1 PUSH1 0x1F LT PUSH2 0x8DB JUMPI PUSH2 0x100 DUP1 DUP4 SLOAD DIV MUL DUP4 MSTORE SWAP2 PUSH1 0x20 ADD SWAP2 PUSH2 0x904 JUMP JUMPDEST DUP3 ADD SWAP2 SWAP1 PUSH0 MSTORE PUSH1 0x20 PUSH0 KECCAK256 SWAP1 JUMPDEST DUP2 SLOAD DUP2 MSTORE SWAP1 PUSH1 0x1 ADD SWAP1 PUSH1 0x20 ADD DUP1 DUP4 GT PUSH2 0x8E7 JUMPI DUP3 SWAP1 SUB PUSH1 0x1F AND DUP3 ADD SWAP2 JUMPDEST POP POP POP POP POP SWAP4 POP DUP3 DUP1 SLOAD PUSH2 0x917 SWAP1 PUSH2 0xFBF JUMP JUMPDEST DUP1 PUSH1 0x1F ADD PUSH1 0x20 DUP1 SWAP2 DIV MUL PUSH1 0x20 ADD PUSH1 0x40 MLOAD SWAP1 DUP2 ADD PUSH1 0x40 MSTORE DUP1 SWAP3 SWAP2 SWAP1 DUP2 DUP2 MSTORE PUSH1 0x20 ADD DUP3 DUP1 SLOAD PUSH2 0x943 SWAP1 PUSH2 0xFBF JUMP JUMPDEST DUP1 ISZERO PUSH2 0x98E JUMPI DUP1 PUSH1 0x1F LT PUSH2 0x965 JUMPI PUSH2 0x100 DUP1 DUP4 SLOAD DIV MUL DUP4 MSTORE SWAP2 PUSH1 0x20 ADD SWAP2 PUSH2 0x98E JUMP JUMPDEST DUP3 ADD SWAP2 SWAP1 PUSH0 MSTORE PUSH1 0x20 PUSH0 KECCAK256 SWAP1 JUMPDEST DUP2 SLOAD DUP2 MSTORE SWAP1 PUSH1 0x1 ADD SWAP1 PUSH1 0x20 ADD DUP1 DUP4 GT PUSH2 0x971 JUMPI DUP3 SWAP1 SUB PUSH1 0x1F AND DUP3 ADD SWAP2 JUMPDEST POP POP POP POP POP SWAP3 POP DUP2 DUP1 SLOAD PUSH2 0x9A1 SWAP1 PUSH2 0xFBF JUMP JUMPDEST DUP1 PUSH1 0x1F ADD PUSH1 0x20 DUP1 SWAP2 DIV MUL PUSH1 0x20 ADD PUSH1 0x40 MLOAD SWAP1 DUP2 ADD PUSH1 0x40 MSTORE DUP1 SWAP3 SWAP2 SWAP1 DUP2 DUP2 MSTORE PUSH1 0x20 ADD DUP3 DUP1 SLOAD PUSH2 0x9CD SWAP1 PUSH2 0xFBF JUMP JUMPDEST DUP1 ISZERO PUSH2 0xA18 JUMPI DUP1 PUSH1 0x1F LT PUSH2 0x9EF JUMPI PUSH2 0x100 DUP1 DUP4 SLOAD DIV MUL DUP4 MSTORE SWAP2 PUSH1 0x20 ADD SWAP2 PUSH2 0xA18 JUMP JUMPDEST DUP3 ADD SWAP2 SWAP1 PUSH0 MSTORE PUSH1 0x20 PUSH0 KECCAK256 SWAP1 JUMPDEST DUP2 SLOAD DUP2 MSTORE SWAP1 PUSH1 0x1 ADD SWAP1 PUSH1 0x20 ADD DUP1 DUP4 GT PUSH2 0x9FB JUMPI DUP3 SWAP1 SUB PUSH1 0x1F AND DUP3 ADD SWAP2 JUMPDEST POP POP POP POP POP SWAP2 POP SWAP4 POP SWAP4 POP SWAP4 POP SWAP4 POP SWAP1 SWAP2 SWAP3 SWAP4 JUMP JUMPDEST PUSH1 0x4 DUP1 SLOAD PUSH2 0xA3A SWAP1 PUSH2 0xFBF JUMP JUMPDEST DUP1 PUSH1 0x1F ADD PUSH1 0x20 DUP1 SWAP2 DIV MUL PUSH1 0x20 ADD PUSH1 0x40 MLOAD SWAP1 DUP2 ADD PUSH1 0x40 MSTORE DUP1 SWAP3 SWAP2 SWAP1 DUP2 DUP2 MSTORE PUSH1 0x20 ADD DUP3 DUP1 SLOAD PUSH2 0xA66 SWAP1 PUSH2 0xFBF JUMP JUMPDEST DUP1 ISZERO PUSH2 0xAB1 JUMPI DUP1 PUSH1 0x1F LT PUSH2 0xA88 JUMPI PUSH2 0x100 DUP1 DUP4 SLOAD DIV MUL DUP4 MSTORE SWAP2 PUSH1 0x20 ADD SWAP2 PUSH2 0xAB1 JUMP JUMPDEST DUP3 ADD SWAP2 SWAP1 PUSH0 MSTORE PUSH1 0x20 PUSH0 KECCAK256 SWAP1 JUMPDEST DUP2 SLOAD DUP2 MSTORE SWAP1 PUSH1 0x1 ADD SWAP1 PUSH1 0x20 ADD DUP1 DUP4 GT PUSH2 0xA94 JUMPI DUP3 SWAP1 SUB PUSH1 0x1F AND DUP3 ADD SWAP2 JUMPDEST POP POP POP POP POP DUP2 JUMP JUMPDEST PUSH1 0x60 DUP1 PUSH0 DUP1 PUSH1 0x1 PUSH1 0x2 SLOAD DUP3 DUP1 SLOAD PUSH2 0xACF SWAP1 PUSH2 0xFBF JUMP JUMPDEST DUP1 PUSH1 0x1F ADD PUSH1 0x20 DUP1 SWAP2 DIV MUL PUSH1 0x20 ADD PUSH1 0x40 MLOAD SWAP1 DUP2 ADD PUSH1 0x40 MSTORE DUP1 SWAP3 SWAP2 SWAP1 DUP2 DUP2 MSTORE PUSH1 0x20 ADD DUP3 DUP1 SLOAD PUSH2 0xAFB SWAP1 PUSH2 0xFBF JUMP JUMPDEST DUP1 ISZERO PUSH2 0xB46 JUMPI DUP1 PUSH1 0x1F LT PUSH2 0xB1D JUMPI PUSH2 0x100 DUP1 DUP4 SLOAD DIV MUL DUP4 MSTORE SWAP2 PUSH1 0x20 ADD SWAP2 PUSH2 0xB46 JUMP JUMPDEST DUP3 ADD SWAP2 SWAP1 PUSH0 MSTORE PUSH1 0x20 PUSH0 KECCAK256 SWAP1 JUMPDEST DUP2 SLOAD DUP2 MSTORE SWAP1 PUSH1 0x1 ADD SWAP1 PUSH1 0x20 ADD DUP1 DUP4 GT PUSH2 0xB29 JUMPI DUP3 SWAP1 SUB PUSH1 0x1F AND DUP3 ADD SWAP2 JUMPDEST POP POP POP POP POP SWAP3 POP DUP2 DUP1 SLOAD PUSH2 0xB59 SWAP1 PUSH2 0xFBF JUMP JUMPDEST DUP1 PUSH1 0x1F ADD PUSH1 0x20 DUP1 SWAP2 DIV MUL PUSH1 0x20 ADD PUSH1 0x40 MLOAD SWAP1 DUP2 ADD PUSH1 0x40 MSTORE DUP1 SWAP3 SWAP2 SWAP1 DUP2 DUP2 MSTORE PUSH1 0x20 ADD DUP3 DUP1 SLOAD PUSH2 0xB85 SWAP1 PUSH2 0xFBF JUMP JUMPDEST DUP1 ISZERO PUSH2 0xBD0 JUMPI DUP1 PUSH1 0x1F LT PUSH2 0xBA7 JUMPI PUSH2 0x100 DUP1 DUP4 SLOAD DIV MUL DUP4 MSTORE SWAP2 PUSH1 0x20 ADD SWAP2 PUSH2 0xBD0 JUMP JUMPDEST DUP3 ADD SWAP2 SWAP1 PUSH0 MSTORE PUSH1 0x20 PUSH0 KECCAK256 SWAP1 JUMPDEST DUP2 SLOAD DUP2 MSTORE SWAP1 PUSH1 0x1 ADD SWAP1 PUSH1 0x20 ADD DUP1 DUP4 GT PUSH2 0xBB3 JUMPI DUP3 SWAP1 SUB PUSH1 0x1F AND DUP3 ADD SWAP2 JUMPDEST POP POP POP POP POP SWAP2 POP SWAP3 POP SWAP3 POP SWAP3 POP SWAP1 SWAP2 SWAP3 JUMP JUMPDEST PUSH0 DUP2 MLOAD SWAP1 POP SWAP2 SWAP1 POP JUMP JUMPDEST PUSH0 DUP3 DUP3 MSTORE PUSH1 0x20 DUP3 ADD SWAP1 POP SWAP3 SWAP2 POP POP JUMP JUMPDEST DUP3 DUP2 DUP4 MCOPY PUSH0 DUP4 DUP4 ADD MSTORE POP POP POP JUMP JUMPDEST PUSH0 PUSH1 0x1F NOT PUSH1 0x1F DUP4 ADD AND SWAP1 POP SWAP2 SWAP1 POP JUMP JUMPDEST PUSH0 PUSH2 0xC24 DUP3 PUSH2 0xBE2 JUMP JUMPDEST PUSH2 0xC2E DUP2 DUP6 PUSH2 0xBEC JUMP JUMPDEST SWAP4 POP PUSH2 0xC3E DUP2 DUP6 PUSH1 0x20 DUP7 ADD PUSH2 0xBFC JUMP JUMPDEST PUSH2 0xC47 DUP2 PUSH2 0xC0A JUMP JUMPDEST DUP5 ADD SWAP2 POP POP SWAP3 SWAP2 POP POP JUMP JUMPDEST PUSH0 PUSH1 0x20 DUP3 ADD SWAP1 POP DUP2 DUP2 SUB PUSH0 DUP4 ADD MSTORE PUSH2 0xC6A DUP2 DUP5 PUSH2 0xC1A JUMP JUMPDEST SWAP1 POP SWAP3 SWAP2 POP POP JUMP JUMPDEST PUSH0 PUSH1 0x40 DUP3 ADD SWAP1 POP DUP2 DUP2 SUB PUSH0 DUP4 ADD MSTORE PUSH2 0xC8A DUP2 DUP6 PUSH2 0xC1A JUMP JUMPDEST SWAP1 POP DUP2 DUP2 SUB PUSH1 0x20 DUP4 ADD MSTORE PUSH2 0xC9E DUP2 DUP5 PUSH2 0xC1A JUMP JUMPDEST SWAP1 POP SWAP4 SWAP3 POP POP POP JUMP JUMPDEST PUSH0 DUP2 SWAP1 POP SWAP2 SWAP1 POP JUMP JUMPDEST PUSH2 0xCB9 DUP2 PUSH2 0xCA7 JUMP JUMPDEST DUP3 MSTORE POP POP JUMP JUMPDEST PUSH0 PUSH1 0x20 DUP3 ADD SWAP1 POP PUSH2 0xCD2 PUSH0 DUP4 ADD DUP5 PUSH2 0xCB0 JUMP JUMPDEST SWAP3 SWAP2 POP POP JUMP JUMPDEST PUSH0 PUSH1 0x60 DUP3 ADD SWAP1 POP DUP2 DUP2 SUB PUSH0 DUP4 ADD MSTORE PUSH2 0xCF0 DUP2 DUP7 PUSH2 0xC1A JUMP JUMPDEST SWAP1 POP DUP2 DUP2 SUB PUSH1 0x20 DUP4 ADD MSTORE PUSH2 0xD04 DUP2 DUP6 PUSH2 0xC1A JUMP JUMPDEST SWAP1 POP PUSH2 0xD13 PUSH1 0x40 DUP4 ADD DUP5 PUSH2 0xCB0 JUMP JUMPDEST SWAP5 SWAP4 POP POP POP POP JUMP JUMPDEST PUSH0 PUSH1 0x40 MLOAD SWAP1 POP SWAP1 JUMP JUMPDEST PUSH0 DUP1 REVERT JUMPDEST PUSH0 DUP1 REVERT JUMPDEST PUSH0 DUP1 REVERT JUMPDEST PUSH0 DUP1 REVERT JUMPDEST PUSH32 0x4E487B7100000000000000000000000000000000000000000000000000000000 PUSH0 MSTORE PUSH1 0x41 PUSH1 0x4 MSTORE PUSH1 0x24 PUSH0 REVERT JUMPDEST PUSH2 0xD6A DUP3 PUSH2 0xC0A JUMP JUMPDEST DUP2 ADD DUP2 DUP2 LT PUSH8 0xFFFFFFFFFFFFFFFF DUP3 GT OR ISZERO PUSH2 0xD89 JUMPI PUSH2 0xD88 PUSH2 0xD34 JUMP JUMPDEST JUMPDEST DUP1 PUSH1 0x40 MSTORE POP POP POP JUMP JUMPDEST PUSH0 PUSH2 0xD9B PUSH2 0xD1B JUMP JUMPDEST SWAP1 POP PUSH2 0xDA7 DUP3 DUP3 PUSH2 0xD61 JUMP JUMPDEST SWAP2 SWAP1 POP JUMP JUMPDEST PUSH0 PUSH8 0xFFFFFFFFFFFFFFFF DUP3 GT ISZERO PUSH2 0xDC6 JUMPI PUSH2 0xDC5 PUSH2 0xD34 JUMP JUMPDEST JUMPDEST PUSH2 0xDCF DUP3 PUSH2 0xC0A JUMP JUMPDEST SWAP1 POP PUSH1 0x20 DUP2 ADD SWAP1 POP SWAP2 SWAP1 POP JUMP JUMPDEST DUP3 DUP2 DUP4 CALLDATACOPY PUSH0 DUP4 DUP4 ADD MSTORE POP POP POP JUMP JUMPDEST PUSH0 PUSH2 0xDFC PUSH2 0xDF7 DUP5 PUSH2 0xDAC JUMP JUMPDEST PUSH2 0xD92 JUMP JUMPDEST SWAP1 POP DUP3 DUP2 MSTORE PUSH1 0x20 DUP2 ADD DUP5 DUP5 DUP5 ADD GT ISZERO PUSH2 0xE18 JUMPI PUSH2 0xE17 PUSH2 0xD30 JUMP JUMPDEST JUMPDEST PUSH2 0xE23 DUP5 DUP3 DUP6 PUSH2 0xDDC JUMP JUMPDEST POP SWAP4 SWAP3 POP POP POP JUMP JUMPDEST PUSH0 DUP3 PUSH1 0x1F DUP4 ADD SLT PUSH2 0xE3F JUMPI PUSH2 0xE3E PUSH2 0xD2C JUMP JUMPDEST JUMPDEST DUP2 CALLDATALOAD PUSH2 0xE4F DUP5 DUP3 PUSH1 0x20 DUP7 ADD PUSH2 0xDEA JUMP JUMPDEST SWAP2 POP POP SWAP3 SWAP2 POP POP JUMP JUMPDEST PUSH2 0xE61 DUP2 PUSH2 0xCA7 JUMP JUMPDEST DUP2 EQ PUSH2 0xE6B JUMPI PUSH0 DUP1 REVERT JUMPDEST POP JUMP JUMPDEST PUSH0 DUP2 CALLDATALOAD SWAP1 POP PUSH2 0xE7C DUP2 PUSH2 0xE58 JUMP JUMPDEST SWAP3 SWAP2 POP POP JUMP JUMPDEST PUSH0 DUP1 PUSH0 DUP1 PUSH1 0x80 DUP6 DUP8 SUB SLT ISZERO PUSH2 0xE9A JUMPI PUSH2 0xE99 PUSH2 0xD24 JUMP JUMPDEST JUMPDEST PUSH0 DUP6 ADD CALLDATALOAD PUSH8 0xFFFFFFFFFFFFFFFF DUP2 GT ISZERO PUSH2 0xEB7 JUMPI PUSH2 0xEB6 PUSH2 0xD28 JUMP JUMPDEST JUMPDEST PUSH2 0xEC3 DUP8 DUP3 DUP9 ADD PUSH2 0xE2B JUMP JUMPDEST SWAP5 POP POP PUSH1 0x20 DUP6 ADD CALLDATALOAD PUSH8 0xFFFFFFFFFFFFFFFF DUP2 GT ISZERO PUSH2 0xEE4 JUMPI PUSH2 0xEE3 PUSH2 0xD28 JUMP JUMPDEST JUMPDEST PUSH2 0xEF0 DUP8 DUP3 DUP9 ADD PUSH2 0xE2B JUMP JUMPDEST SWAP4 POP POP PUSH1 0x40 DUP6 ADD CALLDATALOAD PUSH8 0xFFFFFFFFFFFFFFFF DUP2 GT ISZERO PUSH2 0xF11 JUMPI PUSH2 0xF10 PUSH2 0xD28 JUMP JUMPDEST JUMPDEST PUSH2 0xF1D DUP8 DUP3 DUP9 ADD PUSH2 0xE2B JUMP JUMPDEST SWAP3 POP POP PUSH1 0x60 PUSH2 0xF2E DUP8 DUP3 DUP9 ADD PUSH2 0xE6E JUMP JUMPDEST SWAP2 POP POP SWAP3 SWAP6 SWAP2 SWAP5 POP SWAP3 POP JUMP JUMPDEST PUSH0 PUSH1 0x80 DUP3 ADD SWAP1 POP DUP2 DUP2 SUB PUSH0 DUP4 ADD MSTORE PUSH2 0xF52 DUP2 DUP8 PUSH2 0xC1A JUMP JUMPDEST SWAP1 POP DUP2 DUP2 SUB PUSH1 0x20 DUP4 ADD MSTORE PUSH2 0xF66 DUP2 DUP7 PUSH2 0xC1A JUMP JUMPDEST SWAP1 POP DUP2 DUP2 SUB PUSH1 0x40 DUP4 ADD MSTORE PUSH2 0xF7A DUP2 DUP6 PUSH2 0xC1A JUMP JUMPDEST SWAP1 POP PUSH2 0xF89 PUSH1 0x60 DUP4 ADD DUP5 PUSH2 0xCB0 JUMP JUMPDEST SWAP6 SWAP5 POP POP POP POP POP JUMP JUMPDEST PUSH32 0x4E487B7100000000000000000000000000000000000000000000000000000000 PUSH0 MSTORE PUSH1 0x22 PUSH1 0x4 MSTORE PUSH1 0x24 PUSH0 REVERT JUMPDEST PUSH0 PUSH1 0x2 DUP3 DIV SWAP1 POP PUSH1 0x1 DUP3 AND DUP1 PUSH2 0xFD6 JUMPI PUSH1 0x7F DUP3 AND SWAP2 POP JUMPDEST PUSH1 0x20 DUP3 LT DUP2 SUB PUSH2 0xFE9 JUMPI PUSH2 0xFE8 PUSH2 0xF92 JUMP JUMPDEST JUMPDEST POP SWAP2 SWAP1 POP JUMP JUMPDEST PUSH0 DUP2 SWAP1 POP DUP2 PUSH0 MSTORE PUSH1 0x20 PUSH0 KECCAK256 SWAP1 POP SWAP2 SWAP1 POP JUMP JUMPDEST PUSH0 PUSH1 0x20 PUSH1 0x1F DUP4 ADD DIV SWAP1 POP SWAP2 SWAP1 POP JUMP JUMPDEST PUSH0 DUP3 DUP3 SHL SWAP1 POP SWAP3 SWAP2 POP POP JUMP JUMPDEST PUSH0 PUSH1 0x8 DUP4 MUL PUSH2 0x104B PUSH32 0xFFFFFFFFFFFFFFFFFFFFFFFFFFFFFFFFFFFFFFFFFFFFFFFFFFFFFFFFFFFFFFFF DUP3 PUSH2 0x1010 JUMP JUMPDEST PUSH2 0x1055 DUP7 DUP4 PUSH2 0x1010 JUMP JUMPDEST SWAP6 POP DUP1 NOT DUP5 AND SWAP4 POP DUP1 DUP7 AND DUP5 OR SWAP3 POP POP POP SWAP4 SWAP3 POP POP POP JUMP JUMPDEST PUSH0 DUP2 SWAP1 POP SWAP2 SWAP1 POP JUMP JUMPDEST PUSH0 PUSH2 0x1090 PUSH2 0x108B PUSH2 0x1086 DUP5 PUSH2 0xCA7 JUMP JUMPDEST PUSH2 0x106D JUMP JUMPDEST PUSH2 0xCA7 JUMP JUMPDEST SWAP1 POP SWAP2 SWAP1 POP JUMP JUMPDEST PUSH0 DUP2 SWAP1 POP SWAP2 SWAP1 POP JUMP JUMPDEST PUSH2 0x10A9 DUP4 PUSH2 0x1076 JUMP JUMPDEST PUSH2 0x10BD PUSH2 0x10B5 DUP3 PUSH2 0x1097 JUMP JUMPDEST DUP5 DUP5 SLOAD PUSH2 0x101C JUMP JUMPDEST DUP3 SSTORE POP POP POP POP JUMP JUMPDEST PUSH0 SWAP1 JUMP JUMPDEST PUSH2 0x10D1 PUSH2 0x10C5 JUMP JUMPDEST PUSH2 0x10DC DUP2 DUP5 DUP5 PUSH2 0x10A0 JUMP JUMPDEST POP POP POP JUMP JUMPDEST JUMPDEST DUP2 DUP2 LT ISZERO PUSH2 0x10FF JUMPI PUSH2 0x10F4 PUSH0 DUP3 PUSH2 0x10C9 JUMP JUMPDEST PUSH1 0x1 DUP2 ADD SWAP1 POP PUSH2 0x10E2 JUMP JUMPDEST POP POP JUMP JUMPDEST PUSH1 0x1F DUP3 GT ISZERO PUSH2 0x1144 JUMPI PUSH2 0x1115 DUP2 PUSH2 0xFEF JUMP JUMPDEST PUSH2 0x111E DUP5 PUSH2 0x1001 JUMP JUMPDEST DUP2 ADD PUSH1 0x20 DUP6 LT ISZERO PUSH2 0x112D JUMPI DUP2 SWAP1 POP JUMPDEST PUSH2 0x1141 PUSH2 0x1139 DUP6 PUSH2 0x1001 JUMP JUMPDEST DUP4 ADD DUP3 PUSH2 0x10E1 JUMP JUMPDEST POP POP JUMPDEST POP POP POP JUMP JUMPDEST PUSH0 DUP3 DUP3 SHR SWAP1 POP SWAP3 SWAP2 POP POP JUMP JUMPDEST PUSH0 PUSH2 0x1164 PUSH0 NOT DUP5 PUSH1 0x8 MUL PUSH2 0x1149 JUMP JUMPDEST NOT DUP1 DUP4 AND SWAP2 POP POP SWAP3 SWAP2 POP POP JUMP JUMPDEST PUSH0 PUSH2 0x117C DUP4 DUP4 PUSH2 0x1155 JUMP JUMPDEST SWAP2 POP DUP3 PUSH1 0x2 MUL DUP3 OR SWAP1 POP SWAP3 SWAP2 POP POP JUMP JUMPDEST PUSH2 0x1195 DUP3 PUSH2 0xBE2 JUMP JUMPDEST PUSH8 0xFFFFFFFFFFFFFFFF DUP2 GT ISZERO PUSH2 0x11AE JUMPI PUSH2 0x11AD PUSH2 0xD34 JUMP JUMPDEST JUMPDEST PUSH2 0x11B8 DUP3 SLOAD PUSH2 0xFBF JUMP JUMPDEST PUSH2 0x11C3 DUP3 DUP3 DUP6 PUSH2 0x1103 JUMP JUMPDEST PUSH0 PUSH1 0x20 SWAP1 POP PUSH1 0x1F DUP4 GT PUSH1 0x1 DUP2 EQ PUSH2 0x11F4 JUMPI PUSH0 DUP5 ISZERO PUSH2 0x11E2 JUMPI DUP3 DUP8 ADD MLOAD SWAP1 POP JUMPDEST PUSH2 0x11EC DUP6 DUP3 PUSH2 0x1171 JUMP JUMPDEST DUP7 SSTORE POP PUSH2 0x1253 JUMP JUMPDEST PUSH1 0x1F NOT DUP5 AND PUSH2 0x1202 DUP7 PUSH2 0xFEF JUMP JUMPDEST PUSH0 JUMPDEST DUP3 DUP2 LT ISZERO PUSH2 0x1229 JUMPI DUP5 DUP10 ADD MLOAD DUP3 SSTORE PUSH1 0x1 DUP3 ADD SWAP2 POP PUSH1 0x20 DUP6 ADD SWAP5 POP PUSH1 0x20 DUP2 ADD SWAP1 POP PUSH2 0x1204 JUMP JUMPDEST DUP7 DUP4 LT ISZERO PUSH2 0x1246 JUMPI DUP5 DUP10 ADD MLOAD PUSH2 0x1242 PUSH1 0x1F DUP10 AND DUP3 PUSH2 0x1155 JUMP JUMPDEST DUP4 SSTORE POP JUMPDEST PUSH1 0x1 PUSH1 0x2 DUP9 MUL ADD DUP9 SSTORE POP POP POP JUMPDEST POP POP POP POP POP POP JUMP INVALID LOG2 PUSH5 0x6970667358 0x22 SLT KECCAK256 CREATE2 NUMBER 0xC3 0xD0 SGT DUP9 PUSH1 0x79 0xB2 BASEFEE 0xEC EXTCODESIZE MOD JUMPDEST 0xC2 DUP10 LOG0 0x4D 0xDF TSTORE 0xE 0x29 PUSH1 0xDA 0xDA PUSH24 0x3443CC67211364736F6C634300081A00334D696772617469 PUSH16 0x6E2070726F6365737320696E69746961 PUSH21 0x656420666F722073747564656E7420776974682052 PUSH6 0x676973747261 PUSH21 0x696F6E204E756D6265723A20A26469706673582212 KECCAK256 0xE5 0xCE 0xC6 0x23 PUSH23 0x2BCC747D0FACC19A39098D03C6B45E907046FDD8CDD706 0x26 0xCE 0xE0 DUP3 PUSH5 0x736F6C6343 STOP ADDMOD BYTE STOP CALLER "
				},
				"gasEstimates": {
					"creation": {
						"codeDepositCost": "2020400",
						"executionCost": "2140",
						"totalCost": "2022540"
					},
					"external": {
						"admitNewStudent(string,string,string,string,string,uint256)": "infinite",
						"displayStudentDetails(string)": "infinite",
						"migrateStudent(string)": "infinite",
						"studentAddresses(uint256)": "4966",
						"students(string)": "infinite"
					}
				},
				"methodIdentifiers": {
					"admitNewStudent(string,string,string,string,string,uint256)": "5b428c84",
					"displayStudentDetails(string)": "e8f3f53b",
					"migrateStudent(string)": "65410701",
					"studentAddresses(uint256)": "b5ab682d",
					"students(string)": "c7ef6bfb"
				}
			},
			"storageLayout": {
				"storage": [
					{
						"astId": 146,
						"contract": "contracts/lastday/p1.sol:StudentManagement",
						"label": "students",
						"offset": 0,
						"slot": "0",
						"type": "t_mapping(t_string_memory_ptr,t_contract(Student)141)"
					},
					{
						"astId": 149,
						"contract": "contracts/lastday/p1.sol:StudentManagement",
						"label": "studentAddresses",
						"offset": 0,
						"slot": "1",
						"type": "t_array(t_address)dyn_storage"
					}
				],
				"types": {
					"t_address": {
						"encoding": "inplace",
						"label": "address",
						"numberOfBytes": "20"
					},
					"t_array(t_address)dyn_storage": {
						"base": "t_address",
						"encoding": "dynamic_array",
						"label": "address[]",
						"numberOfBytes": "32"
					},
					"t_contract(Student)141": {
						"encoding": "inplace",
						"label": "contract Student",
						"numberOfBytes": "20"
					},
					"t_mapping(t_string_memory_ptr,t_contract(Student)141)": {
						"encoding": "mapping",
						"key": "t_string_memory_ptr",
						"label": "mapping(string => contract Student)",
						"numberOfBytes": "32",
						"value": "t_contract(Student)141"
					},
					"t_string_memory_ptr": {
						"encoding": "bytes",
						"label": "string",
						"numberOfBytes": "32"
					}
				}
			},
			"userdoc": {
				"kind": "user",
				"methods": {},
				"version": 1
			}
		}
	}
}