{
	"contracts/lastday/p3.sol": {
		"Box": {
			"abi": [
				{
					"inputs": [
						{
							"internalType": "uint256",
							"name": "_length",
							"type": "uint256"
						},
						{
							"internalType": "uint256",
							"name": "_width",
							"type": "uint256"
						},
						{
							"internalType": "uint256",
							"name": "_height",
							"type": "uint256"
						}
					],
					"stateMutability": "nonpayable",
					"type": "constructor"
				},
				{
					"inputs": [],
					"name": "surfaceArea",
					"outputs": [
						{
							"internalType": "uint256",
							"name": "",
							"type": "uint256"
						}
					],
					"stateMutability": "view",
					"type": "function"
				},
				{
					"inputs": [],
					"name": "volume",
					"outputs": [
						{
							"internalType": "uint256",
							"name": "",
							"type": "uint256"
						}
					],
					"stateMutability": "view",
					"type": "function"
				}
			],
			"devdoc": {
				"kind": "dev",
				"methods": {},
				"version": 1
			},
			"evm": {
				"assembly": "    /* \"contracts/lastday/p3.sol\":187:674  contract Box is ThreeDObject {... */\n  mstore(0x40, 0x80)\n    /* \"contracts/lastday/p3.sol\":276:416  constructor(uint _length, uint _width, uint _height) {... */\n  callvalue\n  dup1\n  iszero\n  tag_1\n  jumpi\n  0x00\n  dup1\n  revert\ntag_1:\n  pop\n  mload(0x40)\n  sub(codesize, bytecodeSize)\n  dup1\n  bytecodeSize\n  dup4\n  codecopy\n  dup2\n  dup2\n  add\n  0x40\n  mstore\n  dup2\n  add\n  swap1\n  tag_2\n  swap2\n  swap1\n  tag_3\n  jump\t// in\ntag_2:\n    /* \"contracts/lastday/p3.sol\":349:356  _length */\n  dup3\n    /* \"contracts/lastday/p3.sol\":340:346  length */\n  0x00\n    /* \"contracts/lastday/p3.sol\":340:356  length = _length */\n  dup2\n  swap1\n  sstore\n  pop\n    /* \"contracts/lastday/p3.sol\":375:381  _width */\n  dup2\n    /* \"contracts/lastday/p3.sol\":367:372  width */\n  0x01\n    /* \"contracts/lastday/p3.sol\":367:381  width = _width */\n  dup2\n  swap1\n  sstore\n  pop\n    /* \"contracts/lastday/p3.sol\":401:408  _height */\n  dup1\n    /* \"contracts/lastday/p3.sol\":392:398  height */\n  0x02\n    /* \"contracts/lastday/p3.sol\":392:408  height = _height */\n  dup2\n  swap1\n  sstore\n  pop\n    /* \"contracts/lastday/p3.sol\":276:416  constructor(uint _length, uint _width, uint _height) {... */\n  pop\n  pop\n  pop\n    /* \"contracts/lastday/p3.sol\":187:674  contract Box is ThreeDObject {... */\n  jump(tag_6)\n    /* \"#utility.yul\":88:205   */\ntag_8:\n    /* \"#utility.yul\":197:198   */\n  0x00\n    /* \"#utility.yul\":194:195   */\n  dup1\n    /* \"#utility.yul\":187:199   */\n  revert\n    /* \"#utility.yul\":334:411   */\ntag_10:\n    /* \"#utility.yul\":371:378   */\n  0x00\n    /* \"#utility.yul\":400:405   */\n  dup2\n    /* \"#utility.yul\":389:405   */\n  swap1\n  pop\n    /* \"#utility.yul\":334:411   */\n  swap2\n  swap1\n  pop\n  jump\t// out\n    /* \"#utility.yul\":417:539   */\ntag_11:\n    /* \"#utility.yul\":490:514   */\n  tag_19\n    /* \"#utility.yul\":508:513   */\n  dup2\n    /* \"#utility.yul\":490:514   */\n  tag_10\n  jump\t// in\ntag_19:\n    /* \"#utility.yul\":483:488   */\n  dup2\n    /* \"#utility.yul\":480:515   */\n  eq\n    /* \"#utility.yul\":470:533   */\n  tag_20\n  jumpi\n    /* \"#utility.yul\":529:530   */\n  0x00\n    /* \"#utility.yul\":526:527   */\n  dup1\n    /* \"#utility.yul\":519:531   */\n  revert\n    /* \"#utility.yul\":470:533   */\ntag_20:\n    /* \"#utility.yul\":417:539   */\n  pop\n  jump\t// out\n    /* \"#utility.yul\":545:688   */\ntag_12:\n    /* \"#utility.yul\":602:607   */\n  0x00\n    /* \"#utility.yul\":633:639   */\n  dup2\n    /* \"#utility.yul\":627:640   */\n  mload\n    /* \"#utility.yul\":618:640   */\n  swap1\n  pop\n    /* \"#utility.yul\":649:682   */\n  tag_22\n    /* \"#utility.yul\":676:681   */\n  dup2\n    /* \"#utility.yul\":649:682   */\n  tag_11\n  jump\t// in\ntag_22:\n    /* \"#utility.yul\":545:688   */\n  swap3\n  swap2\n  pop\n  pop\n  jump\t// out\n    /* \"#utility.yul\":694:1357   */\ntag_3:\n    /* \"#utility.yul\":782:788   */\n  0x00\n    /* \"#utility.yul\":790:796   */\n  dup1\n    /* \"#utility.yul\":798:804   */\n  0x00\n    /* \"#utility.yul\":847:849   */\n  0x60\n    /* \"#utility.yul\":835:844   */\n  dup5\n    /* \"#utility.yul\":826:833   */\n  dup7\n    /* \"#utility.yul\":822:845   */\n  sub\n    /* \"#utility.yul\":818:850   */\n  slt\n    /* \"#utility.yul\":815:934   */\n  iszero\n  tag_24\n  jumpi\n    /* \"#utility.yul\":853:932   */\n  tag_25\n  tag_8\n  jump\t// in\ntag_25:\n    /* \"#utility.yul\":815:934   */\ntag_24:\n    /* \"#utility.yul\":973:974   */\n  0x00\n    /* \"#utility.yul\":998:1062   */\n  tag_26\n    /* \"#utility.yul\":1054:1061   */\n  dup7\n    /* \"#utility.yul\":1045:1051   */\n  dup3\n    /* \"#utility.yul\":1034:1043   */\n  dup8\n    /* \"#utility.yul\":1030:1052   */\n  add\n    /* \"#utility.yul\":998:1062   */\n  tag_12\n  jump\t// in\ntag_26:\n    /* \"#utility.yul\":988:1062   */\n  swap4\n  pop\n    /* \"#utility.yul\":944:1072   */\n  pop\n    /* \"#utility.yul\":1111:1113   */\n  0x20\n    /* \"#utility.yul\":1137:1201   */\n  tag_27\n    /* \"#utility.yul\":1193:1200   */\n  dup7\n    /* \"#utility.yul\":1184:1190   */\n  dup3\n    /* \"#utility.yul\":1173:1182   */\n  dup8\n    /* \"#utility.yul\":1169:1191   */\n  add\n    /* \"#utility.yul\":1137:1201   */\n  tag_12\n  jump\t// in\ntag_27:\n    /* \"#utility.yul\":1127:1201   */\n  swap3\n  pop\n    /* \"#utility.yul\":1082:1211   */\n  pop\n    /* \"#utility.yul\":1250:1252   */\n  0x40\n    /* \"#utility.yul\":1276:1340   */\n  tag_28\n    /* \"#utility.yul\":1332:1339   */\n  dup7\n    /* \"#utility.yul\":1323:1329   */\n  dup3\n    /* \"#utility.yul\":1312:1321   */\n  dup8\n    /* \"#utility.yul\":1308:1330   */\n  add\n    /* \"#utility.yul\":1276:1340   */\n  tag_12\n  jump\t// in\ntag_28:\n    /* \"#utility.yul\":1266:1340   */\n  swap2\n  pop\n    /* \"#utility.yul\":1221:1350   */\n  pop\n    /* \"#utility.yul\":694:1357   */\n  swap3\n  pop\n  swap3\n  pop\n  swap3\n  jump\t// out\n    /* \"contracts/lastday/p3.sol\":187:674  contract Box is ThreeDObject {... */\ntag_6:\n  dataSize(sub_0)\n  dup1\n  dataOffset(sub_0)\n  0x00\n  codecopy\n  0x00\n  return\nstop\n\nsub_0: assembly {\n        /* \"contracts/lastday/p3.sol\":187:674  contract Box is ThreeDObject {... */\n      mstore(0x40, 0x80)\n      callvalue\n      dup1\n      iszero\n      tag_1\n      jumpi\n      0x00\n      dup1\n      revert\n    tag_1:\n      pop\n      jumpi(tag_2, lt(calldatasize, 0x04))\n      shr(0xe0, calldataload(0x00))\n      dup1\n      0x89e7995f\n      eq\n      tag_3\n      jumpi\n      dup1\n      0xc618a1e4\n      eq\n      tag_4\n      jumpi\n    tag_2:\n      0x00\n      dup1\n      revert\n        /* \"contracts/lastday/p3.sol\":422:562  function surfaceArea() public view override returns (uint) {... */\n    tag_3:\n      tag_5\n      tag_6\n      jump\t// in\n    tag_5:\n      mload(0x40)\n      tag_7\n      swap2\n      swap1\n      tag_8\n      jump\t// in\n    tag_7:\n      mload(0x40)\n      dup1\n      swap2\n      sub\n      swap1\n      return\n        /* \"contracts/lastday/p3.sol\":568:671  function volume() public view override returns (uint) {... */\n    tag_4:\n      tag_9\n      tag_10\n      jump\t// in\n    tag_9:\n      mload(0x40)\n      tag_11\n      swap2\n      swap1\n      tag_8\n      jump\t// in\n    tag_11:\n      mload(0x40)\n      dup1\n      swap2\n      sub\n      swap1\n      return\n        /* \"contracts/lastday/p3.sol\":422:562  function surfaceArea() public view override returns (uint) {... */\n    tag_6:\n        /* \"contracts/lastday/p3.sol\":475:479  uint */\n      0x00\n        /* \"contracts/lastday/p3.sol\":547:553  length */\n      dup1\n      sload\n        /* \"contracts/lastday/p3.sol\":538:544  height */\n      sload(0x02)\n        /* \"contracts/lastday/p3.sol\":538:553  height * length */\n      tag_13\n      swap2\n      swap1\n      tag_14\n      jump\t// in\n    tag_13:\n        /* \"contracts/lastday/p3.sol\":529:535  height */\n      sload(0x02)\n        /* \"contracts/lastday/p3.sol\":521:526  width */\n      sload(0x01)\n        /* \"contracts/lastday/p3.sol\":521:535  width * height */\n      tag_15\n      swap2\n      swap1\n      tag_14\n      jump\t// in\n    tag_15:\n        /* \"contracts/lastday/p3.sol\":513:518  width */\n      sload(0x01)\n        /* \"contracts/lastday/p3.sol\":504:510  length */\n      sload(0x00)\n        /* \"contracts/lastday/p3.sol\":504:518  length * width */\n      tag_16\n      swap2\n      swap1\n      tag_14\n      jump\t// in\n    tag_16:\n        /* \"contracts/lastday/p3.sol\":504:535  length * width + width * height */\n      tag_17\n      swap2\n      swap1\n      tag_18\n      jump\t// in\n    tag_17:\n        /* \"contracts/lastday/p3.sol\":504:553  length * width + width * height + height * length */\n      tag_19\n      swap2\n      swap1\n      tag_18\n      jump\t// in\n    tag_19:\n        /* \"contracts/lastday/p3.sol\":499:500  2 */\n      0x02\n        /* \"contracts/lastday/p3.sol\":499:554  2 * (length * width + width * height + height * length) */\n      tag_20\n      swap2\n      swap1\n      tag_14\n      jump\t// in\n    tag_20:\n        /* \"contracts/lastday/p3.sol\":492:554  return 2 * (length * width + width * height + height * length) */\n      swap1\n      pop\n        /* \"contracts/lastday/p3.sol\":422:562  function surfaceArea() public view override returns (uint) {... */\n      swap1\n      jump\t// out\n        /* \"contracts/lastday/p3.sol\":568:671  function volume() public view override returns (uint) {... */\n    tag_10:\n        /* \"contracts/lastday/p3.sol\":616:620  uint */\n      0x00\n        /* \"contracts/lastday/p3.sol\":657:663  height */\n      sload(0x02)\n        /* \"contracts/lastday/p3.sol\":649:654  width */\n      sload(0x01)\n        /* \"contracts/lastday/p3.sol\":640:646  length */\n      sload(0x00)\n        /* \"contracts/lastday/p3.sol\":640:654  length * width */\n      tag_22\n      swap2\n      swap1\n      tag_14\n      jump\t// in\n    tag_22:\n        /* \"contracts/lastday/p3.sol\":640:663  length * width * height */\n      tag_23\n      swap2\n      swap1\n      tag_14\n      jump\t// in\n    tag_23:\n        /* \"contracts/lastday/p3.sol\":633:663  return length * width * height */\n      swap1\n      pop\n        /* \"contracts/lastday/p3.sol\":568:671  function volume() public view override returns (uint) {... */\n      swap1\n      jump\t// out\n        /* \"#utility.yul\":7:84   */\n    tag_24:\n        /* \"#utility.yul\":44:51   */\n      0x00\n        /* \"#utility.yul\":73:78   */\n      dup2\n        /* \"#utility.yul\":62:78   */\n      swap1\n      pop\n        /* \"#utility.yul\":7:84   */\n      swap2\n      swap1\n      pop\n      jump\t// out\n        /* \"#utility.yul\":90:208   */\n    tag_25:\n        /* \"#utility.yul\":177:201   */\n      tag_30\n        /* \"#utility.yul\":195:200   */\n      dup2\n        /* \"#utility.yul\":177:201   */\n      tag_24\n      jump\t// in\n    tag_30:\n        /* \"#utility.yul\":172:175   */\n      dup3\n        /* \"#utility.yul\":165:202   */\n      mstore\n        /* \"#utility.yul\":90:208   */\n      pop\n      pop\n      jump\t// out\n        /* \"#utility.yul\":214:436   */\n    tag_8:\n        /* \"#utility.yul\":307:311   */\n      0x00\n        /* \"#utility.yul\":345:347   */\n      0x20\n        /* \"#utility.yul\":334:343   */\n      dup3\n        /* \"#utility.yul\":330:348   */\n      add\n        /* \"#utility.yul\":322:348   */\n      swap1\n      pop\n        /* \"#utility.yul\":358:429   */\n      tag_32\n        /* \"#utility.yul\":426:427   */\n      0x00\n        /* \"#utility.yul\":415:424   */\n      dup4\n        /* \"#utility.yul\":411:428   */\n      add\n        /* \"#utility.yul\":402:408   */\n      dup5\n        /* \"#utility.yul\":358:429   */\n      tag_25\n      jump\t// in\n    tag_32:\n        /* \"#utility.yul\":214:436   */\n      swap3\n      swap2\n      pop\n      pop\n      jump\t// out\n        /* \"#utility.yul\":442:622   */\n    tag_26:\n        /* \"#utility.yul\":490:567   */\n      0x4e487b7100000000000000000000000000000000000000000000000000000000\n        /* \"#utility.yul\":487:488   */\n      0x00\n        /* \"#utility.yul\":480:568   */\n      mstore\n        /* \"#utility.yul\":587:591   */\n      0x11\n        /* \"#utility.yul\":584:585   */\n      0x04\n        /* \"#utility.yul\":577:592   */\n      mstore\n        /* \"#utility.yul\":611:615   */\n      0x24\n        /* \"#utility.yul\":608:609   */\n      0x00\n        /* \"#utility.yul\":601:616   */\n      revert\n        /* \"#utility.yul\":628:1038   */\n    tag_14:\n        /* \"#utility.yul\":668:675   */\n      0x00\n        /* \"#utility.yul\":691:711   */\n      tag_35\n        /* \"#utility.yul\":709:710   */\n      dup3\n        /* \"#utility.yul\":691:711   */\n      tag_24\n      jump\t// in\n    tag_35:\n        /* \"#utility.yul\":686:711   */\n      swap2\n      pop\n        /* \"#utility.yul\":725:745   */\n      tag_36\n        /* \"#utility.yul\":743:744   */\n      dup4\n        /* \"#utility.yul\":725:745   */\n      tag_24\n      jump\t// in\n    tag_36:\n        /* \"#utility.yul\":720:745   */\n      swap3\n      pop\n        /* \"#utility.yul\":780:781   */\n      dup3\n        /* \"#utility.yul\":777:778   */\n      dup3\n        /* \"#utility.yul\":773:782   */\n      mul\n        /* \"#utility.yul\":802:832   */\n      tag_37\n        /* \"#utility.yul\":820:831   */\n      dup2\n        /* \"#utility.yul\":802:832   */\n      tag_24\n      jump\t// in\n    tag_37:\n        /* \"#utility.yul\":791:832   */\n      swap2\n      pop\n        /* \"#utility.yul\":981:982   */\n      dup3\n        /* \"#utility.yul\":972:979   */\n      dup3\n        /* \"#utility.yul\":968:983   */\n      div\n        /* \"#utility.yul\":965:966   */\n      dup5\n        /* \"#utility.yul\":962:984   */\n      eq\n        /* \"#utility.yul\":942:943   */\n      dup4\n        /* \"#utility.yul\":935:944   */\n      iszero\n        /* \"#utility.yul\":915:998   */\n      or\n        /* \"#utility.yul\":892:1031   */\n      tag_38\n      jumpi\n        /* \"#utility.yul\":1011:1029   */\n      tag_39\n      tag_26\n      jump\t// in\n    tag_39:\n        /* \"#utility.yul\":892:1031   */\n    tag_38:\n        /* \"#utility.yul\":676:1038   */\n      pop\n        /* \"#utility.yul\":628:1038   */\n      swap3\n      swap2\n      pop\n      pop\n      jump\t// out\n        /* \"#utility.yul\":1044:1235   */\n    tag_18:\n        /* \"#utility.yul\":1084:1087   */\n      0x00\n        /* \"#utility.yul\":1103:1123   */\n      tag_41\n        /* \"#utility.yul\":1121:1122   */\n      dup3\n        /* \"#utility.yul\":1103:1123   */\n      tag_24\n      jump\t// in\n    tag_41:\n        /* \"#utility.yul\":1098:1123   */\n      swap2\n      pop\n        /* \"#utility.yul\":1137:1157   */\n      tag_42\n        /* \"#utility.yul\":1155:1156   */\n      dup4\n        /* \"#utility.yul\":1137:1157   */\n      tag_24\n      jump\t// in\n    tag_42:\n        /* \"#utility.yul\":1132:1157   */\n      swap3\n      pop\n        /* \"#utility.yul\":1180:1181   */\n      dup3\n        /* \"#utility.yul\":1177:1178   */\n      dup3\n        /* \"#utility.yul\":1173:1182   */\n      add\n        /* \"#utility.yul\":1166:1182   */\n      swap1\n      pop\n        /* \"#utility.yul\":1201:1204   */\n      dup1\n        /* \"#utility.yul\":1198:1199   */\n      dup3\n        /* \"#utility.yul\":1195:1205   */\n      gt\n        /* \"#utility.yul\":1192:1228   */\n      iszero\n      tag_43\n      jumpi\n        /* \"#utility.yul\":1208:1226   */\n      tag_44\n      tag_26\n      jump\t// in\n    tag_44:\n        /* \"#utility.yul\":1192:1228   */\n    tag_43:\n        /* \"#utility.yul\":1044:1235   */\n      swap3\n      swap2\n      pop\n      pop\n      jump\t// out\n\n    auxdata: 0xa26469706673582212207ace19f85ef7c108ee43a4bd475343dbf8391bf9504b75a5f94964cddbf820db64736f6c634300081a0033\n}\n",
				"bytecode": {
					"linkReferences": {},
					"object": "6080604052348015600e575f80fd5b506040516102c13803806102c18339818101604052810190602e9190607b565b825f81905550816001819055508060028190555050505060c2565b5f80fd5b5f819050919050565b605d81604d565b81146066575f80fd5b50565b5f815190506075816056565b92915050565b5f805f60608486031215608f57608e6049565b5b5f609a868287016069565b935050602060a9868287016069565b925050604060b8868287016069565b9150509250925092565b6101f2806100cf5f395ff3fe608060405234801561000f575f80fd5b5060043610610034575f3560e01c806389e7995f14610038578063c618a1e414610056575b5f80fd5b610040610074565b60405161004d9190610102565b60405180910390f35b61005e6100c8565b60405161006b9190610102565b60405180910390f35b5f80546002546100849190610148565b6002546001546100949190610148565b6001545f546100a39190610148565b6100ad9190610189565b6100b79190610189565b60026100c39190610148565b905090565b5f6002546001545f546100db9190610148565b6100e59190610148565b905090565b5f819050919050565b6100fc816100ea565b82525050565b5f6020820190506101155f8301846100f3565b92915050565b7f4e487b71000000000000000000000000000000000000000000000000000000005f52601160045260245ffd5b5f610152826100ea565b915061015d836100ea565b925082820261016b816100ea565b915082820484148315176101825761018161011b565b5b5092915050565b5f610193826100ea565b915061019e836100ea565b92508282019050808211156101b6576101b561011b565b5b9291505056fea26469706673582212207ace19f85ef7c108ee43a4bd475343dbf8391bf9504b75a5f94964cddbf820db64736f6c634300081a0033",
					"opcodes": "PUSH1 0x80 PUSH1 0x40 MSTORE CALLVALUE DUP1 ISZERO PUSH1 0xE JUMPI PUSH0 DUP1 REVERT JUMPDEST POP PUSH1 0x40 MLOAD PUSH2 0x2C1 CODESIZE SUB DUP1 PUSH2 0x2C1 DUP4 CODECOPY DUP2 DUP2 ADD PUSH1 0x40 MSTORE DUP2 ADD SWAP1 PUSH1 0x2E SWAP2 SWAP1 PUSH1 0x7B JUMP JUMPDEST DUP3 PUSH0 DUP2 SWAP1 SSTORE POP DUP2 PUSH1 0x1 DUP2 SWAP1 SSTORE POP DUP1 PUSH1 0x2 DUP2 SWAP1 SSTORE POP POP POP POP PUSH1 0xC2 JUMP JUMPDEST PUSH0 DUP1 REVERT JUMPDEST PUSH0 DUP2 SWAP1 POP SWAP2 SWAP1 POP JUMP JUMPDEST PUSH1 0x5D DUP2 PUSH1 0x4D JUMP JUMPDEST DUP2 EQ PUSH1 0x66 JUMPI PUSH0 DUP1 REVERT JUMPDEST POP JUMP JUMPDEST PUSH0 DUP2 MLOAD SWAP1 POP PUSH1 0x75 DUP2 PUSH1 0x56 JUMP JUMPDEST SWAP3 SWAP2 POP POP JUMP JUMPDEST PUSH0 DUP1 PUSH0 PUSH1 0x60 DUP5 DUP7 SUB SLT ISZERO PUSH1 0x8F JUMPI PUSH1 0x8E PUSH1 0x49 JUMP JUMPDEST JUMPDEST PUSH0 PUSH1 0x9A DUP7 DUP3 DUP8 ADD PUSH1 0x69 JUMP JUMPDEST SWAP4 POP POP PUSH1 0x20 PUSH1 0xA9 DUP7 DUP3 DUP8 ADD PUSH1 0x69 JUMP JUMPDEST SWAP3 POP POP PUSH1 0x40 PUSH1 0xB8 DUP7 DUP3 DUP8 ADD PUSH1 0x69 JUMP JUMPDEST SWAP2 POP POP SWAP3 POP SWAP3 POP SWAP3 JUMP JUMPDEST PUSH2 0x1F2 DUP1 PUSH2 0xCF PUSH0 CODECOPY PUSH0 RETURN INVALID PUSH1 0x80 PUSH1 0x40 MSTORE CALLVALUE DUP1 ISZERO PUSH2 0xF JUMPI PUSH0 DUP1 REVERT JUMPDEST POP PUSH1 0x4 CALLDATASIZE LT PUSH2 0x34 JUMPI PUSH0 CALLDATALOAD PUSH1 0xE0 SHR DUP1 PUSH4 0x89E7995F EQ PUSH2 0x38 JUMPI DUP1 PUSH4 0xC618A1E4 EQ PUSH2 0x56 JUMPI JUMPDEST PUSH0 DUP1 REVERT JUMPDEST PUSH2 0x40 PUSH2 0x74 JUMP JUMPDEST PUSH1 0x40 MLOAD PUSH2 0x4D SWAP2 SWAP1 PUSH2 0x102 JUMP JUMPDEST PUSH1 0x40 MLOAD DUP1 SWAP2 SUB SWAP1 RETURN JUMPDEST PUSH2 0x5E PUSH2 0xC8 JUMP JUMPDEST PUSH1 0x40 MLOAD PUSH2 0x6B SWAP2 SWAP1 PUSH2 0x102 JUMP JUMPDEST PUSH1 0x40 MLOAD DUP1 SWAP2 SUB SWAP1 RETURN JUMPDEST PUSH0 DUP1 SLOAD PUSH1 0x2 SLOAD PUSH2 0x84 SWAP2 SWAP1 PUSH2 0x148 JUMP JUMPDEST PUSH1 0x2 SLOAD PUSH1 0x1 SLOAD PUSH2 0x94 SWAP2 SWAP1 PUSH2 0x148 JUMP JUMPDEST PUSH1 0x1 SLOAD PUSH0 SLOAD PUSH2 0xA3 SWAP2 SWAP1 PUSH2 0x148 JUMP JUMPDEST PUSH2 0xAD SWAP2 SWAP1 PUSH2 0x189 JUMP JUMPDEST PUSH2 0xB7 SWAP2 SWAP1 PUSH2 0x189 JUMP JUMPDEST PUSH1 0x2 PUSH2 0xC3 SWAP2 SWAP1 PUSH2 0x148 JUMP JUMPDEST SWAP1 POP SWAP1 JUMP JUMPDEST PUSH0 PUSH1 0x2 SLOAD PUSH1 0x1 SLOAD PUSH0 SLOAD PUSH2 0xDB SWAP2 SWAP1 PUSH2 0x148 JUMP JUMPDEST PUSH2 0xE5 SWAP2 SWAP1 PUSH2 0x148 JUMP JUMPDEST SWAP1 POP SWAP1 JUMP JUMPDEST PUSH0 DUP2 SWAP1 POP SWAP2 SWAP1 POP JUMP JUMPDEST PUSH2 0xFC DUP2 PUSH2 0xEA JUMP JUMPDEST DUP3 MSTORE POP POP JUMP JUMPDEST PUSH0 PUSH1 0x20 DUP3 ADD SWAP1 POP PUSH2 0x115 PUSH0 DUP4 ADD DUP5 PUSH2 0xF3 JUMP JUMPDEST SWAP3 SWAP2 POP POP JUMP JUMPDEST PUSH32 0x4E487B7100000000000000000000000000000000000000000000000000000000 PUSH0 MSTORE PUSH1 0x11 PUSH1 0x4 MSTORE PUSH1 0x24 PUSH0 REVERT JUMPDEST PUSH0 PUSH2 0x152 DUP3 PUSH2 0xEA JUMP JUMPDEST SWAP2 POP PUSH2 0x15D DUP4 PUSH2 0xEA JUMP JUMPDEST SWAP3 POP DUP3 DUP3 MUL PUSH2 0x16B DUP2 PUSH2 0xEA JUMP JUMPDEST SWAP2 POP DUP3 DUP3 DIV DUP5 EQ DUP4 ISZERO OR PUSH2 0x182 JUMPI PUSH2 0x181 PUSH2 0x11B JUMP JUMPDEST JUMPDEST POP SWAP3 SWAP2 POP POP JUMP JUMPDEST PUSH0 PUSH2 0x193 DUP3 PUSH2 0xEA JUMP JUMPDEST SWAP2 POP PUSH2 0x19E DUP4 PUSH2 0xEA JUMP JUMPDEST SWAP3 POP DUP3 DUP3 ADD SWAP1 POP DUP1 DUP3 GT ISZERO PUSH2 0x1B6 JUMPI PUSH2 0x1B5 PUSH2 0x11B JUMP JUMPDEST JUMPDEST SWAP3 SWAP2 POP POP JUMP INVALID LOG2 PUSH5 0x6970667358 0x22 SLT KECCAK256 PUSH27 0xCE19F85EF7C108EE43A4BD475343DBF8391BF9504B75A5F94964CD 0xDB 0xF8 KECCAK256 0xDB PUSH5 0x736F6C6343 STOP ADDMOD BYTE STOP CALLER "
				},
				"gasEstimates": {
					"creation": {
						"codeDepositCost": "99600",
						"executionCost": "infinite",
						"totalCost": "infinite"
					},
					"external": {
						"surfaceArea()": "infinite",
						"volume()": "infinite"
					}
				},
				"methodIdentifiers": {
					"surfaceArea()": "89e7995f",
					"volume()": "c618a1e4"
				}
			},
			"storageLayout": {
				"storage": [
					{
						"astId": 16,
						"contract": "contracts/lastday/p3.sol:Box",
						"label": "length",
						"offset": 0,
						"slot": "0",
						"type": "t_uint256"
					},
					{
						"astId": 18,
						"contract": "contracts/lastday/p3.sol:Box",
						"label": "width",
						"offset": 0,
						"slot": "1",
						"type": "t_uint256"
					},
					{
						"astId": 20,
						"contract": "contracts/lastday/p3.sol:Box",
						"label": "height",
						"offset": 0,
						"slot": "2",
						"type": "t_uint256"
					}
				],
				"types": {
					"t_uint256": {
						"encoding": "inplace",
						"label": "uint256",
						"numberOfBytes": "32"
					}
				}
			},
			"userdoc": {
				"kind": "user",
				"methods": {},
				"version": 1
			}
		}
	}
}