{
	"contracts/DAY05/p3.sol": {
		"ArrayOperations": {
			"abi": [
				{
					"inputs": [
						{
							"internalType": "int256",
							"name": "element",
							"type": "int256"
						}
					],
					"name": "addElement",
					"outputs": [],
					"stateMutability": "nonpayable",
					"type": "function"
				},
				{
					"inputs": [
						{
							"internalType": "uint256",
							"name": "",
							"type": "uint256"
						}
					],
					"name": "array",
					"outputs": [
						{
							"internalType": "int256",
							"name": "",
							"type": "int256"
						}
					],
					"stateMutability": "view",
					"type": "function"
				},
				{
					"inputs": [
						{
							"internalType": "uint256",
							"name": "index",
							"type": "uint256"
						}
					],
					"name": "deleteElement",
					"outputs": [],
					"stateMutability": "nonpayable",
					"type": "function"
				},
				{
					"inputs": [],
					"name": "getArray",
					"outputs": [
						{
							"internalType": "int256[]",
							"name": "",
							"type": "int256[]"
						}
					],
					"stateMutability": "view",
					"type": "function"
				}
			],
			"devdoc": {
				"kind": "dev",
				"methods": {},
				"version": 1
			},
			"evm": {
				"assembly": "    /* \"contracts/DAY05/p3.sol\":60:937  contract ArrayOperations {... */\n  mstore(0x40, 0x80)\n  callvalue\n  dup1\n  iszero\n  tag_1\n  jumpi\n  0x00\n  dup1\n  revert\ntag_1:\n  pop\n  dataSize(sub_0)\n  dup1\n  dataOffset(sub_0)\n  0x00\n  codecopy\n  0x00\n  return\nstop\n\nsub_0: assembly {\n        /* \"contracts/DAY05/p3.sol\":60:937  contract ArrayOperations {... */\n      mstore(0x40, 0x80)\n      callvalue\n      dup1\n      iszero\n      tag_1\n      jumpi\n      0x00\n      dup1\n      revert\n    tag_1:\n      pop\n      jumpi(tag_2, lt(calldatasize, 0x04))\n      shr(0xe0, calldataload(0x00))\n      dup1\n      0x0bdc13ed\n      eq\n      tag_3\n      jumpi\n      dup1\n      0x38d94193\n      eq\n      tag_4\n      jumpi\n      dup1\n      0x792de6f3\n      eq\n      tag_5\n      jumpi\n      dup1\n      0xd504ea1d\n      eq\n      tag_6\n      jumpi\n    tag_2:\n      0x00\n      dup1\n      revert\n        /* \"contracts/DAY05/p3.sol\":215:293  function addElement(int element) public {... */\n    tag_3:\n      tag_7\n      0x04\n      dup1\n      calldatasize\n      sub\n      dup2\n      add\n      swap1\n      tag_8\n      swap2\n      swap1\n      tag_9\n      jump\t// in\n    tag_8:\n      tag_10\n      jump\t// in\n    tag_7:\n      stop\n        /* \"contracts/DAY05/p3.sol\":126:144  int[] public array */\n    tag_4:\n      tag_11\n      0x04\n      dup1\n      calldatasize\n      sub\n      dup2\n      add\n      swap1\n      tag_12\n      swap2\n      swap1\n      tag_13\n      jump\t// in\n    tag_12:\n      tag_14\n      jump\t// in\n    tag_11:\n      mload(0x40)\n      tag_15\n      swap2\n      swap1\n      tag_16\n      jump\t// in\n    tag_15:\n      mload(0x40)\n      dup1\n      swap2\n      sub\n      swap1\n      return\n        /* \"contracts/DAY05/p3.sol\":377:784  function deleteElement(uint index) public {... */\n    tag_5:\n      tag_17\n      0x04\n      dup1\n      calldatasize\n      sub\n      dup2\n      add\n      swap1\n      tag_18\n      swap2\n      swap1\n      tag_13\n      jump\t// in\n    tag_18:\n      tag_19\n      jump\t// in\n    tag_17:\n      stop\n        /* \"contracts/DAY05/p3.sol\":848:934  function getArray() public view returns (int[] memory) {... */\n    tag_6:\n      tag_20\n      tag_21\n      jump\t// in\n    tag_20:\n      mload(0x40)\n      tag_22\n      swap2\n      swap1\n      tag_23\n      jump\t// in\n    tag_22:\n      mload(0x40)\n      dup1\n      swap2\n      sub\n      swap1\n      return\n        /* \"contracts/DAY05/p3.sol\":215:293  function addElement(int element) public {... */\n    tag_10:\n        /* \"contracts/DAY05/p3.sol\":266:271  array */\n      0x00\n        /* \"contracts/DAY05/p3.sol\":277:284  element */\n      dup2\n        /* \"contracts/DAY05/p3.sol\":266:285  array.push(element) */\n      swap1\n      dup1\n      0x01\n      dup2\n      sload\n      add\n      dup1\n      dup3\n      sstore\n      dup1\n      swap2\n      pop\n      pop\n      0x01\n      swap1\n      sub\n      swap1\n      0x00\n      mstore\n      keccak256(0x00, 0x20)\n      add\n      0x00\n      swap1\n      swap2\n      swap1\n      swap2\n      swap1\n      swap2\n      pop\n      sstore\n        /* \"contracts/DAY05/p3.sol\":215:293  function addElement(int element) public {... */\n      pop\n      jump\t// out\n        /* \"contracts/DAY05/p3.sol\":126:144  int[] public array */\n    tag_14:\n      0x00\n      dup2\n      dup2\n      sload\n      dup2\n      lt\n      tag_26\n      jumpi\n      0x00\n      dup1\n      revert\n    tag_26:\n      swap1\n      0x00\n      mstore\n      keccak256(0x00, 0x20)\n      add\n      0x00\n      swap2\n      pop\n      swap1\n      pop\n      sload\n      dup2\n      jump\t// out\n        /* \"contracts/DAY05/p3.sol\":377:784  function deleteElement(uint index) public {... */\n    tag_19:\n        /* \"contracts/DAY05/p3.sol\":446:451  array */\n      0x00\n        /* \"contracts/DAY05/p3.sol\":446:458  array.length */\n      dup1\n      sload\n      swap1\n      pop\n        /* \"contracts/DAY05/p3.sol\":438:443  index */\n      dup2\n        /* \"contracts/DAY05/p3.sol\":438:458  index < array.length */\n      lt\n        /* \"contracts/DAY05/p3.sol\":430:482  require(index < array.length, \"Index out of bounds\") */\n      tag_29\n      jumpi\n      mload(0x40)\n      0x08c379a000000000000000000000000000000000000000000000000000000000\n      dup2\n      mstore\n      0x04\n      add\n      tag_30\n      swap1\n      tag_31\n      jump\t// in\n    tag_30:\n      mload(0x40)\n      dup1\n      swap2\n      sub\n      swap1\n      revert\n    tag_29:\n        /* \"contracts/DAY05/p3.sol\":548:554  uint i */\n      0x00\n        /* \"contracts/DAY05/p3.sol\":557:562  index */\n      dup2\n        /* \"contracts/DAY05/p3.sol\":548:562  uint i = index */\n      swap1\n      pop\n        /* \"contracts/DAY05/p3.sol\":543:675  for (uint i = index; i < array.length - 1; i++) {... */\n    tag_32:\n        /* \"contracts/DAY05/p3.sol\":583:584  1 */\n      0x01\n        /* \"contracts/DAY05/p3.sol\":568:573  array */\n      0x00\n        /* \"contracts/DAY05/p3.sol\":568:580  array.length */\n      dup1\n      sload\n      swap1\n      pop\n        /* \"contracts/DAY05/p3.sol\":568:584  array.length - 1 */\n      tag_35\n      swap2\n      swap1\n      tag_36\n      jump\t// in\n    tag_35:\n        /* \"contracts/DAY05/p3.sol\":564:565  i */\n      dup2\n        /* \"contracts/DAY05/p3.sol\":564:584  i < array.length - 1 */\n      lt\n        /* \"contracts/DAY05/p3.sol\":543:675  for (uint i = index; i < array.length - 1; i++) {... */\n      iszero\n      tag_33\n      jumpi\n        /* \"contracts/DAY05/p3.sol\":617:622  array */\n      0x00\n        /* \"contracts/DAY05/p3.sol\":627:628  1 */\n      0x01\n        /* \"contracts/DAY05/p3.sol\":623:624  i */\n      dup3\n        /* \"contracts/DAY05/p3.sol\":623:628  i + 1 */\n      tag_37\n      swap2\n      swap1\n      tag_38\n      jump\t// in\n    tag_37:\n        /* \"contracts/DAY05/p3.sol\":617:629  array[i + 1] */\n      dup2\n      sload\n      dup2\n      lt\n      tag_39\n      jumpi\n      tag_40\n      tag_41\n      jump\t// in\n    tag_40:\n    tag_39:\n      swap1\n      0x00\n      mstore\n      keccak256(0x00, 0x20)\n      add\n      sload\n        /* \"contracts/DAY05/p3.sol\":606:611  array */\n      0x00\n        /* \"contracts/DAY05/p3.sol\":612:613  i */\n      dup3\n        /* \"contracts/DAY05/p3.sol\":606:614  array[i] */\n      dup2\n      sload\n      dup2\n      lt\n      tag_43\n      jumpi\n      tag_44\n      tag_41\n      jump\t// in\n    tag_44:\n    tag_43:\n      swap1\n      0x00\n      mstore\n      keccak256(0x00, 0x20)\n      add\n        /* \"contracts/DAY05/p3.sol\":606:629  array[i] = array[i + 1] */\n      dup2\n      swap1\n      sstore\n      pop\n        /* \"contracts/DAY05/p3.sol\":586:589  i++ */\n      dup1\n      dup1\n      0x01\n      add\n      swap2\n      pop\n      pop\n        /* \"contracts/DAY05/p3.sol\":543:675  for (uint i = index; i < array.length - 1; i++) {... */\n      jump(tag_32)\n    tag_33:\n      pop\n        /* \"contracts/DAY05/p3.sol\":765:770  array */\n      0x00\n        /* \"contracts/DAY05/p3.sol\":765:776  array.pop() */\n      dup1\n      sload\n      dup1\n      tag_46\n      jumpi\n      tag_47\n      tag_48\n      jump\t// in\n    tag_47:\n    tag_46:\n      0x01\n      swap1\n      sub\n      dup2\n      dup2\n      swap1\n      0x00\n      mstore\n      keccak256(0x00, 0x20)\n      add\n      0x00\n      swap1\n      sstore\n      swap1\n      sstore\n        /* \"contracts/DAY05/p3.sol\":377:784  function deleteElement(uint index) public {... */\n      pop\n      jump\t// out\n        /* \"contracts/DAY05/p3.sol\":848:934  function getArray() public view returns (int[] memory) {... */\n    tag_21:\n        /* \"contracts/DAY05/p3.sol\":889:901  int[] memory */\n      0x60\n        /* \"contracts/DAY05/p3.sol\":921:926  array */\n      0x00\n        /* \"contracts/DAY05/p3.sol\":914:926  return array */\n      dup1\n      sload\n      dup1\n      0x20\n      mul\n      0x20\n      add\n      mload(0x40)\n      swap1\n      dup2\n      add\n      0x40\n      mstore\n      dup1\n      swap3\n      swap2\n      swap1\n      dup2\n      dup2\n      mstore\n      0x20\n      add\n      dup3\n      dup1\n      sload\n      dup1\n      iszero\n      tag_51\n      jumpi\n      0x20\n      mul\n      dup3\n      add\n      swap2\n      swap1\n      0x00\n      mstore\n      keccak256(0x00, 0x20)\n      swap1\n    tag_52:\n      dup2\n      sload\n      dup2\n      mstore\n      0x20\n      add\n      swap1\n      0x01\n      add\n      swap1\n      dup1\n      dup4\n      gt\n      tag_52\n      jumpi\n    tag_51:\n      pop\n      pop\n      pop\n      pop\n      pop\n      swap1\n      pop\n        /* \"contracts/DAY05/p3.sol\":848:934  function getArray() public view returns (int[] memory) {... */\n      swap1\n      jump\t// out\n        /* \"#utility.yul\":88:205   */\n    tag_54:\n        /* \"#utility.yul\":197:198   */\n      0x00\n        /* \"#utility.yul\":194:195   */\n      dup1\n        /* \"#utility.yul\":187:199   */\n      revert\n        /* \"#utility.yul\":334:410   */\n    tag_56:\n        /* \"#utility.yul\":370:377   */\n      0x00\n        /* \"#utility.yul\":399:404   */\n      dup2\n        /* \"#utility.yul\":388:404   */\n      swap1\n      pop\n        /* \"#utility.yul\":334:410   */\n      swap2\n      swap1\n      pop\n      jump\t// out\n        /* \"#utility.yul\":416:536   */\n    tag_57:\n        /* \"#utility.yul\":488:511   */\n      tag_80\n        /* \"#utility.yul\":505:510   */\n      dup2\n        /* \"#utility.yul\":488:511   */\n      tag_56\n      jump\t// in\n    tag_80:\n        /* \"#utility.yul\":481:486   */\n      dup2\n        /* \"#utility.yul\":478:512   */\n      eq\n        /* \"#utility.yul\":468:530   */\n      tag_81\n      jumpi\n        /* \"#utility.yul\":526:527   */\n      0x00\n        /* \"#utility.yul\":523:524   */\n      dup1\n        /* \"#utility.yul\":516:528   */\n      revert\n        /* \"#utility.yul\":468:530   */\n    tag_81:\n        /* \"#utility.yul\":416:536   */\n      pop\n      jump\t// out\n        /* \"#utility.yul\":542:679   */\n    tag_58:\n        /* \"#utility.yul\":587:592   */\n      0x00\n        /* \"#utility.yul\":625:631   */\n      dup2\n        /* \"#utility.yul\":612:632   */\n      calldataload\n        /* \"#utility.yul\":603:632   */\n      swap1\n      pop\n        /* \"#utility.yul\":641:673   */\n      tag_83\n        /* \"#utility.yul\":667:672   */\n      dup2\n        /* \"#utility.yul\":641:673   */\n      tag_57\n      jump\t// in\n    tag_83:\n        /* \"#utility.yul\":542:679   */\n      swap3\n      swap2\n      pop\n      pop\n      jump\t// out\n        /* \"#utility.yul\":685:1012   */\n    tag_9:\n        /* \"#utility.yul\":743:749   */\n      0x00\n        /* \"#utility.yul\":792:794   */\n      0x20\n        /* \"#utility.yul\":780:789   */\n      dup3\n        /* \"#utility.yul\":771:778   */\n      dup5\n        /* \"#utility.yul\":767:790   */\n      sub\n        /* \"#utility.yul\":763:795   */\n      slt\n        /* \"#utility.yul\":760:879   */\n      iszero\n      tag_85\n      jumpi\n        /* \"#utility.yul\":798:877   */\n      tag_86\n      tag_54\n      jump\t// in\n    tag_86:\n        /* \"#utility.yul\":760:879   */\n    tag_85:\n        /* \"#utility.yul\":918:919   */\n      0x00\n        /* \"#utility.yul\":943:995   */\n      tag_87\n        /* \"#utility.yul\":987:994   */\n      dup5\n        /* \"#utility.yul\":978:984   */\n      dup3\n        /* \"#utility.yul\":967:976   */\n      dup6\n        /* \"#utility.yul\":963:985   */\n      add\n        /* \"#utility.yul\":943:995   */\n      tag_58\n      jump\t// in\n    tag_87:\n        /* \"#utility.yul\":933:995   */\n      swap2\n      pop\n        /* \"#utility.yul\":889:1005   */\n      pop\n        /* \"#utility.yul\":685:1012   */\n      swap3\n      swap2\n      pop\n      pop\n      jump\t// out\n        /* \"#utility.yul\":1018:1095   */\n    tag_59:\n        /* \"#utility.yul\":1055:1062   */\n      0x00\n        /* \"#utility.yul\":1084:1089   */\n      dup2\n        /* \"#utility.yul\":1073:1089   */\n      swap1\n      pop\n        /* \"#utility.yul\":1018:1095   */\n      swap2\n      swap1\n      pop\n      jump\t// out\n        /* \"#utility.yul\":1101:1223   */\n    tag_60:\n        /* \"#utility.yul\":1174:1198   */\n      tag_90\n        /* \"#utility.yul\":1192:1197   */\n      dup2\n        /* \"#utility.yul\":1174:1198   */\n      tag_59\n      jump\t// in\n    tag_90:\n        /* \"#utility.yul\":1167:1172   */\n      dup2\n        /* \"#utility.yul\":1164:1199   */\n      eq\n        /* \"#utility.yul\":1154:1217   */\n      tag_91\n      jumpi\n        /* \"#utility.yul\":1213:1214   */\n      0x00\n        /* \"#utility.yul\":1210:1211   */\n      dup1\n        /* \"#utility.yul\":1203:1215   */\n      revert\n        /* \"#utility.yul\":1154:1217   */\n    tag_91:\n        /* \"#utility.yul\":1101:1223   */\n      pop\n      jump\t// out\n        /* \"#utility.yul\":1229:1368   */\n    tag_61:\n        /* \"#utility.yul\":1275:1280   */\n      0x00\n        /* \"#utility.yul\":1313:1319   */\n      dup2\n        /* \"#utility.yul\":1300:1320   */\n      calldataload\n        /* \"#utility.yul\":1291:1320   */\n      swap1\n      pop\n        /* \"#utility.yul\":1329:1362   */\n      tag_93\n        /* \"#utility.yul\":1356:1361   */\n      dup2\n        /* \"#utility.yul\":1329:1362   */\n      tag_60\n      jump\t// in\n    tag_93:\n        /* \"#utility.yul\":1229:1368   */\n      swap3\n      swap2\n      pop\n      pop\n      jump\t// out\n        /* \"#utility.yul\":1374:1703   */\n    tag_13:\n        /* \"#utility.yul\":1433:1439   */\n      0x00\n        /* \"#utility.yul\":1482:1484   */\n      0x20\n        /* \"#utility.yul\":1470:1479   */\n      dup3\n        /* \"#utility.yul\":1461:1468   */\n      dup5\n        /* \"#utility.yul\":1457:1480   */\n      sub\n        /* \"#utility.yul\":1453:1485   */\n      slt\n        /* \"#utility.yul\":1450:1569   */\n      iszero\n      tag_95\n      jumpi\n        /* \"#utility.yul\":1488:1567   */\n      tag_96\n      tag_54\n      jump\t// in\n    tag_96:\n        /* \"#utility.yul\":1450:1569   */\n    tag_95:\n        /* \"#utility.yul\":1608:1609   */\n      0x00\n        /* \"#utility.yul\":1633:1686   */\n      tag_97\n        /* \"#utility.yul\":1678:1685   */\n      dup5\n        /* \"#utility.yul\":1669:1675   */\n      dup3\n        /* \"#utility.yul\":1658:1667   */\n      dup6\n        /* \"#utility.yul\":1654:1676   */\n      add\n        /* \"#utility.yul\":1633:1686   */\n      tag_61\n      jump\t// in\n    tag_97:\n        /* \"#utility.yul\":1623:1686   */\n      swap2\n      pop\n        /* \"#utility.yul\":1579:1696   */\n      pop\n        /* \"#utility.yul\":1374:1703   */\n      swap3\n      swap2\n      pop\n      pop\n      jump\t// out\n        /* \"#utility.yul\":1709:1824   */\n    tag_62:\n        /* \"#utility.yul\":1794:1817   */\n      tag_99\n        /* \"#utility.yul\":1811:1816   */\n      dup2\n        /* \"#utility.yul\":1794:1817   */\n      tag_56\n      jump\t// in\n    tag_99:\n        /* \"#utility.yul\":1789:1792   */\n      dup3\n        /* \"#utility.yul\":1782:1818   */\n      mstore\n        /* \"#utility.yul\":1709:1824   */\n      pop\n      pop\n      jump\t// out\n        /* \"#utility.yul\":1830:2048   */\n    tag_16:\n        /* \"#utility.yul\":1921:1925   */\n      0x00\n        /* \"#utility.yul\":1959:1961   */\n      0x20\n        /* \"#utility.yul\":1948:1957   */\n      dup3\n        /* \"#utility.yul\":1944:1962   */\n      add\n        /* \"#utility.yul\":1936:1962   */\n      swap1\n      pop\n        /* \"#utility.yul\":1972:2041   */\n      tag_101\n        /* \"#utility.yul\":2038:2039   */\n      0x00\n        /* \"#utility.yul\":2027:2036   */\n      dup4\n        /* \"#utility.yul\":2023:2040   */\n      add\n        /* \"#utility.yul\":2014:2020   */\n      dup5\n        /* \"#utility.yul\":1972:2041   */\n      tag_62\n      jump\t// in\n    tag_101:\n        /* \"#utility.yul\":1830:2048   */\n      swap3\n      swap2\n      pop\n      pop\n      jump\t// out\n        /* \"#utility.yul\":2054:2167   */\n    tag_63:\n        /* \"#utility.yul\":2120:2126   */\n      0x00\n        /* \"#utility.yul\":2154:2159   */\n      dup2\n        /* \"#utility.yul\":2148:2160   */\n      mload\n        /* \"#utility.yul\":2138:2160   */\n      swap1\n      pop\n        /* \"#utility.yul\":2054:2167   */\n      swap2\n      swap1\n      pop\n      jump\t// out\n        /* \"#utility.yul\":2173:2356   */\n    tag_64:\n        /* \"#utility.yul\":2271:2282   */\n      0x00\n        /* \"#utility.yul\":2305:2311   */\n      dup3\n        /* \"#utility.yul\":2300:2303   */\n      dup3\n        /* \"#utility.yul\":2293:2312   */\n      mstore\n        /* \"#utility.yul\":2345:2349   */\n      0x20\n        /* \"#utility.yul\":2340:2343   */\n      dup3\n        /* \"#utility.yul\":2336:2350   */\n      add\n        /* \"#utility.yul\":2321:2350   */\n      swap1\n      pop\n        /* \"#utility.yul\":2173:2356   */\n      swap3\n      swap2\n      pop\n      pop\n      jump\t// out\n        /* \"#utility.yul\":2362:2493   */\n    tag_65:\n        /* \"#utility.yul\":2428:2432   */\n      0x00\n        /* \"#utility.yul\":2451:2454   */\n      dup2\n        /* \"#utility.yul\":2443:2454   */\n      swap1\n      pop\n        /* \"#utility.yul\":2481:2485   */\n      0x20\n        /* \"#utility.yul\":2476:2479   */\n      dup3\n        /* \"#utility.yul\":2472:2486   */\n      add\n        /* \"#utility.yul\":2464:2486   */\n      swap1\n      pop\n        /* \"#utility.yul\":2362:2493   */\n      swap2\n      swap1\n      pop\n      jump\t// out\n        /* \"#utility.yul\":2499:2604   */\n    tag_66:\n        /* \"#utility.yul\":2574:2597   */\n      tag_106\n        /* \"#utility.yul\":2591:2596   */\n      dup2\n        /* \"#utility.yul\":2574:2597   */\n      tag_56\n      jump\t// in\n    tag_106:\n        /* \"#utility.yul\":2569:2572   */\n      dup3\n        /* \"#utility.yul\":2562:2598   */\n      mstore\n        /* \"#utility.yul\":2499:2604   */\n      pop\n      pop\n      jump\t// out\n        /* \"#utility.yul\":2610:2785   */\n    tag_67:\n        /* \"#utility.yul\":2677:2687   */\n      0x00\n        /* \"#utility.yul\":2698:2742   */\n      tag_108\n        /* \"#utility.yul\":2738:2741   */\n      dup4\n        /* \"#utility.yul\":2730:2736   */\n      dup4\n        /* \"#utility.yul\":2698:2742   */\n      tag_66\n      jump\t// in\n    tag_108:\n        /* \"#utility.yul\":2774:2778   */\n      0x20\n        /* \"#utility.yul\":2769:2772   */\n      dup4\n        /* \"#utility.yul\":2765:2779   */\n      add\n        /* \"#utility.yul\":2751:2779   */\n      swap1\n      pop\n        /* \"#utility.yul\":2610:2785   */\n      swap3\n      swap2\n      pop\n      pop\n      jump\t// out\n        /* \"#utility.yul\":2791:2903   */\n    tag_68:\n        /* \"#utility.yul\":2860:2864   */\n      0x00\n        /* \"#utility.yul\":2892:2896   */\n      0x20\n        /* \"#utility.yul\":2887:2890   */\n      dup3\n        /* \"#utility.yul\":2883:2897   */\n      add\n        /* \"#utility.yul\":2875:2897   */\n      swap1\n      pop\n        /* \"#utility.yul\":2791:2903   */\n      swap2\n      swap1\n      pop\n      jump\t// out\n        /* \"#utility.yul\":2937:3661   */\n    tag_69:\n        /* \"#utility.yul\":3054:3057   */\n      0x00\n        /* \"#utility.yul\":3083:3136   */\n      tag_111\n        /* \"#utility.yul\":3130:3135   */\n      dup3\n        /* \"#utility.yul\":3083:3136   */\n      tag_63\n      jump\t// in\n    tag_111:\n        /* \"#utility.yul\":3152:3237   */\n      tag_112\n        /* \"#utility.yul\":3230:3236   */\n      dup2\n        /* \"#utility.yul\":3225:3228   */\n      dup6\n        /* \"#utility.yul\":3152:3237   */\n      tag_64\n      jump\t// in\n    tag_112:\n        /* \"#utility.yul\":3145:3237   */\n      swap4\n      pop\n        /* \"#utility.yul\":3261:3316   */\n      tag_113\n        /* \"#utility.yul\":3310:3315   */\n      dup4\n        /* \"#utility.yul\":3261:3316   */\n      tag_65\n      jump\t// in\n    tag_113:\n        /* \"#utility.yul\":3339:3346   */\n      dup1\n        /* \"#utility.yul\":3370:3371   */\n      0x00\n        /* \"#utility.yul\":3355:3636   */\n    tag_114:\n        /* \"#utility.yul\":3380:3386   */\n      dup4\n        /* \"#utility.yul\":3377:3378   */\n      dup2\n        /* \"#utility.yul\":3374:3387   */\n      lt\n        /* \"#utility.yul\":3355:3636   */\n      iszero\n      tag_116\n      jumpi\n        /* \"#utility.yul\":3456:3462   */\n      dup2\n        /* \"#utility.yul\":3450:3463   */\n      mload\n        /* \"#utility.yul\":3483:3544   */\n      tag_117\n        /* \"#utility.yul\":3540:3543   */\n      dup9\n        /* \"#utility.yul\":3525:3538   */\n      dup3\n        /* \"#utility.yul\":3483:3544   */\n      tag_67\n      jump\t// in\n    tag_117:\n        /* \"#utility.yul\":3476:3544   */\n      swap8\n      pop\n        /* \"#utility.yul\":3567:3626   */\n      tag_118\n        /* \"#utility.yul\":3619:3625   */\n      dup4\n        /* \"#utility.yul\":3567:3626   */\n      tag_68\n      jump\t// in\n    tag_118:\n        /* \"#utility.yul\":3557:3626   */\n      swap3\n      pop\n        /* \"#utility.yul\":3415:3636   */\n      pop\n        /* \"#utility.yul\":3402:3403   */\n      0x01\n        /* \"#utility.yul\":3399:3400   */\n      dup2\n        /* \"#utility.yul\":3395:3404   */\n      add\n        /* \"#utility.yul\":3390:3404   */\n      swap1\n      pop\n        /* \"#utility.yul\":3355:3636   */\n      jump(tag_114)\n    tag_116:\n        /* \"#utility.yul\":3359:3373   */\n      pop\n        /* \"#utility.yul\":3652:3655   */\n      dup6\n        /* \"#utility.yul\":3645:3655   */\n      swap4\n      pop\n        /* \"#utility.yul\":3059:3661   */\n      pop\n      pop\n      pop\n        /* \"#utility.yul\":2937:3661   */\n      swap3\n      swap2\n      pop\n      pop\n      jump\t// out\n        /* \"#utility.yul\":3667:4036   */\n    tag_23:\n        /* \"#utility.yul\":3808:3812   */\n      0x00\n        /* \"#utility.yul\":3846:3848   */\n      0x20\n        /* \"#utility.yul\":3835:3844   */\n      dup3\n        /* \"#utility.yul\":3831:3849   */\n      add\n        /* \"#utility.yul\":3823:3849   */\n      swap1\n      pop\n        /* \"#utility.yul\":3895:3904   */\n      dup2\n        /* \"#utility.yul\":3889:3893   */\n      dup2\n        /* \"#utility.yul\":3885:3905   */\n      sub\n        /* \"#utility.yul\":3881:3882   */\n      0x00\n        /* \"#utility.yul\":3870:3879   */\n      dup4\n        /* \"#utility.yul\":3866:3883   */\n      add\n        /* \"#utility.yul\":3859:3906   */\n      mstore\n        /* \"#utility.yul\":3923:4029   */\n      tag_120\n        /* \"#utility.yul\":4024:4028   */\n      dup2\n        /* \"#utility.yul\":4015:4021   */\n      dup5\n        /* \"#utility.yul\":3923:4029   */\n      tag_69\n      jump\t// in\n    tag_120:\n        /* \"#utility.yul\":3915:4029   */\n      swap1\n      pop\n        /* \"#utility.yul\":3667:4036   */\n      swap3\n      swap2\n      pop\n      pop\n      jump\t// out\n        /* \"#utility.yul\":4042:4211   */\n    tag_70:\n        /* \"#utility.yul\":4126:4137   */\n      0x00\n        /* \"#utility.yul\":4160:4166   */\n      dup3\n        /* \"#utility.yul\":4155:4158   */\n      dup3\n        /* \"#utility.yul\":4148:4167   */\n      mstore\n        /* \"#utility.yul\":4200:4204   */\n      0x20\n        /* \"#utility.yul\":4195:4198   */\n      dup3\n        /* \"#utility.yul\":4191:4205   */\n      add\n        /* \"#utility.yul\":4176:4205   */\n      swap1\n      pop\n        /* \"#utility.yul\":4042:4211   */\n      swap3\n      swap2\n      pop\n      pop\n      jump\t// out\n        /* \"#utility.yul\":4217:4386   */\n    tag_71:\n        /* \"#utility.yul\":4357:4378   */\n      0x496e646578206f7574206f6620626f756e647300000000000000000000000000\n        /* \"#utility.yul\":4353:4354   */\n      0x00\n        /* \"#utility.yul\":4345:4351   */\n      dup3\n        /* \"#utility.yul\":4341:4355   */\n      add\n        /* \"#utility.yul\":4334:4379   */\n      mstore\n        /* \"#utility.yul\":4217:4386   */\n      pop\n      jump\t// out\n        /* \"#utility.yul\":4392:4758   */\n    tag_72:\n        /* \"#utility.yul\":4534:4537   */\n      0x00\n        /* \"#utility.yul\":4555:4622   */\n      tag_124\n        /* \"#utility.yul\":4619:4621   */\n      0x13\n        /* \"#utility.yul\":4614:4617   */\n      dup4\n        /* \"#utility.yul\":4555:4622   */\n      tag_70\n      jump\t// in\n    tag_124:\n        /* \"#utility.yul\":4548:4622   */\n      swap2\n      pop\n        /* \"#utility.yul\":4631:4724   */\n      tag_125\n        /* \"#utility.yul\":4720:4723   */\n      dup3\n        /* \"#utility.yul\":4631:4724   */\n      tag_71\n      jump\t// in\n    tag_125:\n        /* \"#utility.yul\":4749:4751   */\n      0x20\n        /* \"#utility.yul\":4744:4747   */\n      dup3\n        /* \"#utility.yul\":4740:4752   */\n      add\n        /* \"#utility.yul\":4733:4752   */\n      swap1\n      pop\n        /* \"#utility.yul\":4392:4758   */\n      swap2\n      swap1\n      pop\n      jump\t// out\n        /* \"#utility.yul\":4764:5183   */\n    tag_31:\n        /* \"#utility.yul\":4930:4934   */\n      0x00\n        /* \"#utility.yul\":4968:4970   */\n      0x20\n        /* \"#utility.yul\":4957:4966   */\n      dup3\n        /* \"#utility.yul\":4953:4971   */\n      add\n        /* \"#utility.yul\":4945:4971   */\n      swap1\n      pop\n        /* \"#utility.yul\":5017:5026   */\n      dup2\n        /* \"#utility.yul\":5011:5015   */\n      dup2\n        /* \"#utility.yul\":5007:5027   */\n      sub\n        /* \"#utility.yul\":5003:5004   */\n      0x00\n        /* \"#utility.yul\":4992:5001   */\n      dup4\n        /* \"#utility.yul\":4988:5005   */\n      add\n        /* \"#utility.yul\":4981:5028   */\n      mstore\n        /* \"#utility.yul\":5045:5176   */\n      tag_127\n        /* \"#utility.yul\":5171:5175   */\n      dup2\n        /* \"#utility.yul\":5045:5176   */\n      tag_72\n      jump\t// in\n    tag_127:\n        /* \"#utility.yul\":5037:5176   */\n      swap1\n      pop\n        /* \"#utility.yul\":4764:5183   */\n      swap2\n      swap1\n      pop\n      jump\t// out\n        /* \"#utility.yul\":5189:5369   */\n    tag_73:\n        /* \"#utility.yul\":5237:5314   */\n      0x4e487b7100000000000000000000000000000000000000000000000000000000\n        /* \"#utility.yul\":5234:5235   */\n      0x00\n        /* \"#utility.yul\":5227:5315   */\n      mstore\n        /* \"#utility.yul\":5334:5338   */\n      0x11\n        /* \"#utility.yul\":5331:5332   */\n      0x04\n        /* \"#utility.yul\":5324:5339   */\n      mstore\n        /* \"#utility.yul\":5358:5362   */\n      0x24\n        /* \"#utility.yul\":5355:5356   */\n      0x00\n        /* \"#utility.yul\":5348:5363   */\n      revert\n        /* \"#utility.yul\":5375:5569   */\n    tag_36:\n        /* \"#utility.yul\":5415:5419   */\n      0x00\n        /* \"#utility.yul\":5435:5455   */\n      tag_130\n        /* \"#utility.yul\":5453:5454   */\n      dup3\n        /* \"#utility.yul\":5435:5455   */\n      tag_59\n      jump\t// in\n    tag_130:\n        /* \"#utility.yul\":5430:5455   */\n      swap2\n      pop\n        /* \"#utility.yul\":5469:5489   */\n      tag_131\n        /* \"#utility.yul\":5487:5488   */\n      dup4\n        /* \"#utility.yul\":5469:5489   */\n      tag_59\n      jump\t// in\n    tag_131:\n        /* \"#utility.yul\":5464:5489   */\n      swap3\n      pop\n        /* \"#utility.yul\":5513:5514   */\n      dup3\n        /* \"#utility.yul\":5510:5511   */\n      dup3\n        /* \"#utility.yul\":5506:5515   */\n      sub\n        /* \"#utility.yul\":5498:5515   */\n      swap1\n      pop\n        /* \"#utility.yul\":5537:5538   */\n      dup2\n        /* \"#utility.yul\":5531:5535   */\n      dup2\n        /* \"#utility.yul\":5528:5539   */\n      gt\n        /* \"#utility.yul\":5525:5562   */\n      iszero\n      tag_132\n      jumpi\n        /* \"#utility.yul\":5542:5560   */\n      tag_133\n      tag_73\n      jump\t// in\n    tag_133:\n        /* \"#utility.yul\":5525:5562   */\n    tag_132:\n        /* \"#utility.yul\":5375:5569   */\n      swap3\n      swap2\n      pop\n      pop\n      jump\t// out\n        /* \"#utility.yul\":5575:5766   */\n    tag_38:\n        /* \"#utility.yul\":5615:5618   */\n      0x00\n        /* \"#utility.yul\":5634:5654   */\n      tag_135\n        /* \"#utility.yul\":5652:5653   */\n      dup3\n        /* \"#utility.yul\":5634:5654   */\n      tag_59\n      jump\t// in\n    tag_135:\n        /* \"#utility.yul\":5629:5654   */\n      swap2\n      pop\n        /* \"#utility.yul\":5668:5688   */\n      tag_136\n        /* \"#utility.yul\":5686:5687   */\n      dup4\n        /* \"#utility.yul\":5668:5688   */\n      tag_59\n      jump\t// in\n    tag_136:\n        /* \"#utility.yul\":5663:5688   */\n      swap3\n      pop\n        /* \"#utility.yul\":5711:5712   */\n      dup3\n        /* \"#utility.yul\":5708:5709   */\n      dup3\n        /* \"#utility.yul\":5704:5713   */\n      add\n        /* \"#utility.yul\":5697:5713   */\n      swap1\n      pop\n        /* \"#utility.yul\":5732:5735   */\n      dup1\n        /* \"#utility.yul\":5729:5730   */\n      dup3\n        /* \"#utility.yul\":5726:5736   */\n      gt\n        /* \"#utility.yul\":5723:5759   */\n      iszero\n      tag_137\n      jumpi\n        /* \"#utility.yul\":5739:5757   */\n      tag_138\n      tag_73\n      jump\t// in\n    tag_138:\n        /* \"#utility.yul\":5723:5759   */\n    tag_137:\n        /* \"#utility.yul\":5575:5766   */\n      swap3\n      swap2\n      pop\n      pop\n      jump\t// out\n        /* \"#utility.yul\":5772:5952   */\n    tag_41:\n        /* \"#utility.yul\":5820:5897   */\n      0x4e487b7100000000000000000000000000000000000000000000000000000000\n        /* \"#utility.yul\":5817:5818   */\n      0x00\n        /* \"#utility.yul\":5810:5898   */\n      mstore\n        /* \"#utility.yul\":5917:5921   */\n      0x32\n        /* \"#utility.yul\":5914:5915   */\n      0x04\n        /* \"#utility.yul\":5907:5922   */\n      mstore\n        /* \"#utility.yul\":5941:5945   */\n      0x24\n        /* \"#utility.yul\":5938:5939   */\n      0x00\n        /* \"#utility.yul\":5931:5946   */\n      revert\n        /* \"#utility.yul\":5958:6138   */\n    tag_48:\n        /* \"#utility.yul\":6006:6083   */\n      0x4e487b7100000000000000000000000000000000000000000000000000000000\n        /* \"#utility.yul\":6003:6004   */\n      0x00\n        /* \"#utility.yul\":5996:6084   */\n      mstore\n        /* \"#utility.yul\":6103:6107   */\n      0x31\n        /* \"#utility.yul\":6100:6101   */\n      0x04\n        /* \"#utility.yul\":6093:6108   */\n      mstore\n        /* \"#utility.yul\":6127:6131   */\n      0x24\n        /* \"#utility.yul\":6124:6125   */\n      0x00\n        /* \"#utility.yul\":6117:6132   */\n      revert\n\n    auxdata: 0xa2646970667358221220bdaff31829c2fc4b9e028387d8ed09769b2eee02d02a2b1108395f751a2e7bdc64736f6c634300081a0033\n}\n",
				"bytecode": {
					"linkReferences": {},
					"object": "6080604052348015600e575f80fd5b506105a98061001c5f395ff3fe608060405234801561000f575f80fd5b506004361061004a575f3560e01c80630bdc13ed1461004e57806338d941931461006a578063792de6f31461009a578063d504ea1d146100b6575b5f80fd5b61006860048036038101906100639190610286565b6100d4565b005b610084600480360381019061007f91906102e4565b6100fc565b604051610091919061031e565b60405180910390f35b6100b460048036038101906100af91906102e4565b61011b565b005b6100be6101fa565b6040516100cb91906103ee565b60405180910390f35b5f81908060018154018082558091505060019003905f5260205f20015f909190919091505550565b5f818154811061010a575f80fd5b905f5260205f20015f915090505481565b5f805490508110610161576040517f08c379a000000000000000000000000000000000000000000000000000000000815260040161015890610468565b60405180910390fd5b5f8190505b60015f8054905061017791906104b3565b8110156101d2575f60018261018c91906104e6565b8154811061019d5761019c610519565b5b905f5260205f2001545f82815481106101b9576101b8610519565b5b905f5260205f2001819055508080600101915050610166565b505f8054806101e4576101e3610546565b5b600190038181905f5260205f20015f9055905550565b60605f80548060200260200160405190810160405280929190818152602001828054801561024557602002820191905f5260205f20905b815481526020019060010190808311610231575b5050505050905090565b5f80fd5b5f819050919050565b61026581610253565b811461026f575f80fd5b50565b5f813590506102808161025c565b92915050565b5f6020828403121561029b5761029a61024f565b5b5f6102a884828501610272565b91505092915050565b5f819050919050565b6102c3816102b1565b81146102cd575f80fd5b50565b5f813590506102de816102ba565b92915050565b5f602082840312156102f9576102f861024f565b5b5f610306848285016102d0565b91505092915050565b61031881610253565b82525050565b5f6020820190506103315f83018461030f565b92915050565b5f81519050919050565b5f82825260208201905092915050565b5f819050602082019050919050565b61036981610253565b82525050565b5f61037a8383610360565b60208301905092915050565b5f602082019050919050565b5f61039c82610337565b6103a68185610341565b93506103b183610351565b805f5b838110156103e15781516103c8888261036f565b97506103d383610386565b9250506001810190506103b4565b5085935050505092915050565b5f6020820190508181035f8301526104068184610392565b905092915050565b5f82825260208201905092915050565b7f496e646578206f7574206f6620626f756e6473000000000000000000000000005f82015250565b5f61045260138361040e565b915061045d8261041e565b602082019050919050565b5f6020820190508181035f83015261047f81610446565b9050919050565b7f4e487b71000000000000000000000000000000000000000000000000000000005f52601160045260245ffd5b5f6104bd826102b1565b91506104c8836102b1565b92508282039050818111156104e0576104df610486565b5b92915050565b5f6104f0826102b1565b91506104fb836102b1565b925082820190508082111561051357610512610486565b5b92915050565b7f4e487b71000000000000000000000000000000000000000000000000000000005f52603260045260245ffd5b7f4e487b71000000000000000000000000000000000000000000000000000000005f52603160045260245ffdfea2646970667358221220bdaff31829c2fc4b9e028387d8ed09769b2eee02d02a2b1108395f751a2e7bdc64736f6c634300081a0033",
					"opcodes": "PUSH1 0x80 PUSH1 0x40 MSTORE CALLVALUE DUP1 ISZERO PUSH1 0xE JUMPI PUSH0 DUP1 REVERT JUMPDEST POP PUSH2 0x5A9 DUP1 PUSH2 0x1C PUSH0 CODECOPY PUSH0 RETURN INVALID PUSH1 0x80 PUSH1 0x40 MSTORE CALLVALUE DUP1 ISZERO PUSH2 0xF JUMPI PUSH0 DUP1 REVERT JUMPDEST POP PUSH1 0x4 CALLDATASIZE LT PUSH2 0x4A JUMPI PUSH0 CALLDATALOAD PUSH1 0xE0 SHR DUP1 PUSH4 0xBDC13ED EQ PUSH2 0x4E JUMPI DUP1 PUSH4 0x38D94193 EQ PUSH2 0x6A JUMPI DUP1 PUSH4 0x792DE6F3 EQ PUSH2 0x9A JUMPI DUP1 PUSH4 0xD504EA1D EQ PUSH2 0xB6 JUMPI JUMPDEST PUSH0 DUP1 REVERT JUMPDEST PUSH2 0x68 PUSH1 0x4 DUP1 CALLDATASIZE SUB DUP2 ADD SWAP1 PUSH2 0x63 SWAP2 SWAP1 PUSH2 0x286 JUMP JUMPDEST PUSH2 0xD4 JUMP JUMPDEST STOP JUMPDEST PUSH2 0x84 PUSH1 0x4 DUP1 CALLDATASIZE SUB DUP2 ADD SWAP1 PUSH2 0x7F SWAP2 SWAP1 PUSH2 0x2E4 JUMP JUMPDEST PUSH2 0xFC JUMP JUMPDEST PUSH1 0x40 MLOAD PUSH2 0x91 SWAP2 SWAP1 PUSH2 0x31E JUMP JUMPDEST PUSH1 0x40 MLOAD DUP1 SWAP2 SUB SWAP1 RETURN JUMPDEST PUSH2 0xB4 PUSH1 0x4 DUP1 CALLDATASIZE SUB DUP2 ADD SWAP1 PUSH2 0xAF SWAP2 SWAP1 PUSH2 0x2E4 JUMP JUMPDEST PUSH2 0x11B JUMP JUMPDEST STOP JUMPDEST PUSH2 0xBE PUSH2 0x1FA JUMP JUMPDEST PUSH1 0x40 MLOAD PUSH2 0xCB SWAP2 SWAP1 PUSH2 0x3EE JUMP JUMPDEST PUSH1 0x40 MLOAD DUP1 SWAP2 SUB SWAP1 RETURN JUMPDEST PUSH0 DUP2 SWAP1 DUP1 PUSH1 0x1 DUP2 SLOAD ADD DUP1 DUP3 SSTORE DUP1 SWAP2 POP POP PUSH1 0x1 SWAP1 SUB SWAP1 PUSH0 MSTORE PUSH1 0x20 PUSH0 KECCAK256 ADD PUSH0 SWAP1 SWAP2 SWAP1 SWAP2 SWAP1 SWAP2 POP SSTORE POP JUMP JUMPDEST PUSH0 DUP2 DUP2 SLOAD DUP2 LT PUSH2 0x10A JUMPI PUSH0 DUP1 REVERT JUMPDEST SWAP1 PUSH0 MSTORE PUSH1 0x20 PUSH0 KECCAK256 ADD PUSH0 SWAP2 POP SWAP1 POP SLOAD DUP2 JUMP JUMPDEST PUSH0 DUP1 SLOAD SWAP1 POP DUP2 LT PUSH2 0x161 JUMPI PUSH1 0x40 MLOAD PUSH32 0x8C379A000000000000000000000000000000000000000000000000000000000 DUP2 MSTORE PUSH1 0x4 ADD PUSH2 0x158 SWAP1 PUSH2 0x468 JUMP JUMPDEST PUSH1 0x40 MLOAD DUP1 SWAP2 SUB SWAP1 REVERT JUMPDEST PUSH0 DUP2 SWAP1 POP JUMPDEST PUSH1 0x1 PUSH0 DUP1 SLOAD SWAP1 POP PUSH2 0x177 SWAP2 SWAP1 PUSH2 0x4B3 JUMP JUMPDEST DUP2 LT ISZERO PUSH2 0x1D2 JUMPI PUSH0 PUSH1 0x1 DUP3 PUSH2 0x18C SWAP2 SWAP1 PUSH2 0x4E6 JUMP JUMPDEST DUP2 SLOAD DUP2 LT PUSH2 0x19D JUMPI PUSH2 0x19C PUSH2 0x519 JUMP JUMPDEST JUMPDEST SWAP1 PUSH0 MSTORE PUSH1 0x20 PUSH0 KECCAK256 ADD SLOAD PUSH0 DUP3 DUP2 SLOAD DUP2 LT PUSH2 0x1B9 JUMPI PUSH2 0x1B8 PUSH2 0x519 JUMP JUMPDEST JUMPDEST SWAP1 PUSH0 MSTORE PUSH1 0x20 PUSH0 KECCAK256 ADD DUP2 SWAP1 SSTORE POP DUP1 DUP1 PUSH1 0x1 ADD SWAP2 POP POP PUSH2 0x166 JUMP JUMPDEST POP PUSH0 DUP1 SLOAD DUP1 PUSH2 0x1E4 JUMPI PUSH2 0x1E3 PUSH2 0x546 JUMP JUMPDEST JUMPDEST PUSH1 0x1 SWAP1 SUB DUP2 DUP2 SWAP1 PUSH0 MSTORE PUSH1 0x20 PUSH0 KECCAK256 ADD PUSH0 SWAP1 SSTORE SWAP1 SSTORE POP JUMP JUMPDEST PUSH1 0x60 PUSH0 DUP1 SLOAD DUP1 PUSH1 0x20 MUL PUSH1 0x20 ADD PUSH1 0x40 MLOAD SWAP1 DUP2 ADD PUSH1 0x40 MSTORE DUP1 SWAP3 SWAP2 SWAP1 DUP2 DUP2 MSTORE PUSH1 0x20 ADD DUP3 DUP1 SLOAD DUP1 ISZERO PUSH2 0x245 JUMPI PUSH1 0x20 MUL DUP3 ADD SWAP2 SWAP1 PUSH0 MSTORE PUSH1 0x20 PUSH0 KECCAK256 SWAP1 JUMPDEST DUP2 SLOAD DUP2 MSTORE PUSH1 0x20 ADD SWAP1 PUSH1 0x1 ADD SWAP1 DUP1 DUP4 GT PUSH2 0x231 JUMPI JUMPDEST POP POP POP POP POP SWAP1 POP SWAP1 JUMP JUMPDEST PUSH0 DUP1 REVERT JUMPDEST PUSH0 DUP2 SWAP1 POP SWAP2 SWAP1 POP JUMP JUMPDEST PUSH2 0x265 DUP2 PUSH2 0x253 JUMP JUMPDEST DUP2 EQ PUSH2 0x26F JUMPI PUSH0 DUP1 REVERT JUMPDEST POP JUMP JUMPDEST PUSH0 DUP2 CALLDATALOAD SWAP1 POP PUSH2 0x280 DUP2 PUSH2 0x25C JUMP JUMPDEST SWAP3 SWAP2 POP POP JUMP JUMPDEST PUSH0 PUSH1 0x20 DUP3 DUP5 SUB SLT ISZERO PUSH2 0x29B JUMPI PUSH2 0x29A PUSH2 0x24F JUMP JUMPDEST JUMPDEST PUSH0 PUSH2 0x2A8 DUP5 DUP3 DUP6 ADD PUSH2 0x272 JUMP JUMPDEST SWAP2 POP POP SWAP3 SWAP2 POP POP JUMP JUMPDEST PUSH0 DUP2 SWAP1 POP SWAP2 SWAP1 POP JUMP JUMPDEST PUSH2 0x2C3 DUP2 PUSH2 0x2B1 JUMP JUMPDEST DUP2 EQ PUSH2 0x2CD JUMPI PUSH0 DUP1 REVERT JUMPDEST POP JUMP JUMPDEST PUSH0 DUP2 CALLDATALOAD SWAP1 POP PUSH2 0x2DE DUP2 PUSH2 0x2BA JUMP JUMPDEST SWAP3 SWAP2 POP POP JUMP JUMPDEST PUSH0 PUSH1 0x20 DUP3 DUP5 SUB SLT ISZERO PUSH2 0x2F9 JUMPI PUSH2 0x2F8 PUSH2 0x24F JUMP JUMPDEST JUMPDEST PUSH0 PUSH2 0x306 DUP5 DUP3 DUP6 ADD PUSH2 0x2D0 JUMP JUMPDEST SWAP2 POP POP SWAP3 SWAP2 POP POP JUMP JUMPDEST PUSH2 0x318 DUP2 PUSH2 0x253 JUMP JUMPDEST DUP3 MSTORE POP POP JUMP JUMPDEST PUSH0 PUSH1 0x20 DUP3 ADD SWAP1 POP PUSH2 0x331 PUSH0 DUP4 ADD DUP5 PUSH2 0x30F JUMP JUMPDEST SWAP3 SWAP2 POP POP JUMP JUMPDEST PUSH0 DUP2 MLOAD SWAP1 POP SWAP2 SWAP1 POP JUMP JUMPDEST PUSH0 DUP3 DUP3 MSTORE PUSH1 0x20 DUP3 ADD SWAP1 POP SWAP3 SWAP2 POP POP JUMP JUMPDEST PUSH0 DUP2 SWAP1 POP PUSH1 0x20 DUP3 ADD SWAP1 POP SWAP2 SWAP1 POP JUMP JUMPDEST PUSH2 0x369 DUP2 PUSH2 0x253 JUMP JUMPDEST DUP3 MSTORE POP POP JUMP JUMPDEST PUSH0 PUSH2 0x37A DUP4 DUP4 PUSH2 0x360 JUMP JUMPDEST PUSH1 0x20 DUP4 ADD SWAP1 POP SWAP3 SWAP2 POP POP JUMP JUMPDEST PUSH0 PUSH1 0x20 DUP3 ADD SWAP1 POP SWAP2 SWAP1 POP JUMP JUMPDEST PUSH0 PUSH2 0x39C DUP3 PUSH2 0x337 JUMP JUMPDEST PUSH2 0x3A6 DUP2 DUP6 PUSH2 0x341 JUMP JUMPDEST SWAP4 POP PUSH2 0x3B1 DUP4 PUSH2 0x351 JUMP JUMPDEST DUP1 PUSH0 JUMPDEST DUP4 DUP2 LT ISZERO PUSH2 0x3E1 JUMPI DUP2 MLOAD PUSH2 0x3C8 DUP9 DUP3 PUSH2 0x36F JUMP JUMPDEST SWAP8 POP PUSH2 0x3D3 DUP4 PUSH2 0x386 JUMP JUMPDEST SWAP3 POP POP PUSH1 0x1 DUP2 ADD SWAP1 POP PUSH2 0x3B4 JUMP JUMPDEST POP DUP6 SWAP4 POP POP POP POP SWAP3 SWAP2 POP POP JUMP JUMPDEST PUSH0 PUSH1 0x20 DUP3 ADD SWAP1 POP DUP2 DUP2 SUB PUSH0 DUP4 ADD MSTORE PUSH2 0x406 DUP2 DUP5 PUSH2 0x392 JUMP JUMPDEST SWAP1 POP SWAP3 SWAP2 POP POP JUMP JUMPDEST PUSH0 DUP3 DUP3 MSTORE PUSH1 0x20 DUP3 ADD SWAP1 POP SWAP3 SWAP2 POP POP JUMP JUMPDEST PUSH32 0x496E646578206F7574206F6620626F756E647300000000000000000000000000 PUSH0 DUP3 ADD MSTORE POP JUMP JUMPDEST PUSH0 PUSH2 0x452 PUSH1 0x13 DUP4 PUSH2 0x40E JUMP JUMPDEST SWAP2 POP PUSH2 0x45D DUP3 PUSH2 0x41E JUMP JUMPDEST PUSH1 0x20 DUP3 ADD SWAP1 POP SWAP2 SWAP1 POP JUMP JUMPDEST PUSH0 PUSH1 0x20 DUP3 ADD SWAP1 POP DUP2 DUP2 SUB PUSH0 DUP4 ADD MSTORE PUSH2 0x47F DUP2 PUSH2 0x446 JUMP JUMPDEST SWAP1 POP SWAP2 SWAP1 POP JUMP JUMPDEST PUSH32 0x4E487B7100000000000000000000000000000000000000000000000000000000 PUSH0 MSTORE PUSH1 0x11 PUSH1 0x4 MSTORE PUSH1 0x24 PUSH0 REVERT JUMPDEST PUSH0 PUSH2 0x4BD DUP3 PUSH2 0x2B1 JUMP JUMPDEST SWAP2 POP PUSH2 0x4C8 DUP4 PUSH2 0x2B1 JUMP JUMPDEST SWAP3 POP DUP3 DUP3 SUB SWAP1 POP DUP2 DUP2 GT ISZERO PUSH2 0x4E0 JUMPI PUSH2 0x4DF PUSH2 0x486 JUMP JUMPDEST JUMPDEST SWAP3 SWAP2 POP POP JUMP JUMPDEST PUSH0 PUSH2 0x4F0 DUP3 PUSH2 0x2B1 JUMP JUMPDEST SWAP2 POP PUSH2 0x4FB DUP4 PUSH2 0x2B1 JUMP JUMPDEST SWAP3 POP DUP3 DUP3 ADD SWAP1 POP DUP1 DUP3 GT ISZERO PUSH2 0x513 JUMPI PUSH2 0x512 PUSH2 0x486 JUMP JUMPDEST JUMPDEST SWAP3 SWAP2 POP POP JUMP JUMPDEST PUSH32 0x4E487B7100000000000000000000000000000000000000000000000000000000 PUSH0 MSTORE PUSH1 0x32 PUSH1 0x4 MSTORE PUSH1 0x24 PUSH0 REVERT JUMPDEST PUSH32 0x4E487B7100000000000000000000000000000000000000000000000000000000 PUSH0 MSTORE PUSH1 0x31 PUSH1 0x4 MSTORE PUSH1 0x24 PUSH0 REVERT INVALID LOG2 PUSH5 0x6970667358 0x22 SLT KECCAK256 0xBD 0xAF RETURN XOR 0x29 0xC2 0xFC 0x4B SWAP15 MUL DUP4 DUP8 0xD8 0xED MULMOD PUSH23 0x9B2EEE02D02A2B1108395F751A2E7BDC64736F6C634300 ADDMOD BYTE STOP CALLER "
				},
				"gasEstimates": {
					"creation": {
						"codeDepositCost": "289800",
						"executionCost": "329",
						"totalCost": "290129"
					},
					"external": {
						"addElement(int256)": "46798",
						"array(uint256)": "4870",
						"deleteElement(uint256)": "infinite",
						"getArray()": "infinite"
					}
				},
				"methodIdentifiers": {
					"addElement(int256)": "0bdc13ed",
					"array(uint256)": "38d94193",
					"deleteElement(uint256)": "792de6f3",
					"getArray()": "d504ea1d"
				}
			},
			"storageLayout": {
				"storage": [
					{
						"astId": 4,
						"contract": "contracts/DAY05/p3.sol:ArrayOperations",
						"label": "array",
						"offset": 0,
						"slot": "0",
						"type": "t_array(t_int256)dyn_storage"
					}
				],
				"types": {
					"t_array(t_int256)dyn_storage": {
						"base": "t_int256",
						"encoding": "dynamic_array",
						"label": "int256[]",
						"numberOfBytes": "32"
					},
					"t_int256": {
						"encoding": "inplace",
						"label": "int256",
						"numberOfBytes": "32"
					}
				}
			},
			"userdoc": {
				"kind": "user",
				"methods": {},
				"version": 1
			}
		}
	}
}