{
	"contracts/DAY05/p2.sol": {
		"ArrayOperations": {
			"abi": [
				{
					"inputs": [
						{
							"internalType": "uint256",
							"name": "",
							"type": "uint256"
						}
					],
					"name": "array",
					"outputs": [
						{
							"internalType": "int256",
							"name": "",
							"type": "int256"
						}
					],
					"stateMutability": "view",
					"type": "function"
				},
				{
					"inputs": [],
					"name": "getArray",
					"outputs": [
						{
							"internalType": "int256[]",
							"name": "",
							"type": "int256[]"
						}
					],
					"stateMutability": "view",
					"type": "function"
				},
				{
					"inputs": [
						{
							"internalType": "uint256",
							"name": "index",
							"type": "uint256"
						},
						{
							"internalType": "int256",
							"name": "element",
							"type": "int256"
						}
					],
					"name": "insertElement",
					"outputs": [],
					"stateMutability": "nonpayable",
					"type": "function"
				}
			],
			"devdoc": {
				"kind": "dev",
				"methods": {},
				"version": 1
			},
			"evm": {
				"assembly": "    /* \"contracts/DAY05/p2.sol\":60:803  contract ArrayOperations {... */\n  mstore(0x40, 0x80)\n  callvalue\n  dup1\n  iszero\n  tag_1\n  jumpi\n  0x00\n  dup1\n  revert\ntag_1:\n  pop\n  dataSize(sub_0)\n  dup1\n  dataOffset(sub_0)\n  0x00\n  codecopy\n  0x00\n  return\nstop\n\nsub_0: assembly {\n        /* \"contracts/DAY05/p2.sol\":60:803  contract ArrayOperations {... */\n      mstore(0x40, 0x80)\n      callvalue\n      dup1\n      iszero\n      tag_1\n      jumpi\n      0x00\n      dup1\n      revert\n    tag_1:\n      pop\n      jumpi(tag_2, lt(calldatasize, 0x04))\n      shr(0xe0, calldataload(0x00))\n      dup1\n      0x154ff7ab\n      eq\n      tag_3\n      jumpi\n      dup1\n      0x38d94193\n      eq\n      tag_4\n      jumpi\n      dup1\n      0xd504ea1d\n      eq\n      tag_5\n      jumpi\n    tag_2:\n      0x00\n      dup1\n      revert\n        /* \"contracts/DAY05/p2.sol\":181:664  function insertElement(uint index, int element) public {... */\n    tag_3:\n      tag_6\n      0x04\n      dup1\n      calldatasize\n      sub\n      dup2\n      add\n      swap1\n      tag_7\n      swap2\n      swap1\n      tag_8\n      jump\t// in\n    tag_7:\n      tag_9\n      jump\t// in\n    tag_6:\n      stop\n        /* \"contracts/DAY05/p2.sol\":94:112  int[] public array */\n    tag_4:\n      tag_10\n      0x04\n      dup1\n      calldatasize\n      sub\n      dup2\n      add\n      swap1\n      tag_11\n      swap2\n      swap1\n      tag_12\n      jump\t// in\n    tag_11:\n      tag_13\n      jump\t// in\n    tag_10:\n      mload(0x40)\n      tag_14\n      swap2\n      swap1\n      tag_15\n      jump\t// in\n    tag_14:\n      mload(0x40)\n      dup1\n      swap2\n      sub\n      swap1\n      return\n        /* \"contracts/DAY05/p2.sol\":714:800  function getArray() public view returns (int[] memory) {... */\n    tag_5:\n      tag_16\n      tag_17\n      jump\t// in\n    tag_16:\n      mload(0x40)\n      tag_18\n      swap2\n      swap1\n      tag_19\n      jump\t// in\n    tag_18:\n      mload(0x40)\n      dup1\n      swap2\n      sub\n      swap1\n      return\n        /* \"contracts/DAY05/p2.sol\":181:664  function insertElement(uint index, int element) public {... */\n    tag_9:\n        /* \"contracts/DAY05/p2.sol\":264:269  array */\n      0x00\n        /* \"contracts/DAY05/p2.sol\":264:276  array.length */\n      dup1\n      sload\n      swap1\n      pop\n        /* \"contracts/DAY05/p2.sol\":255:260  index */\n      dup3\n        /* \"contracts/DAY05/p2.sol\":255:276  index <= array.length */\n      gt\n      iszero\n        /* \"contracts/DAY05/p2.sol\":247:300  require(index <= array.length, \"Index out of bounds\") */\n      tag_21\n      jumpi\n      mload(0x40)\n      0x08c379a000000000000000000000000000000000000000000000000000000000\n      dup2\n      mstore\n      0x04\n      add\n      tag_22\n      swap1\n      tag_23\n      jump\t// in\n    tag_22:\n      mload(0x40)\n      dup1\n      swap2\n      sub\n      swap1\n      revert\n    tag_21:\n        /* \"contracts/DAY05/p2.sol\":387:392  array */\n      0x00\n        /* \"contracts/DAY05/p2.sol\":398:399  0 */\n      dup1\n        /* \"contracts/DAY05/p2.sol\":387:400  array.push(0) */\n      dup1\n      0x01\n      dup2\n      sload\n      add\n      dup1\n      dup3\n      sstore\n      dup1\n      swap2\n      pop\n      pop\n      0x01\n      swap1\n      sub\n      swap1\n      0x00\n      mstore\n      keccak256(0x00, 0x20)\n      add\n      0x00\n      swap1\n      swap2\n      swap1\n      swap2\n      swap1\n      swap2\n      pop\n      sstore\n        /* \"contracts/DAY05/p2.sol\":449:455  uint i */\n      0x00\n        /* \"contracts/DAY05/p2.sol\":473:474  1 */\n      0x01\n        /* \"contracts/DAY05/p2.sol\":458:463  array */\n      0x00\n        /* \"contracts/DAY05/p2.sol\":458:470  array.length */\n      dup1\n      sload\n      swap1\n      pop\n        /* \"contracts/DAY05/p2.sol\":458:474  array.length - 1 */\n      tag_28\n      swap2\n      swap1\n      tag_29\n      jump\t// in\n    tag_28:\n        /* \"contracts/DAY05/p2.sol\":449:474  uint i = array.length - 1 */\n      swap1\n      pop\n        /* \"contracts/DAY05/p2.sol\":444:578  for (uint i = array.length - 1; i > index; i--) {... */\n    tag_25:\n        /* \"contracts/DAY05/p2.sol\":480:485  index */\n      dup3\n        /* \"contracts/DAY05/p2.sol\":476:477  i */\n      dup2\n        /* \"contracts/DAY05/p2.sol\":476:485  i > index */\n      gt\n        /* \"contracts/DAY05/p2.sol\":444:578  for (uint i = array.length - 1; i > index; i--) {... */\n      iszero\n      tag_26\n      jumpi\n        /* \"contracts/DAY05/p2.sol\":518:523  array */\n      0x00\n        /* \"contracts/DAY05/p2.sol\":528:529  1 */\n      0x01\n        /* \"contracts/DAY05/p2.sol\":524:525  i */\n      dup3\n        /* \"contracts/DAY05/p2.sol\":524:529  i - 1 */\n      tag_30\n      swap2\n      swap1\n      tag_29\n      jump\t// in\n    tag_30:\n        /* \"contracts/DAY05/p2.sol\":518:530  array[i - 1] */\n      dup2\n      sload\n      dup2\n      lt\n      tag_31\n      jumpi\n      tag_32\n      tag_33\n      jump\t// in\n    tag_32:\n    tag_31:\n      swap1\n      0x00\n      mstore\n      keccak256(0x00, 0x20)\n      add\n      sload\n        /* \"contracts/DAY05/p2.sol\":507:512  array */\n      0x00\n        /* \"contracts/DAY05/p2.sol\":513:514  i */\n      dup3\n        /* \"contracts/DAY05/p2.sol\":507:515  array[i] */\n      dup2\n      sload\n      dup2\n      lt\n      tag_35\n      jumpi\n      tag_36\n      tag_33\n      jump\t// in\n    tag_36:\n    tag_35:\n      swap1\n      0x00\n      mstore\n      keccak256(0x00, 0x20)\n      add\n        /* \"contracts/DAY05/p2.sol\":507:530  array[i] = array[i - 1] */\n      dup2\n      swap1\n      sstore\n      pop\n        /* \"contracts/DAY05/p2.sol\":487:490  i-- */\n      dup1\n      dup1\n      tag_38\n      swap1\n      tag_39\n      jump\t// in\n    tag_38:\n      swap2\n      pop\n      pop\n        /* \"contracts/DAY05/p2.sol\":444:578  for (uint i = array.length - 1; i > index; i--) {... */\n      jump(tag_25)\n    tag_26:\n      pop\n        /* \"contracts/DAY05/p2.sol\":603:610  element */\n      dup1\n        /* \"contracts/DAY05/p2.sol\":588:593  array */\n      0x00\n        /* \"contracts/DAY05/p2.sol\":594:599  index */\n      dup4\n        /* \"contracts/DAY05/p2.sol\":588:600  array[index] */\n      dup2\n      sload\n      dup2\n      lt\n      tag_40\n      jumpi\n      tag_41\n      tag_33\n      jump\t// in\n    tag_41:\n    tag_40:\n      swap1\n      0x00\n      mstore\n      keccak256(0x00, 0x20)\n      add\n        /* \"contracts/DAY05/p2.sol\":588:610  array[index] = element */\n      dup2\n      swap1\n      sstore\n      pop\n        /* \"contracts/DAY05/p2.sol\":181:664  function insertElement(uint index, int element) public {... */\n      pop\n      pop\n      jump\t// out\n        /* \"contracts/DAY05/p2.sol\":94:112  int[] public array */\n    tag_13:\n      0x00\n      dup2\n      dup2\n      sload\n      dup2\n      lt\n      tag_43\n      jumpi\n      0x00\n      dup1\n      revert\n    tag_43:\n      swap1\n      0x00\n      mstore\n      keccak256(0x00, 0x20)\n      add\n      0x00\n      swap2\n      pop\n      swap1\n      pop\n      sload\n      dup2\n      jump\t// out\n        /* \"contracts/DAY05/p2.sol\":714:800  function getArray() public view returns (int[] memory) {... */\n    tag_17:\n        /* \"contracts/DAY05/p2.sol\":755:767  int[] memory */\n      0x60\n        /* \"contracts/DAY05/p2.sol\":787:792  array */\n      0x00\n        /* \"contracts/DAY05/p2.sol\":780:792  return array */\n      dup1\n      sload\n      dup1\n      0x20\n      mul\n      0x20\n      add\n      mload(0x40)\n      swap1\n      dup2\n      add\n      0x40\n      mstore\n      dup1\n      swap3\n      swap2\n      swap1\n      dup2\n      dup2\n      mstore\n      0x20\n      add\n      dup3\n      dup1\n      sload\n      dup1\n      iszero\n      tag_46\n      jumpi\n      0x20\n      mul\n      dup3\n      add\n      swap2\n      swap1\n      0x00\n      mstore\n      keccak256(0x00, 0x20)\n      swap1\n    tag_47:\n      dup2\n      sload\n      dup2\n      mstore\n      0x20\n      add\n      swap1\n      0x01\n      add\n      swap1\n      dup1\n      dup4\n      gt\n      tag_47\n      jumpi\n    tag_46:\n      pop\n      pop\n      pop\n      pop\n      pop\n      swap1\n      pop\n        /* \"contracts/DAY05/p2.sol\":714:800  function getArray() public view returns (int[] memory) {... */\n      swap1\n      jump\t// out\n        /* \"#utility.yul\":88:205   */\n    tag_49:\n        /* \"#utility.yul\":197:198   */\n      0x00\n        /* \"#utility.yul\":194:195   */\n      dup1\n        /* \"#utility.yul\":187:199   */\n      revert\n        /* \"#utility.yul\":334:411   */\n    tag_51:\n        /* \"#utility.yul\":371:378   */\n      0x00\n        /* \"#utility.yul\":400:405   */\n      dup2\n        /* \"#utility.yul\":389:405   */\n      swap1\n      pop\n        /* \"#utility.yul\":334:411   */\n      swap2\n      swap1\n      pop\n      jump\t// out\n        /* \"#utility.yul\":417:539   */\n    tag_52:\n        /* \"#utility.yul\":490:514   */\n      tag_75\n        /* \"#utility.yul\":508:513   */\n      dup2\n        /* \"#utility.yul\":490:514   */\n      tag_51\n      jump\t// in\n    tag_75:\n        /* \"#utility.yul\":483:488   */\n      dup2\n        /* \"#utility.yul\":480:515   */\n      eq\n        /* \"#utility.yul\":470:533   */\n      tag_76\n      jumpi\n        /* \"#utility.yul\":529:530   */\n      0x00\n        /* \"#utility.yul\":526:527   */\n      dup1\n        /* \"#utility.yul\":519:531   */\n      revert\n        /* \"#utility.yul\":470:533   */\n    tag_76:\n        /* \"#utility.yul\":417:539   */\n      pop\n      jump\t// out\n        /* \"#utility.yul\":545:684   */\n    tag_53:\n        /* \"#utility.yul\":591:596   */\n      0x00\n        /* \"#utility.yul\":629:635   */\n      dup2\n        /* \"#utility.yul\":616:636   */\n      calldataload\n        /* \"#utility.yul\":607:636   */\n      swap1\n      pop\n        /* \"#utility.yul\":645:678   */\n      tag_78\n        /* \"#utility.yul\":672:677   */\n      dup2\n        /* \"#utility.yul\":645:678   */\n      tag_52\n      jump\t// in\n    tag_78:\n        /* \"#utility.yul\":545:684   */\n      swap3\n      swap2\n      pop\n      pop\n      jump\t// out\n        /* \"#utility.yul\":690:766   */\n    tag_54:\n        /* \"#utility.yul\":726:733   */\n      0x00\n        /* \"#utility.yul\":755:760   */\n      dup2\n        /* \"#utility.yul\":744:760   */\n      swap1\n      pop\n        /* \"#utility.yul\":690:766   */\n      swap2\n      swap1\n      pop\n      jump\t// out\n        /* \"#utility.yul\":772:892   */\n    tag_55:\n        /* \"#utility.yul\":844:867   */\n      tag_81\n        /* \"#utility.yul\":861:866   */\n      dup2\n        /* \"#utility.yul\":844:867   */\n      tag_54\n      jump\t// in\n    tag_81:\n        /* \"#utility.yul\":837:842   */\n      dup2\n        /* \"#utility.yul\":834:868   */\n      eq\n        /* \"#utility.yul\":824:886   */\n      tag_82\n      jumpi\n        /* \"#utility.yul\":882:883   */\n      0x00\n        /* \"#utility.yul\":879:880   */\n      dup1\n        /* \"#utility.yul\":872:884   */\n      revert\n        /* \"#utility.yul\":824:886   */\n    tag_82:\n        /* \"#utility.yul\":772:892   */\n      pop\n      jump\t// out\n        /* \"#utility.yul\":898:1035   */\n    tag_56:\n        /* \"#utility.yul\":943:948   */\n      0x00\n        /* \"#utility.yul\":981:987   */\n      dup2\n        /* \"#utility.yul\":968:988   */\n      calldataload\n        /* \"#utility.yul\":959:988   */\n      swap1\n      pop\n        /* \"#utility.yul\":997:1029   */\n      tag_84\n        /* \"#utility.yul\":1023:1028   */\n      dup2\n        /* \"#utility.yul\":997:1029   */\n      tag_55\n      jump\t// in\n    tag_84:\n        /* \"#utility.yul\":898:1035   */\n      swap3\n      swap2\n      pop\n      pop\n      jump\t// out\n        /* \"#utility.yul\":1041:1513   */\n    tag_8:\n        /* \"#utility.yul\":1108:1114   */\n      0x00\n        /* \"#utility.yul\":1116:1122   */\n      dup1\n        /* \"#utility.yul\":1165:1167   */\n      0x40\n        /* \"#utility.yul\":1153:1162   */\n      dup4\n        /* \"#utility.yul\":1144:1151   */\n      dup6\n        /* \"#utility.yul\":1140:1163   */\n      sub\n        /* \"#utility.yul\":1136:1168   */\n      slt\n        /* \"#utility.yul\":1133:1252   */\n      iszero\n      tag_86\n      jumpi\n        /* \"#utility.yul\":1171:1250   */\n      tag_87\n      tag_49\n      jump\t// in\n    tag_87:\n        /* \"#utility.yul\":1133:1252   */\n    tag_86:\n        /* \"#utility.yul\":1291:1292   */\n      0x00\n        /* \"#utility.yul\":1316:1369   */\n      tag_88\n        /* \"#utility.yul\":1361:1368   */\n      dup6\n        /* \"#utility.yul\":1352:1358   */\n      dup3\n        /* \"#utility.yul\":1341:1350   */\n      dup7\n        /* \"#utility.yul\":1337:1359   */\n      add\n        /* \"#utility.yul\":1316:1369   */\n      tag_53\n      jump\t// in\n    tag_88:\n        /* \"#utility.yul\":1306:1369   */\n      swap3\n      pop\n        /* \"#utility.yul\":1262:1379   */\n      pop\n        /* \"#utility.yul\":1418:1420   */\n      0x20\n        /* \"#utility.yul\":1444:1496   */\n      tag_89\n        /* \"#utility.yul\":1488:1495   */\n      dup6\n        /* \"#utility.yul\":1479:1485   */\n      dup3\n        /* \"#utility.yul\":1468:1477   */\n      dup7\n        /* \"#utility.yul\":1464:1486   */\n      add\n        /* \"#utility.yul\":1444:1496   */\n      tag_56\n      jump\t// in\n    tag_89:\n        /* \"#utility.yul\":1434:1496   */\n      swap2\n      pop\n        /* \"#utility.yul\":1389:1506   */\n      pop\n        /* \"#utility.yul\":1041:1513   */\n      swap3\n      pop\n      swap3\n      swap1\n      pop\n      jump\t// out\n        /* \"#utility.yul\":1519:1848   */\n    tag_12:\n        /* \"#utility.yul\":1578:1584   */\n      0x00\n        /* \"#utility.yul\":1627:1629   */\n      0x20\n        /* \"#utility.yul\":1615:1624   */\n      dup3\n        /* \"#utility.yul\":1606:1613   */\n      dup5\n        /* \"#utility.yul\":1602:1625   */\n      sub\n        /* \"#utility.yul\":1598:1630   */\n      slt\n        /* \"#utility.yul\":1595:1714   */\n      iszero\n      tag_91\n      jumpi\n        /* \"#utility.yul\":1633:1712   */\n      tag_92\n      tag_49\n      jump\t// in\n    tag_92:\n        /* \"#utility.yul\":1595:1714   */\n    tag_91:\n        /* \"#utility.yul\":1753:1754   */\n      0x00\n        /* \"#utility.yul\":1778:1831   */\n      tag_93\n        /* \"#utility.yul\":1823:1830   */\n      dup5\n        /* \"#utility.yul\":1814:1820   */\n      dup3\n        /* \"#utility.yul\":1803:1812   */\n      dup6\n        /* \"#utility.yul\":1799:1821   */\n      add\n        /* \"#utility.yul\":1778:1831   */\n      tag_53\n      jump\t// in\n    tag_93:\n        /* \"#utility.yul\":1768:1831   */\n      swap2\n      pop\n        /* \"#utility.yul\":1724:1841   */\n      pop\n        /* \"#utility.yul\":1519:1848   */\n      swap3\n      swap2\n      pop\n      pop\n      jump\t// out\n        /* \"#utility.yul\":1854:1969   */\n    tag_57:\n        /* \"#utility.yul\":1939:1962   */\n      tag_95\n        /* \"#utility.yul\":1956:1961   */\n      dup2\n        /* \"#utility.yul\":1939:1962   */\n      tag_54\n      jump\t// in\n    tag_95:\n        /* \"#utility.yul\":1934:1937   */\n      dup3\n        /* \"#utility.yul\":1927:1963   */\n      mstore\n        /* \"#utility.yul\":1854:1969   */\n      pop\n      pop\n      jump\t// out\n        /* \"#utility.yul\":1975:2193   */\n    tag_15:\n        /* \"#utility.yul\":2066:2070   */\n      0x00\n        /* \"#utility.yul\":2104:2106   */\n      0x20\n        /* \"#utility.yul\":2093:2102   */\n      dup3\n        /* \"#utility.yul\":2089:2107   */\n      add\n        /* \"#utility.yul\":2081:2107   */\n      swap1\n      pop\n        /* \"#utility.yul\":2117:2186   */\n      tag_97\n        /* \"#utility.yul\":2183:2184   */\n      0x00\n        /* \"#utility.yul\":2172:2181   */\n      dup4\n        /* \"#utility.yul\":2168:2185   */\n      add\n        /* \"#utility.yul\":2159:2165   */\n      dup5\n        /* \"#utility.yul\":2117:2186   */\n      tag_57\n      jump\t// in\n    tag_97:\n        /* \"#utility.yul\":1975:2193   */\n      swap3\n      swap2\n      pop\n      pop\n      jump\t// out\n        /* \"#utility.yul\":2199:2312   */\n    tag_58:\n        /* \"#utility.yul\":2265:2271   */\n      0x00\n        /* \"#utility.yul\":2299:2304   */\n      dup2\n        /* \"#utility.yul\":2293:2305   */\n      mload\n        /* \"#utility.yul\":2283:2305   */\n      swap1\n      pop\n        /* \"#utility.yul\":2199:2312   */\n      swap2\n      swap1\n      pop\n      jump\t// out\n        /* \"#utility.yul\":2318:2501   */\n    tag_59:\n        /* \"#utility.yul\":2416:2427   */\n      0x00\n        /* \"#utility.yul\":2450:2456   */\n      dup3\n        /* \"#utility.yul\":2445:2448   */\n      dup3\n        /* \"#utility.yul\":2438:2457   */\n      mstore\n        /* \"#utility.yul\":2490:2494   */\n      0x20\n        /* \"#utility.yul\":2485:2488   */\n      dup3\n        /* \"#utility.yul\":2481:2495   */\n      add\n        /* \"#utility.yul\":2466:2495   */\n      swap1\n      pop\n        /* \"#utility.yul\":2318:2501   */\n      swap3\n      swap2\n      pop\n      pop\n      jump\t// out\n        /* \"#utility.yul\":2507:2638   */\n    tag_60:\n        /* \"#utility.yul\":2573:2577   */\n      0x00\n        /* \"#utility.yul\":2596:2599   */\n      dup2\n        /* \"#utility.yul\":2588:2599   */\n      swap1\n      pop\n        /* \"#utility.yul\":2626:2630   */\n      0x20\n        /* \"#utility.yul\":2621:2624   */\n      dup3\n        /* \"#utility.yul\":2617:2631   */\n      add\n        /* \"#utility.yul\":2609:2631   */\n      swap1\n      pop\n        /* \"#utility.yul\":2507:2638   */\n      swap2\n      swap1\n      pop\n      jump\t// out\n        /* \"#utility.yul\":2644:2749   */\n    tag_61:\n        /* \"#utility.yul\":2719:2742   */\n      tag_102\n        /* \"#utility.yul\":2736:2741   */\n      dup2\n        /* \"#utility.yul\":2719:2742   */\n      tag_54\n      jump\t// in\n    tag_102:\n        /* \"#utility.yul\":2714:2717   */\n      dup3\n        /* \"#utility.yul\":2707:2743   */\n      mstore\n        /* \"#utility.yul\":2644:2749   */\n      pop\n      pop\n      jump\t// out\n        /* \"#utility.yul\":2755:2930   */\n    tag_62:\n        /* \"#utility.yul\":2822:2832   */\n      0x00\n        /* \"#utility.yul\":2843:2887   */\n      tag_104\n        /* \"#utility.yul\":2883:2886   */\n      dup4\n        /* \"#utility.yul\":2875:2881   */\n      dup4\n        /* \"#utility.yul\":2843:2887   */\n      tag_61\n      jump\t// in\n    tag_104:\n        /* \"#utility.yul\":2919:2923   */\n      0x20\n        /* \"#utility.yul\":2914:2917   */\n      dup4\n        /* \"#utility.yul\":2910:2924   */\n      add\n        /* \"#utility.yul\":2896:2924   */\n      swap1\n      pop\n        /* \"#utility.yul\":2755:2930   */\n      swap3\n      swap2\n      pop\n      pop\n      jump\t// out\n        /* \"#utility.yul\":2936:3048   */\n    tag_63:\n        /* \"#utility.yul\":3005:3009   */\n      0x00\n        /* \"#utility.yul\":3037:3041   */\n      0x20\n        /* \"#utility.yul\":3032:3035   */\n      dup3\n        /* \"#utility.yul\":3028:3042   */\n      add\n        /* \"#utility.yul\":3020:3042   */\n      swap1\n      pop\n        /* \"#utility.yul\":2936:3048   */\n      swap2\n      swap1\n      pop\n      jump\t// out\n        /* \"#utility.yul\":3082:3806   */\n    tag_64:\n        /* \"#utility.yul\":3199:3202   */\n      0x00\n        /* \"#utility.yul\":3228:3281   */\n      tag_107\n        /* \"#utility.yul\":3275:3280   */\n      dup3\n        /* \"#utility.yul\":3228:3281   */\n      tag_58\n      jump\t// in\n    tag_107:\n        /* \"#utility.yul\":3297:3382   */\n      tag_108\n        /* \"#utility.yul\":3375:3381   */\n      dup2\n        /* \"#utility.yul\":3370:3373   */\n      dup6\n        /* \"#utility.yul\":3297:3382   */\n      tag_59\n      jump\t// in\n    tag_108:\n        /* \"#utility.yul\":3290:3382   */\n      swap4\n      pop\n        /* \"#utility.yul\":3406:3461   */\n      tag_109\n        /* \"#utility.yul\":3455:3460   */\n      dup4\n        /* \"#utility.yul\":3406:3461   */\n      tag_60\n      jump\t// in\n    tag_109:\n        /* \"#utility.yul\":3484:3491   */\n      dup1\n        /* \"#utility.yul\":3515:3516   */\n      0x00\n        /* \"#utility.yul\":3500:3781   */\n    tag_110:\n        /* \"#utility.yul\":3525:3531   */\n      dup4\n        /* \"#utility.yul\":3522:3523   */\n      dup2\n        /* \"#utility.yul\":3519:3532   */\n      lt\n        /* \"#utility.yul\":3500:3781   */\n      iszero\n      tag_112\n      jumpi\n        /* \"#utility.yul\":3601:3607   */\n      dup2\n        /* \"#utility.yul\":3595:3608   */\n      mload\n        /* \"#utility.yul\":3628:3689   */\n      tag_113\n        /* \"#utility.yul\":3685:3688   */\n      dup9\n        /* \"#utility.yul\":3670:3683   */\n      dup3\n        /* \"#utility.yul\":3628:3689   */\n      tag_62\n      jump\t// in\n    tag_113:\n        /* \"#utility.yul\":3621:3689   */\n      swap8\n      pop\n        /* \"#utility.yul\":3712:3771   */\n      tag_114\n        /* \"#utility.yul\":3764:3770   */\n      dup4\n        /* \"#utility.yul\":3712:3771   */\n      tag_63\n      jump\t// in\n    tag_114:\n        /* \"#utility.yul\":3702:3771   */\n      swap3\n      pop\n        /* \"#utility.yul\":3560:3781   */\n      pop\n        /* \"#utility.yul\":3547:3548   */\n      0x01\n        /* \"#utility.yul\":3544:3545   */\n      dup2\n        /* \"#utility.yul\":3540:3549   */\n      add\n        /* \"#utility.yul\":3535:3549   */\n      swap1\n      pop\n        /* \"#utility.yul\":3500:3781   */\n      jump(tag_110)\n    tag_112:\n        /* \"#utility.yul\":3504:3518   */\n      pop\n        /* \"#utility.yul\":3797:3800   */\n      dup6\n        /* \"#utility.yul\":3790:3800   */\n      swap4\n      pop\n        /* \"#utility.yul\":3204:3806   */\n      pop\n      pop\n      pop\n        /* \"#utility.yul\":3082:3806   */\n      swap3\n      swap2\n      pop\n      pop\n      jump\t// out\n        /* \"#utility.yul\":3812:4181   */\n    tag_19:\n        /* \"#utility.yul\":3953:3957   */\n      0x00\n        /* \"#utility.yul\":3991:3993   */\n      0x20\n        /* \"#utility.yul\":3980:3989   */\n      dup3\n        /* \"#utility.yul\":3976:3994   */\n      add\n        /* \"#utility.yul\":3968:3994   */\n      swap1\n      pop\n        /* \"#utility.yul\":4040:4049   */\n      dup2\n        /* \"#utility.yul\":4034:4038   */\n      dup2\n        /* \"#utility.yul\":4030:4050   */\n      sub\n        /* \"#utility.yul\":4026:4027   */\n      0x00\n        /* \"#utility.yul\":4015:4024   */\n      dup4\n        /* \"#utility.yul\":4011:4028   */\n      add\n        /* \"#utility.yul\":4004:4051   */\n      mstore\n        /* \"#utility.yul\":4068:4174   */\n      tag_116\n        /* \"#utility.yul\":4169:4173   */\n      dup2\n        /* \"#utility.yul\":4160:4166   */\n      dup5\n        /* \"#utility.yul\":4068:4174   */\n      tag_64\n      jump\t// in\n    tag_116:\n        /* \"#utility.yul\":4060:4174   */\n      swap1\n      pop\n        /* \"#utility.yul\":3812:4181   */\n      swap3\n      swap2\n      pop\n      pop\n      jump\t// out\n        /* \"#utility.yul\":4187:4356   */\n    tag_65:\n        /* \"#utility.yul\":4271:4282   */\n      0x00\n        /* \"#utility.yul\":4305:4311   */\n      dup3\n        /* \"#utility.yul\":4300:4303   */\n      dup3\n        /* \"#utility.yul\":4293:4312   */\n      mstore\n        /* \"#utility.yul\":4345:4349   */\n      0x20\n        /* \"#utility.yul\":4340:4343   */\n      dup3\n        /* \"#utility.yul\":4336:4350   */\n      add\n        /* \"#utility.yul\":4321:4350   */\n      swap1\n      pop\n        /* \"#utility.yul\":4187:4356   */\n      swap3\n      swap2\n      pop\n      pop\n      jump\t// out\n        /* \"#utility.yul\":4362:4531   */\n    tag_66:\n        /* \"#utility.yul\":4502:4523   */\n      0x496e646578206f7574206f6620626f756e647300000000000000000000000000\n        /* \"#utility.yul\":4498:4499   */\n      0x00\n        /* \"#utility.yul\":4490:4496   */\n      dup3\n        /* \"#utility.yul\":4486:4500   */\n      add\n        /* \"#utility.yul\":4479:4524   */\n      mstore\n        /* \"#utility.yul\":4362:4531   */\n      pop\n      jump\t// out\n        /* \"#utility.yul\":4537:4903   */\n    tag_67:\n        /* \"#utility.yul\":4679:4682   */\n      0x00\n        /* \"#utility.yul\":4700:4767   */\n      tag_120\n        /* \"#utility.yul\":4764:4766   */\n      0x13\n        /* \"#utility.yul\":4759:4762   */\n      dup4\n        /* \"#utility.yul\":4700:4767   */\n      tag_65\n      jump\t// in\n    tag_120:\n        /* \"#utility.yul\":4693:4767   */\n      swap2\n      pop\n        /* \"#utility.yul\":4776:4869   */\n      tag_121\n        /* \"#utility.yul\":4865:4868   */\n      dup3\n        /* \"#utility.yul\":4776:4869   */\n      tag_66\n      jump\t// in\n    tag_121:\n        /* \"#utility.yul\":4894:4896   */\n      0x20\n        /* \"#utility.yul\":4889:4892   */\n      dup3\n        /* \"#utility.yul\":4885:4897   */\n      add\n        /* \"#utility.yul\":4878:4897   */\n      swap1\n      pop\n        /* \"#utility.yul\":4537:4903   */\n      swap2\n      swap1\n      pop\n      jump\t// out\n        /* \"#utility.yul\":4909:5328   */\n    tag_23:\n        /* \"#utility.yul\":5075:5079   */\n      0x00\n        /* \"#utility.yul\":5113:5115   */\n      0x20\n        /* \"#utility.yul\":5102:5111   */\n      dup3\n        /* \"#utility.yul\":5098:5116   */\n      add\n        /* \"#utility.yul\":5090:5116   */\n      swap1\n      pop\n        /* \"#utility.yul\":5162:5171   */\n      dup2\n        /* \"#utility.yul\":5156:5160   */\n      dup2\n        /* \"#utility.yul\":5152:5172   */\n      sub\n        /* \"#utility.yul\":5148:5149   */\n      0x00\n        /* \"#utility.yul\":5137:5146   */\n      dup4\n        /* \"#utility.yul\":5133:5150   */\n      add\n        /* \"#utility.yul\":5126:5173   */\n      mstore\n        /* \"#utility.yul\":5190:5321   */\n      tag_123\n        /* \"#utility.yul\":5316:5320   */\n      dup2\n        /* \"#utility.yul\":5190:5321   */\n      tag_67\n      jump\t// in\n    tag_123:\n        /* \"#utility.yul\":5182:5321   */\n      swap1\n      pop\n        /* \"#utility.yul\":4909:5328   */\n      swap2\n      swap1\n      pop\n      jump\t// out\n        /* \"#utility.yul\":5334:5514   */\n    tag_68:\n        /* \"#utility.yul\":5382:5459   */\n      0x4e487b7100000000000000000000000000000000000000000000000000000000\n        /* \"#utility.yul\":5379:5380   */\n      0x00\n        /* \"#utility.yul\":5372:5460   */\n      mstore\n        /* \"#utility.yul\":5479:5483   */\n      0x11\n        /* \"#utility.yul\":5476:5477   */\n      0x04\n        /* \"#utility.yul\":5469:5484   */\n      mstore\n        /* \"#utility.yul\":5503:5507   */\n      0x24\n        /* \"#utility.yul\":5500:5501   */\n      0x00\n        /* \"#utility.yul\":5493:5508   */\n      revert\n        /* \"#utility.yul\":5520:5714   */\n    tag_29:\n        /* \"#utility.yul\":5560:5564   */\n      0x00\n        /* \"#utility.yul\":5580:5600   */\n      tag_126\n        /* \"#utility.yul\":5598:5599   */\n      dup3\n        /* \"#utility.yul\":5580:5600   */\n      tag_51\n      jump\t// in\n    tag_126:\n        /* \"#utility.yul\":5575:5600   */\n      swap2\n      pop\n        /* \"#utility.yul\":5614:5634   */\n      tag_127\n        /* \"#utility.yul\":5632:5633   */\n      dup4\n        /* \"#utility.yul\":5614:5634   */\n      tag_51\n      jump\t// in\n    tag_127:\n        /* \"#utility.yul\":5609:5634   */\n      swap3\n      pop\n        /* \"#utility.yul\":5658:5659   */\n      dup3\n        /* \"#utility.yul\":5655:5656   */\n      dup3\n        /* \"#utility.yul\":5651:5660   */\n      sub\n        /* \"#utility.yul\":5643:5660   */\n      swap1\n      pop\n        /* \"#utility.yul\":5682:5683   */\n      dup2\n        /* \"#utility.yul\":5676:5680   */\n      dup2\n        /* \"#utility.yul\":5673:5684   */\n      gt\n        /* \"#utility.yul\":5670:5707   */\n      iszero\n      tag_128\n      jumpi\n        /* \"#utility.yul\":5687:5705   */\n      tag_129\n      tag_68\n      jump\t// in\n    tag_129:\n        /* \"#utility.yul\":5670:5707   */\n    tag_128:\n        /* \"#utility.yul\":5520:5714   */\n      swap3\n      swap2\n      pop\n      pop\n      jump\t// out\n        /* \"#utility.yul\":5720:5900   */\n    tag_33:\n        /* \"#utility.yul\":5768:5845   */\n      0x4e487b7100000000000000000000000000000000000000000000000000000000\n        /* \"#utility.yul\":5765:5766   */\n      0x00\n        /* \"#utility.yul\":5758:5846   */\n      mstore\n        /* \"#utility.yul\":5865:5869   */\n      0x32\n        /* \"#utility.yul\":5862:5863   */\n      0x04\n        /* \"#utility.yul\":5855:5870   */\n      mstore\n        /* \"#utility.yul\":5889:5893   */\n      0x24\n        /* \"#utility.yul\":5886:5887   */\n      0x00\n        /* \"#utility.yul\":5879:5894   */\n      revert\n        /* \"#utility.yul\":5906:6077   */\n    tag_39:\n        /* \"#utility.yul\":5945:5948   */\n      0x00\n        /* \"#utility.yul\":5968:5992   */\n      tag_132\n        /* \"#utility.yul\":5986:5991   */\n      dup3\n        /* \"#utility.yul\":5968:5992   */\n      tag_51\n      jump\t// in\n    tag_132:\n        /* \"#utility.yul\":5959:5992   */\n      swap2\n      pop\n        /* \"#utility.yul\":6014:6018   */\n      0x00\n        /* \"#utility.yul\":6007:6012   */\n      dup3\n        /* \"#utility.yul\":6004:6019   */\n      sub\n        /* \"#utility.yul\":6001:6042   */\n      tag_133\n      jumpi\n        /* \"#utility.yul\":6022:6040   */\n      tag_134\n      tag_68\n      jump\t// in\n    tag_134:\n        /* \"#utility.yul\":6001:6042   */\n    tag_133:\n        /* \"#utility.yul\":6069:6070   */\n      0x01\n        /* \"#utility.yul\":6062:6067   */\n      dup3\n        /* \"#utility.yul\":6058:6071   */\n      sub\n        /* \"#utility.yul\":6051:6071   */\n      swap1\n      pop\n        /* \"#utility.yul\":5906:6077   */\n      swap2\n      swap1\n      pop\n      jump\t// out\n\n    auxdata: 0xa26469706673582212202a2cf475c7df67927b4ed513edeb11ba03e7d03231de7d03ad358f52f951f1cb64736f6c634300081a0033\n}\n",
				"bytecode": {
					"linkReferences": {},
					"object": "6080604052348015600e575f80fd5b5061055c8061001c5f395ff3fe608060405234801561000f575f80fd5b506004361061003f575f3560e01c8063154ff7ab1461004357806338d941931461005f578063d504ea1d1461008f575b5f80fd5b61005d60048036038101906100589190610292565b6100ad565b005b610079600480360381019061007491906102d0565b6101b4565b604051610086919061030a565b60405180910390f35b6100976101d3565b6040516100a491906103da565b60405180910390f35b5f805490508211156100f4576040517f08c379a00000000000000000000000000000000000000000000000000000000081526004016100eb90610454565b60405180910390fd5b5f808060018154018082558091505060019003905f5260205f20015f90919091909150555f60015f8054905061012a919061049f565b90505b8281111561018f575f600182610143919061049f565b81548110610154576101536104d2565b5b905f5260205f2001545f82815481106101705761016f6104d2565b5b905f5260205f2001819055508080610187906104ff565b91505061012d565b50805f83815481106101a4576101a36104d2565b5b905f5260205f2001819055505050565b5f81815481106101c2575f80fd5b905f5260205f20015f915090505481565b60605f80548060200260200160405190810160405280929190818152602001828054801561021e57602002820191905f5260205f20905b81548152602001906001019080831161020a575b5050505050905090565b5f80fd5b5f819050919050565b61023e8161022c565b8114610248575f80fd5b50565b5f8135905061025981610235565b92915050565b5f819050919050565b6102718161025f565b811461027b575f80fd5b50565b5f8135905061028c81610268565b92915050565b5f80604083850312156102a8576102a7610228565b5b5f6102b58582860161024b565b92505060206102c68582860161027e565b9150509250929050565b5f602082840312156102e5576102e4610228565b5b5f6102f28482850161024b565b91505092915050565b6103048161025f565b82525050565b5f60208201905061031d5f8301846102fb565b92915050565b5f81519050919050565b5f82825260208201905092915050565b5f819050602082019050919050565b6103558161025f565b82525050565b5f610366838361034c565b60208301905092915050565b5f602082019050919050565b5f61038882610323565b610392818561032d565b935061039d8361033d565b805f5b838110156103cd5781516103b4888261035b565b97506103bf83610372565b9250506001810190506103a0565b5085935050505092915050565b5f6020820190508181035f8301526103f2818461037e565b905092915050565b5f82825260208201905092915050565b7f496e646578206f7574206f6620626f756e6473000000000000000000000000005f82015250565b5f61043e6013836103fa565b91506104498261040a565b602082019050919050565b5f6020820190508181035f83015261046b81610432565b9050919050565b7f4e487b71000000000000000000000000000000000000000000000000000000005f52601160045260245ffd5b5f6104a98261022c565b91506104b48361022c565b92508282039050818111156104cc576104cb610472565b5b92915050565b7f4e487b71000000000000000000000000000000000000000000000000000000005f52603260045260245ffd5b5f6105098261022c565b91505f820361051b5761051a610472565b5b60018203905091905056fea26469706673582212202a2cf475c7df67927b4ed513edeb11ba03e7d03231de7d03ad358f52f951f1cb64736f6c634300081a0033",
					"opcodes": "PUSH1 0x80 PUSH1 0x40 MSTORE CALLVALUE DUP1 ISZERO PUSH1 0xE JUMPI PUSH0 DUP1 REVERT JUMPDEST POP PUSH2 0x55C DUP1 PUSH2 0x1C PUSH0 CODECOPY PUSH0 RETURN INVALID PUSH1 0x80 PUSH1 0x40 MSTORE CALLVALUE DUP1 ISZERO PUSH2 0xF JUMPI PUSH0 DUP1 REVERT JUMPDEST POP PUSH1 0x4 CALLDATASIZE LT PUSH2 0x3F JUMPI PUSH0 CALLDATALOAD PUSH1 0xE0 SHR DUP1 PUSH4 0x154FF7AB EQ PUSH2 0x43 JUMPI DUP1 PUSH4 0x38D94193 EQ PUSH2 0x5F JUMPI DUP1 PUSH4 0xD504EA1D EQ PUSH2 0x8F JUMPI JUMPDEST PUSH0 DUP1 REVERT JUMPDEST PUSH2 0x5D PUSH1 0x4 DUP1 CALLDATASIZE SUB DUP2 ADD SWAP1 PUSH2 0x58 SWAP2 SWAP1 PUSH2 0x292 JUMP JUMPDEST PUSH2 0xAD JUMP JUMPDEST STOP JUMPDEST PUSH2 0x79 PUSH1 0x4 DUP1 CALLDATASIZE SUB DUP2 ADD SWAP1 PUSH2 0x74 SWAP2 SWAP1 PUSH2 0x2D0 JUMP JUMPDEST PUSH2 0x1B4 JUMP JUMPDEST PUSH1 0x40 MLOAD PUSH2 0x86 SWAP2 SWAP1 PUSH2 0x30A JUMP JUMPDEST PUSH1 0x40 MLOAD DUP1 SWAP2 SUB SWAP1 RETURN JUMPDEST PUSH2 0x97 PUSH2 0x1D3 JUMP JUMPDEST PUSH1 0x40 MLOAD PUSH2 0xA4 SWAP2 SWAP1 PUSH2 0x3DA JUMP JUMPDEST PUSH1 0x40 MLOAD DUP1 SWAP2 SUB SWAP1 RETURN JUMPDEST PUSH0 DUP1 SLOAD SWAP1 POP DUP3 GT ISZERO PUSH2 0xF4 JUMPI PUSH1 0x40 MLOAD PUSH32 0x8C379A000000000000000000000000000000000000000000000000000000000 DUP2 MSTORE PUSH1 0x4 ADD PUSH2 0xEB SWAP1 PUSH2 0x454 JUMP JUMPDEST PUSH1 0x40 MLOAD DUP1 SWAP2 SUB SWAP1 REVERT JUMPDEST PUSH0 DUP1 DUP1 PUSH1 0x1 DUP2 SLOAD ADD DUP1 DUP3 SSTORE DUP1 SWAP2 POP POP PUSH1 0x1 SWAP1 SUB SWAP1 PUSH0 MSTORE PUSH1 0x20 PUSH0 KECCAK256 ADD PUSH0 SWAP1 SWAP2 SWAP1 SWAP2 SWAP1 SWAP2 POP SSTORE PUSH0 PUSH1 0x1 PUSH0 DUP1 SLOAD SWAP1 POP PUSH2 0x12A SWAP2 SWAP1 PUSH2 0x49F JUMP JUMPDEST SWAP1 POP JUMPDEST DUP3 DUP2 GT ISZERO PUSH2 0x18F JUMPI PUSH0 PUSH1 0x1 DUP3 PUSH2 0x143 SWAP2 SWAP1 PUSH2 0x49F JUMP JUMPDEST DUP2 SLOAD DUP2 LT PUSH2 0x154 JUMPI PUSH2 0x153 PUSH2 0x4D2 JUMP JUMPDEST JUMPDEST SWAP1 PUSH0 MSTORE PUSH1 0x20 PUSH0 KECCAK256 ADD SLOAD PUSH0 DUP3 DUP2 SLOAD DUP2 LT PUSH2 0x170 JUMPI PUSH2 0x16F PUSH2 0x4D2 JUMP JUMPDEST JUMPDEST SWAP1 PUSH0 MSTORE PUSH1 0x20 PUSH0 KECCAK256 ADD DUP2 SWAP1 SSTORE POP DUP1 DUP1 PUSH2 0x187 SWAP1 PUSH2 0x4FF JUMP JUMPDEST SWAP2 POP POP PUSH2 0x12D JUMP JUMPDEST POP DUP1 PUSH0 DUP4 DUP2 SLOAD DUP2 LT PUSH2 0x1A4 JUMPI PUSH2 0x1A3 PUSH2 0x4D2 JUMP JUMPDEST JUMPDEST SWAP1 PUSH0 MSTORE PUSH1 0x20 PUSH0 KECCAK256 ADD DUP2 SWAP1 SSTORE POP POP POP JUMP JUMPDEST PUSH0 DUP2 DUP2 SLOAD DUP2 LT PUSH2 0x1C2 JUMPI PUSH0 DUP1 REVERT JUMPDEST SWAP1 PUSH0 MSTORE PUSH1 0x20 PUSH0 KECCAK256 ADD PUSH0 SWAP2 POP SWAP1 POP SLOAD DUP2 JUMP JUMPDEST PUSH1 0x60 PUSH0 DUP1 SLOAD DUP1 PUSH1 0x20 MUL PUSH1 0x20 ADD PUSH1 0x40 MLOAD SWAP1 DUP2 ADD PUSH1 0x40 MSTORE DUP1 SWAP3 SWAP2 SWAP1 DUP2 DUP2 MSTORE PUSH1 0x20 ADD DUP3 DUP1 SLOAD DUP1 ISZERO PUSH2 0x21E JUMPI PUSH1 0x20 MUL DUP3 ADD SWAP2 SWAP1 PUSH0 MSTORE PUSH1 0x20 PUSH0 KECCAK256 SWAP1 JUMPDEST DUP2 SLOAD DUP2 MSTORE PUSH1 0x20 ADD SWAP1 PUSH1 0x1 ADD SWAP1 DUP1 DUP4 GT PUSH2 0x20A JUMPI JUMPDEST POP POP POP POP POP SWAP1 POP SWAP1 JUMP JUMPDEST PUSH0 DUP1 REVERT JUMPDEST PUSH0 DUP2 SWAP1 POP SWAP2 SWAP1 POP JUMP JUMPDEST PUSH2 0x23E DUP2 PUSH2 0x22C JUMP JUMPDEST DUP2 EQ PUSH2 0x248 JUMPI PUSH0 DUP1 REVERT JUMPDEST POP JUMP JUMPDEST PUSH0 DUP2 CALLDATALOAD SWAP1 POP PUSH2 0x259 DUP2 PUSH2 0x235 JUMP JUMPDEST SWAP3 SWAP2 POP POP JUMP JUMPDEST PUSH0 DUP2 SWAP1 POP SWAP2 SWAP1 POP JUMP JUMPDEST PUSH2 0x271 DUP2 PUSH2 0x25F JUMP JUMPDEST DUP2 EQ PUSH2 0x27B JUMPI PUSH0 DUP1 REVERT JUMPDEST POP JUMP JUMPDEST PUSH0 DUP2 CALLDATALOAD SWAP1 POP PUSH2 0x28C DUP2 PUSH2 0x268 JUMP JUMPDEST SWAP3 SWAP2 POP POP JUMP JUMPDEST PUSH0 DUP1 PUSH1 0x40 DUP4 DUP6 SUB SLT ISZERO PUSH2 0x2A8 JUMPI PUSH2 0x2A7 PUSH2 0x228 JUMP JUMPDEST JUMPDEST PUSH0 PUSH2 0x2B5 DUP6 DUP3 DUP7 ADD PUSH2 0x24B JUMP JUMPDEST SWAP3 POP POP PUSH1 0x20 PUSH2 0x2C6 DUP6 DUP3 DUP7 ADD PUSH2 0x27E JUMP JUMPDEST SWAP2 POP POP SWAP3 POP SWAP3 SWAP1 POP JUMP JUMPDEST PUSH0 PUSH1 0x20 DUP3 DUP5 SUB SLT ISZERO PUSH2 0x2E5 JUMPI PUSH2 0x2E4 PUSH2 0x228 JUMP JUMPDEST JUMPDEST PUSH0 PUSH2 0x2F2 DUP5 DUP3 DUP6 ADD PUSH2 0x24B JUMP JUMPDEST SWAP2 POP POP SWAP3 SWAP2 POP POP JUMP JUMPDEST PUSH2 0x304 DUP2 PUSH2 0x25F JUMP JUMPDEST DUP3 MSTORE POP POP JUMP JUMPDEST PUSH0 PUSH1 0x20 DUP3 ADD SWAP1 POP PUSH2 0x31D PUSH0 DUP4 ADD DUP5 PUSH2 0x2FB JUMP JUMPDEST SWAP3 SWAP2 POP POP JUMP JUMPDEST PUSH0 DUP2 MLOAD SWAP1 POP SWAP2 SWAP1 POP JUMP JUMPDEST PUSH0 DUP3 DUP3 MSTORE PUSH1 0x20 DUP3 ADD SWAP1 POP SWAP3 SWAP2 POP POP JUMP JUMPDEST PUSH0 DUP2 SWAP1 POP PUSH1 0x20 DUP3 ADD SWAP1 POP SWAP2 SWAP1 POP JUMP JUMPDEST PUSH2 0x355 DUP2 PUSH2 0x25F JUMP JUMPDEST DUP3 MSTORE POP POP JUMP JUMPDEST PUSH0 PUSH2 0x366 DUP4 DUP4 PUSH2 0x34C JUMP JUMPDEST PUSH1 0x20 DUP4 ADD SWAP1 POP SWAP3 SWAP2 POP POP JUMP JUMPDEST PUSH0 PUSH1 0x20 DUP3 ADD SWAP1 POP SWAP2 SWAP1 POP JUMP JUMPDEST PUSH0 PUSH2 0x388 DUP3 PUSH2 0x323 JUMP JUMPDEST PUSH2 0x392 DUP2 DUP6 PUSH2 0x32D JUMP JUMPDEST SWAP4 POP PUSH2 0x39D DUP4 PUSH2 0x33D JUMP JUMPDEST DUP1 PUSH0 JUMPDEST DUP4 DUP2 LT ISZERO PUSH2 0x3CD JUMPI DUP2 MLOAD PUSH2 0x3B4 DUP9 DUP3 PUSH2 0x35B JUMP JUMPDEST SWAP8 POP PUSH2 0x3BF DUP4 PUSH2 0x372 JUMP JUMPDEST SWAP3 POP POP PUSH1 0x1 DUP2 ADD SWAP1 POP PUSH2 0x3A0 JUMP JUMPDEST POP DUP6 SWAP4 POP POP POP POP SWAP3 SWAP2 POP POP JUMP JUMPDEST PUSH0 PUSH1 0x20 DUP3 ADD SWAP1 POP DUP2 DUP2 SUB PUSH0 DUP4 ADD MSTORE PUSH2 0x3F2 DUP2 DUP5 PUSH2 0x37E JUMP JUMPDEST SWAP1 POP SWAP3 SWAP2 POP POP JUMP JUMPDEST PUSH0 DUP3 DUP3 MSTORE PUSH1 0x20 DUP3 ADD SWAP1 POP SWAP3 SWAP2 POP POP JUMP JUMPDEST PUSH32 0x496E646578206F7574206F6620626F756E647300000000000000000000000000 PUSH0 DUP3 ADD MSTORE POP JUMP JUMPDEST PUSH0 PUSH2 0x43E PUSH1 0x13 DUP4 PUSH2 0x3FA JUMP JUMPDEST SWAP2 POP PUSH2 0x449 DUP3 PUSH2 0x40A JUMP JUMPDEST PUSH1 0x20 DUP3 ADD SWAP1 POP SWAP2 SWAP1 POP JUMP JUMPDEST PUSH0 PUSH1 0x20 DUP3 ADD SWAP1 POP DUP2 DUP2 SUB PUSH0 DUP4 ADD MSTORE PUSH2 0x46B DUP2 PUSH2 0x432 JUMP JUMPDEST SWAP1 POP SWAP2 SWAP1 POP JUMP JUMPDEST PUSH32 0x4E487B7100000000000000000000000000000000000000000000000000000000 PUSH0 MSTORE PUSH1 0x11 PUSH1 0x4 MSTORE PUSH1 0x24 PUSH0 REVERT JUMPDEST PUSH0 PUSH2 0x4A9 DUP3 PUSH2 0x22C JUMP JUMPDEST SWAP2 POP PUSH2 0x4B4 DUP4 PUSH2 0x22C JUMP JUMPDEST SWAP3 POP DUP3 DUP3 SUB SWAP1 POP DUP2 DUP2 GT ISZERO PUSH2 0x4CC JUMPI PUSH2 0x4CB PUSH2 0x472 JUMP JUMPDEST JUMPDEST SWAP3 SWAP2 POP POP JUMP JUMPDEST PUSH32 0x4E487B7100000000000000000000000000000000000000000000000000000000 PUSH0 MSTORE PUSH1 0x32 PUSH1 0x4 MSTORE PUSH1 0x24 PUSH0 REVERT JUMPDEST PUSH0 PUSH2 0x509 DUP3 PUSH2 0x22C JUMP JUMPDEST SWAP2 POP PUSH0 DUP3 SUB PUSH2 0x51B JUMPI PUSH2 0x51A PUSH2 0x472 JUMP JUMPDEST JUMPDEST PUSH1 0x1 DUP3 SUB SWAP1 POP SWAP2 SWAP1 POP JUMP INVALID LOG2 PUSH5 0x6970667358 0x22 SLT KECCAK256 0x2A 0x2C DELEGATECALL PUSH22 0xC7DF67927B4ED513EDEB11BA03E7D03231DE7D03AD35 DUP16 MSTORE 0xF9 MLOAD CALL 0xCB PUSH5 0x736F6C6343 STOP ADDMOD BYTE STOP CALLER "
				},
				"gasEstimates": {
					"creation": {
						"codeDepositCost": "274400",
						"executionCost": "310",
						"totalCost": "274710"
					},
					"external": {
						"array(uint256)": "4870",
						"getArray()": "infinite",
						"insertElement(uint256,int256)": "infinite"
					}
				},
				"methodIdentifiers": {
					"array(uint256)": "38d94193",
					"getArray()": "d504ea1d",
					"insertElement(uint256,int256)": "154ff7ab"
				}
			},
			"storageLayout": {
				"storage": [
					{
						"astId": 4,
						"contract": "contracts/DAY05/p2.sol:ArrayOperations",
						"label": "array",
						"offset": 0,
						"slot": "0",
						"type": "t_array(t_int256)dyn_storage"
					}
				],
				"types": {
					"t_array(t_int256)dyn_storage": {
						"base": "t_int256",
						"encoding": "dynamic_array",
						"label": "int256[]",
						"numberOfBytes": "32"
					},
					"t_int256": {
						"encoding": "inplace",
						"label": "int256",
						"numberOfBytes": "32"
					}
				}
			},
			"userdoc": {
				"kind": "user",
				"methods": {},
				"version": 1
			}
		}
	}
}